{
	"data": {
		"bytecode": {
			"linkReferences": {},
			"object": "608060405234801561001057600080fd5b5033600160006101000a81548173ffffffffffffffffffffffffffffffffffffffff021916908373ffffffffffffffffffffffffffffffffffffffff160217905550615e81806100616000396000f3fe608060405234801561001057600080fd5b506004361061010b5760003560e01c8063378a2178116100a25780638da5cb5b116100715780638da5cb5b14610285578063b4f3b1ca146102a3578063b6a5d7de146102c1578063bb314cd8146102dd578063fba4f87b146102fb5761010b565b8063378a2178146102205780635d308fb81461022a57806363ffab311461025d5780637e95b5e91461027b5761010b565b80631ce1a024116100de5780631ce1a02414610186578063218bfb50146101a25780632eb4a7ab146101d25780633477ee2e146101f05761010b565b806306a49fce1461011057806306fdde031461012e5780630990248b1461014c5780630c3f6acf14610168575b600080fd5b610118610317565b60405161012591906136e3565b60405180910390f35b6101366104d9565b604051610143919061374c565b60405180910390f35b6101666004803603810190610161919061316d565b610567565b005b61017061063b565b60405161017d919061374c565b60405180910390f35b6101a0600480360381019061019b91906131ae565b6106c9565b005b6101bc60048036038101906101b79190613103565b6108df565b6040516101c99190613817565b60405180910390f35b6101da6108f6565b6040516101e79190613817565b60405180910390f35b61020a60048036038101906102059190613285565b6108fc565b604051610217919061374c565b60405180910390f35b6102286109b2565b005b610244600480360381019061023f9190613285565b610b52565b6040516102549493929190613832565b60405180910390f35b610265610ca2565b604051610272919061374c565b60405180910390f35b610283610d30565b005b61028d6111bb565b60405161029a91906136c8565b60405180910390f35b6102ab6111e1565b6040516102b89190613817565b60405180910390f35b6102db60048036038101906102d69190613060565b6111e7565b005b6102e56112df565b6040516102f29190613817565b60405180910390f35b61031560048036038101906103109190613089565b6112e5565b005b6060600060078054905067ffffffffffffffff811115610360577f4e487b7100000000000000000000000000000000000000000000000000000000600052604160045260246000fd5b60405190808252806020026020018201604052801561039357816020015b606081526020019060019003908161037e5790505b50905060005b6007805490508110156104d157600781815481106103e0577f4e487b7100000000000000000000000000000000000000000000000000000000600052603260045260246000fd5b906000526020600020906002020160000180546103fc90613cc5565b80601f016020809104026020016040519081016040528092919081815260200182805461042890613cc5565b80156104755780601f1061044a57610100808354040283529160200191610475565b820191906000526020600020905b81548152906001019060200180831161045857829003601f168201915b50505050508282815181106104b3577f4e487b7100000000000000000000000000000000000000000000000000000000600052603260045260246000fd5b602002602001018190525080806104c990613d42565b915050610399565b508091505090565b600080546104e690613cc5565b80601f016020809104026020016040519081016040528092919081815260200182805461051290613cc5565b801561055f5780601f106105345761010080835404028352916020019161055f565b820191906000526020600020905b81548152906001019060200180831161054257829003601f168201915b505050505081565b6000610572826115ef565b90506005819080600181540180825580915050600190039060005260206000200160009091909190915055600260008154809291906105b090613d42565b919050555060046002541415610600577f8a36f5a234186d446e36a7df36ace663a05a580d9bea2dd899c6dd76a075d5fa816040516105ef9190613817565b60405180910390a16105ff610d30565b5b7f8a36f5a234186d446e36a7df36ace663a05a580d9bea2dd899c6dd76a075d5fa8160405161062f9190613817565b60405180910390a15050565b6003805461064890613cc5565b80601f016020809104026020016040519081016040528092919081815260200182805461067490613cc5565b80156106c15780601f10610696576101008083540402835291602001916106c1565b820191906000526020600020905b8154815290600101906020018083116106a457829003601f168201915b505050505081565b60018460ff16101580156106e1575060218460ff1611155b6106ea57600080fd5b8060089080519060200190610700929190612c73565b5033600160006101000a81548173ffffffffffffffffffffffffffffffffffffffff021916908373ffffffffffffffffffffffffffffffffffffffff1602179055508460009080519060200190610758929190612c73565b5060606007604051806040016040528086815260200183815250908060018154018082558091505060019003906000526020600020906002020160009091909190915060008201518160000190805190602001906107b7929190612c73565b5060208201518160010190805190602001906107d4929190612cf9565b505050600760405180604001604052808581526020018381525090806001815401808255809150506001900390600052602060002090600202016000909190919091506000820151816000019080519060200190610833929190612c73565b506020820151816001019080519060200190610850929190612cf9565b5050506040518060400160405280601281526020017f564f54454b45592d47454e45524154494f4e00000000000000000000000000008152506003908051906020019061089e929190612c73565b507fb712ca18858a18cb63ef75fe8c737e3ad52062d7389284fd4ecb4524da24e09060036040516108cf919061376e565b60405180910390a1505050505050565b6000806108eb836116af565b905080915050919050565b60095481565b6007818154811061090c57600080fd5b906000526020600020906002020160009150905080600001805461092f90613cc5565b80601f016020809104026020016040519081016040528092919081815260200182805461095b90613cc5565b80156109a85780601f1061097d576101008083540402835291602001916109a8565b820191906000526020600020905b81548152906001019060200180831161098b57829003601f168201915b5050505050905081565b7ff75583bd1a80d19a7920011d52bf4464f3140dc3ac59046d37a729fc46b9a7596007600081548110610a0e577f4e487b7100000000000000000000000000000000000000000000000000000000600052603260045260246000fd5b90600052602060002090600202016000016007600081548110610a5a577f4e487b7100000000000000000000000000000000000000000000000000000000600052603260045260246000fd5b9060005260206000209060020201600101604051610a799291906137c0565b60405180910390a17ff75583bd1a80d19a7920011d52bf4464f3140dc3ac59046d37a729fc46b9a7596007600181548110610add577f4e487b7100000000000000000000000000000000000000000000000000000000600052603260045260246000fd5b90600052602060002090600202016000016007600181548110610b29577f4e487b7100000000000000000000000000000000000000000000000000000000600052603260045260246000fd5b9060005260206000209060020201600101604051610b489291906137c0565b60405180910390a1565b6000806060600080610539905060005b600680549050811015610bd25760068181548110610ba9577f4e487b7100000000000000000000000000000000000000000000000000000000600052603260045260246000fd5b9060005260206000200154871415610bbf578091505b8080610bca90613d42565b915050610b62565b50610539811415610be257600080fd5b806005805490506006806001600680549050610bfe9190613bc6565b81548110610c35577f4e487b7100000000000000000000000000000000000000000000000000000000600052603260045260246000fd5b906000526020600020015481805480602002602001604051908101604052809291908181526020018280548015610c8b57602002820191906000526020600020905b815481526020019060010190808311610c77575b505050505091509450945094509450509193509193565b60088054610caf90613cc5565b80601f0160208091040260200160405190810160405280929190818152602001828054610cdb90613cc5565b8015610d285780601f10610cfd57610100808354040283529160200191610d28565b820191906000526020600020905b815481529060010190602001808311610d0b57829003601f168201915b505050505081565b6000600190506000805b6005805490508311610d7057600580549050831415610d5c5760019150610d70565b600283610d699190613b6c565b9250610d3a565b5b6005805490508314158015610d8a575060001515821515145b15610dcd57600561053990806001815401808255809150506001900390600052602060002001600090919091909150558280610dc590613c9b565b935050610d71565b60005b600580549050811015610e97577f8a36f5a234186d446e36a7df36ace663a05a580d9bea2dd899c6dd76a075d5fa82604051610e0c9190613817565b60405180910390a160058181548110610e4e577f4e487b7100000000000000000000000000000000000000000000000000000000600052603260045260246000fd5b9060005260206000200154915060068290806001815401808255809150506001900390600052602060002001600090919091909150558080610e8f90613d42565b915050610dd0565b5060008060058054905090506000600267ffffffffffffffff811115610ee6577f4e487b7100000000000000000000000000000000000000000000000000000000600052604160045260246000fd5b604051908082528060200260200182016040528015610f145781602001602082028036833780820191505090505b5090505b60008211156110d85760005b600183610f319190613bc6565b8110156110b55760068185610f469190613ae5565b81548110610f7d577f4e487b7100000000000000000000000000000000000000000000000000000000600052603260045260246000fd5b906000526020600020015482600081518110610fc2577f4e487b7100000000000000000000000000000000000000000000000000000000600052603260045260246000fd5b602002602001018181525050600660018286610fde9190613ae5565b610fe89190613ae5565b8154811061101f577f4e487b7100000000000000000000000000000000000000000000000000000000600052603260045260246000fd5b906000526020600020015482600181518110611064577f4e487b7100000000000000000000000000000000000000000000000000000000600052603260045260246000fd5b602002602001018181525050600661107b836116af565b90806001815401808255809150506001900390600052602060002001600090919091909150556002816110ae9190613ae5565b9050610f24565b5081836110c29190613ae5565b92506002826110d19190613b3b565b9150610f18565b60066001846110e79190613bc6565b8154811061111e577f4e487b7100000000000000000000000000000000000000000000000000000000600052603260045260246000fd5b90600052602060002001546009819055506040518060400160405280600b81526020017f564f54494e472d4f50454e0000000000000000000000000000000000000000008152506003908051906020019061117a929190612c73565b507fb712ca18858a18cb63ef75fe8c737e3ad52062d7389284fd4ecb4524da24e09060036040516111ab919061376e565b60405180910390a1505050505050565b600160009054906101000a900473ffffffffffffffffffffffffffffffffffffffff1681565b600a5481565b600160009054906101000a900473ffffffffffffffffffffffffffffffffffffffff1673ffffffffffffffffffffffffffffffffffffffff163373ffffffffffffffffffffffffffffffffffffffff161461124157600080fd5b6001600460008373ffffffffffffffffffffffffffffffffffffffff1673ffffffffffffffffffffffffffffffffffffffff16815260200190815260200160002060000160006101000a81548160ff0219169083151502179055506112a5816117b2565b7f081ba50acbad95aaf2f3d6ae236a307baad3be11e7c84f2b4a043cfc114ebe31336040516112d491906136c8565b60405180910390a150565b60025481565b60011515600460003373ffffffffffffffffffffffffffffffffffffffff1673ffffffffffffffffffffffffffffffffffffffff16815260200190815260200160002060000160009054906101000a900460ff1615151461137b576040517f08c379a0000000000000000000000000000000000000000000000000000000008152600401611372906137f7565b60405180910390fd5b600060405161138990612d46565b604051809103906000f0801580156113a5573d6000803e3d6000fd5b5090508073ffffffffffffffffffffffffffffffffffffffff1663dd129313878787876040518563ffffffff1660e01b81526004016113e79493929190613705565b60206040518083038186803b1580156113ff57600080fd5b505afa158015611413573d6000803e3d6000fd5b505050506040513d601f19601f820116820180604052508101906114379190613144565b61144057600080fd5b6007828154811061147a577f4e487b7100000000000000000000000000000000000000000000000000000000600052603260045260246000fd5b9060005260206000209060020201600101600460003373ffffffffffffffffffffffffffffffffffffffff1673ffffffffffffffffffffffffffffffffffffffff1681526020019081526020016000206001015490806001815401808255809150506001900390600052602060002001600090919091909150557f8c4bbf432c3f9c3348d45700f436aa13af99743d19b100361cbcf36e76e443296007838154811061154f577f4e487b7100000000000000000000000000000000000000000000000000000000600052603260045260246000fd5b90600052602060002090600202016000013360405161156f929190613790565b60405180910390a16002600081548092919061158a90613c9b565b9190505550600060025414156115e7576040518060400160405280600381526020017f454e440000000000000000000000000000000000000000000000000000000000815250600390805190602001906115e5929190612c73565b505b505050505050565b6000808290506000809250600090505b81518110156116a8576000828281518110611643577f4e487b7100000000000000000000000000000000000000000000000000000000600052603260045260246000fd5b602001015160f81c60f81b60f81c60ff16905060308110158015611668575060398111155b156116945760308161167a9190613bc6565b600a856116879190613b6c565b6116919190613ae5565b93505b5080806116a090613d42565b9150506115ff565b5050919050565b6000806000905060007f30644e72e131a029b85045b68181585d2833e84879b9709143e1f593f0000001905060005b84518110156117a75781611732868381518110611724577f4e487b7100000000000000000000000000000000000000000000000000000000600052603260045260246000fd5b6020026020010151856117fd565b86838151811061176b577f4e487b7100000000000000000000000000000000000000000000000000000000600052603260045260246000fd5b60200260200101518561177e9190613ae5565b6117889190613ae5565b6117929190613d8b565b9250808061179f90613d42565b9150506116de565b508192505050919050565b6001600460008373ffffffffffffffffffffffffffffffffffffffff1673ffffffffffffffffffffffffffffffffffffffff1681526020019081526020016000206001018190555050565b60007f30644e72e131a029b85045b68181585d2833e84879b9709143e1f593f0000001600080847f2e2ebbb178296b63d88ec198f0976ad98bc1d4eb0d921ddd2eb86cb7e70a98e58701019150828283099050828284858485098409099550847f21bfc154b5b071d22d06105663553801f858c1f231020b4c291a729d6281d3498701019150828283099050828284858485098409099550847f126cfa352b0e2701442b36e0c2fc88287cfd3bfecce842afc0e3e78d8edb4ad88701019150828283099050828284858485098409099550847f0309d7067ab65de1a99fe23f458d0bc3f18c59b6642ef48afc679ef17cb6928c8701019150828283099050828284858485098409099550847f194c4693409966960be88513cfe32987c125f71398a782e44973fb8af4798bd88701019150828283099050828284858485098409099550847f05a849684bc58cc0d6e9f319b4dae26db171733bf60f31d978e41d09a75a63198701019150828283099050828284858485098409099550847f18bd4dae5134538bd2f90d41bbb1e330b2a8286ba4a09aca3fbbdcf932534be58701019150828283099050828284858485098409099550847f0736c60cd39fd1649d4845b4f9a6ec9baca89fb2de0a3d7eeabe43504b5607fa8701019150828283099050828284858485098409099550847f25a6971a9d2c1de9f374378d8f61492b1bd3c46584c076a76c43c3cd1a7475128701019150828283099050828284858485098409099550847f0a3373d15fa6dce221f83226c02d41f8aea5cfc6da4c9f4981ada1bd4b50f56e8701019150828283099050828284858485098409099550847f2b70028e2bf4e008e22eddb78d4190d73c289dc6445b3f64e15f8bd0ec02c6728701019150828283099050828284858485098409099550847f0b24ef461a71eed93dd366342f9ca4eebb749c8a5a6057c801d538c7c0666ba48701019150828283099050828284858485098409099550847f05d1e0ac576d1ec814b621516339ae1a291c7df36b5fd6cf0b4e3c9cd25e30728701019150828283099050828284858485098409099550847f271cfbf88e9744b8596e7e2d6875c8005d0e62014010ac35e95a7ce2390bc50f8701019150828283099050828284858485098409099550847f196309f1d170d741ab1ce90c39772017fb7cdec78c37882b98a6b56956c13def8701019150828283099050828284858485098409099550847f127c1116c575c03c7f6d83417d8c1b3808f92ee16924a54094bf094721e9e4f58701019150828283099050828284858485098409099550847f1bff78047ee67d38a54fdc540f9a2ba07f63489acd36425f1ae210ac329826f58701019150828283099050828284858485098409099550847f06c7dc7bbae615fcf1896f2b8db7d92c05dc1ea1c8134e9db6fd588672c53e9a8701019150828283099050828284858485098409099550847f12df78cba175ef76dbfcc9c785926bb3949a87ec7533e2559a27a64b91cebba58701019150828283099050828284858485098409099550847f2bd4cdc962e3da62cb3c96f7c428a9b0d518bfa7ce26f8fce7a6af769afb65408701019150828283099050828284858485098409099550847f24edd3847febbe44c4cc390246e3379b47fd01a030d0cd0b4fcf7fbd1cabfe588701019150828283099050828284858485098409099550847f1ce065d2c2561bb573e4cf4259d3b0b0e9eacb447751c62b77d0bc5e4e3c7d158701019150828283099050828284858485098409099550847f18053e9f0d45f9eefbda135bfd39329e34837e633565c314fb9030b9db7381bb8701019150828283099050828284858485098409099550847f162ffa8742138bbe516168bf86ec78b1ad1e8b535ac455a7cfbb22c13f9c5a9e8701019150828283099050828284858485098409099550847f079eea42e16ac6442ca82623fc0e8d9ad3996a47a8013ea9cb73858ca42b71598701019150828283099050828284858485098409099550847f0a49af2bbe11b05bd02a69a47b1bad5b2170407ada21142f06e4e109de88a1b68701019150828283099050828284858485098409099550847f12c34eebbaa69cccc36929e8f4a6e40771e153ff77943da55c4fc860537b733a8701019150828283099050828284858485098409099550847e8de5ac6b4e359335b6fce58dc0e5e43fd2aefd86bac35abe579b8cace5dbc88701019150828283099050828284858485098409099550847f04a6e988b50d915734bf3296d83057ffe6a550f8987e4597bee7d333cd24a8658701019150828283099050828284858485098409099550847f24112633926cfc6028fa2ffd9f090b1e5428a0a87d7118356e48b5d4704492178701019150828283099050828284858485098409099550847f0d56329982f3df38a3f19fb814c3013f419ba0eb8403b27c0c0e75c6fe1cf4688701019150828283099050828284858485098409099550847f1f01ef80763c95f53c434164493d9673aeef290bf1aa1997d677b557b9692e8a8701019150828283099050828284858485098409099550847f105c5257f801527e60b0361c00075b5a79d2dc6821d8a1258d906ed453c7e7be8701019150828283099050828284858485098409099550847f03db505a0c32cb61ca099389c2180e1c83827fb41d9fed84d88766df44c630798701019150828283099050828284858485098409099550847f1262e738f38db6c79d24d9727294421cd95afa24f4700c1323ab83c3a06ace328701019150828283099050828284858485098409099550847f0ee68c3e38c194033994c0d4d7bde35bfafa35b22a95f915f82c5a3b0422bd9a8701019150828283099050828284858485098409099550847f2ee5427bd20c47f8d2f0aa9e6419f7926abcd5965084292ae54dd780077e69028701019150828283099050828284858485098409099550847f1e542d31d2a381792e0a9241c46229a22fd9382443e423a0e419d0feb58656af8701019150828283099050828284858485098409099550847f0ba39f01462ab6a7cf621952752fcde48677d7f32df47e940eacf4954c5ef6328701019150828283099050828284858485098409099550847f29c00b058c17800146bdc06b1e73ff5d0ff53df96f8463818c0572d11fcaf88b8701019150828283099050828284858485098409099550847f0b6200895b60a6c6794fcf1c2b1b15d03a713c905a8ba1f1315f7501fe1a50b88701019150828283099050828284858485098409099550847f2bc639b1b85d731f62d2c6f391d4498e392cb75edcbd5c4c0fa8b26d32d68a128701019150828283099050828284858485098409099550847f2a89f38e6440ce641127046b67d8e615f14503d72d76bf3c703a01d1463a84458701019150828283099050828284858485098409099550847f1750ede7eeeb4edd7838b67fac6d250a54055eeead10e69b3a6e1f076ca878688701019150828283099050828284858485098409099550847f0c2d65084bead2a743115be5329d5458d29802081f6f9dac4165c42651f9be2b8701019150828283099050828284858485098409099550847f28303e2d834e16e1fe33c9ab726a3e75dd0dad9bfea1a43267199e1f243993fb8701019150828283099050828284858485098409099550847f2b572811ca34ea5110d10772e4ced362ebefd7cd1e1884b769e9435914efc5e58701019150828283099050828284858485098409099550847f17521ca5799fe2ea82c67c0a8d0863b5eec0ef9b703e195dd402b7008b53f6b48701019150828283099050828284858485098409099550847f0407e54b96a5b63c609fa3797b223c73d260a365ad58b25891a5660272096bd58701019150828283099050828284858485098409099550847f1a3cd155b03c7d33cc8222c997424bc14069e2edbf4b8aa564c9e5832bdace918701019150828283099050828284858485098409099550847f296255b5e697e517c502ba49b18aaad89514a490a02e7a878b5d559841b93fbd8701019150828283099050828284858485098409099550847f174835801a1f1525b4c21853b965c5048af465e9f79de9d16748c67953da79a78701019150828283099050828284858485098409099550847f2d4afed7a708e5972e84d766292f2c841c5d8570961074d59ad3f51e9369a5978701019150828283099050828284858485098409099550847f1c0eb06744c9866e271cd29a7f17f72964faba3cd088b95e73dcce9d92c79ba68701019150828283099050828284858485098409099550847f26705e7e4f23a7d786ad1786b353a2f8b82269c7b58ab70d7b93f41685d34d458701019150828283099050828284858485098409099550847f04e674d88b90b1188353106ae25c0447acace9dc6d62cfe7fec2d7993dfd7a228701019150828283099050828284858485098409099550847f0df3335da13ff46f65095f975d157886241aeccff38fd9bba92644f8969d7e098701019150828283099050828284858485098409099550847f2dfff62b9282ec05b1fa44479a6e9debe9ac631813d2b10e44b9e0fe19e4d4ee8701019150828283099050828284858485098409099550847f08ece248fe1ce1cd705699b5cd07c990ec27721bab59b657bb138e487ee6694d8701019150828283099050828284858485098409099550847f2c1ab81db607ba76dbf71f48752c856bf183044981c3b6d1fd31b179a078f5718701019150828283099050828284858485098409099550847f01de6f8886868e351bf4caad293bd86ed29ef63810e15cb809542e01bfbbcb888701019150828283099050828284858485098409099550847f23dd8b576fa286331864d63c77fd82fa61da717533821b9382617ebd54abeb468701019150828283099050828284858485098409099550847f169f2c8e515b2cee8d183991c3712736001a7f92fb34c3e3f532dec373aacbfb8701019150828283099050828284858485098409099550847f0ecf89b898e2deca99ae5108d271f1fa92e5018c1ac899d554dc1dfa35ceb0a08701019150828283099050828284858485098409099550847f0dc0d6e76afba377dd693ed4c47a4f9fee7a88d1df5df62fd06f2f87b81de1c88701019150828283099050828284858485098409099550847f0d8d08571539c68a37dad2a6638291d323948e57a0189a7be2ec14d89308bb6d8701019150828283099050828284858485098409099550847f17d170e737533e922c934f79bad3c28f85ef14b21c7354000298cee876977a448701019150828283099050828284858485098409099550847f09ed630d4088d7acaa34064515c1cb368ed405c4ded26df38652d290b26f6aff8701019150828283099050828284858485098409099550847f2b5381943dd4c43bd059a4747b72fc116f099c46004dc811ddb440f7ee69701e8701019150828283099050828284858485098409099550847f01da34e987e965c368ec0252e97db8bfb78668db369cdf6c70f7e02b5bd52b3b8701019150828283099050828284858485098409099550847f1a18c896f124cd4821fbe08ac680b78362c15344619cef072874f43799b89f238701019150828283099050828284858485098409099550847f168dbaf0eae2cfe96f6b340bfd4922c1c41317bfff69613b81d9722e34059f208701019150828283099050828284858485098409099550847f1dfd587726ec442565eb47fc0234740634b6562d1b60192947140b8670aa40148701019150828283099050828284858485098409099550847f147a904bcd17a3f66ebd75b2c1279507001e602842a047929fd119d31edf39248701019150828283099050828284858485098409099550847e621164e8b17a476172ee2aabd9a1a67ecc05f926bec5bbaceb7524616e11668701019150828283099050828284858485098409099550847f280fcce91f920b6487ee3e6a838abbc1f7eb44e4853b22d067a56f5e908499b98701019150828283099050828284858485098409099550847f2d49d03ab6b741495e4d7cbe87ea6cf0f06aea86f528d13d57f6a05e4c868d0b8701019150828283099050828284858485098409099550847f2a59b6e410852d96661479179081af38f478b7603eb3e4f231f99633d826cde98701019150828283099050828284858485098409099550847f1a7783fa9ff7b36d38aeb75e65cfc88260b70d4600b51ab5745e5fe1dc35d9b18701019150828283099050828284858485098409099550847f286d1e7e039fa286d1bd8fe69e175ecad61693cc1f55044847191bae2ff344b28701019150828283099050828284858485098409099550847f0fa108dbe8e14e8c53093f9aaf1f989dabb3dc026ffecb049d3d6b4b2c9b80778701019150828283099050828284858485098409099550847f0e4b25635fa58150829c3e832c4361bfa7edfdf40b0514c00dd3a7338131f1938701019150828283099050828284858485098409099550847f23b0ea71b8bbd3cb62b741e525f5c8b35cbfed820aaf1234d03a4655cdf710398701019150828283099050828284858485098409099550847f2aced572dbfd2664569030fcf391019702f79cbfbe380714894fbfc785dad03f8701019150828283099050828284858485098409099550847f03c36b340d12daf2422febd15a4521f351459057c2affd6816c67fa38b3cc34d8701019150828283099050828284858485098409099550847f17d64c030f29369c09ffd529c7532b84228e69ef6dd9d9dab603ba86cb9254e78701019150828283099050828284858485098409099550847f095050333e4136e4c73b4101ab008bf625a73c51afd5e77f99c606ca7ace63d78701019150828283099050828284858485098409099550847f10ca0fd2a95bc198763d375f566182463e0c92ea122df6485f1c4e5a9769b32c8701019150828283099050828284858485098409099550847f29f63c935efe224e235d5b49b88578a97b25c739a342d4a0d908b98ef757db618701019150828283099050828284858485098409099550847f1e1289b8eff2d431b178bc957cc0c41a1d7237057b9256fd090eb3c6366b9ef58701019150828283099050828284858485098409099550847f1ed8ee02730ece601f15be81e7d27250c4a4d4c04e7a2f3f4e79b931fd9ffac9870101915082828309905082828485848509840909955082858708935050505092915050565b828054612c7f90613cc5565b90600052602060002090601f016020900481019282612ca15760008555612ce8565b82601f10612cba57805160ff1916838001178555612ce8565b82800160010185558215612ce8579182015b82811115612ce7578251825591602001919060010190612ccc565b5b509050612cf59190612d53565b5090565b828054828255906000526020600020908101928215612d35579160200282015b82811115612d34578251825591602001919060010190612d19565b5b509050612d429190612d53565b5090565b611ef780613f5583390190565b5b80821115612d6c576000816000905550600101612d54565b5090565b6000612d83612d7e846138a3565b61387e565b90508082856040860282011115612d9957600080fd5b60005b85811015612dc95781612daf8882612fa6565b845260208401935060408301925050600181019050612d9c565b5050509392505050565b6000612de6612de1846138c9565b61387e565b90508082856020860282011115612dfc57600080fd5b60005b85811015612e2c5781612e128882613036565b845260208401935060208301925050600181019050612dff565b5050509392505050565b6000612e49612e44846138ef565b61387e565b90508082856020860282011115612e5f57600080fd5b60005b85811015612e8f5781612e758882613036565b845260208401935060208301925050600181019050612e62565b5050509392505050565b6000612eac612ea784613915565b61387e565b90508083825260208201905082856020860282011115612ecb57600080fd5b60005b85811015612efb5781612ee18882613036565b845260208401935060208301925050600181019050612ece565b5050509392505050565b6000612f18612f1384613941565b61387e565b905082815260208101848484011115612f3057600080fd5b612f3b848285613c59565b509392505050565b600081359050612f5281613ef8565b92915050565b600082601f830112612f6957600080fd5b6002612f76848285612d70565b91505092915050565b600082601f830112612f9057600080fd5b6001612f9d848285612dd3565b91505092915050565b600082601f830112612fb757600080fd5b6002612fc4848285612e36565b91505092915050565b600082601f830112612fde57600080fd5b8135612fee848260208601612e99565b91505092915050565b60008151905061300681613f0f565b92915050565b600082601f83011261301d57600080fd5b813561302d848260208601612f05565b91505092915050565b60008135905061304581613f26565b92915050565b60008135905061305a81613f3d565b92915050565b60006020828403121561307257600080fd5b600061308084828501612f43565b91505092915050565b600080600080600061014086880312156130a257600080fd5b60006130b088828901612fa6565b95505060406130c188828901612f58565b94505060c06130d288828901612fa6565b9350506101006130e488828901612f7f565b9250506101206130f688828901613036565b9150509295509295909350565b60006020828403121561311557600080fd5b600082013567ffffffffffffffff81111561312f57600080fd5b61313b84828501612fcd565b91505092915050565b60006020828403121561315657600080fd5b600061316484828501612ff7565b91505092915050565b60006020828403121561317f57600080fd5b600082013567ffffffffffffffff81111561319957600080fd5b6131a58482850161300c565b91505092915050565b600080600080600060a086880312156131c657600080fd5b600086013567ffffffffffffffff8111156131e057600080fd5b6131ec8882890161300c565b95505060206131fd8882890161304b565b945050604086013567ffffffffffffffff81111561321a57600080fd5b6132268882890161300c565b935050606086013567ffffffffffffffff81111561324357600080fd5b61324f8882890161300c565b925050608086013567ffffffffffffffff81111561326c57600080fd5b6132788882890161300c565b9150509295509295909350565b60006020828403121561329757600080fd5b60006132a584828501613036565b91505092915050565b60006132ba8383613424565b60408301905092915050565b60006132d28383613595565b905092915050565b60006132e683836136aa565b60208301905092915050565b6132fb81613c04565b82525050565b61330a816139da565b6133148184613a75565b925061331f82613972565b8060005b8381101561335057815161333787826132ae565b965061334283613a27565b925050600181019050613323565b505050505050565b6000613363826139e5565b61336d8185613a80565b93508360208202850161337f8561397c565b8060005b858110156133bb578484038952815161339c85826132c6565b94506133a783613a34565b925060208a01995050600181019050613383565b50829750879550505050505092915050565b6133d6816139f0565b6133e08184613a91565b92506133eb8261398c565b8060005b8381101561341c57815161340387826132da565b965061340e83613a41565b9250506001810190506133ef565b505050505050565b61342d816139fb565b6134378184613a9c565b925061344282613996565b8060005b8381101561347357815161345a87826132da565b965061346583613a4e565b925050600181019050613446565b505050505050565b613484816139fb565b61348e8184613aa7565b925061349982613996565b8060005b838110156134ca5781516134b187826132da565b96506134bc83613a4e565b92505060018101905061349d565b505050505050565b60006134dd82613a06565b6134e78185613ab2565b93506134f2836139a0565b8060005b8381101561352357815161350a88826132da565b975061351583613a5b565b9250506001810190506134f6565b5085935050505092915050565b600061353b82613a11565b6135458185613ab2565b9350613550836139b0565b8060005b838110156135885761356582613e78565b61356f88826132da565b975061357a83613a68565b925050600181019050613554565b5085935050505092915050565b60006135a082613a1c565b6135aa8185613ac3565b93506135ba818560208601613c68565b6135c381613e8b565b840191505092915050565b60006135d982613a1c565b6135e38185613ad4565b93506135f3818560208601613c68565b6135fc81613e8b565b840191505092915050565b6000815461361481613cc5565b61361e8186613ad4565b94506001821660008114613639576001811461364b5761367e565b60ff198316865260208601935061367e565b613654856139c5565b60005b8381101561367657815481890152600182019150602081019050613657565b808801955050505b50505092915050565b6000613694602883613ad4565b915061369f82613ea9565b604082019050919050565b6136b381613c42565b82525050565b6136c281613c42565b82525050565b60006020820190506136dd60008301846132f2565b92915050565b600060208201905081810360008301526136fd8184613358565b905092915050565b60006101208201905061371b600083018761347b565b6137286040830186613301565b61373560c083018561347b565b6137436101008301846133cd565b95945050505050565b6000602082019050818103600083015261376681846135ce565b905092915050565b600060208201905081810360008301526137888184613607565b905092915050565b600060408201905081810360008301526137aa8185613607565b90506137b960208301846132f2565b9392505050565b600060408201905081810360008301526137da8185613607565b905081810360208301526137ee8184613530565b90509392505050565b6000602082019050818103600083015261381081613687565b9050919050565b600060208201905061382c60008301846136b9565b92915050565b600060808201905061384760008301876136b9565b61385460208301866136b9565b818103604083015261386681856134d2565b905061387560608301846136b9565b95945050505050565b6000613888613899565b90506138948282613d11565b919050565b6000604051905090565b600067ffffffffffffffff8211156138be576138bd613e49565b5b602082029050919050565b600067ffffffffffffffff8211156138e4576138e3613e49565b5b602082029050919050565b600067ffffffffffffffff82111561390a57613909613e49565b5b602082029050919050565b600067ffffffffffffffff8211156139305761392f613e49565b5b602082029050602081019050919050565b600067ffffffffffffffff82111561395c5761395b613e49565b5b61396582613e8b565b9050602081019050919050565b6000819050919050565b6000819050602082019050919050565b6000819050919050565b6000819050919050565b6000819050602082019050919050565b60008190508160005260206000209050919050565b60008190508160005260206000209050919050565b600060029050919050565b600081519050919050565b600060019050919050565b600060029050919050565b600081519050919050565b600081549050919050565b600081519050919050565b6000602082019050919050565b6000602082019050919050565b6000602082019050919050565b6000602082019050919050565b6000602082019050919050565b6000600182019050919050565b600081905092915050565b600082825260208201905092915050565b600081905092915050565b600081905092915050565b600081905092915050565b600082825260208201905092915050565b600082825260208201905092915050565b600082825260208201905092915050565b6000613af082613c42565b9150613afb83613c42565b9250827fffffffffffffffffffffffffffffffffffffffffffffffffffffffffffffffff03821115613b3057613b2f613dbc565b5b828201905092915050565b6000613b4682613c42565b9150613b5183613c42565b925082613b6157613b60613deb565b5b828204905092915050565b6000613b7782613c42565b9150613b8283613c42565b9250817fffffffffffffffffffffffffffffffffffffffffffffffffffffffffffffffff0483118215151615613bbb57613bba613dbc565b5b828202905092915050565b6000613bd182613c42565b9150613bdc83613c42565b925082821015613bef57613bee613dbc565b5b828203905092915050565b6000819050919050565b6000613c0f82613c22565b9050919050565b60008115159050919050565b600073ffffffffffffffffffffffffffffffffffffffff82169050919050565b6000819050919050565b600060ff82169050919050565b82818337600083830152505050565b60005b83811015613c86578082015181840152602081019050613c6b565b83811115613c95576000848401525b50505050565b6000613ca682613c42565b91506000821415613cba57613cb9613dbc565b5b600182039050919050565b60006002820490506001821680613cdd57607f821691505b60208210811415613cf157613cf0613e1a565b5b50919050565b6000613d0a613d0583613e9c565b613bfa565b9050919050565b613d1a82613e8b565b810181811067ffffffffffffffff82111715613d3957613d38613e49565b5b80604052505050565b6000613d4d82613c42565b91507fffffffffffffffffffffffffffffffffffffffffffffffffffffffffffffffff821415613d8057613d7f613dbc565b5b600182019050919050565b6000613d9682613c42565b9150613da183613c42565b925082613db157613db0613deb565b5b828206905092915050565b7f4e487b7100000000000000000000000000000000000000000000000000000000600052601160045260246000fd5b7f4e487b7100000000000000000000000000000000000000000000000000000000600052601260045260246000fd5b7f4e487b7100000000000000000000000000000000000000000000000000000000600052602260045260246000fd5b7f4e487b7100000000000000000000000000000000000000000000000000000000600052604160045260246000fd5b6000613e848254613cf7565b9050919050565b6000601f19601f8301169050919050565b60008160001c9050919050565b7f546865206f776e657220646964206e6f7420617574686f72697a6520796f752060008201527f746f20766f74652e000000000000000000000000000000000000000000000000602082015250565b613f0181613c04565b8114613f0c57600080fd5b50565b613f1881613c16565b8114613f2357600080fd5b50565b613f2f81613c42565b8114613f3a57600080fd5b50565b613f4681613c4c565b8114613f5157600080fd5b5056fe608060405234801561001057600080fd5b50611ed7806100206000396000f3fe608060405234801561001057600080fd5b506004361061002b5760003560e01c8063dd12931314610030575b600080fd5b61004a60048036038101906100459190611b21565b610060565b6040516100579190611b95565b60405180910390f35b600061006a61182c565b6040518060400160405280876000600281106100af577f4e487b7100000000000000000000000000000000000000000000000000000000600052603260045260246000fd5b60200201518152602001876001600281106100f3577f4e487b7100000000000000000000000000000000000000000000000000000000600052603260045260246000fd5b602002015181525081600001819052506040518060400160405280604051806040016040528088600060028110610153577f4e487b7100000000000000000000000000000000000000000000000000000000600052603260045260246000fd5b6020020151600060028110610191577f4e487b7100000000000000000000000000000000000000000000000000000000600052603260045260246000fd5b60200201518152602001886000600281106101d5577f4e487b7100000000000000000000000000000000000000000000000000000000600052603260045260246000fd5b6020020151600160028110610213577f4e487b7100000000000000000000000000000000000000000000000000000000600052603260045260246000fd5b60200201518152508152602001604051806040016040528088600160028110610265577f4e487b7100000000000000000000000000000000000000000000000000000000600052603260045260246000fd5b60200201516000600281106102a3577f4e487b7100000000000000000000000000000000000000000000000000000000600052603260045260246000fd5b60200201518152602001886001600281106102e7577f4e487b7100000000000000000000000000000000000000000000000000000000600052603260045260246000fd5b6020020151600160028110610325577f4e487b7100000000000000000000000000000000000000000000000000000000600052603260045260246000fd5b6020020151815250815250816020018190525060405180604001604052808560006002811061037d577f4e487b7100000000000000000000000000000000000000000000000000000000600052603260045260246000fd5b60200201518152602001856001600281106103c1577f4e487b7100000000000000000000000000000000000000000000000000000000600052603260045260246000fd5b602002015181525081604001819052506000600167ffffffffffffffff811115610414577f4e487b7100000000000000000000000000000000000000000000000000000000600052604160045260246000fd5b6040519080825280602002602001820160405280156104425781602001602082028036833780820191505090505b50905060005b60018110156104e75784816001811061048a577f4e487b7100000000000000000000000000000000000000000000000000000000600052603260045260246000fd5b60200201518282815181106104c8577f4e487b7100000000000000000000000000000000000000000000000000000000600052603260045260246000fd5b60200260200101818152505080806104df90611d72565b915050610448565b5060006104f48284610514565b14156105055760019250505061050c565b6000925050505b949350505050565b6000807f30644e72e131a029b85045b68181585d2833e84879b9709143e1f593f000000190506000610544610743565b90508060800151516001865161055a9190611c47565b1461056457600080fd5b60006040518060400160405280600081526020016000815250905060005b865181101561068f57838782815181106105c5577f4e487b7100000000000000000000000000000000000000000000000000000000600052603260045260246000fd5b6020026020010151106105d757600080fd5b61067a8261067585608001516001856105f09190611c47565b81518110610627577f4e487b7100000000000000000000000000000000000000000000000000000000600052603260045260246000fd5b60200260200101518a8581518110610668577f4e487b7100000000000000000000000000000000000000000000000000000000600052603260045260246000fd5b6020026020010151610bb9565b610cd2565b9150808061068790611d72565b915050610582565b506106df8183608001516000815181106106d2577f4e487b7100000000000000000000000000000000000000000000000000000000600052603260045260246000fd5b6020026020010151610cd2565b9050610725856000015186602001516106f784610e37565b85604001516107098a60400151610e37565b876060015161071b8960000151610e37565b8960200151610edc565b610735576001935050505061073d565b600093505050505b92915050565b61074b61185f565b60405180604001604052807f13d0948d7bac37115ffe695b1bec816562e8ad9ebe85e48fbb4acdeac1ca7f0f81526020017f0f6345e1d9d912e72c27bc5cd72968953c5d5d60b61cb0928292b690ee2a32e88152508160000181905250604051806040016040528060405180604001604052807f246d1ac05dd25736ad52f89e0dfc15b256c05b88c47d1b89d92e3465ced7d68e81526020017f1f5fdd7ba77a5e62cc3118cae2dc1d08e3beb077ed8678d3c795c88acbabf0dc815250815260200160405180604001604052807f03d84ced94d63664d79169901c1e647dd3dbd13e7a835eab55a430df6e3cfd2381526020017f2f8b8d95ab5486766d36363d74a6ca3827a0e85e7a164aa685fb48851679fe9a8152508152508160200181905250604051806040016040528060405180604001604052807f0e052453ff1e8f2bb909b58dc416be22424339545d1d90c62ace5f07e4c8515781526020017f03f097cbc1fca4d6dfc61394645fd677951ea45ddd533adadfe1f6e191a1a464815250815260200160405180604001604052807f152ce4bb40816fc576a567a0198a312fc45c0ef6cd15d6dcc2827b204295a85981526020017f15c3637b00799f75e94e714364626828ed562fe6752d061c40a7b551cb615f9e8152508152508160400181905250604051806040016040528060405180604001604052807f03a8e769de7626769fe54dd5554374234f5f906d3e1d96ba16be869aac8a754a81526020017f2716ed38b7577dac6f197304d33a0cb953745f58a2ab834f3b966848e972fc3c815250815260200160405180604001604052807f062d1d3797a372e780e242b2a43ed20d84b7ff42397dec28503d1ba5cdd6b59e81526020017f1daf6a4c3a747ee44da02dd31c511d302c8afb93c3955cce13dd10a4bd1de3558152508152508160600181905250600267ffffffffffffffff811115610a38577f4e487b7100000000000000000000000000000000000000000000000000000000600052604160045260246000fd5b604051908082528060200260200182016040528015610a7157816020015b610a5e6118a6565b815260200190600190039081610a565790505b50816080018190525060405180604001604052807f206dd45935e91292fc26a3d994bb597b5af356c338545ed138b672165e87ea6b81526020017f289c538fa6b02ad0c297449fa879dad2c545afe9f43d1e48d280b476f18524c78152508160800151600081518110610b0d577f4e487b7100000000000000000000000000000000000000000000000000000000600052603260045260246000fd5b602002602001018190525060405180604001604052807f12d8504eae4a1eda9479f7abaf1dcdac975bb9af382f7cd24578a0edcc6c1caf81526020017f18f38d5a118d0bbe54e97064f8381b99f9538328e8f8dc26c0df87e73362c6c68152508160800151600181518110610bab577f4e487b7100000000000000000000000000000000000000000000000000000000600052603260045260246000fd5b602002602001018190525090565b610bc16118a6565b610bc96118c0565b836000015181600060038110610c08577f4e487b7100000000000000000000000000000000000000000000000000000000600052603260045260246000fd5b602002018181525050836020015181600160038110610c50577f4e487b7100000000000000000000000000000000000000000000000000000000600052603260045260246000fd5b6020020181815250508281600260038110610c94577f4e487b7100000000000000000000000000000000000000000000000000000000600052603260045260246000fd5b602002018181525050600060608360808460076107d05a03fa90508060008114610cbd57610cbf565bfe5b5080610cca57600080fd5b505092915050565b610cda6118a6565b610ce26118e2565b836000015181600060048110610d21577f4e487b7100000000000000000000000000000000000000000000000000000000600052603260045260246000fd5b602002018181525050836020015181600160048110610d69577f4e487b7100000000000000000000000000000000000000000000000000000000600052603260045260246000fd5b602002018181525050826000015181600260048110610db1577f4e487b7100000000000000000000000000000000000000000000000000000000600052603260045260246000fd5b602002018181525050826020015181600360048110610df9577f4e487b7100000000000000000000000000000000000000000000000000000000600052603260045260246000fd5b602002018181525050600060608360c08460066107d05a03fa90508060008114610e2257610e24565bfe5b5080610e2f57600080fd5b505092915050565b610e3f6118a6565b60007f30644e72e131a029b85045b68181585d97816a916871ca8d3c208c16d87cfd47905060008360000151148015610e7c575060008360200151145b15610ea0576040518060400160405280600081526020016000815250915050610ed7565b604051806040016040528084600001518152602001828560200151610ec59190611dbb565b83610ed09190611cf7565b8152509150505b919050565b600080600467ffffffffffffffff811115610f20577f4e487b7100000000000000000000000000000000000000000000000000000000600052604160045260246000fd5b604051908082528060200260200182016040528015610f5957816020015b610f466118a6565b815260200190600190039081610f3e5790505b5090506000600467ffffffffffffffff811115610f9f577f4e487b7100000000000000000000000000000000000000000000000000000000600052604160045260246000fd5b604051908082528060200260200182016040528015610fd857816020015b610fc5611904565b815260200190600190039081610fbd5790505b5090508a82600081518110611016577f4e487b7100000000000000000000000000000000000000000000000000000000600052603260045260246000fd5b6020026020010181905250888260018151811061105c577f4e487b7100000000000000000000000000000000000000000000000000000000600052603260045260246000fd5b602002602001018190525086826002815181106110a2577f4e487b7100000000000000000000000000000000000000000000000000000000600052603260045260246000fd5b602002602001018190525084826003815181106110e8577f4e487b7100000000000000000000000000000000000000000000000000000000600052603260045260246000fd5b6020026020010181905250898160008151811061112e577f4e487b7100000000000000000000000000000000000000000000000000000000600052603260045260246000fd5b60200260200101819052508781600181518110611174577f4e487b7100000000000000000000000000000000000000000000000000000000600052603260045260246000fd5b602002602001018190525085816002815181106111ba577f4e487b7100000000000000000000000000000000000000000000000000000000600052603260045260246000fd5b60200260200101819052508381600381518110611200577f4e487b7100000000000000000000000000000000000000000000000000000000600052603260045260246000fd5b60200260200101819052506112158282611225565b9250505098975050505050505050565b6000815183511461123557600080fd5b600083519050600060068261124a9190611c9d565b905060008167ffffffffffffffff81111561128e577f4e487b7100000000000000000000000000000000000000000000000000000000600052604160045260246000fd5b6040519080825280602002602001820160405280156112bc5781602001602082028036833780820191505090505b50905060005b838110156117a157868181518110611303577f4e487b7100000000000000000000000000000000000000000000000000000000600052603260045260246000fd5b60200260200101516000015182600060068461131f9190611c9d565b6113299190611c47565b81518110611360577f4e487b7100000000000000000000000000000000000000000000000000000000600052603260045260246000fd5b6020026020010181815250508681815181106113a5577f4e487b7100000000000000000000000000000000000000000000000000000000600052603260045260246000fd5b6020026020010151602001518260016006846113c19190611c9d565b6113cb9190611c47565b81518110611402577f4e487b7100000000000000000000000000000000000000000000000000000000600052603260045260246000fd5b602002602001018181525050858181518110611447577f4e487b7100000000000000000000000000000000000000000000000000000000600052603260045260246000fd5b60200260200101516000015160016002811061148c577f4e487b7100000000000000000000000000000000000000000000000000000000600052603260045260246000fd5b60200201518260026006846114a19190611c9d565b6114ab9190611c47565b815181106114e2577f4e487b7100000000000000000000000000000000000000000000000000000000600052603260045260246000fd5b602002602001018181525050858181518110611527577f4e487b7100000000000000000000000000000000000000000000000000000000600052603260045260246000fd5b60200260200101516000015160006002811061156c577f4e487b7100000000000000000000000000000000000000000000000000000000600052603260045260246000fd5b60200201518260036006846115819190611c9d565b61158b9190611c47565b815181106115c2577f4e487b7100000000000000000000000000000000000000000000000000000000600052603260045260246000fd5b602002602001018181525050858181518110611607577f4e487b7100000000000000000000000000000000000000000000000000000000600052603260045260246000fd5b60200260200101516020015160016002811061164c577f4e487b7100000000000000000000000000000000000000000000000000000000600052603260045260246000fd5b60200201518260046006846116619190611c9d565b61166b9190611c47565b815181106116a2577f4e487b7100000000000000000000000000000000000000000000000000000000600052603260045260246000fd5b6020026020010181815250508581815181106116e7577f4e487b7100000000000000000000000000000000000000000000000000000000600052603260045260246000fd5b60200260200101516020015160006002811061172c577f4e487b7100000000000000000000000000000000000000000000000000000000600052603260045260246000fd5b60200201518260056006846117419190611c9d565b61174b9190611c47565b81518110611782577f4e487b7100000000000000000000000000000000000000000000000000000000600052603260045260246000fd5b602002602001018181525050808061179990611d72565b9150506112c2565b506117aa61192a565b6000602082602086026020860160086107d05a03fa905080600081146117cf576117d1565bfe5b50806117dc57600080fd5b600082600060018110611818577f4e487b7100000000000000000000000000000000000000000000000000000000600052603260045260246000fd5b602002015114159550505050505092915050565b604051806060016040528061183f6118a6565b815260200161184c611904565b81526020016118596118a6565b81525090565b6040518060a001604052806118726118a6565b815260200161187f611904565b815260200161188c611904565b8152602001611899611904565b8152602001606081525090565b604051806040016040528060008152602001600081525090565b6040518060600160405280600390602082028036833780820191505090505090565b6040518060800160405280600490602082028036833780820191505090505090565b604051806040016040528061191761194c565b815260200161192461194c565b81525090565b6040518060200160405280600190602082028036833780820191505090505090565b6040518060400160405280600290602082028036833780820191505090505090565b600061198161197c84611bd5565b611bb0565b9050808285604086028201111561199757600080fd5b60005b858110156119c757816119ad8882611ae5565b84526020840193506040830192505060018101905061199a565b5050509392505050565b60006119e46119df84611bfb565b611bb0565b905080828560208602820111156119fa57600080fd5b60005b85811015611a2a5781611a108882611b0c565b8452602084019350602083019250506001810190506119fd565b5050509392505050565b6000611a47611a4284611c21565b611bb0565b90508082856020860282011115611a5d57600080fd5b60005b85811015611a8d5781611a738882611b0c565b845260208401935060208301925050600181019050611a60565b5050509392505050565b600082601f830112611aa857600080fd5b6002611ab584828561196e565b91505092915050565b600082601f830112611acf57600080fd5b6001611adc8482856119d1565b91505092915050565b600082601f830112611af657600080fd5b6002611b03848285611a34565b91505092915050565b600081359050611b1b81611e8a565b92915050565b6000806000806101208587031215611b3857600080fd5b6000611b4687828801611ae5565b9450506040611b5787828801611a97565b93505060c0611b6887828801611ae5565b925050610100611b7a87828801611abe565b91505092959194509250565b611b8f81611d2b565b82525050565b6000602082019050611baa6000830184611b86565b92915050565b6000611bba611bcb565b9050611bc68282611d41565b919050565b6000604051905090565b600067ffffffffffffffff821115611bf057611bef611e4a565b5b602082029050919050565b600067ffffffffffffffff821115611c1657611c15611e4a565b5b602082029050919050565b600067ffffffffffffffff821115611c3c57611c3b611e4a565b5b602082029050919050565b6000611c5282611d37565b9150611c5d83611d37565b9250827fffffffffffffffffffffffffffffffffffffffffffffffffffffffffffffffff03821115611c9257611c91611dec565b5b828201905092915050565b6000611ca882611d37565b9150611cb383611d37565b9250817fffffffffffffffffffffffffffffffffffffffffffffffffffffffffffffffff0483118215151615611cec57611ceb611dec565b5b828202905092915050565b6000611d0282611d37565b9150611d0d83611d37565b925082821015611d2057611d1f611dec565b5b828203905092915050565b60008115159050919050565b6000819050919050565b611d4a82611e79565b810181811067ffffffffffffffff82111715611d6957611d68611e4a565b5b80604052505050565b6000611d7d82611d37565b91507fffffffffffffffffffffffffffffffffffffffffffffffffffffffffffffffff821415611db057611daf611dec565b5b600182019050919050565b6000611dc682611d37565b9150611dd183611d37565b925082611de157611de0611e1b565b5b828206905092915050565b7f4e487b7100000000000000000000000000000000000000000000000000000000600052601160045260246000fd5b7f4e487b7100000000000000000000000000000000000000000000000000000000600052601260045260246000fd5b7f4e487b7100000000000000000000000000000000000000000000000000000000600052604160045260246000fd5b6000601f19601f8301169050919050565b611e9381611d37565b8114611e9e57600080fd5b5056fea26469706673582212207714c5baefbc5abafd103dba23b146bd9f1d84922143ae836fc8c7bee8f4c50a64736f6c63430008040033a2646970667358221220c39615a2886f69c719b462abd604e0d009306903badbeb859b606902e169da5964736f6c63430008040033",
			"opcodes": "PUSH1 0x80 PUSH1 0x40 MSTORE CALLVALUE DUP1 ISZERO PUSH2 0x10 JUMPI PUSH1 0x0 DUP1 REVERT JUMPDEST POP CALLER PUSH1 0x1 PUSH1 0x0 PUSH2 0x100 EXP DUP2 SLOAD DUP2 PUSH20 0xFFFFFFFFFFFFFFFFFFFFFFFFFFFFFFFFFFFFFFFF MUL NOT AND SWAP1 DUP4 PUSH20 0xFFFFFFFFFFFFFFFFFFFFFFFFFFFFFFFFFFFFFFFF AND MUL OR SWAP1 SSTORE POP PUSH2 0x5E81 DUP1 PUSH2 0x61 PUSH1 0x0 CODECOPY PUSH1 0x0 RETURN INVALID PUSH1 0x80 PUSH1 0x40 MSTORE CALLVALUE DUP1 ISZERO PUSH2 0x10 JUMPI PUSH1 0x0 DUP1 REVERT JUMPDEST POP PUSH1 0x4 CALLDATASIZE LT PUSH2 0x10B JUMPI PUSH1 0x0 CALLDATALOAD PUSH1 0xE0 SHR DUP1 PUSH4 0x378A2178 GT PUSH2 0xA2 JUMPI DUP1 PUSH4 0x8DA5CB5B GT PUSH2 0x71 JUMPI DUP1 PUSH4 0x8DA5CB5B EQ PUSH2 0x285 JUMPI DUP1 PUSH4 0xB4F3B1CA EQ PUSH2 0x2A3 JUMPI DUP1 PUSH4 0xB6A5D7DE EQ PUSH2 0x2C1 JUMPI DUP1 PUSH4 0xBB314CD8 EQ PUSH2 0x2DD JUMPI DUP1 PUSH4 0xFBA4F87B EQ PUSH2 0x2FB JUMPI PUSH2 0x10B JUMP JUMPDEST DUP1 PUSH4 0x378A2178 EQ PUSH2 0x220 JUMPI DUP1 PUSH4 0x5D308FB8 EQ PUSH2 0x22A JUMPI DUP1 PUSH4 0x63FFAB31 EQ PUSH2 0x25D JUMPI DUP1 PUSH4 0x7E95B5E9 EQ PUSH2 0x27B JUMPI PUSH2 0x10B JUMP JUMPDEST DUP1 PUSH4 0x1CE1A024 GT PUSH2 0xDE JUMPI DUP1 PUSH4 0x1CE1A024 EQ PUSH2 0x186 JUMPI DUP1 PUSH4 0x218BFB50 EQ PUSH2 0x1A2 JUMPI DUP1 PUSH4 0x2EB4A7AB EQ PUSH2 0x1D2 JUMPI DUP1 PUSH4 0x3477EE2E EQ PUSH2 0x1F0 JUMPI PUSH2 0x10B JUMP JUMPDEST DUP1 PUSH4 0x6A49FCE EQ PUSH2 0x110 JUMPI DUP1 PUSH4 0x6FDDE03 EQ PUSH2 0x12E JUMPI DUP1 PUSH4 0x990248B EQ PUSH2 0x14C JUMPI DUP1 PUSH4 0xC3F6ACF EQ PUSH2 0x168 JUMPI JUMPDEST PUSH1 0x0 DUP1 REVERT JUMPDEST PUSH2 0x118 PUSH2 0x317 JUMP JUMPDEST PUSH1 0x40 MLOAD PUSH2 0x125 SWAP2 SWAP1 PUSH2 0x36E3 JUMP JUMPDEST PUSH1 0x40 MLOAD DUP1 SWAP2 SUB SWAP1 RETURN JUMPDEST PUSH2 0x136 PUSH2 0x4D9 JUMP JUMPDEST PUSH1 0x40 MLOAD PUSH2 0x143 SWAP2 SWAP1 PUSH2 0x374C JUMP JUMPDEST PUSH1 0x40 MLOAD DUP1 SWAP2 SUB SWAP1 RETURN JUMPDEST PUSH2 0x166 PUSH1 0x4 DUP1 CALLDATASIZE SUB DUP2 ADD SWAP1 PUSH2 0x161 SWAP2 SWAP1 PUSH2 0x316D JUMP JUMPDEST PUSH2 0x567 JUMP JUMPDEST STOP JUMPDEST PUSH2 0x170 PUSH2 0x63B JUMP JUMPDEST PUSH1 0x40 MLOAD PUSH2 0x17D SWAP2 SWAP1 PUSH2 0x374C JUMP JUMPDEST PUSH1 0x40 MLOAD DUP1 SWAP2 SUB SWAP1 RETURN JUMPDEST PUSH2 0x1A0 PUSH1 0x4 DUP1 CALLDATASIZE SUB DUP2 ADD SWAP1 PUSH2 0x19B SWAP2 SWAP1 PUSH2 0x31AE JUMP JUMPDEST PUSH2 0x6C9 JUMP JUMPDEST STOP JUMPDEST PUSH2 0x1BC PUSH1 0x4 DUP1 CALLDATASIZE SUB DUP2 ADD SWAP1 PUSH2 0x1B7 SWAP2 SWAP1 PUSH2 0x3103 JUMP JUMPDEST PUSH2 0x8DF JUMP JUMPDEST PUSH1 0x40 MLOAD PUSH2 0x1C9 SWAP2 SWAP1 PUSH2 0x3817 JUMP JUMPDEST PUSH1 0x40 MLOAD DUP1 SWAP2 SUB SWAP1 RETURN JUMPDEST PUSH2 0x1DA PUSH2 0x8F6 JUMP JUMPDEST PUSH1 0x40 MLOAD PUSH2 0x1E7 SWAP2 SWAP1 PUSH2 0x3817 JUMP JUMPDEST PUSH1 0x40 MLOAD DUP1 SWAP2 SUB SWAP1 RETURN JUMPDEST PUSH2 0x20A PUSH1 0x4 DUP1 CALLDATASIZE SUB DUP2 ADD SWAP1 PUSH2 0x205 SWAP2 SWAP1 PUSH2 0x3285 JUMP JUMPDEST PUSH2 0x8FC JUMP JUMPDEST PUSH1 0x40 MLOAD PUSH2 0x217 SWAP2 SWAP1 PUSH2 0x374C JUMP JUMPDEST PUSH1 0x40 MLOAD DUP1 SWAP2 SUB SWAP1 RETURN JUMPDEST PUSH2 0x228 PUSH2 0x9B2 JUMP JUMPDEST STOP JUMPDEST PUSH2 0x244 PUSH1 0x4 DUP1 CALLDATASIZE SUB DUP2 ADD SWAP1 PUSH2 0x23F SWAP2 SWAP1 PUSH2 0x3285 JUMP JUMPDEST PUSH2 0xB52 JUMP JUMPDEST PUSH1 0x40 MLOAD PUSH2 0x254 SWAP5 SWAP4 SWAP3 SWAP2 SWAP1 PUSH2 0x3832 JUMP JUMPDEST PUSH1 0x40 MLOAD DUP1 SWAP2 SUB SWAP1 RETURN JUMPDEST PUSH2 0x265 PUSH2 0xCA2 JUMP JUMPDEST PUSH1 0x40 MLOAD PUSH2 0x272 SWAP2 SWAP1 PUSH2 0x374C JUMP JUMPDEST PUSH1 0x40 MLOAD DUP1 SWAP2 SUB SWAP1 RETURN JUMPDEST PUSH2 0x283 PUSH2 0xD30 JUMP JUMPDEST STOP JUMPDEST PUSH2 0x28D PUSH2 0x11BB JUMP JUMPDEST PUSH1 0x40 MLOAD PUSH2 0x29A SWAP2 SWAP1 PUSH2 0x36C8 JUMP JUMPDEST PUSH1 0x40 MLOAD DUP1 SWAP2 SUB SWAP1 RETURN JUMPDEST PUSH2 0x2AB PUSH2 0x11E1 JUMP JUMPDEST PUSH1 0x40 MLOAD PUSH2 0x2B8 SWAP2 SWAP1 PUSH2 0x3817 JUMP JUMPDEST PUSH1 0x40 MLOAD DUP1 SWAP2 SUB SWAP1 RETURN JUMPDEST PUSH2 0x2DB PUSH1 0x4 DUP1 CALLDATASIZE SUB DUP2 ADD SWAP1 PUSH2 0x2D6 SWAP2 SWAP1 PUSH2 0x3060 JUMP JUMPDEST PUSH2 0x11E7 JUMP JUMPDEST STOP JUMPDEST PUSH2 0x2E5 PUSH2 0x12DF JUMP JUMPDEST PUSH1 0x40 MLOAD PUSH2 0x2F2 SWAP2 SWAP1 PUSH2 0x3817 JUMP JUMPDEST PUSH1 0x40 MLOAD DUP1 SWAP2 SUB SWAP1 RETURN JUMPDEST PUSH2 0x315 PUSH1 0x4 DUP1 CALLDATASIZE SUB DUP2 ADD SWAP1 PUSH2 0x310 SWAP2 SWAP1 PUSH2 0x3089 JUMP JUMPDEST PUSH2 0x12E5 JUMP JUMPDEST STOP JUMPDEST PUSH1 0x60 PUSH1 0x0 PUSH1 0x7 DUP1 SLOAD SWAP1 POP PUSH8 0xFFFFFFFFFFFFFFFF DUP2 GT ISZERO PUSH2 0x360 JUMPI PUSH32 0x4E487B7100000000000000000000000000000000000000000000000000000000 PUSH1 0x0 MSTORE PUSH1 0x41 PUSH1 0x4 MSTORE PUSH1 0x24 PUSH1 0x0 REVERT JUMPDEST PUSH1 0x40 MLOAD SWAP1 DUP1 DUP3 MSTORE DUP1 PUSH1 0x20 MUL PUSH1 0x20 ADD DUP3 ADD PUSH1 0x40 MSTORE DUP1 ISZERO PUSH2 0x393 JUMPI DUP2 PUSH1 0x20 ADD JUMPDEST PUSH1 0x60 DUP2 MSTORE PUSH1 0x20 ADD SWAP1 PUSH1 0x1 SWAP1 SUB SWAP1 DUP2 PUSH2 0x37E JUMPI SWAP1 POP JUMPDEST POP SWAP1 POP PUSH1 0x0 JUMPDEST PUSH1 0x7 DUP1 SLOAD SWAP1 POP DUP2 LT ISZERO PUSH2 0x4D1 JUMPI PUSH1 0x7 DUP2 DUP2 SLOAD DUP2 LT PUSH2 0x3E0 JUMPI PUSH32 0x4E487B7100000000000000000000000000000000000000000000000000000000 PUSH1 0x0 MSTORE PUSH1 0x32 PUSH1 0x4 MSTORE PUSH1 0x24 PUSH1 0x0 REVERT JUMPDEST SWAP1 PUSH1 0x0 MSTORE PUSH1 0x20 PUSH1 0x0 KECCAK256 SWAP1 PUSH1 0x2 MUL ADD PUSH1 0x0 ADD DUP1 SLOAD PUSH2 0x3FC SWAP1 PUSH2 0x3CC5 JUMP JUMPDEST DUP1 PUSH1 0x1F ADD PUSH1 0x20 DUP1 SWAP2 DIV MUL PUSH1 0x20 ADD PUSH1 0x40 MLOAD SWAP1 DUP2 ADD PUSH1 0x40 MSTORE DUP1 SWAP3 SWAP2 SWAP1 DUP2 DUP2 MSTORE PUSH1 0x20 ADD DUP3 DUP1 SLOAD PUSH2 0x428 SWAP1 PUSH2 0x3CC5 JUMP JUMPDEST DUP1 ISZERO PUSH2 0x475 JUMPI DUP1 PUSH1 0x1F LT PUSH2 0x44A JUMPI PUSH2 0x100 DUP1 DUP4 SLOAD DIV MUL DUP4 MSTORE SWAP2 PUSH1 0x20 ADD SWAP2 PUSH2 0x475 JUMP JUMPDEST DUP3 ADD SWAP2 SWAP1 PUSH1 0x0 MSTORE PUSH1 0x20 PUSH1 0x0 KECCAK256 SWAP1 JUMPDEST DUP2 SLOAD DUP2 MSTORE SWAP1 PUSH1 0x1 ADD SWAP1 PUSH1 0x20 ADD DUP1 DUP4 GT PUSH2 0x458 JUMPI DUP3 SWAP1 SUB PUSH1 0x1F AND DUP3 ADD SWAP2 JUMPDEST POP POP POP POP POP DUP3 DUP3 DUP2 MLOAD DUP2 LT PUSH2 0x4B3 JUMPI PUSH32 0x4E487B7100000000000000000000000000000000000000000000000000000000 PUSH1 0x0 MSTORE PUSH1 0x32 PUSH1 0x4 MSTORE PUSH1 0x24 PUSH1 0x0 REVERT JUMPDEST PUSH1 0x20 MUL PUSH1 0x20 ADD ADD DUP2 SWAP1 MSTORE POP DUP1 DUP1 PUSH2 0x4C9 SWAP1 PUSH2 0x3D42 JUMP JUMPDEST SWAP2 POP POP PUSH2 0x399 JUMP JUMPDEST POP DUP1 SWAP2 POP POP SWAP1 JUMP JUMPDEST PUSH1 0x0 DUP1 SLOAD PUSH2 0x4E6 SWAP1 PUSH2 0x3CC5 JUMP JUMPDEST DUP1 PUSH1 0x1F ADD PUSH1 0x20 DUP1 SWAP2 DIV MUL PUSH1 0x20 ADD PUSH1 0x40 MLOAD SWAP1 DUP2 ADD PUSH1 0x40 MSTORE DUP1 SWAP3 SWAP2 SWAP1 DUP2 DUP2 MSTORE PUSH1 0x20 ADD DUP3 DUP1 SLOAD PUSH2 0x512 SWAP1 PUSH2 0x3CC5 JUMP JUMPDEST DUP1 ISZERO PUSH2 0x55F JUMPI DUP1 PUSH1 0x1F LT PUSH2 0x534 JUMPI PUSH2 0x100 DUP1 DUP4 SLOAD DIV MUL DUP4 MSTORE SWAP2 PUSH1 0x20 ADD SWAP2 PUSH2 0x55F JUMP JUMPDEST DUP3 ADD SWAP2 SWAP1 PUSH1 0x0 MSTORE PUSH1 0x20 PUSH1 0x0 KECCAK256 SWAP1 JUMPDEST DUP2 SLOAD DUP2 MSTORE SWAP1 PUSH1 0x1 ADD SWAP1 PUSH1 0x20 ADD DUP1 DUP4 GT PUSH2 0x542 JUMPI DUP3 SWAP1 SUB PUSH1 0x1F AND DUP3 ADD SWAP2 JUMPDEST POP POP POP POP POP DUP2 JUMP JUMPDEST PUSH1 0x0 PUSH2 0x572 DUP3 PUSH2 0x15EF JUMP JUMPDEST SWAP1 POP PUSH1 0x5 DUP2 SWAP1 DUP1 PUSH1 0x1 DUP2 SLOAD ADD DUP1 DUP3 SSTORE DUP1 SWAP2 POP POP PUSH1 0x1 SWAP1 SUB SWAP1 PUSH1 0x0 MSTORE PUSH1 0x20 PUSH1 0x0 KECCAK256 ADD PUSH1 0x0 SWAP1 SWAP2 SWAP1 SWAP2 SWAP1 SWAP2 POP SSTORE PUSH1 0x2 PUSH1 0x0 DUP2 SLOAD DUP1 SWAP3 SWAP2 SWAP1 PUSH2 0x5B0 SWAP1 PUSH2 0x3D42 JUMP JUMPDEST SWAP2 SWAP1 POP SSTORE POP PUSH1 0x4 PUSH1 0x2 SLOAD EQ ISZERO PUSH2 0x600 JUMPI PUSH32 0x8A36F5A234186D446E36A7DF36ACE663A05A580D9BEA2DD899C6DD76A075D5FA DUP2 PUSH1 0x40 MLOAD PUSH2 0x5EF SWAP2 SWAP1 PUSH2 0x3817 JUMP JUMPDEST PUSH1 0x40 MLOAD DUP1 SWAP2 SUB SWAP1 LOG1 PUSH2 0x5FF PUSH2 0xD30 JUMP JUMPDEST JUMPDEST PUSH32 0x8A36F5A234186D446E36A7DF36ACE663A05A580D9BEA2DD899C6DD76A075D5FA DUP2 PUSH1 0x40 MLOAD PUSH2 0x62F SWAP2 SWAP1 PUSH2 0x3817 JUMP JUMPDEST PUSH1 0x40 MLOAD DUP1 SWAP2 SUB SWAP1 LOG1 POP POP JUMP JUMPDEST PUSH1 0x3 DUP1 SLOAD PUSH2 0x648 SWAP1 PUSH2 0x3CC5 JUMP JUMPDEST DUP1 PUSH1 0x1F ADD PUSH1 0x20 DUP1 SWAP2 DIV MUL PUSH1 0x20 ADD PUSH1 0x40 MLOAD SWAP1 DUP2 ADD PUSH1 0x40 MSTORE DUP1 SWAP3 SWAP2 SWAP1 DUP2 DUP2 MSTORE PUSH1 0x20 ADD DUP3 DUP1 SLOAD PUSH2 0x674 SWAP1 PUSH2 0x3CC5 JUMP JUMPDEST DUP1 ISZERO PUSH2 0x6C1 JUMPI DUP1 PUSH1 0x1F LT PUSH2 0x696 JUMPI PUSH2 0x100 DUP1 DUP4 SLOAD DIV MUL DUP4 MSTORE SWAP2 PUSH1 0x20 ADD SWAP2 PUSH2 0x6C1 JUMP JUMPDEST DUP3 ADD SWAP2 SWAP1 PUSH1 0x0 MSTORE PUSH1 0x20 PUSH1 0x0 KECCAK256 SWAP1 JUMPDEST DUP2 SLOAD DUP2 MSTORE SWAP1 PUSH1 0x1 ADD SWAP1 PUSH1 0x20 ADD DUP1 DUP4 GT PUSH2 0x6A4 JUMPI DUP3 SWAP1 SUB PUSH1 0x1F AND DUP3 ADD SWAP2 JUMPDEST POP POP POP POP POP DUP2 JUMP JUMPDEST PUSH1 0x1 DUP5 PUSH1 0xFF AND LT ISZERO DUP1 ISZERO PUSH2 0x6E1 JUMPI POP PUSH1 0x21 DUP5 PUSH1 0xFF AND GT ISZERO JUMPDEST PUSH2 0x6EA JUMPI PUSH1 0x0 DUP1 REVERT JUMPDEST DUP1 PUSH1 0x8 SWAP1 DUP1 MLOAD SWAP1 PUSH1 0x20 ADD SWAP1 PUSH2 0x700 SWAP3 SWAP2 SWAP1 PUSH2 0x2C73 JUMP JUMPDEST POP CALLER PUSH1 0x1 PUSH1 0x0 PUSH2 0x100 EXP DUP2 SLOAD DUP2 PUSH20 0xFFFFFFFFFFFFFFFFFFFFFFFFFFFFFFFFFFFFFFFF MUL NOT AND SWAP1 DUP4 PUSH20 0xFFFFFFFFFFFFFFFFFFFFFFFFFFFFFFFFFFFFFFFF AND MUL OR SWAP1 SSTORE POP DUP5 PUSH1 0x0 SWAP1 DUP1 MLOAD SWAP1 PUSH1 0x20 ADD SWAP1 PUSH2 0x758 SWAP3 SWAP2 SWAP1 PUSH2 0x2C73 JUMP JUMPDEST POP PUSH1 0x60 PUSH1 0x7 PUSH1 0x40 MLOAD DUP1 PUSH1 0x40 ADD PUSH1 0x40 MSTORE DUP1 DUP7 DUP2 MSTORE PUSH1 0x20 ADD DUP4 DUP2 MSTORE POP SWAP1 DUP1 PUSH1 0x1 DUP2 SLOAD ADD DUP1 DUP3 SSTORE DUP1 SWAP2 POP POP PUSH1 0x1 SWAP1 SUB SWAP1 PUSH1 0x0 MSTORE PUSH1 0x20 PUSH1 0x0 KECCAK256 SWAP1 PUSH1 0x2 MUL ADD PUSH1 0x0 SWAP1 SWAP2 SWAP1 SWAP2 SWAP1 SWAP2 POP PUSH1 0x0 DUP3 ADD MLOAD DUP2 PUSH1 0x0 ADD SWAP1 DUP1 MLOAD SWAP1 PUSH1 0x20 ADD SWAP1 PUSH2 0x7B7 SWAP3 SWAP2 SWAP1 PUSH2 0x2C73 JUMP JUMPDEST POP PUSH1 0x20 DUP3 ADD MLOAD DUP2 PUSH1 0x1 ADD SWAP1 DUP1 MLOAD SWAP1 PUSH1 0x20 ADD SWAP1 PUSH2 0x7D4 SWAP3 SWAP2 SWAP1 PUSH2 0x2CF9 JUMP JUMPDEST POP POP POP PUSH1 0x7 PUSH1 0x40 MLOAD DUP1 PUSH1 0x40 ADD PUSH1 0x40 MSTORE DUP1 DUP6 DUP2 MSTORE PUSH1 0x20 ADD DUP4 DUP2 MSTORE POP SWAP1 DUP1 PUSH1 0x1 DUP2 SLOAD ADD DUP1 DUP3 SSTORE DUP1 SWAP2 POP POP PUSH1 0x1 SWAP1 SUB SWAP1 PUSH1 0x0 MSTORE PUSH1 0x20 PUSH1 0x0 KECCAK256 SWAP1 PUSH1 0x2 MUL ADD PUSH1 0x0 SWAP1 SWAP2 SWAP1 SWAP2 SWAP1 SWAP2 POP PUSH1 0x0 DUP3 ADD MLOAD DUP2 PUSH1 0x0 ADD SWAP1 DUP1 MLOAD SWAP1 PUSH1 0x20 ADD SWAP1 PUSH2 0x833 SWAP3 SWAP2 SWAP1 PUSH2 0x2C73 JUMP JUMPDEST POP PUSH1 0x20 DUP3 ADD MLOAD DUP2 PUSH1 0x1 ADD SWAP1 DUP1 MLOAD SWAP1 PUSH1 0x20 ADD SWAP1 PUSH2 0x850 SWAP3 SWAP2 SWAP1 PUSH2 0x2CF9 JUMP JUMPDEST POP POP POP PUSH1 0x40 MLOAD DUP1 PUSH1 0x40 ADD PUSH1 0x40 MSTORE DUP1 PUSH1 0x12 DUP2 MSTORE PUSH1 0x20 ADD PUSH32 0x564F54454B45592D47454E45524154494F4E0000000000000000000000000000 DUP2 MSTORE POP PUSH1 0x3 SWAP1 DUP1 MLOAD SWAP1 PUSH1 0x20 ADD SWAP1 PUSH2 0x89E SWAP3 SWAP2 SWAP1 PUSH2 0x2C73 JUMP JUMPDEST POP PUSH32 0xB712CA18858A18CB63EF75FE8C737E3AD52062D7389284FD4ECB4524DA24E090 PUSH1 0x3 PUSH1 0x40 MLOAD PUSH2 0x8CF SWAP2 SWAP1 PUSH2 0x376E JUMP JUMPDEST PUSH1 0x40 MLOAD DUP1 SWAP2 SUB SWAP1 LOG1 POP POP POP POP POP POP JUMP JUMPDEST PUSH1 0x0 DUP1 PUSH2 0x8EB DUP4 PUSH2 0x16AF JUMP JUMPDEST SWAP1 POP DUP1 SWAP2 POP POP SWAP2 SWAP1 POP JUMP JUMPDEST PUSH1 0x9 SLOAD DUP2 JUMP JUMPDEST PUSH1 0x7 DUP2 DUP2 SLOAD DUP2 LT PUSH2 0x90C JUMPI PUSH1 0x0 DUP1 REVERT JUMPDEST SWAP1 PUSH1 0x0 MSTORE PUSH1 0x20 PUSH1 0x0 KECCAK256 SWAP1 PUSH1 0x2 MUL ADD PUSH1 0x0 SWAP2 POP SWAP1 POP DUP1 PUSH1 0x0 ADD DUP1 SLOAD PUSH2 0x92F SWAP1 PUSH2 0x3CC5 JUMP JUMPDEST DUP1 PUSH1 0x1F ADD PUSH1 0x20 DUP1 SWAP2 DIV MUL PUSH1 0x20 ADD PUSH1 0x40 MLOAD SWAP1 DUP2 ADD PUSH1 0x40 MSTORE DUP1 SWAP3 SWAP2 SWAP1 DUP2 DUP2 MSTORE PUSH1 0x20 ADD DUP3 DUP1 SLOAD PUSH2 0x95B SWAP1 PUSH2 0x3CC5 JUMP JUMPDEST DUP1 ISZERO PUSH2 0x9A8 JUMPI DUP1 PUSH1 0x1F LT PUSH2 0x97D JUMPI PUSH2 0x100 DUP1 DUP4 SLOAD DIV MUL DUP4 MSTORE SWAP2 PUSH1 0x20 ADD SWAP2 PUSH2 0x9A8 JUMP JUMPDEST DUP3 ADD SWAP2 SWAP1 PUSH1 0x0 MSTORE PUSH1 0x20 PUSH1 0x0 KECCAK256 SWAP1 JUMPDEST DUP2 SLOAD DUP2 MSTORE SWAP1 PUSH1 0x1 ADD SWAP1 PUSH1 0x20 ADD DUP1 DUP4 GT PUSH2 0x98B JUMPI DUP3 SWAP1 SUB PUSH1 0x1F AND DUP3 ADD SWAP2 JUMPDEST POP POP POP POP POP SWAP1 POP DUP2 JUMP JUMPDEST PUSH32 0xF75583BD1A80D19A7920011D52BF4464F3140DC3AC59046D37A729FC46B9A759 PUSH1 0x7 PUSH1 0x0 DUP2 SLOAD DUP2 LT PUSH2 0xA0E JUMPI PUSH32 0x4E487B7100000000000000000000000000000000000000000000000000000000 PUSH1 0x0 MSTORE PUSH1 0x32 PUSH1 0x4 MSTORE PUSH1 0x24 PUSH1 0x0 REVERT JUMPDEST SWAP1 PUSH1 0x0 MSTORE PUSH1 0x20 PUSH1 0x0 KECCAK256 SWAP1 PUSH1 0x2 MUL ADD PUSH1 0x0 ADD PUSH1 0x7 PUSH1 0x0 DUP2 SLOAD DUP2 LT PUSH2 0xA5A JUMPI PUSH32 0x4E487B7100000000000000000000000000000000000000000000000000000000 PUSH1 0x0 MSTORE PUSH1 0x32 PUSH1 0x4 MSTORE PUSH1 0x24 PUSH1 0x0 REVERT JUMPDEST SWAP1 PUSH1 0x0 MSTORE PUSH1 0x20 PUSH1 0x0 KECCAK256 SWAP1 PUSH1 0x2 MUL ADD PUSH1 0x1 ADD PUSH1 0x40 MLOAD PUSH2 0xA79 SWAP3 SWAP2 SWAP1 PUSH2 0x37C0 JUMP JUMPDEST PUSH1 0x40 MLOAD DUP1 SWAP2 SUB SWAP1 LOG1 PUSH32 0xF75583BD1A80D19A7920011D52BF4464F3140DC3AC59046D37A729FC46B9A759 PUSH1 0x7 PUSH1 0x1 DUP2 SLOAD DUP2 LT PUSH2 0xADD JUMPI PUSH32 0x4E487B7100000000000000000000000000000000000000000000000000000000 PUSH1 0x0 MSTORE PUSH1 0x32 PUSH1 0x4 MSTORE PUSH1 0x24 PUSH1 0x0 REVERT JUMPDEST SWAP1 PUSH1 0x0 MSTORE PUSH1 0x20 PUSH1 0x0 KECCAK256 SWAP1 PUSH1 0x2 MUL ADD PUSH1 0x0 ADD PUSH1 0x7 PUSH1 0x1 DUP2 SLOAD DUP2 LT PUSH2 0xB29 JUMPI PUSH32 0x4E487B7100000000000000000000000000000000000000000000000000000000 PUSH1 0x0 MSTORE PUSH1 0x32 PUSH1 0x4 MSTORE PUSH1 0x24 PUSH1 0x0 REVERT JUMPDEST SWAP1 PUSH1 0x0 MSTORE PUSH1 0x20 PUSH1 0x0 KECCAK256 SWAP1 PUSH1 0x2 MUL ADD PUSH1 0x1 ADD PUSH1 0x40 MLOAD PUSH2 0xB48 SWAP3 SWAP2 SWAP1 PUSH2 0x37C0 JUMP JUMPDEST PUSH1 0x40 MLOAD DUP1 SWAP2 SUB SWAP1 LOG1 JUMP JUMPDEST PUSH1 0x0 DUP1 PUSH1 0x60 PUSH1 0x0 DUP1 PUSH2 0x539 SWAP1 POP PUSH1 0x0 JUMPDEST PUSH1 0x6 DUP1 SLOAD SWAP1 POP DUP2 LT ISZERO PUSH2 0xBD2 JUMPI PUSH1 0x6 DUP2 DUP2 SLOAD DUP2 LT PUSH2 0xBA9 JUMPI PUSH32 0x4E487B7100000000000000000000000000000000000000000000000000000000 PUSH1 0x0 MSTORE PUSH1 0x32 PUSH1 0x4 MSTORE PUSH1 0x24 PUSH1 0x0 REVERT JUMPDEST SWAP1 PUSH1 0x0 MSTORE PUSH1 0x20 PUSH1 0x0 KECCAK256 ADD SLOAD DUP8 EQ ISZERO PUSH2 0xBBF JUMPI DUP1 SWAP2 POP JUMPDEST DUP1 DUP1 PUSH2 0xBCA SWAP1 PUSH2 0x3D42 JUMP JUMPDEST SWAP2 POP POP PUSH2 0xB62 JUMP JUMPDEST POP PUSH2 0x539 DUP2 EQ ISZERO PUSH2 0xBE2 JUMPI PUSH1 0x0 DUP1 REVERT JUMPDEST DUP1 PUSH1 0x5 DUP1 SLOAD SWAP1 POP PUSH1 0x6 DUP1 PUSH1 0x1 PUSH1 0x6 DUP1 SLOAD SWAP1 POP PUSH2 0xBFE SWAP2 SWAP1 PUSH2 0x3BC6 JUMP JUMPDEST DUP2 SLOAD DUP2 LT PUSH2 0xC35 JUMPI PUSH32 0x4E487B7100000000000000000000000000000000000000000000000000000000 PUSH1 0x0 MSTORE PUSH1 0x32 PUSH1 0x4 MSTORE PUSH1 0x24 PUSH1 0x0 REVERT JUMPDEST SWAP1 PUSH1 0x0 MSTORE PUSH1 0x20 PUSH1 0x0 KECCAK256 ADD SLOAD DUP2 DUP1 SLOAD DUP1 PUSH1 0x20 MUL PUSH1 0x20 ADD PUSH1 0x40 MLOAD SWAP1 DUP2 ADD PUSH1 0x40 MSTORE DUP1 SWAP3 SWAP2 SWAP1 DUP2 DUP2 MSTORE PUSH1 0x20 ADD DUP3 DUP1 SLOAD DUP1 ISZERO PUSH2 0xC8B JUMPI PUSH1 0x20 MUL DUP3 ADD SWAP2 SWAP1 PUSH1 0x0 MSTORE PUSH1 0x20 PUSH1 0x0 KECCAK256 SWAP1 JUMPDEST DUP2 SLOAD DUP2 MSTORE PUSH1 0x20 ADD SWAP1 PUSH1 0x1 ADD SWAP1 DUP1 DUP4 GT PUSH2 0xC77 JUMPI JUMPDEST POP POP POP POP POP SWAP2 POP SWAP5 POP SWAP5 POP SWAP5 POP SWAP5 POP POP SWAP2 SWAP4 POP SWAP2 SWAP4 JUMP JUMPDEST PUSH1 0x8 DUP1 SLOAD PUSH2 0xCAF SWAP1 PUSH2 0x3CC5 JUMP JUMPDEST DUP1 PUSH1 0x1F ADD PUSH1 0x20 DUP1 SWAP2 DIV MUL PUSH1 0x20 ADD PUSH1 0x40 MLOAD SWAP1 DUP2 ADD PUSH1 0x40 MSTORE DUP1 SWAP3 SWAP2 SWAP1 DUP2 DUP2 MSTORE PUSH1 0x20 ADD DUP3 DUP1 SLOAD PUSH2 0xCDB SWAP1 PUSH2 0x3CC5 JUMP JUMPDEST DUP1 ISZERO PUSH2 0xD28 JUMPI DUP1 PUSH1 0x1F LT PUSH2 0xCFD JUMPI PUSH2 0x100 DUP1 DUP4 SLOAD DIV MUL DUP4 MSTORE SWAP2 PUSH1 0x20 ADD SWAP2 PUSH2 0xD28 JUMP JUMPDEST DUP3 ADD SWAP2 SWAP1 PUSH1 0x0 MSTORE PUSH1 0x20 PUSH1 0x0 KECCAK256 SWAP1 JUMPDEST DUP2 SLOAD DUP2 MSTORE SWAP1 PUSH1 0x1 ADD SWAP1 PUSH1 0x20 ADD DUP1 DUP4 GT PUSH2 0xD0B JUMPI DUP3 SWAP1 SUB PUSH1 0x1F AND DUP3 ADD SWAP2 JUMPDEST POP POP POP POP POP DUP2 JUMP JUMPDEST PUSH1 0x0 PUSH1 0x1 SWAP1 POP PUSH1 0x0 DUP1 JUMPDEST PUSH1 0x5 DUP1 SLOAD SWAP1 POP DUP4 GT PUSH2 0xD70 JUMPI PUSH1 0x5 DUP1 SLOAD SWAP1 POP DUP4 EQ ISZERO PUSH2 0xD5C JUMPI PUSH1 0x1 SWAP2 POP PUSH2 0xD70 JUMP JUMPDEST PUSH1 0x2 DUP4 PUSH2 0xD69 SWAP2 SWAP1 PUSH2 0x3B6C JUMP JUMPDEST SWAP3 POP PUSH2 0xD3A JUMP JUMPDEST JUMPDEST PUSH1 0x5 DUP1 SLOAD SWAP1 POP DUP4 EQ ISZERO DUP1 ISZERO PUSH2 0xD8A JUMPI POP PUSH1 0x0 ISZERO ISZERO DUP3 ISZERO ISZERO EQ JUMPDEST ISZERO PUSH2 0xDCD JUMPI PUSH1 0x5 PUSH2 0x539 SWAP1 DUP1 PUSH1 0x1 DUP2 SLOAD ADD DUP1 DUP3 SSTORE DUP1 SWAP2 POP POP PUSH1 0x1 SWAP1 SUB SWAP1 PUSH1 0x0 MSTORE PUSH1 0x20 PUSH1 0x0 KECCAK256 ADD PUSH1 0x0 SWAP1 SWAP2 SWAP1 SWAP2 SWAP1 SWAP2 POP SSTORE DUP3 DUP1 PUSH2 0xDC5 SWAP1 PUSH2 0x3C9B JUMP JUMPDEST SWAP4 POP POP PUSH2 0xD71 JUMP JUMPDEST PUSH1 0x0 JUMPDEST PUSH1 0x5 DUP1 SLOAD SWAP1 POP DUP2 LT ISZERO PUSH2 0xE97 JUMPI PUSH32 0x8A36F5A234186D446E36A7DF36ACE663A05A580D9BEA2DD899C6DD76A075D5FA DUP3 PUSH1 0x40 MLOAD PUSH2 0xE0C SWAP2 SWAP1 PUSH2 0x3817 JUMP JUMPDEST PUSH1 0x40 MLOAD DUP1 SWAP2 SUB SWAP1 LOG1 PUSH1 0x5 DUP2 DUP2 SLOAD DUP2 LT PUSH2 0xE4E JUMPI PUSH32 0x4E487B7100000000000000000000000000000000000000000000000000000000 PUSH1 0x0 MSTORE PUSH1 0x32 PUSH1 0x4 MSTORE PUSH1 0x24 PUSH1 0x0 REVERT JUMPDEST SWAP1 PUSH1 0x0 MSTORE PUSH1 0x20 PUSH1 0x0 KECCAK256 ADD SLOAD SWAP2 POP PUSH1 0x6 DUP3 SWAP1 DUP1 PUSH1 0x1 DUP2 SLOAD ADD DUP1 DUP3 SSTORE DUP1 SWAP2 POP POP PUSH1 0x1 SWAP1 SUB SWAP1 PUSH1 0x0 MSTORE PUSH1 0x20 PUSH1 0x0 KECCAK256 ADD PUSH1 0x0 SWAP1 SWAP2 SWAP1 SWAP2 SWAP1 SWAP2 POP SSTORE DUP1 DUP1 PUSH2 0xE8F SWAP1 PUSH2 0x3D42 JUMP JUMPDEST SWAP2 POP POP PUSH2 0xDD0 JUMP JUMPDEST POP PUSH1 0x0 DUP1 PUSH1 0x5 DUP1 SLOAD SWAP1 POP SWAP1 POP PUSH1 0x0 PUSH1 0x2 PUSH8 0xFFFFFFFFFFFFFFFF DUP2 GT ISZERO PUSH2 0xEE6 JUMPI PUSH32 0x4E487B7100000000000000000000000000000000000000000000000000000000 PUSH1 0x0 MSTORE PUSH1 0x41 PUSH1 0x4 MSTORE PUSH1 0x24 PUSH1 0x0 REVERT JUMPDEST PUSH1 0x40 MLOAD SWAP1 DUP1 DUP3 MSTORE DUP1 PUSH1 0x20 MUL PUSH1 0x20 ADD DUP3 ADD PUSH1 0x40 MSTORE DUP1 ISZERO PUSH2 0xF14 JUMPI DUP2 PUSH1 0x20 ADD PUSH1 0x20 DUP3 MUL DUP1 CALLDATASIZE DUP4 CALLDATACOPY DUP1 DUP3 ADD SWAP2 POP POP SWAP1 POP JUMPDEST POP SWAP1 POP JUMPDEST PUSH1 0x0 DUP3 GT ISZERO PUSH2 0x10D8 JUMPI PUSH1 0x0 JUMPDEST PUSH1 0x1 DUP4 PUSH2 0xF31 SWAP2 SWAP1 PUSH2 0x3BC6 JUMP JUMPDEST DUP2 LT ISZERO PUSH2 0x10B5 JUMPI PUSH1 0x6 DUP2 DUP6 PUSH2 0xF46 SWAP2 SWAP1 PUSH2 0x3AE5 JUMP JUMPDEST DUP2 SLOAD DUP2 LT PUSH2 0xF7D JUMPI PUSH32 0x4E487B7100000000000000000000000000000000000000000000000000000000 PUSH1 0x0 MSTORE PUSH1 0x32 PUSH1 0x4 MSTORE PUSH1 0x24 PUSH1 0x0 REVERT JUMPDEST SWAP1 PUSH1 0x0 MSTORE PUSH1 0x20 PUSH1 0x0 KECCAK256 ADD SLOAD DUP3 PUSH1 0x0 DUP2 MLOAD DUP2 LT PUSH2 0xFC2 JUMPI PUSH32 0x4E487B7100000000000000000000000000000000000000000000000000000000 PUSH1 0x0 MSTORE PUSH1 0x32 PUSH1 0x4 MSTORE PUSH1 0x24 PUSH1 0x0 REVERT JUMPDEST PUSH1 0x20 MUL PUSH1 0x20 ADD ADD DUP2 DUP2 MSTORE POP POP PUSH1 0x6 PUSH1 0x1 DUP3 DUP7 PUSH2 0xFDE SWAP2 SWAP1 PUSH2 0x3AE5 JUMP JUMPDEST PUSH2 0xFE8 SWAP2 SWAP1 PUSH2 0x3AE5 JUMP JUMPDEST DUP2 SLOAD DUP2 LT PUSH2 0x101F JUMPI PUSH32 0x4E487B7100000000000000000000000000000000000000000000000000000000 PUSH1 0x0 MSTORE PUSH1 0x32 PUSH1 0x4 MSTORE PUSH1 0x24 PUSH1 0x0 REVERT JUMPDEST SWAP1 PUSH1 0x0 MSTORE PUSH1 0x20 PUSH1 0x0 KECCAK256 ADD SLOAD DUP3 PUSH1 0x1 DUP2 MLOAD DUP2 LT PUSH2 0x1064 JUMPI PUSH32 0x4E487B7100000000000000000000000000000000000000000000000000000000 PUSH1 0x0 MSTORE PUSH1 0x32 PUSH1 0x4 MSTORE PUSH1 0x24 PUSH1 0x0 REVERT JUMPDEST PUSH1 0x20 MUL PUSH1 0x20 ADD ADD DUP2 DUP2 MSTORE POP POP PUSH1 0x6 PUSH2 0x107B DUP4 PUSH2 0x16AF JUMP JUMPDEST SWAP1 DUP1 PUSH1 0x1 DUP2 SLOAD ADD DUP1 DUP3 SSTORE DUP1 SWAP2 POP POP PUSH1 0x1 SWAP1 SUB SWAP1 PUSH1 0x0 MSTORE PUSH1 0x20 PUSH1 0x0 KECCAK256 ADD PUSH1 0x0 SWAP1 SWAP2 SWAP1 SWAP2 SWAP1 SWAP2 POP SSTORE PUSH1 0x2 DUP2 PUSH2 0x10AE SWAP2 SWAP1 PUSH2 0x3AE5 JUMP JUMPDEST SWAP1 POP PUSH2 0xF24 JUMP JUMPDEST POP DUP2 DUP4 PUSH2 0x10C2 SWAP2 SWAP1 PUSH2 0x3AE5 JUMP JUMPDEST SWAP3 POP PUSH1 0x2 DUP3 PUSH2 0x10D1 SWAP2 SWAP1 PUSH2 0x3B3B JUMP JUMPDEST SWAP2 POP PUSH2 0xF18 JUMP JUMPDEST PUSH1 0x6 PUSH1 0x1 DUP5 PUSH2 0x10E7 SWAP2 SWAP1 PUSH2 0x3BC6 JUMP JUMPDEST DUP2 SLOAD DUP2 LT PUSH2 0x111E JUMPI PUSH32 0x4E487B7100000000000000000000000000000000000000000000000000000000 PUSH1 0x0 MSTORE PUSH1 0x32 PUSH1 0x4 MSTORE PUSH1 0x24 PUSH1 0x0 REVERT JUMPDEST SWAP1 PUSH1 0x0 MSTORE PUSH1 0x20 PUSH1 0x0 KECCAK256 ADD SLOAD PUSH1 0x9 DUP2 SWAP1 SSTORE POP PUSH1 0x40 MLOAD DUP1 PUSH1 0x40 ADD PUSH1 0x40 MSTORE DUP1 PUSH1 0xB DUP2 MSTORE PUSH1 0x20 ADD PUSH32 0x564F54494E472D4F50454E000000000000000000000000000000000000000000 DUP2 MSTORE POP PUSH1 0x3 SWAP1 DUP1 MLOAD SWAP1 PUSH1 0x20 ADD SWAP1 PUSH2 0x117A SWAP3 SWAP2 SWAP1 PUSH2 0x2C73 JUMP JUMPDEST POP PUSH32 0xB712CA18858A18CB63EF75FE8C737E3AD52062D7389284FD4ECB4524DA24E090 PUSH1 0x3 PUSH1 0x40 MLOAD PUSH2 0x11AB SWAP2 SWAP1 PUSH2 0x376E JUMP JUMPDEST PUSH1 0x40 MLOAD DUP1 SWAP2 SUB SWAP1 LOG1 POP POP POP POP POP POP JUMP JUMPDEST PUSH1 0x1 PUSH1 0x0 SWAP1 SLOAD SWAP1 PUSH2 0x100 EXP SWAP1 DIV PUSH20 0xFFFFFFFFFFFFFFFFFFFFFFFFFFFFFFFFFFFFFFFF AND DUP2 JUMP JUMPDEST PUSH1 0xA SLOAD DUP2 JUMP JUMPDEST PUSH1 0x1 PUSH1 0x0 SWAP1 SLOAD SWAP1 PUSH2 0x100 EXP SWAP1 DIV PUSH20 0xFFFFFFFFFFFFFFFFFFFFFFFFFFFFFFFFFFFFFFFF AND PUSH20 0xFFFFFFFFFFFFFFFFFFFFFFFFFFFFFFFFFFFFFFFF AND CALLER PUSH20 0xFFFFFFFFFFFFFFFFFFFFFFFFFFFFFFFFFFFFFFFF AND EQ PUSH2 0x1241 JUMPI PUSH1 0x0 DUP1 REVERT JUMPDEST PUSH1 0x1 PUSH1 0x4 PUSH1 0x0 DUP4 PUSH20 0xFFFFFFFFFFFFFFFFFFFFFFFFFFFFFFFFFFFFFFFF AND PUSH20 0xFFFFFFFFFFFFFFFFFFFFFFFFFFFFFFFFFFFFFFFF AND DUP2 MSTORE PUSH1 0x20 ADD SWAP1 DUP2 MSTORE PUSH1 0x20 ADD PUSH1 0x0 KECCAK256 PUSH1 0x0 ADD PUSH1 0x0 PUSH2 0x100 EXP DUP2 SLOAD DUP2 PUSH1 0xFF MUL NOT AND SWAP1 DUP4 ISZERO ISZERO MUL OR SWAP1 SSTORE POP PUSH2 0x12A5 DUP2 PUSH2 0x17B2 JUMP JUMPDEST PUSH32 0x81BA50ACBAD95AAF2F3D6AE236A307BAAD3BE11E7C84F2B4A043CFC114EBE31 CALLER PUSH1 0x40 MLOAD PUSH2 0x12D4 SWAP2 SWAP1 PUSH2 0x36C8 JUMP JUMPDEST PUSH1 0x40 MLOAD DUP1 SWAP2 SUB SWAP1 LOG1 POP JUMP JUMPDEST PUSH1 0x2 SLOAD DUP2 JUMP JUMPDEST PUSH1 0x1 ISZERO ISZERO PUSH1 0x4 PUSH1 0x0 CALLER PUSH20 0xFFFFFFFFFFFFFFFFFFFFFFFFFFFFFFFFFFFFFFFF AND PUSH20 0xFFFFFFFFFFFFFFFFFFFFFFFFFFFFFFFFFFFFFFFF AND DUP2 MSTORE PUSH1 0x20 ADD SWAP1 DUP2 MSTORE PUSH1 0x20 ADD PUSH1 0x0 KECCAK256 PUSH1 0x0 ADD PUSH1 0x0 SWAP1 SLOAD SWAP1 PUSH2 0x100 EXP SWAP1 DIV PUSH1 0xFF AND ISZERO ISZERO EQ PUSH2 0x137B JUMPI PUSH1 0x40 MLOAD PUSH32 0x8C379A000000000000000000000000000000000000000000000000000000000 DUP2 MSTORE PUSH1 0x4 ADD PUSH2 0x1372 SWAP1 PUSH2 0x37F7 JUMP JUMPDEST PUSH1 0x40 MLOAD DUP1 SWAP2 SUB SWAP1 REVERT JUMPDEST PUSH1 0x0 PUSH1 0x40 MLOAD PUSH2 0x1389 SWAP1 PUSH2 0x2D46 JUMP JUMPDEST PUSH1 0x40 MLOAD DUP1 SWAP2 SUB SWAP1 PUSH1 0x0 CREATE DUP1 ISZERO DUP1 ISZERO PUSH2 0x13A5 JUMPI RETURNDATASIZE PUSH1 0x0 DUP1 RETURNDATACOPY RETURNDATASIZE PUSH1 0x0 REVERT JUMPDEST POP SWAP1 POP DUP1 PUSH20 0xFFFFFFFFFFFFFFFFFFFFFFFFFFFFFFFFFFFFFFFF AND PUSH4 0xDD129313 DUP8 DUP8 DUP8 DUP8 PUSH1 0x40 MLOAD DUP6 PUSH4 0xFFFFFFFF AND PUSH1 0xE0 SHL DUP2 MSTORE PUSH1 0x4 ADD PUSH2 0x13E7 SWAP5 SWAP4 SWAP3 SWAP2 SWAP1 PUSH2 0x3705 JUMP JUMPDEST PUSH1 0x20 PUSH1 0x40 MLOAD DUP1 DUP4 SUB DUP2 DUP7 DUP1 EXTCODESIZE ISZERO DUP1 ISZERO PUSH2 0x13FF JUMPI PUSH1 0x0 DUP1 REVERT JUMPDEST POP GAS STATICCALL ISZERO DUP1 ISZERO PUSH2 0x1413 JUMPI RETURNDATASIZE PUSH1 0x0 DUP1 RETURNDATACOPY RETURNDATASIZE PUSH1 0x0 REVERT JUMPDEST POP POP POP POP PUSH1 0x40 MLOAD RETURNDATASIZE PUSH1 0x1F NOT PUSH1 0x1F DUP3 ADD AND DUP3 ADD DUP1 PUSH1 0x40 MSTORE POP DUP2 ADD SWAP1 PUSH2 0x1437 SWAP2 SWAP1 PUSH2 0x3144 JUMP JUMPDEST PUSH2 0x1440 JUMPI PUSH1 0x0 DUP1 REVERT JUMPDEST PUSH1 0x7 DUP3 DUP2 SLOAD DUP2 LT PUSH2 0x147A JUMPI PUSH32 0x4E487B7100000000000000000000000000000000000000000000000000000000 PUSH1 0x0 MSTORE PUSH1 0x32 PUSH1 0x4 MSTORE PUSH1 0x24 PUSH1 0x0 REVERT JUMPDEST SWAP1 PUSH1 0x0 MSTORE PUSH1 0x20 PUSH1 0x0 KECCAK256 SWAP1 PUSH1 0x2 MUL ADD PUSH1 0x1 ADD PUSH1 0x4 PUSH1 0x0 CALLER PUSH20 0xFFFFFFFFFFFFFFFFFFFFFFFFFFFFFFFFFFFFFFFF AND PUSH20 0xFFFFFFFFFFFFFFFFFFFFFFFFFFFFFFFFFFFFFFFF AND DUP2 MSTORE PUSH1 0x20 ADD SWAP1 DUP2 MSTORE PUSH1 0x20 ADD PUSH1 0x0 KECCAK256 PUSH1 0x1 ADD SLOAD SWAP1 DUP1 PUSH1 0x1 DUP2 SLOAD ADD DUP1 DUP3 SSTORE DUP1 SWAP2 POP POP PUSH1 0x1 SWAP1 SUB SWAP1 PUSH1 0x0 MSTORE PUSH1 0x20 PUSH1 0x0 KECCAK256 ADD PUSH1 0x0 SWAP1 SWAP2 SWAP1 SWAP2 SWAP1 SWAP2 POP SSTORE PUSH32 0x8C4BBF432C3F9C3348D45700F436AA13AF99743D19B100361CBCF36E76E44329 PUSH1 0x7 DUP4 DUP2 SLOAD DUP2 LT PUSH2 0x154F JUMPI PUSH32 0x4E487B7100000000000000000000000000000000000000000000000000000000 PUSH1 0x0 MSTORE PUSH1 0x32 PUSH1 0x4 MSTORE PUSH1 0x24 PUSH1 0x0 REVERT JUMPDEST SWAP1 PUSH1 0x0 MSTORE PUSH1 0x20 PUSH1 0x0 KECCAK256 SWAP1 PUSH1 0x2 MUL ADD PUSH1 0x0 ADD CALLER PUSH1 0x40 MLOAD PUSH2 0x156F SWAP3 SWAP2 SWAP1 PUSH2 0x3790 JUMP JUMPDEST PUSH1 0x40 MLOAD DUP1 SWAP2 SUB SWAP1 LOG1 PUSH1 0x2 PUSH1 0x0 DUP2 SLOAD DUP1 SWAP3 SWAP2 SWAP1 PUSH2 0x158A SWAP1 PUSH2 0x3C9B JUMP JUMPDEST SWAP2 SWAP1 POP SSTORE POP PUSH1 0x0 PUSH1 0x2 SLOAD EQ ISZERO PUSH2 0x15E7 JUMPI PUSH1 0x40 MLOAD DUP1 PUSH1 0x40 ADD PUSH1 0x40 MSTORE DUP1 PUSH1 0x3 DUP2 MSTORE PUSH1 0x20 ADD PUSH32 0x454E440000000000000000000000000000000000000000000000000000000000 DUP2 MSTORE POP PUSH1 0x3 SWAP1 DUP1 MLOAD SWAP1 PUSH1 0x20 ADD SWAP1 PUSH2 0x15E5 SWAP3 SWAP2 SWAP1 PUSH2 0x2C73 JUMP JUMPDEST POP JUMPDEST POP POP POP POP POP POP JUMP JUMPDEST PUSH1 0x0 DUP1 DUP3 SWAP1 POP PUSH1 0x0 DUP1 SWAP3 POP PUSH1 0x0 SWAP1 POP JUMPDEST DUP2 MLOAD DUP2 LT ISZERO PUSH2 0x16A8 JUMPI PUSH1 0x0 DUP3 DUP3 DUP2 MLOAD DUP2 LT PUSH2 0x1643 JUMPI PUSH32 0x4E487B7100000000000000000000000000000000000000000000000000000000 PUSH1 0x0 MSTORE PUSH1 0x32 PUSH1 0x4 MSTORE PUSH1 0x24 PUSH1 0x0 REVERT JUMPDEST PUSH1 0x20 ADD ADD MLOAD PUSH1 0xF8 SHR PUSH1 0xF8 SHL PUSH1 0xF8 SHR PUSH1 0xFF AND SWAP1 POP PUSH1 0x30 DUP2 LT ISZERO DUP1 ISZERO PUSH2 0x1668 JUMPI POP PUSH1 0x39 DUP2 GT ISZERO JUMPDEST ISZERO PUSH2 0x1694 JUMPI PUSH1 0x30 DUP2 PUSH2 0x167A SWAP2 SWAP1 PUSH2 0x3BC6 JUMP JUMPDEST PUSH1 0xA DUP6 PUSH2 0x1687 SWAP2 SWAP1 PUSH2 0x3B6C JUMP JUMPDEST PUSH2 0x1691 SWAP2 SWAP1 PUSH2 0x3AE5 JUMP JUMPDEST SWAP4 POP JUMPDEST POP DUP1 DUP1 PUSH2 0x16A0 SWAP1 PUSH2 0x3D42 JUMP JUMPDEST SWAP2 POP POP PUSH2 0x15FF JUMP JUMPDEST POP POP SWAP2 SWAP1 POP JUMP JUMPDEST PUSH1 0x0 DUP1 PUSH1 0x0 SWAP1 POP PUSH1 0x0 PUSH32 0x30644E72E131A029B85045B68181585D2833E84879B9709143E1F593F0000001 SWAP1 POP PUSH1 0x0 JUMPDEST DUP5 MLOAD DUP2 LT ISZERO PUSH2 0x17A7 JUMPI DUP2 PUSH2 0x1732 DUP7 DUP4 DUP2 MLOAD DUP2 LT PUSH2 0x1724 JUMPI PUSH32 0x4E487B7100000000000000000000000000000000000000000000000000000000 PUSH1 0x0 MSTORE PUSH1 0x32 PUSH1 0x4 MSTORE PUSH1 0x24 PUSH1 0x0 REVERT JUMPDEST PUSH1 0x20 MUL PUSH1 0x20 ADD ADD MLOAD DUP6 PUSH2 0x17FD JUMP JUMPDEST DUP7 DUP4 DUP2 MLOAD DUP2 LT PUSH2 0x176B JUMPI PUSH32 0x4E487B7100000000000000000000000000000000000000000000000000000000 PUSH1 0x0 MSTORE PUSH1 0x32 PUSH1 0x4 MSTORE PUSH1 0x24 PUSH1 0x0 REVERT JUMPDEST PUSH1 0x20 MUL PUSH1 0x20 ADD ADD MLOAD DUP6 PUSH2 0x177E SWAP2 SWAP1 PUSH2 0x3AE5 JUMP JUMPDEST PUSH2 0x1788 SWAP2 SWAP1 PUSH2 0x3AE5 JUMP JUMPDEST PUSH2 0x1792 SWAP2 SWAP1 PUSH2 0x3D8B JUMP JUMPDEST SWAP3 POP DUP1 DUP1 PUSH2 0x179F SWAP1 PUSH2 0x3D42 JUMP JUMPDEST SWAP2 POP POP PUSH2 0x16DE JUMP JUMPDEST POP DUP2 SWAP3 POP POP POP SWAP2 SWAP1 POP JUMP JUMPDEST PUSH1 0x1 PUSH1 0x4 PUSH1 0x0 DUP4 PUSH20 0xFFFFFFFFFFFFFFFFFFFFFFFFFFFFFFFFFFFFFFFF AND PUSH20 0xFFFFFFFFFFFFFFFFFFFFFFFFFFFFFFFFFFFFFFFF AND DUP2 MSTORE PUSH1 0x20 ADD SWAP1 DUP2 MSTORE PUSH1 0x20 ADD PUSH1 0x0 KECCAK256 PUSH1 0x1 ADD DUP2 SWAP1 SSTORE POP POP JUMP JUMPDEST PUSH1 0x0 PUSH32 0x30644E72E131A029B85045B68181585D2833E84879B9709143E1F593F0000001 PUSH1 0x0 DUP1 DUP5 PUSH32 0x2E2EBBB178296B63D88EC198F0976AD98BC1D4EB0D921DDD2EB86CB7E70A98E5 DUP8 ADD ADD SWAP2 POP DUP3 DUP3 DUP4 MULMOD SWAP1 POP DUP3 DUP3 DUP5 DUP6 DUP5 DUP6 MULMOD DUP5 MULMOD MULMOD SWAP6 POP DUP5 PUSH32 0x21BFC154B5B071D22D06105663553801F858C1F231020B4C291A729D6281D349 DUP8 ADD ADD SWAP2 POP DUP3 DUP3 DUP4 MULMOD SWAP1 POP DUP3 DUP3 DUP5 DUP6 DUP5 DUP6 MULMOD DUP5 MULMOD MULMOD SWAP6 POP DUP5 PUSH32 0x126CFA352B0E2701442B36E0C2FC88287CFD3BFECCE842AFC0E3E78D8EDB4AD8 DUP8 ADD ADD SWAP2 POP DUP3 DUP3 DUP4 MULMOD SWAP1 POP DUP3 DUP3 DUP5 DUP6 DUP5 DUP6 MULMOD DUP5 MULMOD MULMOD SWAP6 POP DUP5 PUSH32 0x309D7067AB65DE1A99FE23F458D0BC3F18C59B6642EF48AFC679EF17CB6928C DUP8 ADD ADD SWAP2 POP DUP3 DUP3 DUP4 MULMOD SWAP1 POP DUP3 DUP3 DUP5 DUP6 DUP5 DUP6 MULMOD DUP5 MULMOD MULMOD SWAP6 POP DUP5 PUSH32 0x194C4693409966960BE88513CFE32987C125F71398A782E44973FB8AF4798BD8 DUP8 ADD ADD SWAP2 POP DUP3 DUP3 DUP4 MULMOD SWAP1 POP DUP3 DUP3 DUP5 DUP6 DUP5 DUP6 MULMOD DUP5 MULMOD MULMOD SWAP6 POP DUP5 PUSH32 0x5A849684BC58CC0D6E9F319B4DAE26DB171733BF60F31D978E41D09A75A6319 DUP8 ADD ADD SWAP2 POP DUP3 DUP3 DUP4 MULMOD SWAP1 POP DUP3 DUP3 DUP5 DUP6 DUP5 DUP6 MULMOD DUP5 MULMOD MULMOD SWAP6 POP DUP5 PUSH32 0x18BD4DAE5134538BD2F90D41BBB1E330B2A8286BA4A09ACA3FBBDCF932534BE5 DUP8 ADD ADD SWAP2 POP DUP3 DUP3 DUP4 MULMOD SWAP1 POP DUP3 DUP3 DUP5 DUP6 DUP5 DUP6 MULMOD DUP5 MULMOD MULMOD SWAP6 POP DUP5 PUSH32 0x736C60CD39FD1649D4845B4F9A6EC9BACA89FB2DE0A3D7EEABE43504B5607FA DUP8 ADD ADD SWAP2 POP DUP3 DUP3 DUP4 MULMOD SWAP1 POP DUP3 DUP3 DUP5 DUP6 DUP5 DUP6 MULMOD DUP5 MULMOD MULMOD SWAP6 POP DUP5 PUSH32 0x25A6971A9D2C1DE9F374378D8F61492B1BD3C46584C076A76C43C3CD1A747512 DUP8 ADD ADD SWAP2 POP DUP3 DUP3 DUP4 MULMOD SWAP1 POP DUP3 DUP3 DUP5 DUP6 DUP5 DUP6 MULMOD DUP5 MULMOD MULMOD SWAP6 POP DUP5 PUSH32 0xA3373D15FA6DCE221F83226C02D41F8AEA5CFC6DA4C9F4981ADA1BD4B50F56E DUP8 ADD ADD SWAP2 POP DUP3 DUP3 DUP4 MULMOD SWAP1 POP DUP3 DUP3 DUP5 DUP6 DUP5 DUP6 MULMOD DUP5 MULMOD MULMOD SWAP6 POP DUP5 PUSH32 0x2B70028E2BF4E008E22EDDB78D4190D73C289DC6445B3F64E15F8BD0EC02C672 DUP8 ADD ADD SWAP2 POP DUP3 DUP3 DUP4 MULMOD SWAP1 POP DUP3 DUP3 DUP5 DUP6 DUP5 DUP6 MULMOD DUP5 MULMOD MULMOD SWAP6 POP DUP5 PUSH32 0xB24EF461A71EED93DD366342F9CA4EEBB749C8A5A6057C801D538C7C0666BA4 DUP8 ADD ADD SWAP2 POP DUP3 DUP3 DUP4 MULMOD SWAP1 POP DUP3 DUP3 DUP5 DUP6 DUP5 DUP6 MULMOD DUP5 MULMOD MULMOD SWAP6 POP DUP5 PUSH32 0x5D1E0AC576D1EC814B621516339AE1A291C7DF36B5FD6CF0B4E3C9CD25E3072 DUP8 ADD ADD SWAP2 POP DUP3 DUP3 DUP4 MULMOD SWAP1 POP DUP3 DUP3 DUP5 DUP6 DUP5 DUP6 MULMOD DUP5 MULMOD MULMOD SWAP6 POP DUP5 PUSH32 0x271CFBF88E9744B8596E7E2D6875C8005D0E62014010AC35E95A7CE2390BC50F DUP8 ADD ADD SWAP2 POP DUP3 DUP3 DUP4 MULMOD SWAP1 POP DUP3 DUP3 DUP5 DUP6 DUP5 DUP6 MULMOD DUP5 MULMOD MULMOD SWAP6 POP DUP5 PUSH32 0x196309F1D170D741AB1CE90C39772017FB7CDEC78C37882B98A6B56956C13DEF DUP8 ADD ADD SWAP2 POP DUP3 DUP3 DUP4 MULMOD SWAP1 POP DUP3 DUP3 DUP5 DUP6 DUP5 DUP6 MULMOD DUP5 MULMOD MULMOD SWAP6 POP DUP5 PUSH32 0x127C1116C575C03C7F6D83417D8C1B3808F92EE16924A54094BF094721E9E4F5 DUP8 ADD ADD SWAP2 POP DUP3 DUP3 DUP4 MULMOD SWAP1 POP DUP3 DUP3 DUP5 DUP6 DUP5 DUP6 MULMOD DUP5 MULMOD MULMOD SWAP6 POP DUP5 PUSH32 0x1BFF78047EE67D38A54FDC540F9A2BA07F63489ACD36425F1AE210AC329826F5 DUP8 ADD ADD SWAP2 POP DUP3 DUP3 DUP4 MULMOD SWAP1 POP DUP3 DUP3 DUP5 DUP6 DUP5 DUP6 MULMOD DUP5 MULMOD MULMOD SWAP6 POP DUP5 PUSH32 0x6C7DC7BBAE615FCF1896F2B8DB7D92C05DC1EA1C8134E9DB6FD588672C53E9A DUP8 ADD ADD SWAP2 POP DUP3 DUP3 DUP4 MULMOD SWAP1 POP DUP3 DUP3 DUP5 DUP6 DUP5 DUP6 MULMOD DUP5 MULMOD MULMOD SWAP6 POP DUP5 PUSH32 0x12DF78CBA175EF76DBFCC9C785926BB3949A87EC7533E2559A27A64B91CEBBA5 DUP8 ADD ADD SWAP2 POP DUP3 DUP3 DUP4 MULMOD SWAP1 POP DUP3 DUP3 DUP5 DUP6 DUP5 DUP6 MULMOD DUP5 MULMOD MULMOD SWAP6 POP DUP5 PUSH32 0x2BD4CDC962E3DA62CB3C96F7C428A9B0D518BFA7CE26F8FCE7A6AF769AFB6540 DUP8 ADD ADD SWAP2 POP DUP3 DUP3 DUP4 MULMOD SWAP1 POP DUP3 DUP3 DUP5 DUP6 DUP5 DUP6 MULMOD DUP5 MULMOD MULMOD SWAP6 POP DUP5 PUSH32 0x24EDD3847FEBBE44C4CC390246E3379B47FD01A030D0CD0B4FCF7FBD1CABFE58 DUP8 ADD ADD SWAP2 POP DUP3 DUP3 DUP4 MULMOD SWAP1 POP DUP3 DUP3 DUP5 DUP6 DUP5 DUP6 MULMOD DUP5 MULMOD MULMOD SWAP6 POP DUP5 PUSH32 0x1CE065D2C2561BB573E4CF4259D3B0B0E9EACB447751C62B77D0BC5E4E3C7D15 DUP8 ADD ADD SWAP2 POP DUP3 DUP3 DUP4 MULMOD SWAP1 POP DUP3 DUP3 DUP5 DUP6 DUP5 DUP6 MULMOD DUP5 MULMOD MULMOD SWAP6 POP DUP5 PUSH32 0x18053E9F0D45F9EEFBDA135BFD39329E34837E633565C314FB9030B9DB7381BB DUP8 ADD ADD SWAP2 POP DUP3 DUP3 DUP4 MULMOD SWAP1 POP DUP3 DUP3 DUP5 DUP6 DUP5 DUP6 MULMOD DUP5 MULMOD MULMOD SWAP6 POP DUP5 PUSH32 0x162FFA8742138BBE516168BF86EC78B1AD1E8B535AC455A7CFBB22C13F9C5A9E DUP8 ADD ADD SWAP2 POP DUP3 DUP3 DUP4 MULMOD SWAP1 POP DUP3 DUP3 DUP5 DUP6 DUP5 DUP6 MULMOD DUP5 MULMOD MULMOD SWAP6 POP DUP5 PUSH32 0x79EEA42E16AC6442CA82623FC0E8D9AD3996A47A8013EA9CB73858CA42B7159 DUP8 ADD ADD SWAP2 POP DUP3 DUP3 DUP4 MULMOD SWAP1 POP DUP3 DUP3 DUP5 DUP6 DUP5 DUP6 MULMOD DUP5 MULMOD MULMOD SWAP6 POP DUP5 PUSH32 0xA49AF2BBE11B05BD02A69A47B1BAD5B2170407ADA21142F06E4E109DE88A1B6 DUP8 ADD ADD SWAP2 POP DUP3 DUP3 DUP4 MULMOD SWAP1 POP DUP3 DUP3 DUP5 DUP6 DUP5 DUP6 MULMOD DUP5 MULMOD MULMOD SWAP6 POP DUP5 PUSH32 0x12C34EEBBAA69CCCC36929E8F4A6E40771E153FF77943DA55C4FC860537B733A DUP8 ADD ADD SWAP2 POP DUP3 DUP3 DUP4 MULMOD SWAP1 POP DUP3 DUP3 DUP5 DUP6 DUP5 DUP6 MULMOD DUP5 MULMOD MULMOD SWAP6 POP DUP5 PUSH31 0x8DE5AC6B4E359335B6FCE58DC0E5E43FD2AEFD86BAC35ABE579B8CACE5DBC8 DUP8 ADD ADD SWAP2 POP DUP3 DUP3 DUP4 MULMOD SWAP1 POP DUP3 DUP3 DUP5 DUP6 DUP5 DUP6 MULMOD DUP5 MULMOD MULMOD SWAP6 POP DUP5 PUSH32 0x4A6E988B50D915734BF3296D83057FFE6A550F8987E4597BEE7D333CD24A865 DUP8 ADD ADD SWAP2 POP DUP3 DUP3 DUP4 MULMOD SWAP1 POP DUP3 DUP3 DUP5 DUP6 DUP5 DUP6 MULMOD DUP5 MULMOD MULMOD SWAP6 POP DUP5 PUSH32 0x24112633926CFC6028FA2FFD9F090B1E5428A0A87D7118356E48B5D470449217 DUP8 ADD ADD SWAP2 POP DUP3 DUP3 DUP4 MULMOD SWAP1 POP DUP3 DUP3 DUP5 DUP6 DUP5 DUP6 MULMOD DUP5 MULMOD MULMOD SWAP6 POP DUP5 PUSH32 0xD56329982F3DF38A3F19FB814C3013F419BA0EB8403B27C0C0E75C6FE1CF468 DUP8 ADD ADD SWAP2 POP DUP3 DUP3 DUP4 MULMOD SWAP1 POP DUP3 DUP3 DUP5 DUP6 DUP5 DUP6 MULMOD DUP5 MULMOD MULMOD SWAP6 POP DUP5 PUSH32 0x1F01EF80763C95F53C434164493D9673AEEF290BF1AA1997D677B557B9692E8A DUP8 ADD ADD SWAP2 POP DUP3 DUP3 DUP4 MULMOD SWAP1 POP DUP3 DUP3 DUP5 DUP6 DUP5 DUP6 MULMOD DUP5 MULMOD MULMOD SWAP6 POP DUP5 PUSH32 0x105C5257F801527E60B0361C00075B5A79D2DC6821D8A1258D906ED453C7E7BE DUP8 ADD ADD SWAP2 POP DUP3 DUP3 DUP4 MULMOD SWAP1 POP DUP3 DUP3 DUP5 DUP6 DUP5 DUP6 MULMOD DUP5 MULMOD MULMOD SWAP6 POP DUP5 PUSH32 0x3DB505A0C32CB61CA099389C2180E1C83827FB41D9FED84D88766DF44C63079 DUP8 ADD ADD SWAP2 POP DUP3 DUP3 DUP4 MULMOD SWAP1 POP DUP3 DUP3 DUP5 DUP6 DUP5 DUP6 MULMOD DUP5 MULMOD MULMOD SWAP6 POP DUP5 PUSH32 0x1262E738F38DB6C79D24D9727294421CD95AFA24F4700C1323AB83C3A06ACE32 DUP8 ADD ADD SWAP2 POP DUP3 DUP3 DUP4 MULMOD SWAP1 POP DUP3 DUP3 DUP5 DUP6 DUP5 DUP6 MULMOD DUP5 MULMOD MULMOD SWAP6 POP DUP5 PUSH32 0xEE68C3E38C194033994C0D4D7BDE35BFAFA35B22A95F915F82C5A3B0422BD9A DUP8 ADD ADD SWAP2 POP DUP3 DUP3 DUP4 MULMOD SWAP1 POP DUP3 DUP3 DUP5 DUP6 DUP5 DUP6 MULMOD DUP5 MULMOD MULMOD SWAP6 POP DUP5 PUSH32 0x2EE5427BD20C47F8D2F0AA9E6419F7926ABCD5965084292AE54DD780077E6902 DUP8 ADD ADD SWAP2 POP DUP3 DUP3 DUP4 MULMOD SWAP1 POP DUP3 DUP3 DUP5 DUP6 DUP5 DUP6 MULMOD DUP5 MULMOD MULMOD SWAP6 POP DUP5 PUSH32 0x1E542D31D2A381792E0A9241C46229A22FD9382443E423A0E419D0FEB58656AF DUP8 ADD ADD SWAP2 POP DUP3 DUP3 DUP4 MULMOD SWAP1 POP DUP3 DUP3 DUP5 DUP6 DUP5 DUP6 MULMOD DUP5 MULMOD MULMOD SWAP6 POP DUP5 PUSH32 0xBA39F01462AB6A7CF621952752FCDE48677D7F32DF47E940EACF4954C5EF632 DUP8 ADD ADD SWAP2 POP DUP3 DUP3 DUP4 MULMOD SWAP1 POP DUP3 DUP3 DUP5 DUP6 DUP5 DUP6 MULMOD DUP5 MULMOD MULMOD SWAP6 POP DUP5 PUSH32 0x29C00B058C17800146BDC06B1E73FF5D0FF53DF96F8463818C0572D11FCAF88B DUP8 ADD ADD SWAP2 POP DUP3 DUP3 DUP4 MULMOD SWAP1 POP DUP3 DUP3 DUP5 DUP6 DUP5 DUP6 MULMOD DUP5 MULMOD MULMOD SWAP6 POP DUP5 PUSH32 0xB6200895B60A6C6794FCF1C2B1B15D03A713C905A8BA1F1315F7501FE1A50B8 DUP8 ADD ADD SWAP2 POP DUP3 DUP3 DUP4 MULMOD SWAP1 POP DUP3 DUP3 DUP5 DUP6 DUP5 DUP6 MULMOD DUP5 MULMOD MULMOD SWAP6 POP DUP5 PUSH32 0x2BC639B1B85D731F62D2C6F391D4498E392CB75EDCBD5C4C0FA8B26D32D68A12 DUP8 ADD ADD SWAP2 POP DUP3 DUP3 DUP4 MULMOD SWAP1 POP DUP3 DUP3 DUP5 DUP6 DUP5 DUP6 MULMOD DUP5 MULMOD MULMOD SWAP6 POP DUP5 PUSH32 0x2A89F38E6440CE641127046B67D8E615F14503D72D76BF3C703A01D1463A8445 DUP8 ADD ADD SWAP2 POP DUP3 DUP3 DUP4 MULMOD SWAP1 POP DUP3 DUP3 DUP5 DUP6 DUP5 DUP6 MULMOD DUP5 MULMOD MULMOD SWAP6 POP DUP5 PUSH32 0x1750EDE7EEEB4EDD7838B67FAC6D250A54055EEEAD10E69B3A6E1F076CA87868 DUP8 ADD ADD SWAP2 POP DUP3 DUP3 DUP4 MULMOD SWAP1 POP DUP3 DUP3 DUP5 DUP6 DUP5 DUP6 MULMOD DUP5 MULMOD MULMOD SWAP6 POP DUP5 PUSH32 0xC2D65084BEAD2A743115BE5329D5458D29802081F6F9DAC4165C42651F9BE2B DUP8 ADD ADD SWAP2 POP DUP3 DUP3 DUP4 MULMOD SWAP1 POP DUP3 DUP3 DUP5 DUP6 DUP5 DUP6 MULMOD DUP5 MULMOD MULMOD SWAP6 POP DUP5 PUSH32 0x28303E2D834E16E1FE33C9AB726A3E75DD0DAD9BFEA1A43267199E1F243993FB DUP8 ADD ADD SWAP2 POP DUP3 DUP3 DUP4 MULMOD SWAP1 POP DUP3 DUP3 DUP5 DUP6 DUP5 DUP6 MULMOD DUP5 MULMOD MULMOD SWAP6 POP DUP5 PUSH32 0x2B572811CA34EA5110D10772E4CED362EBEFD7CD1E1884B769E9435914EFC5E5 DUP8 ADD ADD SWAP2 POP DUP3 DUP3 DUP4 MULMOD SWAP1 POP DUP3 DUP3 DUP5 DUP6 DUP5 DUP6 MULMOD DUP5 MULMOD MULMOD SWAP6 POP DUP5 PUSH32 0x17521CA5799FE2EA82C67C0A8D0863B5EEC0EF9B703E195DD402B7008B53F6B4 DUP8 ADD ADD SWAP2 POP DUP3 DUP3 DUP4 MULMOD SWAP1 POP DUP3 DUP3 DUP5 DUP6 DUP5 DUP6 MULMOD DUP5 MULMOD MULMOD SWAP6 POP DUP5 PUSH32 0x407E54B96A5B63C609FA3797B223C73D260A365AD58B25891A5660272096BD5 DUP8 ADD ADD SWAP2 POP DUP3 DUP3 DUP4 MULMOD SWAP1 POP DUP3 DUP3 DUP5 DUP6 DUP5 DUP6 MULMOD DUP5 MULMOD MULMOD SWAP6 POP DUP5 PUSH32 0x1A3CD155B03C7D33CC8222C997424BC14069E2EDBF4B8AA564C9E5832BDACE91 DUP8 ADD ADD SWAP2 POP DUP3 DUP3 DUP4 MULMOD SWAP1 POP DUP3 DUP3 DUP5 DUP6 DUP5 DUP6 MULMOD DUP5 MULMOD MULMOD SWAP6 POP DUP5 PUSH32 0x296255B5E697E517C502BA49B18AAAD89514A490A02E7A878B5D559841B93FBD DUP8 ADD ADD SWAP2 POP DUP3 DUP3 DUP4 MULMOD SWAP1 POP DUP3 DUP3 DUP5 DUP6 DUP5 DUP6 MULMOD DUP5 MULMOD MULMOD SWAP6 POP DUP5 PUSH32 0x174835801A1F1525B4C21853B965C5048AF465E9F79DE9D16748C67953DA79A7 DUP8 ADD ADD SWAP2 POP DUP3 DUP3 DUP4 MULMOD SWAP1 POP DUP3 DUP3 DUP5 DUP6 DUP5 DUP6 MULMOD DUP5 MULMOD MULMOD SWAP6 POP DUP5 PUSH32 0x2D4AFED7A708E5972E84D766292F2C841C5D8570961074D59AD3F51E9369A597 DUP8 ADD ADD SWAP2 POP DUP3 DUP3 DUP4 MULMOD SWAP1 POP DUP3 DUP3 DUP5 DUP6 DUP5 DUP6 MULMOD DUP5 MULMOD MULMOD SWAP6 POP DUP5 PUSH32 0x1C0EB06744C9866E271CD29A7F17F72964FABA3CD088B95E73DCCE9D92C79BA6 DUP8 ADD ADD SWAP2 POP DUP3 DUP3 DUP4 MULMOD SWAP1 POP DUP3 DUP3 DUP5 DUP6 DUP5 DUP6 MULMOD DUP5 MULMOD MULMOD SWAP6 POP DUP5 PUSH32 0x26705E7E4F23A7D786AD1786B353A2F8B82269C7B58AB70D7B93F41685D34D45 DUP8 ADD ADD SWAP2 POP DUP3 DUP3 DUP4 MULMOD SWAP1 POP DUP3 DUP3 DUP5 DUP6 DUP5 DUP6 MULMOD DUP5 MULMOD MULMOD SWAP6 POP DUP5 PUSH32 0x4E674D88B90B1188353106AE25C0447ACACE9DC6D62CFE7FEC2D7993DFD7A22 DUP8 ADD ADD SWAP2 POP DUP3 DUP3 DUP4 MULMOD SWAP1 POP DUP3 DUP3 DUP5 DUP6 DUP5 DUP6 MULMOD DUP5 MULMOD MULMOD SWAP6 POP DUP5 PUSH32 0xDF3335DA13FF46F65095F975D157886241AECCFF38FD9BBA92644F8969D7E09 DUP8 ADD ADD SWAP2 POP DUP3 DUP3 DUP4 MULMOD SWAP1 POP DUP3 DUP3 DUP5 DUP6 DUP5 DUP6 MULMOD DUP5 MULMOD MULMOD SWAP6 POP DUP5 PUSH32 0x2DFFF62B9282EC05B1FA44479A6E9DEBE9AC631813D2B10E44B9E0FE19E4D4EE DUP8 ADD ADD SWAP2 POP DUP3 DUP3 DUP4 MULMOD SWAP1 POP DUP3 DUP3 DUP5 DUP6 DUP5 DUP6 MULMOD DUP5 MULMOD MULMOD SWAP6 POP DUP5 PUSH32 0x8ECE248FE1CE1CD705699B5CD07C990EC27721BAB59B657BB138E487EE6694D DUP8 ADD ADD SWAP2 POP DUP3 DUP3 DUP4 MULMOD SWAP1 POP DUP3 DUP3 DUP5 DUP6 DUP5 DUP6 MULMOD DUP5 MULMOD MULMOD SWAP6 POP DUP5 PUSH32 0x2C1AB81DB607BA76DBF71F48752C856BF183044981C3B6D1FD31B179A078F571 DUP8 ADD ADD SWAP2 POP DUP3 DUP3 DUP4 MULMOD SWAP1 POP DUP3 DUP3 DUP5 DUP6 DUP5 DUP6 MULMOD DUP5 MULMOD MULMOD SWAP6 POP DUP5 PUSH32 0x1DE6F8886868E351BF4CAAD293BD86ED29EF63810E15CB809542E01BFBBCB88 DUP8 ADD ADD SWAP2 POP DUP3 DUP3 DUP4 MULMOD SWAP1 POP DUP3 DUP3 DUP5 DUP6 DUP5 DUP6 MULMOD DUP5 MULMOD MULMOD SWAP6 POP DUP5 PUSH32 0x23DD8B576FA286331864D63C77FD82FA61DA717533821B9382617EBD54ABEB46 DUP8 ADD ADD SWAP2 POP DUP3 DUP3 DUP4 MULMOD SWAP1 POP DUP3 DUP3 DUP5 DUP6 DUP5 DUP6 MULMOD DUP5 MULMOD MULMOD SWAP6 POP DUP5 PUSH32 0x169F2C8E515B2CEE8D183991C3712736001A7F92FB34C3E3F532DEC373AACBFB DUP8 ADD ADD SWAP2 POP DUP3 DUP3 DUP4 MULMOD SWAP1 POP DUP3 DUP3 DUP5 DUP6 DUP5 DUP6 MULMOD DUP5 MULMOD MULMOD SWAP6 POP DUP5 PUSH32 0xECF89B898E2DECA99AE5108D271F1FA92E5018C1AC899D554DC1DFA35CEB0A0 DUP8 ADD ADD SWAP2 POP DUP3 DUP3 DUP4 MULMOD SWAP1 POP DUP3 DUP3 DUP5 DUP6 DUP5 DUP6 MULMOD DUP5 MULMOD MULMOD SWAP6 POP DUP5 PUSH32 0xDC0D6E76AFBA377DD693ED4C47A4F9FEE7A88D1DF5DF62FD06F2F87B81DE1C8 DUP8 ADD ADD SWAP2 POP DUP3 DUP3 DUP4 MULMOD SWAP1 POP DUP3 DUP3 DUP5 DUP6 DUP5 DUP6 MULMOD DUP5 MULMOD MULMOD SWAP6 POP DUP5 PUSH32 0xD8D08571539C68A37DAD2A6638291D323948E57A0189A7BE2EC14D89308BB6D DUP8 ADD ADD SWAP2 POP DUP3 DUP3 DUP4 MULMOD SWAP1 POP DUP3 DUP3 DUP5 DUP6 DUP5 DUP6 MULMOD DUP5 MULMOD MULMOD SWAP6 POP DUP5 PUSH32 0x17D170E737533E922C934F79BAD3C28F85EF14B21C7354000298CEE876977A44 DUP8 ADD ADD SWAP2 POP DUP3 DUP3 DUP4 MULMOD SWAP1 POP DUP3 DUP3 DUP5 DUP6 DUP5 DUP6 MULMOD DUP5 MULMOD MULMOD SWAP6 POP DUP5 PUSH32 0x9ED630D4088D7ACAA34064515C1CB368ED405C4DED26DF38652D290B26F6AFF DUP8 ADD ADD SWAP2 POP DUP3 DUP3 DUP4 MULMOD SWAP1 POP DUP3 DUP3 DUP5 DUP6 DUP5 DUP6 MULMOD DUP5 MULMOD MULMOD SWAP6 POP DUP5 PUSH32 0x2B5381943DD4C43BD059A4747B72FC116F099C46004DC811DDB440F7EE69701E DUP8 ADD ADD SWAP2 POP DUP3 DUP3 DUP4 MULMOD SWAP1 POP DUP3 DUP3 DUP5 DUP6 DUP5 DUP6 MULMOD DUP5 MULMOD MULMOD SWAP6 POP DUP5 PUSH32 0x1DA34E987E965C368EC0252E97DB8BFB78668DB369CDF6C70F7E02B5BD52B3B DUP8 ADD ADD SWAP2 POP DUP3 DUP3 DUP4 MULMOD SWAP1 POP DUP3 DUP3 DUP5 DUP6 DUP5 DUP6 MULMOD DUP5 MULMOD MULMOD SWAP6 POP DUP5 PUSH32 0x1A18C896F124CD4821FBE08AC680B78362C15344619CEF072874F43799B89F23 DUP8 ADD ADD SWAP2 POP DUP3 DUP3 DUP4 MULMOD SWAP1 POP DUP3 DUP3 DUP5 DUP6 DUP5 DUP6 MULMOD DUP5 MULMOD MULMOD SWAP6 POP DUP5 PUSH32 0x168DBAF0EAE2CFE96F6B340BFD4922C1C41317BFFF69613B81D9722E34059F20 DUP8 ADD ADD SWAP2 POP DUP3 DUP3 DUP4 MULMOD SWAP1 POP DUP3 DUP3 DUP5 DUP6 DUP5 DUP6 MULMOD DUP5 MULMOD MULMOD SWAP6 POP DUP5 PUSH32 0x1DFD587726EC442565EB47FC0234740634B6562D1B60192947140B8670AA4014 DUP8 ADD ADD SWAP2 POP DUP3 DUP3 DUP4 MULMOD SWAP1 POP DUP3 DUP3 DUP5 DUP6 DUP5 DUP6 MULMOD DUP5 MULMOD MULMOD SWAP6 POP DUP5 PUSH32 0x147A904BCD17A3F66EBD75B2C1279507001E602842A047929FD119D31EDF3924 DUP8 ADD ADD SWAP2 POP DUP3 DUP3 DUP4 MULMOD SWAP1 POP DUP3 DUP3 DUP5 DUP6 DUP5 DUP6 MULMOD DUP5 MULMOD MULMOD SWAP6 POP DUP5 PUSH31 0x621164E8B17A476172EE2AABD9A1A67ECC05F926BEC5BBACEB7524616E1166 DUP8 ADD ADD SWAP2 POP DUP3 DUP3 DUP4 MULMOD SWAP1 POP DUP3 DUP3 DUP5 DUP6 DUP5 DUP6 MULMOD DUP5 MULMOD MULMOD SWAP6 POP DUP5 PUSH32 0x280FCCE91F920B6487EE3E6A838ABBC1F7EB44E4853B22D067A56F5E908499B9 DUP8 ADD ADD SWAP2 POP DUP3 DUP3 DUP4 MULMOD SWAP1 POP DUP3 DUP3 DUP5 DUP6 DUP5 DUP6 MULMOD DUP5 MULMOD MULMOD SWAP6 POP DUP5 PUSH32 0x2D49D03AB6B741495E4D7CBE87EA6CF0F06AEA86F528D13D57F6A05E4C868D0B DUP8 ADD ADD SWAP2 POP DUP3 DUP3 DUP4 MULMOD SWAP1 POP DUP3 DUP3 DUP5 DUP6 DUP5 DUP6 MULMOD DUP5 MULMOD MULMOD SWAP6 POP DUP5 PUSH32 0x2A59B6E410852D96661479179081AF38F478B7603EB3E4F231F99633D826CDE9 DUP8 ADD ADD SWAP2 POP DUP3 DUP3 DUP4 MULMOD SWAP1 POP DUP3 DUP3 DUP5 DUP6 DUP5 DUP6 MULMOD DUP5 MULMOD MULMOD SWAP6 POP DUP5 PUSH32 0x1A7783FA9FF7B36D38AEB75E65CFC88260B70D4600B51AB5745E5FE1DC35D9B1 DUP8 ADD ADD SWAP2 POP DUP3 DUP3 DUP4 MULMOD SWAP1 POP DUP3 DUP3 DUP5 DUP6 DUP5 DUP6 MULMOD DUP5 MULMOD MULMOD SWAP6 POP DUP5 PUSH32 0x286D1E7E039FA286D1BD8FE69E175ECAD61693CC1F55044847191BAE2FF344B2 DUP8 ADD ADD SWAP2 POP DUP3 DUP3 DUP4 MULMOD SWAP1 POP DUP3 DUP3 DUP5 DUP6 DUP5 DUP6 MULMOD DUP5 MULMOD MULMOD SWAP6 POP DUP5 PUSH32 0xFA108DBE8E14E8C53093F9AAF1F989DABB3DC026FFECB049D3D6B4B2C9B8077 DUP8 ADD ADD SWAP2 POP DUP3 DUP3 DUP4 MULMOD SWAP1 POP DUP3 DUP3 DUP5 DUP6 DUP5 DUP6 MULMOD DUP5 MULMOD MULMOD SWAP6 POP DUP5 PUSH32 0xE4B25635FA58150829C3E832C4361BFA7EDFDF40B0514C00DD3A7338131F193 DUP8 ADD ADD SWAP2 POP DUP3 DUP3 DUP4 MULMOD SWAP1 POP DUP3 DUP3 DUP5 DUP6 DUP5 DUP6 MULMOD DUP5 MULMOD MULMOD SWAP6 POP DUP5 PUSH32 0x23B0EA71B8BBD3CB62B741E525F5C8B35CBFED820AAF1234D03A4655CDF71039 DUP8 ADD ADD SWAP2 POP DUP3 DUP3 DUP4 MULMOD SWAP1 POP DUP3 DUP3 DUP5 DUP6 DUP5 DUP6 MULMOD DUP5 MULMOD MULMOD SWAP6 POP DUP5 PUSH32 0x2ACED572DBFD2664569030FCF391019702F79CBFBE380714894FBFC785DAD03F DUP8 ADD ADD SWAP2 POP DUP3 DUP3 DUP4 MULMOD SWAP1 POP DUP3 DUP3 DUP5 DUP6 DUP5 DUP6 MULMOD DUP5 MULMOD MULMOD SWAP6 POP DUP5 PUSH32 0x3C36B340D12DAF2422FEBD15A4521F351459057C2AFFD6816C67FA38B3CC34D DUP8 ADD ADD SWAP2 POP DUP3 DUP3 DUP4 MULMOD SWAP1 POP DUP3 DUP3 DUP5 DUP6 DUP5 DUP6 MULMOD DUP5 MULMOD MULMOD SWAP6 POP DUP5 PUSH32 0x17D64C030F29369C09FFD529C7532B84228E69EF6DD9D9DAB603BA86CB9254E7 DUP8 ADD ADD SWAP2 POP DUP3 DUP3 DUP4 MULMOD SWAP1 POP DUP3 DUP3 DUP5 DUP6 DUP5 DUP6 MULMOD DUP5 MULMOD MULMOD SWAP6 POP DUP5 PUSH32 0x95050333E4136E4C73B4101AB008BF625A73C51AFD5E77F99C606CA7ACE63D7 DUP8 ADD ADD SWAP2 POP DUP3 DUP3 DUP4 MULMOD SWAP1 POP DUP3 DUP3 DUP5 DUP6 DUP5 DUP6 MULMOD DUP5 MULMOD MULMOD SWAP6 POP DUP5 PUSH32 0x10CA0FD2A95BC198763D375F566182463E0C92EA122DF6485F1C4E5A9769B32C DUP8 ADD ADD SWAP2 POP DUP3 DUP3 DUP4 MULMOD SWAP1 POP DUP3 DUP3 DUP5 DUP6 DUP5 DUP6 MULMOD DUP5 MULMOD MULMOD SWAP6 POP DUP5 PUSH32 0x29F63C935EFE224E235D5B49B88578A97B25C739A342D4A0D908B98EF757DB61 DUP8 ADD ADD SWAP2 POP DUP3 DUP3 DUP4 MULMOD SWAP1 POP DUP3 DUP3 DUP5 DUP6 DUP5 DUP6 MULMOD DUP5 MULMOD MULMOD SWAP6 POP DUP5 PUSH32 0x1E1289B8EFF2D431B178BC957CC0C41A1D7237057B9256FD090EB3C6366B9EF5 DUP8 ADD ADD SWAP2 POP DUP3 DUP3 DUP4 MULMOD SWAP1 POP DUP3 DUP3 DUP5 DUP6 DUP5 DUP6 MULMOD DUP5 MULMOD MULMOD SWAP6 POP DUP5 PUSH32 0x1ED8EE02730ECE601F15BE81E7D27250C4A4D4C04E7A2F3F4E79B931FD9FFAC9 DUP8 ADD ADD SWAP2 POP DUP3 DUP3 DUP4 MULMOD SWAP1 POP DUP3 DUP3 DUP5 DUP6 DUP5 DUP6 MULMOD DUP5 MULMOD MULMOD SWAP6 POP DUP3 DUP6 DUP8 ADDMOD SWAP4 POP POP POP POP SWAP3 SWAP2 POP POP JUMP JUMPDEST DUP3 DUP1 SLOAD PUSH2 0x2C7F SWAP1 PUSH2 0x3CC5 JUMP JUMPDEST SWAP1 PUSH1 0x0 MSTORE PUSH1 0x20 PUSH1 0x0 KECCAK256 SWAP1 PUSH1 0x1F ADD PUSH1 0x20 SWAP1 DIV DUP2 ADD SWAP3 DUP3 PUSH2 0x2CA1 JUMPI PUSH1 0x0 DUP6 SSTORE PUSH2 0x2CE8 JUMP JUMPDEST DUP3 PUSH1 0x1F LT PUSH2 0x2CBA JUMPI DUP1 MLOAD PUSH1 0xFF NOT AND DUP4 DUP1 ADD OR DUP6 SSTORE PUSH2 0x2CE8 JUMP JUMPDEST DUP3 DUP1 ADD PUSH1 0x1 ADD DUP6 SSTORE DUP3 ISZERO PUSH2 0x2CE8 JUMPI SWAP2 DUP3 ADD JUMPDEST DUP3 DUP2 GT ISZERO PUSH2 0x2CE7 JUMPI DUP3 MLOAD DUP3 SSTORE SWAP2 PUSH1 0x20 ADD SWAP2 SWAP1 PUSH1 0x1 ADD SWAP1 PUSH2 0x2CCC JUMP JUMPDEST JUMPDEST POP SWAP1 POP PUSH2 0x2CF5 SWAP2 SWAP1 PUSH2 0x2D53 JUMP JUMPDEST POP SWAP1 JUMP JUMPDEST DUP3 DUP1 SLOAD DUP3 DUP3 SSTORE SWAP1 PUSH1 0x0 MSTORE PUSH1 0x20 PUSH1 0x0 KECCAK256 SWAP1 DUP2 ADD SWAP3 DUP3 ISZERO PUSH2 0x2D35 JUMPI SWAP2 PUSH1 0x20 MUL DUP3 ADD JUMPDEST DUP3 DUP2 GT ISZERO PUSH2 0x2D34 JUMPI DUP3 MLOAD DUP3 SSTORE SWAP2 PUSH1 0x20 ADD SWAP2 SWAP1 PUSH1 0x1 ADD SWAP1 PUSH2 0x2D19 JUMP JUMPDEST JUMPDEST POP SWAP1 POP PUSH2 0x2D42 SWAP2 SWAP1 PUSH2 0x2D53 JUMP JUMPDEST POP SWAP1 JUMP JUMPDEST PUSH2 0x1EF7 DUP1 PUSH2 0x3F55 DUP4 CODECOPY ADD SWAP1 JUMP JUMPDEST JUMPDEST DUP1 DUP3 GT ISZERO PUSH2 0x2D6C JUMPI PUSH1 0x0 DUP2 PUSH1 0x0 SWAP1 SSTORE POP PUSH1 0x1 ADD PUSH2 0x2D54 JUMP JUMPDEST POP SWAP1 JUMP JUMPDEST PUSH1 0x0 PUSH2 0x2D83 PUSH2 0x2D7E DUP5 PUSH2 0x38A3 JUMP JUMPDEST PUSH2 0x387E JUMP JUMPDEST SWAP1 POP DUP1 DUP3 DUP6 PUSH1 0x40 DUP7 MUL DUP3 ADD GT ISZERO PUSH2 0x2D99 JUMPI PUSH1 0x0 DUP1 REVERT JUMPDEST PUSH1 0x0 JUMPDEST DUP6 DUP2 LT ISZERO PUSH2 0x2DC9 JUMPI DUP2 PUSH2 0x2DAF DUP9 DUP3 PUSH2 0x2FA6 JUMP JUMPDEST DUP5 MSTORE PUSH1 0x20 DUP5 ADD SWAP4 POP PUSH1 0x40 DUP4 ADD SWAP3 POP POP PUSH1 0x1 DUP2 ADD SWAP1 POP PUSH2 0x2D9C JUMP JUMPDEST POP POP POP SWAP4 SWAP3 POP POP POP JUMP JUMPDEST PUSH1 0x0 PUSH2 0x2DE6 PUSH2 0x2DE1 DUP5 PUSH2 0x38C9 JUMP JUMPDEST PUSH2 0x387E JUMP JUMPDEST SWAP1 POP DUP1 DUP3 DUP6 PUSH1 0x20 DUP7 MUL DUP3 ADD GT ISZERO PUSH2 0x2DFC JUMPI PUSH1 0x0 DUP1 REVERT JUMPDEST PUSH1 0x0 JUMPDEST DUP6 DUP2 LT ISZERO PUSH2 0x2E2C JUMPI DUP2 PUSH2 0x2E12 DUP9 DUP3 PUSH2 0x3036 JUMP JUMPDEST DUP5 MSTORE PUSH1 0x20 DUP5 ADD SWAP4 POP PUSH1 0x20 DUP4 ADD SWAP3 POP POP PUSH1 0x1 DUP2 ADD SWAP1 POP PUSH2 0x2DFF JUMP JUMPDEST POP POP POP SWAP4 SWAP3 POP POP POP JUMP JUMPDEST PUSH1 0x0 PUSH2 0x2E49 PUSH2 0x2E44 DUP5 PUSH2 0x38EF JUMP JUMPDEST PUSH2 0x387E JUMP JUMPDEST SWAP1 POP DUP1 DUP3 DUP6 PUSH1 0x20 DUP7 MUL DUP3 ADD GT ISZERO PUSH2 0x2E5F JUMPI PUSH1 0x0 DUP1 REVERT JUMPDEST PUSH1 0x0 JUMPDEST DUP6 DUP2 LT ISZERO PUSH2 0x2E8F JUMPI DUP2 PUSH2 0x2E75 DUP9 DUP3 PUSH2 0x3036 JUMP JUMPDEST DUP5 MSTORE PUSH1 0x20 DUP5 ADD SWAP4 POP PUSH1 0x20 DUP4 ADD SWAP3 POP POP PUSH1 0x1 DUP2 ADD SWAP1 POP PUSH2 0x2E62 JUMP JUMPDEST POP POP POP SWAP4 SWAP3 POP POP POP JUMP JUMPDEST PUSH1 0x0 PUSH2 0x2EAC PUSH2 0x2EA7 DUP5 PUSH2 0x3915 JUMP JUMPDEST PUSH2 0x387E JUMP JUMPDEST SWAP1 POP DUP1 DUP4 DUP3 MSTORE PUSH1 0x20 DUP3 ADD SWAP1 POP DUP3 DUP6 PUSH1 0x20 DUP7 MUL DUP3 ADD GT ISZERO PUSH2 0x2ECB JUMPI PUSH1 0x0 DUP1 REVERT JUMPDEST PUSH1 0x0 JUMPDEST DUP6 DUP2 LT ISZERO PUSH2 0x2EFB JUMPI DUP2 PUSH2 0x2EE1 DUP9 DUP3 PUSH2 0x3036 JUMP JUMPDEST DUP5 MSTORE PUSH1 0x20 DUP5 ADD SWAP4 POP PUSH1 0x20 DUP4 ADD SWAP3 POP POP PUSH1 0x1 DUP2 ADD SWAP1 POP PUSH2 0x2ECE JUMP JUMPDEST POP POP POP SWAP4 SWAP3 POP POP POP JUMP JUMPDEST PUSH1 0x0 PUSH2 0x2F18 PUSH2 0x2F13 DUP5 PUSH2 0x3941 JUMP JUMPDEST PUSH2 0x387E JUMP JUMPDEST SWAP1 POP DUP3 DUP2 MSTORE PUSH1 0x20 DUP2 ADD DUP5 DUP5 DUP5 ADD GT ISZERO PUSH2 0x2F30 JUMPI PUSH1 0x0 DUP1 REVERT JUMPDEST PUSH2 0x2F3B DUP5 DUP3 DUP6 PUSH2 0x3C59 JUMP JUMPDEST POP SWAP4 SWAP3 POP POP POP JUMP JUMPDEST PUSH1 0x0 DUP2 CALLDATALOAD SWAP1 POP PUSH2 0x2F52 DUP2 PUSH2 0x3EF8 JUMP JUMPDEST SWAP3 SWAP2 POP POP JUMP JUMPDEST PUSH1 0x0 DUP3 PUSH1 0x1F DUP4 ADD SLT PUSH2 0x2F69 JUMPI PUSH1 0x0 DUP1 REVERT JUMPDEST PUSH1 0x2 PUSH2 0x2F76 DUP5 DUP3 DUP6 PUSH2 0x2D70 JUMP JUMPDEST SWAP2 POP POP SWAP3 SWAP2 POP POP JUMP JUMPDEST PUSH1 0x0 DUP3 PUSH1 0x1F DUP4 ADD SLT PUSH2 0x2F90 JUMPI PUSH1 0x0 DUP1 REVERT JUMPDEST PUSH1 0x1 PUSH2 0x2F9D DUP5 DUP3 DUP6 PUSH2 0x2DD3 JUMP JUMPDEST SWAP2 POP POP SWAP3 SWAP2 POP POP JUMP JUMPDEST PUSH1 0x0 DUP3 PUSH1 0x1F DUP4 ADD SLT PUSH2 0x2FB7 JUMPI PUSH1 0x0 DUP1 REVERT JUMPDEST PUSH1 0x2 PUSH2 0x2FC4 DUP5 DUP3 DUP6 PUSH2 0x2E36 JUMP JUMPDEST SWAP2 POP POP SWAP3 SWAP2 POP POP JUMP JUMPDEST PUSH1 0x0 DUP3 PUSH1 0x1F DUP4 ADD SLT PUSH2 0x2FDE JUMPI PUSH1 0x0 DUP1 REVERT JUMPDEST DUP2 CALLDATALOAD PUSH2 0x2FEE DUP5 DUP3 PUSH1 0x20 DUP7 ADD PUSH2 0x2E99 JUMP JUMPDEST SWAP2 POP POP SWAP3 SWAP2 POP POP JUMP JUMPDEST PUSH1 0x0 DUP2 MLOAD SWAP1 POP PUSH2 0x3006 DUP2 PUSH2 0x3F0F JUMP JUMPDEST SWAP3 SWAP2 POP POP JUMP JUMPDEST PUSH1 0x0 DUP3 PUSH1 0x1F DUP4 ADD SLT PUSH2 0x301D JUMPI PUSH1 0x0 DUP1 REVERT JUMPDEST DUP2 CALLDATALOAD PUSH2 0x302D DUP5 DUP3 PUSH1 0x20 DUP7 ADD PUSH2 0x2F05 JUMP JUMPDEST SWAP2 POP POP SWAP3 SWAP2 POP POP JUMP JUMPDEST PUSH1 0x0 DUP2 CALLDATALOAD SWAP1 POP PUSH2 0x3045 DUP2 PUSH2 0x3F26 JUMP JUMPDEST SWAP3 SWAP2 POP POP JUMP JUMPDEST PUSH1 0x0 DUP2 CALLDATALOAD SWAP1 POP PUSH2 0x305A DUP2 PUSH2 0x3F3D JUMP JUMPDEST SWAP3 SWAP2 POP POP JUMP JUMPDEST PUSH1 0x0 PUSH1 0x20 DUP3 DUP5 SUB SLT ISZERO PUSH2 0x3072 JUMPI PUSH1 0x0 DUP1 REVERT JUMPDEST PUSH1 0x0 PUSH2 0x3080 DUP5 DUP3 DUP6 ADD PUSH2 0x2F43 JUMP JUMPDEST SWAP2 POP POP SWAP3 SWAP2 POP POP JUMP JUMPDEST PUSH1 0x0 DUP1 PUSH1 0x0 DUP1 PUSH1 0x0 PUSH2 0x140 DUP7 DUP9 SUB SLT ISZERO PUSH2 0x30A2 JUMPI PUSH1 0x0 DUP1 REVERT JUMPDEST PUSH1 0x0 PUSH2 0x30B0 DUP9 DUP3 DUP10 ADD PUSH2 0x2FA6 JUMP JUMPDEST SWAP6 POP POP PUSH1 0x40 PUSH2 0x30C1 DUP9 DUP3 DUP10 ADD PUSH2 0x2F58 JUMP JUMPDEST SWAP5 POP POP PUSH1 0xC0 PUSH2 0x30D2 DUP9 DUP3 DUP10 ADD PUSH2 0x2FA6 JUMP JUMPDEST SWAP4 POP POP PUSH2 0x100 PUSH2 0x30E4 DUP9 DUP3 DUP10 ADD PUSH2 0x2F7F JUMP JUMPDEST SWAP3 POP POP PUSH2 0x120 PUSH2 0x30F6 DUP9 DUP3 DUP10 ADD PUSH2 0x3036 JUMP JUMPDEST SWAP2 POP POP SWAP3 SWAP6 POP SWAP3 SWAP6 SWAP1 SWAP4 POP JUMP JUMPDEST PUSH1 0x0 PUSH1 0x20 DUP3 DUP5 SUB SLT ISZERO PUSH2 0x3115 JUMPI PUSH1 0x0 DUP1 REVERT JUMPDEST PUSH1 0x0 DUP3 ADD CALLDATALOAD PUSH8 0xFFFFFFFFFFFFFFFF DUP2 GT ISZERO PUSH2 0x312F JUMPI PUSH1 0x0 DUP1 REVERT JUMPDEST PUSH2 0x313B DUP5 DUP3 DUP6 ADD PUSH2 0x2FCD JUMP JUMPDEST SWAP2 POP POP SWAP3 SWAP2 POP POP JUMP JUMPDEST PUSH1 0x0 PUSH1 0x20 DUP3 DUP5 SUB SLT ISZERO PUSH2 0x3156 JUMPI PUSH1 0x0 DUP1 REVERT JUMPDEST PUSH1 0x0 PUSH2 0x3164 DUP5 DUP3 DUP6 ADD PUSH2 0x2FF7 JUMP JUMPDEST SWAP2 POP POP SWAP3 SWAP2 POP POP JUMP JUMPDEST PUSH1 0x0 PUSH1 0x20 DUP3 DUP5 SUB SLT ISZERO PUSH2 0x317F JUMPI PUSH1 0x0 DUP1 REVERT JUMPDEST PUSH1 0x0 DUP3 ADD CALLDATALOAD PUSH8 0xFFFFFFFFFFFFFFFF DUP2 GT ISZERO PUSH2 0x3199 JUMPI PUSH1 0x0 DUP1 REVERT JUMPDEST PUSH2 0x31A5 DUP5 DUP3 DUP6 ADD PUSH2 0x300C JUMP JUMPDEST SWAP2 POP POP SWAP3 SWAP2 POP POP JUMP JUMPDEST PUSH1 0x0 DUP1 PUSH1 0x0 DUP1 PUSH1 0x0 PUSH1 0xA0 DUP7 DUP9 SUB SLT ISZERO PUSH2 0x31C6 JUMPI PUSH1 0x0 DUP1 REVERT JUMPDEST PUSH1 0x0 DUP7 ADD CALLDATALOAD PUSH8 0xFFFFFFFFFFFFFFFF DUP2 GT ISZERO PUSH2 0x31E0 JUMPI PUSH1 0x0 DUP1 REVERT JUMPDEST PUSH2 0x31EC DUP9 DUP3 DUP10 ADD PUSH2 0x300C JUMP JUMPDEST SWAP6 POP POP PUSH1 0x20 PUSH2 0x31FD DUP9 DUP3 DUP10 ADD PUSH2 0x304B JUMP JUMPDEST SWAP5 POP POP PUSH1 0x40 DUP7 ADD CALLDATALOAD PUSH8 0xFFFFFFFFFFFFFFFF DUP2 GT ISZERO PUSH2 0x321A JUMPI PUSH1 0x0 DUP1 REVERT JUMPDEST PUSH2 0x3226 DUP9 DUP3 DUP10 ADD PUSH2 0x300C JUMP JUMPDEST SWAP4 POP POP PUSH1 0x60 DUP7 ADD CALLDATALOAD PUSH8 0xFFFFFFFFFFFFFFFF DUP2 GT ISZERO PUSH2 0x3243 JUMPI PUSH1 0x0 DUP1 REVERT JUMPDEST PUSH2 0x324F DUP9 DUP3 DUP10 ADD PUSH2 0x300C JUMP JUMPDEST SWAP3 POP POP PUSH1 0x80 DUP7 ADD CALLDATALOAD PUSH8 0xFFFFFFFFFFFFFFFF DUP2 GT ISZERO PUSH2 0x326C JUMPI PUSH1 0x0 DUP1 REVERT JUMPDEST PUSH2 0x3278 DUP9 DUP3 DUP10 ADD PUSH2 0x300C JUMP JUMPDEST SWAP2 POP POP SWAP3 SWAP6 POP SWAP3 SWAP6 SWAP1 SWAP4 POP JUMP JUMPDEST PUSH1 0x0 PUSH1 0x20 DUP3 DUP5 SUB SLT ISZERO PUSH2 0x3297 JUMPI PUSH1 0x0 DUP1 REVERT JUMPDEST PUSH1 0x0 PUSH2 0x32A5 DUP5 DUP3 DUP6 ADD PUSH2 0x3036 JUMP JUMPDEST SWAP2 POP POP SWAP3 SWAP2 POP POP JUMP JUMPDEST PUSH1 0x0 PUSH2 0x32BA DUP4 DUP4 PUSH2 0x3424 JUMP JUMPDEST PUSH1 0x40 DUP4 ADD SWAP1 POP SWAP3 SWAP2 POP POP JUMP JUMPDEST PUSH1 0x0 PUSH2 0x32D2 DUP4 DUP4 PUSH2 0x3595 JUMP JUMPDEST SWAP1 POP SWAP3 SWAP2 POP POP JUMP JUMPDEST PUSH1 0x0 PUSH2 0x32E6 DUP4 DUP4 PUSH2 0x36AA JUMP JUMPDEST PUSH1 0x20 DUP4 ADD SWAP1 POP SWAP3 SWAP2 POP POP JUMP JUMPDEST PUSH2 0x32FB DUP2 PUSH2 0x3C04 JUMP JUMPDEST DUP3 MSTORE POP POP JUMP JUMPDEST PUSH2 0x330A DUP2 PUSH2 0x39DA JUMP JUMPDEST PUSH2 0x3314 DUP2 DUP5 PUSH2 0x3A75 JUMP JUMPDEST SWAP3 POP PUSH2 0x331F DUP3 PUSH2 0x3972 JUMP JUMPDEST DUP1 PUSH1 0x0 JUMPDEST DUP4 DUP2 LT ISZERO PUSH2 0x3350 JUMPI DUP2 MLOAD PUSH2 0x3337 DUP8 DUP3 PUSH2 0x32AE JUMP JUMPDEST SWAP7 POP PUSH2 0x3342 DUP4 PUSH2 0x3A27 JUMP JUMPDEST SWAP3 POP POP PUSH1 0x1 DUP2 ADD SWAP1 POP PUSH2 0x3323 JUMP JUMPDEST POP POP POP POP POP POP JUMP JUMPDEST PUSH1 0x0 PUSH2 0x3363 DUP3 PUSH2 0x39E5 JUMP JUMPDEST PUSH2 0x336D DUP2 DUP6 PUSH2 0x3A80 JUMP JUMPDEST SWAP4 POP DUP4 PUSH1 0x20 DUP3 MUL DUP6 ADD PUSH2 0x337F DUP6 PUSH2 0x397C JUMP JUMPDEST DUP1 PUSH1 0x0 JUMPDEST DUP6 DUP2 LT ISZERO PUSH2 0x33BB JUMPI DUP5 DUP5 SUB DUP10 MSTORE DUP2 MLOAD PUSH2 0x339C DUP6 DUP3 PUSH2 0x32C6 JUMP JUMPDEST SWAP5 POP PUSH2 0x33A7 DUP4 PUSH2 0x3A34 JUMP JUMPDEST SWAP3 POP PUSH1 0x20 DUP11 ADD SWAP10 POP POP PUSH1 0x1 DUP2 ADD SWAP1 POP PUSH2 0x3383 JUMP JUMPDEST POP DUP3 SWAP8 POP DUP8 SWAP6 POP POP POP POP POP POP SWAP3 SWAP2 POP POP JUMP JUMPDEST PUSH2 0x33D6 DUP2 PUSH2 0x39F0 JUMP JUMPDEST PUSH2 0x33E0 DUP2 DUP5 PUSH2 0x3A91 JUMP JUMPDEST SWAP3 POP PUSH2 0x33EB DUP3 PUSH2 0x398C JUMP JUMPDEST DUP1 PUSH1 0x0 JUMPDEST DUP4 DUP2 LT ISZERO PUSH2 0x341C JUMPI DUP2 MLOAD PUSH2 0x3403 DUP8 DUP3 PUSH2 0x32DA JUMP JUMPDEST SWAP7 POP PUSH2 0x340E DUP4 PUSH2 0x3A41 JUMP JUMPDEST SWAP3 POP POP PUSH1 0x1 DUP2 ADD SWAP1 POP PUSH2 0x33EF JUMP JUMPDEST POP POP POP POP POP POP JUMP JUMPDEST PUSH2 0x342D DUP2 PUSH2 0x39FB JUMP JUMPDEST PUSH2 0x3437 DUP2 DUP5 PUSH2 0x3A9C JUMP JUMPDEST SWAP3 POP PUSH2 0x3442 DUP3 PUSH2 0x3996 JUMP JUMPDEST DUP1 PUSH1 0x0 JUMPDEST DUP4 DUP2 LT ISZERO PUSH2 0x3473 JUMPI DUP2 MLOAD PUSH2 0x345A DUP8 DUP3 PUSH2 0x32DA JUMP JUMPDEST SWAP7 POP PUSH2 0x3465 DUP4 PUSH2 0x3A4E JUMP JUMPDEST SWAP3 POP POP PUSH1 0x1 DUP2 ADD SWAP1 POP PUSH2 0x3446 JUMP JUMPDEST POP POP POP POP POP POP JUMP JUMPDEST PUSH2 0x3484 DUP2 PUSH2 0x39FB JUMP JUMPDEST PUSH2 0x348E DUP2 DUP5 PUSH2 0x3AA7 JUMP JUMPDEST SWAP3 POP PUSH2 0x3499 DUP3 PUSH2 0x3996 JUMP JUMPDEST DUP1 PUSH1 0x0 JUMPDEST DUP4 DUP2 LT ISZERO PUSH2 0x34CA JUMPI DUP2 MLOAD PUSH2 0x34B1 DUP8 DUP3 PUSH2 0x32DA JUMP JUMPDEST SWAP7 POP PUSH2 0x34BC DUP4 PUSH2 0x3A4E JUMP JUMPDEST SWAP3 POP POP PUSH1 0x1 DUP2 ADD SWAP1 POP PUSH2 0x349D JUMP JUMPDEST POP POP POP POP POP POP JUMP JUMPDEST PUSH1 0x0 PUSH2 0x34DD DUP3 PUSH2 0x3A06 JUMP JUMPDEST PUSH2 0x34E7 DUP2 DUP6 PUSH2 0x3AB2 JUMP JUMPDEST SWAP4 POP PUSH2 0x34F2 DUP4 PUSH2 0x39A0 JUMP JUMPDEST DUP1 PUSH1 0x0 JUMPDEST DUP4 DUP2 LT ISZERO PUSH2 0x3523 JUMPI DUP2 MLOAD PUSH2 0x350A DUP9 DUP3 PUSH2 0x32DA JUMP JUMPDEST SWAP8 POP PUSH2 0x3515 DUP4 PUSH2 0x3A5B JUMP JUMPDEST SWAP3 POP POP PUSH1 0x1 DUP2 ADD SWAP1 POP PUSH2 0x34F6 JUMP JUMPDEST POP DUP6 SWAP4 POP POP POP POP SWAP3 SWAP2 POP POP JUMP JUMPDEST PUSH1 0x0 PUSH2 0x353B DUP3 PUSH2 0x3A11 JUMP JUMPDEST PUSH2 0x3545 DUP2 DUP6 PUSH2 0x3AB2 JUMP JUMPDEST SWAP4 POP PUSH2 0x3550 DUP4 PUSH2 0x39B0 JUMP JUMPDEST DUP1 PUSH1 0x0 JUMPDEST DUP4 DUP2 LT ISZERO PUSH2 0x3588 JUMPI PUSH2 0x3565 DUP3 PUSH2 0x3E78 JUMP JUMPDEST PUSH2 0x356F DUP9 DUP3 PUSH2 0x32DA JUMP JUMPDEST SWAP8 POP PUSH2 0x357A DUP4 PUSH2 0x3A68 JUMP JUMPDEST SWAP3 POP POP PUSH1 0x1 DUP2 ADD SWAP1 POP PUSH2 0x3554 JUMP JUMPDEST POP DUP6 SWAP4 POP POP POP POP SWAP3 SWAP2 POP POP JUMP JUMPDEST PUSH1 0x0 PUSH2 0x35A0 DUP3 PUSH2 0x3A1C JUMP JUMPDEST PUSH2 0x35AA DUP2 DUP6 PUSH2 0x3AC3 JUMP JUMPDEST SWAP4 POP PUSH2 0x35BA DUP2 DUP6 PUSH1 0x20 DUP7 ADD PUSH2 0x3C68 JUMP JUMPDEST PUSH2 0x35C3 DUP2 PUSH2 0x3E8B JUMP JUMPDEST DUP5 ADD SWAP2 POP POP SWAP3 SWAP2 POP POP JUMP JUMPDEST PUSH1 0x0 PUSH2 0x35D9 DUP3 PUSH2 0x3A1C JUMP JUMPDEST PUSH2 0x35E3 DUP2 DUP6 PUSH2 0x3AD4 JUMP JUMPDEST SWAP4 POP PUSH2 0x35F3 DUP2 DUP6 PUSH1 0x20 DUP7 ADD PUSH2 0x3C68 JUMP JUMPDEST PUSH2 0x35FC DUP2 PUSH2 0x3E8B JUMP JUMPDEST DUP5 ADD SWAP2 POP POP SWAP3 SWAP2 POP POP JUMP JUMPDEST PUSH1 0x0 DUP2 SLOAD PUSH2 0x3614 DUP2 PUSH2 0x3CC5 JUMP JUMPDEST PUSH2 0x361E DUP2 DUP7 PUSH2 0x3AD4 JUMP JUMPDEST SWAP5 POP PUSH1 0x1 DUP3 AND PUSH1 0x0 DUP2 EQ PUSH2 0x3639 JUMPI PUSH1 0x1 DUP2 EQ PUSH2 0x364B JUMPI PUSH2 0x367E JUMP JUMPDEST PUSH1 0xFF NOT DUP4 AND DUP7 MSTORE PUSH1 0x20 DUP7 ADD SWAP4 POP PUSH2 0x367E JUMP JUMPDEST PUSH2 0x3654 DUP6 PUSH2 0x39C5 JUMP JUMPDEST PUSH1 0x0 JUMPDEST DUP4 DUP2 LT ISZERO PUSH2 0x3676 JUMPI DUP2 SLOAD DUP2 DUP10 ADD MSTORE PUSH1 0x1 DUP3 ADD SWAP2 POP PUSH1 0x20 DUP2 ADD SWAP1 POP PUSH2 0x3657 JUMP JUMPDEST DUP1 DUP9 ADD SWAP6 POP POP POP JUMPDEST POP POP POP SWAP3 SWAP2 POP POP JUMP JUMPDEST PUSH1 0x0 PUSH2 0x3694 PUSH1 0x28 DUP4 PUSH2 0x3AD4 JUMP JUMPDEST SWAP2 POP PUSH2 0x369F DUP3 PUSH2 0x3EA9 JUMP JUMPDEST PUSH1 0x40 DUP3 ADD SWAP1 POP SWAP2 SWAP1 POP JUMP JUMPDEST PUSH2 0x36B3 DUP2 PUSH2 0x3C42 JUMP JUMPDEST DUP3 MSTORE POP POP JUMP JUMPDEST PUSH2 0x36C2 DUP2 PUSH2 0x3C42 JUMP JUMPDEST DUP3 MSTORE POP POP JUMP JUMPDEST PUSH1 0x0 PUSH1 0x20 DUP3 ADD SWAP1 POP PUSH2 0x36DD PUSH1 0x0 DUP4 ADD DUP5 PUSH2 0x32F2 JUMP JUMPDEST SWAP3 SWAP2 POP POP JUMP JUMPDEST PUSH1 0x0 PUSH1 0x20 DUP3 ADD SWAP1 POP DUP2 DUP2 SUB PUSH1 0x0 DUP4 ADD MSTORE PUSH2 0x36FD DUP2 DUP5 PUSH2 0x3358 JUMP JUMPDEST SWAP1 POP SWAP3 SWAP2 POP POP JUMP JUMPDEST PUSH1 0x0 PUSH2 0x120 DUP3 ADD SWAP1 POP PUSH2 0x371B PUSH1 0x0 DUP4 ADD DUP8 PUSH2 0x347B JUMP JUMPDEST PUSH2 0x3728 PUSH1 0x40 DUP4 ADD DUP7 PUSH2 0x3301 JUMP JUMPDEST PUSH2 0x3735 PUSH1 0xC0 DUP4 ADD DUP6 PUSH2 0x347B JUMP JUMPDEST PUSH2 0x3743 PUSH2 0x100 DUP4 ADD DUP5 PUSH2 0x33CD JUMP JUMPDEST SWAP6 SWAP5 POP POP POP POP POP JUMP JUMPDEST PUSH1 0x0 PUSH1 0x20 DUP3 ADD SWAP1 POP DUP2 DUP2 SUB PUSH1 0x0 DUP4 ADD MSTORE PUSH2 0x3766 DUP2 DUP5 PUSH2 0x35CE JUMP JUMPDEST SWAP1 POP SWAP3 SWAP2 POP POP JUMP JUMPDEST PUSH1 0x0 PUSH1 0x20 DUP3 ADD SWAP1 POP DUP2 DUP2 SUB PUSH1 0x0 DUP4 ADD MSTORE PUSH2 0x3788 DUP2 DUP5 PUSH2 0x3607 JUMP JUMPDEST SWAP1 POP SWAP3 SWAP2 POP POP JUMP JUMPDEST PUSH1 0x0 PUSH1 0x40 DUP3 ADD SWAP1 POP DUP2 DUP2 SUB PUSH1 0x0 DUP4 ADD MSTORE PUSH2 0x37AA DUP2 DUP6 PUSH2 0x3607 JUMP JUMPDEST SWAP1 POP PUSH2 0x37B9 PUSH1 0x20 DUP4 ADD DUP5 PUSH2 0x32F2 JUMP JUMPDEST SWAP4 SWAP3 POP POP POP JUMP JUMPDEST PUSH1 0x0 PUSH1 0x40 DUP3 ADD SWAP1 POP DUP2 DUP2 SUB PUSH1 0x0 DUP4 ADD MSTORE PUSH2 0x37DA DUP2 DUP6 PUSH2 0x3607 JUMP JUMPDEST SWAP1 POP DUP2 DUP2 SUB PUSH1 0x20 DUP4 ADD MSTORE PUSH2 0x37EE DUP2 DUP5 PUSH2 0x3530 JUMP JUMPDEST SWAP1 POP SWAP4 SWAP3 POP POP POP JUMP JUMPDEST PUSH1 0x0 PUSH1 0x20 DUP3 ADD SWAP1 POP DUP2 DUP2 SUB PUSH1 0x0 DUP4 ADD MSTORE PUSH2 0x3810 DUP2 PUSH2 0x3687 JUMP JUMPDEST SWAP1 POP SWAP2 SWAP1 POP JUMP JUMPDEST PUSH1 0x0 PUSH1 0x20 DUP3 ADD SWAP1 POP PUSH2 0x382C PUSH1 0x0 DUP4 ADD DUP5 PUSH2 0x36B9 JUMP JUMPDEST SWAP3 SWAP2 POP POP JUMP JUMPDEST PUSH1 0x0 PUSH1 0x80 DUP3 ADD SWAP1 POP PUSH2 0x3847 PUSH1 0x0 DUP4 ADD DUP8 PUSH2 0x36B9 JUMP JUMPDEST PUSH2 0x3854 PUSH1 0x20 DUP4 ADD DUP7 PUSH2 0x36B9 JUMP JUMPDEST DUP2 DUP2 SUB PUSH1 0x40 DUP4 ADD MSTORE PUSH2 0x3866 DUP2 DUP6 PUSH2 0x34D2 JUMP JUMPDEST SWAP1 POP PUSH2 0x3875 PUSH1 0x60 DUP4 ADD DUP5 PUSH2 0x36B9 JUMP JUMPDEST SWAP6 SWAP5 POP POP POP POP POP JUMP JUMPDEST PUSH1 0x0 PUSH2 0x3888 PUSH2 0x3899 JUMP JUMPDEST SWAP1 POP PUSH2 0x3894 DUP3 DUP3 PUSH2 0x3D11 JUMP JUMPDEST SWAP2 SWAP1 POP JUMP JUMPDEST PUSH1 0x0 PUSH1 0x40 MLOAD SWAP1 POP SWAP1 JUMP JUMPDEST PUSH1 0x0 PUSH8 0xFFFFFFFFFFFFFFFF DUP3 GT ISZERO PUSH2 0x38BE JUMPI PUSH2 0x38BD PUSH2 0x3E49 JUMP JUMPDEST JUMPDEST PUSH1 0x20 DUP3 MUL SWAP1 POP SWAP2 SWAP1 POP JUMP JUMPDEST PUSH1 0x0 PUSH8 0xFFFFFFFFFFFFFFFF DUP3 GT ISZERO PUSH2 0x38E4 JUMPI PUSH2 0x38E3 PUSH2 0x3E49 JUMP JUMPDEST JUMPDEST PUSH1 0x20 DUP3 MUL SWAP1 POP SWAP2 SWAP1 POP JUMP JUMPDEST PUSH1 0x0 PUSH8 0xFFFFFFFFFFFFFFFF DUP3 GT ISZERO PUSH2 0x390A JUMPI PUSH2 0x3909 PUSH2 0x3E49 JUMP JUMPDEST JUMPDEST PUSH1 0x20 DUP3 MUL SWAP1 POP SWAP2 SWAP1 POP JUMP JUMPDEST PUSH1 0x0 PUSH8 0xFFFFFFFFFFFFFFFF DUP3 GT ISZERO PUSH2 0x3930 JUMPI PUSH2 0x392F PUSH2 0x3E49 JUMP JUMPDEST JUMPDEST PUSH1 0x20 DUP3 MUL SWAP1 POP PUSH1 0x20 DUP2 ADD SWAP1 POP SWAP2 SWAP1 POP JUMP JUMPDEST PUSH1 0x0 PUSH8 0xFFFFFFFFFFFFFFFF DUP3 GT ISZERO PUSH2 0x395C JUMPI PUSH2 0x395B PUSH2 0x3E49 JUMP JUMPDEST JUMPDEST PUSH2 0x3965 DUP3 PUSH2 0x3E8B JUMP JUMPDEST SWAP1 POP PUSH1 0x20 DUP2 ADD SWAP1 POP SWAP2 SWAP1 POP JUMP JUMPDEST PUSH1 0x0 DUP2 SWAP1 POP SWAP2 SWAP1 POP JUMP JUMPDEST PUSH1 0x0 DUP2 SWAP1 POP PUSH1 0x20 DUP3 ADD SWAP1 POP SWAP2 SWAP1 POP JUMP JUMPDEST PUSH1 0x0 DUP2 SWAP1 POP SWAP2 SWAP1 POP JUMP JUMPDEST PUSH1 0x0 DUP2 SWAP1 POP SWAP2 SWAP1 POP JUMP JUMPDEST PUSH1 0x0 DUP2 SWAP1 POP PUSH1 0x20 DUP3 ADD SWAP1 POP SWAP2 SWAP1 POP JUMP JUMPDEST PUSH1 0x0 DUP2 SWAP1 POP DUP2 PUSH1 0x0 MSTORE PUSH1 0x20 PUSH1 0x0 KECCAK256 SWAP1 POP SWAP2 SWAP1 POP JUMP JUMPDEST PUSH1 0x0 DUP2 SWAP1 POP DUP2 PUSH1 0x0 MSTORE PUSH1 0x20 PUSH1 0x0 KECCAK256 SWAP1 POP SWAP2 SWAP1 POP JUMP JUMPDEST PUSH1 0x0 PUSH1 0x2 SWAP1 POP SWAP2 SWAP1 POP JUMP JUMPDEST PUSH1 0x0 DUP2 MLOAD SWAP1 POP SWAP2 SWAP1 POP JUMP JUMPDEST PUSH1 0x0 PUSH1 0x1 SWAP1 POP SWAP2 SWAP1 POP JUMP JUMPDEST PUSH1 0x0 PUSH1 0x2 SWAP1 POP SWAP2 SWAP1 POP JUMP JUMPDEST PUSH1 0x0 DUP2 MLOAD SWAP1 POP SWAP2 SWAP1 POP JUMP JUMPDEST PUSH1 0x0 DUP2 SLOAD SWAP1 POP SWAP2 SWAP1 POP JUMP JUMPDEST PUSH1 0x0 DUP2 MLOAD SWAP1 POP SWAP2 SWAP1 POP JUMP JUMPDEST PUSH1 0x0 PUSH1 0x20 DUP3 ADD SWAP1 POP SWAP2 SWAP1 POP JUMP JUMPDEST PUSH1 0x0 PUSH1 0x20 DUP3 ADD SWAP1 POP SWAP2 SWAP1 POP JUMP JUMPDEST PUSH1 0x0 PUSH1 0x20 DUP3 ADD SWAP1 POP SWAP2 SWAP1 POP JUMP JUMPDEST PUSH1 0x0 PUSH1 0x20 DUP3 ADD SWAP1 POP SWAP2 SWAP1 POP JUMP JUMPDEST PUSH1 0x0 PUSH1 0x20 DUP3 ADD SWAP1 POP SWAP2 SWAP1 POP JUMP JUMPDEST PUSH1 0x0 PUSH1 0x1 DUP3 ADD SWAP1 POP SWAP2 SWAP1 POP JUMP JUMPDEST PUSH1 0x0 DUP2 SWAP1 POP SWAP3 SWAP2 POP POP JUMP JUMPDEST PUSH1 0x0 DUP3 DUP3 MSTORE PUSH1 0x20 DUP3 ADD SWAP1 POP SWAP3 SWAP2 POP POP JUMP JUMPDEST PUSH1 0x0 DUP2 SWAP1 POP SWAP3 SWAP2 POP POP JUMP JUMPDEST PUSH1 0x0 DUP2 SWAP1 POP SWAP3 SWAP2 POP POP JUMP JUMPDEST PUSH1 0x0 DUP2 SWAP1 POP SWAP3 SWAP2 POP POP JUMP JUMPDEST PUSH1 0x0 DUP3 DUP3 MSTORE PUSH1 0x20 DUP3 ADD SWAP1 POP SWAP3 SWAP2 POP POP JUMP JUMPDEST PUSH1 0x0 DUP3 DUP3 MSTORE PUSH1 0x20 DUP3 ADD SWAP1 POP SWAP3 SWAP2 POP POP JUMP JUMPDEST PUSH1 0x0 DUP3 DUP3 MSTORE PUSH1 0x20 DUP3 ADD SWAP1 POP SWAP3 SWAP2 POP POP JUMP JUMPDEST PUSH1 0x0 PUSH2 0x3AF0 DUP3 PUSH2 0x3C42 JUMP JUMPDEST SWAP2 POP PUSH2 0x3AFB DUP4 PUSH2 0x3C42 JUMP JUMPDEST SWAP3 POP DUP3 PUSH32 0xFFFFFFFFFFFFFFFFFFFFFFFFFFFFFFFFFFFFFFFFFFFFFFFFFFFFFFFFFFFFFFFF SUB DUP3 GT ISZERO PUSH2 0x3B30 JUMPI PUSH2 0x3B2F PUSH2 0x3DBC JUMP JUMPDEST JUMPDEST DUP3 DUP3 ADD SWAP1 POP SWAP3 SWAP2 POP POP JUMP JUMPDEST PUSH1 0x0 PUSH2 0x3B46 DUP3 PUSH2 0x3C42 JUMP JUMPDEST SWAP2 POP PUSH2 0x3B51 DUP4 PUSH2 0x3C42 JUMP JUMPDEST SWAP3 POP DUP3 PUSH2 0x3B61 JUMPI PUSH2 0x3B60 PUSH2 0x3DEB JUMP JUMPDEST JUMPDEST DUP3 DUP3 DIV SWAP1 POP SWAP3 SWAP2 POP POP JUMP JUMPDEST PUSH1 0x0 PUSH2 0x3B77 DUP3 PUSH2 0x3C42 JUMP JUMPDEST SWAP2 POP PUSH2 0x3B82 DUP4 PUSH2 0x3C42 JUMP JUMPDEST SWAP3 POP DUP2 PUSH32 0xFFFFFFFFFFFFFFFFFFFFFFFFFFFFFFFFFFFFFFFFFFFFFFFFFFFFFFFFFFFFFFFF DIV DUP4 GT DUP3 ISZERO ISZERO AND ISZERO PUSH2 0x3BBB JUMPI PUSH2 0x3BBA PUSH2 0x3DBC JUMP JUMPDEST JUMPDEST DUP3 DUP3 MUL SWAP1 POP SWAP3 SWAP2 POP POP JUMP JUMPDEST PUSH1 0x0 PUSH2 0x3BD1 DUP3 PUSH2 0x3C42 JUMP JUMPDEST SWAP2 POP PUSH2 0x3BDC DUP4 PUSH2 0x3C42 JUMP JUMPDEST SWAP3 POP DUP3 DUP3 LT ISZERO PUSH2 0x3BEF JUMPI PUSH2 0x3BEE PUSH2 0x3DBC JUMP JUMPDEST JUMPDEST DUP3 DUP3 SUB SWAP1 POP SWAP3 SWAP2 POP POP JUMP JUMPDEST PUSH1 0x0 DUP2 SWAP1 POP SWAP2 SWAP1 POP JUMP JUMPDEST PUSH1 0x0 PUSH2 0x3C0F DUP3 PUSH2 0x3C22 JUMP JUMPDEST SWAP1 POP SWAP2 SWAP1 POP JUMP JUMPDEST PUSH1 0x0 DUP2 ISZERO ISZERO SWAP1 POP SWAP2 SWAP1 POP JUMP JUMPDEST PUSH1 0x0 PUSH20 0xFFFFFFFFFFFFFFFFFFFFFFFFFFFFFFFFFFFFFFFF DUP3 AND SWAP1 POP SWAP2 SWAP1 POP JUMP JUMPDEST PUSH1 0x0 DUP2 SWAP1 POP SWAP2 SWAP1 POP JUMP JUMPDEST PUSH1 0x0 PUSH1 0xFF DUP3 AND SWAP1 POP SWAP2 SWAP1 POP JUMP JUMPDEST DUP3 DUP2 DUP4 CALLDATACOPY PUSH1 0x0 DUP4 DUP4 ADD MSTORE POP POP POP JUMP JUMPDEST PUSH1 0x0 JUMPDEST DUP4 DUP2 LT ISZERO PUSH2 0x3C86 JUMPI DUP1 DUP3 ADD MLOAD DUP2 DUP5 ADD MSTORE PUSH1 0x20 DUP2 ADD SWAP1 POP PUSH2 0x3C6B JUMP JUMPDEST DUP4 DUP2 GT ISZERO PUSH2 0x3C95 JUMPI PUSH1 0x0 DUP5 DUP5 ADD MSTORE JUMPDEST POP POP POP POP JUMP JUMPDEST PUSH1 0x0 PUSH2 0x3CA6 DUP3 PUSH2 0x3C42 JUMP JUMPDEST SWAP2 POP PUSH1 0x0 DUP3 EQ ISZERO PUSH2 0x3CBA JUMPI PUSH2 0x3CB9 PUSH2 0x3DBC JUMP JUMPDEST JUMPDEST PUSH1 0x1 DUP3 SUB SWAP1 POP SWAP2 SWAP1 POP JUMP JUMPDEST PUSH1 0x0 PUSH1 0x2 DUP3 DIV SWAP1 POP PUSH1 0x1 DUP3 AND DUP1 PUSH2 0x3CDD JUMPI PUSH1 0x7F DUP3 AND SWAP2 POP JUMPDEST PUSH1 0x20 DUP3 LT DUP2 EQ ISZERO PUSH2 0x3CF1 JUMPI PUSH2 0x3CF0 PUSH2 0x3E1A JUMP JUMPDEST JUMPDEST POP SWAP2 SWAP1 POP JUMP JUMPDEST PUSH1 0x0 PUSH2 0x3D0A PUSH2 0x3D05 DUP4 PUSH2 0x3E9C JUMP JUMPDEST PUSH2 0x3BFA JUMP JUMPDEST SWAP1 POP SWAP2 SWAP1 POP JUMP JUMPDEST PUSH2 0x3D1A DUP3 PUSH2 0x3E8B JUMP JUMPDEST DUP2 ADD DUP2 DUP2 LT PUSH8 0xFFFFFFFFFFFFFFFF DUP3 GT OR ISZERO PUSH2 0x3D39 JUMPI PUSH2 0x3D38 PUSH2 0x3E49 JUMP JUMPDEST JUMPDEST DUP1 PUSH1 0x40 MSTORE POP POP POP JUMP JUMPDEST PUSH1 0x0 PUSH2 0x3D4D DUP3 PUSH2 0x3C42 JUMP JUMPDEST SWAP2 POP PUSH32 0xFFFFFFFFFFFFFFFFFFFFFFFFFFFFFFFFFFFFFFFFFFFFFFFFFFFFFFFFFFFFFFFF DUP3 EQ ISZERO PUSH2 0x3D80 JUMPI PUSH2 0x3D7F PUSH2 0x3DBC JUMP JUMPDEST JUMPDEST PUSH1 0x1 DUP3 ADD SWAP1 POP SWAP2 SWAP1 POP JUMP JUMPDEST PUSH1 0x0 PUSH2 0x3D96 DUP3 PUSH2 0x3C42 JUMP JUMPDEST SWAP2 POP PUSH2 0x3DA1 DUP4 PUSH2 0x3C42 JUMP JUMPDEST SWAP3 POP DUP3 PUSH2 0x3DB1 JUMPI PUSH2 0x3DB0 PUSH2 0x3DEB JUMP JUMPDEST JUMPDEST DUP3 DUP3 MOD SWAP1 POP SWAP3 SWAP2 POP POP JUMP JUMPDEST PUSH32 0x4E487B7100000000000000000000000000000000000000000000000000000000 PUSH1 0x0 MSTORE PUSH1 0x11 PUSH1 0x4 MSTORE PUSH1 0x24 PUSH1 0x0 REVERT JUMPDEST PUSH32 0x4E487B7100000000000000000000000000000000000000000000000000000000 PUSH1 0x0 MSTORE PUSH1 0x12 PUSH1 0x4 MSTORE PUSH1 0x24 PUSH1 0x0 REVERT JUMPDEST PUSH32 0x4E487B7100000000000000000000000000000000000000000000000000000000 PUSH1 0x0 MSTORE PUSH1 0x22 PUSH1 0x4 MSTORE PUSH1 0x24 PUSH1 0x0 REVERT JUMPDEST PUSH32 0x4E487B7100000000000000000000000000000000000000000000000000000000 PUSH1 0x0 MSTORE PUSH1 0x41 PUSH1 0x4 MSTORE PUSH1 0x24 PUSH1 0x0 REVERT JUMPDEST PUSH1 0x0 PUSH2 0x3E84 DUP3 SLOAD PUSH2 0x3CF7 JUMP JUMPDEST SWAP1 POP SWAP2 SWAP1 POP JUMP JUMPDEST PUSH1 0x0 PUSH1 0x1F NOT PUSH1 0x1F DUP4 ADD AND SWAP1 POP SWAP2 SWAP1 POP JUMP JUMPDEST PUSH1 0x0 DUP2 PUSH1 0x0 SHR SWAP1 POP SWAP2 SWAP1 POP JUMP JUMPDEST PUSH32 0x546865206F776E657220646964206E6F7420617574686F72697A6520796F7520 PUSH1 0x0 DUP3 ADD MSTORE PUSH32 0x746F20766F74652E000000000000000000000000000000000000000000000000 PUSH1 0x20 DUP3 ADD MSTORE POP JUMP JUMPDEST PUSH2 0x3F01 DUP2 PUSH2 0x3C04 JUMP JUMPDEST DUP2 EQ PUSH2 0x3F0C JUMPI PUSH1 0x0 DUP1 REVERT JUMPDEST POP JUMP JUMPDEST PUSH2 0x3F18 DUP2 PUSH2 0x3C16 JUMP JUMPDEST DUP2 EQ PUSH2 0x3F23 JUMPI PUSH1 0x0 DUP1 REVERT JUMPDEST POP JUMP JUMPDEST PUSH2 0x3F2F DUP2 PUSH2 0x3C42 JUMP JUMPDEST DUP2 EQ PUSH2 0x3F3A JUMPI PUSH1 0x0 DUP1 REVERT JUMPDEST POP JUMP JUMPDEST PUSH2 0x3F46 DUP2 PUSH2 0x3C4C JUMP JUMPDEST DUP2 EQ PUSH2 0x3F51 JUMPI PUSH1 0x0 DUP1 REVERT JUMPDEST POP JUMP INVALID PUSH1 0x80 PUSH1 0x40 MSTORE CALLVALUE DUP1 ISZERO PUSH2 0x10 JUMPI PUSH1 0x0 DUP1 REVERT JUMPDEST POP PUSH2 0x1ED7 DUP1 PUSH2 0x20 PUSH1 0x0 CODECOPY PUSH1 0x0 RETURN INVALID PUSH1 0x80 PUSH1 0x40 MSTORE CALLVALUE DUP1 ISZERO PUSH2 0x10 JUMPI PUSH1 0x0 DUP1 REVERT JUMPDEST POP PUSH1 0x4 CALLDATASIZE LT PUSH2 0x2B JUMPI PUSH1 0x0 CALLDATALOAD PUSH1 0xE0 SHR DUP1 PUSH4 0xDD129313 EQ PUSH2 0x30 JUMPI JUMPDEST PUSH1 0x0 DUP1 REVERT JUMPDEST PUSH2 0x4A PUSH1 0x4 DUP1 CALLDATASIZE SUB DUP2 ADD SWAP1 PUSH2 0x45 SWAP2 SWAP1 PUSH2 0x1B21 JUMP JUMPDEST PUSH2 0x60 JUMP JUMPDEST PUSH1 0x40 MLOAD PUSH2 0x57 SWAP2 SWAP1 PUSH2 0x1B95 JUMP JUMPDEST PUSH1 0x40 MLOAD DUP1 SWAP2 SUB SWAP1 RETURN JUMPDEST PUSH1 0x0 PUSH2 0x6A PUSH2 0x182C JUMP JUMPDEST PUSH1 0x40 MLOAD DUP1 PUSH1 0x40 ADD PUSH1 0x40 MSTORE DUP1 DUP8 PUSH1 0x0 PUSH1 0x2 DUP2 LT PUSH2 0xAF JUMPI PUSH32 0x4E487B7100000000000000000000000000000000000000000000000000000000 PUSH1 0x0 MSTORE PUSH1 0x32 PUSH1 0x4 MSTORE PUSH1 0x24 PUSH1 0x0 REVERT JUMPDEST PUSH1 0x20 MUL ADD MLOAD DUP2 MSTORE PUSH1 0x20 ADD DUP8 PUSH1 0x1 PUSH1 0x2 DUP2 LT PUSH2 0xF3 JUMPI PUSH32 0x4E487B7100000000000000000000000000000000000000000000000000000000 PUSH1 0x0 MSTORE PUSH1 0x32 PUSH1 0x4 MSTORE PUSH1 0x24 PUSH1 0x0 REVERT JUMPDEST PUSH1 0x20 MUL ADD MLOAD DUP2 MSTORE POP DUP2 PUSH1 0x0 ADD DUP2 SWAP1 MSTORE POP PUSH1 0x40 MLOAD DUP1 PUSH1 0x40 ADD PUSH1 0x40 MSTORE DUP1 PUSH1 0x40 MLOAD DUP1 PUSH1 0x40 ADD PUSH1 0x40 MSTORE DUP1 DUP9 PUSH1 0x0 PUSH1 0x2 DUP2 LT PUSH2 0x153 JUMPI PUSH32 0x4E487B7100000000000000000000000000000000000000000000000000000000 PUSH1 0x0 MSTORE PUSH1 0x32 PUSH1 0x4 MSTORE PUSH1 0x24 PUSH1 0x0 REVERT JUMPDEST PUSH1 0x20 MUL ADD MLOAD PUSH1 0x0 PUSH1 0x2 DUP2 LT PUSH2 0x191 JUMPI PUSH32 0x4E487B7100000000000000000000000000000000000000000000000000000000 PUSH1 0x0 MSTORE PUSH1 0x32 PUSH1 0x4 MSTORE PUSH1 0x24 PUSH1 0x0 REVERT JUMPDEST PUSH1 0x20 MUL ADD MLOAD DUP2 MSTORE PUSH1 0x20 ADD DUP9 PUSH1 0x0 PUSH1 0x2 DUP2 LT PUSH2 0x1D5 JUMPI PUSH32 0x4E487B7100000000000000000000000000000000000000000000000000000000 PUSH1 0x0 MSTORE PUSH1 0x32 PUSH1 0x4 MSTORE PUSH1 0x24 PUSH1 0x0 REVERT JUMPDEST PUSH1 0x20 MUL ADD MLOAD PUSH1 0x1 PUSH1 0x2 DUP2 LT PUSH2 0x213 JUMPI PUSH32 0x4E487B7100000000000000000000000000000000000000000000000000000000 PUSH1 0x0 MSTORE PUSH1 0x32 PUSH1 0x4 MSTORE PUSH1 0x24 PUSH1 0x0 REVERT JUMPDEST PUSH1 0x20 MUL ADD MLOAD DUP2 MSTORE POP DUP2 MSTORE PUSH1 0x20 ADD PUSH1 0x40 MLOAD DUP1 PUSH1 0x40 ADD PUSH1 0x40 MSTORE DUP1 DUP9 PUSH1 0x1 PUSH1 0x2 DUP2 LT PUSH2 0x265 JUMPI PUSH32 0x4E487B7100000000000000000000000000000000000000000000000000000000 PUSH1 0x0 MSTORE PUSH1 0x32 PUSH1 0x4 MSTORE PUSH1 0x24 PUSH1 0x0 REVERT JUMPDEST PUSH1 0x20 MUL ADD MLOAD PUSH1 0x0 PUSH1 0x2 DUP2 LT PUSH2 0x2A3 JUMPI PUSH32 0x4E487B7100000000000000000000000000000000000000000000000000000000 PUSH1 0x0 MSTORE PUSH1 0x32 PUSH1 0x4 MSTORE PUSH1 0x24 PUSH1 0x0 REVERT JUMPDEST PUSH1 0x20 MUL ADD MLOAD DUP2 MSTORE PUSH1 0x20 ADD DUP9 PUSH1 0x1 PUSH1 0x2 DUP2 LT PUSH2 0x2E7 JUMPI PUSH32 0x4E487B7100000000000000000000000000000000000000000000000000000000 PUSH1 0x0 MSTORE PUSH1 0x32 PUSH1 0x4 MSTORE PUSH1 0x24 PUSH1 0x0 REVERT JUMPDEST PUSH1 0x20 MUL ADD MLOAD PUSH1 0x1 PUSH1 0x2 DUP2 LT PUSH2 0x325 JUMPI PUSH32 0x4E487B7100000000000000000000000000000000000000000000000000000000 PUSH1 0x0 MSTORE PUSH1 0x32 PUSH1 0x4 MSTORE PUSH1 0x24 PUSH1 0x0 REVERT JUMPDEST PUSH1 0x20 MUL ADD MLOAD DUP2 MSTORE POP DUP2 MSTORE POP DUP2 PUSH1 0x20 ADD DUP2 SWAP1 MSTORE POP PUSH1 0x40 MLOAD DUP1 PUSH1 0x40 ADD PUSH1 0x40 MSTORE DUP1 DUP6 PUSH1 0x0 PUSH1 0x2 DUP2 LT PUSH2 0x37D JUMPI PUSH32 0x4E487B7100000000000000000000000000000000000000000000000000000000 PUSH1 0x0 MSTORE PUSH1 0x32 PUSH1 0x4 MSTORE PUSH1 0x24 PUSH1 0x0 REVERT JUMPDEST PUSH1 0x20 MUL ADD MLOAD DUP2 MSTORE PUSH1 0x20 ADD DUP6 PUSH1 0x1 PUSH1 0x2 DUP2 LT PUSH2 0x3C1 JUMPI PUSH32 0x4E487B7100000000000000000000000000000000000000000000000000000000 PUSH1 0x0 MSTORE PUSH1 0x32 PUSH1 0x4 MSTORE PUSH1 0x24 PUSH1 0x0 REVERT JUMPDEST PUSH1 0x20 MUL ADD MLOAD DUP2 MSTORE POP DUP2 PUSH1 0x40 ADD DUP2 SWAP1 MSTORE POP PUSH1 0x0 PUSH1 0x1 PUSH8 0xFFFFFFFFFFFFFFFF DUP2 GT ISZERO PUSH2 0x414 JUMPI PUSH32 0x4E487B7100000000000000000000000000000000000000000000000000000000 PUSH1 0x0 MSTORE PUSH1 0x41 PUSH1 0x4 MSTORE PUSH1 0x24 PUSH1 0x0 REVERT JUMPDEST PUSH1 0x40 MLOAD SWAP1 DUP1 DUP3 MSTORE DUP1 PUSH1 0x20 MUL PUSH1 0x20 ADD DUP3 ADD PUSH1 0x40 MSTORE DUP1 ISZERO PUSH2 0x442 JUMPI DUP2 PUSH1 0x20 ADD PUSH1 0x20 DUP3 MUL DUP1 CALLDATASIZE DUP4 CALLDATACOPY DUP1 DUP3 ADD SWAP2 POP POP SWAP1 POP JUMPDEST POP SWAP1 POP PUSH1 0x0 JUMPDEST PUSH1 0x1 DUP2 LT ISZERO PUSH2 0x4E7 JUMPI DUP5 DUP2 PUSH1 0x1 DUP2 LT PUSH2 0x48A JUMPI PUSH32 0x4E487B7100000000000000000000000000000000000000000000000000000000 PUSH1 0x0 MSTORE PUSH1 0x32 PUSH1 0x4 MSTORE PUSH1 0x24 PUSH1 0x0 REVERT JUMPDEST PUSH1 0x20 MUL ADD MLOAD DUP3 DUP3 DUP2 MLOAD DUP2 LT PUSH2 0x4C8 JUMPI PUSH32 0x4E487B7100000000000000000000000000000000000000000000000000000000 PUSH1 0x0 MSTORE PUSH1 0x32 PUSH1 0x4 MSTORE PUSH1 0x24 PUSH1 0x0 REVERT JUMPDEST PUSH1 0x20 MUL PUSH1 0x20 ADD ADD DUP2 DUP2 MSTORE POP POP DUP1 DUP1 PUSH2 0x4DF SWAP1 PUSH2 0x1D72 JUMP JUMPDEST SWAP2 POP POP PUSH2 0x448 JUMP JUMPDEST POP PUSH1 0x0 PUSH2 0x4F4 DUP3 DUP5 PUSH2 0x514 JUMP JUMPDEST EQ ISZERO PUSH2 0x505 JUMPI PUSH1 0x1 SWAP3 POP POP POP PUSH2 0x50C JUMP JUMPDEST PUSH1 0x0 SWAP3 POP POP POP JUMPDEST SWAP5 SWAP4 POP POP POP POP JUMP JUMPDEST PUSH1 0x0 DUP1 PUSH32 0x30644E72E131A029B85045B68181585D2833E84879B9709143E1F593F0000001 SWAP1 POP PUSH1 0x0 PUSH2 0x544 PUSH2 0x743 JUMP JUMPDEST SWAP1 POP DUP1 PUSH1 0x80 ADD MLOAD MLOAD PUSH1 0x1 DUP7 MLOAD PUSH2 0x55A SWAP2 SWAP1 PUSH2 0x1C47 JUMP JUMPDEST EQ PUSH2 0x564 JUMPI PUSH1 0x0 DUP1 REVERT JUMPDEST PUSH1 0x0 PUSH1 0x40 MLOAD DUP1 PUSH1 0x40 ADD PUSH1 0x40 MSTORE DUP1 PUSH1 0x0 DUP2 MSTORE PUSH1 0x20 ADD PUSH1 0x0 DUP2 MSTORE POP SWAP1 POP PUSH1 0x0 JUMPDEST DUP7 MLOAD DUP2 LT ISZERO PUSH2 0x68F JUMPI DUP4 DUP8 DUP3 DUP2 MLOAD DUP2 LT PUSH2 0x5C5 JUMPI PUSH32 0x4E487B7100000000000000000000000000000000000000000000000000000000 PUSH1 0x0 MSTORE PUSH1 0x32 PUSH1 0x4 MSTORE PUSH1 0x24 PUSH1 0x0 REVERT JUMPDEST PUSH1 0x20 MUL PUSH1 0x20 ADD ADD MLOAD LT PUSH2 0x5D7 JUMPI PUSH1 0x0 DUP1 REVERT JUMPDEST PUSH2 0x67A DUP3 PUSH2 0x675 DUP6 PUSH1 0x80 ADD MLOAD PUSH1 0x1 DUP6 PUSH2 0x5F0 SWAP2 SWAP1 PUSH2 0x1C47 JUMP JUMPDEST DUP2 MLOAD DUP2 LT PUSH2 0x627 JUMPI PUSH32 0x4E487B7100000000000000000000000000000000000000000000000000000000 PUSH1 0x0 MSTORE PUSH1 0x32 PUSH1 0x4 MSTORE PUSH1 0x24 PUSH1 0x0 REVERT JUMPDEST PUSH1 0x20 MUL PUSH1 0x20 ADD ADD MLOAD DUP11 DUP6 DUP2 MLOAD DUP2 LT PUSH2 0x668 JUMPI PUSH32 0x4E487B7100000000000000000000000000000000000000000000000000000000 PUSH1 0x0 MSTORE PUSH1 0x32 PUSH1 0x4 MSTORE PUSH1 0x24 PUSH1 0x0 REVERT JUMPDEST PUSH1 0x20 MUL PUSH1 0x20 ADD ADD MLOAD PUSH2 0xBB9 JUMP JUMPDEST PUSH2 0xCD2 JUMP JUMPDEST SWAP2 POP DUP1 DUP1 PUSH2 0x687 SWAP1 PUSH2 0x1D72 JUMP JUMPDEST SWAP2 POP POP PUSH2 0x582 JUMP JUMPDEST POP PUSH2 0x6DF DUP2 DUP4 PUSH1 0x80 ADD MLOAD PUSH1 0x0 DUP2 MLOAD DUP2 LT PUSH2 0x6D2 JUMPI PUSH32 0x4E487B7100000000000000000000000000000000000000000000000000000000 PUSH1 0x0 MSTORE PUSH1 0x32 PUSH1 0x4 MSTORE PUSH1 0x24 PUSH1 0x0 REVERT JUMPDEST PUSH1 0x20 MUL PUSH1 0x20 ADD ADD MLOAD PUSH2 0xCD2 JUMP JUMPDEST SWAP1 POP PUSH2 0x725 DUP6 PUSH1 0x0 ADD MLOAD DUP7 PUSH1 0x20 ADD MLOAD PUSH2 0x6F7 DUP5 PUSH2 0xE37 JUMP JUMPDEST DUP6 PUSH1 0x40 ADD MLOAD PUSH2 0x709 DUP11 PUSH1 0x40 ADD MLOAD PUSH2 0xE37 JUMP JUMPDEST DUP8 PUSH1 0x60 ADD MLOAD PUSH2 0x71B DUP10 PUSH1 0x0 ADD MLOAD PUSH2 0xE37 JUMP JUMPDEST DUP10 PUSH1 0x20 ADD MLOAD PUSH2 0xEDC JUMP JUMPDEST PUSH2 0x735 JUMPI PUSH1 0x1 SWAP4 POP POP POP POP PUSH2 0x73D JUMP JUMPDEST PUSH1 0x0 SWAP4 POP POP POP POP JUMPDEST SWAP3 SWAP2 POP POP JUMP JUMPDEST PUSH2 0x74B PUSH2 0x185F JUMP JUMPDEST PUSH1 0x40 MLOAD DUP1 PUSH1 0x40 ADD PUSH1 0x40 MSTORE DUP1 PUSH32 0x13D0948D7BAC37115FFE695B1BEC816562E8AD9EBE85E48FBB4ACDEAC1CA7F0F DUP2 MSTORE PUSH1 0x20 ADD PUSH32 0xF6345E1D9D912E72C27BC5CD72968953C5D5D60B61CB0928292B690EE2A32E8 DUP2 MSTORE POP DUP2 PUSH1 0x0 ADD DUP2 SWAP1 MSTORE POP PUSH1 0x40 MLOAD DUP1 PUSH1 0x40 ADD PUSH1 0x40 MSTORE DUP1 PUSH1 0x40 MLOAD DUP1 PUSH1 0x40 ADD PUSH1 0x40 MSTORE DUP1 PUSH32 0x246D1AC05DD25736AD52F89E0DFC15B256C05B88C47D1B89D92E3465CED7D68E DUP2 MSTORE PUSH1 0x20 ADD PUSH32 0x1F5FDD7BA77A5E62CC3118CAE2DC1D08E3BEB077ED8678D3C795C88ACBABF0DC DUP2 MSTORE POP DUP2 MSTORE PUSH1 0x20 ADD PUSH1 0x40 MLOAD DUP1 PUSH1 0x40 ADD PUSH1 0x40 MSTORE DUP1 PUSH32 0x3D84CED94D63664D79169901C1E647DD3DBD13E7A835EAB55A430DF6E3CFD23 DUP2 MSTORE PUSH1 0x20 ADD PUSH32 0x2F8B8D95AB5486766D36363D74A6CA3827A0E85E7A164AA685FB48851679FE9A DUP2 MSTORE POP DUP2 MSTORE POP DUP2 PUSH1 0x20 ADD DUP2 SWAP1 MSTORE POP PUSH1 0x40 MLOAD DUP1 PUSH1 0x40 ADD PUSH1 0x40 MSTORE DUP1 PUSH1 0x40 MLOAD DUP1 PUSH1 0x40 ADD PUSH1 0x40 MSTORE DUP1 PUSH32 0xE052453FF1E8F2BB909B58DC416BE22424339545D1D90C62ACE5F07E4C85157 DUP2 MSTORE PUSH1 0x20 ADD PUSH32 0x3F097CBC1FCA4D6DFC61394645FD677951EA45DDD533ADADFE1F6E191A1A464 DUP2 MSTORE POP DUP2 MSTORE PUSH1 0x20 ADD PUSH1 0x40 MLOAD DUP1 PUSH1 0x40 ADD PUSH1 0x40 MSTORE DUP1 PUSH32 0x152CE4BB40816FC576A567A0198A312FC45C0EF6CD15D6DCC2827B204295A859 DUP2 MSTORE PUSH1 0x20 ADD PUSH32 0x15C3637B00799F75E94E714364626828ED562FE6752D061C40A7B551CB615F9E DUP2 MSTORE POP DUP2 MSTORE POP DUP2 PUSH1 0x40 ADD DUP2 SWAP1 MSTORE POP PUSH1 0x40 MLOAD DUP1 PUSH1 0x40 ADD PUSH1 0x40 MSTORE DUP1 PUSH1 0x40 MLOAD DUP1 PUSH1 0x40 ADD PUSH1 0x40 MSTORE DUP1 PUSH32 0x3A8E769DE7626769FE54DD5554374234F5F906D3E1D96BA16BE869AAC8A754A DUP2 MSTORE PUSH1 0x20 ADD PUSH32 0x2716ED38B7577DAC6F197304D33A0CB953745F58A2AB834F3B966848E972FC3C DUP2 MSTORE POP DUP2 MSTORE PUSH1 0x20 ADD PUSH1 0x40 MLOAD DUP1 PUSH1 0x40 ADD PUSH1 0x40 MSTORE DUP1 PUSH32 0x62D1D3797A372E780E242B2A43ED20D84B7FF42397DEC28503D1BA5CDD6B59E DUP2 MSTORE PUSH1 0x20 ADD PUSH32 0x1DAF6A4C3A747EE44DA02DD31C511D302C8AFB93C3955CCE13DD10A4BD1DE355 DUP2 MSTORE POP DUP2 MSTORE POP DUP2 PUSH1 0x60 ADD DUP2 SWAP1 MSTORE POP PUSH1 0x2 PUSH8 0xFFFFFFFFFFFFFFFF DUP2 GT ISZERO PUSH2 0xA38 JUMPI PUSH32 0x4E487B7100000000000000000000000000000000000000000000000000000000 PUSH1 0x0 MSTORE PUSH1 0x41 PUSH1 0x4 MSTORE PUSH1 0x24 PUSH1 0x0 REVERT JUMPDEST PUSH1 0x40 MLOAD SWAP1 DUP1 DUP3 MSTORE DUP1 PUSH1 0x20 MUL PUSH1 0x20 ADD DUP3 ADD PUSH1 0x40 MSTORE DUP1 ISZERO PUSH2 0xA71 JUMPI DUP2 PUSH1 0x20 ADD JUMPDEST PUSH2 0xA5E PUSH2 0x18A6 JUMP JUMPDEST DUP2 MSTORE PUSH1 0x20 ADD SWAP1 PUSH1 0x1 SWAP1 SUB SWAP1 DUP2 PUSH2 0xA56 JUMPI SWAP1 POP JUMPDEST POP DUP2 PUSH1 0x80 ADD DUP2 SWAP1 MSTORE POP PUSH1 0x40 MLOAD DUP1 PUSH1 0x40 ADD PUSH1 0x40 MSTORE DUP1 PUSH32 0x206DD45935E91292FC26A3D994BB597B5AF356C338545ED138B672165E87EA6B DUP2 MSTORE PUSH1 0x20 ADD PUSH32 0x289C538FA6B02AD0C297449FA879DAD2C545AFE9F43D1E48D280B476F18524C7 DUP2 MSTORE POP DUP2 PUSH1 0x80 ADD MLOAD PUSH1 0x0 DUP2 MLOAD DUP2 LT PUSH2 0xB0D JUMPI PUSH32 0x4E487B7100000000000000000000000000000000000000000000000000000000 PUSH1 0x0 MSTORE PUSH1 0x32 PUSH1 0x4 MSTORE PUSH1 0x24 PUSH1 0x0 REVERT JUMPDEST PUSH1 0x20 MUL PUSH1 0x20 ADD ADD DUP2 SWAP1 MSTORE POP PUSH1 0x40 MLOAD DUP1 PUSH1 0x40 ADD PUSH1 0x40 MSTORE DUP1 PUSH32 0x12D8504EAE4A1EDA9479F7ABAF1DCDAC975BB9AF382F7CD24578A0EDCC6C1CAF DUP2 MSTORE PUSH1 0x20 ADD PUSH32 0x18F38D5A118D0BBE54E97064F8381B99F9538328E8F8DC26C0DF87E73362C6C6 DUP2 MSTORE POP DUP2 PUSH1 0x80 ADD MLOAD PUSH1 0x1 DUP2 MLOAD DUP2 LT PUSH2 0xBAB JUMPI PUSH32 0x4E487B7100000000000000000000000000000000000000000000000000000000 PUSH1 0x0 MSTORE PUSH1 0x32 PUSH1 0x4 MSTORE PUSH1 0x24 PUSH1 0x0 REVERT JUMPDEST PUSH1 0x20 MUL PUSH1 0x20 ADD ADD DUP2 SWAP1 MSTORE POP SWAP1 JUMP JUMPDEST PUSH2 0xBC1 PUSH2 0x18A6 JUMP JUMPDEST PUSH2 0xBC9 PUSH2 0x18C0 JUMP JUMPDEST DUP4 PUSH1 0x0 ADD MLOAD DUP2 PUSH1 0x0 PUSH1 0x3 DUP2 LT PUSH2 0xC08 JUMPI PUSH32 0x4E487B7100000000000000000000000000000000000000000000000000000000 PUSH1 0x0 MSTORE PUSH1 0x32 PUSH1 0x4 MSTORE PUSH1 0x24 PUSH1 0x0 REVERT JUMPDEST PUSH1 0x20 MUL ADD DUP2 DUP2 MSTORE POP POP DUP4 PUSH1 0x20 ADD MLOAD DUP2 PUSH1 0x1 PUSH1 0x3 DUP2 LT PUSH2 0xC50 JUMPI PUSH32 0x4E487B7100000000000000000000000000000000000000000000000000000000 PUSH1 0x0 MSTORE PUSH1 0x32 PUSH1 0x4 MSTORE PUSH1 0x24 PUSH1 0x0 REVERT JUMPDEST PUSH1 0x20 MUL ADD DUP2 DUP2 MSTORE POP POP DUP3 DUP2 PUSH1 0x2 PUSH1 0x3 DUP2 LT PUSH2 0xC94 JUMPI PUSH32 0x4E487B7100000000000000000000000000000000000000000000000000000000 PUSH1 0x0 MSTORE PUSH1 0x32 PUSH1 0x4 MSTORE PUSH1 0x24 PUSH1 0x0 REVERT JUMPDEST PUSH1 0x20 MUL ADD DUP2 DUP2 MSTORE POP POP PUSH1 0x0 PUSH1 0x60 DUP4 PUSH1 0x80 DUP5 PUSH1 0x7 PUSH2 0x7D0 GAS SUB STATICCALL SWAP1 POP DUP1 PUSH1 0x0 DUP2 EQ PUSH2 0xCBD JUMPI PUSH2 0xCBF JUMP JUMPDEST INVALID JUMPDEST POP DUP1 PUSH2 0xCCA JUMPI PUSH1 0x0 DUP1 REVERT JUMPDEST POP POP SWAP3 SWAP2 POP POP JUMP JUMPDEST PUSH2 0xCDA PUSH2 0x18A6 JUMP JUMPDEST PUSH2 0xCE2 PUSH2 0x18E2 JUMP JUMPDEST DUP4 PUSH1 0x0 ADD MLOAD DUP2 PUSH1 0x0 PUSH1 0x4 DUP2 LT PUSH2 0xD21 JUMPI PUSH32 0x4E487B7100000000000000000000000000000000000000000000000000000000 PUSH1 0x0 MSTORE PUSH1 0x32 PUSH1 0x4 MSTORE PUSH1 0x24 PUSH1 0x0 REVERT JUMPDEST PUSH1 0x20 MUL ADD DUP2 DUP2 MSTORE POP POP DUP4 PUSH1 0x20 ADD MLOAD DUP2 PUSH1 0x1 PUSH1 0x4 DUP2 LT PUSH2 0xD69 JUMPI PUSH32 0x4E487B7100000000000000000000000000000000000000000000000000000000 PUSH1 0x0 MSTORE PUSH1 0x32 PUSH1 0x4 MSTORE PUSH1 0x24 PUSH1 0x0 REVERT JUMPDEST PUSH1 0x20 MUL ADD DUP2 DUP2 MSTORE POP POP DUP3 PUSH1 0x0 ADD MLOAD DUP2 PUSH1 0x2 PUSH1 0x4 DUP2 LT PUSH2 0xDB1 JUMPI PUSH32 0x4E487B7100000000000000000000000000000000000000000000000000000000 PUSH1 0x0 MSTORE PUSH1 0x32 PUSH1 0x4 MSTORE PUSH1 0x24 PUSH1 0x0 REVERT JUMPDEST PUSH1 0x20 MUL ADD DUP2 DUP2 MSTORE POP POP DUP3 PUSH1 0x20 ADD MLOAD DUP2 PUSH1 0x3 PUSH1 0x4 DUP2 LT PUSH2 0xDF9 JUMPI PUSH32 0x4E487B7100000000000000000000000000000000000000000000000000000000 PUSH1 0x0 MSTORE PUSH1 0x32 PUSH1 0x4 MSTORE PUSH1 0x24 PUSH1 0x0 REVERT JUMPDEST PUSH1 0x20 MUL ADD DUP2 DUP2 MSTORE POP POP PUSH1 0x0 PUSH1 0x60 DUP4 PUSH1 0xC0 DUP5 PUSH1 0x6 PUSH2 0x7D0 GAS SUB STATICCALL SWAP1 POP DUP1 PUSH1 0x0 DUP2 EQ PUSH2 0xE22 JUMPI PUSH2 0xE24 JUMP JUMPDEST INVALID JUMPDEST POP DUP1 PUSH2 0xE2F JUMPI PUSH1 0x0 DUP1 REVERT JUMPDEST POP POP SWAP3 SWAP2 POP POP JUMP JUMPDEST PUSH2 0xE3F PUSH2 0x18A6 JUMP JUMPDEST PUSH1 0x0 PUSH32 0x30644E72E131A029B85045B68181585D97816A916871CA8D3C208C16D87CFD47 SWAP1 POP PUSH1 0x0 DUP4 PUSH1 0x0 ADD MLOAD EQ DUP1 ISZERO PUSH2 0xE7C JUMPI POP PUSH1 0x0 DUP4 PUSH1 0x20 ADD MLOAD EQ JUMPDEST ISZERO PUSH2 0xEA0 JUMPI PUSH1 0x40 MLOAD DUP1 PUSH1 0x40 ADD PUSH1 0x40 MSTORE DUP1 PUSH1 0x0 DUP2 MSTORE PUSH1 0x20 ADD PUSH1 0x0 DUP2 MSTORE POP SWAP2 POP POP PUSH2 0xED7 JUMP JUMPDEST PUSH1 0x40 MLOAD DUP1 PUSH1 0x40 ADD PUSH1 0x40 MSTORE DUP1 DUP5 PUSH1 0x0 ADD MLOAD DUP2 MSTORE PUSH1 0x20 ADD DUP3 DUP6 PUSH1 0x20 ADD MLOAD PUSH2 0xEC5 SWAP2 SWAP1 PUSH2 0x1DBB JUMP JUMPDEST DUP4 PUSH2 0xED0 SWAP2 SWAP1 PUSH2 0x1CF7 JUMP JUMPDEST DUP2 MSTORE POP SWAP2 POP POP JUMPDEST SWAP2 SWAP1 POP JUMP JUMPDEST PUSH1 0x0 DUP1 PUSH1 0x4 PUSH8 0xFFFFFFFFFFFFFFFF DUP2 GT ISZERO PUSH2 0xF20 JUMPI PUSH32 0x4E487B7100000000000000000000000000000000000000000000000000000000 PUSH1 0x0 MSTORE PUSH1 0x41 PUSH1 0x4 MSTORE PUSH1 0x24 PUSH1 0x0 REVERT JUMPDEST PUSH1 0x40 MLOAD SWAP1 DUP1 DUP3 MSTORE DUP1 PUSH1 0x20 MUL PUSH1 0x20 ADD DUP3 ADD PUSH1 0x40 MSTORE DUP1 ISZERO PUSH2 0xF59 JUMPI DUP2 PUSH1 0x20 ADD JUMPDEST PUSH2 0xF46 PUSH2 0x18A6 JUMP JUMPDEST DUP2 MSTORE PUSH1 0x20 ADD SWAP1 PUSH1 0x1 SWAP1 SUB SWAP1 DUP2 PUSH2 0xF3E JUMPI SWAP1 POP JUMPDEST POP SWAP1 POP PUSH1 0x0 PUSH1 0x4 PUSH8 0xFFFFFFFFFFFFFFFF DUP2 GT ISZERO PUSH2 0xF9F JUMPI PUSH32 0x4E487B7100000000000000000000000000000000000000000000000000000000 PUSH1 0x0 MSTORE PUSH1 0x41 PUSH1 0x4 MSTORE PUSH1 0x24 PUSH1 0x0 REVERT JUMPDEST PUSH1 0x40 MLOAD SWAP1 DUP1 DUP3 MSTORE DUP1 PUSH1 0x20 MUL PUSH1 0x20 ADD DUP3 ADD PUSH1 0x40 MSTORE DUP1 ISZERO PUSH2 0xFD8 JUMPI DUP2 PUSH1 0x20 ADD JUMPDEST PUSH2 0xFC5 PUSH2 0x1904 JUMP JUMPDEST DUP2 MSTORE PUSH1 0x20 ADD SWAP1 PUSH1 0x1 SWAP1 SUB SWAP1 DUP2 PUSH2 0xFBD JUMPI SWAP1 POP JUMPDEST POP SWAP1 POP DUP11 DUP3 PUSH1 0x0 DUP2 MLOAD DUP2 LT PUSH2 0x1016 JUMPI PUSH32 0x4E487B7100000000000000000000000000000000000000000000000000000000 PUSH1 0x0 MSTORE PUSH1 0x32 PUSH1 0x4 MSTORE PUSH1 0x24 PUSH1 0x0 REVERT JUMPDEST PUSH1 0x20 MUL PUSH1 0x20 ADD ADD DUP2 SWAP1 MSTORE POP DUP9 DUP3 PUSH1 0x1 DUP2 MLOAD DUP2 LT PUSH2 0x105C JUMPI PUSH32 0x4E487B7100000000000000000000000000000000000000000000000000000000 PUSH1 0x0 MSTORE PUSH1 0x32 PUSH1 0x4 MSTORE PUSH1 0x24 PUSH1 0x0 REVERT JUMPDEST PUSH1 0x20 MUL PUSH1 0x20 ADD ADD DUP2 SWAP1 MSTORE POP DUP7 DUP3 PUSH1 0x2 DUP2 MLOAD DUP2 LT PUSH2 0x10A2 JUMPI PUSH32 0x4E487B7100000000000000000000000000000000000000000000000000000000 PUSH1 0x0 MSTORE PUSH1 0x32 PUSH1 0x4 MSTORE PUSH1 0x24 PUSH1 0x0 REVERT JUMPDEST PUSH1 0x20 MUL PUSH1 0x20 ADD ADD DUP2 SWAP1 MSTORE POP DUP5 DUP3 PUSH1 0x3 DUP2 MLOAD DUP2 LT PUSH2 0x10E8 JUMPI PUSH32 0x4E487B7100000000000000000000000000000000000000000000000000000000 PUSH1 0x0 MSTORE PUSH1 0x32 PUSH1 0x4 MSTORE PUSH1 0x24 PUSH1 0x0 REVERT JUMPDEST PUSH1 0x20 MUL PUSH1 0x20 ADD ADD DUP2 SWAP1 MSTORE POP DUP10 DUP2 PUSH1 0x0 DUP2 MLOAD DUP2 LT PUSH2 0x112E JUMPI PUSH32 0x4E487B7100000000000000000000000000000000000000000000000000000000 PUSH1 0x0 MSTORE PUSH1 0x32 PUSH1 0x4 MSTORE PUSH1 0x24 PUSH1 0x0 REVERT JUMPDEST PUSH1 0x20 MUL PUSH1 0x20 ADD ADD DUP2 SWAP1 MSTORE POP DUP8 DUP2 PUSH1 0x1 DUP2 MLOAD DUP2 LT PUSH2 0x1174 JUMPI PUSH32 0x4E487B7100000000000000000000000000000000000000000000000000000000 PUSH1 0x0 MSTORE PUSH1 0x32 PUSH1 0x4 MSTORE PUSH1 0x24 PUSH1 0x0 REVERT JUMPDEST PUSH1 0x20 MUL PUSH1 0x20 ADD ADD DUP2 SWAP1 MSTORE POP DUP6 DUP2 PUSH1 0x2 DUP2 MLOAD DUP2 LT PUSH2 0x11BA JUMPI PUSH32 0x4E487B7100000000000000000000000000000000000000000000000000000000 PUSH1 0x0 MSTORE PUSH1 0x32 PUSH1 0x4 MSTORE PUSH1 0x24 PUSH1 0x0 REVERT JUMPDEST PUSH1 0x20 MUL PUSH1 0x20 ADD ADD DUP2 SWAP1 MSTORE POP DUP4 DUP2 PUSH1 0x3 DUP2 MLOAD DUP2 LT PUSH2 0x1200 JUMPI PUSH32 0x4E487B7100000000000000000000000000000000000000000000000000000000 PUSH1 0x0 MSTORE PUSH1 0x32 PUSH1 0x4 MSTORE PUSH1 0x24 PUSH1 0x0 REVERT JUMPDEST PUSH1 0x20 MUL PUSH1 0x20 ADD ADD DUP2 SWAP1 MSTORE POP PUSH2 0x1215 DUP3 DUP3 PUSH2 0x1225 JUMP JUMPDEST SWAP3 POP POP POP SWAP9 SWAP8 POP POP POP POP POP POP POP POP JUMP JUMPDEST PUSH1 0x0 DUP2 MLOAD DUP4 MLOAD EQ PUSH2 0x1235 JUMPI PUSH1 0x0 DUP1 REVERT JUMPDEST PUSH1 0x0 DUP4 MLOAD SWAP1 POP PUSH1 0x0 PUSH1 0x6 DUP3 PUSH2 0x124A SWAP2 SWAP1 PUSH2 0x1C9D JUMP JUMPDEST SWAP1 POP PUSH1 0x0 DUP2 PUSH8 0xFFFFFFFFFFFFFFFF DUP2 GT ISZERO PUSH2 0x128E JUMPI PUSH32 0x4E487B7100000000000000000000000000000000000000000000000000000000 PUSH1 0x0 MSTORE PUSH1 0x41 PUSH1 0x4 MSTORE PUSH1 0x24 PUSH1 0x0 REVERT JUMPDEST PUSH1 0x40 MLOAD SWAP1 DUP1 DUP3 MSTORE DUP1 PUSH1 0x20 MUL PUSH1 0x20 ADD DUP3 ADD PUSH1 0x40 MSTORE DUP1 ISZERO PUSH2 0x12BC JUMPI DUP2 PUSH1 0x20 ADD PUSH1 0x20 DUP3 MUL DUP1 CALLDATASIZE DUP4 CALLDATACOPY DUP1 DUP3 ADD SWAP2 POP POP SWAP1 POP JUMPDEST POP SWAP1 POP PUSH1 0x0 JUMPDEST DUP4 DUP2 LT ISZERO PUSH2 0x17A1 JUMPI DUP7 DUP2 DUP2 MLOAD DUP2 LT PUSH2 0x1303 JUMPI PUSH32 0x4E487B7100000000000000000000000000000000000000000000000000000000 PUSH1 0x0 MSTORE PUSH1 0x32 PUSH1 0x4 MSTORE PUSH1 0x24 PUSH1 0x0 REVERT JUMPDEST PUSH1 0x20 MUL PUSH1 0x20 ADD ADD MLOAD PUSH1 0x0 ADD MLOAD DUP3 PUSH1 0x0 PUSH1 0x6 DUP5 PUSH2 0x131F SWAP2 SWAP1 PUSH2 0x1C9D JUMP JUMPDEST PUSH2 0x1329 SWAP2 SWAP1 PUSH2 0x1C47 JUMP JUMPDEST DUP2 MLOAD DUP2 LT PUSH2 0x1360 JUMPI PUSH32 0x4E487B7100000000000000000000000000000000000000000000000000000000 PUSH1 0x0 MSTORE PUSH1 0x32 PUSH1 0x4 MSTORE PUSH1 0x24 PUSH1 0x0 REVERT JUMPDEST PUSH1 0x20 MUL PUSH1 0x20 ADD ADD DUP2 DUP2 MSTORE POP POP DUP7 DUP2 DUP2 MLOAD DUP2 LT PUSH2 0x13A5 JUMPI PUSH32 0x4E487B7100000000000000000000000000000000000000000000000000000000 PUSH1 0x0 MSTORE PUSH1 0x32 PUSH1 0x4 MSTORE PUSH1 0x24 PUSH1 0x0 REVERT JUMPDEST PUSH1 0x20 MUL PUSH1 0x20 ADD ADD MLOAD PUSH1 0x20 ADD MLOAD DUP3 PUSH1 0x1 PUSH1 0x6 DUP5 PUSH2 0x13C1 SWAP2 SWAP1 PUSH2 0x1C9D JUMP JUMPDEST PUSH2 0x13CB SWAP2 SWAP1 PUSH2 0x1C47 JUMP JUMPDEST DUP2 MLOAD DUP2 LT PUSH2 0x1402 JUMPI PUSH32 0x4E487B7100000000000000000000000000000000000000000000000000000000 PUSH1 0x0 MSTORE PUSH1 0x32 PUSH1 0x4 MSTORE PUSH1 0x24 PUSH1 0x0 REVERT JUMPDEST PUSH1 0x20 MUL PUSH1 0x20 ADD ADD DUP2 DUP2 MSTORE POP POP DUP6 DUP2 DUP2 MLOAD DUP2 LT PUSH2 0x1447 JUMPI PUSH32 0x4E487B7100000000000000000000000000000000000000000000000000000000 PUSH1 0x0 MSTORE PUSH1 0x32 PUSH1 0x4 MSTORE PUSH1 0x24 PUSH1 0x0 REVERT JUMPDEST PUSH1 0x20 MUL PUSH1 0x20 ADD ADD MLOAD PUSH1 0x0 ADD MLOAD PUSH1 0x1 PUSH1 0x2 DUP2 LT PUSH2 0x148C JUMPI PUSH32 0x4E487B7100000000000000000000000000000000000000000000000000000000 PUSH1 0x0 MSTORE PUSH1 0x32 PUSH1 0x4 MSTORE PUSH1 0x24 PUSH1 0x0 REVERT JUMPDEST PUSH1 0x20 MUL ADD MLOAD DUP3 PUSH1 0x2 PUSH1 0x6 DUP5 PUSH2 0x14A1 SWAP2 SWAP1 PUSH2 0x1C9D JUMP JUMPDEST PUSH2 0x14AB SWAP2 SWAP1 PUSH2 0x1C47 JUMP JUMPDEST DUP2 MLOAD DUP2 LT PUSH2 0x14E2 JUMPI PUSH32 0x4E487B7100000000000000000000000000000000000000000000000000000000 PUSH1 0x0 MSTORE PUSH1 0x32 PUSH1 0x4 MSTORE PUSH1 0x24 PUSH1 0x0 REVERT JUMPDEST PUSH1 0x20 MUL PUSH1 0x20 ADD ADD DUP2 DUP2 MSTORE POP POP DUP6 DUP2 DUP2 MLOAD DUP2 LT PUSH2 0x1527 JUMPI PUSH32 0x4E487B7100000000000000000000000000000000000000000000000000000000 PUSH1 0x0 MSTORE PUSH1 0x32 PUSH1 0x4 MSTORE PUSH1 0x24 PUSH1 0x0 REVERT JUMPDEST PUSH1 0x20 MUL PUSH1 0x20 ADD ADD MLOAD PUSH1 0x0 ADD MLOAD PUSH1 0x0 PUSH1 0x2 DUP2 LT PUSH2 0x156C JUMPI PUSH32 0x4E487B7100000000000000000000000000000000000000000000000000000000 PUSH1 0x0 MSTORE PUSH1 0x32 PUSH1 0x4 MSTORE PUSH1 0x24 PUSH1 0x0 REVERT JUMPDEST PUSH1 0x20 MUL ADD MLOAD DUP3 PUSH1 0x3 PUSH1 0x6 DUP5 PUSH2 0x1581 SWAP2 SWAP1 PUSH2 0x1C9D JUMP JUMPDEST PUSH2 0x158B SWAP2 SWAP1 PUSH2 0x1C47 JUMP JUMPDEST DUP2 MLOAD DUP2 LT PUSH2 0x15C2 JUMPI PUSH32 0x4E487B7100000000000000000000000000000000000000000000000000000000 PUSH1 0x0 MSTORE PUSH1 0x32 PUSH1 0x4 MSTORE PUSH1 0x24 PUSH1 0x0 REVERT JUMPDEST PUSH1 0x20 MUL PUSH1 0x20 ADD ADD DUP2 DUP2 MSTORE POP POP DUP6 DUP2 DUP2 MLOAD DUP2 LT PUSH2 0x1607 JUMPI PUSH32 0x4E487B7100000000000000000000000000000000000000000000000000000000 PUSH1 0x0 MSTORE PUSH1 0x32 PUSH1 0x4 MSTORE PUSH1 0x24 PUSH1 0x0 REVERT JUMPDEST PUSH1 0x20 MUL PUSH1 0x20 ADD ADD MLOAD PUSH1 0x20 ADD MLOAD PUSH1 0x1 PUSH1 0x2 DUP2 LT PUSH2 0x164C JUMPI PUSH32 0x4E487B7100000000000000000000000000000000000000000000000000000000 PUSH1 0x0 MSTORE PUSH1 0x32 PUSH1 0x4 MSTORE PUSH1 0x24 PUSH1 0x0 REVERT JUMPDEST PUSH1 0x20 MUL ADD MLOAD DUP3 PUSH1 0x4 PUSH1 0x6 DUP5 PUSH2 0x1661 SWAP2 SWAP1 PUSH2 0x1C9D JUMP JUMPDEST PUSH2 0x166B SWAP2 SWAP1 PUSH2 0x1C47 JUMP JUMPDEST DUP2 MLOAD DUP2 LT PUSH2 0x16A2 JUMPI PUSH32 0x4E487B7100000000000000000000000000000000000000000000000000000000 PUSH1 0x0 MSTORE PUSH1 0x32 PUSH1 0x4 MSTORE PUSH1 0x24 PUSH1 0x0 REVERT JUMPDEST PUSH1 0x20 MUL PUSH1 0x20 ADD ADD DUP2 DUP2 MSTORE POP POP DUP6 DUP2 DUP2 MLOAD DUP2 LT PUSH2 0x16E7 JUMPI PUSH32 0x4E487B7100000000000000000000000000000000000000000000000000000000 PUSH1 0x0 MSTORE PUSH1 0x32 PUSH1 0x4 MSTORE PUSH1 0x24 PUSH1 0x0 REVERT JUMPDEST PUSH1 0x20 MUL PUSH1 0x20 ADD ADD MLOAD PUSH1 0x20 ADD MLOAD PUSH1 0x0 PUSH1 0x2 DUP2 LT PUSH2 0x172C JUMPI PUSH32 0x4E487B7100000000000000000000000000000000000000000000000000000000 PUSH1 0x0 MSTORE PUSH1 0x32 PUSH1 0x4 MSTORE PUSH1 0x24 PUSH1 0x0 REVERT JUMPDEST PUSH1 0x20 MUL ADD MLOAD DUP3 PUSH1 0x5 PUSH1 0x6 DUP5 PUSH2 0x1741 SWAP2 SWAP1 PUSH2 0x1C9D JUMP JUMPDEST PUSH2 0x174B SWAP2 SWAP1 PUSH2 0x1C47 JUMP JUMPDEST DUP2 MLOAD DUP2 LT PUSH2 0x1782 JUMPI PUSH32 0x4E487B7100000000000000000000000000000000000000000000000000000000 PUSH1 0x0 MSTORE PUSH1 0x32 PUSH1 0x4 MSTORE PUSH1 0x24 PUSH1 0x0 REVERT JUMPDEST PUSH1 0x20 MUL PUSH1 0x20 ADD ADD DUP2 DUP2 MSTORE POP POP DUP1 DUP1 PUSH2 0x1799 SWAP1 PUSH2 0x1D72 JUMP JUMPDEST SWAP2 POP POP PUSH2 0x12C2 JUMP JUMPDEST POP PUSH2 0x17AA PUSH2 0x192A JUMP JUMPDEST PUSH1 0x0 PUSH1 0x20 DUP3 PUSH1 0x20 DUP7 MUL PUSH1 0x20 DUP7 ADD PUSH1 0x8 PUSH2 0x7D0 GAS SUB STATICCALL SWAP1 POP DUP1 PUSH1 0x0 DUP2 EQ PUSH2 0x17CF JUMPI PUSH2 0x17D1 JUMP JUMPDEST INVALID JUMPDEST POP DUP1 PUSH2 0x17DC JUMPI PUSH1 0x0 DUP1 REVERT JUMPDEST PUSH1 0x0 DUP3 PUSH1 0x0 PUSH1 0x1 DUP2 LT PUSH2 0x1818 JUMPI PUSH32 0x4E487B7100000000000000000000000000000000000000000000000000000000 PUSH1 0x0 MSTORE PUSH1 0x32 PUSH1 0x4 MSTORE PUSH1 0x24 PUSH1 0x0 REVERT JUMPDEST PUSH1 0x20 MUL ADD MLOAD EQ ISZERO SWAP6 POP POP POP POP POP POP SWAP3 SWAP2 POP POP JUMP JUMPDEST PUSH1 0x40 MLOAD DUP1 PUSH1 0x60 ADD PUSH1 0x40 MSTORE DUP1 PUSH2 0x183F PUSH2 0x18A6 JUMP JUMPDEST DUP2 MSTORE PUSH1 0x20 ADD PUSH2 0x184C PUSH2 0x1904 JUMP JUMPDEST DUP2 MSTORE PUSH1 0x20 ADD PUSH2 0x1859 PUSH2 0x18A6 JUMP JUMPDEST DUP2 MSTORE POP SWAP1 JUMP JUMPDEST PUSH1 0x40 MLOAD DUP1 PUSH1 0xA0 ADD PUSH1 0x40 MSTORE DUP1 PUSH2 0x1872 PUSH2 0x18A6 JUMP JUMPDEST DUP2 MSTORE PUSH1 0x20 ADD PUSH2 0x187F PUSH2 0x1904 JUMP JUMPDEST DUP2 MSTORE PUSH1 0x20 ADD PUSH2 0x188C PUSH2 0x1904 JUMP JUMPDEST DUP2 MSTORE PUSH1 0x20 ADD PUSH2 0x1899 PUSH2 0x1904 JUMP JUMPDEST DUP2 MSTORE PUSH1 0x20 ADD PUSH1 0x60 DUP2 MSTORE POP SWAP1 JUMP JUMPDEST PUSH1 0x40 MLOAD DUP1 PUSH1 0x40 ADD PUSH1 0x40 MSTORE DUP1 PUSH1 0x0 DUP2 MSTORE PUSH1 0x20 ADD PUSH1 0x0 DUP2 MSTORE POP SWAP1 JUMP JUMPDEST PUSH1 0x40 MLOAD DUP1 PUSH1 0x60 ADD PUSH1 0x40 MSTORE DUP1 PUSH1 0x3 SWAP1 PUSH1 0x20 DUP3 MUL DUP1 CALLDATASIZE DUP4 CALLDATACOPY DUP1 DUP3 ADD SWAP2 POP POP SWAP1 POP POP SWAP1 JUMP JUMPDEST PUSH1 0x40 MLOAD DUP1 PUSH1 0x80 ADD PUSH1 0x40 MSTORE DUP1 PUSH1 0x4 SWAP1 PUSH1 0x20 DUP3 MUL DUP1 CALLDATASIZE DUP4 CALLDATACOPY DUP1 DUP3 ADD SWAP2 POP POP SWAP1 POP POP SWAP1 JUMP JUMPDEST PUSH1 0x40 MLOAD DUP1 PUSH1 0x40 ADD PUSH1 0x40 MSTORE DUP1 PUSH2 0x1917 PUSH2 0x194C JUMP JUMPDEST DUP2 MSTORE PUSH1 0x20 ADD PUSH2 0x1924 PUSH2 0x194C JUMP JUMPDEST DUP2 MSTORE POP SWAP1 JUMP JUMPDEST PUSH1 0x40 MLOAD DUP1 PUSH1 0x20 ADD PUSH1 0x40 MSTORE DUP1 PUSH1 0x1 SWAP1 PUSH1 0x20 DUP3 MUL DUP1 CALLDATASIZE DUP4 CALLDATACOPY DUP1 DUP3 ADD SWAP2 POP POP SWAP1 POP POP SWAP1 JUMP JUMPDEST PUSH1 0x40 MLOAD DUP1 PUSH1 0x40 ADD PUSH1 0x40 MSTORE DUP1 PUSH1 0x2 SWAP1 PUSH1 0x20 DUP3 MUL DUP1 CALLDATASIZE DUP4 CALLDATACOPY DUP1 DUP3 ADD SWAP2 POP POP SWAP1 POP POP SWAP1 JUMP JUMPDEST PUSH1 0x0 PUSH2 0x1981 PUSH2 0x197C DUP5 PUSH2 0x1BD5 JUMP JUMPDEST PUSH2 0x1BB0 JUMP JUMPDEST SWAP1 POP DUP1 DUP3 DUP6 PUSH1 0x40 DUP7 MUL DUP3 ADD GT ISZERO PUSH2 0x1997 JUMPI PUSH1 0x0 DUP1 REVERT JUMPDEST PUSH1 0x0 JUMPDEST DUP6 DUP2 LT ISZERO PUSH2 0x19C7 JUMPI DUP2 PUSH2 0x19AD DUP9 DUP3 PUSH2 0x1AE5 JUMP JUMPDEST DUP5 MSTORE PUSH1 0x20 DUP5 ADD SWAP4 POP PUSH1 0x40 DUP4 ADD SWAP3 POP POP PUSH1 0x1 DUP2 ADD SWAP1 POP PUSH2 0x199A JUMP JUMPDEST POP POP POP SWAP4 SWAP3 POP POP POP JUMP JUMPDEST PUSH1 0x0 PUSH2 0x19E4 PUSH2 0x19DF DUP5 PUSH2 0x1BFB JUMP JUMPDEST PUSH2 0x1BB0 JUMP JUMPDEST SWAP1 POP DUP1 DUP3 DUP6 PUSH1 0x20 DUP7 MUL DUP3 ADD GT ISZERO PUSH2 0x19FA JUMPI PUSH1 0x0 DUP1 REVERT JUMPDEST PUSH1 0x0 JUMPDEST DUP6 DUP2 LT ISZERO PUSH2 0x1A2A JUMPI DUP2 PUSH2 0x1A10 DUP9 DUP3 PUSH2 0x1B0C JUMP JUMPDEST DUP5 MSTORE PUSH1 0x20 DUP5 ADD SWAP4 POP PUSH1 0x20 DUP4 ADD SWAP3 POP POP PUSH1 0x1 DUP2 ADD SWAP1 POP PUSH2 0x19FD JUMP JUMPDEST POP POP POP SWAP4 SWAP3 POP POP POP JUMP JUMPDEST PUSH1 0x0 PUSH2 0x1A47 PUSH2 0x1A42 DUP5 PUSH2 0x1C21 JUMP JUMPDEST PUSH2 0x1BB0 JUMP JUMPDEST SWAP1 POP DUP1 DUP3 DUP6 PUSH1 0x20 DUP7 MUL DUP3 ADD GT ISZERO PUSH2 0x1A5D JUMPI PUSH1 0x0 DUP1 REVERT JUMPDEST PUSH1 0x0 JUMPDEST DUP6 DUP2 LT ISZERO PUSH2 0x1A8D JUMPI DUP2 PUSH2 0x1A73 DUP9 DUP3 PUSH2 0x1B0C JUMP JUMPDEST DUP5 MSTORE PUSH1 0x20 DUP5 ADD SWAP4 POP PUSH1 0x20 DUP4 ADD SWAP3 POP POP PUSH1 0x1 DUP2 ADD SWAP1 POP PUSH2 0x1A60 JUMP JUMPDEST POP POP POP SWAP4 SWAP3 POP POP POP JUMP JUMPDEST PUSH1 0x0 DUP3 PUSH1 0x1F DUP4 ADD SLT PUSH2 0x1AA8 JUMPI PUSH1 0x0 DUP1 REVERT JUMPDEST PUSH1 0x2 PUSH2 0x1AB5 DUP5 DUP3 DUP6 PUSH2 0x196E JUMP JUMPDEST SWAP2 POP POP SWAP3 SWAP2 POP POP JUMP JUMPDEST PUSH1 0x0 DUP3 PUSH1 0x1F DUP4 ADD SLT PUSH2 0x1ACF JUMPI PUSH1 0x0 DUP1 REVERT JUMPDEST PUSH1 0x1 PUSH2 0x1ADC DUP5 DUP3 DUP6 PUSH2 0x19D1 JUMP JUMPDEST SWAP2 POP POP SWAP3 SWAP2 POP POP JUMP JUMPDEST PUSH1 0x0 DUP3 PUSH1 0x1F DUP4 ADD SLT PUSH2 0x1AF6 JUMPI PUSH1 0x0 DUP1 REVERT JUMPDEST PUSH1 0x2 PUSH2 0x1B03 DUP5 DUP3 DUP6 PUSH2 0x1A34 JUMP JUMPDEST SWAP2 POP POP SWAP3 SWAP2 POP POP JUMP JUMPDEST PUSH1 0x0 DUP2 CALLDATALOAD SWAP1 POP PUSH2 0x1B1B DUP2 PUSH2 0x1E8A JUMP JUMPDEST SWAP3 SWAP2 POP POP JUMP JUMPDEST PUSH1 0x0 DUP1 PUSH1 0x0 DUP1 PUSH2 0x120 DUP6 DUP8 SUB SLT ISZERO PUSH2 0x1B38 JUMPI PUSH1 0x0 DUP1 REVERT JUMPDEST PUSH1 0x0 PUSH2 0x1B46 DUP8 DUP3 DUP9 ADD PUSH2 0x1AE5 JUMP JUMPDEST SWAP5 POP POP PUSH1 0x40 PUSH2 0x1B57 DUP8 DUP3 DUP9 ADD PUSH2 0x1A97 JUMP JUMPDEST SWAP4 POP POP PUSH1 0xC0 PUSH2 0x1B68 DUP8 DUP3 DUP9 ADD PUSH2 0x1AE5 JUMP JUMPDEST SWAP3 POP POP PUSH2 0x100 PUSH2 0x1B7A DUP8 DUP3 DUP9 ADD PUSH2 0x1ABE JUMP JUMPDEST SWAP2 POP POP SWAP3 SWAP6 SWAP2 SWAP5 POP SWAP3 POP JUMP JUMPDEST PUSH2 0x1B8F DUP2 PUSH2 0x1D2B JUMP JUMPDEST DUP3 MSTORE POP POP JUMP JUMPDEST PUSH1 0x0 PUSH1 0x20 DUP3 ADD SWAP1 POP PUSH2 0x1BAA PUSH1 0x0 DUP4 ADD DUP5 PUSH2 0x1B86 JUMP JUMPDEST SWAP3 SWAP2 POP POP JUMP JUMPDEST PUSH1 0x0 PUSH2 0x1BBA PUSH2 0x1BCB JUMP JUMPDEST SWAP1 POP PUSH2 0x1BC6 DUP3 DUP3 PUSH2 0x1D41 JUMP JUMPDEST SWAP2 SWAP1 POP JUMP JUMPDEST PUSH1 0x0 PUSH1 0x40 MLOAD SWAP1 POP SWAP1 JUMP JUMPDEST PUSH1 0x0 PUSH8 0xFFFFFFFFFFFFFFFF DUP3 GT ISZERO PUSH2 0x1BF0 JUMPI PUSH2 0x1BEF PUSH2 0x1E4A JUMP JUMPDEST JUMPDEST PUSH1 0x20 DUP3 MUL SWAP1 POP SWAP2 SWAP1 POP JUMP JUMPDEST PUSH1 0x0 PUSH8 0xFFFFFFFFFFFFFFFF DUP3 GT ISZERO PUSH2 0x1C16 JUMPI PUSH2 0x1C15 PUSH2 0x1E4A JUMP JUMPDEST JUMPDEST PUSH1 0x20 DUP3 MUL SWAP1 POP SWAP2 SWAP1 POP JUMP JUMPDEST PUSH1 0x0 PUSH8 0xFFFFFFFFFFFFFFFF DUP3 GT ISZERO PUSH2 0x1C3C JUMPI PUSH2 0x1C3B PUSH2 0x1E4A JUMP JUMPDEST JUMPDEST PUSH1 0x20 DUP3 MUL SWAP1 POP SWAP2 SWAP1 POP JUMP JUMPDEST PUSH1 0x0 PUSH2 0x1C52 DUP3 PUSH2 0x1D37 JUMP JUMPDEST SWAP2 POP PUSH2 0x1C5D DUP4 PUSH2 0x1D37 JUMP JUMPDEST SWAP3 POP DUP3 PUSH32 0xFFFFFFFFFFFFFFFFFFFFFFFFFFFFFFFFFFFFFFFFFFFFFFFFFFFFFFFFFFFFFFFF SUB DUP3 GT ISZERO PUSH2 0x1C92 JUMPI PUSH2 0x1C91 PUSH2 0x1DEC JUMP JUMPDEST JUMPDEST DUP3 DUP3 ADD SWAP1 POP SWAP3 SWAP2 POP POP JUMP JUMPDEST PUSH1 0x0 PUSH2 0x1CA8 DUP3 PUSH2 0x1D37 JUMP JUMPDEST SWAP2 POP PUSH2 0x1CB3 DUP4 PUSH2 0x1D37 JUMP JUMPDEST SWAP3 POP DUP2 PUSH32 0xFFFFFFFFFFFFFFFFFFFFFFFFFFFFFFFFFFFFFFFFFFFFFFFFFFFFFFFFFFFFFFFF DIV DUP4 GT DUP3 ISZERO ISZERO AND ISZERO PUSH2 0x1CEC JUMPI PUSH2 0x1CEB PUSH2 0x1DEC JUMP JUMPDEST JUMPDEST DUP3 DUP3 MUL SWAP1 POP SWAP3 SWAP2 POP POP JUMP JUMPDEST PUSH1 0x0 PUSH2 0x1D02 DUP3 PUSH2 0x1D37 JUMP JUMPDEST SWAP2 POP PUSH2 0x1D0D DUP4 PUSH2 0x1D37 JUMP JUMPDEST SWAP3 POP DUP3 DUP3 LT ISZERO PUSH2 0x1D20 JUMPI PUSH2 0x1D1F PUSH2 0x1DEC JUMP JUMPDEST JUMPDEST DUP3 DUP3 SUB SWAP1 POP SWAP3 SWAP2 POP POP JUMP JUMPDEST PUSH1 0x0 DUP2 ISZERO ISZERO SWAP1 POP SWAP2 SWAP1 POP JUMP JUMPDEST PUSH1 0x0 DUP2 SWAP1 POP SWAP2 SWAP1 POP JUMP JUMPDEST PUSH2 0x1D4A DUP3 PUSH2 0x1E79 JUMP JUMPDEST DUP2 ADD DUP2 DUP2 LT PUSH8 0xFFFFFFFFFFFFFFFF DUP3 GT OR ISZERO PUSH2 0x1D69 JUMPI PUSH2 0x1D68 PUSH2 0x1E4A JUMP JUMPDEST JUMPDEST DUP1 PUSH1 0x40 MSTORE POP POP POP JUMP JUMPDEST PUSH1 0x0 PUSH2 0x1D7D DUP3 PUSH2 0x1D37 JUMP JUMPDEST SWAP2 POP PUSH32 0xFFFFFFFFFFFFFFFFFFFFFFFFFFFFFFFFFFFFFFFFFFFFFFFFFFFFFFFFFFFFFFFF DUP3 EQ ISZERO PUSH2 0x1DB0 JUMPI PUSH2 0x1DAF PUSH2 0x1DEC JUMP JUMPDEST JUMPDEST PUSH1 0x1 DUP3 ADD SWAP1 POP SWAP2 SWAP1 POP JUMP JUMPDEST PUSH1 0x0 PUSH2 0x1DC6 DUP3 PUSH2 0x1D37 JUMP JUMPDEST SWAP2 POP PUSH2 0x1DD1 DUP4 PUSH2 0x1D37 JUMP JUMPDEST SWAP3 POP DUP3 PUSH2 0x1DE1 JUMPI PUSH2 0x1DE0 PUSH2 0x1E1B JUMP JUMPDEST JUMPDEST DUP3 DUP3 MOD SWAP1 POP SWAP3 SWAP2 POP POP JUMP JUMPDEST PUSH32 0x4E487B7100000000000000000000000000000000000000000000000000000000 PUSH1 0x0 MSTORE PUSH1 0x11 PUSH1 0x4 MSTORE PUSH1 0x24 PUSH1 0x0 REVERT JUMPDEST PUSH32 0x4E487B7100000000000000000000000000000000000000000000000000000000 PUSH1 0x0 MSTORE PUSH1 0x12 PUSH1 0x4 MSTORE PUSH1 0x24 PUSH1 0x0 REVERT JUMPDEST PUSH32 0x4E487B7100000000000000000000000000000000000000000000000000000000 PUSH1 0x0 MSTORE PUSH1 0x41 PUSH1 0x4 MSTORE PUSH1 0x24 PUSH1 0x0 REVERT JUMPDEST PUSH1 0x0 PUSH1 0x1F NOT PUSH1 0x1F DUP4 ADD AND SWAP1 POP SWAP2 SWAP1 POP JUMP JUMPDEST PUSH2 0x1E93 DUP2 PUSH2 0x1D37 JUMP JUMPDEST DUP2 EQ PUSH2 0x1E9E JUMPI PUSH1 0x0 DUP1 REVERT JUMPDEST POP JUMP INVALID LOG2 PUSH5 0x6970667358 0x22 SLT KECCAK256 PUSH24 0x14C5BAEFBC5ABAFD103DBA23B146BD9F1D84922143AE836F 0xC8 0xC7 0xBE 0xE8 DELEGATECALL 0xC5 EXP PUSH5 0x736F6C6343 STOP ADDMOD DIV STOP CALLER LOG2 PUSH5 0x6970667358 0x22 SLT KECCAK256 0xC3 SWAP7 ISZERO LOG2 DUP9 PUSH16 0x69C719B462ABD604E0D009306903BADB 0xEB DUP6 SWAP12 PUSH1 0x69 MUL 0xE1 PUSH10 0xDA5964736F6C63430008 DIV STOP CALLER "
		},
		"gasEstimates": {
			"creation": {
				"codeDepositCost": "4838600",
				"executionCost": "26578",
				"totalCost": "4865178"
			},
			"external": {
				"activeVoters()": "1217",
				"authorize(address)": "infinite",
				"candidates(uint256)": "infinite",
				"conductElection(string,uint8,string,string,string)": "infinite",
				"createMerkleArray()": "infinite",
				"currentState()": "infinite",
				"getCandidates()": "infinite",
				"getMerkleInfo(uint256)": "infinite",
				"merkleRoot()": "1196",
				"name()": "infinite",
				"owner()": "1236",
				"publicKey()": "infinite",
				"pushVoteKey(string)": "infinite",
				"submitVote(uint256[2],uint256[2][2],uint256[2],uint256[1],uint256)": "infinite",
				"tallyVotes()": "infinite",
				"terminateElection()": "1173",
				"testHash(uint256[])": "infinite"
			},
			"internal": {
				"calculateVoteWeight(address)": "20127",
				"stringToUint(string memory)": "infinite"
			}
		},
		"methodIdentifiers": {
			"activeVoters()": "bb314cd8",
			"authorize(address)": "b6a5d7de",
			"candidates(uint256)": "3477ee2e",
			"conductElection(string,uint8,string,string,string)": "1ce1a024",
			"createMerkleArray()": "7e95b5e9",
			"currentState()": "0c3f6acf",
			"getCandidates()": "06a49fce",
			"getMerkleInfo(uint256)": "5d308fb8",
			"merkleRoot()": "2eb4a7ab",
			"name()": "06fdde03",
			"owner()": "8da5cb5b",
			"publicKey()": "63ffab31",
			"pushVoteKey(string)": "0990248b",
			"submitVote(uint256[2],uint256[2][2],uint256[2],uint256[1],uint256)": "fba4f87b",
			"tallyVotes()": "378a2178",
			"terminateElection()": "b4f3b1ca",
			"testHash(uint256[])": "218bfb50"
		}
	},
	"abi": [
		{
			"inputs": [],
			"stateMutability": "nonpayable",
			"type": "constructor"
		},
		{
			"anonymous": false,
			"inputs": [
				{
					"indexed": false,
					"internalType": "address",
					"name": "authorizedUser",
					"type": "address"
				}
			],
			"name": "AnnounceAuth",
			"type": "event"
		},
		{
			"anonymous": false,
			"inputs": [
				{
					"indexed": false,
					"internalType": "string",
					"name": "stage",
					"type": "string"
				}
			],
			"name": "AnnounceNewStage",
			"type": "event"
		},
		{
			"anonymous": false,
			"inputs": [
				{
					"indexed": false,
					"internalType": "string",
					"name": "candidate",
					"type": "string"
				},
				{
					"indexed": false,
					"internalType": "uint256[]",
					"name": "tallyCount",
					"type": "uint256[]"
				}
			],
			"name": "AnnounceResult",
			"type": "event"
		},
		{
			"anonymous": false,
			"inputs": [
				{
					"indexed": false,
					"internalType": "string",
					"name": "candidate",
					"type": "string"
				},
				{
					"indexed": false,
					"internalType": "address",
					"name": "proofOfMembership",
					"type": "address"
				}
			],
			"name": "AnnounceVote",
			"type": "event"
		},
		{
			"anonymous": false,
			"inputs": [
				{
					"indexed": false,
					"internalType": "uint256",
					"name": "s",
					"type": "uint256"
				}
			],
			"name": "Debug",
			"type": "event"
		},
		{
			"inputs": [],
			"name": "activeVoters",
			"outputs": [
				{
					"internalType": "uint256",
					"name": "",
					"type": "uint256"
				}
			],
			"stateMutability": "view",
			"type": "function"
		},
		{
			"inputs": [
				{
					"internalType": "address",
					"name": "citizen",
					"type": "address"
				}
			],
			"name": "authorize",
			"outputs": [],
			"stateMutability": "nonpayable",
			"type": "function"
		},
		{
			"inputs": [
				{
					"internalType": "uint256",
					"name": "",
					"type": "uint256"
				}
			],
			"name": "candidates",
			"outputs": [
				{
					"internalType": "string",
					"name": "name",
					"type": "string"
				}
			],
			"stateMutability": "view",
			"type": "function"
		},
		{
			"inputs": [
				{
					"internalType": "string",
					"name": "inputName",
					"type": "string"
				},
				{
					"internalType": "uint8",
					"name": "treeDepth",
					"type": "uint8"
				},
				{
					"internalType": "string",
					"name": "candidateA",
					"type": "string"
				},
				{
					"internalType": "string",
					"name": "candidateB",
					"type": "string"
				},
				{
					"internalType": "string",
					"name": "pk",
					"type": "string"
				}
			],
			"name": "conductElection",
			"outputs": [],
			"stateMutability": "nonpayable",
			"type": "function"
		},
		{
			"inputs": [],
			"name": "createMerkleArray",
			"outputs": [],
			"stateMutability": "nonpayable",
			"type": "function"
		},
		{
			"inputs": [],
			"name": "currentState",
			"outputs": [
				{
					"internalType": "string",
					"name": "",
					"type": "string"
				}
			],
			"stateMutability": "view",
			"type": "function"
		},
		{
			"inputs": [],
			"name": "getCandidates",
			"outputs": [
				{
					"internalType": "string[]",
					"name": "",
					"type": "string[]"
				}
			],
			"stateMutability": "view",
			"type": "function"
		},
		{
			"inputs": [
				{
					"internalType": "uint256",
					"name": "voteKey",
					"type": "uint256"
				}
			],
			"name": "getMerkleInfo",
			"outputs": [
				{
					"internalType": "uint256",
					"name": "targetIndex",
					"type": "uint256"
				},
				{
					"internalType": "uint256",
					"name": "firstLayerSize",
					"type": "uint256"
				},
				{
					"internalType": "uint256[]",
					"name": "entireMerkleArray",
					"type": "uint256[]"
				},
				{
					"internalType": "uint256",
					"name": "merkleRoot",
					"type": "uint256"
				}
			],
			"stateMutability": "view",
			"type": "function"
		},
		{
			"inputs": [],
			"name": "merkleRoot",
			"outputs": [
				{
					"internalType": "uint256",
					"name": "",
					"type": "uint256"
				}
			],
			"stateMutability": "view",
			"type": "function"
		},
		{
			"inputs": [],
			"name": "name",
			"outputs": [
				{
					"internalType": "string",
					"name": "",
					"type": "string"
				}
			],
			"stateMutability": "view",
			"type": "function"
		},
		{
			"inputs": [],
			"name": "owner",
			"outputs": [
				{
					"internalType": "address",
					"name": "",
					"type": "address"
				}
			],
			"stateMutability": "view",
			"type": "function"
		},
		{
			"inputs": [],
			"name": "publicKey",
			"outputs": [
				{
					"internalType": "string",
					"name": "",
					"type": "string"
				}
			],
			"stateMutability": "view",
			"type": "function"
		},
		{
			"inputs": [
				{
					"internalType": "string",
					"name": "str",
					"type": "string"
				}
			],
			"name": "pushVoteKey",
			"outputs": [],
			"stateMutability": "nonpayable",
			"type": "function"
		},
		{
			"inputs": [
				{
					"internalType": "uint256[2]",
					"name": "a",
					"type": "uint256[2]"
				},
				{
					"internalType": "uint256[2][2]",
					"name": "b",
					"type": "uint256[2][2]"
				},
				{
					"internalType": "uint256[2]",
					"name": "c",
					"type": "uint256[2]"
				},
				{
					"internalType": "uint256[1]",
					"name": "input",
					"type": "uint256[1]"
				},
				{
					"internalType": "uint256",
					"name": "delegate",
					"type": "uint256"
				}
			],
			"name": "submitVote",
			"outputs": [],
			"stateMutability": "nonpayable",
			"type": "function"
		},
		{
			"inputs": [],
			"name": "tallyVotes",
			"outputs": [],
			"stateMutability": "nonpayable",
			"type": "function"
		},
		{
			"inputs": [],
			"name": "terminateElection",
			"outputs": [
				{
					"internalType": "uint256",
					"name": "",
					"type": "uint256"
				}
			],
			"stateMutability": "view",
			"type": "function"
		},
		{
			"inputs": [
				{
					"internalType": "uint256[]",
					"name": "alpha",
					"type": "uint256[]"
				}
			],
			"name": "testHash",
			"outputs": [
				{
					"internalType": "uint256",
					"name": "",
					"type": "uint256"
				}
			],
			"stateMutability": "pure",
			"type": "function"
		}
	]
}