{
	"data": {
		"bytecode": {
			"linkReferences": {},
			"object": "608060405234801561001057600080fd5b50613086806100206000396000f3fe608060405234801561001057600080fd5b50600436106100415760003560e01c80630588bc7b1461004657806362d723e114610076578063f47d33b5146100a7575b600080fd5b610060600480360381019061005b9190612e44565b6100d8565b60405161006d9190612e8f565b60405180910390f35b610090600480360381019061008b9190612e44565b610169565b60405161009e929190612eaa565b60405180910390f35b6100c160048036038101906100bc9190612e44565b61082a565b6040516100cf929190612eaa565b60405180910390f35b60008083905060006100ea8282610169565b80925081935050507f30644e72e131a029b85045b68181585d2833e84879b9709143e1f593f000000180610147577f4e487b7100000000000000000000000000000000000000000000000000000000600052601260045260246000fd5b84830891506101568282610169565b8092508193505050819250505092915050565b6000806000610176610d91565b905060008060dc9050600060dc905061018d612e0c565b610195612e0c565b61019d612e0c565b6101a5612e0c565b6000805b878111610781576000808214156101c357600090506101d3565b6001826101d09190612f83565b90505b8a8260dc811061020c577f4e487b7100000000000000000000000000000000000000000000000000000000600052603260045260246000fd5b60200201519250600082141561022f578e886102289190612ed3565b9950610286565b82858260dc8110610269577f4e487b7100000000000000000000000000000000000000000000000000000000600052603260045260246000fd5b6020020151896102799190612ed3565b6102839190612ed3565b99505b898a6102929190612f29565b878360dc81106102cb577f4e487b7100000000000000000000000000000000000000000000000000000000600052603260045260246000fd5b602002018181525050868260dc811061030d577f4e487b7100000000000000000000000000000000000000000000000000000000600052603260045260246000fd5b6020020151878360dc811061034b577f4e487b7100000000000000000000000000000000000000000000000000000000600052603260045260246000fd5b602002015161035a9190612f29565b868360dc8110610393577f4e487b7100000000000000000000000000000000000000000000000000000000600052603260045260246000fd5b6020020181815250506001896103a99190612f83565b82101561052d5760008214156104545789868360dc81106103f3577f4e487b7100000000000000000000000000000000000000000000000000000000600052603260045260246000fd5b60200201516104029190612f29565b8e61040d9190612ed3565b858360dc8110610446577f4e487b7100000000000000000000000000000000000000000000000000000000600052603260045260246000fd5b602002018181525050610528565b89868360dc811061048e577f4e487b7100000000000000000000000000000000000000000000000000000000600052603260045260246000fd5b602002015161049d9190612f29565b848260dc81106104d6577f4e487b7100000000000000000000000000000000000000000000000000000000600052603260045260246000fd5b60200201516104e59190612ed3565b858360dc811061051e577f4e487b7100000000000000000000000000000000000000000000000000000000600052603260045260246000fd5b6020020181815250505b6105ae565b848160dc8110610566577f4e487b7100000000000000000000000000000000000000000000000000000000600052603260045260246000fd5b6020020151858360dc81106105a4577f4e487b7100000000000000000000000000000000000000000000000000000000600052603260045260246000fd5b6020020181815250505b6001896105bb9190612f83565b821015610699576000821415610613578e848360dc8110610605577f4e487b7100000000000000000000000000000000000000000000000000000000600052603260045260246000fd5b602002018181525050610694565b848160dc811061064c577f4e487b7100000000000000000000000000000000000000000000000000000000600052603260045260246000fd5b6020020151848360dc811061068a577f4e487b7100000000000000000000000000000000000000000000000000000000600052603260045260246000fd5b6020020181815250505b61076d565b89868360dc81106106d3577f4e487b7100000000000000000000000000000000000000000000000000000000600052603260045260246000fd5b60200201516106e29190612f29565b848260dc811061071b577f4e487b7100000000000000000000000000000000000000000000000000000000600052603260045260246000fd5b602002015161072a9190612ed3565b848360dc8110610763577f4e487b7100000000000000000000000000000000000000000000000000000000600052603260045260246000fd5b6020020181815250505b50808061077990612fc1565b9150506101a9565b50826001886107909190612f83565b60dc81106107c7577f4e487b7100000000000000000000000000000000000000000000000000000000600052603260045260246000fd5b6020020151826001896107da9190612f83565b60dc8110610811577f4e487b7100000000000000000000000000000000000000000000000000000000600052603260045260246000fd5b60200201519a509a505050505050505050509250929050565b60008060008060008691507f30644e72e131a029b85045b68181585d2833e84879b9709143e1f593f00000018061088a577f4e487b7100000000000000000000000000000000000000000000000000000000600052601260045260246000fd5b82830992507f30644e72e131a029b85045b68181585d2833e84879b9709143e1f593f0000001806108e4577f4e487b7100000000000000000000000000000000000000000000000000000000600052601260045260246000fd5b83840992507f30644e72e131a029b85045b68181585d2833e84879b9709143e1f593f00000018061093e577f4e487b7100000000000000000000000000000000000000000000000000000000600052601260045260246000fd5b82840992508590508695507f30644e72e131a029b85045b68181585d2833e84879b9709143e1f593f00000018061099e577f4e487b7100000000000000000000000000000000000000000000000000000000600052601260045260246000fd5b838208965060006001905060006109b3610d91565b90505b6000818360dc81106109f1577f4e487b7100000000000000000000000000000000000000000000000000000000600052603260045260246000fd5b602002015114610c14577f30644e72e131a029b85045b68181585d2833e84879b9709143e1f593f000000180610a50577f4e487b7100000000000000000000000000000000000000000000000000000000600052601260045260246000fd5b818360dc8110610a89577f4e487b7100000000000000000000000000000000000000000000000000000000600052603260045260246000fd5b60200201518a0893507f30644e72e131a029b85045b68181585d2833e84879b9709143e1f593f000000180610ae7577f4e487b7100000000000000000000000000000000000000000000000000000000600052601260045260246000fd5b84850994507f30644e72e131a029b85045b68181585d2833e84879b9709143e1f593f000000180610b41577f4e487b7100000000000000000000000000000000000000000000000000000000600052601260045260246000fd5b85860994507f30644e72e131a029b85045b68181585d2833e84879b9709143e1f593f000000180610b9b577f4e487b7100000000000000000000000000000000000000000000000000000000600052601260045260246000fd5b84860994508792508897507f30644e72e131a029b85045b68181585d2833e84879b9709143e1f593f000000180610bfb577f4e487b7100000000000000000000000000000000000000000000000000000000600052601260045260246000fd5b8584089850600182610c0d9190612ed3565b91506109b6565b8893507f30644e72e131a029b85045b68181585d2833e84879b9709143e1f593f000000180610c6c577f4e487b7100000000000000000000000000000000000000000000000000000000600052601260045260246000fd5b84850994507f30644e72e131a029b85045b68181585d2833e84879b9709143e1f593f000000180610cc6577f4e487b7100000000000000000000000000000000000000000000000000000000600052601260045260246000fd5b85860994507f30644e72e131a029b85045b68181585d2833e84879b9709143e1f593f000000180610d20577f4e487b7100000000000000000000000000000000000000000000000000000000600052601260045260246000fd5b84860994507f30644e72e131a029b85045b68181585d2833e84879b9709143e1f593f000000180610d7a577f4e487b7100000000000000000000000000000000000000000000000000000000600052601260045260246000fd5b858908975088889650965050505050509250929050565b610d99612e0c565b600060405180611b800160405280600081526020017f0fbe43c36a80e36d7c7c584d4f8f3759fb51f0d66065d8a227b688d12488c5d481526020017f0b1be1e55d1138dcfc4eeee6618b1b7cde5c4a262e83139555673f5751efc1c981526020017f27c0849dba2643077c13eb42ffb97663cdcecd669bf10f756be30bab71b86cf881526020017f2bf76744736132e5c68f7dfdd5b792681d415098554fd8280f00d11b172b80d281526020017f02aef041c0700b1b4b2c4629195a5a3c737b1ea990e32486c9e2d748cec5856781526020017f282767ed3103cd92e2b5593b56115d06ae8d9ddc64255baea0764a3f651e9b2f81526020017f10f3a13e8bb8523daf4769cff22133d7ad0823f6e220567f516ba73eac4f4c3481526020017f0fef545f7ed94f69e3485fb572d1e82497fd1f63a84cd2d007fff998f7e40bdd81526020017f15ceee0e1c70f77bd1136f3709d40c4298e75763b8595db0c41daf954c4537ce81526020017f0a9baee798a320b0ca5b1cf888386d1dc12c13b38e10225aa4e9f03069a099f581526020017f2670d407ad0b5a999abd17b3f98dbe505989622060911b2bcee42e2d51b32c7681526020017f161ed19c62ea260285d1fbc1350909f6008b8c95ef331a4d154f5fae54eb8b1681526020017f1a4dc528312f210eb17dfb6851f05fa4cd7e0139852ebbf4ae00590b88c8855a81526020017f25147dcc3df52742c7329ca5563c4c4fd696489c63394bc1415ecbfb1226875f81526020017f01a811a20cda427c2b6ad3d58164136f874ffb51415beed111a52bf31006016a81526020017f0824de9e43d882ee2a068eea1318a0dc3da826e52825768765ae4774621b2a6381526020017f10b4f82b62f0fc9a53ffaf9f21359e56712d2045fa64cb8f5fe7beeb230c554f81526020017f2d150f8fda7df0d566e8018b6470372e3c161837ca59a53fa1d1d27e4452a0af81526020017f281e90a515e6409e9177b4f297f8049ce3d4c3659423c48b3fd64e83596ff10181526020017f11dd375328f0481fb8a78d762b28cec882569c0434ee7ce4c949a0c701bf3e7c81526020017f17de91f8113f9443a73c8f2f1274fc39021217080b4d476127ca3c7ee1f25c0581526020017f0bf2b7e871ca735f716032e68b757c912b2ffe442c58cb03cc30b52b9b24bced81526020017f0a3908129452ca7d00584afd40b6a4a71f0e856fff2d71c1efd6f607486195c081526020017f253e5bbfe718ac84611d8e52c9e70573ef235ec1c22724484b087e5c3452aa3581526020017f0a380e47fbd10c830a8499cece42bb5e4e95adc619aab8962db105e019265fa781526020017f24e53af71ef06bacb76d3294c11223911e9d177ff09b7009febc484add0beb7481526020017f1a43144a8bbba4cf8c6b2785e1a75d29544a1a98b0524c1984afd2b698f2138f81526020017f0562fabab7b28094d180eb5917ff5b5a01557afe100bcf971b724d9736d28e4a81526020017f042ca040b9419be4c81292c916998dfd67990a13cad5d3c48e9bbdfd6351b06581526020017e5449be1e493e0ba054f063a30538d3a5ebe4a0f857ef981f0152c5625dac4e81526020017f29bae21b579d080a75c1694da628d0ecfd83efc9c8468704f410300062f64ca981526020017f21950fd25b80edcab7d4c642601992e06654338d0308d8ad1565fbb8b90fce4081526020017f2b7c83a5c9472ef3c780b5ec5405db512e0ad3d500edcf7c46693be30e2f183f81526020017f0c354c168e5913be8d3cd037600a911d75b5e52529052ec3ca5e053bd401c34d81526020017f0929db368ef2af2d29bca38845325b0b7a820a4889e44b5829bbe1ed47fd4d5281526020017f16531d424b0cbaf9abbf2d2acde698462ea4555bf32ccf1bbd26697e905066f681526020017f03cd84e6190c3f2636cb944c82c30fb075769b4676b2a0f0cdcb6fb3429d76f181526020017f0def067b7df381dd5650e5ca0cdaec55f8533021da5ed14f954dd2b27023f48481526020017f0ee9c4621642a272f710908707557498d25a6fdd51866da5d9f0d205355a618981526020017f18017fcc05938635dc7c6de22f78d6a96daf60c0c33d8e775802be1cdb5a72ee81526020017f2cc0823ed1d33029597dc970c98c3b17421478a4e3241cb204fc5feab7a5ee7981526020017f1679a0c60f408d8915f0b822c2866d858432f062eea7ce020fcdd4b63303d2f181526020017f0642e8800a48cc04c0168232c6f542396597a67cf395ad622d947e98bb68697a81526020017e569a003785b51067c530fe3a28f55e9363c821d6c35d9dc3c4d322bc0e3df181526020017f2ca7148d40d1dffbc857d2d387c5b12d1ebc6409c37b23473a6a2e0d2bb24fdf81526020017f07085e102e77f24e456d886f461173b14e72f7081c41b7e891e69b597586441881526020017f2605b9b909ded1b04971eae979027c4e0de57f3b6a60d5ed58aba619c34749ce81526020017f10e54f3fa759dd117dbef6454b0c8c1a76ae867ac758904117f919fec46228cc81526020017f2ac5905f9450a21ef6905ed5951a91b3730e3a2e2d62b50bdeb810015d50376b81526020017f196dcb542dc5dc51dd05e93f3c0b6de0584eb7295fc645a8b8629512057b967881526020017f06e2724ea4355bea4b417e567bbfc20033307b15f0d2dd4abf6778bbea7270e181526020017f0e786007d0ce7e28a90e31d3263887d40c556dec88fcb8b56bc9e9c05ecc0c2981526020017f0b814ed99bd00eca389b0022663dbfddfbfa15e321c19abcf1eaf9556075fb6881526020017f04f79535e00c8e918d22cfdc96b4dc310474df0ef8bb5abc21cab45ab25c093081526020017f1a003f39f26d1946291d39f12622b187a5ddc940ee4a37659b646deda0722bf181526020017f0c41a6a8c884710137d7c78fe60cb115b7a195511d19c1a866bf9b7bfdf6501f81526020017f1389e0264605b298f1dffb4b71f7b5ece4156caa9e1a4ce51e2f52e887e8ac5681526020017f1c6bf6ac0314caead23e357bfcbbaa17d670672ae3a475f80934c716f10aca2581526020017f0bdbb96fa5c73c55450cc9348d147f4d3d554dd498d09c3b6d995fb8951a643181526020017f1d199f2e0212faff4d49341b2c16b888af6e152fe52c76cd364850e242b0697b81526020017f0206f877af22e702a1d11a12eadd06581ee96969440528d3ec695b008c8c2d1a81526020017f2287cef47bc395079ba67071bfc62b6d434bd8b587db1c10c2f8b7dd3296e39481526020017f13ceeeb301572b4991076750e11ea7e7fcbfee454d90dc1763989004a1894f9381526020017f243cd698bc31534698384234086d0b05373350b0bb0bcaa0880937187135fe6281526020017e5f3e9502bcc9cdaff22b01bfbd157c038d0bf9d2f994de082b9d2a78a258b381526020017f12692a7d808f44e31d628dbcfea377eb073fb918d7beb8136ea47f8cf094c88c81526020017f260e384b1268e3a347c91d6987fd280fa0a275541a7c5be34bf126af35c962e081526020017f16fb013611a71040326dd1fa7cc948f484617c015bfbe3679574fca48b6dadd881526020017f27519b325c443a8a61972952280f298f56879fa427b5ba7e97357dd6230bf04881526020017f248d7432273cc8d37acb20fc8bd1c42729d49de75812ba98cc4d5c1ebdbfe90681526020017f296632d868ae6d5178c87f83a805867400246284fa6f02ccc4cbf0d22c457f7481526020017f0fc4c0bea813a223fd510c07f7bbe337badd4bcf28649a0d378970c2a15b3aa581526020017e53f1ea6dd60e7a6db09a00be77549ff3d4ee3737be7fb42052ae1321f667c381526020017f2a0236ac364a48575730567432e8608546e1eb422e19361ad861ef06bbaa4a0081526020017f299e29684dbbad05668eff255292aeecd250c636476234334c197271e972520481526020017f1c3c5d45dd862fcbba507c30740cafb0f37e5b8c1dea76b3f46234b165ad40bd81526020017f190db6088d1f103103047bf2dc934e1311f68981e5a5eef29b11f43d8aa551b181526020017f153dae43cef763e7a2fc9846f09a2973b0ad9c35894c220699bcc2954501c6bd81526020017f135bf03db291930e1a0f35a0959bcf9c1d08b378604edb731c8dcde50090e87781526020017e63a5c4c9c12dcf4bae72c69f3a225664469503d61d9eae5d9553bfb006095b81526020017f1af9136a286264f6f230246b925772426d682ba0d75c462a0f18a2ae6dc9d82981526020017f180753a64f5d6c5ac2d2b6fdc31e2ff7f0f14e77a1c6e6ff0a9fcc33914f483a81526020017f047511ce5f700c7622cffccf387cc2d313f432aa82a642d1b2757ceec423bcf281526020017f303b2e0148b6e2e840210a07aad2a1363e6e0995acddd414ad828d7c2437465a81526020017f0ae2c1b55001c365f165f98973a139116caa3230e3f95c417169be16c51ad47581526020017f040273e4476ca817284ea880868d3b1ffdae6f8e6bb9cd375d79ef55499554a081526020017f17e650317d66cdc90afb8e5f46c39a7368ebc43964d2696fcc869bc4baa5317281526020017f028cf41e1568f34c298a1907c42d3345245414f11243f73c364c6ed1aeaf8c0d81526020017f0b1227b61b387d976fbd1def142ccb1f6525447f81dc39c4fa90ad497e32c9f081526020017f058d6ba2805c898fb504a70b4a30b2147f409f0b87ada948c1d44bc4048ff15581526020017e129c7cd00e42ed05a37dbceb80d47b65e1d750ef2148278a54723fdf42c4cc81526020017f172e37fd8e22a67b33e39e53e472be036768f44d0db94a2bc6f4f958cb19588581526020017f047b173545551de00d61f1da993dcb1d7053d95b9f39091b35d25143e311f5e981526020017f2091e82677269f493582929eda966641bd9f9e9b790c2e0382c081d999f9c32b81526020017f2096bacda358c7852feceecda079851c86c891e261057bdd20ae592a2bf63e7c81526020017f29894ebd83a0b97b8d77c42299de988878354a8fcebb20257290b0ffd89cdd8a81526020017f086903abb30acb73994b6192f8a252cbe45de344dd52a64b4f66c13f652db8a081526020017f24f14d18d66c1856e3f6a8abfd9a0484b0b2f0537f9128f65d5e81c5e1ba896281526020017f1874b5c285e4210f8864c029856dd6023f64334ab15ed2d3eb50466e86a44a0781526020017f063d0b01a883ac19b227113a85d5ebadd942e4a944d3a4fcffb2a3c0e1cb0f1681526020017f269e6bea132772bc395c64451eb818dba2ebc6aa296ad3ce36e7c8dddbf249ef81526020017f03797301a98cdfe52c2e248bde41b2ad09e5dc86ee7b36e650ccf4e25b79f46081526020017f163308ae1413439a1708c5fd556bf624cddb3097baefca7d34915ae04e26eb1e81526020017f08cd97bf5077b356e26d76194df9ddf9324654de795e692fe72e3e628ebd4cbf81526020017f09a6fddec902d117780b231a9e1f5852093bbe5cef4a0cf93dfbef782df536b481526020017f0549b629f1d3860b8ea2a224ed088f0672b79618912f0cae5576471099eaf54681526020017e793e6dfe7f4611ee027f69d4b400af1eb7fb0e3f6266f99fc1999e9c978c6281526020017f283857e88bbf48dc9b7028273ed6840491f4514ecbaf948b54d248f228716efa81526020017f223da47c2ec498722f26aab8927b70a8bd5f0c08f1d15e4a5bbae244128e69b581526020017f166c6bf34a1e6fe1e1eaaf69d17530d5d6b834c9af51afa281129bb4993d8ba281526020017f18dd55b4a83a53f2ee578eb3e6d26f594824d44670fc3f4de80642344d15c09a81526020017f0e88ca3c50f6e50e0b69e7ea68ec50092e8b92b499e29cd91d29b00b5c3604b381526020017f1901d8f4f2c8449128e00663978f2050f2eb1cd6acb60d9d09c57c5d46ee54fe81526020017f2e611916dd7984c5c692e9a2cbde6d04c425f7a319a6fd3698e508d1233a7db381526020017f01c0b2cbe4fa9877a3d08eb67c510e8630da0a8beda94a6d9283e6f70d268bc581526020017f0b1d85acd9031a9107350eed946a25734e974799c5ba7cff13b15a5a623a25f081526020017f204497d1d359552905a2fe655f3d6f94926ea92d12cdaa6556ec26362f239f6481526020017f1ee4be22419c99e69ebd1c27993f9b1d51b6824b7379ceac5e5ca2cbb2a2a5ec81526020017f243f46e353354256ab8fe0ca4e9230dfc330bc163e602dfeaf307c1d1a7264b981526020017f12b77492849bdefb1bbc5c55c3c82d9243f39a6009c361c7745280a45e9ecce781526020017f2f312eef69a33d9fa753c08840275692a03432b3e6da67f9c59b9f9f4971cd5681526020017f2eceeb23cdf17babea42cdc72796a98469730a063b793c893a8ca496e0efbbff81526020017f17ca868794a5a2b09ff219856b27d11890abf3d59958a90a13e569ff3abd8a5f81526020017f0ec3c87f00cf5519cd60e5e894dfc3382e28a73f6a62b41760b937c255df83a681526020017f0b0a5017a4a351d91f366611585b8d160379b669b243e657d8df7776f4a238b581526020017f2899c036db850a580a15f86e9ae418e9cb2ef4f15265d825f09f16870ec8c33681526020017f07c085730b2b73e8012a1b69807c18db4b962ce1fee9aee363ec111831f8a7bd81526020017e8cc717b97762132791cba6294baf287217cb1f8d3467898de67018cca91f4481526020017f164eda75fda2861f9d812f24e37ac938844fbe383c243b32b9f66ae2e76be71981526020017f2f15c2779a9570363b897cdeb055ddfe284f6571fbe189a414b33f5bf31afcbc81526020017f24fc7ca023cb6e65f3e6d9c4c0fa92776956fbd1f1abe119b1b4b9dfb0334b4b81526020017f09e0573e21c5e8107335eaed49658e7e063a5ff33e167aa34ee9e383a3ef598d81526020017f132f51760e46faa17b7bab733908e244952d68c19dc6b20f0d95d431b1c59bf081526020017f0242f85dca68c13f3189dd0096c9ab2b0cf01e4754a9280cfcc411b7fd55d77181526020017f042cae37aec897c9a57635298566baf59edc50fcc7c21db9d049071b0a344b8481526020017f095526cb4b2cc423e912e906df854e76a5bc30530927c87732d34a4a0088187081526020017f063f1db81f5540a85b592e5e4567fcb0a6f615803de26f24012a32a2b18a70a781526020017f2a626b47b2d26d2cda681fffe5fa089209cdcd79985d2965c809aa073528a02581526020017f17d5b87c3657df3c89d69eba72fc4c3480a0f4be451896520807d892481628fd81526020017f284e583469ea05fdf11f2ae897a70e557c8703ae3c18726e78a95023d5b98d2381526020017f255daa128f75da34d00d137a0eee7e06ead6bf071c830e3c5c78b92a2d57def581526020017e52e9a9b5f419b14f3125f903a33bdd519ab8ed06c3143b9ca13ef1d11e0c2d81526020017f0582d5b3b958cd5eb1a90e55b3ef8eb245d8ecdba20dba510110ac923f3a989c81526020017f04df8c0defdc02280cf831b967866c926165551a664cba547c677a37951c366081526020017f2382d616e8c47fdd4fbbb676a088dc9d20469c41cff2f587313498ec5d0b1b0281526020017f0d086948c84c5518221f92df23f89c4a360e89aa08bd10658158d2dd68060c9181526020017f0af02d0e1317d88c923e7a30aee3f519da6d9660607ea33def8b7d84465093fe81526020017f23b0c3ba6f80cf25f3073e49cad576a6c8f50fdd3368c6636ff329e0837bd97281526020017ee115c4a98efae6a3a5ecc873b0cef63ccd5b515710a3ab03ec52218f784dc981526020017f18ec1888a2f457d4a6e26f7dbc0dcfafb4a91b54c37c7e72e9ea61d577a202a781526020017f226a91a571ed1b2f9061e56f764fdfe8a4ade867a8a359ac46308e76104c62f681526020017f1f71e007903cbfe8c8898fe2e8532eb94b29ce61e49759565cb845d7ce62aa1581526020017f24e65c718938c2b937378e7435332174329730bde85a4185e37875824eb4985981526020017f081b774b0a70dc72788a142dca2be4a1c31de964fa1a5df0b5b28901684a8eb881526020017f2f0c13445d90cb0ebc547403eb00095d6b790cbd80204cf69d737f8a33d1ffa681526020017f23248698612cd8e83234fcf5db9b6b225f4b0ba78d72ef13ea1edff5f0fb029881526020017f1118c071b4fb39eb0db94f9017b1baf96d7e9a4e8f40edd46ac68397510cf0d081526020017ef7f822f933820f4731c9ff31b4dc51256770608cbc2fabb574b1b945c82ef881526020017f01cd399556445e3d7b201d6c5e56a5794e60be2cfd9a4643e7ead79bb4f60f7981526020017f1b58716ce9cada90d6a0d672ff670579d37fc4b39d27bb8d9c92c7e3b3a8312c81526020017f058402b966fb4ab2cd74280ef64d4956f68fbcfb11b6815af104fb76b817181181526020017f2398eafda87885d51410d7d592c0ca308518a760f0c7eb3e5025b7976986b2ad81526020017f0dd2dfe8f3aa9e4d3ceb2b16f4a19a95b71b92da9cd9c778622bae6482c9d72881526020017f1482ac3e7e4f321627850d95a13942aea6d2923402b913046856ff7e8aaf9aff81526020017f17332b4c7aac2a07ccfe954de7ad22ccf6fcb4c5fa15c130ed22a40ae9398f4781526020017f132ccb7a7c7903f9f0a001d96f8410c6b81382764b7d9f280b7b993b7fdd857f81526020017f1521dbdf2f88fd7c10c0b3200849caca5b4aae7dbb2b7bb8d08bc01609b7b08281526020017f2a0892d6b1ae3cabd6a34b075099d59a3bff87e01694c5895bad732373526d3281526020017f15a16435a2300b27a337561401f06682ba85019aa0af61b264a1177d38b5c13c81526020017f22616f306e76352293a22ab6ee15509d9b108d4136b32fa7f9ed259793f392a181526020017f2132d93f742f2ac654908e42903beaf9d0d32dc23b5efd0fc680a6e8dae1851d81526020017f0e6264ac0dc6688a1fd7be3423b7267356bbb28b6a50a1149a901a2942ae638e81526020017f17dead3bfa1968c744118023dead77cdbee22c5b7c2414f5a6bdf82fd94cf3ad81526020017f2bef0f8b22a1cfb90100f4a552a9d02b772130123de8144a00c4d57497e1d7f481526020017f2e249d189c5ab035f344531c0e4b9b1ba214be09a0f861a1fbf521384d152a0e81526020017f0b468ebcf7fc9de942e6d629d607e97ee1dca77426ee678a444f7a255d6b4dfd81526020017f13681ba8a95a21e65720051ff644e617f6e6d285e65b0dcc2ad0cba02338d9a681526020017f0bb7f176c4c62cab92855f63a0c9e7374f1e7e89227dc2703a672b43491ad64481526020017f02aa427b8648ae82ff39c8f47497e596c2a49bc16a845262a409a76836768a7881526020017f0c40f19ecd5513a5ea3acef661b2fa797737dff7847fee1b86522277eb3ebcc381526020017f1861ae1e114291d107945129389362b0923d2bd63b8db9a51bef3a9004fe629581526020017f2a6ba2a368b91dd670ab0224bc29c24c852397436035daef124f258f08cdebf181526020017f25b068c942724c424ed5851c9575c22752c9bd25f91ebfa589de3d88ee7627f981526020017f2c0767c7996f9a36404cca45f1823a62707d38f7db68199c4bb32b410e01e1a681526020017f067a20b1df30438e616c4a461dce9e6225b52d0cc49daf3b9e54de8f0f51854081526020017f215deaf3c2fe9f8a3785e8bc5f7872525d2fd0f0eee1d69316bd8797bb4b70c981526020017f2fb50b2d3af74321e7ddbcf3f573e116586e4cb458dd9be75d9242f27d0fcc7481526020017f02c871f0ddf5dfc9e98ce87f78923799449f3b2fe580816aa16ea2502f1bad5f81526020017f0871d0eb7536b5ad54e6a9588d9e9770544eb394e71fed7dae196604956280a381526020017f13218626665c420d3aa2b0fa49224a3dce8e08b8b56f8851bd9cb5e25cb3042d81526020017f0e9fc2cb907861c7dc61b6c1207b73b3a6d5ace02773f6b0b1bfcfb91873e30e81526020017f2a79e5febcf2f8b42ebdffbb42831bea32170ebe2a12121ad4c604b0d22d1c4681526020017f2943a0e1e2336d7694fc2df0981487584fa76bbc4feb2a7bf952f59cd5f56ac981526020017f196bc98252f63169ed79073ee091a0e8ed0b5af51017da143940c00bdb86370981526020017f17e885a4e49713520e743bca0d6ab7a40f1cfcf0f8fc51afc13aa6aaa8fad6be81526020017f26d61bd45f606ca6514b9b293d0ad15655ebe762faed8da11947aa319dc56d4381526020017f1efcda9d986cddcf431af4d59c6a7709d650885b7886cba70f0e7cd92b331cdc81526020017f123925acd4f1aa1e2a22c32cce354515ca98bde87953b3f3ac6240eb7f60418e81526020017f14704dd362d250edaa89359aa8cda1a725de051592e76a5ccddf83ce44c7e41c81526020017f1b0273b47db1989e107d5ac9e86d5109438713731fcb8b97696ecb44448dd0a481526020017f17a993a6af068d72bc36f0e814d29fef3f97d7a72aa963889b16a8457409861a81526020017f0e535cb0c3f1cdb026576975dc6d29e64093f1e1d5548d90a2787c69fe5a07b381526020017f216c3a201f899c065bce489a4603ec90f57e6d5a5642d6b56d63c0ab3c072b1981526020017f0f208cbc3b076c66eb9f87575ad4771877ae410473d21ee109799d04d97bc47c81526020017f1c2685c8bb95d9cbd97a5d24ef18089d6064024b701e1c8dedd057a6df96787781526020017f0f55ca8ae78360fa3d9b15388528a67eccf126335f9ca6b3eec47209f9fa595781526020017f263e1195090d00be1d8fb37de17ccf3b66d180645efa0d831865cfaa8797769e81526020017f24cacf436717ac539e5b7bf56f5ebb01e32bed600dbecd166b14a862aa85029b81526020017f105c861f78d37579808457eef387b09fa125918e0d2011e00a878d489b97a2a981526020017f050696b356b09defbc3b0a5d653f22c73a0c5e18b104bf47396c58fb9f89e62081526020017f2185b14275ecd4c36288d9d5c844f4dfcc3c61dda109bb64c5c4f1a4ae37b99881526020017f0c715b745408b0ba9c797b8199d412f71063e4409b82cda606100c899237226281526020017f23900264b13be89a7a24fb592301daae20bf031546b26237e35ce6edef6cc83c81526020017f1f7476211105b3039cef009c51155ae93526c53a74973ecfce40754b3df1052181526020017f284aad6697126c6afc69b61cec7f8e86447ac4afb1543014d23b3f3151a5a6e281526020017e9b9d0a9720fffc5b3650a1c0b4debbda89ddb79af5958638cb3d9f02a5a49381526020017f186e8b3288ff778ee79bc5445ab38f3cc2af91862231912ca9c22f22b2b0748981526020017f04af9e46dbc42b94137981fece56e9775d00fc101129f08fd6b781f439c20c0b8152602001600081525090508091505090565b60405180611b80016040528060dc90602082028036833780820191505090505090565b600081359050612e3e81613039565b92915050565b60008060408385031215612e5757600080fd5b6000612e6585828601612e2f565b9250506020612e7685828601612e2f565b9150509250929050565b612e8981612fb7565b82525050565b6000602082019050612ea46000830184612e80565b92915050565b6000604082019050612ebf6000830185612e80565b612ecc6020830184612e80565b9392505050565b6000612ede82612fb7565b9150612ee983612fb7565b9250827fffffffffffffffffffffffffffffffffffffffffffffffffffffffffffffffff03821115612f1e57612f1d61300a565b5b828201905092915050565b6000612f3482612fb7565b9150612f3f83612fb7565b9250817fffffffffffffffffffffffffffffffffffffffffffffffffffffffffffffffff0483118215151615612f7857612f7761300a565b5b828202905092915050565b6000612f8e82612fb7565b9150612f9983612fb7565b925082821015612fac57612fab61300a565b5b828203905092915050565b6000819050919050565b6000612fcc82612fb7565b91507fffffffffffffffffffffffffffffffffffffffffffffffffffffffffffffffff821415612fff57612ffe61300a565b5b600182019050919050565b7f4e487b7100000000000000000000000000000000000000000000000000000000600052601160045260246000fd5b61304281612fb7565b811461304d57600080fd5b5056fea2646970667358221220cf276fb938d4c294c9dcc3a026b2ea91abb24150bce5e0df855c234920d7beac64736f6c63430008040033",
			"opcodes": "PUSH1 0x80 PUSH1 0x40 MSTORE CALLVALUE DUP1 ISZERO PUSH2 0x10 JUMPI PUSH1 0x0 DUP1 REVERT JUMPDEST POP PUSH2 0x3086 DUP1 PUSH2 0x20 PUSH1 0x0 CODECOPY PUSH1 0x0 RETURN INVALID PUSH1 0x80 PUSH1 0x40 MSTORE CALLVALUE DUP1 ISZERO PUSH2 0x10 JUMPI PUSH1 0x0 DUP1 REVERT JUMPDEST POP PUSH1 0x4 CALLDATASIZE LT PUSH2 0x41 JUMPI PUSH1 0x0 CALLDATALOAD PUSH1 0xE0 SHR DUP1 PUSH4 0x588BC7B EQ PUSH2 0x46 JUMPI DUP1 PUSH4 0x62D723E1 EQ PUSH2 0x76 JUMPI DUP1 PUSH4 0xF47D33B5 EQ PUSH2 0xA7 JUMPI JUMPDEST PUSH1 0x0 DUP1 REVERT JUMPDEST PUSH2 0x60 PUSH1 0x4 DUP1 CALLDATASIZE SUB DUP2 ADD SWAP1 PUSH2 0x5B SWAP2 SWAP1 PUSH2 0x2E44 JUMP JUMPDEST PUSH2 0xD8 JUMP JUMPDEST PUSH1 0x40 MLOAD PUSH2 0x6D SWAP2 SWAP1 PUSH2 0x2E8F JUMP JUMPDEST PUSH1 0x40 MLOAD DUP1 SWAP2 SUB SWAP1 RETURN JUMPDEST PUSH2 0x90 PUSH1 0x4 DUP1 CALLDATASIZE SUB DUP2 ADD SWAP1 PUSH2 0x8B SWAP2 SWAP1 PUSH2 0x2E44 JUMP JUMPDEST PUSH2 0x169 JUMP JUMPDEST PUSH1 0x40 MLOAD PUSH2 0x9E SWAP3 SWAP2 SWAP1 PUSH2 0x2EAA JUMP JUMPDEST PUSH1 0x40 MLOAD DUP1 SWAP2 SUB SWAP1 RETURN JUMPDEST PUSH2 0xC1 PUSH1 0x4 DUP1 CALLDATASIZE SUB DUP2 ADD SWAP1 PUSH2 0xBC SWAP2 SWAP1 PUSH2 0x2E44 JUMP JUMPDEST PUSH2 0x82A JUMP JUMPDEST PUSH1 0x40 MLOAD PUSH2 0xCF SWAP3 SWAP2 SWAP1 PUSH2 0x2EAA JUMP JUMPDEST PUSH1 0x40 MLOAD DUP1 SWAP2 SUB SWAP1 RETURN JUMPDEST PUSH1 0x0 DUP1 DUP4 SWAP1 POP PUSH1 0x0 PUSH2 0xEA DUP3 DUP3 PUSH2 0x169 JUMP JUMPDEST DUP1 SWAP3 POP DUP2 SWAP4 POP POP POP PUSH32 0x30644E72E131A029B85045B68181585D2833E84879B9709143E1F593F0000001 DUP1 PUSH2 0x147 JUMPI PUSH32 0x4E487B7100000000000000000000000000000000000000000000000000000000 PUSH1 0x0 MSTORE PUSH1 0x12 PUSH1 0x4 MSTORE PUSH1 0x24 PUSH1 0x0 REVERT JUMPDEST DUP5 DUP4 ADDMOD SWAP2 POP PUSH2 0x156 DUP3 DUP3 PUSH2 0x169 JUMP JUMPDEST DUP1 SWAP3 POP DUP2 SWAP4 POP POP POP DUP2 SWAP3 POP POP POP SWAP3 SWAP2 POP POP JUMP JUMPDEST PUSH1 0x0 DUP1 PUSH1 0x0 PUSH2 0x176 PUSH2 0xD91 JUMP JUMPDEST SWAP1 POP PUSH1 0x0 DUP1 PUSH1 0xDC SWAP1 POP PUSH1 0x0 PUSH1 0xDC SWAP1 POP PUSH2 0x18D PUSH2 0x2E0C JUMP JUMPDEST PUSH2 0x195 PUSH2 0x2E0C JUMP JUMPDEST PUSH2 0x19D PUSH2 0x2E0C JUMP JUMPDEST PUSH2 0x1A5 PUSH2 0x2E0C JUMP JUMPDEST PUSH1 0x0 DUP1 JUMPDEST DUP8 DUP2 GT PUSH2 0x781 JUMPI PUSH1 0x0 DUP1 DUP3 EQ ISZERO PUSH2 0x1C3 JUMPI PUSH1 0x0 SWAP1 POP PUSH2 0x1D3 JUMP JUMPDEST PUSH1 0x1 DUP3 PUSH2 0x1D0 SWAP2 SWAP1 PUSH2 0x2F83 JUMP JUMPDEST SWAP1 POP JUMPDEST DUP11 DUP3 PUSH1 0xDC DUP2 LT PUSH2 0x20C JUMPI PUSH32 0x4E487B7100000000000000000000000000000000000000000000000000000000 PUSH1 0x0 MSTORE PUSH1 0x32 PUSH1 0x4 MSTORE PUSH1 0x24 PUSH1 0x0 REVERT JUMPDEST PUSH1 0x20 MUL ADD MLOAD SWAP3 POP PUSH1 0x0 DUP3 EQ ISZERO PUSH2 0x22F JUMPI DUP15 DUP9 PUSH2 0x228 SWAP2 SWAP1 PUSH2 0x2ED3 JUMP JUMPDEST SWAP10 POP PUSH2 0x286 JUMP JUMPDEST DUP3 DUP6 DUP3 PUSH1 0xDC DUP2 LT PUSH2 0x269 JUMPI PUSH32 0x4E487B7100000000000000000000000000000000000000000000000000000000 PUSH1 0x0 MSTORE PUSH1 0x32 PUSH1 0x4 MSTORE PUSH1 0x24 PUSH1 0x0 REVERT JUMPDEST PUSH1 0x20 MUL ADD MLOAD DUP10 PUSH2 0x279 SWAP2 SWAP1 PUSH2 0x2ED3 JUMP JUMPDEST PUSH2 0x283 SWAP2 SWAP1 PUSH2 0x2ED3 JUMP JUMPDEST SWAP10 POP JUMPDEST DUP10 DUP11 PUSH2 0x292 SWAP2 SWAP1 PUSH2 0x2F29 JUMP JUMPDEST DUP8 DUP4 PUSH1 0xDC DUP2 LT PUSH2 0x2CB JUMPI PUSH32 0x4E487B7100000000000000000000000000000000000000000000000000000000 PUSH1 0x0 MSTORE PUSH1 0x32 PUSH1 0x4 MSTORE PUSH1 0x24 PUSH1 0x0 REVERT JUMPDEST PUSH1 0x20 MUL ADD DUP2 DUP2 MSTORE POP POP DUP7 DUP3 PUSH1 0xDC DUP2 LT PUSH2 0x30D JUMPI PUSH32 0x4E487B7100000000000000000000000000000000000000000000000000000000 PUSH1 0x0 MSTORE PUSH1 0x32 PUSH1 0x4 MSTORE PUSH1 0x24 PUSH1 0x0 REVERT JUMPDEST PUSH1 0x20 MUL ADD MLOAD DUP8 DUP4 PUSH1 0xDC DUP2 LT PUSH2 0x34B JUMPI PUSH32 0x4E487B7100000000000000000000000000000000000000000000000000000000 PUSH1 0x0 MSTORE PUSH1 0x32 PUSH1 0x4 MSTORE PUSH1 0x24 PUSH1 0x0 REVERT JUMPDEST PUSH1 0x20 MUL ADD MLOAD PUSH2 0x35A SWAP2 SWAP1 PUSH2 0x2F29 JUMP JUMPDEST DUP7 DUP4 PUSH1 0xDC DUP2 LT PUSH2 0x393 JUMPI PUSH32 0x4E487B7100000000000000000000000000000000000000000000000000000000 PUSH1 0x0 MSTORE PUSH1 0x32 PUSH1 0x4 MSTORE PUSH1 0x24 PUSH1 0x0 REVERT JUMPDEST PUSH1 0x20 MUL ADD DUP2 DUP2 MSTORE POP POP PUSH1 0x1 DUP10 PUSH2 0x3A9 SWAP2 SWAP1 PUSH2 0x2F83 JUMP JUMPDEST DUP3 LT ISZERO PUSH2 0x52D JUMPI PUSH1 0x0 DUP3 EQ ISZERO PUSH2 0x454 JUMPI DUP10 DUP7 DUP4 PUSH1 0xDC DUP2 LT PUSH2 0x3F3 JUMPI PUSH32 0x4E487B7100000000000000000000000000000000000000000000000000000000 PUSH1 0x0 MSTORE PUSH1 0x32 PUSH1 0x4 MSTORE PUSH1 0x24 PUSH1 0x0 REVERT JUMPDEST PUSH1 0x20 MUL ADD MLOAD PUSH2 0x402 SWAP2 SWAP1 PUSH2 0x2F29 JUMP JUMPDEST DUP15 PUSH2 0x40D SWAP2 SWAP1 PUSH2 0x2ED3 JUMP JUMPDEST DUP6 DUP4 PUSH1 0xDC DUP2 LT PUSH2 0x446 JUMPI PUSH32 0x4E487B7100000000000000000000000000000000000000000000000000000000 PUSH1 0x0 MSTORE PUSH1 0x32 PUSH1 0x4 MSTORE PUSH1 0x24 PUSH1 0x0 REVERT JUMPDEST PUSH1 0x20 MUL ADD DUP2 DUP2 MSTORE POP POP PUSH2 0x528 JUMP JUMPDEST DUP10 DUP7 DUP4 PUSH1 0xDC DUP2 LT PUSH2 0x48E JUMPI PUSH32 0x4E487B7100000000000000000000000000000000000000000000000000000000 PUSH1 0x0 MSTORE PUSH1 0x32 PUSH1 0x4 MSTORE PUSH1 0x24 PUSH1 0x0 REVERT JUMPDEST PUSH1 0x20 MUL ADD MLOAD PUSH2 0x49D SWAP2 SWAP1 PUSH2 0x2F29 JUMP JUMPDEST DUP5 DUP3 PUSH1 0xDC DUP2 LT PUSH2 0x4D6 JUMPI PUSH32 0x4E487B7100000000000000000000000000000000000000000000000000000000 PUSH1 0x0 MSTORE PUSH1 0x32 PUSH1 0x4 MSTORE PUSH1 0x24 PUSH1 0x0 REVERT JUMPDEST PUSH1 0x20 MUL ADD MLOAD PUSH2 0x4E5 SWAP2 SWAP1 PUSH2 0x2ED3 JUMP JUMPDEST DUP6 DUP4 PUSH1 0xDC DUP2 LT PUSH2 0x51E JUMPI PUSH32 0x4E487B7100000000000000000000000000000000000000000000000000000000 PUSH1 0x0 MSTORE PUSH1 0x32 PUSH1 0x4 MSTORE PUSH1 0x24 PUSH1 0x0 REVERT JUMPDEST PUSH1 0x20 MUL ADD DUP2 DUP2 MSTORE POP POP JUMPDEST PUSH2 0x5AE JUMP JUMPDEST DUP5 DUP2 PUSH1 0xDC DUP2 LT PUSH2 0x566 JUMPI PUSH32 0x4E487B7100000000000000000000000000000000000000000000000000000000 PUSH1 0x0 MSTORE PUSH1 0x32 PUSH1 0x4 MSTORE PUSH1 0x24 PUSH1 0x0 REVERT JUMPDEST PUSH1 0x20 MUL ADD MLOAD DUP6 DUP4 PUSH1 0xDC DUP2 LT PUSH2 0x5A4 JUMPI PUSH32 0x4E487B7100000000000000000000000000000000000000000000000000000000 PUSH1 0x0 MSTORE PUSH1 0x32 PUSH1 0x4 MSTORE PUSH1 0x24 PUSH1 0x0 REVERT JUMPDEST PUSH1 0x20 MUL ADD DUP2 DUP2 MSTORE POP POP JUMPDEST PUSH1 0x1 DUP10 PUSH2 0x5BB SWAP2 SWAP1 PUSH2 0x2F83 JUMP JUMPDEST DUP3 LT ISZERO PUSH2 0x699 JUMPI PUSH1 0x0 DUP3 EQ ISZERO PUSH2 0x613 JUMPI DUP15 DUP5 DUP4 PUSH1 0xDC DUP2 LT PUSH2 0x605 JUMPI PUSH32 0x4E487B7100000000000000000000000000000000000000000000000000000000 PUSH1 0x0 MSTORE PUSH1 0x32 PUSH1 0x4 MSTORE PUSH1 0x24 PUSH1 0x0 REVERT JUMPDEST PUSH1 0x20 MUL ADD DUP2 DUP2 MSTORE POP POP PUSH2 0x694 JUMP JUMPDEST DUP5 DUP2 PUSH1 0xDC DUP2 LT PUSH2 0x64C JUMPI PUSH32 0x4E487B7100000000000000000000000000000000000000000000000000000000 PUSH1 0x0 MSTORE PUSH1 0x32 PUSH1 0x4 MSTORE PUSH1 0x24 PUSH1 0x0 REVERT JUMPDEST PUSH1 0x20 MUL ADD MLOAD DUP5 DUP4 PUSH1 0xDC DUP2 LT PUSH2 0x68A JUMPI PUSH32 0x4E487B7100000000000000000000000000000000000000000000000000000000 PUSH1 0x0 MSTORE PUSH1 0x32 PUSH1 0x4 MSTORE PUSH1 0x24 PUSH1 0x0 REVERT JUMPDEST PUSH1 0x20 MUL ADD DUP2 DUP2 MSTORE POP POP JUMPDEST PUSH2 0x76D JUMP JUMPDEST DUP10 DUP7 DUP4 PUSH1 0xDC DUP2 LT PUSH2 0x6D3 JUMPI PUSH32 0x4E487B7100000000000000000000000000000000000000000000000000000000 PUSH1 0x0 MSTORE PUSH1 0x32 PUSH1 0x4 MSTORE PUSH1 0x24 PUSH1 0x0 REVERT JUMPDEST PUSH1 0x20 MUL ADD MLOAD PUSH2 0x6E2 SWAP2 SWAP1 PUSH2 0x2F29 JUMP JUMPDEST DUP5 DUP3 PUSH1 0xDC DUP2 LT PUSH2 0x71B JUMPI PUSH32 0x4E487B7100000000000000000000000000000000000000000000000000000000 PUSH1 0x0 MSTORE PUSH1 0x32 PUSH1 0x4 MSTORE PUSH1 0x24 PUSH1 0x0 REVERT JUMPDEST PUSH1 0x20 MUL ADD MLOAD PUSH2 0x72A SWAP2 SWAP1 PUSH2 0x2ED3 JUMP JUMPDEST DUP5 DUP4 PUSH1 0xDC DUP2 LT PUSH2 0x763 JUMPI PUSH32 0x4E487B7100000000000000000000000000000000000000000000000000000000 PUSH1 0x0 MSTORE PUSH1 0x32 PUSH1 0x4 MSTORE PUSH1 0x24 PUSH1 0x0 REVERT JUMPDEST PUSH1 0x20 MUL ADD DUP2 DUP2 MSTORE POP POP JUMPDEST POP DUP1 DUP1 PUSH2 0x779 SWAP1 PUSH2 0x2FC1 JUMP JUMPDEST SWAP2 POP POP PUSH2 0x1A9 JUMP JUMPDEST POP DUP3 PUSH1 0x1 DUP9 PUSH2 0x790 SWAP2 SWAP1 PUSH2 0x2F83 JUMP JUMPDEST PUSH1 0xDC DUP2 LT PUSH2 0x7C7 JUMPI PUSH32 0x4E487B7100000000000000000000000000000000000000000000000000000000 PUSH1 0x0 MSTORE PUSH1 0x32 PUSH1 0x4 MSTORE PUSH1 0x24 PUSH1 0x0 REVERT JUMPDEST PUSH1 0x20 MUL ADD MLOAD DUP3 PUSH1 0x1 DUP10 PUSH2 0x7DA SWAP2 SWAP1 PUSH2 0x2F83 JUMP JUMPDEST PUSH1 0xDC DUP2 LT PUSH2 0x811 JUMPI PUSH32 0x4E487B7100000000000000000000000000000000000000000000000000000000 PUSH1 0x0 MSTORE PUSH1 0x32 PUSH1 0x4 MSTORE PUSH1 0x24 PUSH1 0x0 REVERT JUMPDEST PUSH1 0x20 MUL ADD MLOAD SWAP11 POP SWAP11 POP POP POP POP POP POP POP POP POP POP SWAP3 POP SWAP3 SWAP1 POP JUMP JUMPDEST PUSH1 0x0 DUP1 PUSH1 0x0 DUP1 PUSH1 0x0 DUP7 SWAP2 POP PUSH32 0x30644E72E131A029B85045B68181585D2833E84879B9709143E1F593F0000001 DUP1 PUSH2 0x88A JUMPI PUSH32 0x4E487B7100000000000000000000000000000000000000000000000000000000 PUSH1 0x0 MSTORE PUSH1 0x12 PUSH1 0x4 MSTORE PUSH1 0x24 PUSH1 0x0 REVERT JUMPDEST DUP3 DUP4 MULMOD SWAP3 POP PUSH32 0x30644E72E131A029B85045B68181585D2833E84879B9709143E1F593F0000001 DUP1 PUSH2 0x8E4 JUMPI PUSH32 0x4E487B7100000000000000000000000000000000000000000000000000000000 PUSH1 0x0 MSTORE PUSH1 0x12 PUSH1 0x4 MSTORE PUSH1 0x24 PUSH1 0x0 REVERT JUMPDEST DUP4 DUP5 MULMOD SWAP3 POP PUSH32 0x30644E72E131A029B85045B68181585D2833E84879B9709143E1F593F0000001 DUP1 PUSH2 0x93E JUMPI PUSH32 0x4E487B7100000000000000000000000000000000000000000000000000000000 PUSH1 0x0 MSTORE PUSH1 0x12 PUSH1 0x4 MSTORE PUSH1 0x24 PUSH1 0x0 REVERT JUMPDEST DUP3 DUP5 MULMOD SWAP3 POP DUP6 SWAP1 POP DUP7 SWAP6 POP PUSH32 0x30644E72E131A029B85045B68181585D2833E84879B9709143E1F593F0000001 DUP1 PUSH2 0x99E JUMPI PUSH32 0x4E487B7100000000000000000000000000000000000000000000000000000000 PUSH1 0x0 MSTORE PUSH1 0x12 PUSH1 0x4 MSTORE PUSH1 0x24 PUSH1 0x0 REVERT JUMPDEST DUP4 DUP3 ADDMOD SWAP7 POP PUSH1 0x0 PUSH1 0x1 SWAP1 POP PUSH1 0x0 PUSH2 0x9B3 PUSH2 0xD91 JUMP JUMPDEST SWAP1 POP JUMPDEST PUSH1 0x0 DUP2 DUP4 PUSH1 0xDC DUP2 LT PUSH2 0x9F1 JUMPI PUSH32 0x4E487B7100000000000000000000000000000000000000000000000000000000 PUSH1 0x0 MSTORE PUSH1 0x32 PUSH1 0x4 MSTORE PUSH1 0x24 PUSH1 0x0 REVERT JUMPDEST PUSH1 0x20 MUL ADD MLOAD EQ PUSH2 0xC14 JUMPI PUSH32 0x30644E72E131A029B85045B68181585D2833E84879B9709143E1F593F0000001 DUP1 PUSH2 0xA50 JUMPI PUSH32 0x4E487B7100000000000000000000000000000000000000000000000000000000 PUSH1 0x0 MSTORE PUSH1 0x12 PUSH1 0x4 MSTORE PUSH1 0x24 PUSH1 0x0 REVERT JUMPDEST DUP2 DUP4 PUSH1 0xDC DUP2 LT PUSH2 0xA89 JUMPI PUSH32 0x4E487B7100000000000000000000000000000000000000000000000000000000 PUSH1 0x0 MSTORE PUSH1 0x32 PUSH1 0x4 MSTORE PUSH1 0x24 PUSH1 0x0 REVERT JUMPDEST PUSH1 0x20 MUL ADD MLOAD DUP11 ADDMOD SWAP4 POP PUSH32 0x30644E72E131A029B85045B68181585D2833E84879B9709143E1F593F0000001 DUP1 PUSH2 0xAE7 JUMPI PUSH32 0x4E487B7100000000000000000000000000000000000000000000000000000000 PUSH1 0x0 MSTORE PUSH1 0x12 PUSH1 0x4 MSTORE PUSH1 0x24 PUSH1 0x0 REVERT JUMPDEST DUP5 DUP6 MULMOD SWAP5 POP PUSH32 0x30644E72E131A029B85045B68181585D2833E84879B9709143E1F593F0000001 DUP1 PUSH2 0xB41 JUMPI PUSH32 0x4E487B7100000000000000000000000000000000000000000000000000000000 PUSH1 0x0 MSTORE PUSH1 0x12 PUSH1 0x4 MSTORE PUSH1 0x24 PUSH1 0x0 REVERT JUMPDEST DUP6 DUP7 MULMOD SWAP5 POP PUSH32 0x30644E72E131A029B85045B68181585D2833E84879B9709143E1F593F0000001 DUP1 PUSH2 0xB9B JUMPI PUSH32 0x4E487B7100000000000000000000000000000000000000000000000000000000 PUSH1 0x0 MSTORE PUSH1 0x12 PUSH1 0x4 MSTORE PUSH1 0x24 PUSH1 0x0 REVERT JUMPDEST DUP5 DUP7 MULMOD SWAP5 POP DUP8 SWAP3 POP DUP9 SWAP8 POP PUSH32 0x30644E72E131A029B85045B68181585D2833E84879B9709143E1F593F0000001 DUP1 PUSH2 0xBFB JUMPI PUSH32 0x4E487B7100000000000000000000000000000000000000000000000000000000 PUSH1 0x0 MSTORE PUSH1 0x12 PUSH1 0x4 MSTORE PUSH1 0x24 PUSH1 0x0 REVERT JUMPDEST DUP6 DUP5 ADDMOD SWAP9 POP PUSH1 0x1 DUP3 PUSH2 0xC0D SWAP2 SWAP1 PUSH2 0x2ED3 JUMP JUMPDEST SWAP2 POP PUSH2 0x9B6 JUMP JUMPDEST DUP9 SWAP4 POP PUSH32 0x30644E72E131A029B85045B68181585D2833E84879B9709143E1F593F0000001 DUP1 PUSH2 0xC6C JUMPI PUSH32 0x4E487B7100000000000000000000000000000000000000000000000000000000 PUSH1 0x0 MSTORE PUSH1 0x12 PUSH1 0x4 MSTORE PUSH1 0x24 PUSH1 0x0 REVERT JUMPDEST DUP5 DUP6 MULMOD SWAP5 POP PUSH32 0x30644E72E131A029B85045B68181585D2833E84879B9709143E1F593F0000001 DUP1 PUSH2 0xCC6 JUMPI PUSH32 0x4E487B7100000000000000000000000000000000000000000000000000000000 PUSH1 0x0 MSTORE PUSH1 0x12 PUSH1 0x4 MSTORE PUSH1 0x24 PUSH1 0x0 REVERT JUMPDEST DUP6 DUP7 MULMOD SWAP5 POP PUSH32 0x30644E72E131A029B85045B68181585D2833E84879B9709143E1F593F0000001 DUP1 PUSH2 0xD20 JUMPI PUSH32 0x4E487B7100000000000000000000000000000000000000000000000000000000 PUSH1 0x0 MSTORE PUSH1 0x12 PUSH1 0x4 MSTORE PUSH1 0x24 PUSH1 0x0 REVERT JUMPDEST DUP5 DUP7 MULMOD SWAP5 POP PUSH32 0x30644E72E131A029B85045B68181585D2833E84879B9709143E1F593F0000001 DUP1 PUSH2 0xD7A JUMPI PUSH32 0x4E487B7100000000000000000000000000000000000000000000000000000000 PUSH1 0x0 MSTORE PUSH1 0x12 PUSH1 0x4 MSTORE PUSH1 0x24 PUSH1 0x0 REVERT JUMPDEST DUP6 DUP10 ADDMOD SWAP8 POP DUP9 DUP9 SWAP7 POP SWAP7 POP POP POP POP POP POP SWAP3 POP SWAP3 SWAP1 POP JUMP JUMPDEST PUSH2 0xD99 PUSH2 0x2E0C JUMP JUMPDEST PUSH1 0x0 PUSH1 0x40 MLOAD DUP1 PUSH2 0x1B80 ADD PUSH1 0x40 MSTORE DUP1 PUSH1 0x0 DUP2 MSTORE PUSH1 0x20 ADD PUSH32 0xFBE43C36A80E36D7C7C584D4F8F3759FB51F0D66065D8A227B688D12488C5D4 DUP2 MSTORE PUSH1 0x20 ADD PUSH32 0xB1BE1E55D1138DCFC4EEEE6618B1B7CDE5C4A262E83139555673F5751EFC1C9 DUP2 MSTORE PUSH1 0x20 ADD PUSH32 0x27C0849DBA2643077C13EB42FFB97663CDCECD669BF10F756BE30BAB71B86CF8 DUP2 MSTORE PUSH1 0x20 ADD PUSH32 0x2BF76744736132E5C68F7DFDD5B792681D415098554FD8280F00D11B172B80D2 DUP2 MSTORE PUSH1 0x20 ADD PUSH32 0x2AEF041C0700B1B4B2C4629195A5A3C737B1EA990E32486C9E2D748CEC58567 DUP2 MSTORE PUSH1 0x20 ADD PUSH32 0x282767ED3103CD92E2B5593B56115D06AE8D9DDC64255BAEA0764A3F651E9B2F DUP2 MSTORE PUSH1 0x20 ADD PUSH32 0x10F3A13E8BB8523DAF4769CFF22133D7AD0823F6E220567F516BA73EAC4F4C34 DUP2 MSTORE PUSH1 0x20 ADD PUSH32 0xFEF545F7ED94F69E3485FB572D1E82497FD1F63A84CD2D007FFF998F7E40BDD DUP2 MSTORE PUSH1 0x20 ADD PUSH32 0x15CEEE0E1C70F77BD1136F3709D40C4298E75763B8595DB0C41DAF954C4537CE DUP2 MSTORE PUSH1 0x20 ADD PUSH32 0xA9BAEE798A320B0CA5B1CF888386D1DC12C13B38E10225AA4E9F03069A099F5 DUP2 MSTORE PUSH1 0x20 ADD PUSH32 0x2670D407AD0B5A999ABD17B3F98DBE505989622060911B2BCEE42E2D51B32C76 DUP2 MSTORE PUSH1 0x20 ADD PUSH32 0x161ED19C62EA260285D1FBC1350909F6008B8C95EF331A4D154F5FAE54EB8B16 DUP2 MSTORE PUSH1 0x20 ADD PUSH32 0x1A4DC528312F210EB17DFB6851F05FA4CD7E0139852EBBF4AE00590B88C8855A DUP2 MSTORE PUSH1 0x20 ADD PUSH32 0x25147DCC3DF52742C7329CA5563C4C4FD696489C63394BC1415ECBFB1226875F DUP2 MSTORE PUSH1 0x20 ADD PUSH32 0x1A811A20CDA427C2B6AD3D58164136F874FFB51415BEED111A52BF31006016A DUP2 MSTORE PUSH1 0x20 ADD PUSH32 0x824DE9E43D882EE2A068EEA1318A0DC3DA826E52825768765AE4774621B2A63 DUP2 MSTORE PUSH1 0x20 ADD PUSH32 0x10B4F82B62F0FC9A53FFAF9F21359E56712D2045FA64CB8F5FE7BEEB230C554F DUP2 MSTORE PUSH1 0x20 ADD PUSH32 0x2D150F8FDA7DF0D566E8018B6470372E3C161837CA59A53FA1D1D27E4452A0AF DUP2 MSTORE PUSH1 0x20 ADD PUSH32 0x281E90A515E6409E9177B4F297F8049CE3D4C3659423C48B3FD64E83596FF101 DUP2 MSTORE PUSH1 0x20 ADD PUSH32 0x11DD375328F0481FB8A78D762B28CEC882569C0434EE7CE4C949A0C701BF3E7C DUP2 MSTORE PUSH1 0x20 ADD PUSH32 0x17DE91F8113F9443A73C8F2F1274FC39021217080B4D476127CA3C7EE1F25C05 DUP2 MSTORE PUSH1 0x20 ADD PUSH32 0xBF2B7E871CA735F716032E68B757C912B2FFE442C58CB03CC30B52B9B24BCED DUP2 MSTORE PUSH1 0x20 ADD PUSH32 0xA3908129452CA7D00584AFD40B6A4A71F0E856FFF2D71C1EFD6F607486195C0 DUP2 MSTORE PUSH1 0x20 ADD PUSH32 0x253E5BBFE718AC84611D8E52C9E70573EF235EC1C22724484B087E5C3452AA35 DUP2 MSTORE PUSH1 0x20 ADD PUSH32 0xA380E47FBD10C830A8499CECE42BB5E4E95ADC619AAB8962DB105E019265FA7 DUP2 MSTORE PUSH1 0x20 ADD PUSH32 0x24E53AF71EF06BACB76D3294C11223911E9D177FF09B7009FEBC484ADD0BEB74 DUP2 MSTORE PUSH1 0x20 ADD PUSH32 0x1A43144A8BBBA4CF8C6B2785E1A75D29544A1A98B0524C1984AFD2B698F2138F DUP2 MSTORE PUSH1 0x20 ADD PUSH32 0x562FABAB7B28094D180EB5917FF5B5A01557AFE100BCF971B724D9736D28E4A DUP2 MSTORE PUSH1 0x20 ADD PUSH32 0x42CA040B9419BE4C81292C916998DFD67990A13CAD5D3C48E9BBDFD6351B065 DUP2 MSTORE PUSH1 0x20 ADD PUSH31 0x5449BE1E493E0BA054F063A30538D3A5EBE4A0F857EF981F0152C5625DAC4E DUP2 MSTORE PUSH1 0x20 ADD PUSH32 0x29BAE21B579D080A75C1694DA628D0ECFD83EFC9C8468704F410300062F64CA9 DUP2 MSTORE PUSH1 0x20 ADD PUSH32 0x21950FD25B80EDCAB7D4C642601992E06654338D0308D8AD1565FBB8B90FCE40 DUP2 MSTORE PUSH1 0x20 ADD PUSH32 0x2B7C83A5C9472EF3C780B5EC5405DB512E0AD3D500EDCF7C46693BE30E2F183F DUP2 MSTORE PUSH1 0x20 ADD PUSH32 0xC354C168E5913BE8D3CD037600A911D75B5E52529052EC3CA5E053BD401C34D DUP2 MSTORE PUSH1 0x20 ADD PUSH32 0x929DB368EF2AF2D29BCA38845325B0B7A820A4889E44B5829BBE1ED47FD4D52 DUP2 MSTORE PUSH1 0x20 ADD PUSH32 0x16531D424B0CBAF9ABBF2D2ACDE698462EA4555BF32CCF1BBD26697E905066F6 DUP2 MSTORE PUSH1 0x20 ADD PUSH32 0x3CD84E6190C3F2636CB944C82C30FB075769B4676B2A0F0CDCB6FB3429D76F1 DUP2 MSTORE PUSH1 0x20 ADD PUSH32 0xDEF067B7DF381DD5650E5CA0CDAEC55F8533021DA5ED14F954DD2B27023F484 DUP2 MSTORE PUSH1 0x20 ADD PUSH32 0xEE9C4621642A272F710908707557498D25A6FDD51866DA5D9F0D205355A6189 DUP2 MSTORE PUSH1 0x20 ADD PUSH32 0x18017FCC05938635DC7C6DE22F78D6A96DAF60C0C33D8E775802BE1CDB5A72EE DUP2 MSTORE PUSH1 0x20 ADD PUSH32 0x2CC0823ED1D33029597DC970C98C3B17421478A4E3241CB204FC5FEAB7A5EE79 DUP2 MSTORE PUSH1 0x20 ADD PUSH32 0x1679A0C60F408D8915F0B822C2866D858432F062EEA7CE020FCDD4B63303D2F1 DUP2 MSTORE PUSH1 0x20 ADD PUSH32 0x642E8800A48CC04C0168232C6F542396597A67CF395AD622D947E98BB68697A DUP2 MSTORE PUSH1 0x20 ADD PUSH31 0x569A003785B51067C530FE3A28F55E9363C821D6C35D9DC3C4D322BC0E3DF1 DUP2 MSTORE PUSH1 0x20 ADD PUSH32 0x2CA7148D40D1DFFBC857D2D387C5B12D1EBC6409C37B23473A6A2E0D2BB24FDF DUP2 MSTORE PUSH1 0x20 ADD PUSH32 0x7085E102E77F24E456D886F461173B14E72F7081C41B7E891E69B5975864418 DUP2 MSTORE PUSH1 0x20 ADD PUSH32 0x2605B9B909DED1B04971EAE979027C4E0DE57F3B6A60D5ED58ABA619C34749CE DUP2 MSTORE PUSH1 0x20 ADD PUSH32 0x10E54F3FA759DD117DBEF6454B0C8C1A76AE867AC758904117F919FEC46228CC DUP2 MSTORE PUSH1 0x20 ADD PUSH32 0x2AC5905F9450A21EF6905ED5951A91B3730E3A2E2D62B50BDEB810015D50376B DUP2 MSTORE PUSH1 0x20 ADD PUSH32 0x196DCB542DC5DC51DD05E93F3C0B6DE0584EB7295FC645A8B8629512057B9678 DUP2 MSTORE PUSH1 0x20 ADD PUSH32 0x6E2724EA4355BEA4B417E567BBFC20033307B15F0D2DD4ABF6778BBEA7270E1 DUP2 MSTORE PUSH1 0x20 ADD PUSH32 0xE786007D0CE7E28A90E31D3263887D40C556DEC88FCB8B56BC9E9C05ECC0C29 DUP2 MSTORE PUSH1 0x20 ADD PUSH32 0xB814ED99BD00ECA389B0022663DBFDDFBFA15E321C19ABCF1EAF9556075FB68 DUP2 MSTORE PUSH1 0x20 ADD PUSH32 0x4F79535E00C8E918D22CFDC96B4DC310474DF0EF8BB5ABC21CAB45AB25C0930 DUP2 MSTORE PUSH1 0x20 ADD PUSH32 0x1A003F39F26D1946291D39F12622B187A5DDC940EE4A37659B646DEDA0722BF1 DUP2 MSTORE PUSH1 0x20 ADD PUSH32 0xC41A6A8C884710137D7C78FE60CB115B7A195511D19C1A866BF9B7BFDF6501F DUP2 MSTORE PUSH1 0x20 ADD PUSH32 0x1389E0264605B298F1DFFB4B71F7B5ECE4156CAA9E1A4CE51E2F52E887E8AC56 DUP2 MSTORE PUSH1 0x20 ADD PUSH32 0x1C6BF6AC0314CAEAD23E357BFCBBAA17D670672AE3A475F80934C716F10ACA25 DUP2 MSTORE PUSH1 0x20 ADD PUSH32 0xBDBB96FA5C73C55450CC9348D147F4D3D554DD498D09C3B6D995FB8951A6431 DUP2 MSTORE PUSH1 0x20 ADD PUSH32 0x1D199F2E0212FAFF4D49341B2C16B888AF6E152FE52C76CD364850E242B0697B DUP2 MSTORE PUSH1 0x20 ADD PUSH32 0x206F877AF22E702A1D11A12EADD06581EE96969440528D3EC695B008C8C2D1A DUP2 MSTORE PUSH1 0x20 ADD PUSH32 0x2287CEF47BC395079BA67071BFC62B6D434BD8B587DB1C10C2F8B7DD3296E394 DUP2 MSTORE PUSH1 0x20 ADD PUSH32 0x13CEEEB301572B4991076750E11EA7E7FCBFEE454D90DC1763989004A1894F93 DUP2 MSTORE PUSH1 0x20 ADD PUSH32 0x243CD698BC31534698384234086D0B05373350B0BB0BCAA0880937187135FE62 DUP2 MSTORE PUSH1 0x20 ADD PUSH31 0x5F3E9502BCC9CDAFF22B01BFBD157C038D0BF9D2F994DE082B9D2A78A258B3 DUP2 MSTORE PUSH1 0x20 ADD PUSH32 0x12692A7D808F44E31D628DBCFEA377EB073FB918D7BEB8136EA47F8CF094C88C DUP2 MSTORE PUSH1 0x20 ADD PUSH32 0x260E384B1268E3A347C91D6987FD280FA0A275541A7C5BE34BF126AF35C962E0 DUP2 MSTORE PUSH1 0x20 ADD PUSH32 0x16FB013611A71040326DD1FA7CC948F484617C015BFBE3679574FCA48B6DADD8 DUP2 MSTORE PUSH1 0x20 ADD PUSH32 0x27519B325C443A8A61972952280F298F56879FA427B5BA7E97357DD6230BF048 DUP2 MSTORE PUSH1 0x20 ADD PUSH32 0x248D7432273CC8D37ACB20FC8BD1C42729D49DE75812BA98CC4D5C1EBDBFE906 DUP2 MSTORE PUSH1 0x20 ADD PUSH32 0x296632D868AE6D5178C87F83A805867400246284FA6F02CCC4CBF0D22C457F74 DUP2 MSTORE PUSH1 0x20 ADD PUSH32 0xFC4C0BEA813A223FD510C07F7BBE337BADD4BCF28649A0D378970C2A15B3AA5 DUP2 MSTORE PUSH1 0x20 ADD PUSH31 0x53F1EA6DD60E7A6DB09A00BE77549FF3D4EE3737BE7FB42052AE1321F667C3 DUP2 MSTORE PUSH1 0x20 ADD PUSH32 0x2A0236AC364A48575730567432E8608546E1EB422E19361AD861EF06BBAA4A00 DUP2 MSTORE PUSH1 0x20 ADD PUSH32 0x299E29684DBBAD05668EFF255292AEECD250C636476234334C197271E9725204 DUP2 MSTORE PUSH1 0x20 ADD PUSH32 0x1C3C5D45DD862FCBBA507C30740CAFB0F37E5B8C1DEA76B3F46234B165AD40BD DUP2 MSTORE PUSH1 0x20 ADD PUSH32 0x190DB6088D1F103103047BF2DC934E1311F68981E5A5EEF29B11F43D8AA551B1 DUP2 MSTORE PUSH1 0x20 ADD PUSH32 0x153DAE43CEF763E7A2FC9846F09A2973B0AD9C35894C220699BCC2954501C6BD DUP2 MSTORE PUSH1 0x20 ADD PUSH32 0x135BF03DB291930E1A0F35A0959BCF9C1D08B378604EDB731C8DCDE50090E877 DUP2 MSTORE PUSH1 0x20 ADD PUSH31 0x63A5C4C9C12DCF4BAE72C69F3A225664469503D61D9EAE5D9553BFB006095B DUP2 MSTORE PUSH1 0x20 ADD PUSH32 0x1AF9136A286264F6F230246B925772426D682BA0D75C462A0F18A2AE6DC9D829 DUP2 MSTORE PUSH1 0x20 ADD PUSH32 0x180753A64F5D6C5AC2D2B6FDC31E2FF7F0F14E77A1C6E6FF0A9FCC33914F483A DUP2 MSTORE PUSH1 0x20 ADD PUSH32 0x47511CE5F700C7622CFFCCF387CC2D313F432AA82A642D1B2757CEEC423BCF2 DUP2 MSTORE PUSH1 0x20 ADD PUSH32 0x303B2E0148B6E2E840210A07AAD2A1363E6E0995ACDDD414AD828D7C2437465A DUP2 MSTORE PUSH1 0x20 ADD PUSH32 0xAE2C1B55001C365F165F98973A139116CAA3230E3F95C417169BE16C51AD475 DUP2 MSTORE PUSH1 0x20 ADD PUSH32 0x40273E4476CA817284EA880868D3B1FFDAE6F8E6BB9CD375D79EF55499554A0 DUP2 MSTORE PUSH1 0x20 ADD PUSH32 0x17E650317D66CDC90AFB8E5F46C39A7368EBC43964D2696FCC869BC4BAA53172 DUP2 MSTORE PUSH1 0x20 ADD PUSH32 0x28CF41E1568F34C298A1907C42D3345245414F11243F73C364C6ED1AEAF8C0D DUP2 MSTORE PUSH1 0x20 ADD PUSH32 0xB1227B61B387D976FBD1DEF142CCB1F6525447F81DC39C4FA90AD497E32C9F0 DUP2 MSTORE PUSH1 0x20 ADD PUSH32 0x58D6BA2805C898FB504A70B4A30B2147F409F0B87ADA948C1D44BC4048FF155 DUP2 MSTORE PUSH1 0x20 ADD PUSH31 0x129C7CD00E42ED05A37DBCEB80D47B65E1D750EF2148278A54723FDF42C4CC DUP2 MSTORE PUSH1 0x20 ADD PUSH32 0x172E37FD8E22A67B33E39E53E472BE036768F44D0DB94A2BC6F4F958CB195885 DUP2 MSTORE PUSH1 0x20 ADD PUSH32 0x47B173545551DE00D61F1DA993DCB1D7053D95B9F39091B35D25143E311F5E9 DUP2 MSTORE PUSH1 0x20 ADD PUSH32 0x2091E82677269F493582929EDA966641BD9F9E9B790C2E0382C081D999F9C32B DUP2 MSTORE PUSH1 0x20 ADD PUSH32 0x2096BACDA358C7852FECEECDA079851C86C891E261057BDD20AE592A2BF63E7C DUP2 MSTORE PUSH1 0x20 ADD PUSH32 0x29894EBD83A0B97B8D77C42299DE988878354A8FCEBB20257290B0FFD89CDD8A DUP2 MSTORE PUSH1 0x20 ADD PUSH32 0x86903ABB30ACB73994B6192F8A252CBE45DE344DD52A64B4F66C13F652DB8A0 DUP2 MSTORE PUSH1 0x20 ADD PUSH32 0x24F14D18D66C1856E3F6A8ABFD9A0484B0B2F0537F9128F65D5E81C5E1BA8962 DUP2 MSTORE PUSH1 0x20 ADD PUSH32 0x1874B5C285E4210F8864C029856DD6023F64334AB15ED2D3EB50466E86A44A07 DUP2 MSTORE PUSH1 0x20 ADD PUSH32 0x63D0B01A883AC19B227113A85D5EBADD942E4A944D3A4FCFFB2A3C0E1CB0F16 DUP2 MSTORE PUSH1 0x20 ADD PUSH32 0x269E6BEA132772BC395C64451EB818DBA2EBC6AA296AD3CE36E7C8DDDBF249EF DUP2 MSTORE PUSH1 0x20 ADD PUSH32 0x3797301A98CDFE52C2E248BDE41B2AD09E5DC86EE7B36E650CCF4E25B79F460 DUP2 MSTORE PUSH1 0x20 ADD PUSH32 0x163308AE1413439A1708C5FD556BF624CDDB3097BAEFCA7D34915AE04E26EB1E DUP2 MSTORE PUSH1 0x20 ADD PUSH32 0x8CD97BF5077B356E26D76194DF9DDF9324654DE795E692FE72E3E628EBD4CBF DUP2 MSTORE PUSH1 0x20 ADD PUSH32 0x9A6FDDEC902D117780B231A9E1F5852093BBE5CEF4A0CF93DFBEF782DF536B4 DUP2 MSTORE PUSH1 0x20 ADD PUSH32 0x549B629F1D3860B8EA2A224ED088F0672B79618912F0CAE5576471099EAF546 DUP2 MSTORE PUSH1 0x20 ADD PUSH31 0x793E6DFE7F4611EE027F69D4B400AF1EB7FB0E3F6266F99FC1999E9C978C62 DUP2 MSTORE PUSH1 0x20 ADD PUSH32 0x283857E88BBF48DC9B7028273ED6840491F4514ECBAF948B54D248F228716EFA DUP2 MSTORE PUSH1 0x20 ADD PUSH32 0x223DA47C2EC498722F26AAB8927B70A8BD5F0C08F1D15E4A5BBAE244128E69B5 DUP2 MSTORE PUSH1 0x20 ADD PUSH32 0x166C6BF34A1E6FE1E1EAAF69D17530D5D6B834C9AF51AFA281129BB4993D8BA2 DUP2 MSTORE PUSH1 0x20 ADD PUSH32 0x18DD55B4A83A53F2EE578EB3E6D26F594824D44670FC3F4DE80642344D15C09A DUP2 MSTORE PUSH1 0x20 ADD PUSH32 0xE88CA3C50F6E50E0B69E7EA68EC50092E8B92B499E29CD91D29B00B5C3604B3 DUP2 MSTORE PUSH1 0x20 ADD PUSH32 0x1901D8F4F2C8449128E00663978F2050F2EB1CD6ACB60D9D09C57C5D46EE54FE DUP2 MSTORE PUSH1 0x20 ADD PUSH32 0x2E611916DD7984C5C692E9A2CBDE6D04C425F7A319A6FD3698E508D1233A7DB3 DUP2 MSTORE PUSH1 0x20 ADD PUSH32 0x1C0B2CBE4FA9877A3D08EB67C510E8630DA0A8BEDA94A6D9283E6F70D268BC5 DUP2 MSTORE PUSH1 0x20 ADD PUSH32 0xB1D85ACD9031A9107350EED946A25734E974799C5BA7CFF13B15A5A623A25F0 DUP2 MSTORE PUSH1 0x20 ADD PUSH32 0x204497D1D359552905A2FE655F3D6F94926EA92D12CDAA6556EC26362F239F64 DUP2 MSTORE PUSH1 0x20 ADD PUSH32 0x1EE4BE22419C99E69EBD1C27993F9B1D51B6824B7379CEAC5E5CA2CBB2A2A5EC DUP2 MSTORE PUSH1 0x20 ADD PUSH32 0x243F46E353354256AB8FE0CA4E9230DFC330BC163E602DFEAF307C1D1A7264B9 DUP2 MSTORE PUSH1 0x20 ADD PUSH32 0x12B77492849BDEFB1BBC5C55C3C82D9243F39A6009C361C7745280A45E9ECCE7 DUP2 MSTORE PUSH1 0x20 ADD PUSH32 0x2F312EEF69A33D9FA753C08840275692A03432B3E6DA67F9C59B9F9F4971CD56 DUP2 MSTORE PUSH1 0x20 ADD PUSH32 0x2ECEEB23CDF17BABEA42CDC72796A98469730A063B793C893A8CA496E0EFBBFF DUP2 MSTORE PUSH1 0x20 ADD PUSH32 0x17CA868794A5A2B09FF219856B27D11890ABF3D59958A90A13E569FF3ABD8A5F DUP2 MSTORE PUSH1 0x20 ADD PUSH32 0xEC3C87F00CF5519CD60E5E894DFC3382E28A73F6A62B41760B937C255DF83A6 DUP2 MSTORE PUSH1 0x20 ADD PUSH32 0xB0A5017A4A351D91F366611585B8D160379B669B243E657D8DF7776F4A238B5 DUP2 MSTORE PUSH1 0x20 ADD PUSH32 0x2899C036DB850A580A15F86E9AE418E9CB2EF4F15265D825F09F16870EC8C336 DUP2 MSTORE PUSH1 0x20 ADD PUSH32 0x7C085730B2B73E8012A1B69807C18DB4B962CE1FEE9AEE363EC111831F8A7BD DUP2 MSTORE PUSH1 0x20 ADD PUSH31 0x8CC717B97762132791CBA6294BAF287217CB1F8D3467898DE67018CCA91F44 DUP2 MSTORE PUSH1 0x20 ADD PUSH32 0x164EDA75FDA2861F9D812F24E37AC938844FBE383C243B32B9F66AE2E76BE719 DUP2 MSTORE PUSH1 0x20 ADD PUSH32 0x2F15C2779A9570363B897CDEB055DDFE284F6571FBE189A414B33F5BF31AFCBC DUP2 MSTORE PUSH1 0x20 ADD PUSH32 0x24FC7CA023CB6E65F3E6D9C4C0FA92776956FBD1F1ABE119B1B4B9DFB0334B4B DUP2 MSTORE PUSH1 0x20 ADD PUSH32 0x9E0573E21C5E8107335EAED49658E7E063A5FF33E167AA34EE9E383A3EF598D DUP2 MSTORE PUSH1 0x20 ADD PUSH32 0x132F51760E46FAA17B7BAB733908E244952D68C19DC6B20F0D95D431B1C59BF0 DUP2 MSTORE PUSH1 0x20 ADD PUSH32 0x242F85DCA68C13F3189DD0096C9AB2B0CF01E4754A9280CFCC411B7FD55D771 DUP2 MSTORE PUSH1 0x20 ADD PUSH32 0x42CAE37AEC897C9A57635298566BAF59EDC50FCC7C21DB9D049071B0A344B84 DUP2 MSTORE PUSH1 0x20 ADD PUSH32 0x95526CB4B2CC423E912E906DF854E76A5BC30530927C87732D34A4A00881870 DUP2 MSTORE PUSH1 0x20 ADD PUSH32 0x63F1DB81F5540A85B592E5E4567FCB0A6F615803DE26F24012A32A2B18A70A7 DUP2 MSTORE PUSH1 0x20 ADD PUSH32 0x2A626B47B2D26D2CDA681FFFE5FA089209CDCD79985D2965C809AA073528A025 DUP2 MSTORE PUSH1 0x20 ADD PUSH32 0x17D5B87C3657DF3C89D69EBA72FC4C3480A0F4BE451896520807D892481628FD DUP2 MSTORE PUSH1 0x20 ADD PUSH32 0x284E583469EA05FDF11F2AE897A70E557C8703AE3C18726E78A95023D5B98D23 DUP2 MSTORE PUSH1 0x20 ADD PUSH32 0x255DAA128F75DA34D00D137A0EEE7E06EAD6BF071C830E3C5C78B92A2D57DEF5 DUP2 MSTORE PUSH1 0x20 ADD PUSH31 0x52E9A9B5F419B14F3125F903A33BDD519AB8ED06C3143B9CA13EF1D11E0C2D DUP2 MSTORE PUSH1 0x20 ADD PUSH32 0x582D5B3B958CD5EB1A90E55B3EF8EB245D8ECDBA20DBA510110AC923F3A989C DUP2 MSTORE PUSH1 0x20 ADD PUSH32 0x4DF8C0DEFDC02280CF831B967866C926165551A664CBA547C677A37951C3660 DUP2 MSTORE PUSH1 0x20 ADD PUSH32 0x2382D616E8C47FDD4FBBB676A088DC9D20469C41CFF2F587313498EC5D0B1B02 DUP2 MSTORE PUSH1 0x20 ADD PUSH32 0xD086948C84C5518221F92DF23F89C4A360E89AA08BD10658158D2DD68060C91 DUP2 MSTORE PUSH1 0x20 ADD PUSH32 0xAF02D0E1317D88C923E7A30AEE3F519DA6D9660607EA33DEF8B7D84465093FE DUP2 MSTORE PUSH1 0x20 ADD PUSH32 0x23B0C3BA6F80CF25F3073E49CAD576A6C8F50FDD3368C6636FF329E0837BD972 DUP2 MSTORE PUSH1 0x20 ADD PUSH31 0xE115C4A98EFAE6A3A5ECC873B0CEF63CCD5B515710A3AB03EC52218F784DC9 DUP2 MSTORE PUSH1 0x20 ADD PUSH32 0x18EC1888A2F457D4A6E26F7DBC0DCFAFB4A91B54C37C7E72E9EA61D577A202A7 DUP2 MSTORE PUSH1 0x20 ADD PUSH32 0x226A91A571ED1B2F9061E56F764FDFE8A4ADE867A8A359AC46308E76104C62F6 DUP2 MSTORE PUSH1 0x20 ADD PUSH32 0x1F71E007903CBFE8C8898FE2E8532EB94B29CE61E49759565CB845D7CE62AA15 DUP2 MSTORE PUSH1 0x20 ADD PUSH32 0x24E65C718938C2B937378E7435332174329730BDE85A4185E37875824EB49859 DUP2 MSTORE PUSH1 0x20 ADD PUSH32 0x81B774B0A70DC72788A142DCA2BE4A1C31DE964FA1A5DF0B5B28901684A8EB8 DUP2 MSTORE PUSH1 0x20 ADD PUSH32 0x2F0C13445D90CB0EBC547403EB00095D6B790CBD80204CF69D737F8A33D1FFA6 DUP2 MSTORE PUSH1 0x20 ADD PUSH32 0x23248698612CD8E83234FCF5DB9B6B225F4B0BA78D72EF13EA1EDFF5F0FB0298 DUP2 MSTORE PUSH1 0x20 ADD PUSH32 0x1118C071B4FB39EB0DB94F9017B1BAF96D7E9A4E8F40EDD46AC68397510CF0D0 DUP2 MSTORE PUSH1 0x20 ADD PUSH31 0xF7F822F933820F4731C9FF31B4DC51256770608CBC2FABB574B1B945C82EF8 DUP2 MSTORE PUSH1 0x20 ADD PUSH32 0x1CD399556445E3D7B201D6C5E56A5794E60BE2CFD9A4643E7EAD79BB4F60F79 DUP2 MSTORE PUSH1 0x20 ADD PUSH32 0x1B58716CE9CADA90D6A0D672FF670579D37FC4B39D27BB8D9C92C7E3B3A8312C DUP2 MSTORE PUSH1 0x20 ADD PUSH32 0x58402B966FB4AB2CD74280EF64D4956F68FBCFB11B6815AF104FB76B8171811 DUP2 MSTORE PUSH1 0x20 ADD PUSH32 0x2398EAFDA87885D51410D7D592C0CA308518A760F0C7EB3E5025B7976986B2AD DUP2 MSTORE PUSH1 0x20 ADD PUSH32 0xDD2DFE8F3AA9E4D3CEB2B16F4A19A95B71B92DA9CD9C778622BAE6482C9D728 DUP2 MSTORE PUSH1 0x20 ADD PUSH32 0x1482AC3E7E4F321627850D95A13942AEA6D2923402B913046856FF7E8AAF9AFF DUP2 MSTORE PUSH1 0x20 ADD PUSH32 0x17332B4C7AAC2A07CCFE954DE7AD22CCF6FCB4C5FA15C130ED22A40AE9398F47 DUP2 MSTORE PUSH1 0x20 ADD PUSH32 0x132CCB7A7C7903F9F0A001D96F8410C6B81382764B7D9F280B7B993B7FDD857F DUP2 MSTORE PUSH1 0x20 ADD PUSH32 0x1521DBDF2F88FD7C10C0B3200849CACA5B4AAE7DBB2B7BB8D08BC01609B7B082 DUP2 MSTORE PUSH1 0x20 ADD PUSH32 0x2A0892D6B1AE3CABD6A34B075099D59A3BFF87E01694C5895BAD732373526D32 DUP2 MSTORE PUSH1 0x20 ADD PUSH32 0x15A16435A2300B27A337561401F06682BA85019AA0AF61B264A1177D38B5C13C DUP2 MSTORE PUSH1 0x20 ADD PUSH32 0x22616F306E76352293A22AB6EE15509D9B108D4136B32FA7F9ED259793F392A1 DUP2 MSTORE PUSH1 0x20 ADD PUSH32 0x2132D93F742F2AC654908E42903BEAF9D0D32DC23B5EFD0FC680A6E8DAE1851D DUP2 MSTORE PUSH1 0x20 ADD PUSH32 0xE6264AC0DC6688A1FD7BE3423B7267356BBB28B6A50A1149A901A2942AE638E DUP2 MSTORE PUSH1 0x20 ADD PUSH32 0x17DEAD3BFA1968C744118023DEAD77CDBEE22C5B7C2414F5A6BDF82FD94CF3AD DUP2 MSTORE PUSH1 0x20 ADD PUSH32 0x2BEF0F8B22A1CFB90100F4A552A9D02B772130123DE8144A00C4D57497E1D7F4 DUP2 MSTORE PUSH1 0x20 ADD PUSH32 0x2E249D189C5AB035F344531C0E4B9B1BA214BE09A0F861A1FBF521384D152A0E DUP2 MSTORE PUSH1 0x20 ADD PUSH32 0xB468EBCF7FC9DE942E6D629D607E97EE1DCA77426EE678A444F7A255D6B4DFD DUP2 MSTORE PUSH1 0x20 ADD PUSH32 0x13681BA8A95A21E65720051FF644E617F6E6D285E65B0DCC2AD0CBA02338D9A6 DUP2 MSTORE PUSH1 0x20 ADD PUSH32 0xBB7F176C4C62CAB92855F63A0C9E7374F1E7E89227DC2703A672B43491AD644 DUP2 MSTORE PUSH1 0x20 ADD PUSH32 0x2AA427B8648AE82FF39C8F47497E596C2A49BC16A845262A409A76836768A78 DUP2 MSTORE PUSH1 0x20 ADD PUSH32 0xC40F19ECD5513A5EA3ACEF661B2FA797737DFF7847FEE1B86522277EB3EBCC3 DUP2 MSTORE PUSH1 0x20 ADD PUSH32 0x1861AE1E114291D107945129389362B0923D2BD63B8DB9A51BEF3A9004FE6295 DUP2 MSTORE PUSH1 0x20 ADD PUSH32 0x2A6BA2A368B91DD670AB0224BC29C24C852397436035DAEF124F258F08CDEBF1 DUP2 MSTORE PUSH1 0x20 ADD PUSH32 0x25B068C942724C424ED5851C9575C22752C9BD25F91EBFA589DE3D88EE7627F9 DUP2 MSTORE PUSH1 0x20 ADD PUSH32 0x2C0767C7996F9A36404CCA45F1823A62707D38F7DB68199C4BB32B410E01E1A6 DUP2 MSTORE PUSH1 0x20 ADD PUSH32 0x67A20B1DF30438E616C4A461DCE9E6225B52D0CC49DAF3B9E54DE8F0F518540 DUP2 MSTORE PUSH1 0x20 ADD PUSH32 0x215DEAF3C2FE9F8A3785E8BC5F7872525D2FD0F0EEE1D69316BD8797BB4B70C9 DUP2 MSTORE PUSH1 0x20 ADD PUSH32 0x2FB50B2D3AF74321E7DDBCF3F573E116586E4CB458DD9BE75D9242F27D0FCC74 DUP2 MSTORE PUSH1 0x20 ADD PUSH32 0x2C871F0DDF5DFC9E98CE87F78923799449F3B2FE580816AA16EA2502F1BAD5F DUP2 MSTORE PUSH1 0x20 ADD PUSH32 0x871D0EB7536B5AD54E6A9588D9E9770544EB394E71FED7DAE196604956280A3 DUP2 MSTORE PUSH1 0x20 ADD PUSH32 0x13218626665C420D3AA2B0FA49224A3DCE8E08B8B56F8851BD9CB5E25CB3042D DUP2 MSTORE PUSH1 0x20 ADD PUSH32 0xE9FC2CB907861C7DC61B6C1207B73B3A6D5ACE02773F6B0B1BFCFB91873E30E DUP2 MSTORE PUSH1 0x20 ADD PUSH32 0x2A79E5FEBCF2F8B42EBDFFBB42831BEA32170EBE2A12121AD4C604B0D22D1C46 DUP2 MSTORE PUSH1 0x20 ADD PUSH32 0x2943A0E1E2336D7694FC2DF0981487584FA76BBC4FEB2A7BF952F59CD5F56AC9 DUP2 MSTORE PUSH1 0x20 ADD PUSH32 0x196BC98252F63169ED79073EE091A0E8ED0B5AF51017DA143940C00BDB863709 DUP2 MSTORE PUSH1 0x20 ADD PUSH32 0x17E885A4E49713520E743BCA0D6AB7A40F1CFCF0F8FC51AFC13AA6AAA8FAD6BE DUP2 MSTORE PUSH1 0x20 ADD PUSH32 0x26D61BD45F606CA6514B9B293D0AD15655EBE762FAED8DA11947AA319DC56D43 DUP2 MSTORE PUSH1 0x20 ADD PUSH32 0x1EFCDA9D986CDDCF431AF4D59C6A7709D650885B7886CBA70F0E7CD92B331CDC DUP2 MSTORE PUSH1 0x20 ADD PUSH32 0x123925ACD4F1AA1E2A22C32CCE354515CA98BDE87953B3F3AC6240EB7F60418E DUP2 MSTORE PUSH1 0x20 ADD PUSH32 0x14704DD362D250EDAA89359AA8CDA1A725DE051592E76A5CCDDF83CE44C7E41C DUP2 MSTORE PUSH1 0x20 ADD PUSH32 0x1B0273B47DB1989E107D5AC9E86D5109438713731FCB8B97696ECB44448DD0A4 DUP2 MSTORE PUSH1 0x20 ADD PUSH32 0x17A993A6AF068D72BC36F0E814D29FEF3F97D7A72AA963889B16A8457409861A DUP2 MSTORE PUSH1 0x20 ADD PUSH32 0xE535CB0C3F1CDB026576975DC6D29E64093F1E1D5548D90A2787C69FE5A07B3 DUP2 MSTORE PUSH1 0x20 ADD PUSH32 0x216C3A201F899C065BCE489A4603EC90F57E6D5A5642D6B56D63C0AB3C072B19 DUP2 MSTORE PUSH1 0x20 ADD PUSH32 0xF208CBC3B076C66EB9F87575AD4771877AE410473D21EE109799D04D97BC47C DUP2 MSTORE PUSH1 0x20 ADD PUSH32 0x1C2685C8BB95D9CBD97A5D24EF18089D6064024B701E1C8DEDD057A6DF967877 DUP2 MSTORE PUSH1 0x20 ADD PUSH32 0xF55CA8AE78360FA3D9B15388528A67ECCF126335F9CA6B3EEC47209F9FA5957 DUP2 MSTORE PUSH1 0x20 ADD PUSH32 0x263E1195090D00BE1D8FB37DE17CCF3B66D180645EFA0D831865CFAA8797769E DUP2 MSTORE PUSH1 0x20 ADD PUSH32 0x24CACF436717AC539E5B7BF56F5EBB01E32BED600DBECD166B14A862AA85029B DUP2 MSTORE PUSH1 0x20 ADD PUSH32 0x105C861F78D37579808457EEF387B09FA125918E0D2011E00A878D489B97A2A9 DUP2 MSTORE PUSH1 0x20 ADD PUSH32 0x50696B356B09DEFBC3B0A5D653F22C73A0C5E18B104BF47396C58FB9F89E620 DUP2 MSTORE PUSH1 0x20 ADD PUSH32 0x2185B14275ECD4C36288D9D5C844F4DFCC3C61DDA109BB64C5C4F1A4AE37B998 DUP2 MSTORE PUSH1 0x20 ADD PUSH32 0xC715B745408B0BA9C797B8199D412F71063E4409B82CDA606100C8992372262 DUP2 MSTORE PUSH1 0x20 ADD PUSH32 0x23900264B13BE89A7A24FB592301DAAE20BF031546B26237E35CE6EDEF6CC83C DUP2 MSTORE PUSH1 0x20 ADD PUSH32 0x1F7476211105B3039CEF009C51155AE93526C53A74973ECFCE40754B3DF10521 DUP2 MSTORE PUSH1 0x20 ADD PUSH32 0x284AAD6697126C6AFC69B61CEC7F8E86447AC4AFB1543014D23B3F3151A5A6E2 DUP2 MSTORE PUSH1 0x20 ADD PUSH31 0x9B9D0A9720FFFC5B3650A1C0B4DEBBDA89DDB79AF5958638CB3D9F02A5A493 DUP2 MSTORE PUSH1 0x20 ADD PUSH32 0x186E8B3288FF778EE79BC5445AB38F3CC2AF91862231912CA9C22F22B2B07489 DUP2 MSTORE PUSH1 0x20 ADD PUSH32 0x4AF9E46DBC42B94137981FECE56E9775D00FC101129F08FD6B781F439C20C0B DUP2 MSTORE PUSH1 0x20 ADD PUSH1 0x0 DUP2 MSTORE POP SWAP1 POP DUP1 SWAP2 POP POP SWAP1 JUMP JUMPDEST PUSH1 0x40 MLOAD DUP1 PUSH2 0x1B80 ADD PUSH1 0x40 MSTORE DUP1 PUSH1 0xDC SWAP1 PUSH1 0x20 DUP3 MUL DUP1 CALLDATASIZE DUP4 CALLDATACOPY DUP1 DUP3 ADD SWAP2 POP POP SWAP1 POP POP SWAP1 JUMP JUMPDEST PUSH1 0x0 DUP2 CALLDATALOAD SWAP1 POP PUSH2 0x2E3E DUP2 PUSH2 0x3039 JUMP JUMPDEST SWAP3 SWAP2 POP POP JUMP JUMPDEST PUSH1 0x0 DUP1 PUSH1 0x40 DUP4 DUP6 SUB SLT ISZERO PUSH2 0x2E57 JUMPI PUSH1 0x0 DUP1 REVERT JUMPDEST PUSH1 0x0 PUSH2 0x2E65 DUP6 DUP3 DUP7 ADD PUSH2 0x2E2F JUMP JUMPDEST SWAP3 POP POP PUSH1 0x20 PUSH2 0x2E76 DUP6 DUP3 DUP7 ADD PUSH2 0x2E2F JUMP JUMPDEST SWAP2 POP POP SWAP3 POP SWAP3 SWAP1 POP JUMP JUMPDEST PUSH2 0x2E89 DUP2 PUSH2 0x2FB7 JUMP JUMPDEST DUP3 MSTORE POP POP JUMP JUMPDEST PUSH1 0x0 PUSH1 0x20 DUP3 ADD SWAP1 POP PUSH2 0x2EA4 PUSH1 0x0 DUP4 ADD DUP5 PUSH2 0x2E80 JUMP JUMPDEST SWAP3 SWAP2 POP POP JUMP JUMPDEST PUSH1 0x0 PUSH1 0x40 DUP3 ADD SWAP1 POP PUSH2 0x2EBF PUSH1 0x0 DUP4 ADD DUP6 PUSH2 0x2E80 JUMP JUMPDEST PUSH2 0x2ECC PUSH1 0x20 DUP4 ADD DUP5 PUSH2 0x2E80 JUMP JUMPDEST SWAP4 SWAP3 POP POP POP JUMP JUMPDEST PUSH1 0x0 PUSH2 0x2EDE DUP3 PUSH2 0x2FB7 JUMP JUMPDEST SWAP2 POP PUSH2 0x2EE9 DUP4 PUSH2 0x2FB7 JUMP JUMPDEST SWAP3 POP DUP3 PUSH32 0xFFFFFFFFFFFFFFFFFFFFFFFFFFFFFFFFFFFFFFFFFFFFFFFFFFFFFFFFFFFFFFFF SUB DUP3 GT ISZERO PUSH2 0x2F1E JUMPI PUSH2 0x2F1D PUSH2 0x300A JUMP JUMPDEST JUMPDEST DUP3 DUP3 ADD SWAP1 POP SWAP3 SWAP2 POP POP JUMP JUMPDEST PUSH1 0x0 PUSH2 0x2F34 DUP3 PUSH2 0x2FB7 JUMP JUMPDEST SWAP2 POP PUSH2 0x2F3F DUP4 PUSH2 0x2FB7 JUMP JUMPDEST SWAP3 POP DUP2 PUSH32 0xFFFFFFFFFFFFFFFFFFFFFFFFFFFFFFFFFFFFFFFFFFFFFFFFFFFFFFFFFFFFFFFF DIV DUP4 GT DUP3 ISZERO ISZERO AND ISZERO PUSH2 0x2F78 JUMPI PUSH2 0x2F77 PUSH2 0x300A JUMP JUMPDEST JUMPDEST DUP3 DUP3 MUL SWAP1 POP SWAP3 SWAP2 POP POP JUMP JUMPDEST PUSH1 0x0 PUSH2 0x2F8E DUP3 PUSH2 0x2FB7 JUMP JUMPDEST SWAP2 POP PUSH2 0x2F99 DUP4 PUSH2 0x2FB7 JUMP JUMPDEST SWAP3 POP DUP3 DUP3 LT ISZERO PUSH2 0x2FAC JUMPI PUSH2 0x2FAB PUSH2 0x300A JUMP JUMPDEST JUMPDEST DUP3 DUP3 SUB SWAP1 POP SWAP3 SWAP2 POP POP JUMP JUMPDEST PUSH1 0x0 DUP2 SWAP1 POP SWAP2 SWAP1 POP JUMP JUMPDEST PUSH1 0x0 PUSH2 0x2FCC DUP3 PUSH2 0x2FB7 JUMP JUMPDEST SWAP2 POP PUSH32 0xFFFFFFFFFFFFFFFFFFFFFFFFFFFFFFFFFFFFFFFFFFFFFFFFFFFFFFFFFFFFFFFF DUP3 EQ ISZERO PUSH2 0x2FFF JUMPI PUSH2 0x2FFE PUSH2 0x300A JUMP JUMPDEST JUMPDEST PUSH1 0x1 DUP3 ADD SWAP1 POP SWAP2 SWAP1 POP JUMP JUMPDEST PUSH32 0x4E487B7100000000000000000000000000000000000000000000000000000000 PUSH1 0x0 MSTORE PUSH1 0x11 PUSH1 0x4 MSTORE PUSH1 0x24 PUSH1 0x0 REVERT JUMPDEST PUSH2 0x3042 DUP2 PUSH2 0x2FB7 JUMP JUMPDEST DUP2 EQ PUSH2 0x304D JUMPI PUSH1 0x0 DUP1 REVERT JUMPDEST POP JUMP INVALID LOG2 PUSH5 0x6970667358 0x22 SLT KECCAK256 0xCF 0x27 PUSH16 0xB938D4C294C9DCC3A026B2EA91ABB241 POP 0xBC 0xE5 0xE0 0xDF DUP6 0x5C 0x23 0x49 KECCAK256 0xD7 0xBE 0xAC PUSH5 0x736F6C6343 STOP ADDMOD DIV STOP CALLER "
		},
		"gasEstimates": {
			"creation": {
				"codeDepositCost": "2484400",
				"executionCost": "2680",
				"totalCost": "2487080"
			},
			"external": {
				"MiMCSponge(uint256,uint256)": "infinite",
				"customMiMCSponge(uint256,uint256)": "infinite",
				"hashMiMC(uint256,uint256)": "infinite"
			}
		},
		"methodIdentifiers": {
			"MiMCSponge(uint256,uint256)": "f47d33b5",
			"customMiMCSponge(uint256,uint256)": "62d723e1",
			"hashMiMC(uint256,uint256)": "0588bc7b"
		}
	},
	"abi": [
		{
			"inputs": [
				{
					"internalType": "uint256",
					"name": "xL",
					"type": "uint256"
				},
				{
					"internalType": "uint256",
					"name": "xR",
					"type": "uint256"
				}
			],
			"name": "MiMCSponge",
			"outputs": [
				{
					"internalType": "uint256",
					"name": "",
					"type": "uint256"
				},
				{
					"internalType": "uint256",
					"name": "",
					"type": "uint256"
				}
			],
			"stateMutability": "pure",
			"type": "function"
		},
		{
			"inputs": [
				{
					"internalType": "uint256",
					"name": "xL_in",
					"type": "uint256"
				},
				{
					"internalType": "uint256",
					"name": "xR_in",
					"type": "uint256"
				}
			],
			"name": "customMiMCSponge",
			"outputs": [
				{
					"internalType": "uint256",
					"name": "",
					"type": "uint256"
				},
				{
					"internalType": "uint256",
					"name": "",
					"type": "uint256"
				}
			],
			"stateMutability": "pure",
			"type": "function"
		},
		{
			"inputs": [
				{
					"internalType": "uint256",
					"name": "_left",
					"type": "uint256"
				},
				{
					"internalType": "uint256",
					"name": "_right",
					"type": "uint256"
				}
			],
			"name": "hashMiMC",
			"outputs": [
				{
					"internalType": "uint256",
					"name": "",
					"type": "uint256"
				}
			],
			"stateMutability": "pure",
			"type": "function"
		}
	]
}