{
  "contractName": "Election",
  "abi": [
    {
      "inputs": [],
      "stateMutability": "nonpayable",
      "type": "constructor"
    },
    {
      "anonymous": false,
      "inputs": [
        {
          "indexed": false,
          "internalType": "address",
          "name": "authorizedUser",
          "type": "address"
        }
      ],
      "name": "AnnounceAuth",
      "type": "event"
    },
    {
      "anonymous": false,
      "inputs": [
        {
          "indexed": false,
          "internalType": "string",
          "name": "stage",
          "type": "string"
        }
      ],
      "name": "AnnounceNewStage",
      "type": "event"
    },
    {
      "anonymous": false,
      "inputs": [
        {
          "indexed": false,
          "internalType": "string",
          "name": "candidate",
          "type": "string"
        },
        {
          "indexed": false,
          "internalType": "uint256[]",
          "name": "tallyCount",
          "type": "uint256[]"
        }
      ],
      "name": "AnnounceResult",
      "type": "event"
    },
    {
      "anonymous": false,
      "inputs": [
        {
          "indexed": false,
          "internalType": "string",
          "name": "candidate",
          "type": "string"
        },
        {
          "indexed": false,
          "internalType": "address",
          "name": "proofOfMembership",
          "type": "address"
        }
      ],
      "name": "AnnounceVote",
      "type": "event"
    },
    {
      "anonymous": false,
      "inputs": [
        {
          "indexed": false,
          "internalType": "uint256",
          "name": "s",
          "type": "uint256"
        }
      ],
      "name": "Debug",
      "type": "event"
    },
    {
      "inputs": [],
      "name": "activeVoters",
      "outputs": [
        {
          "internalType": "uint256",
          "name": "",
          "type": "uint256"
        }
      ],
      "stateMutability": "view",
      "type": "function",
      "constant": true
    },
    {
      "inputs": [
        {
          "internalType": "uint256",
          "name": "",
          "type": "uint256"
        }
      ],
      "name": "candidates",
      "outputs": [
        {
          "internalType": "string",
          "name": "name",
          "type": "string"
        }
      ],
      "stateMutability": "view",
      "type": "function",
      "constant": true
    },
    {
      "inputs": [],
      "name": "currentState",
      "outputs": [
        {
          "internalType": "string",
          "name": "",
          "type": "string"
        }
      ],
      "stateMutability": "view",
      "type": "function",
      "constant": true
    },
    {
      "inputs": [],
      "name": "merkleRoot",
      "outputs": [
        {
          "internalType": "uint256",
          "name": "",
          "type": "uint256"
        }
      ],
      "stateMutability": "view",
      "type": "function",
      "constant": true
    },
    {
      "inputs": [],
      "name": "name",
      "outputs": [
        {
          "internalType": "string",
          "name": "",
          "type": "string"
        }
      ],
      "stateMutability": "view",
      "type": "function",
      "constant": true
    },
    {
      "inputs": [],
      "name": "owner",
      "outputs": [
        {
          "internalType": "address",
          "name": "",
          "type": "address"
        }
      ],
      "stateMutability": "view",
      "type": "function",
      "constant": true
    },
    {
      "inputs": [
        {
          "internalType": "uint256",
          "name": "",
          "type": "uint256"
        }
      ],
      "name": "publicKey",
      "outputs": [
        {
          "internalType": "string",
          "name": "",
          "type": "string"
        }
      ],
      "stateMutability": "view",
      "type": "function",
      "constant": true
    },
    {
      "inputs": [],
      "name": "terminateElection",
      "outputs": [
        {
          "internalType": "uint256",
          "name": "",
          "type": "uint256"
        }
      ],
      "stateMutability": "view",
      "type": "function",
      "constant": true
    },
    {
      "inputs": [],
      "name": "createMerkleArray",
      "outputs": [],
      "stateMutability": "nonpayable",
      "type": "function"
    },
    {
      "inputs": [
        {
          "internalType": "string",
          "name": "str",
          "type": "string"
        }
      ],
      "name": "pushVoteKey",
      "outputs": [],
      "stateMutability": "nonpayable",
      "type": "function"
    },
    {
      "inputs": [
        {
          "internalType": "string",
          "name": "n",
          "type": "string"
        },
        {
          "internalType": "string",
          "name": "g",
          "type": "string"
        }
      ],
      "name": "pushPublicKey",
      "outputs": [],
      "stateMutability": "nonpayable",
      "type": "function"
    },
    {
      "inputs": [],
      "name": "getPublicKey",
      "outputs": [
        {
          "internalType": "string",
          "name": "n",
          "type": "string"
        },
        {
          "internalType": "string",
          "name": "g",
          "type": "string"
        }
      ],
      "stateMutability": "view",
      "type": "function",
      "constant": true
    },
    {
      "inputs": [
        {
          "internalType": "string",
          "name": "inputName",
          "type": "string"
        },
        {
          "internalType": "uint8",
          "name": "treeDepth",
          "type": "uint8"
        },
        {
          "internalType": "string",
          "name": "candidateA",
          "type": "string"
        },
        {
          "internalType": "string",
          "name": "candidateB",
          "type": "string"
        }
      ],
      "name": "conductElection",
      "outputs": [],
      "stateMutability": "nonpayable",
      "type": "function"
    },
    {
      "inputs": [
        {
          "internalType": "uint256[2]",
          "name": "a",
          "type": "uint256[2]"
        },
        {
          "internalType": "uint256[2][2]",
          "name": "b",
          "type": "uint256[2][2]"
        },
        {
          "internalType": "uint256[2]",
          "name": "c",
          "type": "uint256[2]"
        },
        {
          "internalType": "uint256[1]",
          "name": "input",
          "type": "uint256[1]"
        },
        {
          "internalType": "uint256",
          "name": "delegate",
          "type": "uint256"
        }
      ],
      "name": "submitVote",
      "outputs": [],
      "stateMutability": "nonpayable",
      "type": "function"
    },
    {
      "inputs": [
        {
          "internalType": "string",
          "name": "str",
          "type": "string"
        }
      ],
      "name": "getMerkleInfo",
      "outputs": [
        {
          "internalType": "uint256",
          "name": "targetIndex",
          "type": "uint256"
        },
        {
          "internalType": "uint256",
          "name": "firstLayerSize",
          "type": "uint256"
        },
        {
          "internalType": "uint256[]",
          "name": "entireMerkleArray",
          "type": "uint256[]"
        },
        {
          "internalType": "uint256",
          "name": "mkRoot",
          "type": "uint256"
        }
      ],
      "stateMutability": "view",
      "type": "function",
      "constant": true
    },
    {
      "inputs": [
        {
          "internalType": "address",
          "name": "citizen",
          "type": "address"
        }
      ],
      "name": "authorize",
      "outputs": [],
      "stateMutability": "nonpayable",
      "type": "function"
    },
    {
      "inputs": [],
      "name": "tallyVotes",
      "outputs": [],
      "stateMutability": "nonpayable",
      "type": "function"
    },
    {
      "inputs": [],
      "name": "getCandidates",
      "outputs": [
        {
          "internalType": "string[]",
          "name": "",
          "type": "string[]"
        }
      ],
      "stateMutability": "view",
      "type": "function",
      "constant": true
    }
  ],
  "bytecode": "0x608060405234801561001057600080fd5b5033600160006101000a81548173ffffffffffffffffffffffffffffffffffffffff021916908373ffffffffffffffffffffffffffffffffffffffff160217905550615fec806100616000396000f3fe608060405234801561001057600080fd5b50600436106101165760003560e01c80637d11f0df116100a2578063b4f3b1ca11610071578063b4f3b1ca146102af578063b6a5d7de146102cd578063bb314cd8146102e9578063eeb64a5014610307578063fba4f87b1461032357610116565b80637d11f0df1461023b5780637e95b5e9146102575780638940aebe146102615780638da5cb5b1461029157610116565b80630c3f6acf116100e95780630c3f6acf146101a65780632e334452146101c45780632eb4a7ab146101e35780633477ee2e14610201578063378a21781461023157610116565b806306a49fce1461011b57806306fdde031461013957806309709a7d146101575780630990248b1461018a575b600080fd5b61012361033f565b6040516101309190613843565b60405180910390f35b610141610501565b60405161014e91906138ac565b60405180910390f35b610171600480360381019061016c919061328d565b61058f565b60405161018194939291906139c9565b60405180910390f35b6101a4600480360381019061019f919061328d565b6106ed565b005b6101ae6107c1565b6040516101bb91906138ac565b60405180910390f35b6101cc61084f565b6040516101da9291906138ce565b60405180910390f35b6101eb6109fc565b6040516101f891906139ae565b60405180910390f35b61021b600480360381019061021691906133e5565b610a02565b60405161022891906138ac565b60405180910390f35b610239610ab8565b005b610255600480360381019061025091906132ce565b610c58565b005b61025f610cd4565b005b61027b600480360381019061027691906133e5565b611108565b60405161028891906138ac565b60405180910390f35b6102996111b4565b6040516102a69190613828565b60405180910390f35b6102b76111da565b6040516102c491906139ae565b60405180910390f35b6102e760048036038101906102e291906131c1565b6111e0565b005b6102f16112d8565b6040516102fe91906139ae565b60405180910390f35b610321600480360381019061031c919061333a565b6112de565b005b61033d600480360381019061033891906131ea565b6114dc565b005b6060600060088054905067ffffffffffffffff811115610388577f4e487b7100000000000000000000000000000000000000000000000000000000600052604160045260246000fd5b6040519080825280602002602001820160405280156103bb57816020015b60608152602001906001900390816103a65790505b50905060005b6008805490508110156104f95760088181548110610408577f4e487b7100000000000000000000000000000000000000000000000000000000600052603260045260246000fd5b9060005260206000209060020201600001805461042490613e30565b80601f016020809104026020016040519081016040528092919081815260200182805461045090613e30565b801561049d5780601f106104725761010080835404028352916020019161049d565b820191906000526020600020905b81548152906001019060200180831161048057829003601f168201915b50505050508282815181106104db577f4e487b7100000000000000000000000000000000000000000000000000000000600052603260045260246000fd5b602002602001018190525080806104f190613ead565b9150506103c1565b508091505090565b6000805461050e90613e30565b80601f016020809104026020016040519081016040528092919081815260200182805461053a90613e30565b80156105875780601f1061055c57610100808354040283529160200191610587565b820191906000526020600020905b81548152906001019060200180831161056a57829003601f168201915b505050505081565b6000806060600080610539905060006105a7876117e6565b905060005b60068054905081101561061c57600681815481106105f3577f4e487b7100000000000000000000000000000000000000000000000000000000600052603260045260246000fd5b9060005260206000200154821415610609578092505b808061061490613ead565b9150506105ac565b5061053982141561062c57600080fd5b8160058054905060068060016006805490506106489190613d31565b8154811061067f577f4e487b7100000000000000000000000000000000000000000000000000000000600052603260045260246000fd5b9060005260206000200154818054806020026020016040519081016040528092919081815260200182805480156106d557602002820191906000526020600020905b8154815260200190600101908083116106c1575b50505050509150955095509550955050509193509193565b60006106f8826117e6565b905060058190806001815401808255809150506001900390600052602060002001600090919091909150556002600081548092919061073690613ead565b919050555060046002541415610786577f8a36f5a234186d446e36a7df36ace663a05a580d9bea2dd899c6dd76a075d5fa8160405161077591906139ae565b60405180910390a1610785610cd4565b5b7f8a36f5a234186d446e36a7df36ace663a05a580d9bea2dd899c6dd76a075d5fa816040516107b591906139ae565b60405180910390a15050565b600380546107ce90613e30565b80601f01602080910402602001604051908101604052809291908181526020018280546107fa90613e30565b80156108475780601f1061081c57610100808354040283529160200191610847565b820191906000526020600020905b81548152906001019060200180831161082a57829003601f168201915b505050505081565b606080600760008154811061088d577f4e487b7100000000000000000000000000000000000000000000000000000000600052603260045260246000fd5b9060005260206000200160076001815481106108d2577f4e487b7100000000000000000000000000000000000000000000000000000000600052603260045260246000fd5b906000526020600020018180546108e890613e30565b80601f016020809104026020016040519081016040528092919081815260200182805461091490613e30565b80156109615780601f1061093657610100808354040283529160200191610961565b820191906000526020600020905b81548152906001019060200180831161094457829003601f168201915b5050505050915080805461097490613e30565b80601f01602080910402602001604051908101604052809291908181526020018280546109a090613e30565b80156109ed5780601f106109c2576101008083540402835291602001916109ed565b820191906000526020600020905b8154815290600101906020018083116109d057829003601f168201915b50505050509050915091509091565b60095481565b60088181548110610a1257600080fd5b9060005260206000209060020201600091509050806000018054610a3590613e30565b80601f0160208091040260200160405190810160405280929190818152602001828054610a6190613e30565b8015610aae5780601f10610a8357610100808354040283529160200191610aae565b820191906000526020600020905b815481529060010190602001808311610a9157829003601f168201915b5050505050905081565b7ff75583bd1a80d19a7920011d52bf4464f3140dc3ac59046d37a729fc46b9a7596008600081548110610b14577f4e487b7100000000000000000000000000000000000000000000000000000000600052603260045260246000fd5b90600052602060002090600202016000016008600081548110610b60577f4e487b7100000000000000000000000000000000000000000000000000000000600052603260045260246000fd5b9060005260206000209060020201600101604051610b7f929190613957565b60405180910390a17ff75583bd1a80d19a7920011d52bf4464f3140dc3ac59046d37a729fc46b9a7596008600181548110610be3577f4e487b7100000000000000000000000000000000000000000000000000000000600052603260045260246000fd5b90600052602060002090600202016000016008600181548110610c2f577f4e487b7100000000000000000000000000000000000000000000000000000000600052603260045260246000fd5b9060005260206000209060020201600101604051610c4e929190613957565b60405180910390a1565b600782908060018154018082558091505060019003906000526020600020016000909190919091509080519060200190610c93929190612e6a565b50600781908060018154018082558091505060019003906000526020600020016000909190919091509080519060200190610ccf929190612e6a565b505050565b6000600190506000805b6005805490508311610d1457600580549050831415610d005760019150610d14565b600283610d0d9190613cd7565b9250610cde565b5b6005805490508314158015610d2e575060001515821515145b15610d7157600561053990806001815401808255809150506001900390600052602060002001600090919091909150558280610d6990613e06565b935050610d15565b60005b600580549050811015610e3b577f8a36f5a234186d446e36a7df36ace663a05a580d9bea2dd899c6dd76a075d5fa82604051610db091906139ae565b60405180910390a160058181548110610df2577f4e487b7100000000000000000000000000000000000000000000000000000000600052603260045260246000fd5b9060005260206000200154915060068290806001815401808255809150506001900390600052602060002001600090919091909150558080610e3390613ead565b915050610d74565b5060008060058054905090506000600267ffffffffffffffff811115610e8a577f4e487b7100000000000000000000000000000000000000000000000000000000600052604160045260246000fd5b604051908082528060200260200182016040528015610eb85781602001602082028036833780820191505090505b5090505b600082111561107c5760005b600183610ed59190613d31565b8110156110595760068185610eea9190613c50565b81548110610f21577f4e487b7100000000000000000000000000000000000000000000000000000000600052603260045260246000fd5b906000526020600020015482600081518110610f66577f4e487b7100000000000000000000000000000000000000000000000000000000600052603260045260246000fd5b602002602001018181525050600660018286610f829190613c50565b610f8c9190613c50565b81548110610fc3577f4e487b7100000000000000000000000000000000000000000000000000000000600052603260045260246000fd5b906000526020600020015482600181518110611008577f4e487b7100000000000000000000000000000000000000000000000000000000600052603260045260246000fd5b602002602001018181525050600661101f836118a6565b90806001815401808255809150506001900390600052602060002001600090919091909150556002816110529190613c50565b9050610ec8565b5081836110669190613c50565b92506002826110759190613ca6565b9150610ebc565b6040518060400160405280600b81526020017f564f54494e472d4f50454e000000000000000000000000000000000000000000815250600390805190602001906110c7929190612e6a565b507fb712ca18858a18cb63ef75fe8c737e3ad52062d7389284fd4ecb4524da24e09060036040516110f89190613905565b60405180910390a1505050505050565b6007818154811061111857600080fd5b90600052602060002001600091509050805461113390613e30565b80601f016020809104026020016040519081016040528092919081815260200182805461115f90613e30565b80156111ac5780601f10611181576101008083540402835291602001916111ac565b820191906000526020600020905b81548152906001019060200180831161118f57829003601f168201915b505050505081565b600160009054906101000a900473ffffffffffffffffffffffffffffffffffffffff1681565b600a5481565b600160009054906101000a900473ffffffffffffffffffffffffffffffffffffffff1673ffffffffffffffffffffffffffffffffffffffff163373ffffffffffffffffffffffffffffffffffffffff161461123a57600080fd5b6001600460008373ffffffffffffffffffffffffffffffffffffffff1673ffffffffffffffffffffffffffffffffffffffff16815260200190815260200160002060000160006101000a81548160ff02191690831515021790555061129e816119a9565b7f081ba50acbad95aaf2f3d6ae236a307baad3be11e7c84f2b4a043cfc114ebe31336040516112cd9190613828565b60405180910390a150565b60025481565b60018360ff16101580156112f6575060218360ff1611155b6112ff57600080fd5b33600160006101000a81548173ffffffffffffffffffffffffffffffffffffffff021916908373ffffffffffffffffffffffffffffffffffffffff1602179055508360009080519060200190611356929190612e6a565b5060606008604051806040016040528085815260200183815250908060018154018082558091505060019003906000526020600020906002020160009091909190915060008201518160000190805190602001906113b5929190612e6a565b5060208201518160010190805190602001906113d2929190612ef0565b505050600860405180604001604052808481526020018381525090806001815401808255809150506001900390600052602060002090600202016000909190919091506000820151816000019080519060200190611431929190612e6a565b50602082015181600101908051906020019061144e929190612ef0565b5050506040518060400160405280601281526020017f564f54454b45592d47454e45524154494f4e00000000000000000000000000008152506003908051906020019061149c929190612e6a565b507fb712ca18858a18cb63ef75fe8c737e3ad52062d7389284fd4ecb4524da24e09060036040516114cd9190613905565b60405180910390a15050505050565b60011515600460003373ffffffffffffffffffffffffffffffffffffffff1673ffffffffffffffffffffffffffffffffffffffff16815260200190815260200160002060000160009054906101000a900460ff16151514611572576040517f08c379a00000000000000000000000000000000000000000000000000000000081526004016115699061398e565b60405180910390fd5b600060405161158090612f3d565b604051809103906000f08015801561159c573d6000803e3d6000fd5b5090508073ffffffffffffffffffffffffffffffffffffffff1663dd129313878787876040518563ffffffff1660e01b81526004016115de9493929190613865565b60206040518083038186803b1580156115f657600080fd5b505afa15801561160a573d6000803e3d6000fd5b505050506040513d601f19601f8201168201806040525081019061162e9190613264565b61163757600080fd5b60088281548110611671577f4e487b7100000000000000000000000000000000000000000000000000000000600052603260045260246000fd5b9060005260206000209060020201600101600460003373ffffffffffffffffffffffffffffffffffffffff1673ffffffffffffffffffffffffffffffffffffffff1681526020019081526020016000206001015490806001815401808255809150506001900390600052602060002001600090919091909150557f8c4bbf432c3f9c3348d45700f436aa13af99743d19b100361cbcf36e76e4432960088381548110611746577f4e487b7100000000000000000000000000000000000000000000000000000000600052603260045260246000fd5b906000526020600020906002020160000133604051611766929190613927565b60405180910390a16002600081548092919061178190613e06565b9190505550600060025414156117de576040518060400160405280600381526020017f454e440000000000000000000000000000000000000000000000000000000000815250600390805190602001906117dc929190612e6a565b505b505050505050565b6000808290506000809250600090505b815181101561189f57600082828151811061183a577f4e487b7100000000000000000000000000000000000000000000000000000000600052603260045260246000fd5b602001015160f81c60f81b60f81c60ff1690506030811015801561185f575060398111155b1561188b576030816118719190613d31565b600a8561187e9190613cd7565b6118889190613c50565b93505b50808061189790613ead565b9150506117f6565b5050919050565b6000806000905060007f30644e72e131a029b85045b68181585d2833e84879b9709143e1f593f0000001905060005b845181101561199e578161192986838151811061191b577f4e487b7100000000000000000000000000000000000000000000000000000000600052603260045260246000fd5b6020026020010151856119f4565b868381518110611962577f4e487b7100000000000000000000000000000000000000000000000000000000600052603260045260246000fd5b6020026020010151856119759190613c50565b61197f9190613c50565b6119899190613ef6565b9250808061199690613ead565b9150506118d5565b508192505050919050565b6001600460008373ffffffffffffffffffffffffffffffffffffffff1673ffffffffffffffffffffffffffffffffffffffff1681526020019081526020016000206001018190555050565b60007f30644e72e131a029b85045b68181585d2833e84879b9709143e1f593f0000001600080847f2e2ebbb178296b63d88ec198f0976ad98bc1d4eb0d921ddd2eb86cb7e70a98e58701019150828283099050828284858485098409099550847f21bfc154b5b071d22d06105663553801f858c1f231020b4c291a729d6281d3498701019150828283099050828284858485098409099550847f126cfa352b0e2701442b36e0c2fc88287cfd3bfecce842afc0e3e78d8edb4ad88701019150828283099050828284858485098409099550847f0309d7067ab65de1a99fe23f458d0bc3f18c59b6642ef48afc679ef17cb6928c8701019150828283099050828284858485098409099550847f194c4693409966960be88513cfe32987c125f71398a782e44973fb8af4798bd88701019150828283099050828284858485098409099550847f05a849684bc58cc0d6e9f319b4dae26db171733bf60f31d978e41d09a75a63198701019150828283099050828284858485098409099550847f18bd4dae5134538bd2f90d41bbb1e330b2a8286ba4a09aca3fbbdcf932534be58701019150828283099050828284858485098409099550847f0736c60cd39fd1649d4845b4f9a6ec9baca89fb2de0a3d7eeabe43504b5607fa8701019150828283099050828284858485098409099550847f25a6971a9d2c1de9f374378d8f61492b1bd3c46584c076a76c43c3cd1a7475128701019150828283099050828284858485098409099550847f0a3373d15fa6dce221f83226c02d41f8aea5cfc6da4c9f4981ada1bd4b50f56e8701019150828283099050828284858485098409099550847f2b70028e2bf4e008e22eddb78d4190d73c289dc6445b3f64e15f8bd0ec02c6728701019150828283099050828284858485098409099550847f0b24ef461a71eed93dd366342f9ca4eebb749c8a5a6057c801d538c7c0666ba48701019150828283099050828284858485098409099550847f05d1e0ac576d1ec814b621516339ae1a291c7df36b5fd6cf0b4e3c9cd25e30728701019150828283099050828284858485098409099550847f271cfbf88e9744b8596e7e2d6875c8005d0e62014010ac35e95a7ce2390bc50f8701019150828283099050828284858485098409099550847f196309f1d170d741ab1ce90c39772017fb7cdec78c37882b98a6b56956c13def8701019150828283099050828284858485098409099550847f127c1116c575c03c7f6d83417d8c1b3808f92ee16924a54094bf094721e9e4f58701019150828283099050828284858485098409099550847f1bff78047ee67d38a54fdc540f9a2ba07f63489acd36425f1ae210ac329826f58701019150828283099050828284858485098409099550847f06c7dc7bbae615fcf1896f2b8db7d92c05dc1ea1c8134e9db6fd588672c53e9a8701019150828283099050828284858485098409099550847f12df78cba175ef76dbfcc9c785926bb3949a87ec7533e2559a27a64b91cebba58701019150828283099050828284858485098409099550847f2bd4cdc962e3da62cb3c96f7c428a9b0d518bfa7ce26f8fce7a6af769afb65408701019150828283099050828284858485098409099550847f24edd3847febbe44c4cc390246e3379b47fd01a030d0cd0b4fcf7fbd1cabfe588701019150828283099050828284858485098409099550847f1ce065d2c2561bb573e4cf4259d3b0b0e9eacb447751c62b77d0bc5e4e3c7d158701019150828283099050828284858485098409099550847f18053e9f0d45f9eefbda135bfd39329e34837e633565c314fb9030b9db7381bb8701019150828283099050828284858485098409099550847f162ffa8742138bbe516168bf86ec78b1ad1e8b535ac455a7cfbb22c13f9c5a9e8701019150828283099050828284858485098409099550847f079eea42e16ac6442ca82623fc0e8d9ad3996a47a8013ea9cb73858ca42b71598701019150828283099050828284858485098409099550847f0a49af2bbe11b05bd02a69a47b1bad5b2170407ada21142f06e4e109de88a1b68701019150828283099050828284858485098409099550847f12c34eebbaa69cccc36929e8f4a6e40771e153ff77943da55c4fc860537b733a8701019150828283099050828284858485098409099550847e8de5ac6b4e359335b6fce58dc0e5e43fd2aefd86bac35abe579b8cace5dbc88701019150828283099050828284858485098409099550847f04a6e988b50d915734bf3296d83057ffe6a550f8987e4597bee7d333cd24a8658701019150828283099050828284858485098409099550847f24112633926cfc6028fa2ffd9f090b1e5428a0a87d7118356e48b5d4704492178701019150828283099050828284858485098409099550847f0d56329982f3df38a3f19fb814c3013f419ba0eb8403b27c0c0e75c6fe1cf4688701019150828283099050828284858485098409099550847f1f01ef80763c95f53c434164493d9673aeef290bf1aa1997d677b557b9692e8a8701019150828283099050828284858485098409099550847f105c5257f801527e60b0361c00075b5a79d2dc6821d8a1258d906ed453c7e7be8701019150828283099050828284858485098409099550847f03db505a0c32cb61ca099389c2180e1c83827fb41d9fed84d88766df44c630798701019150828283099050828284858485098409099550847f1262e738f38db6c79d24d9727294421cd95afa24f4700c1323ab83c3a06ace328701019150828283099050828284858485098409099550847f0ee68c3e38c194033994c0d4d7bde35bfafa35b22a95f915f82c5a3b0422bd9a8701019150828283099050828284858485098409099550847f2ee5427bd20c47f8d2f0aa9e6419f7926abcd5965084292ae54dd780077e69028701019150828283099050828284858485098409099550847f1e542d31d2a381792e0a9241c46229a22fd9382443e423a0e419d0feb58656af8701019150828283099050828284858485098409099550847f0ba39f01462ab6a7cf621952752fcde48677d7f32df47e940eacf4954c5ef6328701019150828283099050828284858485098409099550847f29c00b058c17800146bdc06b1e73ff5d0ff53df96f8463818c0572d11fcaf88b8701019150828283099050828284858485098409099550847f0b6200895b60a6c6794fcf1c2b1b15d03a713c905a8ba1f1315f7501fe1a50b88701019150828283099050828284858485098409099550847f2bc639b1b85d731f62d2c6f391d4498e392cb75edcbd5c4c0fa8b26d32d68a128701019150828283099050828284858485098409099550847f2a89f38e6440ce641127046b67d8e615f14503d72d76bf3c703a01d1463a84458701019150828283099050828284858485098409099550847f1750ede7eeeb4edd7838b67fac6d250a54055eeead10e69b3a6e1f076ca878688701019150828283099050828284858485098409099550847f0c2d65084bead2a743115be5329d5458d29802081f6f9dac4165c42651f9be2b8701019150828283099050828284858485098409099550847f28303e2d834e16e1fe33c9ab726a3e75dd0dad9bfea1a43267199e1f243993fb8701019150828283099050828284858485098409099550847f2b572811ca34ea5110d10772e4ced362ebefd7cd1e1884b769e9435914efc5e58701019150828283099050828284858485098409099550847f17521ca5799fe2ea82c67c0a8d0863b5eec0ef9b703e195dd402b7008b53f6b48701019150828283099050828284858485098409099550847f0407e54b96a5b63c609fa3797b223c73d260a365ad58b25891a5660272096bd58701019150828283099050828284858485098409099550847f1a3cd155b03c7d33cc8222c997424bc14069e2edbf4b8aa564c9e5832bdace918701019150828283099050828284858485098409099550847f296255b5e697e517c502ba49b18aaad89514a490a02e7a878b5d559841b93fbd8701019150828283099050828284858485098409099550847f174835801a1f1525b4c21853b965c5048af465e9f79de9d16748c67953da79a78701019150828283099050828284858485098409099550847f2d4afed7a708e5972e84d766292f2c841c5d8570961074d59ad3f51e9369a5978701019150828283099050828284858485098409099550847f1c0eb06744c9866e271cd29a7f17f72964faba3cd088b95e73dcce9d92c79ba68701019150828283099050828284858485098409099550847f26705e7e4f23a7d786ad1786b353a2f8b82269c7b58ab70d7b93f41685d34d458701019150828283099050828284858485098409099550847f04e674d88b90b1188353106ae25c0447acace9dc6d62cfe7fec2d7993dfd7a228701019150828283099050828284858485098409099550847f0df3335da13ff46f65095f975d157886241aeccff38fd9bba92644f8969d7e098701019150828283099050828284858485098409099550847f2dfff62b9282ec05b1fa44479a6e9debe9ac631813d2b10e44b9e0fe19e4d4ee8701019150828283099050828284858485098409099550847f08ece248fe1ce1cd705699b5cd07c990ec27721bab59b657bb138e487ee6694d8701019150828283099050828284858485098409099550847f2c1ab81db607ba76dbf71f48752c856bf183044981c3b6d1fd31b179a078f5718701019150828283099050828284858485098409099550847f01de6f8886868e351bf4caad293bd86ed29ef63810e15cb809542e01bfbbcb888701019150828283099050828284858485098409099550847f23dd8b576fa286331864d63c77fd82fa61da717533821b9382617ebd54abeb468701019150828283099050828284858485098409099550847f169f2c8e515b2cee8d183991c3712736001a7f92fb34c3e3f532dec373aacbfb8701019150828283099050828284858485098409099550847f0ecf89b898e2deca99ae5108d271f1fa92e5018c1ac899d554dc1dfa35ceb0a08701019150828283099050828284858485098409099550847f0dc0d6e76afba377dd693ed4c47a4f9fee7a88d1df5df62fd06f2f87b81de1c88701019150828283099050828284858485098409099550847f0d8d08571539c68a37dad2a6638291d323948e57a0189a7be2ec14d89308bb6d8701019150828283099050828284858485098409099550847f17d170e737533e922c934f79bad3c28f85ef14b21c7354000298cee876977a448701019150828283099050828284858485098409099550847f09ed630d4088d7acaa34064515c1cb368ed405c4ded26df38652d290b26f6aff8701019150828283099050828284858485098409099550847f2b5381943dd4c43bd059a4747b72fc116f099c46004dc811ddb440f7ee69701e8701019150828283099050828284858485098409099550847f01da34e987e965c368ec0252e97db8bfb78668db369cdf6c70f7e02b5bd52b3b8701019150828283099050828284858485098409099550847f1a18c896f124cd4821fbe08ac680b78362c15344619cef072874f43799b89f238701019150828283099050828284858485098409099550847f168dbaf0eae2cfe96f6b340bfd4922c1c41317bfff69613b81d9722e34059f208701019150828283099050828284858485098409099550847f1dfd587726ec442565eb47fc0234740634b6562d1b60192947140b8670aa40148701019150828283099050828284858485098409099550847f147a904bcd17a3f66ebd75b2c1279507001e602842a047929fd119d31edf39248701019150828283099050828284858485098409099550847e621164e8b17a476172ee2aabd9a1a67ecc05f926bec5bbaceb7524616e11668701019150828283099050828284858485098409099550847f280fcce91f920b6487ee3e6a838abbc1f7eb44e4853b22d067a56f5e908499b98701019150828283099050828284858485098409099550847f2d49d03ab6b741495e4d7cbe87ea6cf0f06aea86f528d13d57f6a05e4c868d0b8701019150828283099050828284858485098409099550847f2a59b6e410852d96661479179081af38f478b7603eb3e4f231f99633d826cde98701019150828283099050828284858485098409099550847f1a7783fa9ff7b36d38aeb75e65cfc88260b70d4600b51ab5745e5fe1dc35d9b18701019150828283099050828284858485098409099550847f286d1e7e039fa286d1bd8fe69e175ecad61693cc1f55044847191bae2ff344b28701019150828283099050828284858485098409099550847f0fa108dbe8e14e8c53093f9aaf1f989dabb3dc026ffecb049d3d6b4b2c9b80778701019150828283099050828284858485098409099550847f0e4b25635fa58150829c3e832c4361bfa7edfdf40b0514c00dd3a7338131f1938701019150828283099050828284858485098409099550847f23b0ea71b8bbd3cb62b741e525f5c8b35cbfed820aaf1234d03a4655cdf710398701019150828283099050828284858485098409099550847f2aced572dbfd2664569030fcf391019702f79cbfbe380714894fbfc785dad03f8701019150828283099050828284858485098409099550847f03c36b340d12daf2422febd15a4521f351459057c2affd6816c67fa38b3cc34d8701019150828283099050828284858485098409099550847f17d64c030f29369c09ffd529c7532b84228e69ef6dd9d9dab603ba86cb9254e78701019150828283099050828284858485098409099550847f095050333e4136e4c73b4101ab008bf625a73c51afd5e77f99c606ca7ace63d78701019150828283099050828284858485098409099550847f10ca0fd2a95bc198763d375f566182463e0c92ea122df6485f1c4e5a9769b32c8701019150828283099050828284858485098409099550847f29f63c935efe224e235d5b49b88578a97b25c739a342d4a0d908b98ef757db618701019150828283099050828284858485098409099550847f1e1289b8eff2d431b178bc957cc0c41a1d7237057b9256fd090eb3c6366b9ef58701019150828283099050828284858485098409099550847f1ed8ee02730ece601f15be81e7d27250c4a4d4c04e7a2f3f4e79b931fd9ffac9870101915082828309905082828485848509840909955082858708935050505092915050565b828054612e7690613e30565b90600052602060002090601f016020900481019282612e985760008555612edf565b82601f10612eb157805160ff1916838001178555612edf565b82800160010185558215612edf579182015b82811115612ede578251825591602001919060010190612ec3565b5b509050612eec9190612f4a565b5090565b828054828255906000526020600020908101928215612f2c579160200282015b82811115612f2b578251825591602001919060010190612f10565b5b509050612f399190612f4a565b5090565b611ef7806140c083390190565b5b80821115612f63576000816000905550600101612f4b565b5090565b6000612f7a612f7584613a3a565b613a15565b90508082856040860282011115612f9057600080fd5b60005b85811015612fc05781612fa68882613131565b845260208401935060408301925050600181019050612f93565b5050509392505050565b6000612fdd612fd884613a60565b613a15565b90508082856020860282011115612ff357600080fd5b60005b8581101561302357816130098882613197565b845260208401935060208301925050600181019050612ff6565b5050509392505050565b600061304061303b84613a86565b613a15565b9050808285602086028201111561305657600080fd5b60005b85811015613086578161306c8882613197565b845260208401935060208301925050600181019050613059565b5050509392505050565b60006130a361309e84613aac565b613a15565b9050828152602081018484840111156130bb57600080fd5b6130c6848285613dc4565b509392505050565b6000813590506130dd81614063565b92915050565b600082601f8301126130f457600080fd5b6002613101848285612f67565b91505092915050565b600082601f83011261311b57600080fd5b6001613128848285612fca565b91505092915050565b600082601f83011261314257600080fd5b600261314f84828561302d565b91505092915050565b6000815190506131678161407a565b92915050565b600082601f83011261317e57600080fd5b813561318e848260208601613090565b91505092915050565b6000813590506131a681614091565b92915050565b6000813590506131bb816140a8565b92915050565b6000602082840312156131d357600080fd5b60006131e1848285016130ce565b91505092915050565b6000806000806000610140868803121561320357600080fd5b600061321188828901613131565b9550506040613222888289016130e3565b94505060c061323388828901613131565b9350506101006132458882890161310a565b92505061012061325788828901613197565b9150509295509295909350565b60006020828403121561327657600080fd5b600061328484828501613158565b91505092915050565b60006020828403121561329f57600080fd5b600082013567ffffffffffffffff8111156132b957600080fd5b6132c58482850161316d565b91505092915050565b600080604083850312156132e157600080fd5b600083013567ffffffffffffffff8111156132fb57600080fd5b6133078582860161316d565b925050602083013567ffffffffffffffff81111561332457600080fd5b6133308582860161316d565b9150509250929050565b6000806000806080858703121561335057600080fd5b600085013567ffffffffffffffff81111561336a57600080fd5b6133768782880161316d565b9450506020613387878288016131ac565b935050604085013567ffffffffffffffff8111156133a457600080fd5b6133b08782880161316d565b925050606085013567ffffffffffffffff8111156133cd57600080fd5b6133d98782880161316d565b91505092959194509250565b6000602082840312156133f757600080fd5b600061340584828501613197565b91505092915050565b600061341a8383613584565b60408301905092915050565b600061343283836136f5565b905092915050565b6000613446838361380a565b60208301905092915050565b61345b81613d6f565b82525050565b61346a81613b45565b6134748184613be0565b925061347f82613add565b8060005b838110156134b0578151613497878261340e565b96506134a283613b92565b925050600181019050613483565b505050505050565b60006134c382613b50565b6134cd8185613beb565b9350836020820285016134df85613ae7565b8060005b8581101561351b57848403895281516134fc8582613426565b945061350783613b9f565b925060208a019950506001810190506134e3565b50829750879550505050505092915050565b61353681613b5b565b6135408184613bfc565b925061354b82613af7565b8060005b8381101561357c578151613563878261343a565b965061356e83613bac565b92505060018101905061354f565b505050505050565b61358d81613b66565b6135978184613c07565b92506135a282613b01565b8060005b838110156135d35781516135ba878261343a565b96506135c583613bb9565b9250506001810190506135a6565b505050505050565b6135e481613b66565b6135ee8184613c12565b92506135f982613b01565b8060005b8381101561362a578151613611878261343a565b965061361c83613bb9565b9250506001810190506135fd565b505050505050565b600061363d82613b71565b6136478185613c1d565b935061365283613b0b565b8060005b8381101561368357815161366a888261343a565b975061367583613bc6565b925050600181019050613656565b5085935050505092915050565b600061369b82613b7c565b6136a58185613c1d565b93506136b083613b1b565b8060005b838110156136e8576136c582613fe3565b6136cf888261343a565b97506136da83613bd3565b9250506001810190506136b4565b5085935050505092915050565b600061370082613b87565b61370a8185613c2e565b935061371a818560208601613dd3565b61372381613ff6565b840191505092915050565b600061373982613b87565b6137438185613c3f565b9350613753818560208601613dd3565b61375c81613ff6565b840191505092915050565b6000815461377481613e30565b61377e8186613c3f565b9450600182166000811461379957600181146137ab576137de565b60ff19831686526020860193506137de565b6137b485613b30565b60005b838110156137d6578154818901526001820191506020810190506137b7565b808801955050505b50505092915050565b60006137f4602883613c3f565b91506137ff82614014565b604082019050919050565b61381381613dad565b82525050565b61382281613dad565b82525050565b600060208201905061383d6000830184613452565b92915050565b6000602082019050818103600083015261385d81846134b8565b905092915050565b60006101208201905061387b60008301876135db565b6138886040830186613461565b61389560c08301856135db565b6138a361010083018461352d565b95945050505050565b600060208201905081810360008301526138c6818461372e565b905092915050565b600060408201905081810360008301526138e8818561372e565b905081810360208301526138fc818461372e565b90509392505050565b6000602082019050818103600083015261391f8184613767565b905092915050565b600060408201905081810360008301526139418185613767565b90506139506020830184613452565b9392505050565b600060408201905081810360008301526139718185613767565b905081810360208301526139858184613690565b90509392505050565b600060208201905081810360008301526139a7816137e7565b9050919050565b60006020820190506139c36000830184613819565b92915050565b60006080820190506139de6000830187613819565b6139eb6020830186613819565b81810360408301526139fd8185613632565b9050613a0c6060830184613819565b95945050505050565b6000613a1f613a30565b9050613a2b8282613e7c565b919050565b6000604051905090565b600067ffffffffffffffff821115613a5557613a54613fb4565b5b602082029050919050565b600067ffffffffffffffff821115613a7b57613a7a613fb4565b5b602082029050919050565b600067ffffffffffffffff821115613aa157613aa0613fb4565b5b602082029050919050565b600067ffffffffffffffff821115613ac757613ac6613fb4565b5b613ad082613ff6565b9050602081019050919050565b6000819050919050565b6000819050602082019050919050565b6000819050919050565b6000819050919050565b6000819050602082019050919050565b60008190508160005260206000209050919050565b60008190508160005260206000209050919050565b600060029050919050565b600081519050919050565b600060019050919050565b600060029050919050565b600081519050919050565b600081549050919050565b600081519050919050565b6000602082019050919050565b6000602082019050919050565b6000602082019050919050565b6000602082019050919050565b6000602082019050919050565b6000600182019050919050565b600081905092915050565b600082825260208201905092915050565b600081905092915050565b600081905092915050565b600081905092915050565b600082825260208201905092915050565b600082825260208201905092915050565b600082825260208201905092915050565b6000613c5b82613dad565b9150613c6683613dad565b9250827fffffffffffffffffffffffffffffffffffffffffffffffffffffffffffffffff03821115613c9b57613c9a613f27565b5b828201905092915050565b6000613cb182613dad565b9150613cbc83613dad565b925082613ccc57613ccb613f56565b5b828204905092915050565b6000613ce282613dad565b9150613ced83613dad565b9250817fffffffffffffffffffffffffffffffffffffffffffffffffffffffffffffffff0483118215151615613d2657613d25613f27565b5b828202905092915050565b6000613d3c82613dad565b9150613d4783613dad565b925082821015613d5a57613d59613f27565b5b828203905092915050565b6000819050919050565b6000613d7a82613d8d565b9050919050565b60008115159050919050565b600073ffffffffffffffffffffffffffffffffffffffff82169050919050565b6000819050919050565b600060ff82169050919050565b82818337600083830152505050565b60005b83811015613df1578082015181840152602081019050613dd6565b83811115613e00576000848401525b50505050565b6000613e1182613dad565b91506000821415613e2557613e24613f27565b5b600182039050919050565b60006002820490506001821680613e4857607f821691505b60208210811415613e5c57613e5b613f85565b5b50919050565b6000613e75613e7083614007565b613d65565b9050919050565b613e8582613ff6565b810181811067ffffffffffffffff82111715613ea457613ea3613fb4565b5b80604052505050565b6000613eb882613dad565b91507fffffffffffffffffffffffffffffffffffffffffffffffffffffffffffffffff821415613eeb57613eea613f27565b5b600182019050919050565b6000613f0182613dad565b9150613f0c83613dad565b925082613f1c57613f1b613f56565b5b828206905092915050565b7f4e487b7100000000000000000000000000000000000000000000000000000000600052601160045260246000fd5b7f4e487b7100000000000000000000000000000000000000000000000000000000600052601260045260246000fd5b7f4e487b7100000000000000000000000000000000000000000000000000000000600052602260045260246000fd5b7f4e487b7100000000000000000000000000000000000000000000000000000000600052604160045260246000fd5b6000613fef8254613e62565b9050919050565b6000601f19601f8301169050919050565b60008160001c9050919050565b7f546865206f776e657220646964206e6f7420617574686f72697a6520796f752060008201527f746f20766f74652e000000000000000000000000000000000000000000000000602082015250565b61406c81613d6f565b811461407757600080fd5b50565b61408381613d81565b811461408e57600080fd5b50565b61409a81613dad565b81146140a557600080fd5b50565b6140b181613db7565b81146140bc57600080fd5b5056fe608060405234801561001057600080fd5b50611ed7806100206000396000f3fe608060405234801561001057600080fd5b506004361061002b5760003560e01c8063dd12931314610030575b600080fd5b61004a60048036038101906100459190611b21565b610060565b6040516100579190611b95565b60405180910390f35b600061006a61182c565b6040518060400160405280876000600281106100af577f4e487b7100000000000000000000000000000000000000000000000000000000600052603260045260246000fd5b60200201518152602001876001600281106100f3577f4e487b7100000000000000000000000000000000000000000000000000000000600052603260045260246000fd5b602002015181525081600001819052506040518060400160405280604051806040016040528088600060028110610153577f4e487b7100000000000000000000000000000000000000000000000000000000600052603260045260246000fd5b6020020151600060028110610191577f4e487b7100000000000000000000000000000000000000000000000000000000600052603260045260246000fd5b60200201518152602001886000600281106101d5577f4e487b7100000000000000000000000000000000000000000000000000000000600052603260045260246000fd5b6020020151600160028110610213577f4e487b7100000000000000000000000000000000000000000000000000000000600052603260045260246000fd5b60200201518152508152602001604051806040016040528088600160028110610265577f4e487b7100000000000000000000000000000000000000000000000000000000600052603260045260246000fd5b60200201516000600281106102a3577f4e487b7100000000000000000000000000000000000000000000000000000000600052603260045260246000fd5b60200201518152602001886001600281106102e7577f4e487b7100000000000000000000000000000000000000000000000000000000600052603260045260246000fd5b6020020151600160028110610325577f4e487b7100000000000000000000000000000000000000000000000000000000600052603260045260246000fd5b6020020151815250815250816020018190525060405180604001604052808560006002811061037d577f4e487b7100000000000000000000000000000000000000000000000000000000600052603260045260246000fd5b60200201518152602001856001600281106103c1577f4e487b7100000000000000000000000000000000000000000000000000000000600052603260045260246000fd5b602002015181525081604001819052506000600167ffffffffffffffff811115610414577f4e487b7100000000000000000000000000000000000000000000000000000000600052604160045260246000fd5b6040519080825280602002602001820160405280156104425781602001602082028036833780820191505090505b50905060005b60018110156104e75784816001811061048a577f4e487b7100000000000000000000000000000000000000000000000000000000600052603260045260246000fd5b60200201518282815181106104c8577f4e487b7100000000000000000000000000000000000000000000000000000000600052603260045260246000fd5b60200260200101818152505080806104df90611d72565b915050610448565b5060006104f48284610514565b14156105055760019250505061050c565b6000925050505b949350505050565b6000807f30644e72e131a029b85045b68181585d2833e84879b9709143e1f593f000000190506000610544610743565b90508060800151516001865161055a9190611c47565b1461056457600080fd5b60006040518060400160405280600081526020016000815250905060005b865181101561068f57838782815181106105c5577f4e487b7100000000000000000000000000000000000000000000000000000000600052603260045260246000fd5b6020026020010151106105d757600080fd5b61067a8261067585608001516001856105f09190611c47565b81518110610627577f4e487b7100000000000000000000000000000000000000000000000000000000600052603260045260246000fd5b60200260200101518a8581518110610668577f4e487b7100000000000000000000000000000000000000000000000000000000600052603260045260246000fd5b6020026020010151610bb9565b610cd2565b9150808061068790611d72565b915050610582565b506106df8183608001516000815181106106d2577f4e487b7100000000000000000000000000000000000000000000000000000000600052603260045260246000fd5b6020026020010151610cd2565b9050610725856000015186602001516106f784610e37565b85604001516107098a60400151610e37565b876060015161071b8960000151610e37565b8960200151610edc565b610735576001935050505061073d565b600093505050505b92915050565b61074b61185f565b60405180604001604052807f13d0948d7bac37115ffe695b1bec816562e8ad9ebe85e48fbb4acdeac1ca7f0f81526020017f0f6345e1d9d912e72c27bc5cd72968953c5d5d60b61cb0928292b690ee2a32e88152508160000181905250604051806040016040528060405180604001604052807f246d1ac05dd25736ad52f89e0dfc15b256c05b88c47d1b89d92e3465ced7d68e81526020017f1f5fdd7ba77a5e62cc3118cae2dc1d08e3beb077ed8678d3c795c88acbabf0dc815250815260200160405180604001604052807f03d84ced94d63664d79169901c1e647dd3dbd13e7a835eab55a430df6e3cfd2381526020017f2f8b8d95ab5486766d36363d74a6ca3827a0e85e7a164aa685fb48851679fe9a8152508152508160200181905250604051806040016040528060405180604001604052807f0e052453ff1e8f2bb909b58dc416be22424339545d1d90c62ace5f07e4c8515781526020017f03f097cbc1fca4d6dfc61394645fd677951ea45ddd533adadfe1f6e191a1a464815250815260200160405180604001604052807f152ce4bb40816fc576a567a0198a312fc45c0ef6cd15d6dcc2827b204295a85981526020017f15c3637b00799f75e94e714364626828ed562fe6752d061c40a7b551cb615f9e8152508152508160400181905250604051806040016040528060405180604001604052807f03a8e769de7626769fe54dd5554374234f5f906d3e1d96ba16be869aac8a754a81526020017f2716ed38b7577dac6f197304d33a0cb953745f58a2ab834f3b966848e972fc3c815250815260200160405180604001604052807f062d1d3797a372e780e242b2a43ed20d84b7ff42397dec28503d1ba5cdd6b59e81526020017f1daf6a4c3a747ee44da02dd31c511d302c8afb93c3955cce13dd10a4bd1de3558152508152508160600181905250600267ffffffffffffffff811115610a38577f4e487b7100000000000000000000000000000000000000000000000000000000600052604160045260246000fd5b604051908082528060200260200182016040528015610a7157816020015b610a5e6118a6565b815260200190600190039081610a565790505b50816080018190525060405180604001604052807f206dd45935e91292fc26a3d994bb597b5af356c338545ed138b672165e87ea6b81526020017f289c538fa6b02ad0c297449fa879dad2c545afe9f43d1e48d280b476f18524c78152508160800151600081518110610b0d577f4e487b7100000000000000000000000000000000000000000000000000000000600052603260045260246000fd5b602002602001018190525060405180604001604052807f12d8504eae4a1eda9479f7abaf1dcdac975bb9af382f7cd24578a0edcc6c1caf81526020017f18f38d5a118d0bbe54e97064f8381b99f9538328e8f8dc26c0df87e73362c6c68152508160800151600181518110610bab577f4e487b7100000000000000000000000000000000000000000000000000000000600052603260045260246000fd5b602002602001018190525090565b610bc16118a6565b610bc96118c0565b836000015181600060038110610c08577f4e487b7100000000000000000000000000000000000000000000000000000000600052603260045260246000fd5b602002018181525050836020015181600160038110610c50577f4e487b7100000000000000000000000000000000000000000000000000000000600052603260045260246000fd5b6020020181815250508281600260038110610c94577f4e487b7100000000000000000000000000000000000000000000000000000000600052603260045260246000fd5b602002018181525050600060608360808460076107d05a03fa90508060008114610cbd57610cbf565bfe5b5080610cca57600080fd5b505092915050565b610cda6118a6565b610ce26118e2565b836000015181600060048110610d21577f4e487b7100000000000000000000000000000000000000000000000000000000600052603260045260246000fd5b602002018181525050836020015181600160048110610d69577f4e487b7100000000000000000000000000000000000000000000000000000000600052603260045260246000fd5b602002018181525050826000015181600260048110610db1577f4e487b7100000000000000000000000000000000000000000000000000000000600052603260045260246000fd5b602002018181525050826020015181600360048110610df9577f4e487b7100000000000000000000000000000000000000000000000000000000600052603260045260246000fd5b602002018181525050600060608360c08460066107d05a03fa90508060008114610e2257610e24565bfe5b5080610e2f57600080fd5b505092915050565b610e3f6118a6565b60007f30644e72e131a029b85045b68181585d97816a916871ca8d3c208c16d87cfd47905060008360000151148015610e7c575060008360200151145b15610ea0576040518060400160405280600081526020016000815250915050610ed7565b604051806040016040528084600001518152602001828560200151610ec59190611dbb565b83610ed09190611cf7565b8152509150505b919050565b600080600467ffffffffffffffff811115610f20577f4e487b7100000000000000000000000000000000000000000000000000000000600052604160045260246000fd5b604051908082528060200260200182016040528015610f5957816020015b610f466118a6565b815260200190600190039081610f3e5790505b5090506000600467ffffffffffffffff811115610f9f577f4e487b7100000000000000000000000000000000000000000000000000000000600052604160045260246000fd5b604051908082528060200260200182016040528015610fd857816020015b610fc5611904565b815260200190600190039081610fbd5790505b5090508a82600081518110611016577f4e487b7100000000000000000000000000000000000000000000000000000000600052603260045260246000fd5b6020026020010181905250888260018151811061105c577f4e487b7100000000000000000000000000000000000000000000000000000000600052603260045260246000fd5b602002602001018190525086826002815181106110a2577f4e487b7100000000000000000000000000000000000000000000000000000000600052603260045260246000fd5b602002602001018190525084826003815181106110e8577f4e487b7100000000000000000000000000000000000000000000000000000000600052603260045260246000fd5b6020026020010181905250898160008151811061112e577f4e487b7100000000000000000000000000000000000000000000000000000000600052603260045260246000fd5b60200260200101819052508781600181518110611174577f4e487b7100000000000000000000000000000000000000000000000000000000600052603260045260246000fd5b602002602001018190525085816002815181106111ba577f4e487b7100000000000000000000000000000000000000000000000000000000600052603260045260246000fd5b60200260200101819052508381600381518110611200577f4e487b7100000000000000000000000000000000000000000000000000000000600052603260045260246000fd5b60200260200101819052506112158282611225565b9250505098975050505050505050565b6000815183511461123557600080fd5b600083519050600060068261124a9190611c9d565b905060008167ffffffffffffffff81111561128e577f4e487b7100000000000000000000000000000000000000000000000000000000600052604160045260246000fd5b6040519080825280602002602001820160405280156112bc5781602001602082028036833780820191505090505b50905060005b838110156117a157868181518110611303577f4e487b7100000000000000000000000000000000000000000000000000000000600052603260045260246000fd5b60200260200101516000015182600060068461131f9190611c9d565b6113299190611c47565b81518110611360577f4e487b7100000000000000000000000000000000000000000000000000000000600052603260045260246000fd5b6020026020010181815250508681815181106113a5577f4e487b7100000000000000000000000000000000000000000000000000000000600052603260045260246000fd5b6020026020010151602001518260016006846113c19190611c9d565b6113cb9190611c47565b81518110611402577f4e487b7100000000000000000000000000000000000000000000000000000000600052603260045260246000fd5b602002602001018181525050858181518110611447577f4e487b7100000000000000000000000000000000000000000000000000000000600052603260045260246000fd5b60200260200101516000015160016002811061148c577f4e487b7100000000000000000000000000000000000000000000000000000000600052603260045260246000fd5b60200201518260026006846114a19190611c9d565b6114ab9190611c47565b815181106114e2577f4e487b7100000000000000000000000000000000000000000000000000000000600052603260045260246000fd5b602002602001018181525050858181518110611527577f4e487b7100000000000000000000000000000000000000000000000000000000600052603260045260246000fd5b60200260200101516000015160006002811061156c577f4e487b7100000000000000000000000000000000000000000000000000000000600052603260045260246000fd5b60200201518260036006846115819190611c9d565b61158b9190611c47565b815181106115c2577f4e487b7100000000000000000000000000000000000000000000000000000000600052603260045260246000fd5b602002602001018181525050858181518110611607577f4e487b7100000000000000000000000000000000000000000000000000000000600052603260045260246000fd5b60200260200101516020015160016002811061164c577f4e487b7100000000000000000000000000000000000000000000000000000000600052603260045260246000fd5b60200201518260046006846116619190611c9d565b61166b9190611c47565b815181106116a2577f4e487b7100000000000000000000000000000000000000000000000000000000600052603260045260246000fd5b6020026020010181815250508581815181106116e7577f4e487b7100000000000000000000000000000000000000000000000000000000600052603260045260246000fd5b60200260200101516020015160006002811061172c577f4e487b7100000000000000000000000000000000000000000000000000000000600052603260045260246000fd5b60200201518260056006846117419190611c9d565b61174b9190611c47565b81518110611782577f4e487b7100000000000000000000000000000000000000000000000000000000600052603260045260246000fd5b602002602001018181525050808061179990611d72565b9150506112c2565b506117aa61192a565b6000602082602086026020860160086107d05a03fa905080600081146117cf576117d1565bfe5b50806117dc57600080fd5b600082600060018110611818577f4e487b7100000000000000000000000000000000000000000000000000000000600052603260045260246000fd5b602002015114159550505050505092915050565b604051806060016040528061183f6118a6565b815260200161184c611904565b81526020016118596118a6565b81525090565b6040518060a001604052806118726118a6565b815260200161187f611904565b815260200161188c611904565b8152602001611899611904565b8152602001606081525090565b604051806040016040528060008152602001600081525090565b6040518060600160405280600390602082028036833780820191505090505090565b6040518060800160405280600490602082028036833780820191505090505090565b604051806040016040528061191761194c565b815260200161192461194c565b81525090565b6040518060200160405280600190602082028036833780820191505090505090565b6040518060400160405280600290602082028036833780820191505090505090565b600061198161197c84611bd5565b611bb0565b9050808285604086028201111561199757600080fd5b60005b858110156119c757816119ad8882611ae5565b84526020840193506040830192505060018101905061199a565b5050509392505050565b60006119e46119df84611bfb565b611bb0565b905080828560208602820111156119fa57600080fd5b60005b85811015611a2a5781611a108882611b0c565b8452602084019350602083019250506001810190506119fd565b5050509392505050565b6000611a47611a4284611c21565b611bb0565b90508082856020860282011115611a5d57600080fd5b60005b85811015611a8d5781611a738882611b0c565b845260208401935060208301925050600181019050611a60565b5050509392505050565b600082601f830112611aa857600080fd5b6002611ab584828561196e565b91505092915050565b600082601f830112611acf57600080fd5b6001611adc8482856119d1565b91505092915050565b600082601f830112611af657600080fd5b6002611b03848285611a34565b91505092915050565b600081359050611b1b81611e8a565b92915050565b6000806000806101208587031215611b3857600080fd5b6000611b4687828801611ae5565b9450506040611b5787828801611a97565b93505060c0611b6887828801611ae5565b925050610100611b7a87828801611abe565b91505092959194509250565b611b8f81611d2b565b82525050565b6000602082019050611baa6000830184611b86565b92915050565b6000611bba611bcb565b9050611bc68282611d41565b919050565b6000604051905090565b600067ffffffffffffffff821115611bf057611bef611e4a565b5b602082029050919050565b600067ffffffffffffffff821115611c1657611c15611e4a565b5b602082029050919050565b600067ffffffffffffffff821115611c3c57611c3b611e4a565b5b602082029050919050565b6000611c5282611d37565b9150611c5d83611d37565b9250827fffffffffffffffffffffffffffffffffffffffffffffffffffffffffffffffff03821115611c9257611c91611dec565b5b828201905092915050565b6000611ca882611d37565b9150611cb383611d37565b9250817fffffffffffffffffffffffffffffffffffffffffffffffffffffffffffffffff0483118215151615611cec57611ceb611dec565b5b828202905092915050565b6000611d0282611d37565b9150611d0d83611d37565b925082821015611d2057611d1f611dec565b5b828203905092915050565b60008115159050919050565b6000819050919050565b611d4a82611e79565b810181811067ffffffffffffffff82111715611d6957611d68611e4a565b5b80604052505050565b6000611d7d82611d37565b91507fffffffffffffffffffffffffffffffffffffffffffffffffffffffffffffffff821415611db057611daf611dec565b5b600182019050919050565b6000611dc682611d37565b9150611dd183611d37565b925082611de157611de0611e1b565b5b828206905092915050565b7f4e487b7100000000000000000000000000000000000000000000000000000000600052601160045260246000fd5b7f4e487b7100000000000000000000000000000000000000000000000000000000600052601260045260246000fd5b7f4e487b7100000000000000000000000000000000000000000000000000000000600052604160045260246000fd5b6000601f19601f8301169050919050565b611e9381611d37565b8114611e9e57600080fd5b5056fea26469706673582212203fd4f96cffbb4d450dab008a4e1ed26d75db69a80cf6f974e97da6d10408676464736f6c63430008040033a264697066735822122099cd97dfea4caf3742d4bfdfc4b8bca1789da76f59cb2c1ded1a9e0a7cc8018664736f6c63430008040033",
  "immutableReferences": {},
  "source": "pragma solidity ^0.8.0;\n\nimport \"./MiMC.sol\";\nimport \"./verifier.sol\";\nimport \"./utility.sol\";\n/* PERSONEL NOTES:\nEach invokation will cost Gas (measured in computational steps), the transaction\nof incrementing a candidate vote and losing right to vote (again) is\n STORAGE -> STATE VARIABLES\n MEMORY -> LOCAL VAR WITHIN function\n CALLDATA -> ONLY WITHIN PARAM \n/* We can pre-generate a proof of membership circuit in Zokrates using a Merkle Tree with all public keys as an input. A user may prove that\nhe is a member of the tree via the Merkle Root rt. \n\n/* @TODO: Merkle Tree Generator, input values into zok file\nProving membership: \nInputs => Public merkleRoot, treeDepth, Private uint[] directionNavigator, currentNode, \n\nUser Inputs into Proof Generation => Private secretKey\n\nOwner Inputs => Self generated Secret Key and Public Key, and Verification Key\nWhen contract is deployed, the state change is appended onto the blockchain. */\n/*struct MerkleTree {\n    string value;\n    MerkleTree left;\n    MerkleTree right;\n\n}*/\n\n\ncontract Election {\n    struct Candidate {\n        string name;\n        uint[] votes; /* A list of encrypted vote values for this candidate */\n    }\n    /* Each address in Address Space is mapped to an empty Voter struct with default values */\n    struct Voter {\n        bool authorized; /* So an owner has control over which public addresses may invoke functions */\n        bool submittedVoteKey; /* So we can prevent multiple voteKeys from one address */\n        uint weight; /* The on-chain calculated weight of the voter*/\n    }\n    string public name;\n    address public owner;\n    uint public activeVoters;\n    //@TODO: Convert state variable to enum or int for comparison in require\n    string public currentState;\n    // Key: Address, Value: Voter \n    //i.e Map a Voter object to ALL addresses\n    mapping(address => Voter) voters;\n    uint256[] internal voteKeyArray;\n    uint256[] internal merkleArray;\n    string[] public publicKey;\n    Candidate[] public candidates;\n    uint256 public merkleRoot;\n    /* The election starters public key */\n    uint public terminateElection;\n    /* Everytime the stage transitions, an announcement is made to all suscribers.\n    STATES: VOTEKEY-GENERATION => VOTE => END */\n    event AnnounceNewStage(string stage);\n    /* Everytime a vote is executed, this event is logged onto the block. Currently the voters public address is shown next to the candidate they voted\n    for, in future updates this address will be replaced by a ZKP */\n    event AnnounceVote(string candidate, address proofOfMembership);\n    /* Emit an event every time a vote tally is called. (DEBUG) */\n    event AnnounceResult(string candidate, uint[] tallyCount);\n    /* Create an Event each time the owner authorizes a voter */\n    event AnnounceAuth(address authorizedUser);\n    event Debug(uint256 s);\n    /* Called only when contract is created, contract compiler is the owner */\n    constructor(){\n        owner = msg.sender;\n    }\n    /* When a potential voter wishes to generate a proof, they required their index in the Merkle Tree aswell as the Merkle Root*/\n /*   function getMerkleInfo(string memory voteKey) public returns() {\n\n    } */\n    /* Once the VOTEKEY-GENERATION period has expired, this function is called to produce a Merkle Tree.\n    There should be a Nth power of 2 length of valid vote keys, if such a case does not exist dummy values are pumped. \n    GAS COST EST: 300k */\n    function createMerkleArray() public {\n        /* Guarantee that a valid merkle tree can be constructed with the given nodes*/\n        //assert(voteKeyArray.length >= 2);\n        uint pow = 1; bool isPowerOf2 = false;\n        uint256 tempValDebug =0;\n        /* Find the power of 2 closest or equal to the length, if equal do nothing */\n        while(pow <= voteKeyArray.length){ if(pow == voteKeyArray.length) { isPowerOf2 = true; break; } else { pow = pow *2; } }\n        /* If index isn't a power of two, we pump it with static public vote keys */\n        while(pow != voteKeyArray.length && isPowerOf2 == false){ voteKeyArray.push(1337); pow--; }\n        /* For each voteKey struct present, transfer the hashed value into the Merkle Array */\n        for(uint i =0; i < voteKeyArray.length; i++){\n            //leaf = MiMC.MiMC_Hash([voteKeyArray[i],voteKeyArray[i+1]]);\n            emit Debug(tempValDebug);\n            tempValDebug = voteKeyArray[i];\n            merkleArray.push(tempValDebug);\n        }\n        uint nodeCount=0;\n        uint n = voteKeyArray.length;\n        /* While there are still nodes to traverse*/\n\n        uint256[] memory x = new uint[](2); //Should be statically defined\n          while (n > 0) {\n            /* Each iteration covers one layer of the tree. Starting with the original voteKey values */\n            for (uint offset = 0; offset < n - 1; offset+=2) { //Offset is the number of nodes operated on within the scope of the iteration\n                /* Pair-hash neighbouring nodes and move forward by two steps*/\n                /* Transfer values from the appropiate index (nodes already covered + offset)*/\n                x[0] = merkleArray[nodeCount + offset];\n                x[1] = merkleArray[nodeCount + offset + 1];\n                /* Combine both nodes using MiMC Hash and push to the array as a Parent*/\n                merkleArray.push(MiMC.MiMC_Hash(x));\n            }\n            /* Add the count of this new layer to our total node count*/\n            nodeCount += n;\n            /* Div2 will get us to the next layer count, due to the nice properties of Binary Trees and Powers of 2 we can just div*/\n            n = n / 2;\n            if(n <= 0){ //next while wont occur. The offset at this point is the number of nodes in the tree\n            }\n        }\n        /* merkleArray now contains all nodes, ordered by indexing of layer size. i.e 8 voteKeys => index [0..7], 4 parent nodes produced => index [8..11], 2 nodes produced => index [12..13], Merkle Root => index [14]*/\n        currentState = \"VOTING-OPEN\";\n        emit AnnounceNewStage(currentState); \n    }\n    /* Use Case (DApp)\n    When a user inputs a secret key (SK) and clicks the 'Join Vote' button,\n    SK is locally hashed using MiMC before being sent as a VOTE KEY\n    The user is only able to push 1 vote-key per public address (to prevent double-registration) */\n    function pushVoteKey(string memory str) public {\n        uint256 voteKey = utility.stringToUint(str);\n        /* check double-vote and if votekey generation stage is active*/\n       // require(currentState == \"VOTEKEY-GENERATION\");\n        /* Make sure the voter has been authorized and that they haven't already generated a key*/\n        //require(/*voters[msg.sender].authorized == true &&*/ voters[msg.sender].submittedVoteKey == false);\n        /* Mapping Implementation */\n        /* Array Implementation */\n        voteKeyArray.push(voteKey);\n        activeVoters++;\n        /* Check if our voter count exceeded or reached a power of 2*/\n        if(activeVoters == 4) { \n\n            emit Debug(voteKey);\n           createMerkleArray();\n            }\n            emit Debug(voteKey);\n    }   \n    function pushPublicKey(string memory n, string memory g) public {\n        publicKey.push(n); publicKey.push(g);\n    }\n    function getPublicKey() public view returns(string memory n, string memory g){\n        return (publicKey[0], publicKey[1]);\n    }\n    function conductElection(string memory inputName, uint8 treeDepth, string memory candidateA, string  memory candidateB) public  {\n        require(treeDepth >= 1 && treeDepth <= 33); //33 is the maximum depth of the tree allowed\n        //publicKey = pubKey; /* Serialization of Public Key class as a string, Client may de-serialize for encryption*/\n       // publicKey.push(n); publicKey.push(g);\n        owner = msg.sender;\n        name = inputName;\n        uint256[] memory empty;\n        candidates.push(Candidate(candidateA,empty));\n        candidates.push(Candidate(candidateB,empty));\n        currentState = \"VOTEKEY-GENERATION\";\n        emit AnnounceNewStage(currentState);\n    }\n     /* Inputs: voteVal, Proof of Membership */\n     function submitVote( uint[2] memory a,\n            uint[2][2] memory b,\n            uint[2] memory c, uint[1] memory input, uint delegate) public {\n    \t/* Verify Voter rights and if they have voted previously */\n        require(voters[msg.sender].authorized == true, \"The owner did not authorize you to vote.\"); \n        /* @TODO: Replace this with nullifier check */ \n        //require(voters[msg.sender].voted == false, \"You have already voted\"); \n         /*Verify if Voting process is active*/\n        //require(currentState == \"VOTING-OPEN\");\n        /* Verify the Proof of Membership */\n        Verifier verifier = new Verifier();\n        require(verifier.verifyTx(a, b, c, input));\n        /* Invoke the Verifier contract with Proof of Membership as input */\n            //Assign Vote Value to the voter\n            candidates[delegate].votes.push(voters[msg.sender].weight);\n            //If the voter is authorized, then the vote has a state change\n            /* Emit an event on the block to notify a new vote using candidate who got the votes name and the voters proof of Membership*/\n            emit AnnounceVote(candidates[delegate].name, msg.sender);\n            activeVoters--;\n            if(activeVoters == 0){ currentState = \"END\"; }\n        \n    } \n    function getMerkleInfo(string memory str) public view returns(uint256 targetIndex, uint256 firstLayerSize, uint256 [] memory entireMerkleArray, uint256 mkRoot) {\n    \tuint index = 1337;\n        uint256 voteKey = utility.stringToUint(str);\n    \tfor(uint i =0; i< merkleArray.length; i++){\n    \t\tif(voteKey == merkleArray[i]){\n    \t\t index = i;\n    \t\t/* From i till N, move up a layer, find appropiate index*/\n    \t\t}\n    \t}\n    \trequire(index != 1337);\n    \treturn (index, voteKeyArray.length, merkleArray, merkleArray[merkleArray.length-1]);\n    }\n    /* The invoker of the Election can convert 'citizens' into 'voters' by giving the rights variable\n    / value that affects the summation in submitVote(..)*/\n    function authorize(address citizen) public {\n        require(msg.sender == owner);\n        voters[citizen].authorized = true;\n        calculateVoteWeight(citizen);\n        emit AnnounceAuth(msg.sender);\n        \n    }\n    function tallyVotes() public {\n    \t/* @TODO: Add a loop for dynamic candidates*/\n        emit AnnounceResult(candidates[0].name, candidates[0].votes);\n        emit AnnounceResult(candidates[1].name, candidates[1].votes);\n    }\n    /* Here will be the custom weight function responsible for calculating a vote weight\n    based on User financial investment or something similar */\n    function calculateVoteWeight(address citizen) private {\n        /* (TEMPORARY) HARD-CODED VALUE OF 1 */\n        voters[citizen].weight = 1;\n    }\n    /* ====================== WEB3 HELPER GETTERS ====================*/\n    function getCandidates() public view returns(string[] memory){\n        string[] memory result = new string[](candidates.length);\n        for(uint i=0; i<candidates.length; i++){\n            result[i]= (candidates[i].name);\n        }\n        return result;\n    }\n}\n",
  "sourcePath": "/home/rayyan808/Documents/Github/Bsc Project Git/bsc-project/contracts/Election.sol",
  "compiler": {
    "name": "solc",
    "version": "0.8.4+commit.c7e474f2.Emscripten.clang"
  },
  "schemaVersion": "3.4.0",
  "updatedAt": "2021-06-23T14:50:00.410Z",
  "networkType": "ethereum",
  "devdoc": {
    "kind": "dev",
    "methods": {},
    "version": 1
  },
  "userdoc": {
    "kind": "user",
    "methods": {},
    "version": 1
  }
}