{
  "contractName": "Election",
  "abi": [
    {
      "inputs": [],
      "stateMutability": "nonpayable",
      "type": "constructor"
    },
    {
      "anonymous": false,
      "inputs": [
        {
          "indexed": false,
          "internalType": "address",
          "name": "authorizedUser",
          "type": "address"
        }
      ],
      "name": "AnnounceAuth",
      "type": "event"
    },
    {
      "anonymous": false,
      "inputs": [
        {
          "indexed": false,
          "internalType": "string",
          "name": "stage",
          "type": "string"
        }
      ],
      "name": "AnnounceNewStage",
      "type": "event"
    },
    {
      "anonymous": false,
      "inputs": [
        {
          "indexed": false,
          "internalType": "string",
          "name": "candidate",
          "type": "string"
        },
        {
          "indexed": false,
          "internalType": "uint256[]",
          "name": "tallyCount",
          "type": "uint256[]"
        }
      ],
      "name": "AnnounceResult",
      "type": "event"
    },
    {
      "anonymous": false,
      "inputs": [
        {
          "indexed": false,
          "internalType": "bool",
          "name": "x",
          "type": "bool"
        }
      ],
      "name": "AnnounceValidProof",
      "type": "event"
    },
    {
      "anonymous": false,
      "inputs": [
        {
          "indexed": false,
          "internalType": "string",
          "name": "candidate",
          "type": "string"
        },
        {
          "indexed": false,
          "internalType": "address",
          "name": "proofOfMembership",
          "type": "address"
        }
      ],
      "name": "AnnounceVote",
      "type": "event"
    },
    {
      "anonymous": false,
      "inputs": [
        {
          "indexed": false,
          "internalType": "uint256",
          "name": "s",
          "type": "uint256"
        }
      ],
      "name": "Debug",
      "type": "event"
    },
    {
      "inputs": [],
      "name": "activeVoters",
      "outputs": [
        {
          "internalType": "uint256",
          "name": "",
          "type": "uint256"
        }
      ],
      "stateMutability": "view",
      "type": "function"
    },
    {
      "inputs": [
        {
          "internalType": "uint256",
          "name": "",
          "type": "uint256"
        }
      ],
      "name": "candidates",
      "outputs": [
        {
          "internalType": "string",
          "name": "name",
          "type": "string"
        }
      ],
      "stateMutability": "view",
      "type": "function"
    },
    {
      "inputs": [],
      "name": "currentState",
      "outputs": [
        {
          "internalType": "string",
          "name": "",
          "type": "string"
        }
      ],
      "stateMutability": "view",
      "type": "function"
    },
    {
      "inputs": [
        {
          "internalType": "uint256",
          "name": "",
          "type": "uint256"
        }
      ],
      "name": "identifiers",
      "outputs": [
        {
          "internalType": "uint256",
          "name": "",
          "type": "uint256"
        }
      ],
      "stateMutability": "view",
      "type": "function"
    },
    {
      "inputs": [
        {
          "internalType": "uint256",
          "name": "",
          "type": "uint256"
        }
      ],
      "name": "merkleArray",
      "outputs": [
        {
          "internalType": "uint256",
          "name": "",
          "type": "uint256"
        }
      ],
      "stateMutability": "view",
      "type": "function"
    },
    {
      "inputs": [],
      "name": "merkleRoot",
      "outputs": [
        {
          "internalType": "uint256",
          "name": "",
          "type": "uint256"
        }
      ],
      "stateMutability": "view",
      "type": "function"
    },
    {
      "inputs": [],
      "name": "name",
      "outputs": [
        {
          "internalType": "string",
          "name": "",
          "type": "string"
        }
      ],
      "stateMutability": "view",
      "type": "function"
    },
    {
      "inputs": [],
      "name": "owner",
      "outputs": [
        {
          "internalType": "address",
          "name": "",
          "type": "address"
        }
      ],
      "stateMutability": "view",
      "type": "function"
    },
    {
      "inputs": [],
      "name": "terminateElection",
      "outputs": [
        {
          "internalType": "uint256",
          "name": "",
          "type": "uint256"
        }
      ],
      "stateMutability": "view",
      "type": "function"
    },
    {
      "inputs": [
        {
          "internalType": "uint256[2]",
          "name": "a",
          "type": "uint256[2]"
        },
        {
          "internalType": "uint256[2][2]",
          "name": "b",
          "type": "uint256[2][2]"
        },
        {
          "internalType": "uint256[2]",
          "name": "c",
          "type": "uint256[2]"
        },
        {
          "internalType": "uint256[4]",
          "name": "input",
          "type": "uint256[4]"
        }
      ],
      "name": "verifyTx",
      "outputs": [
        {
          "internalType": "bool",
          "name": "r",
          "type": "bool"
        }
      ],
      "stateMutability": "view",
      "type": "function"
    },
    {
      "inputs": [],
      "name": "voteCount",
      "outputs": [
        {
          "internalType": "uint256",
          "name": "",
          "type": "uint256"
        }
      ],
      "stateMutability": "view",
      "type": "function"
    },
    {
      "inputs": [
        {
          "internalType": "uint256",
          "name": "",
          "type": "uint256"
        }
      ],
      "name": "voteKeyArray",
      "outputs": [
        {
          "internalType": "uint256",
          "name": "",
          "type": "uint256"
        }
      ],
      "stateMutability": "view",
      "type": "function"
    },
    {
      "inputs": [
        {
          "internalType": "address",
          "name": "",
          "type": "address"
        }
      ],
      "name": "voters",
      "outputs": [
        {
          "internalType": "bool",
          "name": "authorized",
          "type": "bool"
        },
        {
          "internalType": "uint256",
          "name": "weight",
          "type": "uint256"
        }
      ],
      "stateMutability": "view",
      "type": "function"
    },
    {
      "inputs": [],
      "name": "createMerkleArray",
      "outputs": [],
      "stateMutability": "nonpayable",
      "type": "function"
    },
    {
      "inputs": [
        {
          "internalType": "string",
          "name": "str",
          "type": "string"
        }
      ],
      "name": "pushVoteKey",
      "outputs": [],
      "stateMutability": "nonpayable",
      "type": "function"
    },
    {
      "inputs": [
        {
          "internalType": "string",
          "name": "inputName",
          "type": "string"
        },
        {
          "internalType": "string",
          "name": "candidateA",
          "type": "string"
        },
        {
          "internalType": "string",
          "name": "candidateB",
          "type": "string"
        }
      ],
      "name": "conductElection",
      "outputs": [],
      "stateMutability": "nonpayable",
      "type": "function"
    },
    {
      "inputs": [
        {
          "internalType": "uint256[2]",
          "name": "a",
          "type": "uint256[2]"
        },
        {
          "internalType": "uint256[2][2]",
          "name": "b",
          "type": "uint256[2][2]"
        },
        {
          "internalType": "uint256[2]",
          "name": "c",
          "type": "uint256[2]"
        },
        {
          "internalType": "uint256[4]",
          "name": "input",
          "type": "uint256[4]"
        },
        {
          "internalType": "uint256",
          "name": "voteVal",
          "type": "uint256"
        }
      ],
      "name": "submitVote",
      "outputs": [],
      "stateMutability": "nonpayable",
      "type": "function"
    },
    {
      "inputs": [
        {
          "internalType": "address",
          "name": "nodeAddress",
          "type": "address"
        }
      ],
      "name": "authorize",
      "outputs": [],
      "stateMutability": "nonpayable",
      "type": "function"
    },
    {
      "inputs": [
        {
          "internalType": "string",
          "name": "str",
          "type": "string"
        }
      ],
      "name": "getMerkleInfo",
      "outputs": [
        {
          "internalType": "uint256",
          "name": "targetIndex",
          "type": "uint256"
        },
        {
          "internalType": "uint256",
          "name": "firstLayerSize",
          "type": "uint256"
        },
        {
          "internalType": "uint256[]",
          "name": "entireMerkleArray",
          "type": "uint256[]"
        },
        {
          "internalType": "uint256",
          "name": "mkRoot",
          "type": "uint256"
        }
      ],
      "stateMutability": "view",
      "type": "function"
    },
    {
      "inputs": [],
      "name": "getTally",
      "outputs": [
        {
          "components": [
            {
              "internalType": "string",
              "name": "name",
              "type": "string"
            },
            {
              "internalType": "uint256[]",
              "name": "votes",
              "type": "uint256[]"
            }
          ],
          "internalType": "struct Election.Candidate[]",
          "name": "candidateResult",
          "type": "tuple[]"
        }
      ],
      "stateMutability": "view",
      "type": "function"
    }
  ],
  "bytecode": "0x608060405234801561001057600080fd5b5033600160006101000a81548173ffffffffffffffffffffffffffffffffffffffff021916908373ffffffffffffffffffffffffffffffffffffffff16021790555061550f806100616000396000f3fe608060405234801561001057600080fd5b506004361061012c5760003560e01c806353b2b8d6116100ad578063b4f3b1ca11610071578063b4f3b1ca14610349578063b6a5d7de14610367578063bb314cd814610383578063c6384071146103a1578063e4e1eaa8146103bf5761012c565b806353b2b8d6146102a25780637e469868146102c05780637e95b5e9146102f05780638da5cb5b146102fa578063a3ec138d146103185761012c565b806326222ea3116100f457806326222ea3146101ec5780632894190f1461020857806328f2d4da146102245780632eb4a7ab146102545780633477ee2e146102725761012c565b806306fdde031461013157806309709a7d1461014f5780630990248b146101825780630c3f6acf1461019e57806317de5836146101bc575b600080fd5b6101396103ef565b6040516101469190614ed0565b60405180910390f35b61016960048036038101906101649190614a7f565b61047d565b6040516101799493929190614f5f565b60405180910390f35b61019c60048036038101906101979190614a7f565b6105db565b005b6101a66106d8565b6040516101b39190614ed0565b60405180910390f35b6101d660048036038101906101d191906149a0565b610766565b6040516101e39190614e8c565b60405180910390f35b61020660048036038101906102019190614ac0565b610c1a565b005b610222600480360381019061021d9190614a05565b610dfe565b005b61023e60048036038101906102399190614b57565b611174565b60405161024b9190614f44565b60405180910390f35b61025c611198565b6040516102699190614f44565b60405180910390f35b61028c60048036038101906102879190614b57565b61119e565b6040516102999190614ed0565b60405180910390f35b6102aa611254565b6040516102b79190614e6a565b60405180910390f35b6102da60048036038101906102d59190614b57565b61139d565b6040516102e79190614f44565b60405180910390f35b6102f86113c1565b005b61030261181a565b60405161030f9190614e4f565b60405180910390f35b610332600480360381019061032d9190614977565b611840565b604051610340929190614ea7565b60405180910390f35b610351611871565b60405161035e9190614f44565b60405180910390f35b610381600480360381019061037c9190614977565b611877565b005b61038b61196f565b6040516103989190614f44565b60405180910390f35b6103a9611975565b6040516103b69190614f44565b60405180910390f35b6103d960048036038101906103d49190614b57565b61197b565b6040516103e69190614f44565b60405180910390f35b600080546103fc90615301565b80601f016020809104026020016040519081016040528092919081815260200182805461042890615301565b80156104755780601f1061044a57610100808354040283529160200191610475565b820191906000526020600020905b81548152906001019060200180831161045857829003601f168201915b505050505081565b6000806060600080610539905060006104958761199f565b905060005b60088054905081101561050a57600881815481106104e1577f4e487b7100000000000000000000000000000000000000000000000000000000600052603260045260246000fd5b90600052602060002001548214156104f7578092505b808061050290615364565b91505061049a565b5061053982141561051a57600080fd5b8160078054905060088060016008805490506105369190615219565b8154811061056d577f4e487b7100000000000000000000000000000000000000000000000000000000600052603260045260246000fd5b9060005260206000200154818054806020026020016040519081016040528092919081815260200182805480156105c357602002820191906000526020600020905b8154815260200190600101908083116105af575b50505050509150955095509550955050509193509193565b60006105e68261199f565b905060011515600660003373ffffffffffffffffffffffffffffffffffffffff1673ffffffffffffffffffffffffffffffffffffffff16815260200190815260200160002060000160009054906101000a900460ff1615151461064857600080fd5b60078190806001815401808255809150506001900390600052602060002001600090919091909150556002600081548092919061068490615364565b91905055506004600254141561069d5761069c6113c1565b5b7f8a36f5a234186d446e36a7df36ace663a05a580d9bea2dd899c6dd76a075d5fa816040516106cc9190614f44565b60405180910390a15050565b600580546106e590615301565b80601f016020809104026020016040519081016040528092919081815260200182805461071190615301565b801561075e5780601f106107335761010080835404028352916020019161075e565b820191906000526020600020905b81548152906001019060200180831161074157829003601f168201915b505050505081565b6000610770614515565b6040518060400160405280876000600281106107b5577f4e487b7100000000000000000000000000000000000000000000000000000000600052603260045260246000fd5b60200201518152602001876001600281106107f9577f4e487b7100000000000000000000000000000000000000000000000000000000600052603260045260246000fd5b602002015181525081600001819052506040518060400160405280604051806040016040528088600060028110610859577f4e487b7100000000000000000000000000000000000000000000000000000000600052603260045260246000fd5b6020020151600060028110610897577f4e487b7100000000000000000000000000000000000000000000000000000000600052603260045260246000fd5b60200201518152602001886000600281106108db577f4e487b7100000000000000000000000000000000000000000000000000000000600052603260045260246000fd5b6020020151600160028110610919577f4e487b7100000000000000000000000000000000000000000000000000000000600052603260045260246000fd5b6020020151815250815260200160405180604001604052808860016002811061096b577f4e487b7100000000000000000000000000000000000000000000000000000000600052603260045260246000fd5b60200201516000600281106109a9577f4e487b7100000000000000000000000000000000000000000000000000000000600052603260045260246000fd5b60200201518152602001886001600281106109ed577f4e487b7100000000000000000000000000000000000000000000000000000000600052603260045260246000fd5b6020020151600160028110610a2b577f4e487b7100000000000000000000000000000000000000000000000000000000600052603260045260246000fd5b60200201518152508152508160200181905250604051806040016040528085600060028110610a83577f4e487b7100000000000000000000000000000000000000000000000000000000600052603260045260246000fd5b6020020151815260200185600160028110610ac7577f4e487b7100000000000000000000000000000000000000000000000000000000600052603260045260246000fd5b602002015181525081604001819052506000600467ffffffffffffffff811115610b1a577f4e487b7100000000000000000000000000000000000000000000000000000000600052604160045260246000fd5b604051908082528060200260200182016040528015610b485781602001602082028036833780820191505090505b50905060005b6004811015610bed57848160048110610b90577f4e487b7100000000000000000000000000000000000000000000000000000000600052603260045260246000fd5b6020020151828281518110610bce577f4e487b7100000000000000000000000000000000000000000000000000000000600052603260045260246000fd5b6020026020010181815250508080610be590615364565b915050610b4e565b506000610bfa8284611a5f565b1415610c0b57600192505050610c12565b6000925050505b949350505050565b33600160006101000a81548173ffffffffffffffffffffffffffffffffffffffff021916908373ffffffffffffffffffffffffffffffffffffffff1602179055508260009080519060200190610c71929190614548565b506060600960405180604001604052808581526020018381525090806001815401808255809150506001900390600052602060002090600202016000909190919091506000820151816000019080519060200190610cd0929190614548565b506020820151816001019080519060200190610ced9291906145ce565b505050600960405180604001604052808481526020018381525090806001815401808255809150506001900390600052602060002090600202016000909190919091506000820151816000019080519060200190610d4c929190614548565b506020820151816001019080519060200190610d699291906145ce565b50505060006003819055506040518060400160405280601281526020017f564f54454b45592d47454e45524154494f4e000000000000000000000000000081525060059080519060200190610dbf929190614548565b507fb712ca18858a18cb63ef75fe8c737e3ad52062d7389284fd4ecb4524da24e0906005604051610df09190614ef2565b60405180910390a150505050565b60005b600354811015610ead5760048181548110610e45577f4e487b7100000000000000000000000000000000000000000000000000000000600052603260045260246000fd5b906000526020600020015483600060048110610e8a577f4e487b7100000000000000000000000000000000000000000000000000000000600052603260045260246000fd5b60200201511415610e9a57600080fd5b8080610ea590615364565b915050610e01565b506000610ebc86868686610766565b905080610ef2577f4e487b7100000000000000000000000000000000000000000000000000000000600052600160045260246000fd5b7f8671313620ae44244991604d4943e3aba1e86b7cf6530358ba0e5b02662094ac81604051610f219190614e8c565b60405180910390a160098281548110610f63577f4e487b7100000000000000000000000000000000000000000000000000000000600052603260045260246000fd5b906000526020600020906002020160010183600060048110610fae577f4e487b7100000000000000000000000000000000000000000000000000000000600052603260045260246000fd5b60200201519080600181540180825580915050600190039060005260206000200160009091909190915055600483600060048110611015577f4e487b7100000000000000000000000000000000000000000000000000000000600052603260045260246000fd5b602002015190806001815401808255809150506001900390600052602060002001600090919091909150556003600081548092919061105390615364565b91905055507f8c4bbf432c3f9c3348d45700f436aa13af99743d19b100361cbcf36e76e44329600983815481106110b3577f4e487b7100000000000000000000000000000000000000000000000000000000600052603260045260246000fd5b9060005260206000209060020201600001336040516110d3929190614f14565b60405180910390a1600354600254141561116c576040518060400160405280600381526020017f454e44000000000000000000000000000000000000000000000000000000000081525060059080519060200190611132929190614548565b507fb712ca18858a18cb63ef75fe8c737e3ad52062d7389284fd4ecb4524da24e09060056040516111639190614ef2565b60405180910390a15b505050505050565b6004818154811061118457600080fd5b906000526020600020016000915090505481565b600a5481565b600981815481106111ae57600080fd5b90600052602060002090600202016000915090508060000180546111d190615301565b80601f01602080910402602001604051908101604052809291908181526020018280546111fd90615301565b801561124a5780601f1061121f5761010080835404028352916020019161124a565b820191906000526020600020905b81548152906001019060200180831161122d57829003601f168201915b5050505050905081565b60606009805480602002602001604051908101604052809291908181526020016000905b8282101561139457838290600052602060002090600202016040518060400160405290816000820180546112ab90615301565b80601f01602080910402602001604051908101604052809291908181526020018280546112d790615301565b80156113245780601f106112f957610100808354040283529160200191611324565b820191906000526020600020905b81548152906001019060200180831161130757829003601f168201915b505050505081526020016001820180548060200260200160405190810160405280929190818152602001828054801561137c57602002820191906000526020600020905b815481526020019060010190808311611368575b50505050508152505081526020019060010190611278565b50505050905090565b600781815481106113ad57600080fd5b906000526020600020016000915090505481565b6000600190506000805b6007805490508311611401576007805490508314156113ed5760019150611401565b6002836113fa91906151bf565b92506113cb565b5b600780549050831415801561141b575060001515821515145b1561145e57600761053990806001815401808255809150506001900390600052602060002001600090919091909150558280611456906152d7565b935050611402565b60005b6007805490508110156114f157600781815481106114a8577f4e487b7100000000000000000000000000000000000000000000000000000000600052603260045260246000fd5b90600052602060002001549150600882908060018154018082558091505060019003906000526020600020016000909190919091505580806114e990615364565b915050611461565b5060008060078054905090506000600267ffffffffffffffff811115611540577f4e487b7100000000000000000000000000000000000000000000000000000000600052604160045260246000fd5b60405190808252806020026020018201604052801561156e5781602001602082028036833780820191505090505b5090505b60008211156117325760005b60018361158b9190615219565b81101561170f57600881856115a09190615138565b815481106115d7577f4e487b7100000000000000000000000000000000000000000000000000000000600052603260045260246000fd5b90600052602060002001548260008151811061161c577f4e487b7100000000000000000000000000000000000000000000000000000000600052603260045260246000fd5b6020026020010181815250506008600182866116389190615138565b6116429190615138565b81548110611679577f4e487b7100000000000000000000000000000000000000000000000000000000600052603260045260246000fd5b9060005260206000200154826001815181106116be577f4e487b7100000000000000000000000000000000000000000000000000000000600052603260045260246000fd5b60200260200101818152505060086116d583611c8e565b90806001815401808255809150506001900390600052602060002001600090919091909150556002816117089190615138565b905061157e565b50818361171c9190615138565b925060028261172b919061518e565b9150611572565b600860016008805490506117469190615219565b8154811061177d577f4e487b7100000000000000000000000000000000000000000000000000000000600052603260045260246000fd5b9060005260206000200154600a819055506040518060400160405280600b81526020017f564f54494e472d4f50454e000000000000000000000000000000000000000000815250600590805190602001906117d9929190614548565b507fb712ca18858a18cb63ef75fe8c737e3ad52062d7389284fd4ecb4524da24e090600560405161180a9190614ef2565b60405180910390a1505050505050565b600160009054906101000a900473ffffffffffffffffffffffffffffffffffffffff1681565b60066020528060005260406000206000915090508060000160009054906101000a900460ff16908060010154905082565b600b5481565b600160009054906101000a900473ffffffffffffffffffffffffffffffffffffffff1673ffffffffffffffffffffffffffffffffffffffff163373ffffffffffffffffffffffffffffffffffffffff16146118d157600080fd5b6001600660008373ffffffffffffffffffffffffffffffffffffffff1673ffffffffffffffffffffffffffffffffffffffff16815260200190815260200160002060000160006101000a81548160ff02191690831515021790555061193581611d91565b7f081ba50acbad95aaf2f3d6ae236a307baad3be11e7c84f2b4a043cfc114ebe31816040516119649190614e4f565b60405180910390a150565b60025481565b60035481565b6008818154811061198b57600080fd5b906000526020600020016000915090505481565b6000808290506000809250600090505b8151811015611a585760008282815181106119f3577f4e487b7100000000000000000000000000000000000000000000000000000000600052603260045260246000fd5b602001015160f81c60f81b60f81c60ff16905060308110158015611a18575060398111155b15611a4457603081611a2a9190615219565b600a85611a3791906151bf565b611a419190615138565b93505b508080611a5090615364565b9150506119af565b5050919050565b6000807f30644e72e131a029b85045b68181585d2833e84879b9709143e1f593f000000190506000611a8f611ddc565b905080608001515160018651611aa59190615138565b14611aaf57600080fd5b60006040518060400160405280600081526020016000815250905060005b8651811015611bda5783878281518110611b10577f4e487b7100000000000000000000000000000000000000000000000000000000600052603260045260246000fd5b602002602001015110611b2257600080fd5b611bc582611bc08560800151600185611b3b9190615138565b81518110611b72577f4e487b7100000000000000000000000000000000000000000000000000000000600052603260045260246000fd5b60200260200101518a8581518110611bb3577f4e487b7100000000000000000000000000000000000000000000000000000000600052603260045260246000fd5b602002602001015161242c565b612545565b91508080611bd290615364565b915050611acd565b50611c2a818360800151600081518110611c1d577f4e487b7100000000000000000000000000000000000000000000000000000000600052603260045260246000fd5b6020026020010151612545565b9050611c7085600001518660200151611c42846126aa565b8560400151611c548a604001516126aa565b8760600151611c6689600001516126aa565b896020015161274f565b611c805760019350505050611c88565b600093505050505b92915050565b6000806000905060007f30644e72e131a029b85045b68181585d2833e84879b9709143e1f593f0000001905060005b8451811015611d865781611d11868381518110611d03577f4e487b7100000000000000000000000000000000000000000000000000000000600052603260045260246000fd5b602002602001015185612a98565b868381518110611d4a577f4e487b7100000000000000000000000000000000000000000000000000000000600052603260045260246000fd5b602002602001015185611d5d9190615138565b611d679190615138565b611d7191906153ad565b92508080611d7e90615364565b915050611cbd565b508192505050919050565b6001600660008373ffffffffffffffffffffffffffffffffffffffff1673ffffffffffffffffffffffffffffffffffffffff1681526020019081526020016000206001018190555050565b611de461461b565b60405180604001604052807f246aad5c0aa64a0353f23f3b8c3bba0cca6c08685ec0018a685264185d20513081526020017f02b9ff6ffa29d225a14b285882f58c88f4e2d1a2303887160ec9404ea7cdb71b8152508160000181905250604051806040016040528060405180604001604052807f0ef276f305c0e6f038edbb9e87ffec5a12840b8b5a2bf95c6d511402c3e8ca2781526020017f1787e7759ec1f7f1ab74f01318fc927acd9824172a23acd911f99bf0639d1d3b815250815260200160405180604001604052807f022ed9c1c531838f6d94299a6dc2db255398df406a2cc7ec0cb405c2a620d60f81526020017f1af77b20751f22d9054c5475ece9411dd717ce0d0ea9a304f02fb902c8312a198152508152508160200181905250604051806040016040528060405180604001604052807f24c64a9aafdb23b3d87fff3405253330f3a3d19242b1e47e0f9cb24c7685faa281526020017f114bd474e6523a92a5482161334511a3c66cf914c16cb5bb1675c0d7347bc586815250815260200160405180604001604052807f2b68d585f4110ee9f60524357c554ad1c73d12ca670a5e3bc92945bb42dc7b6581526020017f0c2681847fcf2cb49f5958c5e2a4b1472d49df1740df02dfcfcc19eea097a65a8152508152508160400181905250604051806040016040528060405180604001604052807f1ee034c7f8a10c15d4b4b873fd5813b9baee8b706c15f7e7b41fc25265bbf14c81526020017f0e2c06dd8e335e03010c9f561683323aae26e971ce318041f5fd79911eae2e31815250815260200160405180604001604052807f19efd6cb473402e2b71f002aba9c0c20f345496dc9c8ecc8bd22811d9815bcf481526020017f0974159d20990ab651a937d9df9fea946973f3ceb49065c6f07df1cb0ea439748152508152508160600181905250600567ffffffffffffffff8111156120d1577f4e487b7100000000000000000000000000000000000000000000000000000000600052604160045260246000fd5b60405190808252806020026020018201604052801561210a57816020015b6120f7614662565b8152602001906001900390816120ef5790505b50816080018190525060405180604001604052807f09163663c1a3cfac277b7ce717d8ed03c5d39d1947614bc44d61144e1817cfe581526020017f0e7bd5dec8001c779ce2626bb776435e6ae3bea3baee383bffb4101f6f64da6e81525081608001516000815181106121a6577f4e487b7100000000000000000000000000000000000000000000000000000000600052603260045260246000fd5b602002602001018190525060405180604001604052807f2c02fa69eda4ae81dad1701d588729264bac3644f92bda909f0ff5c3cde04ef181526020017f10a90291770a0ff65a6f296b049539b07d1e687f5f3030572e238d2bda16ddf18152508160800151600181518110612244577f4e487b7100000000000000000000000000000000000000000000000000000000600052603260045260246000fd5b602002602001018190525060405180604001604052807f27c96475b2e3ebbc23c0bf35c089b01f9a956d5273bb29359dae99e02ead72b381526020017f1960581a5ab61da3234504a7f7f7af9f05c4ee8339307ff4ae3dc95ecdd9586b81525081608001516002815181106122e2577f4e487b7100000000000000000000000000000000000000000000000000000000600052603260045260246000fd5b602002602001018190525060405180604001604052807f0b2f96bf3c102c09edf386c30b3281938b0d76aa1c23cb6068c392099c6d24f481526020017f2aea9c2e5be215c8d76724888ad778af36ffcce97d150d7613f1eeee207e5ccc8152508160800151600381518110612380577f4e487b7100000000000000000000000000000000000000000000000000000000600052603260045260246000fd5b602002602001018190525060405180604001604052807f118cb4e00d5fa50ec800b269b69cf18cf5e71a241bad1080dea01b73f05f8fde81526020017f22e4965b804454b94ef221a4c1b1aa5e91a6de1beb4434f86699dc46f8f32b7c815250816080015160048151811061241e577f4e487b7100000000000000000000000000000000000000000000000000000000600052603260045260246000fd5b602002602001018190525090565b612434614662565b61243c61467c565b83600001518160006003811061247b577f4e487b7100000000000000000000000000000000000000000000000000000000600052603260045260246000fd5b6020020181815250508360200151816001600381106124c3577f4e487b7100000000000000000000000000000000000000000000000000000000600052603260045260246000fd5b6020020181815250508281600260038110612507577f4e487b7100000000000000000000000000000000000000000000000000000000600052603260045260246000fd5b602002018181525050600060608360808460076107d05a03fa9050806000811461253057612532565bfe5b508061253d57600080fd5b505092915050565b61254d614662565b61255561469e565b836000015181600060048110612594577f4e487b7100000000000000000000000000000000000000000000000000000000600052603260045260246000fd5b6020020181815250508360200151816001600481106125dc577f4e487b7100000000000000000000000000000000000000000000000000000000600052603260045260246000fd5b602002018181525050826000015181600260048110612624577f4e487b7100000000000000000000000000000000000000000000000000000000600052603260045260246000fd5b60200201818152505082602001518160036004811061266c577f4e487b7100000000000000000000000000000000000000000000000000000000600052603260045260246000fd5b602002018181525050600060608360c08460066107d05a03fa9050806000811461269557612697565bfe5b50806126a257600080fd5b505092915050565b6126b2614662565b60007f30644e72e131a029b85045b68181585d97816a916871ca8d3c208c16d87cfd479050600083600001511480156126ef575060008360200151145b1561271357604051806040016040528060008152602001600081525091505061274a565b60405180604001604052808460000151815260200182856020015161273891906153ad565b836127439190615219565b8152509150505b919050565b600080600467ffffffffffffffff811115612793577f4e487b7100000000000000000000000000000000000000000000000000000000600052604160045260246000fd5b6040519080825280602002602001820160405280156127cc57816020015b6127b9614662565b8152602001906001900390816127b15790505b5090506000600467ffffffffffffffff811115612812577f4e487b7100000000000000000000000000000000000000000000000000000000600052604160045260246000fd5b60405190808252806020026020018201604052801561284b57816020015b6128386146c0565b8152602001906001900390816128305790505b5090508a82600081518110612889577f4e487b7100000000000000000000000000000000000000000000000000000000600052603260045260246000fd5b602002602001018190525088826001815181106128cf577f4e487b7100000000000000000000000000000000000000000000000000000000600052603260045260246000fd5b60200260200101819052508682600281518110612915577f4e487b7100000000000000000000000000000000000000000000000000000000600052603260045260246000fd5b6020026020010181905250848260038151811061295b577f4e487b7100000000000000000000000000000000000000000000000000000000600052603260045260246000fd5b602002602001018190525089816000815181106129a1577f4e487b7100000000000000000000000000000000000000000000000000000000600052603260045260246000fd5b602002602001018190525087816001815181106129e7577f4e487b7100000000000000000000000000000000000000000000000000000000600052603260045260246000fd5b60200260200101819052508581600281518110612a2d577f4e487b7100000000000000000000000000000000000000000000000000000000600052603260045260246000fd5b60200260200101819052508381600381518110612a73577f4e487b7100000000000000000000000000000000000000000000000000000000600052603260045260246000fd5b6020026020010181905250612a888282613f0e565b9250505098975050505050505050565b60007f30644e72e131a029b85045b68181585d2833e84879b9709143e1f593f0000001600080847f2e2ebbb178296b63d88ec198f0976ad98bc1d4eb0d921ddd2eb86cb7e70a98e58701019150828283099050828284858485098409099550847f21bfc154b5b071d22d06105663553801f858c1f231020b4c291a729d6281d3498701019150828283099050828284858485098409099550847f126cfa352b0e2701442b36e0c2fc88287cfd3bfecce842afc0e3e78d8edb4ad88701019150828283099050828284858485098409099550847f0309d7067ab65de1a99fe23f458d0bc3f18c59b6642ef48afc679ef17cb6928c8701019150828283099050828284858485098409099550847f194c4693409966960be88513cfe32987c125f71398a782e44973fb8af4798bd88701019150828283099050828284858485098409099550847f05a849684bc58cc0d6e9f319b4dae26db171733bf60f31d978e41d09a75a63198701019150828283099050828284858485098409099550847f18bd4dae5134538bd2f90d41bbb1e330b2a8286ba4a09aca3fbbdcf932534be58701019150828283099050828284858485098409099550847f0736c60cd39fd1649d4845b4f9a6ec9baca89fb2de0a3d7eeabe43504b5607fa8701019150828283099050828284858485098409099550847f25a6971a9d2c1de9f374378d8f61492b1bd3c46584c076a76c43c3cd1a7475128701019150828283099050828284858485098409099550847f0a3373d15fa6dce221f83226c02d41f8aea5cfc6da4c9f4981ada1bd4b50f56e8701019150828283099050828284858485098409099550847f2b70028e2bf4e008e22eddb78d4190d73c289dc6445b3f64e15f8bd0ec02c6728701019150828283099050828284858485098409099550847f0b24ef461a71eed93dd366342f9ca4eebb749c8a5a6057c801d538c7c0666ba48701019150828283099050828284858485098409099550847f05d1e0ac576d1ec814b621516339ae1a291c7df36b5fd6cf0b4e3c9cd25e30728701019150828283099050828284858485098409099550847f271cfbf88e9744b8596e7e2d6875c8005d0e62014010ac35e95a7ce2390bc50f8701019150828283099050828284858485098409099550847f196309f1d170d741ab1ce90c39772017fb7cdec78c37882b98a6b56956c13def8701019150828283099050828284858485098409099550847f127c1116c575c03c7f6d83417d8c1b3808f92ee16924a54094bf094721e9e4f58701019150828283099050828284858485098409099550847f1bff78047ee67d38a54fdc540f9a2ba07f63489acd36425f1ae210ac329826f58701019150828283099050828284858485098409099550847f06c7dc7bbae615fcf1896f2b8db7d92c05dc1ea1c8134e9db6fd588672c53e9a8701019150828283099050828284858485098409099550847f12df78cba175ef76dbfcc9c785926bb3949a87ec7533e2559a27a64b91cebba58701019150828283099050828284858485098409099550847f2bd4cdc962e3da62cb3c96f7c428a9b0d518bfa7ce26f8fce7a6af769afb65408701019150828283099050828284858485098409099550847f24edd3847febbe44c4cc390246e3379b47fd01a030d0cd0b4fcf7fbd1cabfe588701019150828283099050828284858485098409099550847f1ce065d2c2561bb573e4cf4259d3b0b0e9eacb447751c62b77d0bc5e4e3c7d158701019150828283099050828284858485098409099550847f18053e9f0d45f9eefbda135bfd39329e34837e633565c314fb9030b9db7381bb8701019150828283099050828284858485098409099550847f162ffa8742138bbe516168bf86ec78b1ad1e8b535ac455a7cfbb22c13f9c5a9e8701019150828283099050828284858485098409099550847f079eea42e16ac6442ca82623fc0e8d9ad3996a47a8013ea9cb73858ca42b71598701019150828283099050828284858485098409099550847f0a49af2bbe11b05bd02a69a47b1bad5b2170407ada21142f06e4e109de88a1b68701019150828283099050828284858485098409099550847f12c34eebbaa69cccc36929e8f4a6e40771e153ff77943da55c4fc860537b733a8701019150828283099050828284858485098409099550847e8de5ac6b4e359335b6fce58dc0e5e43fd2aefd86bac35abe579b8cace5dbc88701019150828283099050828284858485098409099550847f04a6e988b50d915734bf3296d83057ffe6a550f8987e4597bee7d333cd24a8658701019150828283099050828284858485098409099550847f24112633926cfc6028fa2ffd9f090b1e5428a0a87d7118356e48b5d4704492178701019150828283099050828284858485098409099550847f0d56329982f3df38a3f19fb814c3013f419ba0eb8403b27c0c0e75c6fe1cf4688701019150828283099050828284858485098409099550847f1f01ef80763c95f53c434164493d9673aeef290bf1aa1997d677b557b9692e8a8701019150828283099050828284858485098409099550847f105c5257f801527e60b0361c00075b5a79d2dc6821d8a1258d906ed453c7e7be8701019150828283099050828284858485098409099550847f03db505a0c32cb61ca099389c2180e1c83827fb41d9fed84d88766df44c630798701019150828283099050828284858485098409099550847f1262e738f38db6c79d24d9727294421cd95afa24f4700c1323ab83c3a06ace328701019150828283099050828284858485098409099550847f0ee68c3e38c194033994c0d4d7bde35bfafa35b22a95f915f82c5a3b0422bd9a8701019150828283099050828284858485098409099550847f2ee5427bd20c47f8d2f0aa9e6419f7926abcd5965084292ae54dd780077e69028701019150828283099050828284858485098409099550847f1e542d31d2a381792e0a9241c46229a22fd9382443e423a0e419d0feb58656af8701019150828283099050828284858485098409099550847f0ba39f01462ab6a7cf621952752fcde48677d7f32df47e940eacf4954c5ef6328701019150828283099050828284858485098409099550847f29c00b058c17800146bdc06b1e73ff5d0ff53df96f8463818c0572d11fcaf88b8701019150828283099050828284858485098409099550847f0b6200895b60a6c6794fcf1c2b1b15d03a713c905a8ba1f1315f7501fe1a50b88701019150828283099050828284858485098409099550847f2bc639b1b85d731f62d2c6f391d4498e392cb75edcbd5c4c0fa8b26d32d68a128701019150828283099050828284858485098409099550847f2a89f38e6440ce641127046b67d8e615f14503d72d76bf3c703a01d1463a84458701019150828283099050828284858485098409099550847f1750ede7eeeb4edd7838b67fac6d250a54055eeead10e69b3a6e1f076ca878688701019150828283099050828284858485098409099550847f0c2d65084bead2a743115be5329d5458d29802081f6f9dac4165c42651f9be2b8701019150828283099050828284858485098409099550847f28303e2d834e16e1fe33c9ab726a3e75dd0dad9bfea1a43267199e1f243993fb8701019150828283099050828284858485098409099550847f2b572811ca34ea5110d10772e4ced362ebefd7cd1e1884b769e9435914efc5e58701019150828283099050828284858485098409099550847f17521ca5799fe2ea82c67c0a8d0863b5eec0ef9b703e195dd402b7008b53f6b48701019150828283099050828284858485098409099550847f0407e54b96a5b63c609fa3797b223c73d260a365ad58b25891a5660272096bd58701019150828283099050828284858485098409099550847f1a3cd155b03c7d33cc8222c997424bc14069e2edbf4b8aa564c9e5832bdace918701019150828283099050828284858485098409099550847f296255b5e697e517c502ba49b18aaad89514a490a02e7a878b5d559841b93fbd8701019150828283099050828284858485098409099550847f174835801a1f1525b4c21853b965c5048af465e9f79de9d16748c67953da79a78701019150828283099050828284858485098409099550847f2d4afed7a708e5972e84d766292f2c841c5d8570961074d59ad3f51e9369a5978701019150828283099050828284858485098409099550847f1c0eb06744c9866e271cd29a7f17f72964faba3cd088b95e73dcce9d92c79ba68701019150828283099050828284858485098409099550847f26705e7e4f23a7d786ad1786b353a2f8b82269c7b58ab70d7b93f41685d34d458701019150828283099050828284858485098409099550847f04e674d88b90b1188353106ae25c0447acace9dc6d62cfe7fec2d7993dfd7a228701019150828283099050828284858485098409099550847f0df3335da13ff46f65095f975d157886241aeccff38fd9bba92644f8969d7e098701019150828283099050828284858485098409099550847f2dfff62b9282ec05b1fa44479a6e9debe9ac631813d2b10e44b9e0fe19e4d4ee8701019150828283099050828284858485098409099550847f08ece248fe1ce1cd705699b5cd07c990ec27721bab59b657bb138e487ee6694d8701019150828283099050828284858485098409099550847f2c1ab81db607ba76dbf71f48752c856bf183044981c3b6d1fd31b179a078f5718701019150828283099050828284858485098409099550847f01de6f8886868e351bf4caad293bd86ed29ef63810e15cb809542e01bfbbcb888701019150828283099050828284858485098409099550847f23dd8b576fa286331864d63c77fd82fa61da717533821b9382617ebd54abeb468701019150828283099050828284858485098409099550847f169f2c8e515b2cee8d183991c3712736001a7f92fb34c3e3f532dec373aacbfb8701019150828283099050828284858485098409099550847f0ecf89b898e2deca99ae5108d271f1fa92e5018c1ac899d554dc1dfa35ceb0a08701019150828283099050828284858485098409099550847f0dc0d6e76afba377dd693ed4c47a4f9fee7a88d1df5df62fd06f2f87b81de1c88701019150828283099050828284858485098409099550847f0d8d08571539c68a37dad2a6638291d323948e57a0189a7be2ec14d89308bb6d8701019150828283099050828284858485098409099550847f17d170e737533e922c934f79bad3c28f85ef14b21c7354000298cee876977a448701019150828283099050828284858485098409099550847f09ed630d4088d7acaa34064515c1cb368ed405c4ded26df38652d290b26f6aff8701019150828283099050828284858485098409099550847f2b5381943dd4c43bd059a4747b72fc116f099c46004dc811ddb440f7ee69701e8701019150828283099050828284858485098409099550847f01da34e987e965c368ec0252e97db8bfb78668db369cdf6c70f7e02b5bd52b3b8701019150828283099050828284858485098409099550847f1a18c896f124cd4821fbe08ac680b78362c15344619cef072874f43799b89f238701019150828283099050828284858485098409099550847f168dbaf0eae2cfe96f6b340bfd4922c1c41317bfff69613b81d9722e34059f208701019150828283099050828284858485098409099550847f1dfd587726ec442565eb47fc0234740634b6562d1b60192947140b8670aa40148701019150828283099050828284858485098409099550847f147a904bcd17a3f66ebd75b2c1279507001e602842a047929fd119d31edf39248701019150828283099050828284858485098409099550847e621164e8b17a476172ee2aabd9a1a67ecc05f926bec5bbaceb7524616e11668701019150828283099050828284858485098409099550847f280fcce91f920b6487ee3e6a838abbc1f7eb44e4853b22d067a56f5e908499b98701019150828283099050828284858485098409099550847f2d49d03ab6b741495e4d7cbe87ea6cf0f06aea86f528d13d57f6a05e4c868d0b8701019150828283099050828284858485098409099550847f2a59b6e410852d96661479179081af38f478b7603eb3e4f231f99633d826cde98701019150828283099050828284858485098409099550847f1a7783fa9ff7b36d38aeb75e65cfc88260b70d4600b51ab5745e5fe1dc35d9b18701019150828283099050828284858485098409099550847f286d1e7e039fa286d1bd8fe69e175ecad61693cc1f55044847191bae2ff344b28701019150828283099050828284858485098409099550847f0fa108dbe8e14e8c53093f9aaf1f989dabb3dc026ffecb049d3d6b4b2c9b80778701019150828283099050828284858485098409099550847f0e4b25635fa58150829c3e832c4361bfa7edfdf40b0514c00dd3a7338131f1938701019150828283099050828284858485098409099550847f23b0ea71b8bbd3cb62b741e525f5c8b35cbfed820aaf1234d03a4655cdf710398701019150828283099050828284858485098409099550847f2aced572dbfd2664569030fcf391019702f79cbfbe380714894fbfc785dad03f8701019150828283099050828284858485098409099550847f03c36b340d12daf2422febd15a4521f351459057c2affd6816c67fa38b3cc34d8701019150828283099050828284858485098409099550847f17d64c030f29369c09ffd529c7532b84228e69ef6dd9d9dab603ba86cb9254e78701019150828283099050828284858485098409099550847f095050333e4136e4c73b4101ab008bf625a73c51afd5e77f99c606ca7ace63d78701019150828283099050828284858485098409099550847f10ca0fd2a95bc198763d375f566182463e0c92ea122df6485f1c4e5a9769b32c8701019150828283099050828284858485098409099550847f29f63c935efe224e235d5b49b88578a97b25c739a342d4a0d908b98ef757db618701019150828283099050828284858485098409099550847f1e1289b8eff2d431b178bc957cc0c41a1d7237057b9256fd090eb3c6366b9ef58701019150828283099050828284858485098409099550847f1ed8ee02730ece601f15be81e7d27250c4a4d4c04e7a2f3f4e79b931fd9ffac9870101915082828309905082828485848509840909955082858708935050505092915050565b60008151835114613f1e57600080fd5b6000835190506000600682613f3391906151bf565b905060008167ffffffffffffffff811115613f77577f4e487b7100000000000000000000000000000000000000000000000000000000600052604160045260246000fd5b604051908082528060200260200182016040528015613fa55781602001602082028036833780820191505090505b50905060005b8381101561448a57868181518110613fec577f4e487b7100000000000000000000000000000000000000000000000000000000600052603260045260246000fd5b60200260200101516000015182600060068461400891906151bf565b6140129190615138565b81518110614049577f4e487b7100000000000000000000000000000000000000000000000000000000600052603260045260246000fd5b60200260200101818152505086818151811061408e577f4e487b7100000000000000000000000000000000000000000000000000000000600052603260045260246000fd5b6020026020010151602001518260016006846140aa91906151bf565b6140b49190615138565b815181106140eb577f4e487b7100000000000000000000000000000000000000000000000000000000600052603260045260246000fd5b602002602001018181525050858181518110614130577f4e487b7100000000000000000000000000000000000000000000000000000000600052603260045260246000fd5b602002602001015160000151600160028110614175577f4e487b7100000000000000000000000000000000000000000000000000000000600052603260045260246000fd5b602002015182600260068461418a91906151bf565b6141949190615138565b815181106141cb577f4e487b7100000000000000000000000000000000000000000000000000000000600052603260045260246000fd5b602002602001018181525050858181518110614210577f4e487b7100000000000000000000000000000000000000000000000000000000600052603260045260246000fd5b602002602001015160000151600060028110614255577f4e487b7100000000000000000000000000000000000000000000000000000000600052603260045260246000fd5b602002015182600360068461426a91906151bf565b6142749190615138565b815181106142ab577f4e487b7100000000000000000000000000000000000000000000000000000000600052603260045260246000fd5b6020026020010181815250508581815181106142f0577f4e487b7100000000000000000000000000000000000000000000000000000000600052603260045260246000fd5b602002602001015160200151600160028110614335577f4e487b7100000000000000000000000000000000000000000000000000000000600052603260045260246000fd5b602002015182600460068461434a91906151bf565b6143549190615138565b8151811061438b577f4e487b7100000000000000000000000000000000000000000000000000000000600052603260045260246000fd5b6020026020010181815250508581815181106143d0577f4e487b7100000000000000000000000000000000000000000000000000000000600052603260045260246000fd5b602002602001015160200151600060028110614415577f4e487b7100000000000000000000000000000000000000000000000000000000600052603260045260246000fd5b602002015182600560068461442a91906151bf565b6144349190615138565b8151811061446b577f4e487b7100000000000000000000000000000000000000000000000000000000600052603260045260246000fd5b602002602001018181525050808061448290615364565b915050613fab565b506144936146e6565b6000602082602086026020860160086107d05a03fa905080600081146144b8576144ba565bfe5b50806144c557600080fd5b600082600060018110614501577f4e487b7100000000000000000000000000000000000000000000000000000000600052603260045260246000fd5b602002015114159550505050505092915050565b6040518060600160405280614528614662565b81526020016145356146c0565b8152602001614542614662565b81525090565b82805461455490615301565b90600052602060002090601f01602090048101928261457657600085556145bd565b82601f1061458f57805160ff19168380011785556145bd565b828001600101855582156145bd579182015b828111156145bc5782518255916020019190600101906145a1565b5b5090506145ca9190614708565b5090565b82805482825590600052602060002090810192821561460a579160200282015b828111156146095782518255916020019190600101906145ee565b5b5090506146179190614708565b5090565b6040518060a0016040528061462e614662565b815260200161463b6146c0565b81526020016146486146c0565b81526020016146556146c0565b8152602001606081525090565b604051806040016040528060008152602001600081525090565b6040518060600160405280600390602082028036833780820191505090505090565b6040518060800160405280600490602082028036833780820191505090505090565b60405180604001604052806146d3614725565b81526020016146e0614725565b81525090565b6040518060200160405280600190602082028036833780820191505090505090565b5b80821115614721576000816000905550600101614709565b5090565b6040518060400160405280600290602082028036833780820191505090505090565b600061475a61475584614fd0565b614fab565b9050808285604086028201111561477057600080fd5b60005b858110156147a0578161478688826148ea565b845260208401935060408301925050600181019050614773565b5050509392505050565b60006147bd6147b884614ff6565b614fab565b905080828560208602820111156147d357600080fd5b60005b8581101561480357816147e98882614962565b8452602084019350602083019250506001810190506147d6565b5050509392505050565b600061482061481b8461501c565b614fab565b9050808285602086028201111561483657600080fd5b60005b85811015614866578161484c8882614962565b845260208401935060208301925050600181019050614839565b5050509392505050565b600061488361487e84615042565b614fab565b90508281526020810184848401111561489b57600080fd5b6148a6848285615295565b509392505050565b6000813590506148bd816154ab565b92915050565b600082601f8301126148d457600080fd5b60026148e1848285614747565b91505092915050565b600082601f8301126148fb57600080fd5b60026149088482856147aa565b91505092915050565b600082601f83011261492257600080fd5b600461492f84828561480d565b91505092915050565b600082601f83011261494957600080fd5b8135614959848260208601614870565b91505092915050565b600081359050614971816154c2565b92915050565b60006020828403121561498957600080fd5b6000614997848285016148ae565b91505092915050565b60008060008061018085870312156149b757600080fd5b60006149c5878288016148ea565b94505060406149d6878288016148c3565b93505060c06149e7878288016148ea565b9250506101006149f987828801614911565b91505092959194509250565b60008060008060006101a08688031215614a1e57600080fd5b6000614a2c888289016148ea565b9550506040614a3d888289016148c3565b94505060c0614a4e888289016148ea565b935050610100614a6088828901614911565b925050610180614a7288828901614962565b9150509295509295909350565b600060208284031215614a9157600080fd5b600082013567ffffffffffffffff811115614aab57600080fd5b614ab784828501614938565b91505092915050565b600080600060608486031215614ad557600080fd5b600084013567ffffffffffffffff811115614aef57600080fd5b614afb86828701614938565b935050602084013567ffffffffffffffff811115614b1857600080fd5b614b2486828701614938565b925050604084013567ffffffffffffffff811115614b4157600080fd5b614b4d86828701614938565b9150509250925092565b600060208284031215614b6957600080fd5b6000614b7784828501614962565b91505092915050565b6000614b8c8383614ded565b905092915050565b6000614ba08383614e31565b60208301905092915050565b614bb58161524d565b82525050565b6000614bc6826150a8565b614bd081856150e3565b935083602082028501614be285615073565b8060005b85811015614c1e5784840389528151614bff8582614b80565b9450614c0a836150c9565b925060208a01995050600181019050614be6565b50829750879550505050505092915050565b6000614c3b826150b3565b614c4581856150f4565b9350614c5083615083565b8060005b83811015614c81578151614c688882614b94565b9750614c73836150d6565b925050600181019050614c54565b5085935050505092915050565b6000614c99826150b3565b614ca38185615105565b9350614cae83615083565b8060005b83811015614cdf578151614cc68882614b94565b9750614cd1836150d6565b925050600181019050614cb2565b5085935050505092915050565b614cf58161525f565b82525050565b6000614d06826150be565b614d108185615116565b9350614d208185602086016152a4565b614d298161549a565b840191505092915050565b6000614d3f826150be565b614d498185615127565b9350614d598185602086016152a4565b614d628161549a565b840191505092915050565b60008154614d7a81615301565b614d848186615127565b94506001821660008114614d9f5760018114614db157614de4565b60ff1983168652602086019350614de4565b614dba85615093565b60005b83811015614ddc57815481890152600182019150602081019050614dbd565b808801955050505b50505092915050565b60006040830160008301518482036000860152614e0a8282614cfb565b91505060208301518482036020860152614e248282614c30565b9150508091505092915050565b614e3a8161528b565b82525050565b614e498161528b565b82525050565b6000602082019050614e646000830184614bac565b92915050565b60006020820190508181036000830152614e848184614bbb565b905092915050565b6000602082019050614ea16000830184614cec565b92915050565b6000604082019050614ebc6000830185614cec565b614ec96020830184614e40565b9392505050565b60006020820190508181036000830152614eea8184614d34565b905092915050565b60006020820190508181036000830152614f0c8184614d6d565b905092915050565b60006040820190508181036000830152614f2e8185614d6d565b9050614f3d6020830184614bac565b9392505050565b6000602082019050614f596000830184614e40565b92915050565b6000608082019050614f746000830187614e40565b614f816020830186614e40565b8181036040830152614f938185614c8e565b9050614fa26060830184614e40565b95945050505050565b6000614fb5614fc6565b9050614fc18282615333565b919050565b6000604051905090565b600067ffffffffffffffff821115614feb57614fea61546b565b5b602082029050919050565b600067ffffffffffffffff8211156150115761501061546b565b5b602082029050919050565b600067ffffffffffffffff8211156150375761503661546b565b5b602082029050919050565b600067ffffffffffffffff82111561505d5761505c61546b565b5b6150668261549a565b9050602081019050919050565b6000819050602082019050919050565b6000819050602082019050919050565b60008190508160005260206000209050919050565b600081519050919050565b600081519050919050565b600081519050919050565b6000602082019050919050565b6000602082019050919050565b600082825260208201905092915050565b600082825260208201905092915050565b600082825260208201905092915050565b600082825260208201905092915050565b600082825260208201905092915050565b60006151438261528b565b915061514e8361528b565b9250827fffffffffffffffffffffffffffffffffffffffffffffffffffffffffffffffff03821115615183576151826153de565b5b828201905092915050565b60006151998261528b565b91506151a48361528b565b9250826151b4576151b361540d565b5b828204905092915050565b60006151ca8261528b565b91506151d58361528b565b9250817fffffffffffffffffffffffffffffffffffffffffffffffffffffffffffffffff048311821515161561520e5761520d6153de565b5b828202905092915050565b60006152248261528b565b915061522f8361528b565b925082821015615242576152416153de565b5b828203905092915050565b60006152588261526b565b9050919050565b60008115159050919050565b600073ffffffffffffffffffffffffffffffffffffffff82169050919050565b6000819050919050565b82818337600083830152505050565b60005b838110156152c25780820151818401526020810190506152a7565b838111156152d1576000848401525b50505050565b60006152e28261528b565b915060008214156152f6576152f56153de565b5b600182039050919050565b6000600282049050600182168061531957607f821691505b6020821081141561532d5761532c61543c565b5b50919050565b61533c8261549a565b810181811067ffffffffffffffff8211171561535b5761535a61546b565b5b80604052505050565b600061536f8261528b565b91507fffffffffffffffffffffffffffffffffffffffffffffffffffffffffffffffff8214156153a2576153a16153de565b5b600182019050919050565b60006153b88261528b565b91506153c38361528b565b9250826153d3576153d261540d565b5b828206905092915050565b7f4e487b7100000000000000000000000000000000000000000000000000000000600052601160045260246000fd5b7f4e487b7100000000000000000000000000000000000000000000000000000000600052601260045260246000fd5b7f4e487b7100000000000000000000000000000000000000000000000000000000600052602260045260246000fd5b7f4e487b7100000000000000000000000000000000000000000000000000000000600052604160045260246000fd5b6000601f19601f8301169050919050565b6154b48161524d565b81146154bf57600080fd5b50565b6154cb8161528b565b81146154d657600080fd5b5056fea26469706673582212209f6fa64cfbedaf2f569b3f488384eae0b89b92a0fb4a8a04bb2224a6649d866e64736f6c63430008040033",
  "immutableReferences": {},
  "source": "pragma solidity ^0.8.0;\n\nimport \"./MiMC.sol\";\nimport \"./verifier.sol\";\nimport \"./utility.sol\";\n\n\ncontract Election is Verifier {\n    struct Candidate {\n        string name;\n        uint[] votes; /* A list of encrypted vote values for this candidate */\n    }\n    /* Each address in Address Space is mapped to an empty Voter struct with default values */\n    struct Voter {\n        bool authorized; /* So an owner has control over which public addresses may invoke functions */\n        uint weight; /* The on-chain calculated weight of the voter*/\n    }\n    string public name;\n    address public owner;\n    uint public activeVoters;\n    uint public voteCount;\n    uint[] public identifiers;\n    //@TODO: Convert state variable to enum or int for comparison in require\n    string public currentState;\n    // Key: Address, Value: Voter \n    //i.e Map a Voter object to ALL addresses\n    mapping(address => Voter) public voters;\n    uint256[] public voteKeyArray;\n    uint256[] public merkleArray;\n    Candidate[] public candidates;\n    uint256 public merkleRoot;\n    /* The election starters public key */\n    uint public terminateElection;\n    /* Everytime the stage transitions, an announcement is made to all suscribers.\n    STATES: VOTEKEY-GENERATION => VOTE => END */\n    event AnnounceNewStage(string stage);\n    /* Everytime a vote is executed, this event is logged onto the block. Currently the voters public address is shown next to the candidate they voted\n    for, in future updates this address will be replaced by a ZKP */\n    event AnnounceVote(string candidate, address proofOfMembership);\n    /* Emit an event every time a vote tally is called. */\n    event AnnounceResult(string candidate, uint[] tallyCount);\n    /* Create an Event each time the owner authorizes a voter */\n    event AnnounceAuth(address authorizedUser);\n    event AnnounceValidProof(bool x);\n    event Debug(uint256 s);\n    /* Called only when contract is created, contract compiler is the owner */\n    constructor(){\n        owner = msg.sender;\n    }\n    /* Used to generate a Merkle Tree from the list of current Vote Keys\n    * Adjusts to next power of 2 and fills dummy voteKeys to satisfy\n    * Merkle Binary properties. For simplicity during testing, voting takes place with exactly 4\n    * voters so this method is not employed. (If you are using this feature, you should\n    * also integrate Generic Functions in the circuit proof. Something I may add\n    * later on. (see BONUS in the README.md)) \n    GAS COST EST: 300k */\n    function createMerkleArray() public {\n        /* Guarantee that a valid merkle tree can be constructed with the given nodes*/\n        //assert(voteKeyArray.length >= 2);\n        uint pow = 1; bool isPowerOf2 = false;\n        uint tempVal =0;\n        /* Find the power of 2 closest or equal to the length, if equal do nothing */\n        while(pow <= voteKeyArray.length){ if(pow == voteKeyArray.length) { isPowerOf2 = true; break; } else { pow = pow *2; } }\n        /* If index isn't a power of two, we pump it with static public vote keys */\n        while(pow != voteKeyArray.length && isPowerOf2 == false){ voteKeyArray.push(1337); pow--; }\n        /* For each voteKey struct present, transfer the hashed value into the Merkle Array */\n        for(uint i =0; i < voteKeyArray.length; i++){\n            //leaf = MiMC.MiMC_Hash([voteKeyArray[i],voteKeyArray[i+1]]);\n            tempVal = voteKeyArray[i];\n            merkleArray.push(tempVal);\n        }\n        uint nodeCount=0;\n        uint n = voteKeyArray.length;\n        /* While there are still nodes to traverse*/\n\n        uint256[] memory x = new uint[](2); //Should be statically defined\n          while (n > 0) {\n            /* Each iteration covers one layer of the tree. Starting with the original voteKey values */\n            for (uint offset = 0; offset < n - 1; offset+=2) { //Offset is the number of nodes operated on within the scope of the iteration\n                /* Pair-hash neighbouring nodes and move forward by two steps*/\n                /* Transfer values from the appropiate index (nodes already covered + offset)*/\n                x[0] = merkleArray[nodeCount + offset];\n                x[1] = merkleArray[nodeCount + offset + 1];\n                /* Combine both nodes using MiMC Hash and push to the array as a Parent*/\n                merkleArray.push(MiMC.MiMC_Hash(x));\n            }\n            /* Add the count of this new layer to our total node count*/\n            nodeCount += n;\n            /* Div2 will get us to the next layer count, due to the nice properties of Binary Trees and Powers of 2 we can just div*/\n            n = n / 2;\n            if(n <= 0){ //next while wont occur. The offset at this point is the number of nodes in the tree\n            }\n        }\n        merkleRoot = merkleArray[merkleArray.length-1];\n        /* merkleArray now contains all nodes, ordered by indexing of layer size. i.e 8 voteKeys => index [0..7], 4 parent nodes produced => index [8..11], 2 nodes produced => index [12..13], Merkle Root => index [14]*/\n        currentState = \"VOTING-OPEN\";\n        emit AnnounceNewStage(currentState); \n    }\n    /* Use Case (DApp)\n    When a user inputs a secret key (SK) and clicks the 'Join Vote' button,\n    SK is locally hashed using MiMC before being sent as a VOTE KEY\n    The user is only able to push 1 vote-key per public address (to prevent double-registration) */\n    function pushVoteKey(string memory str) public {\n        uint256 voteKey = utility.stringToUint(str);\n        /* check double-vote and if votekey generation stage is active*/\n       // require(currentState == \"VOTEKEY-GENERATION\");\n        /* Make sure that an authorized Node is registering this Vote Key*/\n        require(voters[msg.sender].authorized == true);\n        voteKeyArray.push(voteKey);\n        activeVoters++;\n        /* Check if our voter count has reached 4\n        * This implementation CAN be extended to generic numbers\n        * if the zokrates circuit is configured using Generic Functions\n        * Contact r.jafri@student.rug.nl if you need help with this\n        */\n        if(activeVoters == 4) { \n            createMerkleArray();\n        }\n        emit Debug(voteKey);\n    }   \n    function conductElection(string memory inputName, string memory candidateA, string  memory candidateB) public  {\n        //require(treeDepth >= 1 && treeDepth <= 33); //33 is the maximum depth of the tree allowed\n        //publicKey = pubKey; /* Serialization of Public Key class as a string, Client may de-serialize for encryption*/\n       // publicKey.push(n); publicKey.push(g);\n        owner = msg.sender;\n        name = inputName;\n        uint256[] memory empty;\n        candidates.push(Candidate(candidateA,empty));\n        candidates.push(Candidate(candidateB,empty));\n        voteCount=0;\n        currentState = \"VOTEKEY-GENERATION\";\n        emit AnnounceNewStage(currentState);\n    }\n     /* \n     * Input: ZK Proof bytes\n     * Checks for double-vote using identifier array\n     * Asserts that ZK-Proof is Valid\n     * Adds the Voters Identifier to the Candidates Votes\n     */ \n     function submitVote( uint[2] memory a,\n            uint[2][2] memory b,\n            uint[2] memory c, uint[4] memory input, uint voteVal) public {\n        for(uint i=0; i < voteCount; i++){\n            if(input[0] == identifiers[i]){\n                revert();\n            }\n        }\n         /*Verify if Voting process is active*/\n        //require(currentState == \"VOTING-OPEN\");\n        /* Verify the Proof of Membership */\n        bool x  = verifyTx(a, b, c, input);\n        assert(x);\n        emit AnnounceValidProof(x);\n       /*     //Candidate Index = voteVal, Unique Identifier = input[0]*/\n            candidates[voteVal].votes.push(input[0]);\n            identifiers.push(input[0]);\n            voteCount++;\n            /* Emit an event on the block to notify a new vote */\n            emit AnnounceVote(candidates[voteVal].name, msg.sender);\n            if(activeVoters == voteCount){ currentState = \"END\"; emit AnnounceNewStage(currentState);}\n        \n    } \n    /* \n    * Election owner needs to authorize node addresses that \n    * are allowed to register to vote. This may be individual\n    * user addresses or pre-allocated voting systems.\n    */\n    function authorize(address nodeAddress) public {\n        require(msg.sender == owner);\n        voters[nodeAddress].authorized = true;\n        calculateVoteWeight(nodeAddress);\n        emit AnnounceAuth(nodeAddress);\n        \n    }\n    /* You may alter the vote weight according to your program specifications\n    * We take a basic example of equal voting weights for each user.\n    */\n    function calculateVoteWeight(address citizen) private {\n        voters[citizen].weight = 1;\n    }\n    /* ====================== HELPER FUNCTIONS ====================*/\n    /* \n    * Used by the DApp to retrieve information needed to\n    * compute a path to the Merkle Root locally. \n    */\n    function getMerkleInfo(string memory str) public view returns(uint256 targetIndex, uint256 firstLayerSize, uint256 [] memory entireMerkleArray, uint256 mkRoot) {\n    \tuint index = 1337;\n        uint256 voteKey = utility.stringToUint(str);\n    \tfor(uint i =0; i< merkleArray.length; i++){\n    \t\tif(voteKey == merkleArray[i]){\n    \t\t index = i;\n    \t\t/* From i till N, move up a layer, find appropiate index*/\n    \t\t}\n    \t}\n    \trequire(index != 1337);\n    \treturn (index, voteKeyArray.length, merkleArray, merkleArray[merkleArray.length-1]);\n    }\n    /* \n    * Used by the DApp to retrieve information for self-tallying\n    */\n    function getTally() public view returns(Candidate[] memory candidateResult){\n        return candidates;\n    } \n}\n",
  "sourcePath": "/home/rayyan808/Documents/Github/Bsc Project Git/bsc-project/bsc-project/contracts/Election.sol",
  "compiler": {
    "name": "solc",
    "version": "0.8.4+commit.c7e474f2.Emscripten.clang"
  },
  "schemaVersion": "3.4.0",
  "updatedAt": "2021-08-01T23:53:55.869Z",
  "devdoc": {
    "kind": "dev",
    "methods": {},
    "version": 1
  },
  "userdoc": {
    "kind": "user",
    "methods": {},
    "version": 1
  }
}