{
  "contractName": "Election",
  "abi": [
    {
      "inputs": [],
      "stateMutability": "nonpayable",
      "type": "constructor"
    },
    {
      "anonymous": false,
      "inputs": [
        {
          "indexed": false,
          "internalType": "address",
          "name": "authorizedUser",
          "type": "address"
        }
      ],
      "name": "AnnounceAuth",
      "type": "event"
    },
    {
      "anonymous": false,
      "inputs": [
        {
          "indexed": false,
          "internalType": "string",
          "name": "stage",
          "type": "string"
        }
      ],
      "name": "AnnounceNewStage",
      "type": "event"
    },
    {
      "anonymous": false,
      "inputs": [
        {
          "indexed": false,
          "internalType": "string",
          "name": "candidate",
          "type": "string"
        },
        {
          "indexed": false,
          "internalType": "uint256[]",
          "name": "tallyCount",
          "type": "uint256[]"
        }
      ],
      "name": "AnnounceResult",
      "type": "event"
    },
    {
      "anonymous": false,
      "inputs": [
        {
          "indexed": false,
          "internalType": "bool",
          "name": "x",
          "type": "bool"
        }
      ],
      "name": "AnnounceValidProof",
      "type": "event"
    },
    {
      "anonymous": false,
      "inputs": [
        {
          "indexed": false,
          "internalType": "string",
          "name": "candidate",
          "type": "string"
        },
        {
          "indexed": false,
          "internalType": "address",
          "name": "proofOfMembership",
          "type": "address"
        }
      ],
      "name": "AnnounceVote",
      "type": "event"
    },
    {
      "anonymous": false,
      "inputs": [
        {
          "indexed": false,
          "internalType": "uint256",
          "name": "s",
          "type": "uint256"
        }
      ],
      "name": "Debug",
      "type": "event"
    },
    {
      "inputs": [],
      "name": "activeVoters",
      "outputs": [
        {
          "internalType": "uint256",
          "name": "",
          "type": "uint256"
        }
      ],
      "stateMutability": "view",
      "type": "function"
    },
    {
      "inputs": [
        {
          "internalType": "uint256",
          "name": "",
          "type": "uint256"
        }
      ],
      "name": "candidates",
      "outputs": [
        {
          "internalType": "string",
          "name": "name",
          "type": "string"
        }
      ],
      "stateMutability": "view",
      "type": "function"
    },
    {
      "inputs": [],
      "name": "currentState",
      "outputs": [
        {
          "internalType": "string",
          "name": "",
          "type": "string"
        }
      ],
      "stateMutability": "view",
      "type": "function"
    },
    {
      "inputs": [
        {
          "internalType": "uint256",
          "name": "",
          "type": "uint256"
        }
      ],
      "name": "identifiers",
      "outputs": [
        {
          "internalType": "uint256",
          "name": "",
          "type": "uint256"
        }
      ],
      "stateMutability": "view",
      "type": "function"
    },
    {
      "inputs": [],
      "name": "merkleRoot",
      "outputs": [
        {
          "internalType": "uint256",
          "name": "",
          "type": "uint256"
        }
      ],
      "stateMutability": "view",
      "type": "function"
    },
    {
      "inputs": [],
      "name": "name",
      "outputs": [
        {
          "internalType": "string",
          "name": "",
          "type": "string"
        }
      ],
      "stateMutability": "view",
      "type": "function"
    },
    {
      "inputs": [],
      "name": "owner",
      "outputs": [
        {
          "internalType": "address",
          "name": "",
          "type": "address"
        }
      ],
      "stateMutability": "view",
      "type": "function"
    },
    {
      "inputs": [],
      "name": "terminateElection",
      "outputs": [
        {
          "internalType": "uint256",
          "name": "",
          "type": "uint256"
        }
      ],
      "stateMutability": "view",
      "type": "function"
    },
    {
      "inputs": [],
      "name": "voteCount",
      "outputs": [
        {
          "internalType": "uint256",
          "name": "",
          "type": "uint256"
        }
      ],
      "stateMutability": "view",
      "type": "function"
    },
    {
      "inputs": [],
      "name": "createMerkleArray",
      "outputs": [],
      "stateMutability": "nonpayable",
      "type": "function"
    },
    {
      "inputs": [
        {
          "internalType": "string",
          "name": "str",
          "type": "string"
        }
      ],
      "name": "pushVoteKey",
      "outputs": [],
      "stateMutability": "nonpayable",
      "type": "function"
    },
    {
      "inputs": [
        {
          "internalType": "string",
          "name": "inputName",
          "type": "string"
        },
        {
          "internalType": "string",
          "name": "candidateA",
          "type": "string"
        },
        {
          "internalType": "string",
          "name": "candidateB",
          "type": "string"
        }
      ],
      "name": "conductElection",
      "outputs": [],
      "stateMutability": "nonpayable",
      "type": "function"
    },
    {
      "inputs": [
        {
          "internalType": "uint256[2]",
          "name": "a",
          "type": "uint256[2]"
        },
        {
          "internalType": "uint256[2][2]",
          "name": "b",
          "type": "uint256[2][2]"
        },
        {
          "internalType": "uint256[2]",
          "name": "c",
          "type": "uint256[2]"
        },
        {
          "internalType": "uint256[4]",
          "name": "input",
          "type": "uint256[4]"
        },
        {
          "internalType": "uint256",
          "name": "voteVal",
          "type": "uint256"
        }
      ],
      "name": "submitVote",
      "outputs": [],
      "stateMutability": "nonpayable",
      "type": "function"
    },
    {
      "inputs": [
        {
          "internalType": "string",
          "name": "str",
          "type": "string"
        }
      ],
      "name": "getMerkleInfo",
      "outputs": [
        {
          "internalType": "uint256",
          "name": "targetIndex",
          "type": "uint256"
        },
        {
          "internalType": "uint256",
          "name": "firstLayerSize",
          "type": "uint256"
        },
        {
          "internalType": "uint256[]",
          "name": "entireMerkleArray",
          "type": "uint256[]"
        },
        {
          "internalType": "uint256",
          "name": "mkRoot",
          "type": "uint256"
        }
      ],
      "stateMutability": "view",
      "type": "function"
    },
    {
      "inputs": [
        {
          "internalType": "address",
          "name": "citizen",
          "type": "address"
        }
      ],
      "name": "authorize",
      "outputs": [],
      "stateMutability": "nonpayable",
      "type": "function"
    },
    {
      "inputs": [],
      "name": "tallyVotes",
      "outputs": [],
      "stateMutability": "nonpayable",
      "type": "function"
    },
    {
      "inputs": [],
      "name": "getCandidates",
      "outputs": [
        {
          "internalType": "string[]",
          "name": "",
          "type": "string[]"
        }
      ],
      "stateMutability": "view",
      "type": "function"
    }
  ],
  "bytecode": "0x608060405234801561001057600080fd5b5033600160006101000a81548173ffffffffffffffffffffffffffffffffffffffff021916908373ffffffffffffffffffffffffffffffffffffffff160217905550615b47806100616000396000f3fe608060405234801561001057600080fd5b506004361061010b5760003560e01c80632eb4a7ab116100a25780638da5cb5b116100715780638da5cb5b14610283578063b4f3b1ca146102a1578063b6a5d7de146102bf578063bb314cd8146102db578063c6384071146102f95761010b565b80632eb4a7ab146102215780633477ee2e1461023f578063378a21781461026f5780637e95b5e9146102795761010b565b80630c3f6acf116100de5780630c3f6acf1461019b57806326222ea3146101b95780632894190f146101d557806328f2d4da146101f15761010b565b806306a49fce1461011057806306fdde031461012e57806309709a7d1461014c5780630990248b1461017f575b600080fd5b610118610317565b60405161012591906132a3565b60405180910390f35b6101366104d9565b6040516101439190613327565b60405180910390f35b61016660048036038101906101619190612d81565b610567565b60405161017694939291906133bd565b60405180910390f35b61019960048036038101906101949190612d81565b6106c5565b005b6101a3610799565b6040516101b09190613327565b60405180910390f35b6101d360048036038101906101ce9190612dc2565b610827565b005b6101ef60048036038101906101ea9190612cde565b610a0b565b005b61020b60048036038101906102069190612e59565b610b0b565b60405161021891906133a2565b60405180910390f35b610229610b2f565b60405161023691906133a2565b60405180910390f35b61025960048036038101906102549190612e59565b610b35565b6040516102669190613327565b60405180910390f35b610277610beb565b005b610281610d8b565b005b61028b6111bf565b6040516102989190613288565b60405180910390f35b6102a96111e5565b6040516102b691906133a2565b60405180910390f35b6102d960048036038101906102d49190612cb5565b6111eb565b005b6102e36112e3565b6040516102f091906133a2565b60405180910390f35b6103016112e9565b60405161030e91906133a2565b60405180910390f35b6060600060098054905067ffffffffffffffff811115610360577f4e487b7100000000000000000000000000000000000000000000000000000000600052604160045260246000fd5b60405190808252806020026020018201604052801561039357816020015b606081526020019060019003908161037e5790505b50905060005b6009805490508110156104d157600981815481106103e0577f4e487b7100000000000000000000000000000000000000000000000000000000600052603260045260246000fd5b906000526020600020906002020160000180546103fc90613817565b80601f016020809104026020016040519081016040528092919081815260200182805461042890613817565b80156104755780601f1061044a57610100808354040283529160200191610475565b820191906000526020600020905b81548152906001019060200180831161045857829003601f168201915b50505050508282815181106104b3577f4e487b7100000000000000000000000000000000000000000000000000000000600052603260045260246000fd5b602002602001018190525080806104c990613894565b915050610399565b508091505090565b600080546104e690613817565b80601f016020809104026020016040519081016040528092919081815260200182805461051290613817565b801561055f5780601f106105345761010080835404028352916020019161055f565b820191906000526020600020905b81548152906001019060200180831161054257829003601f168201915b505050505081565b60008060606000806105399050600061057f876112ef565b905060005b6008805490508110156105f457600881815481106105cb577f4e487b7100000000000000000000000000000000000000000000000000000000600052603260045260246000fd5b90600052602060002001548214156105e1578092505b80806105ec90613894565b915050610584565b5061053982141561060457600080fd5b8160078054905060088060016008805490506106209190613725565b81548110610657577f4e487b7100000000000000000000000000000000000000000000000000000000600052603260045260246000fd5b9060005260206000200154818054806020026020016040519081016040528092919081815260200182805480156106ad57602002820191906000526020600020905b815481526020019060010190808311610699575b50505050509150955095509550955050509193509193565b60006106d0826112ef565b905060078190806001815401808255809150506001900390600052602060002001600090919091909150556002600081548092919061070e90613894565b91905055506004600254141561075e577f8a36f5a234186d446e36a7df36ace663a05a580d9bea2dd899c6dd76a075d5fa8160405161074d91906133a2565b60405180910390a161075d610d8b565b5b7f8a36f5a234186d446e36a7df36ace663a05a580d9bea2dd899c6dd76a075d5fa8160405161078d91906133a2565b60405180910390a15050565b600580546107a690613817565b80601f01602080910402602001604051908101604052809291908181526020018280546107d290613817565b801561081f5780601f106107f45761010080835404028352916020019161081f565b820191906000526020600020905b81548152906001019060200180831161080257829003601f168201915b505050505081565b33600160006101000a81548173ffffffffffffffffffffffffffffffffffffffff021916908373ffffffffffffffffffffffffffffffffffffffff160217905550826000908051906020019061087e929190612973565b5060606009604051806040016040528085815260200183815250908060018154018082558091505060019003906000526020600020906002020160009091909190915060008201518160000190805190602001906108dd929190612973565b5060208201518160010190805190602001906108fa9291906129f9565b505050600960405180604001604052808481526020018381525090806001815401808255809150506001900390600052602060002090600202016000909190919091506000820151816000019080519060200190610959929190612973565b5060208201518160010190805190602001906109769291906129f9565b50505060006003819055506040518060400160405280601281526020017f564f54454b45592d47454e45524154494f4e0000000000000000000000000000815250600590805190602001906109cc929190612973565b507fb712ca18858a18cb63ef75fe8c737e3ad52062d7389284fd4ecb4524da24e09060056040516109fd9190613349565b60405180910390a150505050565b6000604051610a1990612a46565b604051809103906000f080158015610a35573d6000803e3d6000fd5b50905060008173ffffffffffffffffffffffffffffffffffffffff166317de5836888888886040518563ffffffff1660e01b8152600401610a7994939291906132c5565b60206040518083038186803b158015610a9157600080fd5b505afa158015610aa5573d6000803e3d6000fd5b505050506040513d601f19601f82011682018060405250810190610ac99190612d58565b90507f8671313620ae44244991604d4943e3aba1e86b7cf6530358ba0e5b02662094ac81604051610afa919061330c565b60405180910390a150505050505050565b60048181548110610b1b57600080fd5b906000526020600020016000915090505481565b600a5481565b60098181548110610b4557600080fd5b9060005260206000209060020201600091509050806000018054610b6890613817565b80601f0160208091040260200160405190810160405280929190818152602001828054610b9490613817565b8015610be15780601f10610bb657610100808354040283529160200191610be1565b820191906000526020600020905b815481529060010190602001808311610bc457829003601f168201915b5050505050905081565b7ff75583bd1a80d19a7920011d52bf4464f3140dc3ac59046d37a729fc46b9a7596009600081548110610c47577f4e487b7100000000000000000000000000000000000000000000000000000000600052603260045260246000fd5b90600052602060002090600202016000016009600081548110610c93577f4e487b7100000000000000000000000000000000000000000000000000000000600052603260045260246000fd5b9060005260206000209060020201600101604051610cb292919061336b565b60405180910390a17ff75583bd1a80d19a7920011d52bf4464f3140dc3ac59046d37a729fc46b9a7596009600181548110610d16577f4e487b7100000000000000000000000000000000000000000000000000000000600052603260045260246000fd5b90600052602060002090600202016000016009600181548110610d62577f4e487b7100000000000000000000000000000000000000000000000000000000600052603260045260246000fd5b9060005260206000209060020201600101604051610d8192919061336b565b60405180910390a1565b6000600190506000805b6007805490508311610dcb57600780549050831415610db75760019150610dcb565b600283610dc491906136cb565b9250610d95565b5b6007805490508314158015610de5575060001515821515145b15610e2857600761053990806001815401808255809150506001900390600052602060002001600090919091909150558280610e20906137ed565b935050610dcc565b60005b600780549050811015610ef2577f8a36f5a234186d446e36a7df36ace663a05a580d9bea2dd899c6dd76a075d5fa82604051610e6791906133a2565b60405180910390a160078181548110610ea9577f4e487b7100000000000000000000000000000000000000000000000000000000600052603260045260246000fd5b9060005260206000200154915060088290806001815401808255809150506001900390600052602060002001600090919091909150558080610eea90613894565b915050610e2b565b5060008060078054905090506000600267ffffffffffffffff811115610f41577f4e487b7100000000000000000000000000000000000000000000000000000000600052604160045260246000fd5b604051908082528060200260200182016040528015610f6f5781602001602082028036833780820191505090505b5090505b60008211156111335760005b600183610f8c9190613725565b8110156111105760088185610fa19190613644565b81548110610fd8577f4e487b7100000000000000000000000000000000000000000000000000000000600052603260045260246000fd5b90600052602060002001548260008151811061101d577f4e487b7100000000000000000000000000000000000000000000000000000000600052603260045260246000fd5b6020026020010181815250506008600182866110399190613644565b6110439190613644565b8154811061107a577f4e487b7100000000000000000000000000000000000000000000000000000000600052603260045260246000fd5b9060005260206000200154826001815181106110bf577f4e487b7100000000000000000000000000000000000000000000000000000000600052603260045260246000fd5b60200260200101818152505060086110d6836113af565b90806001815401808255809150506001900390600052602060002001600090919091909150556002816111099190613644565b9050610f7f565b50818361111d9190613644565b925060028261112c919061369a565b9150610f73565b6040518060400160405280600b81526020017f564f54494e472d4f50454e0000000000000000000000000000000000000000008152506005908051906020019061117e929190612973565b507fb712ca18858a18cb63ef75fe8c737e3ad52062d7389284fd4ecb4524da24e09060056040516111af9190613349565b60405180910390a1505050505050565b600160009054906101000a900473ffffffffffffffffffffffffffffffffffffffff1681565b600b5481565b600160009054906101000a900473ffffffffffffffffffffffffffffffffffffffff1673ffffffffffffffffffffffffffffffffffffffff163373ffffffffffffffffffffffffffffffffffffffff161461124557600080fd5b6001600660008373ffffffffffffffffffffffffffffffffffffffff1673ffffffffffffffffffffffffffffffffffffffff16815260200190815260200160002060000160006101000a81548160ff0219169083151502179055506112a9816114b2565b7f081ba50acbad95aaf2f3d6ae236a307baad3be11e7c84f2b4a043cfc114ebe31336040516112d89190613288565b60405180910390a150565b60025481565b60035481565b6000808290506000809250600090505b81518110156113a8576000828281518110611343577f4e487b7100000000000000000000000000000000000000000000000000000000600052603260045260246000fd5b602001015160f81c60f81b60f81c60ff16905060308110158015611368575060398111155b156113945760308161137a9190613725565b600a8561138791906136cb565b6113919190613644565b93505b5080806113a090613894565b9150506112ff565b5050919050565b6000806000905060007f30644e72e131a029b85045b68181585d2833e84879b9709143e1f593f0000001905060005b84518110156114a75781611432868381518110611424577f4e487b7100000000000000000000000000000000000000000000000000000000600052603260045260246000fd5b6020026020010151856114fd565b86838151811061146b577f4e487b7100000000000000000000000000000000000000000000000000000000600052603260045260246000fd5b60200260200101518561147e9190613644565b6114889190613644565b61149291906138dd565b9250808061149f90613894565b9150506113de565b508192505050919050565b6001600660008373ffffffffffffffffffffffffffffffffffffffff1673ffffffffffffffffffffffffffffffffffffffff1681526020019081526020016000206001018190555050565b60007f30644e72e131a029b85045b68181585d2833e84879b9709143e1f593f0000001600080847f2e2ebbb178296b63d88ec198f0976ad98bc1d4eb0d921ddd2eb86cb7e70a98e58701019150828283099050828284858485098409099550847f21bfc154b5b071d22d06105663553801f858c1f231020b4c291a729d6281d3498701019150828283099050828284858485098409099550847f126cfa352b0e2701442b36e0c2fc88287cfd3bfecce842afc0e3e78d8edb4ad88701019150828283099050828284858485098409099550847f0309d7067ab65de1a99fe23f458d0bc3f18c59b6642ef48afc679ef17cb6928c8701019150828283099050828284858485098409099550847f194c4693409966960be88513cfe32987c125f71398a782e44973fb8af4798bd88701019150828283099050828284858485098409099550847f05a849684bc58cc0d6e9f319b4dae26db171733bf60f31d978e41d09a75a63198701019150828283099050828284858485098409099550847f18bd4dae5134538bd2f90d41bbb1e330b2a8286ba4a09aca3fbbdcf932534be58701019150828283099050828284858485098409099550847f0736c60cd39fd1649d4845b4f9a6ec9baca89fb2de0a3d7eeabe43504b5607fa8701019150828283099050828284858485098409099550847f25a6971a9d2c1de9f374378d8f61492b1bd3c46584c076a76c43c3cd1a7475128701019150828283099050828284858485098409099550847f0a3373d15fa6dce221f83226c02d41f8aea5cfc6da4c9f4981ada1bd4b50f56e8701019150828283099050828284858485098409099550847f2b70028e2bf4e008e22eddb78d4190d73c289dc6445b3f64e15f8bd0ec02c6728701019150828283099050828284858485098409099550847f0b24ef461a71eed93dd366342f9ca4eebb749c8a5a6057c801d538c7c0666ba48701019150828283099050828284858485098409099550847f05d1e0ac576d1ec814b621516339ae1a291c7df36b5fd6cf0b4e3c9cd25e30728701019150828283099050828284858485098409099550847f271cfbf88e9744b8596e7e2d6875c8005d0e62014010ac35e95a7ce2390bc50f8701019150828283099050828284858485098409099550847f196309f1d170d741ab1ce90c39772017fb7cdec78c37882b98a6b56956c13def8701019150828283099050828284858485098409099550847f127c1116c575c03c7f6d83417d8c1b3808f92ee16924a54094bf094721e9e4f58701019150828283099050828284858485098409099550847f1bff78047ee67d38a54fdc540f9a2ba07f63489acd36425f1ae210ac329826f58701019150828283099050828284858485098409099550847f06c7dc7bbae615fcf1896f2b8db7d92c05dc1ea1c8134e9db6fd588672c53e9a8701019150828283099050828284858485098409099550847f12df78cba175ef76dbfcc9c785926bb3949a87ec7533e2559a27a64b91cebba58701019150828283099050828284858485098409099550847f2bd4cdc962e3da62cb3c96f7c428a9b0d518bfa7ce26f8fce7a6af769afb65408701019150828283099050828284858485098409099550847f24edd3847febbe44c4cc390246e3379b47fd01a030d0cd0b4fcf7fbd1cabfe588701019150828283099050828284858485098409099550847f1ce065d2c2561bb573e4cf4259d3b0b0e9eacb447751c62b77d0bc5e4e3c7d158701019150828283099050828284858485098409099550847f18053e9f0d45f9eefbda135bfd39329e34837e633565c314fb9030b9db7381bb8701019150828283099050828284858485098409099550847f162ffa8742138bbe516168bf86ec78b1ad1e8b535ac455a7cfbb22c13f9c5a9e8701019150828283099050828284858485098409099550847f079eea42e16ac6442ca82623fc0e8d9ad3996a47a8013ea9cb73858ca42b71598701019150828283099050828284858485098409099550847f0a49af2bbe11b05bd02a69a47b1bad5b2170407ada21142f06e4e109de88a1b68701019150828283099050828284858485098409099550847f12c34eebbaa69cccc36929e8f4a6e40771e153ff77943da55c4fc860537b733a8701019150828283099050828284858485098409099550847e8de5ac6b4e359335b6fce58dc0e5e43fd2aefd86bac35abe579b8cace5dbc88701019150828283099050828284858485098409099550847f04a6e988b50d915734bf3296d83057ffe6a550f8987e4597bee7d333cd24a8658701019150828283099050828284858485098409099550847f24112633926cfc6028fa2ffd9f090b1e5428a0a87d7118356e48b5d4704492178701019150828283099050828284858485098409099550847f0d56329982f3df38a3f19fb814c3013f419ba0eb8403b27c0c0e75c6fe1cf4688701019150828283099050828284858485098409099550847f1f01ef80763c95f53c434164493d9673aeef290bf1aa1997d677b557b9692e8a8701019150828283099050828284858485098409099550847f105c5257f801527e60b0361c00075b5a79d2dc6821d8a1258d906ed453c7e7be8701019150828283099050828284858485098409099550847f03db505a0c32cb61ca099389c2180e1c83827fb41d9fed84d88766df44c630798701019150828283099050828284858485098409099550847f1262e738f38db6c79d24d9727294421cd95afa24f4700c1323ab83c3a06ace328701019150828283099050828284858485098409099550847f0ee68c3e38c194033994c0d4d7bde35bfafa35b22a95f915f82c5a3b0422bd9a8701019150828283099050828284858485098409099550847f2ee5427bd20c47f8d2f0aa9e6419f7926abcd5965084292ae54dd780077e69028701019150828283099050828284858485098409099550847f1e542d31d2a381792e0a9241c46229a22fd9382443e423a0e419d0feb58656af8701019150828283099050828284858485098409099550847f0ba39f01462ab6a7cf621952752fcde48677d7f32df47e940eacf4954c5ef6328701019150828283099050828284858485098409099550847f29c00b058c17800146bdc06b1e73ff5d0ff53df96f8463818c0572d11fcaf88b8701019150828283099050828284858485098409099550847f0b6200895b60a6c6794fcf1c2b1b15d03a713c905a8ba1f1315f7501fe1a50b88701019150828283099050828284858485098409099550847f2bc639b1b85d731f62d2c6f391d4498e392cb75edcbd5c4c0fa8b26d32d68a128701019150828283099050828284858485098409099550847f2a89f38e6440ce641127046b67d8e615f14503d72d76bf3c703a01d1463a84458701019150828283099050828284858485098409099550847f1750ede7eeeb4edd7838b67fac6d250a54055eeead10e69b3a6e1f076ca878688701019150828283099050828284858485098409099550847f0c2d65084bead2a743115be5329d5458d29802081f6f9dac4165c42651f9be2b8701019150828283099050828284858485098409099550847f28303e2d834e16e1fe33c9ab726a3e75dd0dad9bfea1a43267199e1f243993fb8701019150828283099050828284858485098409099550847f2b572811ca34ea5110d10772e4ced362ebefd7cd1e1884b769e9435914efc5e58701019150828283099050828284858485098409099550847f17521ca5799fe2ea82c67c0a8d0863b5eec0ef9b703e195dd402b7008b53f6b48701019150828283099050828284858485098409099550847f0407e54b96a5b63c609fa3797b223c73d260a365ad58b25891a5660272096bd58701019150828283099050828284858485098409099550847f1a3cd155b03c7d33cc8222c997424bc14069e2edbf4b8aa564c9e5832bdace918701019150828283099050828284858485098409099550847f296255b5e697e517c502ba49b18aaad89514a490a02e7a878b5d559841b93fbd8701019150828283099050828284858485098409099550847f174835801a1f1525b4c21853b965c5048af465e9f79de9d16748c67953da79a78701019150828283099050828284858485098409099550847f2d4afed7a708e5972e84d766292f2c841c5d8570961074d59ad3f51e9369a5978701019150828283099050828284858485098409099550847f1c0eb06744c9866e271cd29a7f17f72964faba3cd088b95e73dcce9d92c79ba68701019150828283099050828284858485098409099550847f26705e7e4f23a7d786ad1786b353a2f8b82269c7b58ab70d7b93f41685d34d458701019150828283099050828284858485098409099550847f04e674d88b90b1188353106ae25c0447acace9dc6d62cfe7fec2d7993dfd7a228701019150828283099050828284858485098409099550847f0df3335da13ff46f65095f975d157886241aeccff38fd9bba92644f8969d7e098701019150828283099050828284858485098409099550847f2dfff62b9282ec05b1fa44479a6e9debe9ac631813d2b10e44b9e0fe19e4d4ee8701019150828283099050828284858485098409099550847f08ece248fe1ce1cd705699b5cd07c990ec27721bab59b657bb138e487ee6694d8701019150828283099050828284858485098409099550847f2c1ab81db607ba76dbf71f48752c856bf183044981c3b6d1fd31b179a078f5718701019150828283099050828284858485098409099550847f01de6f8886868e351bf4caad293bd86ed29ef63810e15cb809542e01bfbbcb888701019150828283099050828284858485098409099550847f23dd8b576fa286331864d63c77fd82fa61da717533821b9382617ebd54abeb468701019150828283099050828284858485098409099550847f169f2c8e515b2cee8d183991c3712736001a7f92fb34c3e3f532dec373aacbfb8701019150828283099050828284858485098409099550847f0ecf89b898e2deca99ae5108d271f1fa92e5018c1ac899d554dc1dfa35ceb0a08701019150828283099050828284858485098409099550847f0dc0d6e76afba377dd693ed4c47a4f9fee7a88d1df5df62fd06f2f87b81de1c88701019150828283099050828284858485098409099550847f0d8d08571539c68a37dad2a6638291d323948e57a0189a7be2ec14d89308bb6d8701019150828283099050828284858485098409099550847f17d170e737533e922c934f79bad3c28f85ef14b21c7354000298cee876977a448701019150828283099050828284858485098409099550847f09ed630d4088d7acaa34064515c1cb368ed405c4ded26df38652d290b26f6aff8701019150828283099050828284858485098409099550847f2b5381943dd4c43bd059a4747b72fc116f099c46004dc811ddb440f7ee69701e8701019150828283099050828284858485098409099550847f01da34e987e965c368ec0252e97db8bfb78668db369cdf6c70f7e02b5bd52b3b8701019150828283099050828284858485098409099550847f1a18c896f124cd4821fbe08ac680b78362c15344619cef072874f43799b89f238701019150828283099050828284858485098409099550847f168dbaf0eae2cfe96f6b340bfd4922c1c41317bfff69613b81d9722e34059f208701019150828283099050828284858485098409099550847f1dfd587726ec442565eb47fc0234740634b6562d1b60192947140b8670aa40148701019150828283099050828284858485098409099550847f147a904bcd17a3f66ebd75b2c1279507001e602842a047929fd119d31edf39248701019150828283099050828284858485098409099550847e621164e8b17a476172ee2aabd9a1a67ecc05f926bec5bbaceb7524616e11668701019150828283099050828284858485098409099550847f280fcce91f920b6487ee3e6a838abbc1f7eb44e4853b22d067a56f5e908499b98701019150828283099050828284858485098409099550847f2d49d03ab6b741495e4d7cbe87ea6cf0f06aea86f528d13d57f6a05e4c868d0b8701019150828283099050828284858485098409099550847f2a59b6e410852d96661479179081af38f478b7603eb3e4f231f99633d826cde98701019150828283099050828284858485098409099550847f1a7783fa9ff7b36d38aeb75e65cfc88260b70d4600b51ab5745e5fe1dc35d9b18701019150828283099050828284858485098409099550847f286d1e7e039fa286d1bd8fe69e175ecad61693cc1f55044847191bae2ff344b28701019150828283099050828284858485098409099550847f0fa108dbe8e14e8c53093f9aaf1f989dabb3dc026ffecb049d3d6b4b2c9b80778701019150828283099050828284858485098409099550847f0e4b25635fa58150829c3e832c4361bfa7edfdf40b0514c00dd3a7338131f1938701019150828283099050828284858485098409099550847f23b0ea71b8bbd3cb62b741e525f5c8b35cbfed820aaf1234d03a4655cdf710398701019150828283099050828284858485098409099550847f2aced572dbfd2664569030fcf391019702f79cbfbe380714894fbfc785dad03f8701019150828283099050828284858485098409099550847f03c36b340d12daf2422febd15a4521f351459057c2affd6816c67fa38b3cc34d8701019150828283099050828284858485098409099550847f17d64c030f29369c09ffd529c7532b84228e69ef6dd9d9dab603ba86cb9254e78701019150828283099050828284858485098409099550847f095050333e4136e4c73b4101ab008bf625a73c51afd5e77f99c606ca7ace63d78701019150828283099050828284858485098409099550847f10ca0fd2a95bc198763d375f566182463e0c92ea122df6485f1c4e5a9769b32c8701019150828283099050828284858485098409099550847f29f63c935efe224e235d5b49b88578a97b25c739a342d4a0d908b98ef757db618701019150828283099050828284858485098409099550847f1e1289b8eff2d431b178bc957cc0c41a1d7237057b9256fd090eb3c6366b9ef58701019150828283099050828284858485098409099550847f1ed8ee02730ece601f15be81e7d27250c4a4d4c04e7a2f3f4e79b931fd9ffac9870101915082828309905082828485848509840909955082858708935050505092915050565b82805461297f90613817565b90600052602060002090601f0160209004810192826129a157600085556129e8565b82601f106129ba57805160ff19168380011785556129e8565b828001600101855582156129e8579182015b828111156129e75782518255916020019190600101906129cc565b5b5090506129f59190612a53565b5090565b828054828255906000526020600020908101928215612a35579160200282015b82811115612a34578251825591602001919060010190612a19565b5b509050612a429190612a53565b5090565b6120d180613a4183390190565b5b80821115612a6c576000816000905550600101612a54565b5090565b6000612a83612a7e8461342e565b613409565b90508082856040860282011115612a9957600080fd5b60005b85811015612ac95781612aaf8882612c13565b845260208401935060408301925050600181019050612a9c565b5050509392505050565b6000612ae6612ae184613454565b613409565b90508082856020860282011115612afc57600080fd5b60005b85811015612b2c5781612b128882612ca0565b845260208401935060208301925050600181019050612aff565b5050509392505050565b6000612b49612b448461347a565b613409565b90508082856020860282011115612b5f57600080fd5b60005b85811015612b8f5781612b758882612ca0565b845260208401935060208301925050600181019050612b62565b5050509392505050565b6000612bac612ba7846134a0565b613409565b905082815260208101848484011115612bc457600080fd5b612bcf8482856137ab565b509392505050565b600081359050612be6816139fb565b92915050565b600082601f830112612bfd57600080fd5b6002612c0a848285612a70565b91505092915050565b600082601f830112612c2457600080fd5b6002612c31848285612ad3565b91505092915050565b600082601f830112612c4b57600080fd5b6004612c58848285612b36565b91505092915050565b600081519050612c7081613a12565b92915050565b600082601f830112612c8757600080fd5b8135612c97848260208601612b99565b91505092915050565b600081359050612caf81613a29565b92915050565b600060208284031215612cc757600080fd5b6000612cd584828501612bd7565b91505092915050565b60008060008060006101a08688031215612cf757600080fd5b6000612d0588828901612c13565b9550506040612d1688828901612bec565b94505060c0612d2788828901612c13565b935050610100612d3988828901612c3a565b925050610180612d4b88828901612ca0565b9150509295509295909350565b600060208284031215612d6a57600080fd5b6000612d7884828501612c61565b91505092915050565b600060208284031215612d9357600080fd5b600082013567ffffffffffffffff811115612dad57600080fd5b612db984828501612c76565b91505092915050565b600080600060608486031215612dd757600080fd5b600084013567ffffffffffffffff811115612df157600080fd5b612dfd86828701612c76565b935050602084013567ffffffffffffffff811115612e1a57600080fd5b612e2686828701612c76565b925050604084013567ffffffffffffffff811115612e4357600080fd5b612e4f86828701612c76565b9150509250925092565b600060208284031215612e6b57600080fd5b6000612e7984828501612ca0565b91505092915050565b6000612e8e8383612fa1565b60408301905092915050565b6000612ea68383613178565b905092915050565b6000612eba838361326a565b60208301905092915050565b612ecf81613763565b82525050565b612ede81613539565b612ee881846135d4565b9250612ef3826134d1565b8060005b83811015612f24578151612f0b8782612e82565b9650612f1683613586565b925050600181019050612ef7565b505050505050565b6000612f3782613544565b612f4181856135df565b935083602082028501612f53856134db565b8060005b85811015612f8f5784840389528151612f708582612e9a565b9450612f7b83613593565b925060208a01995050600181019050612f57565b50829750879550505050505092915050565b612faa8161354f565b612fb481846135f0565b9250612fbf826134eb565b8060005b83811015612ff0578151612fd78782612eae565b9650612fe2836135a0565b925050600181019050612fc3565b505050505050565b6130018161354f565b61300b81846135fb565b9250613016826134eb565b8060005b8381101561304757815161302e8782612eae565b9650613039836135a0565b92505060018101905061301a565b505050505050565b6130588161355a565b6130628184613606565b925061306d826134f5565b8060005b8381101561309e5781516130858782612eae565b9650613090836135ad565b925050600181019050613071565b505050505050565b60006130b182613565565b6130bb8185613611565b93506130c6836134ff565b8060005b838110156130f75781516130de8882612eae565b97506130e9836135ba565b9250506001810190506130ca565b5085935050505092915050565b600061310f82613570565b6131198185613611565b93506131248361350f565b8060005b8381101561315c57613139826139ca565b6131438882612eae565b975061314e836135c7565b925050600181019050613128565b5085935050505092915050565b61317281613775565b82525050565b60006131838261357b565b61318d8185613622565b935061319d8185602086016137ba565b6131a6816139dd565b840191505092915050565b60006131bc8261357b565b6131c68185613633565b93506131d68185602086016137ba565b6131df816139dd565b840191505092915050565b600081546131f781613817565b6132018186613633565b9450600182166000811461321c576001811461322e57613261565b60ff1983168652602086019350613261565b61323785613524565b60005b838110156132595781548189015260018201915060208101905061323a565b808801955050505b50505092915050565b613273816137a1565b82525050565b613282816137a1565b82525050565b600060208201905061329d6000830184612ec6565b92915050565b600060208201905081810360008301526132bd8184612f2c565b905092915050565b6000610180820190506132db6000830187612ff8565b6132e86040830186612ed5565b6132f560c0830185612ff8565b61330361010083018461304f565b95945050505050565b60006020820190506133216000830184613169565b92915050565b6000602082019050818103600083015261334181846131b1565b905092915050565b6000602082019050818103600083015261336381846131ea565b905092915050565b6000604082019050818103600083015261338581856131ea565b905081810360208301526133998184613104565b90509392505050565b60006020820190506133b76000830184613279565b92915050565b60006080820190506133d26000830187613279565b6133df6020830186613279565b81810360408301526133f181856130a6565b90506134006060830184613279565b95945050505050565b6000613413613424565b905061341f8282613863565b919050565b6000604051905090565b600067ffffffffffffffff8211156134495761344861399b565b5b602082029050919050565b600067ffffffffffffffff82111561346f5761346e61399b565b5b602082029050919050565b600067ffffffffffffffff8211156134955761349461399b565b5b602082029050919050565b600067ffffffffffffffff8211156134bb576134ba61399b565b5b6134c4826139dd565b9050602081019050919050565b6000819050919050565b6000819050602082019050919050565b6000819050919050565b6000819050919050565b6000819050602082019050919050565b60008190508160005260206000209050919050565b60008190508160005260206000209050919050565b600060029050919050565b600081519050919050565b600060029050919050565b600060049050919050565b600081519050919050565b600081549050919050565b600081519050919050565b6000602082019050919050565b6000602082019050919050565b6000602082019050919050565b6000602082019050919050565b6000602082019050919050565b6000600182019050919050565b600081905092915050565b600082825260208201905092915050565b600081905092915050565b600081905092915050565b600081905092915050565b600082825260208201905092915050565b600082825260208201905092915050565b600082825260208201905092915050565b600061364f826137a1565b915061365a836137a1565b9250827fffffffffffffffffffffffffffffffffffffffffffffffffffffffffffffffff0382111561368f5761368e61390e565b5b828201905092915050565b60006136a5826137a1565b91506136b0836137a1565b9250826136c0576136bf61393d565b5b828204905092915050565b60006136d6826137a1565b91506136e1836137a1565b9250817fffffffffffffffffffffffffffffffffffffffffffffffffffffffffffffffff048311821515161561371a5761371961390e565b5b828202905092915050565b6000613730826137a1565b915061373b836137a1565b92508282101561374e5761374d61390e565b5b828203905092915050565b6000819050919050565b600061376e82613781565b9050919050565b60008115159050919050565b600073ffffffffffffffffffffffffffffffffffffffff82169050919050565b6000819050919050565b82818337600083830152505050565b60005b838110156137d85780820151818401526020810190506137bd565b838111156137e7576000848401525b50505050565b60006137f8826137a1565b9150600082141561380c5761380b61390e565b5b600182039050919050565b6000600282049050600182168061382f57607f821691505b602082108114156138435761384261396c565b5b50919050565b600061385c613857836139ee565b613759565b9050919050565b61386c826139dd565b810181811067ffffffffffffffff8211171561388b5761388a61399b565b5b80604052505050565b600061389f826137a1565b91507fffffffffffffffffffffffffffffffffffffffffffffffffffffffffffffffff8214156138d2576138d161390e565b5b600182019050919050565b60006138e8826137a1565b91506138f3836137a1565b9250826139035761390261393d565b5b828206905092915050565b7f4e487b7100000000000000000000000000000000000000000000000000000000600052601160045260246000fd5b7f4e487b7100000000000000000000000000000000000000000000000000000000600052601260045260246000fd5b7f4e487b7100000000000000000000000000000000000000000000000000000000600052602260045260246000fd5b7f4e487b7100000000000000000000000000000000000000000000000000000000600052604160045260246000fd5b60006139d68254613849565b9050919050565b6000601f19601f8301169050919050565b60008160001c9050919050565b613a0481613763565b8114613a0f57600080fd5b50565b613a1b81613775565b8114613a2657600080fd5b50565b613a32816137a1565b8114613a3d57600080fd5b5056fe608060405234801561001057600080fd5b506120b1806100206000396000f3fe608060405234801561001057600080fd5b506004361061002b5760003560e01c806317de583614610030575b600080fd5b61004a60048036038101906100459190611cfb565b610060565b6040516100579190611d6f565b60405180910390f35b600061006a611a06565b6040518060400160405280876000600281106100af577f4e487b7100000000000000000000000000000000000000000000000000000000600052603260045260246000fd5b60200201518152602001876001600281106100f3577f4e487b7100000000000000000000000000000000000000000000000000000000600052603260045260246000fd5b602002015181525081600001819052506040518060400160405280604051806040016040528088600060028110610153577f4e487b7100000000000000000000000000000000000000000000000000000000600052603260045260246000fd5b6020020151600060028110610191577f4e487b7100000000000000000000000000000000000000000000000000000000600052603260045260246000fd5b60200201518152602001886000600281106101d5577f4e487b7100000000000000000000000000000000000000000000000000000000600052603260045260246000fd5b6020020151600160028110610213577f4e487b7100000000000000000000000000000000000000000000000000000000600052603260045260246000fd5b60200201518152508152602001604051806040016040528088600160028110610265577f4e487b7100000000000000000000000000000000000000000000000000000000600052603260045260246000fd5b60200201516000600281106102a3577f4e487b7100000000000000000000000000000000000000000000000000000000600052603260045260246000fd5b60200201518152602001886001600281106102e7577f4e487b7100000000000000000000000000000000000000000000000000000000600052603260045260246000fd5b6020020151600160028110610325577f4e487b7100000000000000000000000000000000000000000000000000000000600052603260045260246000fd5b6020020151815250815250816020018190525060405180604001604052808560006002811061037d577f4e487b7100000000000000000000000000000000000000000000000000000000600052603260045260246000fd5b60200201518152602001856001600281106103c1577f4e487b7100000000000000000000000000000000000000000000000000000000600052603260045260246000fd5b602002015181525081604001819052506000600467ffffffffffffffff811115610414577f4e487b7100000000000000000000000000000000000000000000000000000000600052604160045260246000fd5b6040519080825280602002602001820160405280156104425781602001602082028036833780820191505090505b50905060005b60048110156104e75784816004811061048a577f4e487b7100000000000000000000000000000000000000000000000000000000600052603260045260246000fd5b60200201518282815181106104c8577f4e487b7100000000000000000000000000000000000000000000000000000000600052603260045260246000fd5b60200260200101818152505080806104df90611f4c565b915050610448565b5060006104f48284610514565b14156105055760019250505061050c565b6000925050505b949350505050565b6000807f30644e72e131a029b85045b68181585d2833e84879b9709143e1f593f000000190506000610544610743565b90508060800151516001865161055a9190611e21565b1461056457600080fd5b60006040518060400160405280600081526020016000815250905060005b865181101561068f57838782815181106105c5577f4e487b7100000000000000000000000000000000000000000000000000000000600052603260045260246000fd5b6020026020010151106105d757600080fd5b61067a8261067585608001516001856105f09190611e21565b81518110610627577f4e487b7100000000000000000000000000000000000000000000000000000000600052603260045260246000fd5b60200260200101518a8581518110610668577f4e487b7100000000000000000000000000000000000000000000000000000000600052603260045260246000fd5b6020026020010151610d93565b610eac565b9150808061068790611f4c565b915050610582565b506106df8183608001516000815181106106d2577f4e487b7100000000000000000000000000000000000000000000000000000000600052603260045260246000fd5b6020026020010151610eac565b9050610725856000015186602001516106f784611011565b85604001516107098a60400151611011565b876060015161071b8960000151611011565b89602001516110b6565b610735576001935050505061073d565b600093505050505b92915050565b61074b611a39565b60405180604001604052807f246aad5c0aa64a0353f23f3b8c3bba0cca6c08685ec0018a685264185d20513081526020017f02b9ff6ffa29d225a14b285882f58c88f4e2d1a2303887160ec9404ea7cdb71b8152508160000181905250604051806040016040528060405180604001604052807f0ef276f305c0e6f038edbb9e87ffec5a12840b8b5a2bf95c6d511402c3e8ca2781526020017f1787e7759ec1f7f1ab74f01318fc927acd9824172a23acd911f99bf0639d1d3b815250815260200160405180604001604052807f022ed9c1c531838f6d94299a6dc2db255398df406a2cc7ec0cb405c2a620d60f81526020017f1af77b20751f22d9054c5475ece9411dd717ce0d0ea9a304f02fb902c8312a198152508152508160200181905250604051806040016040528060405180604001604052807f24c64a9aafdb23b3d87fff3405253330f3a3d19242b1e47e0f9cb24c7685faa281526020017f114bd474e6523a92a5482161334511a3c66cf914c16cb5bb1675c0d7347bc586815250815260200160405180604001604052807f2b68d585f4110ee9f60524357c554ad1c73d12ca670a5e3bc92945bb42dc7b6581526020017f0c2681847fcf2cb49f5958c5e2a4b1472d49df1740df02dfcfcc19eea097a65a8152508152508160400181905250604051806040016040528060405180604001604052807f1ee034c7f8a10c15d4b4b873fd5813b9baee8b706c15f7e7b41fc25265bbf14c81526020017f0e2c06dd8e335e03010c9f561683323aae26e971ce318041f5fd79911eae2e31815250815260200160405180604001604052807f19efd6cb473402e2b71f002aba9c0c20f345496dc9c8ecc8bd22811d9815bcf481526020017f0974159d20990ab651a937d9df9fea946973f3ceb49065c6f07df1cb0ea439748152508152508160600181905250600567ffffffffffffffff811115610a38577f4e487b7100000000000000000000000000000000000000000000000000000000600052604160045260246000fd5b604051908082528060200260200182016040528015610a7157816020015b610a5e611a80565b815260200190600190039081610a565790505b50816080018190525060405180604001604052807f09163663c1a3cfac277b7ce717d8ed03c5d39d1947614bc44d61144e1817cfe581526020017f0e7bd5dec8001c779ce2626bb776435e6ae3bea3baee383bffb4101f6f64da6e8152508160800151600081518110610b0d577f4e487b7100000000000000000000000000000000000000000000000000000000600052603260045260246000fd5b602002602001018190525060405180604001604052807f2c02fa69eda4ae81dad1701d588729264bac3644f92bda909f0ff5c3cde04ef181526020017f10a90291770a0ff65a6f296b049539b07d1e687f5f3030572e238d2bda16ddf18152508160800151600181518110610bab577f4e487b7100000000000000000000000000000000000000000000000000000000600052603260045260246000fd5b602002602001018190525060405180604001604052807f27c96475b2e3ebbc23c0bf35c089b01f9a956d5273bb29359dae99e02ead72b381526020017f1960581a5ab61da3234504a7f7f7af9f05c4ee8339307ff4ae3dc95ecdd9586b8152508160800151600281518110610c49577f4e487b7100000000000000000000000000000000000000000000000000000000600052603260045260246000fd5b602002602001018190525060405180604001604052807f0b2f96bf3c102c09edf386c30b3281938b0d76aa1c23cb6068c392099c6d24f481526020017f2aea9c2e5be215c8d76724888ad778af36ffcce97d150d7613f1eeee207e5ccc8152508160800151600381518110610ce7577f4e487b7100000000000000000000000000000000000000000000000000000000600052603260045260246000fd5b602002602001018190525060405180604001604052807f118cb4e00d5fa50ec800b269b69cf18cf5e71a241bad1080dea01b73f05f8fde81526020017f22e4965b804454b94ef221a4c1b1aa5e91a6de1beb4434f86699dc46f8f32b7c8152508160800151600481518110610d85577f4e487b7100000000000000000000000000000000000000000000000000000000600052603260045260246000fd5b602002602001018190525090565b610d9b611a80565b610da3611a9a565b836000015181600060038110610de2577f4e487b7100000000000000000000000000000000000000000000000000000000600052603260045260246000fd5b602002018181525050836020015181600160038110610e2a577f4e487b7100000000000000000000000000000000000000000000000000000000600052603260045260246000fd5b6020020181815250508281600260038110610e6e577f4e487b7100000000000000000000000000000000000000000000000000000000600052603260045260246000fd5b602002018181525050600060608360808460076107d05a03fa90508060008114610e9757610e99565bfe5b5080610ea457600080fd5b505092915050565b610eb4611a80565b610ebc611abc565b836000015181600060048110610efb577f4e487b7100000000000000000000000000000000000000000000000000000000600052603260045260246000fd5b602002018181525050836020015181600160048110610f43577f4e487b7100000000000000000000000000000000000000000000000000000000600052603260045260246000fd5b602002018181525050826000015181600260048110610f8b577f4e487b7100000000000000000000000000000000000000000000000000000000600052603260045260246000fd5b602002018181525050826020015181600360048110610fd3577f4e487b7100000000000000000000000000000000000000000000000000000000600052603260045260246000fd5b602002018181525050600060608360c08460066107d05a03fa90508060008114610ffc57610ffe565bfe5b508061100957600080fd5b505092915050565b611019611a80565b60007f30644e72e131a029b85045b68181585d97816a916871ca8d3c208c16d87cfd47905060008360000151148015611056575060008360200151145b1561107a5760405180604001604052806000815260200160008152509150506110b1565b60405180604001604052808460000151815260200182856020015161109f9190611f95565b836110aa9190611ed1565b8152509150505b919050565b600080600467ffffffffffffffff8111156110fa577f4e487b7100000000000000000000000000000000000000000000000000000000600052604160045260246000fd5b60405190808252806020026020018201604052801561113357816020015b611120611a80565b8152602001906001900390816111185790505b5090506000600467ffffffffffffffff811115611179577f4e487b7100000000000000000000000000000000000000000000000000000000600052604160045260246000fd5b6040519080825280602002602001820160405280156111b257816020015b61119f611ade565b8152602001906001900390816111975790505b5090508a826000815181106111f0577f4e487b7100000000000000000000000000000000000000000000000000000000600052603260045260246000fd5b60200260200101819052508882600181518110611236577f4e487b7100000000000000000000000000000000000000000000000000000000600052603260045260246000fd5b6020026020010181905250868260028151811061127c577f4e487b7100000000000000000000000000000000000000000000000000000000600052603260045260246000fd5b602002602001018190525084826003815181106112c2577f4e487b7100000000000000000000000000000000000000000000000000000000600052603260045260246000fd5b60200260200101819052508981600081518110611308577f4e487b7100000000000000000000000000000000000000000000000000000000600052603260045260246000fd5b6020026020010181905250878160018151811061134e577f4e487b7100000000000000000000000000000000000000000000000000000000600052603260045260246000fd5b60200260200101819052508581600281518110611394577f4e487b7100000000000000000000000000000000000000000000000000000000600052603260045260246000fd5b602002602001018190525083816003815181106113da577f4e487b7100000000000000000000000000000000000000000000000000000000600052603260045260246000fd5b60200260200101819052506113ef82826113ff565b9250505098975050505050505050565b6000815183511461140f57600080fd5b60008351905060006006826114249190611e77565b905060008167ffffffffffffffff811115611468577f4e487b7100000000000000000000000000000000000000000000000000000000600052604160045260246000fd5b6040519080825280602002602001820160405280156114965781602001602082028036833780820191505090505b50905060005b8381101561197b578681815181106114dd577f4e487b7100000000000000000000000000000000000000000000000000000000600052603260045260246000fd5b6020026020010151600001518260006006846114f99190611e77565b6115039190611e21565b8151811061153a577f4e487b7100000000000000000000000000000000000000000000000000000000600052603260045260246000fd5b60200260200101818152505086818151811061157f577f4e487b7100000000000000000000000000000000000000000000000000000000600052603260045260246000fd5b60200260200101516020015182600160068461159b9190611e77565b6115a59190611e21565b815181106115dc577f4e487b7100000000000000000000000000000000000000000000000000000000600052603260045260246000fd5b602002602001018181525050858181518110611621577f4e487b7100000000000000000000000000000000000000000000000000000000600052603260045260246000fd5b602002602001015160000151600160028110611666577f4e487b7100000000000000000000000000000000000000000000000000000000600052603260045260246000fd5b602002015182600260068461167b9190611e77565b6116859190611e21565b815181106116bc577f4e487b7100000000000000000000000000000000000000000000000000000000600052603260045260246000fd5b602002602001018181525050858181518110611701577f4e487b7100000000000000000000000000000000000000000000000000000000600052603260045260246000fd5b602002602001015160000151600060028110611746577f4e487b7100000000000000000000000000000000000000000000000000000000600052603260045260246000fd5b602002015182600360068461175b9190611e77565b6117659190611e21565b8151811061179c577f4e487b7100000000000000000000000000000000000000000000000000000000600052603260045260246000fd5b6020026020010181815250508581815181106117e1577f4e487b7100000000000000000000000000000000000000000000000000000000600052603260045260246000fd5b602002602001015160200151600160028110611826577f4e487b7100000000000000000000000000000000000000000000000000000000600052603260045260246000fd5b602002015182600460068461183b9190611e77565b6118459190611e21565b8151811061187c577f4e487b7100000000000000000000000000000000000000000000000000000000600052603260045260246000fd5b6020026020010181815250508581815181106118c1577f4e487b7100000000000000000000000000000000000000000000000000000000600052603260045260246000fd5b602002602001015160200151600060028110611906577f4e487b7100000000000000000000000000000000000000000000000000000000600052603260045260246000fd5b602002015182600560068461191b9190611e77565b6119259190611e21565b8151811061195c577f4e487b7100000000000000000000000000000000000000000000000000000000600052603260045260246000fd5b602002602001018181525050808061197390611f4c565b91505061149c565b50611984611b04565b6000602082602086026020860160086107d05a03fa905080600081146119a9576119ab565bfe5b50806119b657600080fd5b6000826000600181106119f2577f4e487b7100000000000000000000000000000000000000000000000000000000600052603260045260246000fd5b602002015114159550505050505092915050565b6040518060600160405280611a19611a80565b8152602001611a26611ade565b8152602001611a33611a80565b81525090565b6040518060a00160405280611a4c611a80565b8152602001611a59611ade565b8152602001611a66611ade565b8152602001611a73611ade565b8152602001606081525090565b604051806040016040528060008152602001600081525090565b6040518060600160405280600390602082028036833780820191505090505090565b6040518060800160405280600490602082028036833780820191505090505090565b6040518060400160405280611af1611b26565b8152602001611afe611b26565b81525090565b6040518060200160405280600190602082028036833780820191505090505090565b6040518060400160405280600290602082028036833780820191505090505090565b6000611b5b611b5684611daf565b611d8a565b90508082856040860282011115611b7157600080fd5b60005b85811015611ba15781611b878882611c98565b845260208401935060408301925050600181019050611b74565b5050509392505050565b6000611bbe611bb984611dd5565b611d8a565b90508082856020860282011115611bd457600080fd5b60005b85811015611c045781611bea8882611ce6565b845260208401935060208301925050600181019050611bd7565b5050509392505050565b6000611c21611c1c84611dfb565b611d8a565b90508082856020860282011115611c3757600080fd5b60005b85811015611c675781611c4d8882611ce6565b845260208401935060208301925050600181019050611c3a565b5050509392505050565b600082601f830112611c8257600080fd5b6002611c8f848285611b48565b91505092915050565b600082601f830112611ca957600080fd5b6002611cb6848285611bab565b91505092915050565b600082601f830112611cd057600080fd5b6004611cdd848285611c0e565b91505092915050565b600081359050611cf581612064565b92915050565b6000806000806101808587031215611d1257600080fd5b6000611d2087828801611c98565b9450506040611d3187828801611c71565b93505060c0611d4287828801611c98565b925050610100611d5487828801611cbf565b91505092959194509250565b611d6981611f05565b82525050565b6000602082019050611d846000830184611d60565b92915050565b6000611d94611da5565b9050611da08282611f1b565b919050565b6000604051905090565b600067ffffffffffffffff821115611dca57611dc9612024565b5b602082029050919050565b600067ffffffffffffffff821115611df057611def612024565b5b602082029050919050565b600067ffffffffffffffff821115611e1657611e15612024565b5b602082029050919050565b6000611e2c82611f11565b9150611e3783611f11565b9250827fffffffffffffffffffffffffffffffffffffffffffffffffffffffffffffffff03821115611e6c57611e6b611fc6565b5b828201905092915050565b6000611e8282611f11565b9150611e8d83611f11565b9250817fffffffffffffffffffffffffffffffffffffffffffffffffffffffffffffffff0483118215151615611ec657611ec5611fc6565b5b828202905092915050565b6000611edc82611f11565b9150611ee783611f11565b925082821015611efa57611ef9611fc6565b5b828203905092915050565b60008115159050919050565b6000819050919050565b611f2482612053565b810181811067ffffffffffffffff82111715611f4357611f42612024565b5b80604052505050565b6000611f5782611f11565b91507fffffffffffffffffffffffffffffffffffffffffffffffffffffffffffffffff821415611f8a57611f89611fc6565b5b600182019050919050565b6000611fa082611f11565b9150611fab83611f11565b925082611fbb57611fba611ff5565b5b828206905092915050565b7f4e487b7100000000000000000000000000000000000000000000000000000000600052601160045260246000fd5b7f4e487b7100000000000000000000000000000000000000000000000000000000600052601260045260246000fd5b7f4e487b7100000000000000000000000000000000000000000000000000000000600052604160045260246000fd5b6000601f19601f8301169050919050565b61206d81611f11565b811461207857600080fd5b5056fea2646970667358221220d1c2d140097eda731fef65af184aa7967af3f6d82f0d804322ea0c2f7acbecd164736f6c63430008040033a2646970667358221220450b9a9001f6ab2f6d52c30ecc3f7891137f3527a572b5976a92bff1ddde531664736f6c63430008040033",
  "immutableReferences": {},
  "source": "pragma solidity ^0.8.0;\n\nimport \"./MiMC.sol\";\nimport \"./verifier.sol\";\nimport \"./utility.sol\";\n/* PERSONEL NOTES:\nEach invokation will cost Gas (measured in computational steps), the transaction\nof incrementing a candidate vote and losing right to vote (again) is\n STORAGE -> STATE VARIABLES\n MEMORY -> LOCAL VAR WITHIN function\n CALLDATA -> ONLY WITHIN PARAM \n/* We can pre-generate a proof of membership circuit in Zokrates using a Merkle Tree with all public keys as an input. A user may prove that\nhe is a member of the tree via the Merkle Root rt. \n\n/* @TODO: Merkle Tree Generator, input values into zok file\nProving membership: \nInputs => Public merkleRoot, treeDepth, Private uint[] directionNavigator, currentNode, \n\nUser Inputs into Proof Generation => Private secretKey\n\nOwner Inputs => Self generated Secret Key and Public Key, and Verification Key\nWhen contract is deployed, the state change is appended onto the blockchain. */\n/*struct MerkleTree {\n    string value;\n    MerkleTree left;\n    MerkleTree right;\n\n}*/\n\n\ncontract Election {\n    struct Candidate {\n        string name;\n        uint[] votes; /* A list of encrypted vote values for this candidate */\n    }\n    /* Each address in Address Space is mapped to an empty Voter struct with default values */\n    struct Voter {\n        bool authorized; /* So an owner has control over which public addresses may invoke functions */\n        bool submittedVoteKey; /* So we can prevent multiple voteKeys from one address */\n        uint weight; /* The on-chain calculated weight of the voter*/\n    }\n    string public name;\n    address public owner;\n    uint public activeVoters;\n    uint public voteCount;\n    uint[] public identifiers;\n    //@TODO: Convert state variable to enum or int for comparison in require\n    string public currentState;\n    // Key: Address, Value: Voter \n    //i.e Map a Voter object to ALL addresses\n    mapping(address => Voter) voters;\n    uint256[] internal voteKeyArray;\n    uint256[] internal merkleArray;\n    Candidate[] public candidates;\n    uint256 public merkleRoot;\n    /* The election starters public key */\n    uint public terminateElection;\n    /* Everytime the stage transitions, an announcement is made to all suscribers.\n    STATES: VOTEKEY-GENERATION => VOTE => END */\n    event AnnounceNewStage(string stage);\n    /* Everytime a vote is executed, this event is logged onto the block. Currently the voters public address is shown next to the candidate they voted\n    for, in future updates this address will be replaced by a ZKP */\n    event AnnounceVote(string candidate, address proofOfMembership);\n    /* Emit an event every time a vote tally is called. (DEBUG) */\n    event AnnounceResult(string candidate, uint[] tallyCount);\n    /* Create an Event each time the owner authorizes a voter */\n    event AnnounceAuth(address authorizedUser);\n    event AnnounceValidProof(bool x);\n    event Debug(uint256 s);\n    /* Called only when contract is created, contract compiler is the owner */\n    constructor(){\n        owner = msg.sender;\n    }\n    /* When a potential voter wishes to generate a proof, they required their index in the Merkle Tree aswell as the Merkle Root*/\n /*   function getMerkleInfo(string memory voteKey) public returns() {\n\n    } */\n    /* Once the VOTEKEY-GENERATION period has expired, this function is called to produce a Merkle Tree.\n    There should be a Nth power of 2 length of valid vote keys, if such a case does not exist dummy values are pumped. \n    GAS COST EST: 300k */\n    function createMerkleArray() public {\n        /* Guarantee that a valid merkle tree can be constructed with the given nodes*/\n        //assert(voteKeyArray.length >= 2);\n        uint pow = 1; bool isPowerOf2 = false;\n        uint256 tempValDebug =0;\n        /* Find the power of 2 closest or equal to the length, if equal do nothing */\n        while(pow <= voteKeyArray.length){ if(pow == voteKeyArray.length) { isPowerOf2 = true; break; } else { pow = pow *2; } }\n        /* If index isn't a power of two, we pump it with static public vote keys */\n        while(pow != voteKeyArray.length && isPowerOf2 == false){ voteKeyArray.push(1337); pow--; }\n        /* For each voteKey struct present, transfer the hashed value into the Merkle Array */\n        for(uint i =0; i < voteKeyArray.length; i++){\n            //leaf = MiMC.MiMC_Hash([voteKeyArray[i],voteKeyArray[i+1]]);\n            emit Debug(tempValDebug);\n            tempValDebug = voteKeyArray[i];\n            merkleArray.push(tempValDebug);\n        }\n        uint nodeCount=0;\n        uint n = voteKeyArray.length;\n        /* While there are still nodes to traverse*/\n\n        uint256[] memory x = new uint[](2); //Should be statically defined\n          while (n > 0) {\n            /* Each iteration covers one layer of the tree. Starting with the original voteKey values */\n            for (uint offset = 0; offset < n - 1; offset+=2) { //Offset is the number of nodes operated on within the scope of the iteration\n                /* Pair-hash neighbouring nodes and move forward by two steps*/\n                /* Transfer values from the appropiate index (nodes already covered + offset)*/\n                x[0] = merkleArray[nodeCount + offset];\n                x[1] = merkleArray[nodeCount + offset + 1];\n                /* Combine both nodes using MiMC Hash and push to the array as a Parent*/\n                merkleArray.push(MiMC.MiMC_Hash(x));\n            }\n            /* Add the count of this new layer to our total node count*/\n            nodeCount += n;\n            /* Div2 will get us to the next layer count, due to the nice properties of Binary Trees and Powers of 2 we can just div*/\n            n = n / 2;\n            if(n <= 0){ //next while wont occur. The offset at this point is the number of nodes in the tree\n            }\n        }\n        /* merkleArray now contains all nodes, ordered by indexing of layer size. i.e 8 voteKeys => index [0..7], 4 parent nodes produced => index [8..11], 2 nodes produced => index [12..13], Merkle Root => index [14]*/\n        currentState = \"VOTING-OPEN\";\n        emit AnnounceNewStage(currentState); \n    }\n    /* Use Case (DApp)\n    When a user inputs a secret key (SK) and clicks the 'Join Vote' button,\n    SK is locally hashed using MiMC before being sent as a VOTE KEY\n    The user is only able to push 1 vote-key per public address (to prevent double-registration) */\n    function pushVoteKey(string memory str) public {\n        uint256 voteKey = utility.stringToUint(str);\n        /* check double-vote and if votekey generation stage is active*/\n       // require(currentState == \"VOTEKEY-GENERATION\");\n        /* Make sure the voter has been authorized and that they haven't already generated a key*/\n        //require(/*voters[msg.sender].authorized == true &&*/ voters[msg.sender].submittedVoteKey == false);\n        /* Mapping Implementation */\n        /* Array Implementation */\n        voteKeyArray.push(voteKey);\n        activeVoters++;\n        /* Check if our voter count exceeded or reached a power of 2*/\n        if(activeVoters == 4) { \n\n            emit Debug(voteKey);\n           createMerkleArray();\n            }\n            emit Debug(voteKey);\n    }   \n    function conductElection(string memory inputName, string memory candidateA, string  memory candidateB) public  {\n        //require(treeDepth >= 1 && treeDepth <= 33); //33 is the maximum depth of the tree allowed\n        //publicKey = pubKey; /* Serialization of Public Key class as a string, Client may de-serialize for encryption*/\n       // publicKey.push(n); publicKey.push(g);\n        owner = msg.sender;\n        name = inputName;\n        uint256[] memory empty;\n        candidates.push(Candidate(candidateA,empty));\n        candidates.push(Candidate(candidateB,empty));\n        voteCount=0;\n        currentState = \"VOTEKEY-GENERATION\";\n        emit AnnounceNewStage(currentState);\n    }\n     /* Input Array: private field  secretKey, field merkleRoot, private bool[2]  directionSelector, field[2] siblingNodes */\n     function submitVote( uint[2] memory a,\n            uint[2][2] memory b,\n            uint[2] memory c, uint[4] memory input, uint voteVal) public {\n    \t/* Verify Voter rights and if they have voted previously */\n        //require(voters[msg.sender].authorized == true, \"The owner did not authorize you to vote.\"); \n        /* \n        for(uint i=0; i < voteCount; i++){\n            if(input[0] == identifiers[i]){\n                revert();\n            }\n        }*/\n        //require(voters[msg.sender].voted == false, \"You have already voted\"); \n\n         /*Verify if Voting process is active*/\n        //require(currentState == \"VOTING-OPEN\");\n\n        /* Verify the Proof of Membership */\n        Verifier v = new Verifier();\n        bool x  = v.verifyTx(a, b, c, input);\n        emit AnnounceValidProof(x);\n       /*     //Candidate Index = voteVal, Unique Identifier = input[0]\n            candidates[voteVal].votes.push(input[0]);\n            identifiers.push(input[0]);\n            voteCount++;\n            /* Emit an event on the block to notify a new vote \n            emit AnnounceVote(candidates[voteVal].name, msg.sender);\n            if(activeVoters == voteCount){ currentState = \"END\"; }*/\n        \n    } \n    function getMerkleInfo(string memory str) public view returns(uint256 targetIndex, uint256 firstLayerSize, uint256 [] memory entireMerkleArray, uint256 mkRoot) {\n    \tuint index = 1337;\n        uint256 voteKey = utility.stringToUint(str);\n    \tfor(uint i =0; i< merkleArray.length; i++){\n    \t\tif(voteKey == merkleArray[i]){\n    \t\t index = i;\n    \t\t/* From i till N, move up a layer, find appropiate index*/\n    \t\t}\n    \t}\n    \trequire(index != 1337);\n    \treturn (index, voteKeyArray.length, merkleArray, merkleArray[merkleArray.length-1]);\n    }\n    /* The invoker of the Election can convert 'citizens' into 'voters' by giving the rights variable\n    / value that affects the summation in submitVote(..)*/\n    function authorize(address citizen) public {\n        require(msg.sender == owner);\n        voters[citizen].authorized = true;\n        calculateVoteWeight(citizen);\n        emit AnnounceAuth(msg.sender);\n        \n    }\n    function tallyVotes() public {\n    \t/* @TODO: Add a loop for dynamic candidates*/\n        emit AnnounceResult(candidates[0].name, candidates[0].votes);\n        emit AnnounceResult(candidates[1].name, candidates[1].votes);\n    }\n    /* Here will be the custom weight function responsible for calculating a vote weight\n    based on User financial investment or something similar */\n    function calculateVoteWeight(address citizen) private {\n        /* (TEMPORARY) HARD-CODED VALUE OF 1 */\n        voters[citizen].weight = 1;\n    }\n    /* ====================== WEB3 HELPER GETTERS ====================*/\n    function getCandidates() public view returns(string[] memory){\n        string[] memory result = new string[](candidates.length);\n        for(uint i=0; i<candidates.length; i++){\n            result[i]= (candidates[i].name);\n        }\n        return result;\n    }\n}\n",
  "sourcePath": "/home/rayyan808/Documents/Github/Bsc Project Git/bsc-project/contracts/Election.sol",
  "compiler": {
    "name": "solc",
    "version": "0.8.4+commit.c7e474f2.Emscripten.clang"
  },
  "schemaVersion": "3.4.0",
  "updatedAt": "2021-07-14T23:58:16.212Z",
  "devdoc": {
    "kind": "dev",
    "methods": {},
    "version": 1
  },
  "userdoc": {
    "kind": "user",
    "methods": {},
    "version": 1
  }
}