{
  "contractName": "Election",
  "abi": [
    {
      "inputs": [],
      "stateMutability": "nonpayable",
      "type": "constructor"
    },
    {
      "anonymous": false,
      "inputs": [
        {
          "indexed": false,
          "internalType": "address",
          "name": "authorizedUser",
          "type": "address"
        }
      ],
      "name": "AnnounceAuth",
      "type": "event"
    },
    {
      "anonymous": false,
      "inputs": [
        {
          "indexed": false,
          "internalType": "string",
          "name": "candidate",
          "type": "string"
        },
        {
          "indexed": false,
          "internalType": "uint256",
          "name": "tallyCount",
          "type": "uint256"
        }
      ],
      "name": "AnnounceResult",
      "type": "event"
    },
    {
      "anonymous": false,
      "inputs": [
        {
          "indexed": false,
          "internalType": "string",
          "name": "candidate",
          "type": "string"
        },
        {
          "indexed": false,
          "internalType": "address",
          "name": "proofOfMembership",
          "type": "address"
        }
      ],
      "name": "AnnounceVote",
      "type": "event"
    },
    {
      "inputs": [
        {
          "internalType": "uint256",
          "name": "",
          "type": "uint256"
        }
      ],
      "name": "candidates",
      "outputs": [
        {
          "internalType": "string",
          "name": "name",
          "type": "string"
        },
        {
          "internalType": "uint256",
          "name": "voteCount",
          "type": "uint256"
        }
      ],
      "stateMutability": "view",
      "type": "function",
      "constant": true
    },
    {
      "inputs": [],
      "name": "name",
      "outputs": [
        {
          "internalType": "string",
          "name": "",
          "type": "string"
        }
      ],
      "stateMutability": "view",
      "type": "function",
      "constant": true
    },
    {
      "inputs": [],
      "name": "owner",
      "outputs": [
        {
          "internalType": "address",
          "name": "",
          "type": "address"
        }
      ],
      "stateMutability": "view",
      "type": "function",
      "constant": true
    },
    {
      "inputs": [],
      "name": "terminateElection",
      "outputs": [
        {
          "internalType": "uint256",
          "name": "",
          "type": "uint256"
        }
      ],
      "stateMutability": "view",
      "type": "function",
      "constant": true
    },
    {
      "inputs": [
        {
          "internalType": "string",
          "name": "inputName",
          "type": "string"
        },
        {
          "internalType": "string",
          "name": "candidateA",
          "type": "string"
        },
        {
          "internalType": "string",
          "name": "candidateB",
          "type": "string"
        }
      ],
      "name": "conductElection",
      "outputs": [],
      "stateMutability": "nonpayable",
      "type": "function"
    },
    {
      "inputs": [
        {
          "internalType": "uint256",
          "name": "voteVal",
          "type": "uint256"
        }
      ],
      "name": "submitVote",
      "outputs": [],
      "stateMutability": "nonpayable",
      "type": "function"
    },
    {
      "inputs": [
        {
          "internalType": "address",
          "name": "citizen",
          "type": "address"
        }
      ],
      "name": "authorize",
      "outputs": [],
      "stateMutability": "nonpayable",
      "type": "function"
    },
    {
      "inputs": [],
      "name": "tallyVotes",
      "outputs": [],
      "stateMutability": "nonpayable",
      "type": "function"
    }
  ],
  "bytecode": "0x608060405234801561001057600080fd5b5033600160006101000a81548173ffffffffffffffffffffffffffffffffffffffff021916908373ffffffffffffffffffffffffffffffffffffffff160217905550610f58806100616000396000f3fe608060405234801561001057600080fd5b50600436106100885760003560e01c8063378a21781161005b578063378a2178146101145780638da5cb5b1461011e578063b4f3b1ca1461013c578063b6a5d7de1461015a57610088565b806306fdde031461008d57806326222ea3146100ab5780632844328f146100c75780633477ee2e146100e3575b600080fd5b610095610176565b6040516100a29190610bcb565b60405180910390f35b6100c560048036038101906100c09190610a19565b610204565b005b6100e160048036038101906100dc9190610ab0565b610335565b005b6100fd60048036038101906100f89190610ab0565b610555565b60405161010b929190610bed565b60405180910390f35b61011c610611565b005b6101266107b3565b6040516101339190610bb0565b60405180910390f35b6101446107d9565b6040516101519190610c7d565b60405180910390f35b610174600480360381019061016f91906109f0565b6107df565b005b6000805461018390610df3565b80601f01602080910402602001604051908101604052809291908181526020018280546101af90610df3565b80156101fc5780601f106101d1576101008083540402835291602001916101fc565b820191906000526020600020905b8154815290600101906020018083116101df57829003601f168201915b505050505081565b33600160006101000a81548173ffffffffffffffffffffffffffffffffffffffff021916908373ffffffffffffffffffffffffffffffffffffffff160217905550826000908051906020019061025b9291906108bb565b50600360405180604001604052808481526020016000815250908060018154018082558091505060019003906000526020600020906002020160009091909190915060008201518160000190805190602001906102b99291906108bb565b50602082015181600101555050600360405180604001604052808381526020016000815250908060018154018082558091505060019003906000526020600020906002020160009091909190915060008201518160000190805190602001906103239291906108bb565b50602082015181600101555050505050565b6001600260003373ffffffffffffffffffffffffffffffffffffffff1673ffffffffffffffffffffffffffffffffffffffff168152602001908152602001600020600101541461038457600080fd5b60001515600260003373ffffffffffffffffffffffffffffffffffffffff1673ffffffffffffffffffffffffffffffffffffffff16815260200190815260200160002060020160009054906101000a900460ff161515146103e457600080fd5b80600260003373ffffffffffffffffffffffffffffffffffffffff1673ffffffffffffffffffffffffffffffffffffffff16815260200190815260200160002060000181905550600260003373ffffffffffffffffffffffffffffffffffffffff1673ffffffffffffffffffffffffffffffffffffffff16815260200190815260200160002060010154600382815481106104a8577f4e487b7100000000000000000000000000000000000000000000000000000000600052603260045260246000fd5b906000526020600020906002020160010160008282546104c89190610d1f565b925050819055507f8c4bbf432c3f9c3348d45700f436aa13af99743d19b100361cbcf36e76e443296003828154811061052a577f4e487b7100000000000000000000000000000000000000000000000000000000600052603260045260246000fd5b90600052602060002090600202016000013360405161054a929190610c1d565b60405180910390a150565b6003818154811061056557600080fd5b906000526020600020906002020160009150905080600001805461058890610df3565b80601f01602080910402602001604051908101604052809291908181526020018280546105b490610df3565b80156106015780601f106105d657610100808354040283529160200191610601565b820191906000526020600020905b8154815290600101906020018083116105e457829003601f168201915b5050505050908060010154905082565b7f6d43044591c22cc3b0e95b89225a964dd6dafbcbb30d4db3f5662e6280fc0439600360008154811061066d577f4e487b7100000000000000000000000000000000000000000000000000000000600052603260045260246000fd5b906000526020600020906002020160000160036000815481106106b9577f4e487b7100000000000000000000000000000000000000000000000000000000600052603260045260246000fd5b9060005260206000209060020201600101546040516106d9929190610c4d565b60405180910390a17f6d43044591c22cc3b0e95b89225a964dd6dafbcbb30d4db3f5662e6280fc0439600360018154811061073d577f4e487b7100000000000000000000000000000000000000000000000000000000600052603260045260246000fd5b90600052602060002090600202016000016003600181548110610789577f4e487b7100000000000000000000000000000000000000000000000000000000600052603260045260246000fd5b9060005260206000209060020201600101546040516107a9929190610c4d565b60405180910390a1565b600160009054906101000a900473ffffffffffffffffffffffffffffffffffffffff1681565b60045481565b600160009054906101000a900473ffffffffffffffffffffffffffffffffffffffff1673ffffffffffffffffffffffffffffffffffffffff163373ffffffffffffffffffffffffffffffffffffffff161461083957600080fd5b6001600260008373ffffffffffffffffffffffffffffffffffffffff1673ffffffffffffffffffffffffffffffffffffffff168152602001908152602001600020600101819055507f081ba50acbad95aaf2f3d6ae236a307baad3be11e7c84f2b4a043cfc114ebe31336040516108b09190610bb0565b60405180910390a150565b8280546108c790610df3565b90600052602060002090601f0160209004810192826108e95760008555610930565b82601f1061090257805160ff1916838001178555610930565b82800160010185558215610930579182015b8281111561092f578251825591602001919060010190610914565b5b50905061093d9190610941565b5090565b5b8082111561095a576000816000905550600101610942565b5090565b600061097161096c84610cbd565b610c98565b90508281526020810184848401111561098957600080fd5b610994848285610db1565b509392505050565b6000813590506109ab81610ef4565b92915050565b600082601f8301126109c257600080fd5b81356109d284826020860161095e565b91505092915050565b6000813590506109ea81610f0b565b92915050565b600060208284031215610a0257600080fd5b6000610a108482850161099c565b91505092915050565b600080600060608486031215610a2e57600080fd5b600084013567ffffffffffffffff811115610a4857600080fd5b610a54868287016109b1565b935050602084013567ffffffffffffffff811115610a7157600080fd5b610a7d868287016109b1565b925050604084013567ffffffffffffffff811115610a9a57600080fd5b610aa6868287016109b1565b9150509250925092565b600060208284031215610ac257600080fd5b6000610ad0848285016109db565b91505092915050565b610ae281610d75565b82525050565b6000610af382610d03565b610afd8185610d0e565b9350610b0d818560208601610dc0565b610b1681610ee3565b840191505092915050565b60008154610b2e81610df3565b610b388186610d0e565b94506001821660008114610b535760018114610b6557610b98565b60ff1983168652602086019350610b98565b610b6e85610cee565b60005b83811015610b9057815481890152600182019150602081019050610b71565b808801955050505b50505092915050565b610baa81610da7565b82525050565b6000602082019050610bc56000830184610ad9565b92915050565b60006020820190508181036000830152610be58184610ae8565b905092915050565b60006040820190508181036000830152610c078185610ae8565b9050610c166020830184610ba1565b9392505050565b60006040820190508181036000830152610c378185610b21565b9050610c466020830184610ad9565b9392505050565b60006040820190508181036000830152610c678185610b21565b9050610c766020830184610ba1565b9392505050565b6000602082019050610c926000830184610ba1565b92915050565b6000610ca2610cb3565b9050610cae8282610e25565b919050565b6000604051905090565b600067ffffffffffffffff821115610cd857610cd7610eb4565b5b610ce182610ee3565b9050602081019050919050565b60008190508160005260206000209050919050565b600081519050919050565b600082825260208201905092915050565b6000610d2a82610da7565b9150610d3583610da7565b9250827fffffffffffffffffffffffffffffffffffffffffffffffffffffffffffffffff03821115610d6a57610d69610e56565b5b828201905092915050565b6000610d8082610d87565b9050919050565b600073ffffffffffffffffffffffffffffffffffffffff82169050919050565b6000819050919050565b82818337600083830152505050565b60005b83811015610dde578082015181840152602081019050610dc3565b83811115610ded576000848401525b50505050565b60006002820490506001821680610e0b57607f821691505b60208210811415610e1f57610e1e610e85565b5b50919050565b610e2e82610ee3565b810181811067ffffffffffffffff82111715610e4d57610e4c610eb4565b5b80604052505050565b7f4e487b7100000000000000000000000000000000000000000000000000000000600052601160045260246000fd5b7f4e487b7100000000000000000000000000000000000000000000000000000000600052602260045260246000fd5b7f4e487b7100000000000000000000000000000000000000000000000000000000600052604160045260246000fd5b6000601f19601f8301169050919050565b610efd81610d75565b8114610f0857600080fd5b50565b610f1481610da7565b8114610f1f57600080fd5b5056fea2646970667358221220562bc9cdc281050373229908749b12a748e1fed8202e64e9c6d004df04f28d1d64736f6c63430008040033",
  "immutableReferences": {},
  "source": "pragma solidity ^0.8.0;\n\n\n/* PERSONEL NOTES:\nEach invokation will cost Gas (measured in computational steps), the transaction\nof incrementing a candidate vote and losing right to vote (again) is\n STORAGE -> STATE VARIABLES\n MEMORY -> LOCAL VAR WITHIN function\n CALLDATA -> ONLY WITHIN PARAM \n/* We can pre-generate a proof of membership circuit in Zokrates using a Merkle Tree with all public keys as an input. A user may prove that\nhe is a member of the tree via the Merkle Root rt. \n\n/* @TODO: Merkle Tree Generator, input values into zok file\nProving membership: \nInputs => Public merkleRoot, treeDepth, Private uint[] directionNavigator, currentNode, \n\nUser Inputs into Proof Generation => Private secretKey\n\nOwner Inputs => Self generated Secret Key and Public Key, and Verification Key\nWhen contract is deployed, the state change is appended onto the blockchain. */\ncontract Election {\n    struct Candidate {\n        string name;\n        uint voteCount;\n    }\n    struct Voter {\n        uint value;\n        uint rights;\n        bool voted;\n    }\n    string public name;\n    address public owner;\n    // Key: Address, Value: Voter \n    //i.e Map a Voter object to ALL addresses\n    mapping(address => Voter) voters;\n    \n    Candidate[] public candidates;\n    \n    uint public terminateElection;\n    /* Everytime a vote is executed, this event is logged onto the block. Currently the voters public address is shown next to the candidate they voted\n    for, in future updates this address will be replaced by a ZKP */\n    \n    event AnnounceVote(string candidate, address proofOfMembership);\n    event AnnounceResult(string candidate, uint tallyCount);\n    \n    event AnnounceAuth(address authorizedUser);\n    /* Called only when contract is created, contract compiler is the owner */\n    constructor(){\n        owner = msg.sender;\n    }\n    function conductElection(string memory inputName, string memory candidateA, string  memory candidateB) public  {\n        owner = msg.sender;\n        name = inputName;\n        candidates.push(Candidate(candidateA,0));\n        candidates.push(Candidate(candidateB,0));\n        \n    }\n     /* Inputs: voteVal, */\n     function submitVote(uint voteVal) public {\n         //Index/address is contained in msg.sender\n    \t\n        require(voters[msg.sender].rights == 1);\n        require(voters[msg.sender].voted == false);\n        \n        //Assign Vote Value to the voter\n        voters[msg.sender].value = voteVal;\n        //If the voter is authorized, then the vote has a state change\n        /* @TODO: Implement Additive Pailler */\n        candidates[voteVal].voteCount += voters[msg.sender].rights;\n        /* Emit an event on the block to notify a new vote using candidate who got the votes name and the voters proof of Membership*/\n        emit AnnounceVote(candidates[voteVal].name, msg.sender);\n    }\n    /*function generateMerkle(){\n    }*/\n    /* The invoker of the Election can convert 'citizens' into 'voters' by giving the rights variable\n    / value that affects the summation in submitVote(..)*/\n    function authorize(address citizen) public {\n        require(msg.sender == owner);\n        voters[citizen].rights = 1;\n        emit AnnounceAuth(msg.sender);\n        \n    }\n    function tallyVotes() public {\n    \t/* @TODO: Add a loop for dynamic candidates*/\n        emit AnnounceResult(candidates[0].name, candidates[0].voteCount);\n        emit AnnounceResult(candidates[1].name, candidates[1].voteCount);\n    }\n\n}\n",
  "sourcePath": "/home/rayyan808/Documents/Github/Bsc Project Git/bsc-project/contracts/Election.sol",
  "compiler": {
    "name": "solc",
    "version": "0.8.4+commit.c7e474f2.Emscripten.clang"
  },
  "schemaVersion": "3.4.0",
  "updatedAt": "2021-05-07T17:47:10.590Z",
  "networkType": "ethereum",
  "devdoc": {
    "kind": "dev",
    "methods": {},
    "version": 1
  },
  "userdoc": {
    "kind": "user",
    "methods": {},
    "version": 1
  }
}