{
  "contractName": "Election",
  "abi": [
    {
      "inputs": [],
      "stateMutability": "nonpayable",
      "type": "constructor"
    },
    {
      "anonymous": false,
      "inputs": [
        {
          "indexed": false,
          "internalType": "address",
          "name": "authorizedUser",
          "type": "address"
        }
      ],
      "name": "AnnounceAuth",
      "type": "event"
    },
    {
      "anonymous": false,
      "inputs": [
        {
          "indexed": false,
          "internalType": "string",
          "name": "stage",
          "type": "string"
        }
      ],
      "name": "AnnounceNewStage",
      "type": "event"
    },
    {
      "anonymous": false,
      "inputs": [
        {
          "indexed": false,
          "internalType": "string",
          "name": "candidate",
          "type": "string"
        },
        {
          "indexed": false,
          "internalType": "uint256",
          "name": "tallyCount",
          "type": "uint256"
        }
      ],
      "name": "AnnounceResult",
      "type": "event"
    },
    {
      "anonymous": false,
      "inputs": [
        {
          "indexed": false,
          "internalType": "string",
          "name": "candidate",
          "type": "string"
        },
        {
          "indexed": false,
          "internalType": "address",
          "name": "proofOfMembership",
          "type": "address"
        }
      ],
      "name": "AnnounceVote",
      "type": "event"
    },
    {
      "inputs": [],
      "name": "activeVoters",
      "outputs": [
        {
          "internalType": "uint256",
          "name": "",
          "type": "uint256"
        }
      ],
      "stateMutability": "view",
      "type": "function",
      "constant": true
    },
    {
      "inputs": [
        {
          "internalType": "uint256",
          "name": "",
          "type": "uint256"
        }
      ],
      "name": "candidates",
      "outputs": [
        {
          "internalType": "string",
          "name": "name",
          "type": "string"
        },
        {
          "internalType": "uint256",
          "name": "voteCount",
          "type": "uint256"
        }
      ],
      "stateMutability": "view",
      "type": "function",
      "constant": true
    },
    {
      "inputs": [],
      "name": "currentState",
      "outputs": [
        {
          "internalType": "string",
          "name": "",
          "type": "string"
        }
      ],
      "stateMutability": "view",
      "type": "function",
      "constant": true
    },
    {
      "inputs": [],
      "name": "name",
      "outputs": [
        {
          "internalType": "string",
          "name": "",
          "type": "string"
        }
      ],
      "stateMutability": "view",
      "type": "function",
      "constant": true
    },
    {
      "inputs": [],
      "name": "owner",
      "outputs": [
        {
          "internalType": "address",
          "name": "",
          "type": "address"
        }
      ],
      "stateMutability": "view",
      "type": "function",
      "constant": true
    },
    {
      "inputs": [],
      "name": "terminateElection",
      "outputs": [
        {
          "internalType": "uint256",
          "name": "",
          "type": "uint256"
        }
      ],
      "stateMutability": "view",
      "type": "function",
      "constant": true
    },
    {
      "inputs": [
        {
          "internalType": "string",
          "name": "voteKey",
          "type": "string"
        }
      ],
      "name": "pushVoteKey",
      "outputs": [],
      "stateMutability": "nonpayable",
      "type": "function"
    },
    {
      "inputs": [
        {
          "internalType": "string",
          "name": "inputName",
          "type": "string"
        },
        {
          "internalType": "uint8",
          "name": "treeDepth",
          "type": "uint8"
        },
        {
          "internalType": "string",
          "name": "candidateA",
          "type": "string"
        },
        {
          "internalType": "string",
          "name": "candidateB",
          "type": "string"
        }
      ],
      "name": "conductElection",
      "outputs": [],
      "stateMutability": "nonpayable",
      "type": "function"
    },
    {
      "inputs": [
        {
          "internalType": "uint256",
          "name": "voteVal",
          "type": "uint256"
        }
      ],
      "name": "submitVote",
      "outputs": [],
      "stateMutability": "nonpayable",
      "type": "function"
    },
    {
      "inputs": [
        {
          "internalType": "address",
          "name": "citizen",
          "type": "address"
        }
      ],
      "name": "authorize",
      "outputs": [],
      "stateMutability": "nonpayable",
      "type": "function"
    },
    {
      "inputs": [],
      "name": "tallyVotes",
      "outputs": [],
      "stateMutability": "nonpayable",
      "type": "function"
    }
  ],
  "bytecode": "0x608060405234801561001057600080fd5b5033600160006101000a81548173ffffffffffffffffffffffffffffffffffffffff021916908373ffffffffffffffffffffffffffffffffffffffff1602179055506113d0806100616000396000f3fe608060405234801561001057600080fd5b50600436106100a95760003560e01c8063378a217811610071578063378a2178146101535780638da5cb5b1461015d578063b4f3b1ca1461017b578063b6a5d7de14610199578063bb314cd8146101b5578063eeb64a50146101d3576100a9565b806306fdde03146100ae5780630990248b146100cc5780630c3f6acf146100e85780632844328f146101065780633477ee2e14610122575b600080fd5b6100b66101ef565b6040516100c39190611002565b60405180910390f35b6100e660048036038101906100e19190610dfb565b61027d565b005b6100f061048b565b6040516100fd9190611002565b60405180910390f35b610120600480360381019061011b9190610ee7565b610519565b005b61013c60048036038101906101379190610ee7565b610716565b60405161014a929190611024565b60405180910390f35b61015b6107d2565b005b610165610974565b6040516101729190610fe7565b60405180910390f35b61018361099a565b60405161019091906110b4565b60405180910390f35b6101b360048036038101906101ae9190610dd2565b6109a0565b005b6101bd610a98565b6040516101ca91906110b4565b60405180910390f35b6101ed60048036038101906101e89190610e3c565b610a9e565b005b600080546101fc9061120b565b80601f01602080910402602001604051908101604052809291908181526020018280546102289061120b565b80156102755780601f1061024a57610100808354040283529160200191610275565b820191906000526020600020905b81548152906001019060200180831161025857829003601f168201915b505050505081565b60011515600460003373ffffffffffffffffffffffffffffffffffffffff1673ffffffffffffffffffffffffffffffffffffffff16815260200190815260200160002060010160009054906101000a900460ff161515148015610333575060001515600460003373ffffffffffffffffffffffffffffffffffffffff1673ffffffffffffffffffffffffffffffffffffffff16815260200190815260200160002060010160029054906101000a900460ff161515145b61033c57600080fd5b80600560003373ffffffffffffffffffffffffffffffffffffffff1673ffffffffffffffffffffffffffffffffffffffff1681526020019081526020016000206000019080519060200190610392929190610c88565b506001600560003373ffffffffffffffffffffffffffffffffffffffff1673ffffffffffffffffffffffffffffffffffffffff16815260200190815260200160002060010160006101000a81548160ff02191690831515021790555060066040518060400160405280838152602001600115158152509080600181540180825580915050600190039060005260206000209060020201600090919091909150600082015181600001908051906020019061044d929190610c88565b5060208201518160010160006101000a81548160ff0219169083151502179055505050600260008154809291906104839061126e565b919050555050565b600380546104989061120b565b80601f01602080910402602001604051908101604052809291908181526020018280546104c49061120b565b80156105115780601f106104e657610100808354040283529160200191610511565b820191906000526020600020905b8154815290600101906020018083116104f457829003601f168201915b505050505081565b60011515600460003373ffffffffffffffffffffffffffffffffffffffff1673ffffffffffffffffffffffffffffffffffffffff16815260200190815260200160002060010160009054906101000a900460ff1615151461057957600080fd5b60001515600460003373ffffffffffffffffffffffffffffffffffffffff1673ffffffffffffffffffffffffffffffffffffffff16815260200190815260200160002060010160019054906101000a900460ff161515146105d957600080fd5b80600460003373ffffffffffffffffffffffffffffffffffffffff1673ffffffffffffffffffffffffffffffffffffffff168152602001908152602001600020600001819055507f8c4bbf432c3f9c3348d45700f436aa13af99743d19b100361cbcf36e76e443296007828154811061067b577f4e487b7100000000000000000000000000000000000000000000000000000000600052603260045260246000fd5b90600052602060002090600202016000013360405161069b929190611054565b60405180910390a1600260008154809291906106b6906111e1565b919050555060006002541415610713576040518060400160405280600381526020017f454e44000000000000000000000000000000000000000000000000000000000081525060039080519060200190610711929190610c88565b505b50565b6007818154811061072657600080fd5b90600052602060002090600202016000915090508060000180546107499061120b565b80601f01602080910402602001604051908101604052809291908181526020018280546107759061120b565b80156107c25780601f10610797576101008083540402835291602001916107c2565b820191906000526020600020905b8154815290600101906020018083116107a557829003601f168201915b5050505050908060010154905082565b7f6d43044591c22cc3b0e95b89225a964dd6dafbcbb30d4db3f5662e6280fc0439600760008154811061082e577f4e487b7100000000000000000000000000000000000000000000000000000000600052603260045260246000fd5b9060005260206000209060020201600001600760008154811061087a577f4e487b7100000000000000000000000000000000000000000000000000000000600052603260045260246000fd5b90600052602060002090600202016001015460405161089a929190611084565b60405180910390a17f6d43044591c22cc3b0e95b89225a964dd6dafbcbb30d4db3f5662e6280fc043960076001815481106108fe577f4e487b7100000000000000000000000000000000000000000000000000000000600052603260045260246000fd5b9060005260206000209060020201600001600760018154811061094a577f4e487b7100000000000000000000000000000000000000000000000000000000600052603260045260246000fd5b90600052602060002090600202016001015460405161096a929190611084565b60405180910390a1565b600160009054906101000a900473ffffffffffffffffffffffffffffffffffffffff1681565b60085481565b600160009054906101000a900473ffffffffffffffffffffffffffffffffffffffff1673ffffffffffffffffffffffffffffffffffffffff163373ffffffffffffffffffffffffffffffffffffffff16146109fa57600080fd5b6001600460008373ffffffffffffffffffffffffffffffffffffffff1673ffffffffffffffffffffffffffffffffffffffff16815260200190815260200160002060010160006101000a81548160ff021916908315150217905550610a5e81610c3d565b7f081ba50acbad95aaf2f3d6ae236a307baad3be11e7c84f2b4a043cfc114ebe3133604051610a8d9190610fe7565b60405180910390a150565b60025481565b60018360ff1610158015610ab6575060218360ff1611155b610abf57600080fd5b33600160006101000a81548173ffffffffffffffffffffffffffffffffffffffff021916908373ffffffffffffffffffffffffffffffffffffffff1602179055508360009080519060200190610b16929190610c88565b5060076040518060400160405280848152602001600081525090806001815401808255809150506001900390600052602060002090600202016000909190919091506000820151816000019080519060200190610b74929190610c88565b5060208201518160010155505060076040518060400160405280838152602001600081525090806001815401808255809150506001900390600052602060002090600202016000909190919091506000820151816000019080519060200190610bde929190610c88565b506020820151816001015550506040518060400160405280601281526020017f564f54454b45592d47454e45524154494f4e000000000000000000000000000081525060039080519060200190610c36929190610c88565b5050505050565b6001600460008373ffffffffffffffffffffffffffffffffffffffff1673ffffffffffffffffffffffffffffffffffffffff1681526020019081526020016000206000018190555050565b828054610c949061120b565b90600052602060002090601f016020900481019282610cb65760008555610cfd565b82601f10610ccf57805160ff1916838001178555610cfd565b82800160010185558215610cfd579182015b82811115610cfc578251825591602001919060010190610ce1565b5b509050610d0a9190610d0e565b5090565b5b80821115610d27576000816000905550600101610d0f565b5090565b6000610d3e610d39846110f4565b6110cf565b905082815260208101848484011115610d5657600080fd5b610d6184828561119f565b509392505050565b600081359050610d7881611355565b92915050565b600082601f830112610d8f57600080fd5b8135610d9f848260208601610d2b565b91505092915050565b600081359050610db78161136c565b92915050565b600081359050610dcc81611383565b92915050565b600060208284031215610de457600080fd5b6000610df284828501610d69565b91505092915050565b600060208284031215610e0d57600080fd5b600082013567ffffffffffffffff811115610e2757600080fd5b610e3384828501610d7e565b91505092915050565b60008060008060808587031215610e5257600080fd5b600085013567ffffffffffffffff811115610e6c57600080fd5b610e7887828801610d7e565b9450506020610e8987828801610dbd565b935050604085013567ffffffffffffffff811115610ea657600080fd5b610eb287828801610d7e565b925050606085013567ffffffffffffffff811115610ecf57600080fd5b610edb87828801610d7e565b91505092959194509250565b600060208284031215610ef957600080fd5b6000610f0784828501610da8565b91505092915050565b610f1981611156565b82525050565b6000610f2a8261113a565b610f348185611145565b9350610f448185602086016111ae565b610f4d81611344565b840191505092915050565b60008154610f658161120b565b610f6f8186611145565b94506001821660008114610f8a5760018114610f9c57610fcf565b60ff1983168652602086019350610fcf565b610fa585611125565b60005b83811015610fc757815481890152600182019150602081019050610fa8565b808801955050505b50505092915050565b610fe181611188565b82525050565b6000602082019050610ffc6000830184610f10565b92915050565b6000602082019050818103600083015261101c8184610f1f565b905092915050565b6000604082019050818103600083015261103e8185610f1f565b905061104d6020830184610fd8565b9392505050565b6000604082019050818103600083015261106e8185610f58565b905061107d6020830184610f10565b9392505050565b6000604082019050818103600083015261109e8185610f58565b90506110ad6020830184610fd8565b9392505050565b60006020820190506110c96000830184610fd8565b92915050565b60006110d96110ea565b90506110e5828261123d565b919050565b6000604051905090565b600067ffffffffffffffff82111561110f5761110e611315565b5b61111882611344565b9050602081019050919050565b60008190508160005260206000209050919050565b600081519050919050565b600082825260208201905092915050565b600061116182611168565b9050919050565b600073ffffffffffffffffffffffffffffffffffffffff82169050919050565b6000819050919050565b600060ff82169050919050565b82818337600083830152505050565b60005b838110156111cc5780820151818401526020810190506111b1565b838111156111db576000848401525b50505050565b60006111ec82611188565b91506000821415611200576111ff6112b7565b5b600182039050919050565b6000600282049050600182168061122357607f821691505b60208210811415611237576112366112e6565b5b50919050565b61124682611344565b810181811067ffffffffffffffff8211171561126557611264611315565b5b80604052505050565b600061127982611188565b91507fffffffffffffffffffffffffffffffffffffffffffffffffffffffffffffffff8214156112ac576112ab6112b7565b5b600182019050919050565b7f4e487b7100000000000000000000000000000000000000000000000000000000600052601160045260246000fd5b7f4e487b7100000000000000000000000000000000000000000000000000000000600052602260045260246000fd5b7f4e487b7100000000000000000000000000000000000000000000000000000000600052604160045260246000fd5b6000601f19601f8301169050919050565b61135e81611156565b811461136957600080fd5b50565b61137581611188565b811461138057600080fd5b50565b61138c81611192565b811461139757600080fd5b5056fea264697066735822122007a3bfc2aec14bd696dbf4706639c20e4e9eea4d495a93ca841c42bd984768d564736f6c63430008040033",
  "immutableReferences": {},
  "source": "pragma solidity ^0.8.0;\n\n\n/* PERSONEL NOTES:\nEach invokation will cost Gas (measured in computational steps), the transaction\nof incrementing a candidate vote and losing right to vote (again) is\n STORAGE -> STATE VARIABLES\n MEMORY -> LOCAL VAR WITHIN function\n CALLDATA -> ONLY WITHIN PARAM \n/* We can pre-generate a proof of membership circuit in Zokrates using a Merkle Tree with all public keys as an input. A user may prove that\nhe is a member of the tree via the Merkle Root rt. \n\n/* @TODO: Merkle Tree Generator, input values into zok file\nProving membership: \nInputs => Public merkleRoot, treeDepth, Private uint[] directionNavigator, currentNode, \n\nUser Inputs into Proof Generation => Private secretKey\n\nOwner Inputs => Self generated Secret Key and Public Key, and Verification Key\nWhen contract is deployed, the state change is appended onto the blockchain. */\n/*struct MerkleTree {\n    string value;\n    MerkleTree left;\n    MerkleTree right;\n\n}*/\n\n\ncontract Election {\n    struct Candidate {\n        string name;\n        uint voteCount;\n    }\n    /* Each address in Address Space is mapped to an empty Voter struct with default values */\n    struct Voter {\n        uint value; //Default value is 0 \n        bool authorized; \n        bool voted;//Default value is false\n        bool submittedVoteKey;\n    }\n    struct VoteKey {\n        string value;\n        bool modified;\n    }\n    string public name;\n    address public owner;\n    uint public activeVoters;\n    string public currentState;\n    // Key: Address, Value: Voter \n    //i.e Map a Voter object to ALL addresses\n    mapping(address => Voter) voters;\n    mapping(address => VoteKey) voteKeys;\n\n    VoteKey[] voteKeyArray;\n    Candidate[] public candidates;\n    \n    uint public terminateElection;\n    /* Everytime the stage transitions, an announcement is made to all suscribers.\n    STATES: VOTEKEY-GENERATION => VOTE => END */\n    event AnnounceNewStage(string stage);\n    /* Everytime a vote is executed, this event is logged onto the block. Currently the voters public address is shown next to the candidate they voted\n    for, in future updates this address will be replaced by a ZKP */\n    event AnnounceVote(string candidate, address proofOfMembership);\n    /* Emit an event every time a vote tally is called. (DEBUG) */\n    event AnnounceResult(string candidate, uint tallyCount);\n    /* Create an Event each time the owner authorizes a voter */\n    event AnnounceAuth(address authorizedUser);\n    /* Called only when contract is created, contract compiler is the owner */\n    constructor(){\n        owner = msg.sender;\n    }\n    /* When a potential voter wishes to generate a proof, they required their index in the Merkle Tree aswell as the Merkle Root*/\n /*   function getMerkleInfo(string memory voteKey) public returns() {\n\n    }\n    \n    function createMerkleArray() private (bytes32[] inputLayer){\n        bytes32 leaf;\n        bytes32[] merkleArray;\n        /* For each pair of 2 elements, compute the hash and push to the merkleArray \n        for(uint i =0; i < voteKeyArray.length; i+=2){\n            leaf = sha256(voteKeyArray[i], voteKeyArray[i+1]);\n            merkleArray.push(leaf);\n        }\n    }\n    function pairHash()\n    /* Use Case (DApp)\n    When a user inputs a secret key (SK) and clicks the 'Join Vote' button,\n    the DApp hashes the secret key [VoteKey = H(SK)] locally and invokes pushVoteKey(VoteKey)*/\n    function pushVoteKey(string memory voteKey) public {\n        /* check double-vote and if votekey generation stage is active*/\n       // require(currentState == \"VOTEKEY-GENERATION\");\n        /* Make sure the voter has been authorized and that they haven't already generated a key*/\n        require(voters[msg.sender].authorized == true && voters[msg.sender].submittedVoteKey == false);\n        /* Mapping Implementation */\n        voteKeys[msg.sender].value = voteKey;\n        voteKeys[msg.sender].modified = true;\n        /* Array Implementation */\n        voteKeyArray.push(VoteKey(voteKey, true));\n        activeVoters++;\n        /* Check if our voter count exceeded or reached a power of 2*/\n        if(activeVoters >= 2) { \n          //  generateMerkleTree(); \n            }\n    }   \n    function conductElection(string memory inputName, uint8 treeDepth, string memory candidateA, string  memory candidateB) public  {\n        require(treeDepth >= 1 && treeDepth <= 33); //33 is the maximum depth of the tree allowed\n        \n        owner = msg.sender;\n        name = inputName;\n        candidates.push(Candidate(candidateA,0));\n        candidates.push(Candidate(candidateB,0));\n        currentState = \"VOTEKEY-GENERATION\";\n    }\n     /* Inputs: voteVal, Proof of Membership */\n     function submitVote(uint voteVal) public {\n         /*Verify if Voting process is active*/\n        // require(currentState == \"VOTE\");\n    \t/* Verify Voter rights and if they have voted previouslys*/\n        require(voters[msg.sender].authorized == true);\n        require(voters[msg.sender].voted == false);\n        /* Invoke the Verifier contract with Proof of Membership as input */\n            //Assign Vote Value to the voter\n            voters[msg.sender].value = voteVal;\n            //If the voter is authorized, then the vote has a state change\n            /* @TODO: Implement Additive Pailler */\n          //  candidates[voteVal].voteCount += voters[msg.sender].rights;\n            /* Emit an event on the block to notify a new vote using candidate who got the votes name and the voters proof of Membership*/\n            emit AnnounceVote(candidates[voteVal].name, msg.sender);\n            activeVoters--;\n            if(activeVoters == 0){ currentState = \"END\"; }\n        \n    } \n   // function generateMerkle() private {\n        /* We already have the H1 of each secretKey as a VoteKey \n        Now, we must take pairs and hash with eachother*/\n        //for(uint i =0; i < voteKeyArray.length; i++){\n            \n       // }\n   // } \n    /* The invoker of the Election can convert 'citizens' into 'voters' by giving the rights variable\n    / value that affects the summation in submitVote(..)*/\n    function authorize(address citizen) public {\n        require(msg.sender == owner);\n        voters[citizen].authorized = true;\n        calculateVoteWeight(citizen);\n        emit AnnounceAuth(msg.sender);\n        \n    }\n    function tallyVotes() public {\n    \t/* @TODO: Add a loop for dynamic candidates*/\n        emit AnnounceResult(candidates[0].name, candidates[0].voteCount);\n        emit AnnounceResult(candidates[1].name, candidates[1].voteCount);\n    }\n    /* Here will be the custom weight function responsible for calculating a vote weight\n    based on User financial investment or something similar */\n    function calculateVoteWeight(address citizen) private {\n        /* (TEMPORARY) HARD-CODED VALUE OF 1 */\n        voters[citizen].value = 1;\n    }\n}\n",
  "sourcePath": "/home/rayyan808/Documents/Github/Bsc Project Git/bsc-project/contracts/Election.sol",
  "compiler": {
    "name": "solc",
    "version": "0.8.4+commit.c7e474f2.Emscripten.clang"
  },
  "schemaVersion": "3.4.0",
  "updatedAt": "2021-05-24T19:46:21.624Z",
  "networkType": "ethereum",
  "devdoc": {
    "kind": "dev",
    "methods": {},
    "version": 1
  },
  "userdoc": {
    "kind": "user",
    "methods": {},
    "version": 1
  }
}