{
  "contractName": "Election",
  "abi": [
    {
      "inputs": [],
      "stateMutability": "nonpayable",
      "type": "constructor"
    },
    {
      "anonymous": false,
      "inputs": [
        {
          "indexed": false,
          "internalType": "address",
          "name": "authorizedUser",
          "type": "address"
        }
      ],
      "name": "AnnounceAuth",
      "type": "event"
    },
    {
      "anonymous": false,
      "inputs": [
        {
          "indexed": false,
          "internalType": "string",
          "name": "stage",
          "type": "string"
        }
      ],
      "name": "AnnounceNewStage",
      "type": "event"
    },
    {
      "anonymous": false,
      "inputs": [
        {
          "indexed": false,
          "internalType": "string",
          "name": "candidate",
          "type": "string"
        },
        {
          "indexed": false,
          "internalType": "uint256",
          "name": "tallyCount",
          "type": "uint256"
        }
      ],
      "name": "AnnounceResult",
      "type": "event"
    },
    {
      "anonymous": false,
      "inputs": [
        {
          "indexed": false,
          "internalType": "string",
          "name": "candidate",
          "type": "string"
        },
        {
          "indexed": false,
          "internalType": "address",
          "name": "proofOfMembership",
          "type": "address"
        }
      ],
      "name": "AnnounceVote",
      "type": "event"
    },
    {
      "anonymous": false,
      "inputs": [
        {
          "indexed": false,
          "internalType": "uint256",
          "name": "s",
          "type": "uint256"
        }
      ],
      "name": "Debug",
      "type": "event"
    },
    {
      "inputs": [],
      "name": "activeVoters",
      "outputs": [
        {
          "internalType": "uint256",
          "name": "",
          "type": "uint256"
        }
      ],
      "stateMutability": "view",
      "type": "function",
      "constant": true
    },
    {
      "inputs": [
        {
          "internalType": "uint256",
          "name": "",
          "type": "uint256"
        }
      ],
      "name": "candidates",
      "outputs": [
        {
          "internalType": "string",
          "name": "name",
          "type": "string"
        },
        {
          "internalType": "uint256",
          "name": "voteCount",
          "type": "uint256"
        }
      ],
      "stateMutability": "view",
      "type": "function",
      "constant": true
    },
    {
      "inputs": [],
      "name": "currentState",
      "outputs": [
        {
          "internalType": "string",
          "name": "",
          "type": "string"
        }
      ],
      "stateMutability": "view",
      "type": "function",
      "constant": true
    },
    {
      "inputs": [
        {
          "internalType": "uint256",
          "name": "",
          "type": "uint256"
        }
      ],
      "name": "merkleArray",
      "outputs": [
        {
          "internalType": "uint256",
          "name": "",
          "type": "uint256"
        }
      ],
      "stateMutability": "view",
      "type": "function",
      "constant": true
    },
    {
      "inputs": [],
      "name": "merkleRoot",
      "outputs": [
        {
          "internalType": "uint256",
          "name": "",
          "type": "uint256"
        }
      ],
      "stateMutability": "view",
      "type": "function",
      "constant": true
    },
    {
      "inputs": [],
      "name": "name",
      "outputs": [
        {
          "internalType": "string",
          "name": "",
          "type": "string"
        }
      ],
      "stateMutability": "view",
      "type": "function",
      "constant": true
    },
    {
      "inputs": [],
      "name": "owner",
      "outputs": [
        {
          "internalType": "address",
          "name": "",
          "type": "address"
        }
      ],
      "stateMutability": "view",
      "type": "function",
      "constant": true
    },
    {
      "inputs": [],
      "name": "terminateElection",
      "outputs": [
        {
          "internalType": "uint256",
          "name": "",
          "type": "uint256"
        }
      ],
      "stateMutability": "view",
      "type": "function",
      "constant": true
    },
    {
      "inputs": [
        {
          "internalType": "string",
          "name": "str",
          "type": "string"
        }
      ],
      "name": "pushVoteKey",
      "outputs": [],
      "stateMutability": "nonpayable",
      "type": "function"
    },
    {
      "inputs": [
        {
          "internalType": "string",
          "name": "inputName",
          "type": "string"
        },
        {
          "internalType": "uint8",
          "name": "treeDepth",
          "type": "uint8"
        },
        {
          "internalType": "string",
          "name": "candidateA",
          "type": "string"
        },
        {
          "internalType": "string",
          "name": "candidateB",
          "type": "string"
        }
      ],
      "name": "conductElection",
      "outputs": [],
      "stateMutability": "nonpayable",
      "type": "function"
    },
    {
      "inputs": [
        {
          "internalType": "uint256",
          "name": "voteVal",
          "type": "uint256"
        }
      ],
      "name": "submitVote",
      "outputs": [],
      "stateMutability": "nonpayable",
      "type": "function"
    },
    {
      "inputs": [
        {
          "internalType": "uint256",
          "name": "voteKey",
          "type": "uint256"
        }
      ],
      "name": "getMerkleInfo",
      "outputs": [
        {
          "internalType": "uint256",
          "name": "",
          "type": "uint256"
        },
        {
          "internalType": "uint256",
          "name": "",
          "type": "uint256"
        },
        {
          "internalType": "uint256[]",
          "name": "",
          "type": "uint256[]"
        }
      ],
      "stateMutability": "view",
      "type": "function",
      "constant": true
    },
    {
      "inputs": [
        {
          "internalType": "address",
          "name": "citizen",
          "type": "address"
        }
      ],
      "name": "authorize",
      "outputs": [],
      "stateMutability": "nonpayable",
      "type": "function"
    },
    {
      "inputs": [],
      "name": "tallyVotes",
      "outputs": [],
      "stateMutability": "nonpayable",
      "type": "function"
    },
    {
      "inputs": [
        {
          "internalType": "uint256[]",
          "name": "alpha",
          "type": "uint256[]"
        }
      ],
      "name": "testHash",
      "outputs": [
        {
          "internalType": "uint256",
          "name": "",
          "type": "uint256"
        }
      ],
      "stateMutability": "pure",
      "type": "function",
      "constant": true
    }
  ],
  "bytecode": "0x608060405234801561001057600080fd5b5033600160006101000a81548173ffffffffffffffffffffffffffffffffffffffff021916908373ffffffffffffffffffffffffffffffffffffffff160217905550613393806100616000396000f3fe608060405234801561001057600080fd5b50600436106100f55760003560e01c8063378a217811610097578063b6a5d7de11610066578063b6a5d7de14610265578063bb314cd814610281578063e4e1eaa81461029f578063eeb64a50146102cf576100f5565b8063378a2178146101ed5780635d308fb8146101f75780638da5cb5b14610229578063b4f3b1ca14610247576100f5565b8063218bfb50116100d3578063218bfb50146101525780632844328f146101825780632eb4a7ab1461019e5780633477ee2e146101bc576100f5565b806306fdde03146100fa5780630990248b146101185780630c3f6acf14610134575b600080fd5b6101026102eb565b60405161010f9190612d8b565b60405180910390f35b610132600480360381019061012d9190612aff565b610379565b005b61013c6104fe565b6040516101499190612d8b565b60405180910390f35b61016c60048036038101906101679190612abe565b61058c565b6040516101799190612e5f565b60405180910390f35b61019c60048036038101906101979190612beb565b6105a3565b005b6101a66107a0565b6040516101b39190612e5f565b60405180910390f35b6101d660048036038101906101d19190612beb565b6107a6565b6040516101e4929190612dad565b60405180910390f35b6101f5610862565b005b610211600480360381019061020c9190612beb565b610a04565b60405161022093929190612e7a565b60405180910390f35b610231610afc565b60405161023e9190612d70565b60405180910390f35b61024f610b22565b60405161025c9190612e5f565b60405180910390f35b61027f600480360381019061027a9190612a95565b610b28565b005b610289610c20565b6040516102969190612e5f565b60405180910390f35b6102b960048036038101906102b49190612beb565b610c26565b6040516102c69190612e5f565b60405180910390f35b6102e960048036038101906102e49190612b40565b610c4a565b005b600080546102f89061316e565b80601f01602080910402602001604051908101604052809291908181526020018280546103249061316e565b80156103715780601f1061034657610100808354040283529160200191610371565b820191906000526020600020905b81548152906001019060200180831161035457829003601f168201915b505050505081565b600061038482610e21565b905080600560003373ffffffffffffffffffffffffffffffffffffffff1673ffffffffffffffffffffffffffffffffffffffff168152602001908152602001600020600001819055506001600560003373ffffffffffffffffffffffffffffffffffffffff1673ffffffffffffffffffffffffffffffffffffffff16815260200190815260200160002060010160006101000a81548160ff021916908315150217905550600660405180604001604052808381526020016001151581525090806001815401808255809150506001900390600052602060002090600202016000909190919091506000820151816000015560208201518160010160006101000a81548160ff0219169083151502179055505050600260008154809291906104aa906131d1565b9190505550600460025414156104c3576104c2610ee1565b5b7f8a36f5a234186d446e36a7df36ace663a05a580d9bea2dd899c6dd76a075d5fa816040516104f29190612e5f565b60405180910390a15050565b6003805461050b9061316e565b80601f01602080910402602001604051908101604052809291908181526020018280546105379061316e565b80156105845780601f1061055957610100808354040283529160200191610584565b820191906000526020600020905b81548152906001019060200180831161056757829003601f168201915b505050505081565b600080610598836112f1565b905080915050919050565b60011515600460003373ffffffffffffffffffffffffffffffffffffffff1673ffffffffffffffffffffffffffffffffffffffff16815260200190815260200160002060010160009054906101000a900460ff1615151461060357600080fd5b60001515600460003373ffffffffffffffffffffffffffffffffffffffff1673ffffffffffffffffffffffffffffffffffffffff16815260200190815260200160002060010160019054906101000a900460ff1615151461066357600080fd5b80600460003373ffffffffffffffffffffffffffffffffffffffff1673ffffffffffffffffffffffffffffffffffffffff168152602001908152602001600020600001819055507f8c4bbf432c3f9c3348d45700f436aa13af99743d19b100361cbcf36e76e4432960088281548110610705577f4e487b7100000000000000000000000000000000000000000000000000000000600052603260045260246000fd5b906000526020600020906002020160000133604051610725929190612dff565b60405180910390a16002600081548092919061074090613144565b91905055506000600254141561079d576040518060400160405280600381526020017f454e4400000000000000000000000000000000000000000000000000000000008152506003908051906020019061079b9291906128b5565b505b50565b60095481565b600881815481106107b657600080fd5b90600052602060002090600202016000915090508060000180546107d99061316e565b80601f01602080910402602001604051908101604052809291908181526020018280546108059061316e565b80156108525780601f1061082757610100808354040283529160200191610852565b820191906000526020600020905b81548152906001019060200180831161083557829003601f168201915b5050505050908060010154905082565b7f6d43044591c22cc3b0e95b89225a964dd6dafbcbb30d4db3f5662e6280fc043960086000815481106108be577f4e487b7100000000000000000000000000000000000000000000000000000000600052603260045260246000fd5b9060005260206000209060020201600001600860008154811061090a577f4e487b7100000000000000000000000000000000000000000000000000000000600052603260045260246000fd5b90600052602060002090600202016001015460405161092a929190612e2f565b60405180910390a17f6d43044591c22cc3b0e95b89225a964dd6dafbcbb30d4db3f5662e6280fc0439600860018154811061098e577f4e487b7100000000000000000000000000000000000000000000000000000000600052603260045260246000fd5b906000526020600020906002020160000160086001815481106109da577f4e487b7100000000000000000000000000000000000000000000000000000000600052603260045260246000fd5b9060005260206000209060020201600101546040516109fa929190612e2f565b60405180910390a1565b60008060606000610539905060005b600780549050811015610a835760078181548110610a5a577f4e487b7100000000000000000000000000000000000000000000000000000000600052603260045260246000fd5b9060005260206000200154861415610a70578091505b8080610a7b906131d1565b915050610a13565b50610539811415610a9357600080fd5b80600780549050600780805480602002602001604051908101604052809291908181526020018280548015610ae757602002820191906000526020600020905b815481526020019060010190808311610ad3575b50505050509050935093509350509193909250565b600160009054906101000a900473ffffffffffffffffffffffffffffffffffffffff1681565b600a5481565b600160009054906101000a900473ffffffffffffffffffffffffffffffffffffffff1673ffffffffffffffffffffffffffffffffffffffff163373ffffffffffffffffffffffffffffffffffffffff1614610b8257600080fd5b6001600460008373ffffffffffffffffffffffffffffffffffffffff1673ffffffffffffffffffffffffffffffffffffffff16815260200190815260200160002060010160006101000a81548160ff021916908315150217905550610be6816113f4565b7f081ba50acbad95aaf2f3d6ae236a307baad3be11e7c84f2b4a043cfc114ebe3133604051610c159190612d70565b60405180910390a150565b60025481565b60078181548110610c3657600080fd5b906000526020600020016000915090505481565b60018360ff1610158015610c62575060218360ff1611155b610c6b57600080fd5b33600160006101000a81548173ffffffffffffffffffffffffffffffffffffffff021916908373ffffffffffffffffffffffffffffffffffffffff1602179055508360009080519060200190610cc29291906128b5565b5060086040518060400160405280848152602001600081525090806001815401808255809150506001900390600052602060002090600202016000909190919091506000820151816000019080519060200190610d209291906128b5565b5060208201518160010155505060086040518060400160405280838152602001600081525090806001815401808255809150506001900390600052602060002090600202016000909190919091506000820151816000019080519060200190610d8a9291906128b5565b506020820151816001015550506040518060400160405280601281526020017f564f54454b45592d47454e45524154494f4e000000000000000000000000000081525060039080519060200190610de29291906128b5565b507fb712ca18858a18cb63ef75fe8c737e3ad52062d7389284fd4ecb4524da24e0906003604051610e139190612ddd565b60405180910390a150505050565b6000808290506000809250600090505b8151811015610eda576000828281518110610e75577f4e487b7100000000000000000000000000000000000000000000000000000000600052603260045260246000fd5b602001015160f81c60f81b60f81c60ff16905060308110158015610e9a575060398111155b15610ec657603081610eac9190613085565b600a85610eb9919061302b565b610ec39190612fa4565b93505b508080610ed2906131d1565b915050610e31565b5050919050565b60026006805490501015610f1e577f4e487b7100000000000000000000000000000000000000000000000000000000600052600160045260246000fd5b60006001905060005b6006805490508211610f5d57600680549050821415610f495760019050610f5d565b600282610f56919061302b565b9150610f27565b5b6006805490508214158015610f77575060001515811515145b15611000576006604051806040016040528061053981526020016001151581525090806001815401808255809150506001900390600052602060002090600202016000909190919091506000820151816000015560208201518160010160006101000a81548160ff02191690831515021790555050508180610ff890613144565b925050610f5e565b60005b6006805490508110156110975760076006828154811061104c577f4e487b7100000000000000000000000000000000000000000000000000000000600052603260045260246000fd5b9060005260206000209060020201600001549080600181540180825580915050600190039060005260206000200160009091909190915055808061108f906131d1565b915050611003565b5060008060068054905090505b60008111156112675760005b6001826110bd9190613085565b811015611244576060600782856110d49190612fa4565b8154811061110b577f4e487b7100000000000000000000000000000000000000000000000000000000600052603260045260246000fd5b906000526020600020015481600081518110611150577f4e487b7100000000000000000000000000000000000000000000000000000000600052603260045260246000fd5b60200260200101818152505060076001838661116c9190612fa4565b6111769190612fa4565b815481106111ad577f4e487b7100000000000000000000000000000000000000000000000000000000600052603260045260246000fd5b9060005260206000200154816001815181106111f2577f4e487b7100000000000000000000000000000000000000000000000000000000600052603260045260246000fd5b6020026020010181815250506007611209826112f1565b90806001815401808255809150506001900390600052602060002001600090919091909150555060028161123d9190612fa4565b90506110b0565b5080826112519190612fa4565b91506002816112609190612ffa565b90506110a4565b6040518060400160405280600b81526020017f564f54494e472d4f50454e000000000000000000000000000000000000000000815250600390805190602001906112b29291906128b5565b507fb712ca18858a18cb63ef75fe8c737e3ad52062d7389284fd4ecb4524da24e09060036040516112e39190612ddd565b60405180910390a150505050565b6000806000905060007f30644e72e131a029b85045b68181585d2833e84879b9709143e1f593f0000001905060005b84518110156113e95781611374868381518110611366577f4e487b7100000000000000000000000000000000000000000000000000000000600052603260045260246000fd5b60200260200101518561143f565b8683815181106113ad577f4e487b7100000000000000000000000000000000000000000000000000000000600052603260045260246000fd5b6020026020010151856113c09190612fa4565b6113ca9190612fa4565b6113d4919061321a565b925080806113e1906131d1565b915050611320565b508192505050919050565b6001600460008373ffffffffffffffffffffffffffffffffffffffff1673ffffffffffffffffffffffffffffffffffffffff1681526020019081526020016000206000018190555050565b60007f30644e72e131a029b85045b68181585d2833e84879b9709143e1f593f0000001600080847f2e2ebbb178296b63d88ec198f0976ad98bc1d4eb0d921ddd2eb86cb7e70a98e58701019150828283099050828284858485098409099550847f21bfc154b5b071d22d06105663553801f858c1f231020b4c291a729d6281d3498701019150828283099050828284858485098409099550847f126cfa352b0e2701442b36e0c2fc88287cfd3bfecce842afc0e3e78d8edb4ad88701019150828283099050828284858485098409099550847f0309d7067ab65de1a99fe23f458d0bc3f18c59b6642ef48afc679ef17cb6928c8701019150828283099050828284858485098409099550847f194c4693409966960be88513cfe32987c125f71398a782e44973fb8af4798bd88701019150828283099050828284858485098409099550847f05a849684bc58cc0d6e9f319b4dae26db171733bf60f31d978e41d09a75a63198701019150828283099050828284858485098409099550847f18bd4dae5134538bd2f90d41bbb1e330b2a8286ba4a09aca3fbbdcf932534be58701019150828283099050828284858485098409099550847f0736c60cd39fd1649d4845b4f9a6ec9baca89fb2de0a3d7eeabe43504b5607fa8701019150828283099050828284858485098409099550847f25a6971a9d2c1de9f374378d8f61492b1bd3c46584c076a76c43c3cd1a7475128701019150828283099050828284858485098409099550847f0a3373d15fa6dce221f83226c02d41f8aea5cfc6da4c9f4981ada1bd4b50f56e8701019150828283099050828284858485098409099550847f2b70028e2bf4e008e22eddb78d4190d73c289dc6445b3f64e15f8bd0ec02c6728701019150828283099050828284858485098409099550847f0b24ef461a71eed93dd366342f9ca4eebb749c8a5a6057c801d538c7c0666ba48701019150828283099050828284858485098409099550847f05d1e0ac576d1ec814b621516339ae1a291c7df36b5fd6cf0b4e3c9cd25e30728701019150828283099050828284858485098409099550847f271cfbf88e9744b8596e7e2d6875c8005d0e62014010ac35e95a7ce2390bc50f8701019150828283099050828284858485098409099550847f196309f1d170d741ab1ce90c39772017fb7cdec78c37882b98a6b56956c13def8701019150828283099050828284858485098409099550847f127c1116c575c03c7f6d83417d8c1b3808f92ee16924a54094bf094721e9e4f58701019150828283099050828284858485098409099550847f1bff78047ee67d38a54fdc540f9a2ba07f63489acd36425f1ae210ac329826f58701019150828283099050828284858485098409099550847f06c7dc7bbae615fcf1896f2b8db7d92c05dc1ea1c8134e9db6fd588672c53e9a8701019150828283099050828284858485098409099550847f12df78cba175ef76dbfcc9c785926bb3949a87ec7533e2559a27a64b91cebba58701019150828283099050828284858485098409099550847f2bd4cdc962e3da62cb3c96f7c428a9b0d518bfa7ce26f8fce7a6af769afb65408701019150828283099050828284858485098409099550847f24edd3847febbe44c4cc390246e3379b47fd01a030d0cd0b4fcf7fbd1cabfe588701019150828283099050828284858485098409099550847f1ce065d2c2561bb573e4cf4259d3b0b0e9eacb447751c62b77d0bc5e4e3c7d158701019150828283099050828284858485098409099550847f18053e9f0d45f9eefbda135bfd39329e34837e633565c314fb9030b9db7381bb8701019150828283099050828284858485098409099550847f162ffa8742138bbe516168bf86ec78b1ad1e8b535ac455a7cfbb22c13f9c5a9e8701019150828283099050828284858485098409099550847f079eea42e16ac6442ca82623fc0e8d9ad3996a47a8013ea9cb73858ca42b71598701019150828283099050828284858485098409099550847f0a49af2bbe11b05bd02a69a47b1bad5b2170407ada21142f06e4e109de88a1b68701019150828283099050828284858485098409099550847f12c34eebbaa69cccc36929e8f4a6e40771e153ff77943da55c4fc860537b733a8701019150828283099050828284858485098409099550847e8de5ac6b4e359335b6fce58dc0e5e43fd2aefd86bac35abe579b8cace5dbc88701019150828283099050828284858485098409099550847f04a6e988b50d915734bf3296d83057ffe6a550f8987e4597bee7d333cd24a8658701019150828283099050828284858485098409099550847f24112633926cfc6028fa2ffd9f090b1e5428a0a87d7118356e48b5d4704492178701019150828283099050828284858485098409099550847f0d56329982f3df38a3f19fb814c3013f419ba0eb8403b27c0c0e75c6fe1cf4688701019150828283099050828284858485098409099550847f1f01ef80763c95f53c434164493d9673aeef290bf1aa1997d677b557b9692e8a8701019150828283099050828284858485098409099550847f105c5257f801527e60b0361c00075b5a79d2dc6821d8a1258d906ed453c7e7be8701019150828283099050828284858485098409099550847f03db505a0c32cb61ca099389c2180e1c83827fb41d9fed84d88766df44c630798701019150828283099050828284858485098409099550847f1262e738f38db6c79d24d9727294421cd95afa24f4700c1323ab83c3a06ace328701019150828283099050828284858485098409099550847f0ee68c3e38c194033994c0d4d7bde35bfafa35b22a95f915f82c5a3b0422bd9a8701019150828283099050828284858485098409099550847f2ee5427bd20c47f8d2f0aa9e6419f7926abcd5965084292ae54dd780077e69028701019150828283099050828284858485098409099550847f1e542d31d2a381792e0a9241c46229a22fd9382443e423a0e419d0feb58656af8701019150828283099050828284858485098409099550847f0ba39f01462ab6a7cf621952752fcde48677d7f32df47e940eacf4954c5ef6328701019150828283099050828284858485098409099550847f29c00b058c17800146bdc06b1e73ff5d0ff53df96f8463818c0572d11fcaf88b8701019150828283099050828284858485098409099550847f0b6200895b60a6c6794fcf1c2b1b15d03a713c905a8ba1f1315f7501fe1a50b88701019150828283099050828284858485098409099550847f2bc639b1b85d731f62d2c6f391d4498e392cb75edcbd5c4c0fa8b26d32d68a128701019150828283099050828284858485098409099550847f2a89f38e6440ce641127046b67d8e615f14503d72d76bf3c703a01d1463a84458701019150828283099050828284858485098409099550847f1750ede7eeeb4edd7838b67fac6d250a54055eeead10e69b3a6e1f076ca878688701019150828283099050828284858485098409099550847f0c2d65084bead2a743115be5329d5458d29802081f6f9dac4165c42651f9be2b8701019150828283099050828284858485098409099550847f28303e2d834e16e1fe33c9ab726a3e75dd0dad9bfea1a43267199e1f243993fb8701019150828283099050828284858485098409099550847f2b572811ca34ea5110d10772e4ced362ebefd7cd1e1884b769e9435914efc5e58701019150828283099050828284858485098409099550847f17521ca5799fe2ea82c67c0a8d0863b5eec0ef9b703e195dd402b7008b53f6b48701019150828283099050828284858485098409099550847f0407e54b96a5b63c609fa3797b223c73d260a365ad58b25891a5660272096bd58701019150828283099050828284858485098409099550847f1a3cd155b03c7d33cc8222c997424bc14069e2edbf4b8aa564c9e5832bdace918701019150828283099050828284858485098409099550847f296255b5e697e517c502ba49b18aaad89514a490a02e7a878b5d559841b93fbd8701019150828283099050828284858485098409099550847f174835801a1f1525b4c21853b965c5048af465e9f79de9d16748c67953da79a78701019150828283099050828284858485098409099550847f2d4afed7a708e5972e84d766292f2c841c5d8570961074d59ad3f51e9369a5978701019150828283099050828284858485098409099550847f1c0eb06744c9866e271cd29a7f17f72964faba3cd088b95e73dcce9d92c79ba68701019150828283099050828284858485098409099550847f26705e7e4f23a7d786ad1786b353a2f8b82269c7b58ab70d7b93f41685d34d458701019150828283099050828284858485098409099550847f04e674d88b90b1188353106ae25c0447acace9dc6d62cfe7fec2d7993dfd7a228701019150828283099050828284858485098409099550847f0df3335da13ff46f65095f975d157886241aeccff38fd9bba92644f8969d7e098701019150828283099050828284858485098409099550847f2dfff62b9282ec05b1fa44479a6e9debe9ac631813d2b10e44b9e0fe19e4d4ee8701019150828283099050828284858485098409099550847f08ece248fe1ce1cd705699b5cd07c990ec27721bab59b657bb138e487ee6694d8701019150828283099050828284858485098409099550847f2c1ab81db607ba76dbf71f48752c856bf183044981c3b6d1fd31b179a078f5718701019150828283099050828284858485098409099550847f01de6f8886868e351bf4caad293bd86ed29ef63810e15cb809542e01bfbbcb888701019150828283099050828284858485098409099550847f23dd8b576fa286331864d63c77fd82fa61da717533821b9382617ebd54abeb468701019150828283099050828284858485098409099550847f169f2c8e515b2cee8d183991c3712736001a7f92fb34c3e3f532dec373aacbfb8701019150828283099050828284858485098409099550847f0ecf89b898e2deca99ae5108d271f1fa92e5018c1ac899d554dc1dfa35ceb0a08701019150828283099050828284858485098409099550847f0dc0d6e76afba377dd693ed4c47a4f9fee7a88d1df5df62fd06f2f87b81de1c88701019150828283099050828284858485098409099550847f0d8d08571539c68a37dad2a6638291d323948e57a0189a7be2ec14d89308bb6d8701019150828283099050828284858485098409099550847f17d170e737533e922c934f79bad3c28f85ef14b21c7354000298cee876977a448701019150828283099050828284858485098409099550847f09ed630d4088d7acaa34064515c1cb368ed405c4ded26df38652d290b26f6aff8701019150828283099050828284858485098409099550847f2b5381943dd4c43bd059a4747b72fc116f099c46004dc811ddb440f7ee69701e8701019150828283099050828284858485098409099550847f01da34e987e965c368ec0252e97db8bfb78668db369cdf6c70f7e02b5bd52b3b8701019150828283099050828284858485098409099550847f1a18c896f124cd4821fbe08ac680b78362c15344619cef072874f43799b89f238701019150828283099050828284858485098409099550847f168dbaf0eae2cfe96f6b340bfd4922c1c41317bfff69613b81d9722e34059f208701019150828283099050828284858485098409099550847f1dfd587726ec442565eb47fc0234740634b6562d1b60192947140b8670aa40148701019150828283099050828284858485098409099550847f147a904bcd17a3f66ebd75b2c1279507001e602842a047929fd119d31edf39248701019150828283099050828284858485098409099550847e621164e8b17a476172ee2aabd9a1a67ecc05f926bec5bbaceb7524616e11668701019150828283099050828284858485098409099550847f280fcce91f920b6487ee3e6a838abbc1f7eb44e4853b22d067a56f5e908499b98701019150828283099050828284858485098409099550847f2d49d03ab6b741495e4d7cbe87ea6cf0f06aea86f528d13d57f6a05e4c868d0b8701019150828283099050828284858485098409099550847f2a59b6e410852d96661479179081af38f478b7603eb3e4f231f99633d826cde98701019150828283099050828284858485098409099550847f1a7783fa9ff7b36d38aeb75e65cfc88260b70d4600b51ab5745e5fe1dc35d9b18701019150828283099050828284858485098409099550847f286d1e7e039fa286d1bd8fe69e175ecad61693cc1f55044847191bae2ff344b28701019150828283099050828284858485098409099550847f0fa108dbe8e14e8c53093f9aaf1f989dabb3dc026ffecb049d3d6b4b2c9b80778701019150828283099050828284858485098409099550847f0e4b25635fa58150829c3e832c4361bfa7edfdf40b0514c00dd3a7338131f1938701019150828283099050828284858485098409099550847f23b0ea71b8bbd3cb62b741e525f5c8b35cbfed820aaf1234d03a4655cdf710398701019150828283099050828284858485098409099550847f2aced572dbfd2664569030fcf391019702f79cbfbe380714894fbfc785dad03f8701019150828283099050828284858485098409099550847f03c36b340d12daf2422febd15a4521f351459057c2affd6816c67fa38b3cc34d8701019150828283099050828284858485098409099550847f17d64c030f29369c09ffd529c7532b84228e69ef6dd9d9dab603ba86cb9254e78701019150828283099050828284858485098409099550847f095050333e4136e4c73b4101ab008bf625a73c51afd5e77f99c606ca7ace63d78701019150828283099050828284858485098409099550847f10ca0fd2a95bc198763d375f566182463e0c92ea122df6485f1c4e5a9769b32c8701019150828283099050828284858485098409099550847f29f63c935efe224e235d5b49b88578a97b25c739a342d4a0d908b98ef757db618701019150828283099050828284858485098409099550847f1e1289b8eff2d431b178bc957cc0c41a1d7237057b9256fd090eb3c6366b9ef58701019150828283099050828284858485098409099550847f1ed8ee02730ece601f15be81e7d27250c4a4d4c04e7a2f3f4e79b931fd9ffac9870101915082828309905082828485848509840909955082858708935050505092915050565b8280546128c19061316e565b90600052602060002090601f0160209004810192826128e3576000855561292a565b82601f106128fc57805160ff191683800117855561292a565b8280016001018555821561292a579182015b8281111561292957825182559160200191906001019061290e565b5b509050612937919061293b565b5090565b5b8082111561295457600081600090555060010161293c565b5090565b600061296b61296684612edd565b612eb8565b9050808382526020820190508285602086028201111561298a57600080fd5b60005b858110156129ba57816129a08882612a6b565b84526020840193506020830192505060018101905061298d565b5050509392505050565b60006129d76129d284612f09565b612eb8565b9050828152602081018484840111156129ef57600080fd5b6129fa848285613102565b509392505050565b600081359050612a1181613318565b92915050565b600082601f830112612a2857600080fd5b8135612a38848260208601612958565b91505092915050565b600082601f830112612a5257600080fd5b8135612a628482602086016129c4565b91505092915050565b600081359050612a7a8161332f565b92915050565b600081359050612a8f81613346565b92915050565b600060208284031215612aa757600080fd5b6000612ab584828501612a02565b91505092915050565b600060208284031215612ad057600080fd5b600082013567ffffffffffffffff811115612aea57600080fd5b612af684828501612a17565b91505092915050565b600060208284031215612b1157600080fd5b600082013567ffffffffffffffff811115612b2b57600080fd5b612b3784828501612a41565b91505092915050565b60008060008060808587031215612b5657600080fd5b600085013567ffffffffffffffff811115612b7057600080fd5b612b7c87828801612a41565b9450506020612b8d87828801612a80565b935050604085013567ffffffffffffffff811115612baa57600080fd5b612bb687828801612a41565b925050606085013567ffffffffffffffff811115612bd357600080fd5b612bdf87828801612a41565b91505092959194509250565b600060208284031215612bfd57600080fd5b6000612c0b84828501612a6b565b91505092915050565b6000612c208383612d52565b60208301905092915050565b612c35816130b9565b82525050565b6000612c4682612f5f565b612c508185612f82565b9350612c5b83612f3a565b8060005b83811015612c8c578151612c738882612c14565b9750612c7e83612f75565b925050600181019050612c5f565b5085935050505092915050565b6000612ca482612f6a565b612cae8185612f93565b9350612cbe818560208601613111565b612cc781613307565b840191505092915050565b60008154612cdf8161316e565b612ce98186612f93565b94506001821660008114612d045760018114612d1657612d49565b60ff1983168652602086019350612d49565b612d1f85612f4a565b60005b83811015612d4157815481890152600182019150602081019050612d22565b808801955050505b50505092915050565b612d5b816130eb565b82525050565b612d6a816130eb565b82525050565b6000602082019050612d856000830184612c2c565b92915050565b60006020820190508181036000830152612da58184612c99565b905092915050565b60006040820190508181036000830152612dc78185612c99565b9050612dd66020830184612d61565b9392505050565b60006020820190508181036000830152612df78184612cd2565b905092915050565b60006040820190508181036000830152612e198185612cd2565b9050612e286020830184612c2c565b9392505050565b60006040820190508181036000830152612e498185612cd2565b9050612e586020830184612d61565b9392505050565b6000602082019050612e746000830184612d61565b92915050565b6000606082019050612e8f6000830186612d61565b612e9c6020830185612d61565b8181036040830152612eae8184612c3b565b9050949350505050565b6000612ec2612ed3565b9050612ece82826131a0565b919050565b6000604051905090565b600067ffffffffffffffff821115612ef857612ef76132d8565b5b602082029050602081019050919050565b600067ffffffffffffffff821115612f2457612f236132d8565b5b612f2d82613307565b9050602081019050919050565b6000819050602082019050919050565b60008190508160005260206000209050919050565b600081519050919050565b600081519050919050565b6000602082019050919050565b600082825260208201905092915050565b600082825260208201905092915050565b6000612faf826130eb565b9150612fba836130eb565b9250827fffffffffffffffffffffffffffffffffffffffffffffffffffffffffffffffff03821115612fef57612fee61324b565b5b828201905092915050565b6000613005826130eb565b9150613010836130eb565b9250826130205761301f61327a565b5b828204905092915050565b6000613036826130eb565b9150613041836130eb565b9250817fffffffffffffffffffffffffffffffffffffffffffffffffffffffffffffffff048311821515161561307a5761307961324b565b5b828202905092915050565b6000613090826130eb565b915061309b836130eb565b9250828210156130ae576130ad61324b565b5b828203905092915050565b60006130c4826130cb565b9050919050565b600073ffffffffffffffffffffffffffffffffffffffff82169050919050565b6000819050919050565b600060ff82169050919050565b82818337600083830152505050565b60005b8381101561312f578082015181840152602081019050613114565b8381111561313e576000848401525b50505050565b600061314f826130eb565b915060008214156131635761316261324b565b5b600182039050919050565b6000600282049050600182168061318657607f821691505b6020821081141561319a576131996132a9565b5b50919050565b6131a982613307565b810181811067ffffffffffffffff821117156131c8576131c76132d8565b5b80604052505050565b60006131dc826130eb565b91507fffffffffffffffffffffffffffffffffffffffffffffffffffffffffffffffff82141561320f5761320e61324b565b5b600182019050919050565b6000613225826130eb565b9150613230836130eb565b9250826132405761323f61327a565b5b828206905092915050565b7f4e487b7100000000000000000000000000000000000000000000000000000000600052601160045260246000fd5b7f4e487b7100000000000000000000000000000000000000000000000000000000600052601260045260246000fd5b7f4e487b7100000000000000000000000000000000000000000000000000000000600052602260045260246000fd5b7f4e487b7100000000000000000000000000000000000000000000000000000000600052604160045260246000fd5b6000601f19601f8301169050919050565b613321816130b9565b811461332c57600080fd5b50565b613338816130eb565b811461334357600080fd5b50565b61334f816130f5565b811461335a57600080fd5b5056fea2646970667358221220c9d6c299ae2c650c22ba280753daf258d773a510917736d31084bda34d1c100164736f6c63430008040033",
  "immutableReferences": {},
  "source": "pragma solidity ^0.8.0;\n\nimport \"./MiMC.sol\";\n/* PERSONEL NOTES:\nEach invokation will cost Gas (measured in computational steps), the transaction\nof incrementing a candidate vote and losing right to vote (again) is\n STORAGE -> STATE VARIABLES\n MEMORY -> LOCAL VAR WITHIN function\n CALLDATA -> ONLY WITHIN PARAM \n/* We can pre-generate a proof of membership circuit in Zokrates using a Merkle Tree with all public keys as an input. A user may prove that\nhe is a member of the tree via the Merkle Root rt. \n\n/* @TODO: Merkle Tree Generator, input values into zok file\nProving membership: \nInputs => Public merkleRoot, treeDepth, Private uint[] directionNavigator, currentNode, \n\nUser Inputs into Proof Generation => Private secretKey\n\nOwner Inputs => Self generated Secret Key and Public Key, and Verification Key\nWhen contract is deployed, the state change is appended onto the blockchain. */\n/*struct MerkleTree {\n    string value;\n    MerkleTree left;\n    MerkleTree right;\n\n}*/\n\n\ncontract Election {\n    struct Candidate {\n        string name;\n        uint voteCount;\n    }\n    /* Each address in Address Space is mapped to an empty Voter struct with default values */\n    struct Voter {\n        uint value; //Default value is 0 \n        bool authorized; \n        bool voted;//Default value is false\n        bool submittedVoteKey;\n    }\n    struct VoteKey {\n        uint256 value;\n        bool modified;\n    }\n    string public name;\n    address public owner;\n    uint public activeVoters;\n    string public currentState;\n    // Key: Address, Value: Voter \n    //i.e Map a Voter object to ALL addresses\n    mapping(address => Voter) voters;\n    mapping(address => VoteKey) voteKeys;\n\n    VoteKey[] internal voteKeyArray;\n    uint256[]  public  merkleArray;\n    Candidate[] public candidates;\n    \n    uint256 public merkleRoot;\n\n    uint public terminateElection;\n    /* Everytime the stage transitions, an announcement is made to all suscribers.\n    STATES: VOTEKEY-GENERATION => VOTE => END */\n    event AnnounceNewStage(string stage);\n    /* Everytime a vote is executed, this event is logged onto the block. Currently the voters public address is shown next to the candidate they voted\n    for, in future updates this address will be replaced by a ZKP */\n    event AnnounceVote(string candidate, address proofOfMembership);\n    /* Emit an event every time a vote tally is called. (DEBUG) */\n    event AnnounceResult(string candidate, uint tallyCount);\n    /* Create an Event each time the owner authorizes a voter */\n    event AnnounceAuth(address authorizedUser);\n    event Debug(uint256 s);\n    /* Called only when contract is created, contract compiler is the owner */\n    constructor(){\n        owner = msg.sender;\n    }\n    /* When a potential voter wishes to generate a proof, they required their index in the Merkle Tree aswell as the Merkle Root*/\n /*   function getMerkleInfo(string memory voteKey) public returns() {\n\n    } */\n    /* Once the VOTEKEY-GENERATION period has expired, this function is called to produce a Merkle Tree.\n    There should be a Nth power of 2 length of valid vote keys, if such a case does not exist dummy values are pumped. */\n    function createMerkleArray() private {\n        /* Guarantee that a valid merkle tree can be constructed with the given nodes*/\n        assert(voteKeyArray.length >= 2);\n        uint pow = 1; bool isPowerOf2 = false;\n        /* Find the power of 2 closest or equal to the length, if equal do nothing */\n        while(pow <= voteKeyArray.length){ if(pow == voteKeyArray.length) { isPowerOf2 = true; break; } else { pow = pow *2; } }\n        /* If index isn't a power of two, we pump it with static public vote keys */\n        while(pow != voteKeyArray.length && isPowerOf2 == false){ voteKeyArray.push((VoteKey(1337, true))); pow--; }\n        /* For each voteKey struct present, transfer the hashed value into the Merkle Array */\n        for(uint i =0; i < voteKeyArray.length; i++){\n            //leaf = MiMC.MiMC_Hash([voteKeyArray[i],voteKeyArray[i+1]]);\n            merkleArray.push(voteKeyArray[i].value);\n        }\n        uint nodeCount=0;\n        uint n = voteKeyArray.length;\n        /* While there are still nodes to traverse*/\n          while (n > 0) {\n            /* Each iteration covers one layer of the tree. Starting with the original voteKey values */\n            for (uint offset = 0; offset < n - 1; offset+=2) { //Offset is the number of nodes operated on within the scope of the iteration\n                /* Pair-hash neighbouring nodes and move forward by two steps*/\n                uint256[] memory x;\n                /* Transfer values from the appropiate index (nodes already covered + offset)*/\n                x[0] = merkleArray[nodeCount + offset];\n                x[1] = merkleArray[nodeCount + offset + 1];\n                /* Combine both nodes using MiMC Hash and push to the array as a Parent*/\n                merkleArray.push(MiMC.MiMC_Hash(x));\n            }\n            /* Add the count of this new layer to our total node count*/\n            nodeCount += n;\n            /* Div2 will get us to the next layer count, due to the nice properties of Binary Trees and Powers of 2 we can just div*/\n            n = n / 2;\n            if(n <= 0){ //next while wont occur. The offset at this point is the number of nodes in the tree\n            }\n        }\n        /* merkleArray now contains all nodes, ordered by indexing of layer size. i.e 8 voteKeys => index [0..7], 4 parent nodes produced => index [8..11], 2 nodes produced => index [12..13], Merkle Root => index [14]*/\n        currentState = \"VOTING-OPEN\";\n        emit AnnounceNewStage(currentState); \n    }\n    /* Use Case (DApp)\n    When a user inputs a secret key (SK) and clicks the 'Join Vote' button,\n    SK is locally hashed using MiMC before being sent as a VOTE KEY*/\n    function pushVoteKey(string memory str) public {\n        uint256 voteKey = stringToUint(str);\n        /* check double-vote and if votekey generation stage is active*/\n       // require(currentState == \"VOTEKEY-GENERATION\");\n        /* Make sure the voter has been authorized and that they haven't already generated a key*/\n        //require(/*voters[msg.sender].authorized == true &&*/ voters[msg.sender].submittedVoteKey == false);\n        /* Mapping Implementation */\n        voteKeys[msg.sender].value = voteKey;\n        voteKeys[msg.sender].modified = true;\n        /* Array Implementation */\n        voteKeyArray.push(VoteKey(voteKey, true));\n        activeVoters++;\n        /* Check if our voter count exceeded or reached a power of 2*/\n        if(activeVoters == 4) { \n           createMerkleArray();\n            }\n            emit Debug(voteKey);\n    }   \n   function stringToUint(string memory s) private pure returns (uint result) {\n        bytes memory b = bytes(s);\n        uint i;\n        result = 0;\n        for (i = 0; i < b.length; i++) {\n            uint c = uint(uint8(b[i]));\n            if (c >= 48 && c <= 57) {\n                result = result * 10 + (c - 48);\n            }\n        }\n    }\n    function conductElection(string memory inputName, uint8 treeDepth, string memory candidateA, string  memory candidateB) public  {\n        require(treeDepth >= 1 && treeDepth <= 33); //33 is the maximum depth of the tree allowed\n        \n        owner = msg.sender;\n        name = inputName;\n        candidates.push(Candidate(candidateA,0));\n        candidates.push(Candidate(candidateB,0));\n        currentState = \"VOTEKEY-GENERATION\";\n        emit AnnounceNewStage(currentState);\n    }\n     /* Inputs: voteVal, Proof of Membership */\n     function submitVote(uint voteVal) public {\n         /*Verify if Voting process is active*/\n        //require(currentState == \"VOTING-OPEN\");\n    \t/* Verify Voter rights and if they have voted previouslys*/\n        require(voters[msg.sender].authorized == true);\n        require(voters[msg.sender].voted == false);\n        /* Invoke the Verifier contract with Proof of Membership as input */\n            //Assign Vote Value to the voter\n            voters[msg.sender].value = voteVal;\n            //If the voter is authorized, then the vote has a state change\n            /* @TODO: Implement Additive Pailler */\n          //  candidates[voteVal].voteCount += voters[msg.sender].rights;\n            /* Emit an event on the block to notify a new vote using candidate who got the votes name and the voters proof of Membership*/\n            emit AnnounceVote(candidates[voteVal].name, msg.sender);\n            activeVoters--;\n            if(activeVoters == 0){ currentState = \"END\"; }\n        \n    } \n    function getMerkleInfo(uint256 voteKey) public view returns(uint256, uint256, uint256 [] memory) {\n    \tuint targetIndex = 1337;\n    \tfor(uint i =0; i< merkleArray.length; i++){\n    \t\tif(voteKey == merkleArray[i]){\n    \t\t targetIndex = i;\n    \t\t/* From i till N, move up a layer, find appropiate index*/\n    \t\t}\n    \t}\n    \trequire(targetIndex != 1337);\n    \treturn (targetIndex, merkleArray.length, merkleArray);\n    }\n    /* The invoker of the Election can convert 'citizens' into 'voters' by giving the rights variable\n    / value that affects the summation in submitVote(..)*/\n    function authorize(address citizen) public {\n        require(msg.sender == owner);\n        voters[citizen].authorized = true;\n        calculateVoteWeight(citizen);\n        emit AnnounceAuth(msg.sender);\n        \n    }\n    function tallyVotes() public {\n    \t/* @TODO: Add a loop for dynamic candidates*/\n        emit AnnounceResult(candidates[0].name, candidates[0].voteCount);\n        emit AnnounceResult(candidates[1].name, candidates[1].voteCount);\n    }\n    /* Here will be the custom weight function responsible for calculating a vote weight\n    based on User financial investment or something similar */\n    function calculateVoteWeight(address citizen) private {\n        /* (TEMPORARY) HARD-CODED VALUE OF 1 */\n        voters[citizen].value = 1;\n    }\n    function testHash(uint256[] memory alpha) public pure returns(uint256) {\n        uint256 hashed = MiMC.MiMC_Hash(alpha);\n       // emit Debug(hashed);\n        return hashed;\n    }\n}\n",
  "sourcePath": "/home/rayyan808/Documents/Bachelor Project/bsc-project/contracts/Election.sol",
  "compiler": {
    "name": "solc",
    "version": "0.8.4+commit.c7e474f2.Emscripten.clang"
  },
  "schemaVersion": "3.4.0",
  "updatedAt": "2021-06-13T15:20:14.641Z",
  "networkType": "ethereum",
  "devdoc": {
    "kind": "dev",
    "methods": {},
    "version": 1
  },
  "userdoc": {
    "kind": "user",
    "methods": {},
    "version": 1
  }
}