{
  "contractName": "Election",
  "abi": [
    {
      "inputs": [],
      "stateMutability": "nonpayable",
      "type": "constructor"
    },
    {
      "anonymous": false,
      "inputs": [
        {
          "indexed": false,
          "internalType": "address",
          "name": "authorizedUser",
          "type": "address"
        }
      ],
      "name": "AnnounceAuth",
      "type": "event"
    },
    {
      "anonymous": false,
      "inputs": [
        {
          "indexed": false,
          "internalType": "string",
          "name": "stage",
          "type": "string"
        }
      ],
      "name": "AnnounceNewStage",
      "type": "event"
    },
    {
      "anonymous": false,
      "inputs": [
        {
          "indexed": false,
          "internalType": "string",
          "name": "candidate",
          "type": "string"
        },
        {
          "indexed": false,
          "internalType": "uint256[]",
          "name": "tallyCount",
          "type": "uint256[]"
        }
      ],
      "name": "AnnounceResult",
      "type": "event"
    },
    {
      "anonymous": false,
      "inputs": [
        {
          "indexed": false,
          "internalType": "bool",
          "name": "x",
          "type": "bool"
        }
      ],
      "name": "AnnounceValidProof",
      "type": "event"
    },
    {
      "anonymous": false,
      "inputs": [
        {
          "indexed": false,
          "internalType": "string",
          "name": "candidate",
          "type": "string"
        },
        {
          "indexed": false,
          "internalType": "address",
          "name": "proofOfMembership",
          "type": "address"
        }
      ],
      "name": "AnnounceVote",
      "type": "event"
    },
    {
      "anonymous": false,
      "inputs": [
        {
          "indexed": false,
          "internalType": "uint256",
          "name": "s",
          "type": "uint256"
        }
      ],
      "name": "Debug",
      "type": "event"
    },
    {
      "inputs": [],
      "name": "activeVoters",
      "outputs": [
        {
          "internalType": "uint256",
          "name": "",
          "type": "uint256"
        }
      ],
      "stateMutability": "view",
      "type": "function",
      "constant": true
    },
    {
      "inputs": [
        {
          "internalType": "uint256",
          "name": "",
          "type": "uint256"
        }
      ],
      "name": "candidates",
      "outputs": [
        {
          "internalType": "string",
          "name": "name",
          "type": "string"
        }
      ],
      "stateMutability": "view",
      "type": "function",
      "constant": true
    },
    {
      "inputs": [],
      "name": "currentState",
      "outputs": [
        {
          "internalType": "string",
          "name": "",
          "type": "string"
        }
      ],
      "stateMutability": "view",
      "type": "function",
      "constant": true
    },
    {
      "inputs": [
        {
          "internalType": "uint256",
          "name": "",
          "type": "uint256"
        }
      ],
      "name": "identifiers",
      "outputs": [
        {
          "internalType": "uint256",
          "name": "",
          "type": "uint256"
        }
      ],
      "stateMutability": "view",
      "type": "function",
      "constant": true
    },
    {
      "inputs": [
        {
          "internalType": "uint256",
          "name": "",
          "type": "uint256"
        }
      ],
      "name": "merkleArray",
      "outputs": [
        {
          "internalType": "uint256",
          "name": "",
          "type": "uint256"
        }
      ],
      "stateMutability": "view",
      "type": "function",
      "constant": true
    },
    {
      "inputs": [],
      "name": "merkleRoot",
      "outputs": [
        {
          "internalType": "uint256",
          "name": "",
          "type": "uint256"
        }
      ],
      "stateMutability": "view",
      "type": "function",
      "constant": true
    },
    {
      "inputs": [],
      "name": "name",
      "outputs": [
        {
          "internalType": "string",
          "name": "",
          "type": "string"
        }
      ],
      "stateMutability": "view",
      "type": "function",
      "constant": true
    },
    {
      "inputs": [],
      "name": "owner",
      "outputs": [
        {
          "internalType": "address",
          "name": "",
          "type": "address"
        }
      ],
      "stateMutability": "view",
      "type": "function",
      "constant": true
    },
    {
      "inputs": [],
      "name": "terminateElection",
      "outputs": [
        {
          "internalType": "uint256",
          "name": "",
          "type": "uint256"
        }
      ],
      "stateMutability": "view",
      "type": "function",
      "constant": true
    },
    {
      "inputs": [
        {
          "internalType": "uint256[2]",
          "name": "a",
          "type": "uint256[2]"
        },
        {
          "internalType": "uint256[2][2]",
          "name": "b",
          "type": "uint256[2][2]"
        },
        {
          "internalType": "uint256[2]",
          "name": "c",
          "type": "uint256[2]"
        },
        {
          "internalType": "uint256[4]",
          "name": "input",
          "type": "uint256[4]"
        }
      ],
      "name": "verifyTx",
      "outputs": [
        {
          "internalType": "bool",
          "name": "r",
          "type": "bool"
        }
      ],
      "stateMutability": "view",
      "type": "function",
      "constant": true
    },
    {
      "inputs": [],
      "name": "voteCount",
      "outputs": [
        {
          "internalType": "uint256",
          "name": "",
          "type": "uint256"
        }
      ],
      "stateMutability": "view",
      "type": "function",
      "constant": true
    },
    {
      "inputs": [
        {
          "internalType": "uint256",
          "name": "",
          "type": "uint256"
        }
      ],
      "name": "voteKeyArray",
      "outputs": [
        {
          "internalType": "uint256",
          "name": "",
          "type": "uint256"
        }
      ],
      "stateMutability": "view",
      "type": "function",
      "constant": true
    },
    {
      "inputs": [
        {
          "internalType": "address",
          "name": "",
          "type": "address"
        }
      ],
      "name": "voters",
      "outputs": [
        {
          "internalType": "bool",
          "name": "authorized",
          "type": "bool"
        },
        {
          "internalType": "uint256",
          "name": "weight",
          "type": "uint256"
        }
      ],
      "stateMutability": "view",
      "type": "function",
      "constant": true
    },
    {
      "inputs": [],
      "name": "createMerkleArray",
      "outputs": [],
      "stateMutability": "nonpayable",
      "type": "function"
    },
    {
      "inputs": [
        {
          "internalType": "string",
          "name": "str",
          "type": "string"
        }
      ],
      "name": "pushVoteKey",
      "outputs": [],
      "stateMutability": "nonpayable",
      "type": "function"
    },
    {
      "inputs": [
        {
          "internalType": "string",
          "name": "inputName",
          "type": "string"
        },
        {
          "internalType": "string",
          "name": "candidateA",
          "type": "string"
        },
        {
          "internalType": "string",
          "name": "candidateB",
          "type": "string"
        }
      ],
      "name": "conductElection",
      "outputs": [],
      "stateMutability": "nonpayable",
      "type": "function"
    },
    {
      "inputs": [
        {
          "internalType": "uint256[2]",
          "name": "a",
          "type": "uint256[2]"
        },
        {
          "internalType": "uint256[2][2]",
          "name": "b",
          "type": "uint256[2][2]"
        },
        {
          "internalType": "uint256[2]",
          "name": "c",
          "type": "uint256[2]"
        },
        {
          "internalType": "uint256[4]",
          "name": "input",
          "type": "uint256[4]"
        },
        {
          "internalType": "uint256",
          "name": "voteVal",
          "type": "uint256"
        }
      ],
      "name": "submitVote",
      "outputs": [],
      "stateMutability": "nonpayable",
      "type": "function"
    },
    {
      "inputs": [
        {
          "internalType": "address",
          "name": "nodeAddress",
          "type": "address"
        }
      ],
      "name": "authorize",
      "outputs": [],
      "stateMutability": "nonpayable",
      "type": "function"
    },
    {
      "inputs": [
        {
          "internalType": "string",
          "name": "str",
          "type": "string"
        }
      ],
      "name": "getMerkleInfo",
      "outputs": [
        {
          "internalType": "uint256",
          "name": "targetIndex",
          "type": "uint256"
        },
        {
          "internalType": "uint256",
          "name": "firstLayerSize",
          "type": "uint256"
        },
        {
          "internalType": "uint256[]",
          "name": "entireMerkleArray",
          "type": "uint256[]"
        },
        {
          "internalType": "uint256",
          "name": "mkRoot",
          "type": "uint256"
        }
      ],
      "stateMutability": "view",
      "type": "function",
      "constant": true
    },
    {
      "inputs": [],
      "name": "getCandidates",
      "outputs": [
        {
          "internalType": "string[]",
          "name": "",
          "type": "string[]"
        }
      ],
      "stateMutability": "view",
      "type": "function",
      "constant": true
    },
    {
      "inputs": [],
      "name": "getTally",
      "outputs": [
        {
          "components": [
            {
              "internalType": "string",
              "name": "name",
              "type": "string"
            },
            {
              "internalType": "uint256[]",
              "name": "votes",
              "type": "uint256[]"
            }
          ],
          "internalType": "struct Election.Candidate[]",
          "name": "candidateResult",
          "type": "tuple[]"
        }
      ],
      "stateMutability": "view",
      "type": "function",
      "constant": true
    }
  ],
  "bytecode": "0x608060405234801561001057600080fd5b5033600160006101000a81548173ffffffffffffffffffffffffffffffffffffffff021916908373ffffffffffffffffffffffffffffffffffffffff1602179055506157de80620000626000396000f3fe608060405234801561001057600080fd5b50600436106101375760003560e01c80633477ee2e116100b8578063a3ec138d1161007c578063a3ec138d14610341578063b4f3b1ca14610372578063b6a5d7de14610390578063bb314cd8146103ac578063c6384071146103ca578063e4e1eaa8146103e857610137565b80633477ee2e1461029b57806353b2b8d6146102cb5780637e469868146102e95780637e95b5e9146103195780638da5cb5b1461032357610137565b806317de5836116100ff57806317de5836146101e557806326222ea3146102155780632894190f1461023157806328f2d4da1461024d5780632eb4a7ab1461027d57610137565b806306a49fce1461013c57806306fdde031461015a57806309709a7d146101785780630990248b146101ab5780630c3f6acf146101c7575b600080fd5b610144610418565b60405161015191906150de565b60405180910390f35b6101626105da565b60405161016f9190615166565b60405180910390f35b610192600480360381019061018d9190614c6a565b610668565b6040516101a294939291906151f5565b60405180910390f35b6101c560048036038101906101c09190614c6a565b6107c6565b005b6101cf6108c3565b6040516101dc9190615166565b60405180910390f35b6101ff60048036038101906101fa9190614b8b565b610951565b60405161020c9190615122565b60405180910390f35b61022f600480360381019061022a9190614cab565b610e05565b005b61024b60048036038101906102469190614bf0565b610fe9565b005b61026760048036038101906102629190614d42565b61135f565b60405161027491906151da565b60405180910390f35b610285611383565b60405161029291906151da565b60405180910390f35b6102b560048036038101906102b09190614d42565b611389565b6040516102c29190615166565b60405180910390f35b6102d361143f565b6040516102e09190615100565b60405180910390f35b61030360048036038101906102fe9190614d42565b611588565b60405161031091906151da565b60405180910390f35b6103216115ac565b005b61032b611a05565b60405161033891906150c3565b60405180910390f35b61035b60048036038101906103569190614b62565b611a2b565b60405161036992919061513d565b60405180910390f35b61037a611a5c565b60405161038791906151da565b60405180910390f35b6103aa60048036038101906103a59190614b62565b611a62565b005b6103b4611b5a565b6040516103c191906151da565b60405180910390f35b6103d2611b60565b6040516103df91906151da565b60405180910390f35b61040260048036038101906103fd9190614d42565b611b66565b60405161040f91906151da565b60405180910390f35b6060600060098054905067ffffffffffffffff811115610461577f4e487b7100000000000000000000000000000000000000000000000000000000600052604160045260246000fd5b60405190808252806020026020018201604052801561049457816020015b606081526020019060019003908161047f5790505b50905060005b6009805490508110156105d257600981815481106104e1577f4e487b7100000000000000000000000000000000000000000000000000000000600052603260045260246000fd5b906000526020600020906002020160000180546104fd906155d0565b80601f0160208091040260200160405190810160405280929190818152602001828054610529906155d0565b80156105765780601f1061054b57610100808354040283529160200191610576565b820191906000526020600020905b81548152906001019060200180831161055957829003601f168201915b50505050508282815181106105b4577f4e487b7100000000000000000000000000000000000000000000000000000000600052603260045260246000fd5b602002602001018190525080806105ca90615633565b91505061049a565b508091505090565b600080546105e7906155d0565b80601f0160208091040260200160405190810160405280929190818152602001828054610613906155d0565b80156106605780601f1061063557610100808354040283529160200191610660565b820191906000526020600020905b81548152906001019060200180831161064357829003601f168201915b505050505081565b60008060606000806105399050600061068087611b8a565b905060005b6008805490508110156106f557600881815481106106cc577f4e487b7100000000000000000000000000000000000000000000000000000000600052603260045260246000fd5b90600052602060002001548214156106e2578092505b80806106ed90615633565b915050610685565b5061053982141561070557600080fd5b81600780549050600880600160088054905061072191906154e8565b81548110610758577f4e487b7100000000000000000000000000000000000000000000000000000000600052603260045260246000fd5b9060005260206000200154818054806020026020016040519081016040528092919081815260200182805480156107ae57602002820191906000526020600020905b81548152602001906001019080831161079a575b50505050509150955095509550955050509193509193565b60006107d182611b8a565b905060011515600660003373ffffffffffffffffffffffffffffffffffffffff1673ffffffffffffffffffffffffffffffffffffffff16815260200190815260200160002060000160009054906101000a900460ff1615151461083357600080fd5b60078190806001815401808255809150506001900390600052602060002001600090919091909150556002600081548092919061086f90615633565b919050555060046002541415610888576108876115ac565b5b7f8a36f5a234186d446e36a7df36ace663a05a580d9bea2dd899c6dd76a075d5fa816040516108b791906151da565b60405180910390a15050565b600580546108d0906155d0565b80601f01602080910402602001604051908101604052809291908181526020018280546108fc906155d0565b80156109495780601f1061091e57610100808354040283529160200191610949565b820191906000526020600020905b81548152906001019060200180831161092c57829003601f168201915b505050505081565b600061095b614700565b6040518060400160405280876000600281106109a0577f4e487b7100000000000000000000000000000000000000000000000000000000600052603260045260246000fd5b60200201518152602001876001600281106109e4577f4e487b7100000000000000000000000000000000000000000000000000000000600052603260045260246000fd5b602002015181525081600001819052506040518060400160405280604051806040016040528088600060028110610a44577f4e487b7100000000000000000000000000000000000000000000000000000000600052603260045260246000fd5b6020020151600060028110610a82577f4e487b7100000000000000000000000000000000000000000000000000000000600052603260045260246000fd5b6020020151815260200188600060028110610ac6577f4e487b7100000000000000000000000000000000000000000000000000000000600052603260045260246000fd5b6020020151600160028110610b04577f4e487b7100000000000000000000000000000000000000000000000000000000600052603260045260246000fd5b60200201518152508152602001604051806040016040528088600160028110610b56577f4e487b7100000000000000000000000000000000000000000000000000000000600052603260045260246000fd5b6020020151600060028110610b94577f4e487b7100000000000000000000000000000000000000000000000000000000600052603260045260246000fd5b6020020151815260200188600160028110610bd8577f4e487b7100000000000000000000000000000000000000000000000000000000600052603260045260246000fd5b6020020151600160028110610c16577f4e487b7100000000000000000000000000000000000000000000000000000000600052603260045260246000fd5b60200201518152508152508160200181905250604051806040016040528085600060028110610c6e577f4e487b7100000000000000000000000000000000000000000000000000000000600052603260045260246000fd5b6020020151815260200185600160028110610cb2577f4e487b7100000000000000000000000000000000000000000000000000000000600052603260045260246000fd5b602002015181525081604001819052506000600467ffffffffffffffff811115610d05577f4e487b7100000000000000000000000000000000000000000000000000000000600052604160045260246000fd5b604051908082528060200260200182016040528015610d335781602001602082028036833780820191505090505b50905060005b6004811015610dd857848160048110610d7b577f4e487b7100000000000000000000000000000000000000000000000000000000600052603260045260246000fd5b6020020151828281518110610db9577f4e487b7100000000000000000000000000000000000000000000000000000000600052603260045260246000fd5b6020026020010181815250508080610dd090615633565b915050610d39565b506000610de58284611c4a565b1415610df657600192505050610dfd565b6000925050505b949350505050565b33600160006101000a81548173ffffffffffffffffffffffffffffffffffffffff021916908373ffffffffffffffffffffffffffffffffffffffff1602179055508260009080519060200190610e5c929190614733565b506060600960405180604001604052808581526020018381525090806001815401808255809150506001900390600052602060002090600202016000909190919091506000820151816000019080519060200190610ebb929190614733565b506020820151816001019080519060200190610ed89291906147b9565b505050600960405180604001604052808481526020018381525090806001815401808255809150506001900390600052602060002090600202016000909190919091506000820151816000019080519060200190610f37929190614733565b506020820151816001019080519060200190610f549291906147b9565b50505060006003819055506040518060400160405280601281526020017f564f54454b45592d47454e45524154494f4e000000000000000000000000000081525060059080519060200190610faa929190614733565b507fb712ca18858a18cb63ef75fe8c737e3ad52062d7389284fd4ecb4524da24e0906005604051610fdb9190615188565b60405180910390a150505050565b60005b6003548110156110985760048181548110611030577f4e487b7100000000000000000000000000000000000000000000000000000000600052603260045260246000fd5b906000526020600020015483600060048110611075577f4e487b7100000000000000000000000000000000000000000000000000000000600052603260045260246000fd5b6020020151141561108557600080fd5b808061109090615633565b915050610fec565b5060006110a786868686610951565b9050806110dd577f4e487b7100000000000000000000000000000000000000000000000000000000600052600160045260246000fd5b7f8671313620ae44244991604d4943e3aba1e86b7cf6530358ba0e5b02662094ac8160405161110c9190615122565b60405180910390a16009828154811061114e577f4e487b7100000000000000000000000000000000000000000000000000000000600052603260045260246000fd5b906000526020600020906002020160010183600060048110611199577f4e487b7100000000000000000000000000000000000000000000000000000000600052603260045260246000fd5b60200201519080600181540180825580915050600190039060005260206000200160009091909190915055600483600060048110611200577f4e487b7100000000000000000000000000000000000000000000000000000000600052603260045260246000fd5b602002015190806001815401808255809150506001900390600052602060002001600090919091909150556003600081548092919061123e90615633565b91905055507f8c4bbf432c3f9c3348d45700f436aa13af99743d19b100361cbcf36e76e443296009838154811061129e577f4e487b7100000000000000000000000000000000000000000000000000000000600052603260045260246000fd5b9060005260206000209060020201600001336040516112be9291906151aa565b60405180910390a16003546002541415611357576040518060400160405280600381526020017f454e4400000000000000000000000000000000000000000000000000000000008152506005908051906020019061131d929190614733565b507fb712ca18858a18cb63ef75fe8c737e3ad52062d7389284fd4ecb4524da24e090600560405161134e9190615188565b60405180910390a15b505050505050565b6004818154811061136f57600080fd5b906000526020600020016000915090505481565b600a5481565b6009818154811061139957600080fd5b90600052602060002090600202016000915090508060000180546113bc906155d0565b80601f01602080910402602001604051908101604052809291908181526020018280546113e8906155d0565b80156114355780601f1061140a57610100808354040283529160200191611435565b820191906000526020600020905b81548152906001019060200180831161141857829003601f168201915b5050505050905081565b60606009805480602002602001604051908101604052809291908181526020016000905b8282101561157f5783829060005260206000209060020201604051806040016040529081600082018054611496906155d0565b80601f01602080910402602001604051908101604052809291908181526020018280546114c2906155d0565b801561150f5780601f106114e45761010080835404028352916020019161150f565b820191906000526020600020905b8154815290600101906020018083116114f257829003601f168201915b505050505081526020016001820180548060200260200160405190810160405280929190818152602001828054801561156757602002820191906000526020600020905b815481526020019060010190808311611553575b50505050508152505081526020019060010190611463565b50505050905090565b6007818154811061159857600080fd5b906000526020600020016000915090505481565b6000600190506000805b60078054905083116115ec576007805490508314156115d857600191506115ec565b6002836115e5919061548e565b92506115b6565b5b6007805490508314158015611606575060001515821515145b1561164957600761053990806001815401808255809150506001900390600052602060002001600090919091909150558280611641906155a6565b9350506115ed565b60005b6007805490508110156116dc5760078181548110611693577f4e487b7100000000000000000000000000000000000000000000000000000000600052603260045260246000fd5b90600052602060002001549150600882908060018154018082558091505060019003906000526020600020016000909190919091505580806116d490615633565b91505061164c565b5060008060078054905090506000600267ffffffffffffffff81111561172b577f4e487b7100000000000000000000000000000000000000000000000000000000600052604160045260246000fd5b6040519080825280602002602001820160405280156117595781602001602082028036833780820191505090505b5090505b600082111561191d5760005b60018361177691906154e8565b8110156118fa576008818561178b9190615407565b815481106117c2577f4e487b7100000000000000000000000000000000000000000000000000000000600052603260045260246000fd5b906000526020600020015482600081518110611807577f4e487b7100000000000000000000000000000000000000000000000000000000600052603260045260246000fd5b6020026020010181815250506008600182866118239190615407565b61182d9190615407565b81548110611864577f4e487b7100000000000000000000000000000000000000000000000000000000600052603260045260246000fd5b9060005260206000200154826001815181106118a9577f4e487b7100000000000000000000000000000000000000000000000000000000600052603260045260246000fd5b60200260200101818152505060086118c083611e79565b90806001815401808255809150506001900390600052602060002001600090919091909150556002816118f39190615407565b9050611769565b5081836119079190615407565b9250600282611916919061545d565b915061175d565b6008600160088054905061193191906154e8565b81548110611968577f4e487b7100000000000000000000000000000000000000000000000000000000600052603260045260246000fd5b9060005260206000200154600a819055506040518060400160405280600b81526020017f564f54494e472d4f50454e000000000000000000000000000000000000000000815250600590805190602001906119c4929190614733565b507fb712ca18858a18cb63ef75fe8c737e3ad52062d7389284fd4ecb4524da24e09060056040516119f59190615188565b60405180910390a1505050505050565b600160009054906101000a900473ffffffffffffffffffffffffffffffffffffffff1681565b60066020528060005260406000206000915090508060000160009054906101000a900460ff16908060010154905082565b600b5481565b600160009054906101000a900473ffffffffffffffffffffffffffffffffffffffff1673ffffffffffffffffffffffffffffffffffffffff163373ffffffffffffffffffffffffffffffffffffffff1614611abc57600080fd5b6001600660008373ffffffffffffffffffffffffffffffffffffffff1673ffffffffffffffffffffffffffffffffffffffff16815260200190815260200160002060000160006101000a81548160ff021916908315150217905550611b2081611f7c565b7f081ba50acbad95aaf2f3d6ae236a307baad3be11e7c84f2b4a043cfc114ebe3181604051611b4f91906150c3565b60405180910390a150565b60025481565b60035481565b60088181548110611b7657600080fd5b906000526020600020016000915090505481565b6000808290506000809250600090505b8151811015611c43576000828281518110611bde577f4e487b7100000000000000000000000000000000000000000000000000000000600052603260045260246000fd5b602001015160f81c60f81b60f81c60ff16905060308110158015611c03575060398111155b15611c2f57603081611c1591906154e8565b600a85611c22919061548e565b611c2c9190615407565b93505b508080611c3b90615633565b915050611b9a565b5050919050565b6000807f30644e72e131a029b85045b68181585d2833e84879b9709143e1f593f000000190506000611c7a611fc7565b905080608001515160018651611c909190615407565b14611c9a57600080fd5b60006040518060400160405280600081526020016000815250905060005b8651811015611dc55783878281518110611cfb577f4e487b7100000000000000000000000000000000000000000000000000000000600052603260045260246000fd5b602002602001015110611d0d57600080fd5b611db082611dab8560800151600185611d269190615407565b81518110611d5d577f4e487b7100000000000000000000000000000000000000000000000000000000600052603260045260246000fd5b60200260200101518a8581518110611d9e577f4e487b7100000000000000000000000000000000000000000000000000000000600052603260045260246000fd5b6020026020010151612617565b612730565b91508080611dbd90615633565b915050611cb8565b50611e15818360800151600081518110611e08577f4e487b7100000000000000000000000000000000000000000000000000000000600052603260045260246000fd5b6020026020010151612730565b9050611e5b85600001518660200151611e2d84612895565b8560400151611e3f8a60400151612895565b8760600151611e518960000151612895565b896020015161293a565b611e6b5760019350505050611e73565b600093505050505b92915050565b6000806000905060007f30644e72e131a029b85045b68181585d2833e84879b9709143e1f593f0000001905060005b8451811015611f715781611efc868381518110611eee577f4e487b7100000000000000000000000000000000000000000000000000000000600052603260045260246000fd5b602002602001015185612c83565b868381518110611f35577f4e487b7100000000000000000000000000000000000000000000000000000000600052603260045260246000fd5b602002602001015185611f489190615407565b611f529190615407565b611f5c919061567c565b92508080611f6990615633565b915050611ea8565b508192505050919050565b6001600660008373ffffffffffffffffffffffffffffffffffffffff1673ffffffffffffffffffffffffffffffffffffffff1681526020019081526020016000206001018190555050565b611fcf614806565b60405180604001604052807f246aad5c0aa64a0353f23f3b8c3bba0cca6c08685ec0018a685264185d20513081526020017f02b9ff6ffa29d225a14b285882f58c88f4e2d1a2303887160ec9404ea7cdb71b8152508160000181905250604051806040016040528060405180604001604052807f0ef276f305c0e6f038edbb9e87ffec5a12840b8b5a2bf95c6d511402c3e8ca2781526020017f1787e7759ec1f7f1ab74f01318fc927acd9824172a23acd911f99bf0639d1d3b815250815260200160405180604001604052807f022ed9c1c531838f6d94299a6dc2db255398df406a2cc7ec0cb405c2a620d60f81526020017f1af77b20751f22d9054c5475ece9411dd717ce0d0ea9a304f02fb902c8312a198152508152508160200181905250604051806040016040528060405180604001604052807f24c64a9aafdb23b3d87fff3405253330f3a3d19242b1e47e0f9cb24c7685faa281526020017f114bd474e6523a92a5482161334511a3c66cf914c16cb5bb1675c0d7347bc586815250815260200160405180604001604052807f2b68d585f4110ee9f60524357c554ad1c73d12ca670a5e3bc92945bb42dc7b6581526020017f0c2681847fcf2cb49f5958c5e2a4b1472d49df1740df02dfcfcc19eea097a65a8152508152508160400181905250604051806040016040528060405180604001604052807f1ee034c7f8a10c15d4b4b873fd5813b9baee8b706c15f7e7b41fc25265bbf14c81526020017f0e2c06dd8e335e03010c9f561683323aae26e971ce318041f5fd79911eae2e31815250815260200160405180604001604052807f19efd6cb473402e2b71f002aba9c0c20f345496dc9c8ecc8bd22811d9815bcf481526020017f0974159d20990ab651a937d9df9fea946973f3ceb49065c6f07df1cb0ea439748152508152508160600181905250600567ffffffffffffffff8111156122bc577f4e487b7100000000000000000000000000000000000000000000000000000000600052604160045260246000fd5b6040519080825280602002602001820160405280156122f557816020015b6122e261484d565b8152602001906001900390816122da5790505b50816080018190525060405180604001604052807f09163663c1a3cfac277b7ce717d8ed03c5d39d1947614bc44d61144e1817cfe581526020017f0e7bd5dec8001c779ce2626bb776435e6ae3bea3baee383bffb4101f6f64da6e8152508160800151600081518110612391577f4e487b7100000000000000000000000000000000000000000000000000000000600052603260045260246000fd5b602002602001018190525060405180604001604052807f2c02fa69eda4ae81dad1701d588729264bac3644f92bda909f0ff5c3cde04ef181526020017f10a90291770a0ff65a6f296b049539b07d1e687f5f3030572e238d2bda16ddf1815250816080015160018151811061242f577f4e487b7100000000000000000000000000000000000000000000000000000000600052603260045260246000fd5b602002602001018190525060405180604001604052807f27c96475b2e3ebbc23c0bf35c089b01f9a956d5273bb29359dae99e02ead72b381526020017f1960581a5ab61da3234504a7f7f7af9f05c4ee8339307ff4ae3dc95ecdd9586b81525081608001516002815181106124cd577f4e487b7100000000000000000000000000000000000000000000000000000000600052603260045260246000fd5b602002602001018190525060405180604001604052807f0b2f96bf3c102c09edf386c30b3281938b0d76aa1c23cb6068c392099c6d24f481526020017f2aea9c2e5be215c8d76724888ad778af36ffcce97d150d7613f1eeee207e5ccc815250816080015160038151811061256b577f4e487b7100000000000000000000000000000000000000000000000000000000600052603260045260246000fd5b602002602001018190525060405180604001604052807f118cb4e00d5fa50ec800b269b69cf18cf5e71a241bad1080dea01b73f05f8fde81526020017f22e4965b804454b94ef221a4c1b1aa5e91a6de1beb4434f86699dc46f8f32b7c8152508160800151600481518110612609577f4e487b7100000000000000000000000000000000000000000000000000000000600052603260045260246000fd5b602002602001018190525090565b61261f61484d565b612627614867565b836000015181600060038110612666577f4e487b7100000000000000000000000000000000000000000000000000000000600052603260045260246000fd5b6020020181815250508360200151816001600381106126ae577f4e487b7100000000000000000000000000000000000000000000000000000000600052603260045260246000fd5b60200201818152505082816002600381106126f2577f4e487b7100000000000000000000000000000000000000000000000000000000600052603260045260246000fd5b602002018181525050600060608360808460076107d05a03fa9050806000811461271b5761271d565bfe5b508061272857600080fd5b505092915050565b61273861484d565b612740614889565b83600001518160006004811061277f577f4e487b7100000000000000000000000000000000000000000000000000000000600052603260045260246000fd5b6020020181815250508360200151816001600481106127c7577f4e487b7100000000000000000000000000000000000000000000000000000000600052603260045260246000fd5b60200201818152505082600001518160026004811061280f577f4e487b7100000000000000000000000000000000000000000000000000000000600052603260045260246000fd5b602002018181525050826020015181600360048110612857577f4e487b7100000000000000000000000000000000000000000000000000000000600052603260045260246000fd5b602002018181525050600060608360c08460066107d05a03fa9050806000811461288057612882565bfe5b508061288d57600080fd5b505092915050565b61289d61484d565b60007f30644e72e131a029b85045b68181585d97816a916871ca8d3c208c16d87cfd479050600083600001511480156128da575060008360200151145b156128fe576040518060400160405280600081526020016000815250915050612935565b604051806040016040528084600001518152602001828560200151612923919061567c565b8361292e91906154e8565b8152509150505b919050565b600080600467ffffffffffffffff81111561297e577f4e487b7100000000000000000000000000000000000000000000000000000000600052604160045260246000fd5b6040519080825280602002602001820160405280156129b757816020015b6129a461484d565b81526020019060019003908161299c5790505b5090506000600467ffffffffffffffff8111156129fd577f4e487b7100000000000000000000000000000000000000000000000000000000600052604160045260246000fd5b604051908082528060200260200182016040528015612a3657816020015b612a236148ab565b815260200190600190039081612a1b5790505b5090508a82600081518110612a74577f4e487b7100000000000000000000000000000000000000000000000000000000600052603260045260246000fd5b60200260200101819052508882600181518110612aba577f4e487b7100000000000000000000000000000000000000000000000000000000600052603260045260246000fd5b60200260200101819052508682600281518110612b00577f4e487b7100000000000000000000000000000000000000000000000000000000600052603260045260246000fd5b60200260200101819052508482600381518110612b46577f4e487b7100000000000000000000000000000000000000000000000000000000600052603260045260246000fd5b60200260200101819052508981600081518110612b8c577f4e487b7100000000000000000000000000000000000000000000000000000000600052603260045260246000fd5b60200260200101819052508781600181518110612bd2577f4e487b7100000000000000000000000000000000000000000000000000000000600052603260045260246000fd5b60200260200101819052508581600281518110612c18577f4e487b7100000000000000000000000000000000000000000000000000000000600052603260045260246000fd5b60200260200101819052508381600381518110612c5e577f4e487b7100000000000000000000000000000000000000000000000000000000600052603260045260246000fd5b6020026020010181905250612c7382826140f9565b9250505098975050505050505050565b60007f30644e72e131a029b85045b68181585d2833e84879b9709143e1f593f0000001600080847f2e2ebbb178296b63d88ec198f0976ad98bc1d4eb0d921ddd2eb86cb7e70a98e58701019150828283099050828284858485098409099550847f21bfc154b5b071d22d06105663553801f858c1f231020b4c291a729d6281d3498701019150828283099050828284858485098409099550847f126cfa352b0e2701442b36e0c2fc88287cfd3bfecce842afc0e3e78d8edb4ad88701019150828283099050828284858485098409099550847f0309d7067ab65de1a99fe23f458d0bc3f18c59b6642ef48afc679ef17cb6928c8701019150828283099050828284858485098409099550847f194c4693409966960be88513cfe32987c125f71398a782e44973fb8af4798bd88701019150828283099050828284858485098409099550847f05a849684bc58cc0d6e9f319b4dae26db171733bf60f31d978e41d09a75a63198701019150828283099050828284858485098409099550847f18bd4dae5134538bd2f90d41bbb1e330b2a8286ba4a09aca3fbbdcf932534be58701019150828283099050828284858485098409099550847f0736c60cd39fd1649d4845b4f9a6ec9baca89fb2de0a3d7eeabe43504b5607fa8701019150828283099050828284858485098409099550847f25a6971a9d2c1de9f374378d8f61492b1bd3c46584c076a76c43c3cd1a7475128701019150828283099050828284858485098409099550847f0a3373d15fa6dce221f83226c02d41f8aea5cfc6da4c9f4981ada1bd4b50f56e8701019150828283099050828284858485098409099550847f2b70028e2bf4e008e22eddb78d4190d73c289dc6445b3f64e15f8bd0ec02c6728701019150828283099050828284858485098409099550847f0b24ef461a71eed93dd366342f9ca4eebb749c8a5a6057c801d538c7c0666ba48701019150828283099050828284858485098409099550847f05d1e0ac576d1ec814b621516339ae1a291c7df36b5fd6cf0b4e3c9cd25e30728701019150828283099050828284858485098409099550847f271cfbf88e9744b8596e7e2d6875c8005d0e62014010ac35e95a7ce2390bc50f8701019150828283099050828284858485098409099550847f196309f1d170d741ab1ce90c39772017fb7cdec78c37882b98a6b56956c13def8701019150828283099050828284858485098409099550847f127c1116c575c03c7f6d83417d8c1b3808f92ee16924a54094bf094721e9e4f58701019150828283099050828284858485098409099550847f1bff78047ee67d38a54fdc540f9a2ba07f63489acd36425f1ae210ac329826f58701019150828283099050828284858485098409099550847f06c7dc7bbae615fcf1896f2b8db7d92c05dc1ea1c8134e9db6fd588672c53e9a8701019150828283099050828284858485098409099550847f12df78cba175ef76dbfcc9c785926bb3949a87ec7533e2559a27a64b91cebba58701019150828283099050828284858485098409099550847f2bd4cdc962e3da62cb3c96f7c428a9b0d518bfa7ce26f8fce7a6af769afb65408701019150828283099050828284858485098409099550847f24edd3847febbe44c4cc390246e3379b47fd01a030d0cd0b4fcf7fbd1cabfe588701019150828283099050828284858485098409099550847f1ce065d2c2561bb573e4cf4259d3b0b0e9eacb447751c62b77d0bc5e4e3c7d158701019150828283099050828284858485098409099550847f18053e9f0d45f9eefbda135bfd39329e34837e633565c314fb9030b9db7381bb8701019150828283099050828284858485098409099550847f162ffa8742138bbe516168bf86ec78b1ad1e8b535ac455a7cfbb22c13f9c5a9e8701019150828283099050828284858485098409099550847f079eea42e16ac6442ca82623fc0e8d9ad3996a47a8013ea9cb73858ca42b71598701019150828283099050828284858485098409099550847f0a49af2bbe11b05bd02a69a47b1bad5b2170407ada21142f06e4e109de88a1b68701019150828283099050828284858485098409099550847f12c34eebbaa69cccc36929e8f4a6e40771e153ff77943da55c4fc860537b733a8701019150828283099050828284858485098409099550847e8de5ac6b4e359335b6fce58dc0e5e43fd2aefd86bac35abe579b8cace5dbc88701019150828283099050828284858485098409099550847f04a6e988b50d915734bf3296d83057ffe6a550f8987e4597bee7d333cd24a8658701019150828283099050828284858485098409099550847f24112633926cfc6028fa2ffd9f090b1e5428a0a87d7118356e48b5d4704492178701019150828283099050828284858485098409099550847f0d56329982f3df38a3f19fb814c3013f419ba0eb8403b27c0c0e75c6fe1cf4688701019150828283099050828284858485098409099550847f1f01ef80763c95f53c434164493d9673aeef290bf1aa1997d677b557b9692e8a8701019150828283099050828284858485098409099550847f105c5257f801527e60b0361c00075b5a79d2dc6821d8a1258d906ed453c7e7be8701019150828283099050828284858485098409099550847f03db505a0c32cb61ca099389c2180e1c83827fb41d9fed84d88766df44c630798701019150828283099050828284858485098409099550847f1262e738f38db6c79d24d9727294421cd95afa24f4700c1323ab83c3a06ace328701019150828283099050828284858485098409099550847f0ee68c3e38c194033994c0d4d7bde35bfafa35b22a95f915f82c5a3b0422bd9a8701019150828283099050828284858485098409099550847f2ee5427bd20c47f8d2f0aa9e6419f7926abcd5965084292ae54dd780077e69028701019150828283099050828284858485098409099550847f1e542d31d2a381792e0a9241c46229a22fd9382443e423a0e419d0feb58656af8701019150828283099050828284858485098409099550847f0ba39f01462ab6a7cf621952752fcde48677d7f32df47e940eacf4954c5ef6328701019150828283099050828284858485098409099550847f29c00b058c17800146bdc06b1e73ff5d0ff53df96f8463818c0572d11fcaf88b8701019150828283099050828284858485098409099550847f0b6200895b60a6c6794fcf1c2b1b15d03a713c905a8ba1f1315f7501fe1a50b88701019150828283099050828284858485098409099550847f2bc639b1b85d731f62d2c6f391d4498e392cb75edcbd5c4c0fa8b26d32d68a128701019150828283099050828284858485098409099550847f2a89f38e6440ce641127046b67d8e615f14503d72d76bf3c703a01d1463a84458701019150828283099050828284858485098409099550847f1750ede7eeeb4edd7838b67fac6d250a54055eeead10e69b3a6e1f076ca878688701019150828283099050828284858485098409099550847f0c2d65084bead2a743115be5329d5458d29802081f6f9dac4165c42651f9be2b8701019150828283099050828284858485098409099550847f28303e2d834e16e1fe33c9ab726a3e75dd0dad9bfea1a43267199e1f243993fb8701019150828283099050828284858485098409099550847f2b572811ca34ea5110d10772e4ced362ebefd7cd1e1884b769e9435914efc5e58701019150828283099050828284858485098409099550847f17521ca5799fe2ea82c67c0a8d0863b5eec0ef9b703e195dd402b7008b53f6b48701019150828283099050828284858485098409099550847f0407e54b96a5b63c609fa3797b223c73d260a365ad58b25891a5660272096bd58701019150828283099050828284858485098409099550847f1a3cd155b03c7d33cc8222c997424bc14069e2edbf4b8aa564c9e5832bdace918701019150828283099050828284858485098409099550847f296255b5e697e517c502ba49b18aaad89514a490a02e7a878b5d559841b93fbd8701019150828283099050828284858485098409099550847f174835801a1f1525b4c21853b965c5048af465e9f79de9d16748c67953da79a78701019150828283099050828284858485098409099550847f2d4afed7a708e5972e84d766292f2c841c5d8570961074d59ad3f51e9369a5978701019150828283099050828284858485098409099550847f1c0eb06744c9866e271cd29a7f17f72964faba3cd088b95e73dcce9d92c79ba68701019150828283099050828284858485098409099550847f26705e7e4f23a7d786ad1786b353a2f8b82269c7b58ab70d7b93f41685d34d458701019150828283099050828284858485098409099550847f04e674d88b90b1188353106ae25c0447acace9dc6d62cfe7fec2d7993dfd7a228701019150828283099050828284858485098409099550847f0df3335da13ff46f65095f975d157886241aeccff38fd9bba92644f8969d7e098701019150828283099050828284858485098409099550847f2dfff62b9282ec05b1fa44479a6e9debe9ac631813d2b10e44b9e0fe19e4d4ee8701019150828283099050828284858485098409099550847f08ece248fe1ce1cd705699b5cd07c990ec27721bab59b657bb138e487ee6694d8701019150828283099050828284858485098409099550847f2c1ab81db607ba76dbf71f48752c856bf183044981c3b6d1fd31b179a078f5718701019150828283099050828284858485098409099550847f01de6f8886868e351bf4caad293bd86ed29ef63810e15cb809542e01bfbbcb888701019150828283099050828284858485098409099550847f23dd8b576fa286331864d63c77fd82fa61da717533821b9382617ebd54abeb468701019150828283099050828284858485098409099550847f169f2c8e515b2cee8d183991c3712736001a7f92fb34c3e3f532dec373aacbfb8701019150828283099050828284858485098409099550847f0ecf89b898e2deca99ae5108d271f1fa92e5018c1ac899d554dc1dfa35ceb0a08701019150828283099050828284858485098409099550847f0dc0d6e76afba377dd693ed4c47a4f9fee7a88d1df5df62fd06f2f87b81de1c88701019150828283099050828284858485098409099550847f0d8d08571539c68a37dad2a6638291d323948e57a0189a7be2ec14d89308bb6d8701019150828283099050828284858485098409099550847f17d170e737533e922c934f79bad3c28f85ef14b21c7354000298cee876977a448701019150828283099050828284858485098409099550847f09ed630d4088d7acaa34064515c1cb368ed405c4ded26df38652d290b26f6aff8701019150828283099050828284858485098409099550847f2b5381943dd4c43bd059a4747b72fc116f099c46004dc811ddb440f7ee69701e8701019150828283099050828284858485098409099550847f01da34e987e965c368ec0252e97db8bfb78668db369cdf6c70f7e02b5bd52b3b8701019150828283099050828284858485098409099550847f1a18c896f124cd4821fbe08ac680b78362c15344619cef072874f43799b89f238701019150828283099050828284858485098409099550847f168dbaf0eae2cfe96f6b340bfd4922c1c41317bfff69613b81d9722e34059f208701019150828283099050828284858485098409099550847f1dfd587726ec442565eb47fc0234740634b6562d1b60192947140b8670aa40148701019150828283099050828284858485098409099550847f147a904bcd17a3f66ebd75b2c1279507001e602842a047929fd119d31edf39248701019150828283099050828284858485098409099550847e621164e8b17a476172ee2aabd9a1a67ecc05f926bec5bbaceb7524616e11668701019150828283099050828284858485098409099550847f280fcce91f920b6487ee3e6a838abbc1f7eb44e4853b22d067a56f5e908499b98701019150828283099050828284858485098409099550847f2d49d03ab6b741495e4d7cbe87ea6cf0f06aea86f528d13d57f6a05e4c868d0b8701019150828283099050828284858485098409099550847f2a59b6e410852d96661479179081af38f478b7603eb3e4f231f99633d826cde98701019150828283099050828284858485098409099550847f1a7783fa9ff7b36d38aeb75e65cfc88260b70d4600b51ab5745e5fe1dc35d9b18701019150828283099050828284858485098409099550847f286d1e7e039fa286d1bd8fe69e175ecad61693cc1f55044847191bae2ff344b28701019150828283099050828284858485098409099550847f0fa108dbe8e14e8c53093f9aaf1f989dabb3dc026ffecb049d3d6b4b2c9b80778701019150828283099050828284858485098409099550847f0e4b25635fa58150829c3e832c4361bfa7edfdf40b0514c00dd3a7338131f1938701019150828283099050828284858485098409099550847f23b0ea71b8bbd3cb62b741e525f5c8b35cbfed820aaf1234d03a4655cdf710398701019150828283099050828284858485098409099550847f2aced572dbfd2664569030fcf391019702f79cbfbe380714894fbfc785dad03f8701019150828283099050828284858485098409099550847f03c36b340d12daf2422febd15a4521f351459057c2affd6816c67fa38b3cc34d8701019150828283099050828284858485098409099550847f17d64c030f29369c09ffd529c7532b84228e69ef6dd9d9dab603ba86cb9254e78701019150828283099050828284858485098409099550847f095050333e4136e4c73b4101ab008bf625a73c51afd5e77f99c606ca7ace63d78701019150828283099050828284858485098409099550847f10ca0fd2a95bc198763d375f566182463e0c92ea122df6485f1c4e5a9769b32c8701019150828283099050828284858485098409099550847f29f63c935efe224e235d5b49b88578a97b25c739a342d4a0d908b98ef757db618701019150828283099050828284858485098409099550847f1e1289b8eff2d431b178bc957cc0c41a1d7237057b9256fd090eb3c6366b9ef58701019150828283099050828284858485098409099550847f1ed8ee02730ece601f15be81e7d27250c4a4d4c04e7a2f3f4e79b931fd9ffac9870101915082828309905082828485848509840909955082858708935050505092915050565b6000815183511461410957600080fd5b600083519050600060068261411e919061548e565b905060008167ffffffffffffffff811115614162577f4e487b7100000000000000000000000000000000000000000000000000000000600052604160045260246000fd5b6040519080825280602002602001820160405280156141905781602001602082028036833780820191505090505b50905060005b83811015614675578681815181106141d7577f4e487b7100000000000000000000000000000000000000000000000000000000600052603260045260246000fd5b6020026020010151600001518260006006846141f3919061548e565b6141fd9190615407565b81518110614234577f4e487b7100000000000000000000000000000000000000000000000000000000600052603260045260246000fd5b602002602001018181525050868181518110614279577f4e487b7100000000000000000000000000000000000000000000000000000000600052603260045260246000fd5b602002602001015160200151826001600684614295919061548e565b61429f9190615407565b815181106142d6577f4e487b7100000000000000000000000000000000000000000000000000000000600052603260045260246000fd5b60200260200101818152505085818151811061431b577f4e487b7100000000000000000000000000000000000000000000000000000000600052603260045260246000fd5b602002602001015160000151600160028110614360577f4e487b7100000000000000000000000000000000000000000000000000000000600052603260045260246000fd5b6020020151826002600684614375919061548e565b61437f9190615407565b815181106143b6577f4e487b7100000000000000000000000000000000000000000000000000000000600052603260045260246000fd5b6020026020010181815250508581815181106143fb577f4e487b7100000000000000000000000000000000000000000000000000000000600052603260045260246000fd5b602002602001015160000151600060028110614440577f4e487b7100000000000000000000000000000000000000000000000000000000600052603260045260246000fd5b6020020151826003600684614455919061548e565b61445f9190615407565b81518110614496577f4e487b7100000000000000000000000000000000000000000000000000000000600052603260045260246000fd5b6020026020010181815250508581815181106144db577f4e487b7100000000000000000000000000000000000000000000000000000000600052603260045260246000fd5b602002602001015160200151600160028110614520577f4e487b7100000000000000000000000000000000000000000000000000000000600052603260045260246000fd5b6020020151826004600684614535919061548e565b61453f9190615407565b81518110614576577f4e487b7100000000000000000000000000000000000000000000000000000000600052603260045260246000fd5b6020026020010181815250508581815181106145bb577f4e487b7100000000000000000000000000000000000000000000000000000000600052603260045260246000fd5b602002602001015160200151600060028110614600577f4e487b7100000000000000000000000000000000000000000000000000000000600052603260045260246000fd5b6020020151826005600684614615919061548e565b61461f9190615407565b81518110614656577f4e487b7100000000000000000000000000000000000000000000000000000000600052603260045260246000fd5b602002602001018181525050808061466d90615633565b915050614196565b5061467e6148d1565b6000602082602086026020860160086107d05a03fa905080600081146146a3576146a5565bfe5b50806146b057600080fd5b6000826000600181106146ec577f4e487b7100000000000000000000000000000000000000000000000000000000600052603260045260246000fd5b602002015114159550505050505092915050565b604051806060016040528061471361484d565b81526020016147206148ab565b815260200161472d61484d565b81525090565b82805461473f906155d0565b90600052602060002090601f01602090048101928261476157600085556147a8565b82601f1061477a57805160ff19168380011785556147a8565b828001600101855582156147a8579182015b828111156147a757825182559160200191906001019061478c565b5b5090506147b591906148f3565b5090565b8280548282559060005260206000209081019282156147f5579160200282015b828111156147f45782518255916020019190600101906147d9565b5b50905061480291906148f3565b5090565b6040518060a0016040528061481961484d565b81526020016148266148ab565b81526020016148336148ab565b81526020016148406148ab565b8152602001606081525090565b604051806040016040528060008152602001600081525090565b6040518060600160405280600390602082028036833780820191505090505090565b6040518060800160405280600490602082028036833780820191505090505090565b60405180604001604052806148be614910565b81526020016148cb614910565b81525090565b6040518060200160405280600190602082028036833780820191505090505090565b5b8082111561490c5760008160009055506001016148f4565b5090565b6040518060400160405280600290602082028036833780820191505090505090565b600061494561494084615266565b615241565b9050808285604086028201111561495b57600080fd5b60005b8581101561498b57816149718882614ad5565b84526020840193506040830192505060018101905061495e565b5050509392505050565b60006149a86149a38461528c565b615241565b905080828560208602820111156149be57600080fd5b60005b858110156149ee57816149d48882614b4d565b8452602084019350602083019250506001810190506149c1565b5050509392505050565b6000614a0b614a06846152b2565b615241565b90508082856020860282011115614a2157600080fd5b60005b85811015614a515781614a378882614b4d565b845260208401935060208301925050600181019050614a24565b5050509392505050565b6000614a6e614a69846152d8565b615241565b905082815260208101848484011115614a8657600080fd5b614a91848285615564565b509392505050565b600081359050614aa88161577a565b92915050565b600082601f830112614abf57600080fd5b6002614acc848285614932565b91505092915050565b600082601f830112614ae657600080fd5b6002614af3848285614995565b91505092915050565b600082601f830112614b0d57600080fd5b6004614b1a8482856149f8565b91505092915050565b600082601f830112614b3457600080fd5b8135614b44848260208601614a5b565b91505092915050565b600081359050614b5c81615791565b92915050565b600060208284031215614b7457600080fd5b6000614b8284828501614a99565b91505092915050565b6000806000806101808587031215614ba257600080fd5b6000614bb087828801614ad5565b9450506040614bc187828801614aae565b93505060c0614bd287828801614ad5565b925050610100614be487828801614afc565b91505092959194509250565b60008060008060006101a08688031215614c0957600080fd5b6000614c1788828901614ad5565b9550506040614c2888828901614aae565b94505060c0614c3988828901614ad5565b935050610100614c4b88828901614afc565b925050610180614c5d88828901614b4d565b9150509295509295909350565b600060208284031215614c7c57600080fd5b600082013567ffffffffffffffff811115614c9657600080fd5b614ca284828501614b23565b91505092915050565b600080600060608486031215614cc057600080fd5b600084013567ffffffffffffffff811115614cda57600080fd5b614ce686828701614b23565b935050602084013567ffffffffffffffff811115614d0357600080fd5b614d0f86828701614b23565b925050604084013567ffffffffffffffff811115614d2c57600080fd5b614d3886828701614b23565b9150509250925092565b600060208284031215614d5457600080fd5b6000614d6284828501614b4d565b91505092915050565b6000614d778383614f6f565b905092915050565b6000614d8b8383615061565b905092915050565b6000614d9f83836150a5565b60208301905092915050565b614db48161551c565b82525050565b6000614dc58261534e565b614dcf81856153a1565b935083602082028501614de185615309565b8060005b85811015614e1d5784840389528151614dfe8582614d6b565b9450614e098361537a565b925060208a01995050600181019050614de5565b50829750879550505050505092915050565b6000614e3a82615359565b614e4481856153b2565b935083602082028501614e5685615319565b8060005b85811015614e925784840389528151614e738582614d7f565b9450614e7e83615387565b925060208a01995050600181019050614e5a565b50829750879550505050505092915050565b6000614eaf82615364565b614eb981856153c3565b9350614ec483615329565b8060005b83811015614ef5578151614edc8882614d93565b9750614ee783615394565b925050600181019050614ec8565b5085935050505092915050565b6000614f0d82615364565b614f1781856153d4565b9350614f2283615329565b8060005b83811015614f53578151614f3a8882614d93565b9750614f4583615394565b925050600181019050614f26565b5085935050505092915050565b614f698161552e565b82525050565b6000614f7a8261536f565b614f8481856153e5565b9350614f94818560208601615573565b614f9d81615769565b840191505092915050565b6000614fb38261536f565b614fbd81856153f6565b9350614fcd818560208601615573565b614fd681615769565b840191505092915050565b60008154614fee816155d0565b614ff881866153f6565b94506001821660008114615013576001811461502557615058565b60ff1983168652602086019350615058565b61502e85615339565b60005b8381101561505057815481890152600182019150602081019050615031565b808801955050505b50505092915050565b6000604083016000830151848203600086015261507e8282614f6f565b915050602083015184820360208601526150988282614ea4565b9150508091505092915050565b6150ae8161555a565b82525050565b6150bd8161555a565b82525050565b60006020820190506150d86000830184614dab565b92915050565b600060208201905081810360008301526150f88184614dba565b905092915050565b6000602082019050818103600083015261511a8184614e2f565b905092915050565b60006020820190506151376000830184614f60565b92915050565b60006040820190506151526000830185614f60565b61515f60208301846150b4565b9392505050565b600060208201905081810360008301526151808184614fa8565b905092915050565b600060208201905081810360008301526151a28184614fe1565b905092915050565b600060408201905081810360008301526151c48185614fe1565b90506151d36020830184614dab565b9392505050565b60006020820190506151ef60008301846150b4565b92915050565b600060808201905061520a60008301876150b4565b61521760208301866150b4565b81810360408301526152298185614f02565b905061523860608301846150b4565b95945050505050565b600061524b61525c565b90506152578282615602565b919050565b6000604051905090565b600067ffffffffffffffff8211156152815761528061573a565b5b602082029050919050565b600067ffffffffffffffff8211156152a7576152a661573a565b5b602082029050919050565b600067ffffffffffffffff8211156152cd576152cc61573a565b5b602082029050919050565b600067ffffffffffffffff8211156152f3576152f261573a565b5b6152fc82615769565b9050602081019050919050565b6000819050602082019050919050565b6000819050602082019050919050565b6000819050602082019050919050565b60008190508160005260206000209050919050565b600081519050919050565b600081519050919050565b600081519050919050565b600081519050919050565b6000602082019050919050565b6000602082019050919050565b6000602082019050919050565b600082825260208201905092915050565b600082825260208201905092915050565b600082825260208201905092915050565b600082825260208201905092915050565b600082825260208201905092915050565b600082825260208201905092915050565b60006154128261555a565b915061541d8361555a565b9250827fffffffffffffffffffffffffffffffffffffffffffffffffffffffffffffffff03821115615452576154516156ad565b5b828201905092915050565b60006154688261555a565b91506154738361555a565b925082615483576154826156dc565b5b828204905092915050565b60006154998261555a565b91506154a48361555a565b9250817fffffffffffffffffffffffffffffffffffffffffffffffffffffffffffffffff04831182151516156154dd576154dc6156ad565b5b828202905092915050565b60006154f38261555a565b91506154fe8361555a565b925082821015615511576155106156ad565b5b828203905092915050565b60006155278261553a565b9050919050565b60008115159050919050565b600073ffffffffffffffffffffffffffffffffffffffff82169050919050565b6000819050919050565b82818337600083830152505050565b60005b83811015615591578082015181840152602081019050615576565b838111156155a0576000848401525b50505050565b60006155b18261555a565b915060008214156155c5576155c46156ad565b5b600182039050919050565b600060028204905060018216806155e857607f821691505b602082108114156155fc576155fb61570b565b5b50919050565b61560b82615769565b810181811067ffffffffffffffff8211171561562a5761562961573a565b5b80604052505050565b600061563e8261555a565b91507fffffffffffffffffffffffffffffffffffffffffffffffffffffffffffffffff821415615671576156706156ad565b5b600182019050919050565b60006156878261555a565b91506156928361555a565b9250826156a2576156a16156dc565b5b828206905092915050565b7f4e487b7100000000000000000000000000000000000000000000000000000000600052601160045260246000fd5b7f4e487b7100000000000000000000000000000000000000000000000000000000600052601260045260246000fd5b7f4e487b7100000000000000000000000000000000000000000000000000000000600052602260045260246000fd5b7f4e487b7100000000000000000000000000000000000000000000000000000000600052604160045260246000fd5b6000601f19601f8301169050919050565b6157838161551c565b811461578e57600080fd5b50565b61579a8161555a565b81146157a557600080fd5b5056fea26469706673582212209112a83869596e4ab0f5ccf1bda703f1b5c2869b265eb37eaa0ec81f28dfa6e164736f6c63430008040033",
  "immutableReferences": {},
  "source": "pragma solidity ^0.8.0;\n\nimport \"./MiMC.sol\";\nimport \"./verifier.sol\";\nimport \"./utility.sol\";\n\n\ncontract Election is Verifier {\n    struct Candidate {\n        string name;\n        uint[] votes; /* A list of encrypted vote values for this candidate */\n    }\n    /* Each address in Address Space is mapped to an empty Voter struct with default values */\n    struct Voter {\n        bool authorized; /* So an owner has control over which public addresses may invoke functions */\n        uint weight; /* The on-chain calculated weight of the voter*/\n    }\n    string public name;\n    address public owner;\n    uint public activeVoters;\n    uint public voteCount;\n    uint[] public identifiers;\n    //@TODO: Convert state variable to enum or int for comparison in require\n    string public currentState;\n    // Key: Address, Value: Voter \n    //i.e Map a Voter object to ALL addresses\n    mapping(address => Voter) public voters;\n    uint256[] public voteKeyArray;\n    uint256[] public merkleArray;\n    Candidate[] public candidates;\n    uint256 public merkleRoot;\n    /* The election starters public key */\n    uint public terminateElection;\n    /* Everytime the stage transitions, an announcement is made to all suscribers.\n    STATES: VOTEKEY-GENERATION => VOTE => END */\n    event AnnounceNewStage(string stage);\n    /* Everytime a vote is executed, this event is logged onto the block. Currently the voters public address is shown next to the candidate they voted\n    for, in future updates this address will be replaced by a ZKP */\n    event AnnounceVote(string candidate, address proofOfMembership);\n    /* Emit an event every time a vote tally is called. */\n    event AnnounceResult(string candidate, uint[] tallyCount);\n    /* Create an Event each time the owner authorizes a voter */\n    event AnnounceAuth(address authorizedUser);\n    event AnnounceValidProof(bool x);\n    event Debug(uint256 s);\n    /* Called only when contract is created, contract compiler is the owner */\n    constructor(){\n        owner = msg.sender;\n    }\n    /* Used to generate a Merkle Tree from the list of current Vote Keys\n    * Adjusts to next power of 2 and fills dummy voteKeys to satisfy\n    * Merkle Binary properties. For simplicity during testing, voting takes place with exactly 4\n    * voters so this method is not employed. (If you are using this feature, you should\n    * also integrate Generic Functions in the circuit proof. Something I may add\n    * later on. (see BONUS in the README.md)) \n    GAS COST EST: 300k */\n    function createMerkleArray() public {\n        /* Guarantee that a valid merkle tree can be constructed with the given nodes*/\n        //assert(voteKeyArray.length >= 2);\n        uint pow = 1; bool isPowerOf2 = false;\n        uint tempVal =0;\n        /* Find the power of 2 closest or equal to the length, if equal do nothing */\n        while(pow <= voteKeyArray.length){ if(pow == voteKeyArray.length) { isPowerOf2 = true; break; } else { pow = pow *2; } }\n        /* If index isn't a power of two, we pump it with static public vote keys */\n        while(pow != voteKeyArray.length && isPowerOf2 == false){ voteKeyArray.push(1337); pow--; }\n        /* For each voteKey struct present, transfer the hashed value into the Merkle Array */\n        for(uint i =0; i < voteKeyArray.length; i++){\n            //leaf = MiMC.MiMC_Hash([voteKeyArray[i],voteKeyArray[i+1]]);\n            tempVal = voteKeyArray[i];\n            merkleArray.push(tempVal);\n        }\n        uint nodeCount=0;\n        uint n = voteKeyArray.length;\n        /* While there are still nodes to traverse*/\n\n        uint256[] memory x = new uint[](2); //Should be statically defined\n          while (n > 0) {\n            /* Each iteration covers one layer of the tree. Starting with the original voteKey values */\n            for (uint offset = 0; offset < n - 1; offset+=2) { //Offset is the number of nodes operated on within the scope of the iteration\n                /* Pair-hash neighbouring nodes and move forward by two steps*/\n                /* Transfer values from the appropiate index (nodes already covered + offset)*/\n                x[0] = merkleArray[nodeCount + offset];\n                x[1] = merkleArray[nodeCount + offset + 1];\n                /* Combine both nodes using MiMC Hash and push to the array as a Parent*/\n                merkleArray.push(MiMC.MiMC_Hash(x));\n            }\n            /* Add the count of this new layer to our total node count*/\n            nodeCount += n;\n            /* Div2 will get us to the next layer count, due to the nice properties of Binary Trees and Powers of 2 we can just div*/\n            n = n / 2;\n            if(n <= 0){ //next while wont occur. The offset at this point is the number of nodes in the tree\n            }\n        }\n        merkleRoot = merkleArray[merkleArray.length-1];\n        /* merkleArray now contains all nodes, ordered by indexing of layer size. i.e 8 voteKeys => index [0..7], 4 parent nodes produced => index [8..11], 2 nodes produced => index [12..13], Merkle Root => index [14]*/\n        currentState = \"VOTING-OPEN\";\n        emit AnnounceNewStage(currentState); \n    }\n    /* Use Case (DApp)\n    When a user inputs a secret key (SK) and clicks the 'Join Vote' button,\n    SK is locally hashed using MiMC before being sent as a VOTE KEY\n    The user is only able to push 1 vote-key per public address (to prevent double-registration) */\n    function pushVoteKey(string memory str) public {\n        uint256 voteKey = utility.stringToUint(str);\n        /* check double-vote and if votekey generation stage is active*/\n       // require(currentState == \"VOTEKEY-GENERATION\");\n        /* Make sure that an authorized Node is registering this Vote Key*/\n        require(voters[msg.sender].authorized == true);\n        voteKeyArray.push(voteKey);\n        activeVoters++;\n        /* Check if our voter count has reached 4\n        * This implementation CAN be extended to generic numbers\n        * if the zokrates circuit is configured using Generic Functions\n        * Contact r.jafri@student.rug.nl if you need help with this\n        */\n        if(activeVoters == 4) { \n            createMerkleArray();\n        }\n        emit Debug(voteKey);\n    }   \n    function conductElection(string memory inputName, string memory candidateA, string  memory candidateB) public  {\n        //require(treeDepth >= 1 && treeDepth <= 33); //33 is the maximum depth of the tree allowed\n        //publicKey = pubKey; /* Serialization of Public Key class as a string, Client may de-serialize for encryption*/\n       // publicKey.push(n); publicKey.push(g);\n        owner = msg.sender;\n        name = inputName;\n        uint256[] memory empty;\n        candidates.push(Candidate(candidateA,empty));\n        candidates.push(Candidate(candidateB,empty));\n        voteCount=0;\n        currentState = \"VOTEKEY-GENERATION\";\n        emit AnnounceNewStage(currentState);\n    }\n     /* \n     * Input: ZK Proof bytes\n     * Checks for double-vote using identifier array\n     * Asserts that ZK-Proof is Valid\n     * Adds the Voters Identifier to the Candidates Votes\n     */ \n     function submitVote( uint[2] memory a,\n            uint[2][2] memory b,\n            uint[2] memory c, uint[4] memory input, uint voteVal) public {\n        for(uint i=0; i < voteCount; i++){\n            if(input[0] == identifiers[i]){\n                revert();\n            }\n        }\n         /*Verify if Voting process is active*/\n        //require(currentState == \"VOTING-OPEN\");\n        /* Verify the Proof of Membership */\n        bool x  = verifyTx(a, b, c, input);\n        assert(x);\n        emit AnnounceValidProof(x);\n       /*     //Candidate Index = voteVal, Unique Identifier = input[0]*/\n            candidates[voteVal].votes.push(input[0]);\n            identifiers.push(input[0]);\n            voteCount++;\n            /* Emit an event on the block to notify a new vote */\n            emit AnnounceVote(candidates[voteVal].name, msg.sender);\n            if(activeVoters == voteCount){ currentState = \"END\"; emit AnnounceNewStage(currentState);}\n        \n    } \n    /* \n    * Election owner needs to authorize node addresses that \n    * are allowed to register to vote. This may be individual\n    * user addresses or pre-allocated voting systems.\n    */\n    function authorize(address nodeAddress) public {\n        require(msg.sender == owner);\n        voters[nodeAddress].authorized = true;\n        calculateVoteWeight(nodeAddress);\n        emit AnnounceAuth(nodeAddress);\n        \n    }\n    /* You may alter the vote weight according to your program specifications\n    * We take a basic example of equal voting weights for each user.\n    */\n    function calculateVoteWeight(address citizen) private {\n        voters[citizen].weight = 1;\n    }\n    /* ====================== HELPER FUNCTIONS ====================*/\n    /* \n    * Used by the DApp to retrieve information needed to\n    * compute a path to the Merkle Root locally. \n    */\n    function getMerkleInfo(string memory str) public view returns(uint256 targetIndex, uint256 firstLayerSize, uint256 [] memory entireMerkleArray, uint256 mkRoot) {\n    \tuint index = 1337;\n        uint256 voteKey = utility.stringToUint(str);\n    \tfor(uint i =0; i< merkleArray.length; i++){\n    \t\tif(voteKey == merkleArray[i]){\n    \t\t index = i;\n    \t\t/* From i till N, move up a layer, find appropiate index*/\n    \t\t}\n    \t}\n    \trequire(index != 1337);\n    \treturn (index, voteKeyArray.length, merkleArray, merkleArray[merkleArray.length-1]);\n    }\n    /* \n    * Used by the DApp to retrieve candidate information \n    */\n    function getCandidates() public view returns(string[] memory){\n        string[] memory result = new string[](candidates.length);\n        for(uint i=0; i<candidates.length; i++){\n            result[i]= (candidates[i].name);\n        }\n        return result;\n    }\n    /* \n    * Used by the DApp to retrieve information for self-tallying\n    */\n    function getTally() public view returns(Candidate[] memory candidateResult){\n        return candidates;\n    }\n}\n",
  "sourcePath": "/home/rayyan808/Documents/Github/Bsc Project Git/bsc-project/bsc-project/contracts/Election.sol",
  "compiler": {
    "name": "solc",
    "version": "0.8.4+commit.c7e474f2.Emscripten.clang"
  },
  "schemaVersion": "3.4.0",
  "updatedAt": "2021-08-01T20:49:54.592Z",
  "networkType": "ethereum",
  "devdoc": {
    "kind": "dev",
    "methods": {},
    "version": 1
  },
  "userdoc": {
    "kind": "user",
    "methods": {},
    "version": 1
  }
}