{
  "contractName": "Election",
  "abi": [
    {
      "inputs": [],
      "stateMutability": "nonpayable",
      "type": "constructor"
    },
    {
      "anonymous": false,
      "inputs": [
        {
          "indexed": false,
          "internalType": "address",
          "name": "authorizedUser",
          "type": "address"
        }
      ],
      "name": "AnnounceAuth",
      "type": "event"
    },
    {
      "anonymous": false,
      "inputs": [
        {
          "indexed": false,
          "internalType": "string",
          "name": "stage",
          "type": "string"
        }
      ],
      "name": "AnnounceNewStage",
      "type": "event"
    },
    {
      "anonymous": false,
      "inputs": [
        {
          "indexed": false,
          "internalType": "string",
          "name": "candidate",
          "type": "string"
        },
        {
          "indexed": false,
          "internalType": "uint256[]",
          "name": "tallyCount",
          "type": "uint256[]"
        }
      ],
      "name": "AnnounceResult",
      "type": "event"
    },
    {
      "anonymous": false,
      "inputs": [
        {
          "indexed": false,
          "internalType": "bool",
          "name": "x",
          "type": "bool"
        }
      ],
      "name": "AnnounceValidProof",
      "type": "event"
    },
    {
      "anonymous": false,
      "inputs": [
        {
          "indexed": false,
          "internalType": "string",
          "name": "candidate",
          "type": "string"
        },
        {
          "indexed": false,
          "internalType": "address",
          "name": "proofOfMembership",
          "type": "address"
        }
      ],
      "name": "AnnounceVote",
      "type": "event"
    },
    {
      "anonymous": false,
      "inputs": [
        {
          "indexed": false,
          "internalType": "uint256",
          "name": "s",
          "type": "uint256"
        }
      ],
      "name": "Debug",
      "type": "event"
    },
    {
      "inputs": [],
      "name": "activeVoters",
      "outputs": [
        {
          "internalType": "uint256",
          "name": "",
          "type": "uint256"
        }
      ],
      "stateMutability": "view",
      "type": "function"
    },
    {
      "inputs": [
        {
          "internalType": "uint256",
          "name": "",
          "type": "uint256"
        }
      ],
      "name": "candidates",
      "outputs": [
        {
          "internalType": "string",
          "name": "name",
          "type": "string"
        }
      ],
      "stateMutability": "view",
      "type": "function"
    },
    {
      "inputs": [],
      "name": "currentState",
      "outputs": [
        {
          "internalType": "string",
          "name": "",
          "type": "string"
        }
      ],
      "stateMutability": "view",
      "type": "function"
    },
    {
      "inputs": [
        {
          "internalType": "uint256",
          "name": "",
          "type": "uint256"
        }
      ],
      "name": "identifiers",
      "outputs": [
        {
          "internalType": "uint256",
          "name": "",
          "type": "uint256"
        }
      ],
      "stateMutability": "view",
      "type": "function"
    },
    {
      "inputs": [
        {
          "internalType": "uint256",
          "name": "",
          "type": "uint256"
        }
      ],
      "name": "merkleArray",
      "outputs": [
        {
          "internalType": "uint256",
          "name": "",
          "type": "uint256"
        }
      ],
      "stateMutability": "view",
      "type": "function"
    },
    {
      "inputs": [],
      "name": "merkleRoot",
      "outputs": [
        {
          "internalType": "uint256",
          "name": "",
          "type": "uint256"
        }
      ],
      "stateMutability": "view",
      "type": "function"
    },
    {
      "inputs": [],
      "name": "name",
      "outputs": [
        {
          "internalType": "string",
          "name": "",
          "type": "string"
        }
      ],
      "stateMutability": "view",
      "type": "function"
    },
    {
      "inputs": [],
      "name": "owner",
      "outputs": [
        {
          "internalType": "address",
          "name": "",
          "type": "address"
        }
      ],
      "stateMutability": "view",
      "type": "function"
    },
    {
      "inputs": [],
      "name": "terminateElection",
      "outputs": [
        {
          "internalType": "uint256",
          "name": "",
          "type": "uint256"
        }
      ],
      "stateMutability": "view",
      "type": "function"
    },
    {
      "inputs": [
        {
          "internalType": "uint256[2]",
          "name": "a",
          "type": "uint256[2]"
        },
        {
          "internalType": "uint256[2][2]",
          "name": "b",
          "type": "uint256[2][2]"
        },
        {
          "internalType": "uint256[2]",
          "name": "c",
          "type": "uint256[2]"
        },
        {
          "internalType": "uint256[4]",
          "name": "input",
          "type": "uint256[4]"
        }
      ],
      "name": "verifyTx",
      "outputs": [
        {
          "internalType": "bool",
          "name": "r",
          "type": "bool"
        }
      ],
      "stateMutability": "view",
      "type": "function"
    },
    {
      "inputs": [],
      "name": "voteCount",
      "outputs": [
        {
          "internalType": "uint256",
          "name": "",
          "type": "uint256"
        }
      ],
      "stateMutability": "view",
      "type": "function"
    },
    {
      "inputs": [
        {
          "internalType": "uint256",
          "name": "",
          "type": "uint256"
        }
      ],
      "name": "voteKeyArray",
      "outputs": [
        {
          "internalType": "uint256",
          "name": "",
          "type": "uint256"
        }
      ],
      "stateMutability": "view",
      "type": "function"
    },
    {
      "inputs": [
        {
          "internalType": "address",
          "name": "",
          "type": "address"
        }
      ],
      "name": "voters",
      "outputs": [
        {
          "internalType": "bool",
          "name": "authorized",
          "type": "bool"
        },
        {
          "internalType": "uint256",
          "name": "weight",
          "type": "uint256"
        }
      ],
      "stateMutability": "view",
      "type": "function"
    },
    {
      "inputs": [],
      "name": "createMerkleArray",
      "outputs": [],
      "stateMutability": "nonpayable",
      "type": "function"
    },
    {
      "inputs": [
        {
          "internalType": "string",
          "name": "str",
          "type": "string"
        }
      ],
      "name": "pushVoteKey",
      "outputs": [],
      "stateMutability": "nonpayable",
      "type": "function"
    },
    {
      "inputs": [
        {
          "internalType": "string",
          "name": "inputName",
          "type": "string"
        },
        {
          "internalType": "string",
          "name": "candidateA",
          "type": "string"
        },
        {
          "internalType": "string",
          "name": "candidateB",
          "type": "string"
        }
      ],
      "name": "conductElection",
      "outputs": [],
      "stateMutability": "nonpayable",
      "type": "function"
    },
    {
      "inputs": [
        {
          "internalType": "uint256[2]",
          "name": "a",
          "type": "uint256[2]"
        },
        {
          "internalType": "uint256[2][2]",
          "name": "b",
          "type": "uint256[2][2]"
        },
        {
          "internalType": "uint256[2]",
          "name": "c",
          "type": "uint256[2]"
        },
        {
          "internalType": "uint256[4]",
          "name": "input",
          "type": "uint256[4]"
        },
        {
          "internalType": "uint256",
          "name": "voteVal",
          "type": "uint256"
        }
      ],
      "name": "submitVote",
      "outputs": [],
      "stateMutability": "nonpayable",
      "type": "function"
    },
    {
      "inputs": [
        {
          "internalType": "address",
          "name": "nodeAddress",
          "type": "address"
        }
      ],
      "name": "authorize",
      "outputs": [],
      "stateMutability": "nonpayable",
      "type": "function"
    },
    {
      "inputs": [
        {
          "internalType": "string",
          "name": "str",
          "type": "string"
        }
      ],
      "name": "getMerkleInfo",
      "outputs": [
        {
          "internalType": "uint256",
          "name": "targetIndex",
          "type": "uint256"
        },
        {
          "internalType": "uint256",
          "name": "firstLayerSize",
          "type": "uint256"
        },
        {
          "internalType": "uint256[]",
          "name": "entireMerkleArray",
          "type": "uint256[]"
        },
        {
          "internalType": "uint256",
          "name": "mkRoot",
          "type": "uint256"
        }
      ],
      "stateMutability": "view",
      "type": "function"
    },
    {
      "inputs": [],
      "name": "getCandidates",
      "outputs": [
        {
          "internalType": "string[]",
          "name": "",
          "type": "string[]"
        }
      ],
      "stateMutability": "view",
      "type": "function"
    },
    {
      "inputs": [],
      "name": "getTally",
      "outputs": [
        {
          "components": [
            {
              "internalType": "string",
              "name": "name",
              "type": "string"
            },
            {
              "internalType": "uint256[]",
              "name": "votes",
              "type": "uint256[]"
            }
          ],
          "internalType": "struct Election.Candidate[]",
          "name": "candidateResult",
          "type": "tuple[]"
        }
      ],
      "stateMutability": "view",
      "type": "function"
    }
  ],
  "bytecode": "0x608060405234801561001057600080fd5b5033600160006101000a81548173ffffffffffffffffffffffffffffffffffffffff021916908373ffffffffffffffffffffffffffffffffffffffff16021790555061577e80620000626000396000f3fe608060405234801561001057600080fd5b50600436106101375760003560e01c80633477ee2e116100b8578063a3ec138d1161007c578063a3ec138d14610341578063b4f3b1ca14610372578063b6a5d7de14610390578063bb314cd8146103ac578063c6384071146103ca578063e4e1eaa8146103e857610137565b80633477ee2e1461029b57806353b2b8d6146102cb5780637e469868146102e95780637e95b5e9146103195780638da5cb5b1461032357610137565b806317de5836116100ff57806317de5836146101e557806326222ea3146102155780632894190f1461023157806328f2d4da1461024d5780632eb4a7ab1461027d57610137565b806306a49fce1461013c57806306fdde031461015a57806309709a7d146101785780630990248b146101ab5780630c3f6acf146101c7575b600080fd5b610144610418565b604051610151919061507e565b60405180910390f35b6101626105da565b60405161016f9190615106565b60405180910390f35b610192600480360381019061018d9190614c0a565b610668565b6040516101a29493929190615195565b60405180910390f35b6101c560048036038101906101c09190614c0a565b6107c6565b005b6101cf610863565b6040516101dc9190615106565b60405180910390f35b6101ff60048036038101906101fa9190614b2b565b6108f1565b60405161020c91906150c2565b60405180910390f35b61022f600480360381019061022a9190614c4b565b610da5565b005b61024b60048036038101906102469190614b90565b610f89565b005b61026760048036038101906102629190614ce2565b6112ff565b604051610274919061517a565b60405180910390f35b610285611323565b604051610292919061517a565b60405180910390f35b6102b560048036038101906102b09190614ce2565b611329565b6040516102c29190615106565b60405180910390f35b6102d36113df565b6040516102e091906150a0565b60405180910390f35b61030360048036038101906102fe9190614ce2565b611528565b604051610310919061517a565b60405180910390f35b61032161154c565b005b61032b6119a5565b6040516103389190615063565b60405180910390f35b61035b60048036038101906103569190614b02565b6119cb565b6040516103699291906150dd565b60405180910390f35b61037a6119fc565b604051610387919061517a565b60405180910390f35b6103aa60048036038101906103a59190614b02565b611a02565b005b6103b4611afa565b6040516103c1919061517a565b60405180910390f35b6103d2611b00565b6040516103df919061517a565b60405180910390f35b61040260048036038101906103fd9190614ce2565b611b06565b60405161040f919061517a565b60405180910390f35b6060600060098054905067ffffffffffffffff811115610461577f4e487b7100000000000000000000000000000000000000000000000000000000600052604160045260246000fd5b60405190808252806020026020018201604052801561049457816020015b606081526020019060019003908161047f5790505b50905060005b6009805490508110156105d257600981815481106104e1577f4e487b7100000000000000000000000000000000000000000000000000000000600052603260045260246000fd5b906000526020600020906002020160000180546104fd90615570565b80601f016020809104026020016040519081016040528092919081815260200182805461052990615570565b80156105765780601f1061054b57610100808354040283529160200191610576565b820191906000526020600020905b81548152906001019060200180831161055957829003601f168201915b50505050508282815181106105b4577f4e487b7100000000000000000000000000000000000000000000000000000000600052603260045260246000fd5b602002602001018190525080806105ca906155d3565b91505061049a565b508091505090565b600080546105e790615570565b80601f016020809104026020016040519081016040528092919081815260200182805461061390615570565b80156106605780601f1061063557610100808354040283529160200191610660565b820191906000526020600020905b81548152906001019060200180831161064357829003601f168201915b505050505081565b60008060606000806105399050600061068087611b2a565b905060005b6008805490508110156106f557600881815481106106cc577f4e487b7100000000000000000000000000000000000000000000000000000000600052603260045260246000fd5b90600052602060002001548214156106e2578092505b80806106ed906155d3565b915050610685565b5061053982141561070557600080fd5b8160078054905060088060016008805490506107219190615488565b81548110610758577f4e487b7100000000000000000000000000000000000000000000000000000000600052603260045260246000fd5b9060005260206000200154818054806020026020016040519081016040528092919081815260200182805480156107ae57602002820191906000526020600020905b81548152602001906001019080831161079a575b50505050509150955095509550955050509193509193565b60006107d182611b2a565b905060078190806001815401808255809150506001900390600052602060002001600090919091909150556002600081548092919061080f906155d3565b9190505550600460025414156108285761082761154c565b5b7f8a36f5a234186d446e36a7df36ace663a05a580d9bea2dd899c6dd76a075d5fa81604051610857919061517a565b60405180910390a15050565b6005805461087090615570565b80601f016020809104026020016040519081016040528092919081815260200182805461089c90615570565b80156108e95780601f106108be576101008083540402835291602001916108e9565b820191906000526020600020905b8154815290600101906020018083116108cc57829003601f168201915b505050505081565b60006108fb6146a0565b604051806040016040528087600060028110610940577f4e487b7100000000000000000000000000000000000000000000000000000000600052603260045260246000fd5b6020020151815260200187600160028110610984577f4e487b7100000000000000000000000000000000000000000000000000000000600052603260045260246000fd5b6020020151815250816000018190525060405180604001604052806040518060400160405280886000600281106109e4577f4e487b7100000000000000000000000000000000000000000000000000000000600052603260045260246000fd5b6020020151600060028110610a22577f4e487b7100000000000000000000000000000000000000000000000000000000600052603260045260246000fd5b6020020151815260200188600060028110610a66577f4e487b7100000000000000000000000000000000000000000000000000000000600052603260045260246000fd5b6020020151600160028110610aa4577f4e487b7100000000000000000000000000000000000000000000000000000000600052603260045260246000fd5b60200201518152508152602001604051806040016040528088600160028110610af6577f4e487b7100000000000000000000000000000000000000000000000000000000600052603260045260246000fd5b6020020151600060028110610b34577f4e487b7100000000000000000000000000000000000000000000000000000000600052603260045260246000fd5b6020020151815260200188600160028110610b78577f4e487b7100000000000000000000000000000000000000000000000000000000600052603260045260246000fd5b6020020151600160028110610bb6577f4e487b7100000000000000000000000000000000000000000000000000000000600052603260045260246000fd5b60200201518152508152508160200181905250604051806040016040528085600060028110610c0e577f4e487b7100000000000000000000000000000000000000000000000000000000600052603260045260246000fd5b6020020151815260200185600160028110610c52577f4e487b7100000000000000000000000000000000000000000000000000000000600052603260045260246000fd5b602002015181525081604001819052506000600467ffffffffffffffff811115610ca5577f4e487b7100000000000000000000000000000000000000000000000000000000600052604160045260246000fd5b604051908082528060200260200182016040528015610cd35781602001602082028036833780820191505090505b50905060005b6004811015610d7857848160048110610d1b577f4e487b7100000000000000000000000000000000000000000000000000000000600052603260045260246000fd5b6020020151828281518110610d59577f4e487b7100000000000000000000000000000000000000000000000000000000600052603260045260246000fd5b6020026020010181815250508080610d70906155d3565b915050610cd9565b506000610d858284611bea565b1415610d9657600192505050610d9d565b6000925050505b949350505050565b33600160006101000a81548173ffffffffffffffffffffffffffffffffffffffff021916908373ffffffffffffffffffffffffffffffffffffffff1602179055508260009080519060200190610dfc9291906146d3565b506060600960405180604001604052808581526020018381525090806001815401808255809150506001900390600052602060002090600202016000909190919091506000820151816000019080519060200190610e5b9291906146d3565b506020820151816001019080519060200190610e78929190614759565b505050600960405180604001604052808481526020018381525090806001815401808255809150506001900390600052602060002090600202016000909190919091506000820151816000019080519060200190610ed79291906146d3565b506020820151816001019080519060200190610ef4929190614759565b50505060006003819055506040518060400160405280601281526020017f564f54454b45592d47454e45524154494f4e000000000000000000000000000081525060059080519060200190610f4a9291906146d3565b507fb712ca18858a18cb63ef75fe8c737e3ad52062d7389284fd4ecb4524da24e0906005604051610f7b9190615128565b60405180910390a150505050565b60005b6003548110156110385760048181548110610fd0577f4e487b7100000000000000000000000000000000000000000000000000000000600052603260045260246000fd5b906000526020600020015483600060048110611015577f4e487b7100000000000000000000000000000000000000000000000000000000600052603260045260246000fd5b6020020151141561102557600080fd5b8080611030906155d3565b915050610f8c565b506000611047868686866108f1565b90508061107d577f4e487b7100000000000000000000000000000000000000000000000000000000600052600160045260246000fd5b7f8671313620ae44244991604d4943e3aba1e86b7cf6530358ba0e5b02662094ac816040516110ac91906150c2565b60405180910390a1600982815481106110ee577f4e487b7100000000000000000000000000000000000000000000000000000000600052603260045260246000fd5b906000526020600020906002020160010183600060048110611139577f4e487b7100000000000000000000000000000000000000000000000000000000600052603260045260246000fd5b602002015190806001815401808255809150506001900390600052602060002001600090919091909150556004836000600481106111a0577f4e487b7100000000000000000000000000000000000000000000000000000000600052603260045260246000fd5b60200201519080600181540180825580915050600190039060005260206000200160009091909190915055600360008154809291906111de906155d3565b91905055507f8c4bbf432c3f9c3348d45700f436aa13af99743d19b100361cbcf36e76e443296009838154811061123e577f4e487b7100000000000000000000000000000000000000000000000000000000600052603260045260246000fd5b90600052602060002090600202016000013360405161125e92919061514a565b60405180910390a160035460025414156112f7576040518060400160405280600381526020017f454e440000000000000000000000000000000000000000000000000000000000815250600590805190602001906112bd9291906146d3565b507fb712ca18858a18cb63ef75fe8c737e3ad52062d7389284fd4ecb4524da24e09060056040516112ee9190615128565b60405180910390a15b505050505050565b6004818154811061130f57600080fd5b906000526020600020016000915090505481565b600a5481565b6009818154811061133957600080fd5b906000526020600020906002020160009150905080600001805461135c90615570565b80601f016020809104026020016040519081016040528092919081815260200182805461138890615570565b80156113d55780601f106113aa576101008083540402835291602001916113d5565b820191906000526020600020905b8154815290600101906020018083116113b857829003601f168201915b5050505050905081565b60606009805480602002602001604051908101604052809291908181526020016000905b8282101561151f578382906000526020600020906002020160405180604001604052908160008201805461143690615570565b80601f016020809104026020016040519081016040528092919081815260200182805461146290615570565b80156114af5780601f10611484576101008083540402835291602001916114af565b820191906000526020600020905b81548152906001019060200180831161149257829003601f168201915b505050505081526020016001820180548060200260200160405190810160405280929190818152602001828054801561150757602002820191906000526020600020905b8154815260200190600101908083116114f3575b50505050508152505081526020019060010190611403565b50505050905090565b6007818154811061153857600080fd5b906000526020600020016000915090505481565b6000600190506000805b600780549050831161158c57600780549050831415611578576001915061158c565b600283611585919061542e565b9250611556565b5b60078054905083141580156115a6575060001515821515145b156115e9576007610539908060018154018082558091505060019003906000526020600020016000909190919091505582806115e190615546565b93505061158d565b60005b60078054905081101561167c5760078181548110611633577f4e487b7100000000000000000000000000000000000000000000000000000000600052603260045260246000fd5b9060005260206000200154915060088290806001815401808255809150506001900390600052602060002001600090919091909150558080611674906155d3565b9150506115ec565b5060008060078054905090506000600267ffffffffffffffff8111156116cb577f4e487b7100000000000000000000000000000000000000000000000000000000600052604160045260246000fd5b6040519080825280602002602001820160405280156116f95781602001602082028036833780820191505090505b5090505b60008211156118bd5760005b6001836117169190615488565b81101561189a576008818561172b91906153a7565b81548110611762577f4e487b7100000000000000000000000000000000000000000000000000000000600052603260045260246000fd5b9060005260206000200154826000815181106117a7577f4e487b7100000000000000000000000000000000000000000000000000000000600052603260045260246000fd5b6020026020010181815250506008600182866117c391906153a7565b6117cd91906153a7565b81548110611804577f4e487b7100000000000000000000000000000000000000000000000000000000600052603260045260246000fd5b906000526020600020015482600181518110611849577f4e487b7100000000000000000000000000000000000000000000000000000000600052603260045260246000fd5b602002602001018181525050600861186083611e19565b908060018154018082558091505060019003906000526020600020016000909190919091505560028161189391906153a7565b9050611709565b5081836118a791906153a7565b92506002826118b691906153fd565b91506116fd565b600860016008805490506118d19190615488565b81548110611908577f4e487b7100000000000000000000000000000000000000000000000000000000600052603260045260246000fd5b9060005260206000200154600a819055506040518060400160405280600b81526020017f564f54494e472d4f50454e000000000000000000000000000000000000000000815250600590805190602001906119649291906146d3565b507fb712ca18858a18cb63ef75fe8c737e3ad52062d7389284fd4ecb4524da24e09060056040516119959190615128565b60405180910390a1505050505050565b600160009054906101000a900473ffffffffffffffffffffffffffffffffffffffff1681565b60066020528060005260406000206000915090508060000160009054906101000a900460ff16908060010154905082565b600b5481565b600160009054906101000a900473ffffffffffffffffffffffffffffffffffffffff1673ffffffffffffffffffffffffffffffffffffffff163373ffffffffffffffffffffffffffffffffffffffff1614611a5c57600080fd5b6001600660008373ffffffffffffffffffffffffffffffffffffffff1673ffffffffffffffffffffffffffffffffffffffff16815260200190815260200160002060000160006101000a81548160ff021916908315150217905550611ac081611f1c565b7f081ba50acbad95aaf2f3d6ae236a307baad3be11e7c84f2b4a043cfc114ebe3181604051611aef9190615063565b60405180910390a150565b60025481565b60035481565b60088181548110611b1657600080fd5b906000526020600020016000915090505481565b6000808290506000809250600090505b8151811015611be3576000828281518110611b7e577f4e487b7100000000000000000000000000000000000000000000000000000000600052603260045260246000fd5b602001015160f81c60f81b60f81c60ff16905060308110158015611ba3575060398111155b15611bcf57603081611bb59190615488565b600a85611bc2919061542e565b611bcc91906153a7565b93505b508080611bdb906155d3565b915050611b3a565b5050919050565b6000807f30644e72e131a029b85045b68181585d2833e84879b9709143e1f593f000000190506000611c1a611f67565b905080608001515160018651611c3091906153a7565b14611c3a57600080fd5b60006040518060400160405280600081526020016000815250905060005b8651811015611d655783878281518110611c9b577f4e487b7100000000000000000000000000000000000000000000000000000000600052603260045260246000fd5b602002602001015110611cad57600080fd5b611d5082611d4b8560800151600185611cc691906153a7565b81518110611cfd577f4e487b7100000000000000000000000000000000000000000000000000000000600052603260045260246000fd5b60200260200101518a8581518110611d3e577f4e487b7100000000000000000000000000000000000000000000000000000000600052603260045260246000fd5b60200260200101516125b7565b6126d0565b91508080611d5d906155d3565b915050611c58565b50611db5818360800151600081518110611da8577f4e487b7100000000000000000000000000000000000000000000000000000000600052603260045260246000fd5b60200260200101516126d0565b9050611dfb85600001518660200151611dcd84612835565b8560400151611ddf8a60400151612835565b8760600151611df18960000151612835565b89602001516128da565b611e0b5760019350505050611e13565b600093505050505b92915050565b6000806000905060007f30644e72e131a029b85045b68181585d2833e84879b9709143e1f593f0000001905060005b8451811015611f115781611e9c868381518110611e8e577f4e487b7100000000000000000000000000000000000000000000000000000000600052603260045260246000fd5b602002602001015185612c23565b868381518110611ed5577f4e487b7100000000000000000000000000000000000000000000000000000000600052603260045260246000fd5b602002602001015185611ee891906153a7565b611ef291906153a7565b611efc919061561c565b92508080611f09906155d3565b915050611e48565b508192505050919050565b6001600660008373ffffffffffffffffffffffffffffffffffffffff1673ffffffffffffffffffffffffffffffffffffffff1681526020019081526020016000206001018190555050565b611f6f6147a6565b60405180604001604052807f246aad5c0aa64a0353f23f3b8c3bba0cca6c08685ec0018a685264185d20513081526020017f02b9ff6ffa29d225a14b285882f58c88f4e2d1a2303887160ec9404ea7cdb71b8152508160000181905250604051806040016040528060405180604001604052807f0ef276f305c0e6f038edbb9e87ffec5a12840b8b5a2bf95c6d511402c3e8ca2781526020017f1787e7759ec1f7f1ab74f01318fc927acd9824172a23acd911f99bf0639d1d3b815250815260200160405180604001604052807f022ed9c1c531838f6d94299a6dc2db255398df406a2cc7ec0cb405c2a620d60f81526020017f1af77b20751f22d9054c5475ece9411dd717ce0d0ea9a304f02fb902c8312a198152508152508160200181905250604051806040016040528060405180604001604052807f24c64a9aafdb23b3d87fff3405253330f3a3d19242b1e47e0f9cb24c7685faa281526020017f114bd474e6523a92a5482161334511a3c66cf914c16cb5bb1675c0d7347bc586815250815260200160405180604001604052807f2b68d585f4110ee9f60524357c554ad1c73d12ca670a5e3bc92945bb42dc7b6581526020017f0c2681847fcf2cb49f5958c5e2a4b1472d49df1740df02dfcfcc19eea097a65a8152508152508160400181905250604051806040016040528060405180604001604052807f1ee034c7f8a10c15d4b4b873fd5813b9baee8b706c15f7e7b41fc25265bbf14c81526020017f0e2c06dd8e335e03010c9f561683323aae26e971ce318041f5fd79911eae2e31815250815260200160405180604001604052807f19efd6cb473402e2b71f002aba9c0c20f345496dc9c8ecc8bd22811d9815bcf481526020017f0974159d20990ab651a937d9df9fea946973f3ceb49065c6f07df1cb0ea439748152508152508160600181905250600567ffffffffffffffff81111561225c577f4e487b7100000000000000000000000000000000000000000000000000000000600052604160045260246000fd5b60405190808252806020026020018201604052801561229557816020015b6122826147ed565b81526020019060019003908161227a5790505b50816080018190525060405180604001604052807f09163663c1a3cfac277b7ce717d8ed03c5d39d1947614bc44d61144e1817cfe581526020017f0e7bd5dec8001c779ce2626bb776435e6ae3bea3baee383bffb4101f6f64da6e8152508160800151600081518110612331577f4e487b7100000000000000000000000000000000000000000000000000000000600052603260045260246000fd5b602002602001018190525060405180604001604052807f2c02fa69eda4ae81dad1701d588729264bac3644f92bda909f0ff5c3cde04ef181526020017f10a90291770a0ff65a6f296b049539b07d1e687f5f3030572e238d2bda16ddf181525081608001516001815181106123cf577f4e487b7100000000000000000000000000000000000000000000000000000000600052603260045260246000fd5b602002602001018190525060405180604001604052807f27c96475b2e3ebbc23c0bf35c089b01f9a956d5273bb29359dae99e02ead72b381526020017f1960581a5ab61da3234504a7f7f7af9f05c4ee8339307ff4ae3dc95ecdd9586b815250816080015160028151811061246d577f4e487b7100000000000000000000000000000000000000000000000000000000600052603260045260246000fd5b602002602001018190525060405180604001604052807f0b2f96bf3c102c09edf386c30b3281938b0d76aa1c23cb6068c392099c6d24f481526020017f2aea9c2e5be215c8d76724888ad778af36ffcce97d150d7613f1eeee207e5ccc815250816080015160038151811061250b577f4e487b7100000000000000000000000000000000000000000000000000000000600052603260045260246000fd5b602002602001018190525060405180604001604052807f118cb4e00d5fa50ec800b269b69cf18cf5e71a241bad1080dea01b73f05f8fde81526020017f22e4965b804454b94ef221a4c1b1aa5e91a6de1beb4434f86699dc46f8f32b7c81525081608001516004815181106125a9577f4e487b7100000000000000000000000000000000000000000000000000000000600052603260045260246000fd5b602002602001018190525090565b6125bf6147ed565b6125c7614807565b836000015181600060038110612606577f4e487b7100000000000000000000000000000000000000000000000000000000600052603260045260246000fd5b60200201818152505083602001518160016003811061264e577f4e487b7100000000000000000000000000000000000000000000000000000000600052603260045260246000fd5b6020020181815250508281600260038110612692577f4e487b7100000000000000000000000000000000000000000000000000000000600052603260045260246000fd5b602002018181525050600060608360808460076107d05a03fa905080600081146126bb576126bd565bfe5b50806126c857600080fd5b505092915050565b6126d86147ed565b6126e0614829565b83600001518160006004811061271f577f4e487b7100000000000000000000000000000000000000000000000000000000600052603260045260246000fd5b602002018181525050836020015181600160048110612767577f4e487b7100000000000000000000000000000000000000000000000000000000600052603260045260246000fd5b6020020181815250508260000151816002600481106127af577f4e487b7100000000000000000000000000000000000000000000000000000000600052603260045260246000fd5b6020020181815250508260200151816003600481106127f7577f4e487b7100000000000000000000000000000000000000000000000000000000600052603260045260246000fd5b602002018181525050600060608360c08460066107d05a03fa9050806000811461282057612822565bfe5b508061282d57600080fd5b505092915050565b61283d6147ed565b60007f30644e72e131a029b85045b68181585d97816a916871ca8d3c208c16d87cfd4790506000836000015114801561287a575060008360200151145b1561289e5760405180604001604052806000815260200160008152509150506128d5565b6040518060400160405280846000015181526020018285602001516128c3919061561c565b836128ce9190615488565b8152509150505b919050565b600080600467ffffffffffffffff81111561291e577f4e487b7100000000000000000000000000000000000000000000000000000000600052604160045260246000fd5b60405190808252806020026020018201604052801561295757816020015b6129446147ed565b81526020019060019003908161293c5790505b5090506000600467ffffffffffffffff81111561299d577f4e487b7100000000000000000000000000000000000000000000000000000000600052604160045260246000fd5b6040519080825280602002602001820160405280156129d657816020015b6129c361484b565b8152602001906001900390816129bb5790505b5090508a82600081518110612a14577f4e487b7100000000000000000000000000000000000000000000000000000000600052603260045260246000fd5b60200260200101819052508882600181518110612a5a577f4e487b7100000000000000000000000000000000000000000000000000000000600052603260045260246000fd5b60200260200101819052508682600281518110612aa0577f4e487b7100000000000000000000000000000000000000000000000000000000600052603260045260246000fd5b60200260200101819052508482600381518110612ae6577f4e487b7100000000000000000000000000000000000000000000000000000000600052603260045260246000fd5b60200260200101819052508981600081518110612b2c577f4e487b7100000000000000000000000000000000000000000000000000000000600052603260045260246000fd5b60200260200101819052508781600181518110612b72577f4e487b7100000000000000000000000000000000000000000000000000000000600052603260045260246000fd5b60200260200101819052508581600281518110612bb8577f4e487b7100000000000000000000000000000000000000000000000000000000600052603260045260246000fd5b60200260200101819052508381600381518110612bfe577f4e487b7100000000000000000000000000000000000000000000000000000000600052603260045260246000fd5b6020026020010181905250612c138282614099565b9250505098975050505050505050565b60007f30644e72e131a029b85045b68181585d2833e84879b9709143e1f593f0000001600080847f2e2ebbb178296b63d88ec198f0976ad98bc1d4eb0d921ddd2eb86cb7e70a98e58701019150828283099050828284858485098409099550847f21bfc154b5b071d22d06105663553801f858c1f231020b4c291a729d6281d3498701019150828283099050828284858485098409099550847f126cfa352b0e2701442b36e0c2fc88287cfd3bfecce842afc0e3e78d8edb4ad88701019150828283099050828284858485098409099550847f0309d7067ab65de1a99fe23f458d0bc3f18c59b6642ef48afc679ef17cb6928c8701019150828283099050828284858485098409099550847f194c4693409966960be88513cfe32987c125f71398a782e44973fb8af4798bd88701019150828283099050828284858485098409099550847f05a849684bc58cc0d6e9f319b4dae26db171733bf60f31d978e41d09a75a63198701019150828283099050828284858485098409099550847f18bd4dae5134538bd2f90d41bbb1e330b2a8286ba4a09aca3fbbdcf932534be58701019150828283099050828284858485098409099550847f0736c60cd39fd1649d4845b4f9a6ec9baca89fb2de0a3d7eeabe43504b5607fa8701019150828283099050828284858485098409099550847f25a6971a9d2c1de9f374378d8f61492b1bd3c46584c076a76c43c3cd1a7475128701019150828283099050828284858485098409099550847f0a3373d15fa6dce221f83226c02d41f8aea5cfc6da4c9f4981ada1bd4b50f56e8701019150828283099050828284858485098409099550847f2b70028e2bf4e008e22eddb78d4190d73c289dc6445b3f64e15f8bd0ec02c6728701019150828283099050828284858485098409099550847f0b24ef461a71eed93dd366342f9ca4eebb749c8a5a6057c801d538c7c0666ba48701019150828283099050828284858485098409099550847f05d1e0ac576d1ec814b621516339ae1a291c7df36b5fd6cf0b4e3c9cd25e30728701019150828283099050828284858485098409099550847f271cfbf88e9744b8596e7e2d6875c8005d0e62014010ac35e95a7ce2390bc50f8701019150828283099050828284858485098409099550847f196309f1d170d741ab1ce90c39772017fb7cdec78c37882b98a6b56956c13def8701019150828283099050828284858485098409099550847f127c1116c575c03c7f6d83417d8c1b3808f92ee16924a54094bf094721e9e4f58701019150828283099050828284858485098409099550847f1bff78047ee67d38a54fdc540f9a2ba07f63489acd36425f1ae210ac329826f58701019150828283099050828284858485098409099550847f06c7dc7bbae615fcf1896f2b8db7d92c05dc1ea1c8134e9db6fd588672c53e9a8701019150828283099050828284858485098409099550847f12df78cba175ef76dbfcc9c785926bb3949a87ec7533e2559a27a64b91cebba58701019150828283099050828284858485098409099550847f2bd4cdc962e3da62cb3c96f7c428a9b0d518bfa7ce26f8fce7a6af769afb65408701019150828283099050828284858485098409099550847f24edd3847febbe44c4cc390246e3379b47fd01a030d0cd0b4fcf7fbd1cabfe588701019150828283099050828284858485098409099550847f1ce065d2c2561bb573e4cf4259d3b0b0e9eacb447751c62b77d0bc5e4e3c7d158701019150828283099050828284858485098409099550847f18053e9f0d45f9eefbda135bfd39329e34837e633565c314fb9030b9db7381bb8701019150828283099050828284858485098409099550847f162ffa8742138bbe516168bf86ec78b1ad1e8b535ac455a7cfbb22c13f9c5a9e8701019150828283099050828284858485098409099550847f079eea42e16ac6442ca82623fc0e8d9ad3996a47a8013ea9cb73858ca42b71598701019150828283099050828284858485098409099550847f0a49af2bbe11b05bd02a69a47b1bad5b2170407ada21142f06e4e109de88a1b68701019150828283099050828284858485098409099550847f12c34eebbaa69cccc36929e8f4a6e40771e153ff77943da55c4fc860537b733a8701019150828283099050828284858485098409099550847e8de5ac6b4e359335b6fce58dc0e5e43fd2aefd86bac35abe579b8cace5dbc88701019150828283099050828284858485098409099550847f04a6e988b50d915734bf3296d83057ffe6a550f8987e4597bee7d333cd24a8658701019150828283099050828284858485098409099550847f24112633926cfc6028fa2ffd9f090b1e5428a0a87d7118356e48b5d4704492178701019150828283099050828284858485098409099550847f0d56329982f3df38a3f19fb814c3013f419ba0eb8403b27c0c0e75c6fe1cf4688701019150828283099050828284858485098409099550847f1f01ef80763c95f53c434164493d9673aeef290bf1aa1997d677b557b9692e8a8701019150828283099050828284858485098409099550847f105c5257f801527e60b0361c00075b5a79d2dc6821d8a1258d906ed453c7e7be8701019150828283099050828284858485098409099550847f03db505a0c32cb61ca099389c2180e1c83827fb41d9fed84d88766df44c630798701019150828283099050828284858485098409099550847f1262e738f38db6c79d24d9727294421cd95afa24f4700c1323ab83c3a06ace328701019150828283099050828284858485098409099550847f0ee68c3e38c194033994c0d4d7bde35bfafa35b22a95f915f82c5a3b0422bd9a8701019150828283099050828284858485098409099550847f2ee5427bd20c47f8d2f0aa9e6419f7926abcd5965084292ae54dd780077e69028701019150828283099050828284858485098409099550847f1e542d31d2a381792e0a9241c46229a22fd9382443e423a0e419d0feb58656af8701019150828283099050828284858485098409099550847f0ba39f01462ab6a7cf621952752fcde48677d7f32df47e940eacf4954c5ef6328701019150828283099050828284858485098409099550847f29c00b058c17800146bdc06b1e73ff5d0ff53df96f8463818c0572d11fcaf88b8701019150828283099050828284858485098409099550847f0b6200895b60a6c6794fcf1c2b1b15d03a713c905a8ba1f1315f7501fe1a50b88701019150828283099050828284858485098409099550847f2bc639b1b85d731f62d2c6f391d4498e392cb75edcbd5c4c0fa8b26d32d68a128701019150828283099050828284858485098409099550847f2a89f38e6440ce641127046b67d8e615f14503d72d76bf3c703a01d1463a84458701019150828283099050828284858485098409099550847f1750ede7eeeb4edd7838b67fac6d250a54055eeead10e69b3a6e1f076ca878688701019150828283099050828284858485098409099550847f0c2d65084bead2a743115be5329d5458d29802081f6f9dac4165c42651f9be2b8701019150828283099050828284858485098409099550847f28303e2d834e16e1fe33c9ab726a3e75dd0dad9bfea1a43267199e1f243993fb8701019150828283099050828284858485098409099550847f2b572811ca34ea5110d10772e4ced362ebefd7cd1e1884b769e9435914efc5e58701019150828283099050828284858485098409099550847f17521ca5799fe2ea82c67c0a8d0863b5eec0ef9b703e195dd402b7008b53f6b48701019150828283099050828284858485098409099550847f0407e54b96a5b63c609fa3797b223c73d260a365ad58b25891a5660272096bd58701019150828283099050828284858485098409099550847f1a3cd155b03c7d33cc8222c997424bc14069e2edbf4b8aa564c9e5832bdace918701019150828283099050828284858485098409099550847f296255b5e697e517c502ba49b18aaad89514a490a02e7a878b5d559841b93fbd8701019150828283099050828284858485098409099550847f174835801a1f1525b4c21853b965c5048af465e9f79de9d16748c67953da79a78701019150828283099050828284858485098409099550847f2d4afed7a708e5972e84d766292f2c841c5d8570961074d59ad3f51e9369a5978701019150828283099050828284858485098409099550847f1c0eb06744c9866e271cd29a7f17f72964faba3cd088b95e73dcce9d92c79ba68701019150828283099050828284858485098409099550847f26705e7e4f23a7d786ad1786b353a2f8b82269c7b58ab70d7b93f41685d34d458701019150828283099050828284858485098409099550847f04e674d88b90b1188353106ae25c0447acace9dc6d62cfe7fec2d7993dfd7a228701019150828283099050828284858485098409099550847f0df3335da13ff46f65095f975d157886241aeccff38fd9bba92644f8969d7e098701019150828283099050828284858485098409099550847f2dfff62b9282ec05b1fa44479a6e9debe9ac631813d2b10e44b9e0fe19e4d4ee8701019150828283099050828284858485098409099550847f08ece248fe1ce1cd705699b5cd07c990ec27721bab59b657bb138e487ee6694d8701019150828283099050828284858485098409099550847f2c1ab81db607ba76dbf71f48752c856bf183044981c3b6d1fd31b179a078f5718701019150828283099050828284858485098409099550847f01de6f8886868e351bf4caad293bd86ed29ef63810e15cb809542e01bfbbcb888701019150828283099050828284858485098409099550847f23dd8b576fa286331864d63c77fd82fa61da717533821b9382617ebd54abeb468701019150828283099050828284858485098409099550847f169f2c8e515b2cee8d183991c3712736001a7f92fb34c3e3f532dec373aacbfb8701019150828283099050828284858485098409099550847f0ecf89b898e2deca99ae5108d271f1fa92e5018c1ac899d554dc1dfa35ceb0a08701019150828283099050828284858485098409099550847f0dc0d6e76afba377dd693ed4c47a4f9fee7a88d1df5df62fd06f2f87b81de1c88701019150828283099050828284858485098409099550847f0d8d08571539c68a37dad2a6638291d323948e57a0189a7be2ec14d89308bb6d8701019150828283099050828284858485098409099550847f17d170e737533e922c934f79bad3c28f85ef14b21c7354000298cee876977a448701019150828283099050828284858485098409099550847f09ed630d4088d7acaa34064515c1cb368ed405c4ded26df38652d290b26f6aff8701019150828283099050828284858485098409099550847f2b5381943dd4c43bd059a4747b72fc116f099c46004dc811ddb440f7ee69701e8701019150828283099050828284858485098409099550847f01da34e987e965c368ec0252e97db8bfb78668db369cdf6c70f7e02b5bd52b3b8701019150828283099050828284858485098409099550847f1a18c896f124cd4821fbe08ac680b78362c15344619cef072874f43799b89f238701019150828283099050828284858485098409099550847f168dbaf0eae2cfe96f6b340bfd4922c1c41317bfff69613b81d9722e34059f208701019150828283099050828284858485098409099550847f1dfd587726ec442565eb47fc0234740634b6562d1b60192947140b8670aa40148701019150828283099050828284858485098409099550847f147a904bcd17a3f66ebd75b2c1279507001e602842a047929fd119d31edf39248701019150828283099050828284858485098409099550847e621164e8b17a476172ee2aabd9a1a67ecc05f926bec5bbaceb7524616e11668701019150828283099050828284858485098409099550847f280fcce91f920b6487ee3e6a838abbc1f7eb44e4853b22d067a56f5e908499b98701019150828283099050828284858485098409099550847f2d49d03ab6b741495e4d7cbe87ea6cf0f06aea86f528d13d57f6a05e4c868d0b8701019150828283099050828284858485098409099550847f2a59b6e410852d96661479179081af38f478b7603eb3e4f231f99633d826cde98701019150828283099050828284858485098409099550847f1a7783fa9ff7b36d38aeb75e65cfc88260b70d4600b51ab5745e5fe1dc35d9b18701019150828283099050828284858485098409099550847f286d1e7e039fa286d1bd8fe69e175ecad61693cc1f55044847191bae2ff344b28701019150828283099050828284858485098409099550847f0fa108dbe8e14e8c53093f9aaf1f989dabb3dc026ffecb049d3d6b4b2c9b80778701019150828283099050828284858485098409099550847f0e4b25635fa58150829c3e832c4361bfa7edfdf40b0514c00dd3a7338131f1938701019150828283099050828284858485098409099550847f23b0ea71b8bbd3cb62b741e525f5c8b35cbfed820aaf1234d03a4655cdf710398701019150828283099050828284858485098409099550847f2aced572dbfd2664569030fcf391019702f79cbfbe380714894fbfc785dad03f8701019150828283099050828284858485098409099550847f03c36b340d12daf2422febd15a4521f351459057c2affd6816c67fa38b3cc34d8701019150828283099050828284858485098409099550847f17d64c030f29369c09ffd529c7532b84228e69ef6dd9d9dab603ba86cb9254e78701019150828283099050828284858485098409099550847f095050333e4136e4c73b4101ab008bf625a73c51afd5e77f99c606ca7ace63d78701019150828283099050828284858485098409099550847f10ca0fd2a95bc198763d375f566182463e0c92ea122df6485f1c4e5a9769b32c8701019150828283099050828284858485098409099550847f29f63c935efe224e235d5b49b88578a97b25c739a342d4a0d908b98ef757db618701019150828283099050828284858485098409099550847f1e1289b8eff2d431b178bc957cc0c41a1d7237057b9256fd090eb3c6366b9ef58701019150828283099050828284858485098409099550847f1ed8ee02730ece601f15be81e7d27250c4a4d4c04e7a2f3f4e79b931fd9ffac9870101915082828309905082828485848509840909955082858708935050505092915050565b600081518351146140a957600080fd5b60008351905060006006826140be919061542e565b905060008167ffffffffffffffff811115614102577f4e487b7100000000000000000000000000000000000000000000000000000000600052604160045260246000fd5b6040519080825280602002602001820160405280156141305781602001602082028036833780820191505090505b50905060005b8381101561461557868181518110614177577f4e487b7100000000000000000000000000000000000000000000000000000000600052603260045260246000fd5b602002602001015160000151826000600684614193919061542e565b61419d91906153a7565b815181106141d4577f4e487b7100000000000000000000000000000000000000000000000000000000600052603260045260246000fd5b602002602001018181525050868181518110614219577f4e487b7100000000000000000000000000000000000000000000000000000000600052603260045260246000fd5b602002602001015160200151826001600684614235919061542e565b61423f91906153a7565b81518110614276577f4e487b7100000000000000000000000000000000000000000000000000000000600052603260045260246000fd5b6020026020010181815250508581815181106142bb577f4e487b7100000000000000000000000000000000000000000000000000000000600052603260045260246000fd5b602002602001015160000151600160028110614300577f4e487b7100000000000000000000000000000000000000000000000000000000600052603260045260246000fd5b6020020151826002600684614315919061542e565b61431f91906153a7565b81518110614356577f4e487b7100000000000000000000000000000000000000000000000000000000600052603260045260246000fd5b60200260200101818152505085818151811061439b577f4e487b7100000000000000000000000000000000000000000000000000000000600052603260045260246000fd5b6020026020010151600001516000600281106143e0577f4e487b7100000000000000000000000000000000000000000000000000000000600052603260045260246000fd5b60200201518260036006846143f5919061542e565b6143ff91906153a7565b81518110614436577f4e487b7100000000000000000000000000000000000000000000000000000000600052603260045260246000fd5b60200260200101818152505085818151811061447b577f4e487b7100000000000000000000000000000000000000000000000000000000600052603260045260246000fd5b6020026020010151602001516001600281106144c0577f4e487b7100000000000000000000000000000000000000000000000000000000600052603260045260246000fd5b60200201518260046006846144d5919061542e565b6144df91906153a7565b81518110614516577f4e487b7100000000000000000000000000000000000000000000000000000000600052603260045260246000fd5b60200260200101818152505085818151811061455b577f4e487b7100000000000000000000000000000000000000000000000000000000600052603260045260246000fd5b6020026020010151602001516000600281106145a0577f4e487b7100000000000000000000000000000000000000000000000000000000600052603260045260246000fd5b60200201518260056006846145b5919061542e565b6145bf91906153a7565b815181106145f6577f4e487b7100000000000000000000000000000000000000000000000000000000600052603260045260246000fd5b602002602001018181525050808061460d906155d3565b915050614136565b5061461e614871565b6000602082602086026020860160086107d05a03fa9050806000811461464357614645565bfe5b508061465057600080fd5b60008260006001811061468c577f4e487b7100000000000000000000000000000000000000000000000000000000600052603260045260246000fd5b602002015114159550505050505092915050565b60405180606001604052806146b36147ed565b81526020016146c061484b565b81526020016146cd6147ed565b81525090565b8280546146df90615570565b90600052602060002090601f0160209004810192826147015760008555614748565b82601f1061471a57805160ff1916838001178555614748565b82800160010185558215614748579182015b8281111561474757825182559160200191906001019061472c565b5b5090506147559190614893565b5090565b828054828255906000526020600020908101928215614795579160200282015b82811115614794578251825591602001919060010190614779565b5b5090506147a29190614893565b5090565b6040518060a001604052806147b96147ed565b81526020016147c661484b565b81526020016147d361484b565b81526020016147e061484b565b8152602001606081525090565b604051806040016040528060008152602001600081525090565b6040518060600160405280600390602082028036833780820191505090505090565b6040518060800160405280600490602082028036833780820191505090505090565b604051806040016040528061485e6148b0565b815260200161486b6148b0565b81525090565b6040518060200160405280600190602082028036833780820191505090505090565b5b808211156148ac576000816000905550600101614894565b5090565b6040518060400160405280600290602082028036833780820191505090505090565b60006148e56148e084615206565b6151e1565b905080828560408602820111156148fb57600080fd5b60005b8581101561492b57816149118882614a75565b8452602084019350604083019250506001810190506148fe565b5050509392505050565b60006149486149438461522c565b6151e1565b9050808285602086028201111561495e57600080fd5b60005b8581101561498e57816149748882614aed565b845260208401935060208301925050600181019050614961565b5050509392505050565b60006149ab6149a684615252565b6151e1565b905080828560208602820111156149c157600080fd5b60005b858110156149f157816149d78882614aed565b8452602084019350602083019250506001810190506149c4565b5050509392505050565b6000614a0e614a0984615278565b6151e1565b905082815260208101848484011115614a2657600080fd5b614a31848285615504565b509392505050565b600081359050614a488161571a565b92915050565b600082601f830112614a5f57600080fd5b6002614a6c8482856148d2565b91505092915050565b600082601f830112614a8657600080fd5b6002614a93848285614935565b91505092915050565b600082601f830112614aad57600080fd5b6004614aba848285614998565b91505092915050565b600082601f830112614ad457600080fd5b8135614ae48482602086016149fb565b91505092915050565b600081359050614afc81615731565b92915050565b600060208284031215614b1457600080fd5b6000614b2284828501614a39565b91505092915050565b6000806000806101808587031215614b4257600080fd5b6000614b5087828801614a75565b9450506040614b6187828801614a4e565b93505060c0614b7287828801614a75565b925050610100614b8487828801614a9c565b91505092959194509250565b60008060008060006101a08688031215614ba957600080fd5b6000614bb788828901614a75565b9550506040614bc888828901614a4e565b94505060c0614bd988828901614a75565b935050610100614beb88828901614a9c565b925050610180614bfd88828901614aed565b9150509295509295909350565b600060208284031215614c1c57600080fd5b600082013567ffffffffffffffff811115614c3657600080fd5b614c4284828501614ac3565b91505092915050565b600080600060608486031215614c6057600080fd5b600084013567ffffffffffffffff811115614c7a57600080fd5b614c8686828701614ac3565b935050602084013567ffffffffffffffff811115614ca357600080fd5b614caf86828701614ac3565b925050604084013567ffffffffffffffff811115614ccc57600080fd5b614cd886828701614ac3565b9150509250925092565b600060208284031215614cf457600080fd5b6000614d0284828501614aed565b91505092915050565b6000614d178383614f0f565b905092915050565b6000614d2b8383615001565b905092915050565b6000614d3f8383615045565b60208301905092915050565b614d54816154bc565b82525050565b6000614d65826152ee565b614d6f8185615341565b935083602082028501614d81856152a9565b8060005b85811015614dbd5784840389528151614d9e8582614d0b565b9450614da98361531a565b925060208a01995050600181019050614d85565b50829750879550505050505092915050565b6000614dda826152f9565b614de48185615352565b935083602082028501614df6856152b9565b8060005b85811015614e325784840389528151614e138582614d1f565b9450614e1e83615327565b925060208a01995050600181019050614dfa565b50829750879550505050505092915050565b6000614e4f82615304565b614e598185615363565b9350614e64836152c9565b8060005b83811015614e95578151614e7c8882614d33565b9750614e8783615334565b925050600181019050614e68565b5085935050505092915050565b6000614ead82615304565b614eb78185615374565b9350614ec2836152c9565b8060005b83811015614ef3578151614eda8882614d33565b9750614ee583615334565b925050600181019050614ec6565b5085935050505092915050565b614f09816154ce565b82525050565b6000614f1a8261530f565b614f248185615385565b9350614f34818560208601615513565b614f3d81615709565b840191505092915050565b6000614f538261530f565b614f5d8185615396565b9350614f6d818560208601615513565b614f7681615709565b840191505092915050565b60008154614f8e81615570565b614f988186615396565b94506001821660008114614fb35760018114614fc557614ff8565b60ff1983168652602086019350614ff8565b614fce856152d9565b60005b83811015614ff057815481890152600182019150602081019050614fd1565b808801955050505b50505092915050565b6000604083016000830151848203600086015261501e8282614f0f565b915050602083015184820360208601526150388282614e44565b9150508091505092915050565b61504e816154fa565b82525050565b61505d816154fa565b82525050565b60006020820190506150786000830184614d4b565b92915050565b600060208201905081810360008301526150988184614d5a565b905092915050565b600060208201905081810360008301526150ba8184614dcf565b905092915050565b60006020820190506150d76000830184614f00565b92915050565b60006040820190506150f26000830185614f00565b6150ff6020830184615054565b9392505050565b600060208201905081810360008301526151208184614f48565b905092915050565b600060208201905081810360008301526151428184614f81565b905092915050565b600060408201905081810360008301526151648185614f81565b90506151736020830184614d4b565b9392505050565b600060208201905061518f6000830184615054565b92915050565b60006080820190506151aa6000830187615054565b6151b76020830186615054565b81810360408301526151c98185614ea2565b90506151d86060830184615054565b95945050505050565b60006151eb6151fc565b90506151f782826155a2565b919050565b6000604051905090565b600067ffffffffffffffff821115615221576152206156da565b5b602082029050919050565b600067ffffffffffffffff821115615247576152466156da565b5b602082029050919050565b600067ffffffffffffffff82111561526d5761526c6156da565b5b602082029050919050565b600067ffffffffffffffff821115615293576152926156da565b5b61529c82615709565b9050602081019050919050565b6000819050602082019050919050565b6000819050602082019050919050565b6000819050602082019050919050565b60008190508160005260206000209050919050565b600081519050919050565b600081519050919050565b600081519050919050565b600081519050919050565b6000602082019050919050565b6000602082019050919050565b6000602082019050919050565b600082825260208201905092915050565b600082825260208201905092915050565b600082825260208201905092915050565b600082825260208201905092915050565b600082825260208201905092915050565b600082825260208201905092915050565b60006153b2826154fa565b91506153bd836154fa565b9250827fffffffffffffffffffffffffffffffffffffffffffffffffffffffffffffffff038211156153f2576153f161564d565b5b828201905092915050565b6000615408826154fa565b9150615413836154fa565b9250826154235761542261567c565b5b828204905092915050565b6000615439826154fa565b9150615444836154fa565b9250817fffffffffffffffffffffffffffffffffffffffffffffffffffffffffffffffff048311821515161561547d5761547c61564d565b5b828202905092915050565b6000615493826154fa565b915061549e836154fa565b9250828210156154b1576154b061564d565b5b828203905092915050565b60006154c7826154da565b9050919050565b60008115159050919050565b600073ffffffffffffffffffffffffffffffffffffffff82169050919050565b6000819050919050565b82818337600083830152505050565b60005b83811015615531578082015181840152602081019050615516565b83811115615540576000848401525b50505050565b6000615551826154fa565b915060008214156155655761556461564d565b5b600182039050919050565b6000600282049050600182168061558857607f821691505b6020821081141561559c5761559b6156ab565b5b50919050565b6155ab82615709565b810181811067ffffffffffffffff821117156155ca576155c96156da565b5b80604052505050565b60006155de826154fa565b91507fffffffffffffffffffffffffffffffffffffffffffffffffffffffffffffffff8214156156115761561061564d565b5b600182019050919050565b6000615627826154fa565b9150615632836154fa565b9250826156425761564161567c565b5b828206905092915050565b7f4e487b7100000000000000000000000000000000000000000000000000000000600052601160045260246000fd5b7f4e487b7100000000000000000000000000000000000000000000000000000000600052601260045260246000fd5b7f4e487b7100000000000000000000000000000000000000000000000000000000600052602260045260246000fd5b7f4e487b7100000000000000000000000000000000000000000000000000000000600052604160045260246000fd5b6000601f19601f8301169050919050565b615723816154bc565b811461572e57600080fd5b50565b61573a816154fa565b811461574557600080fd5b5056fea26469706673582212205a64e4aba1adf952fb643c8866452c8ce94d552cba53e5a83c765327a775dc7e64736f6c63430008040033",
  "immutableReferences": {},
  "source": "pragma solidity ^0.8.0;\n\nimport \"./MiMC.sol\";\nimport \"./verifier.sol\";\nimport \"./utility.sol\";\n\n\ncontract Election is Verifier {\n    struct Candidate {\n        string name;\n        uint[] votes; /* A list of encrypted vote values for this candidate */\n    }\n    /* Each address in Address Space is mapped to an empty Voter struct with default values */\n    struct Voter {\n        bool authorized; /* So an owner has control over which public addresses may invoke functions */\n        uint weight; /* The on-chain calculated weight of the voter*/\n    }\n    string public name;\n    address public owner;\n    uint public activeVoters;\n    uint public voteCount;\n    uint[] public identifiers;\n    //@TODO: Convert state variable to enum or int for comparison in require\n    string public currentState;\n    // Key: Address, Value: Voter \n    //i.e Map a Voter object to ALL addresses\n    mapping(address => Voter) public voters;\n    uint256[] public voteKeyArray;\n    uint256[] public merkleArray;\n    Candidate[] public candidates;\n    uint256 public merkleRoot;\n    /* The election starters public key */\n    uint public terminateElection;\n    /* Everytime the stage transitions, an announcement is made to all suscribers.\n    STATES: VOTEKEY-GENERATION => VOTE => END */\n    event AnnounceNewStage(string stage);\n    /* Everytime a vote is executed, this event is logged onto the block. Currently the voters public address is shown next to the candidate they voted\n    for, in future updates this address will be replaced by a ZKP */\n    event AnnounceVote(string candidate, address proofOfMembership);\n    /* Emit an event every time a vote tally is called. */\n    event AnnounceResult(string candidate, uint[] tallyCount);\n    /* Create an Event each time the owner authorizes a voter */\n    event AnnounceAuth(address authorizedUser);\n    event AnnounceValidProof(bool x);\n    event Debug(uint256 s);\n    /* Called only when contract is created, contract compiler is the owner */\n    constructor(){\n        owner = msg.sender;\n    }\n    /* Used to generate a Merkle Tree from the list of current Vote Keys\n    * Adjusts to next power of 2 and fills dummy voteKeys to satisfy\n    * Merkle Binary properties. For simplicity during testing, voting takes place with exactly 4\n    * voters so this method is not employed. (If you are using this feature, you should\n    * also integrate Generic Functions in the circuit proof. Something I may add\n    * later on. (see BONUS in the README.md)) \n    GAS COST EST: 300k */\n    function createMerkleArray() public {\n        /* Guarantee that a valid merkle tree can be constructed with the given nodes*/\n        //assert(voteKeyArray.length >= 2);\n        uint pow = 1; bool isPowerOf2 = false;\n        uint tempVal =0;\n        /* Find the power of 2 closest or equal to the length, if equal do nothing */\n        while(pow <= voteKeyArray.length){ if(pow == voteKeyArray.length) { isPowerOf2 = true; break; } else { pow = pow *2; } }\n        /* If index isn't a power of two, we pump it with static public vote keys */\n        while(pow != voteKeyArray.length && isPowerOf2 == false){ voteKeyArray.push(1337); pow--; }\n        /* For each voteKey struct present, transfer the hashed value into the Merkle Array */\n        for(uint i =0; i < voteKeyArray.length; i++){\n            //leaf = MiMC.MiMC_Hash([voteKeyArray[i],voteKeyArray[i+1]]);\n            tempVal = voteKeyArray[i];\n            merkleArray.push(tempVal);\n        }\n        uint nodeCount=0;\n        uint n = voteKeyArray.length;\n        /* While there are still nodes to traverse*/\n\n        uint256[] memory x = new uint[](2); //Should be statically defined\n          while (n > 0) {\n            /* Each iteration covers one layer of the tree. Starting with the original voteKey values */\n            for (uint offset = 0; offset < n - 1; offset+=2) { //Offset is the number of nodes operated on within the scope of the iteration\n                /* Pair-hash neighbouring nodes and move forward by two steps*/\n                /* Transfer values from the appropiate index (nodes already covered + offset)*/\n                x[0] = merkleArray[nodeCount + offset];\n                x[1] = merkleArray[nodeCount + offset + 1];\n                /* Combine both nodes using MiMC Hash and push to the array as a Parent*/\n                merkleArray.push(MiMC.MiMC_Hash(x));\n            }\n            /* Add the count of this new layer to our total node count*/\n            nodeCount += n;\n            /* Div2 will get us to the next layer count, due to the nice properties of Binary Trees and Powers of 2 we can just div*/\n            n = n / 2;\n            if(n <= 0){ //next while wont occur. The offset at this point is the number of nodes in the tree\n            }\n        }\n        merkleRoot = merkleArray[merkleArray.length-1];\n        /* merkleArray now contains all nodes, ordered by indexing of layer size. i.e 8 voteKeys => index [0..7], 4 parent nodes produced => index [8..11], 2 nodes produced => index [12..13], Merkle Root => index [14]*/\n        currentState = \"VOTING-OPEN\";\n        emit AnnounceNewStage(currentState); \n    }\n    /* Use Case (DApp)\n    When a user inputs a secret key (SK) and clicks the 'Join Vote' button,\n    SK is locally hashed using MiMC before being sent as a VOTE KEY\n    The user is only able to push 1 vote-key per public address (to prevent double-registration) */\n    function pushVoteKey(string memory str) public {\n        uint256 voteKey = utility.stringToUint(str);\n        /* check double-vote and if votekey generation stage is active*/\n       // require(currentState == \"VOTEKEY-GENERATION\");\n        /* Make sure that an authorized Node is registering this Vote Key*/\n        //require(voters[msg.sender].authorized == true);\n        voteKeyArray.push(voteKey);\n        activeVoters++;\n        /* Check if our voter count has reached 4\n        * This implementation CAN be extended to generic numbers\n        * if the zokrates circuit is configured using Generic Functions\n        * Contact r.jafri@student.rug.nl if you need help with this\n        */\n        if(activeVoters == 4) { \n            createMerkleArray();\n        }\n        emit Debug(voteKey);\n    }   \n    function conductElection(string memory inputName, string memory candidateA, string  memory candidateB) public  {\n        //require(treeDepth >= 1 && treeDepth <= 33); //33 is the maximum depth of the tree allowed\n        //publicKey = pubKey; /* Serialization of Public Key class as a string, Client may de-serialize for encryption*/\n       // publicKey.push(n); publicKey.push(g);\n        owner = msg.sender;\n        name = inputName;\n        uint256[] memory empty;\n        candidates.push(Candidate(candidateA,empty));\n        candidates.push(Candidate(candidateB,empty));\n        voteCount=0;\n        currentState = \"VOTEKEY-GENERATION\";\n        emit AnnounceNewStage(currentState);\n    }\n     /* \n     * Input: ZK Proof bytes\n     * Checks for double-vote using identifier array\n     * Asserts that ZK-Proof is Valid\n     * Adds the Voters Identifier to the Candidates Votes\n     */ \n     function submitVote( uint[2] memory a,\n            uint[2][2] memory b,\n            uint[2] memory c, uint[4] memory input, uint voteVal) public {\n        for(uint i=0; i < voteCount; i++){\n            if(input[0] == identifiers[i]){\n                revert();\n            }\n        }\n         /*Verify if Voting process is active*/\n        //require(currentState == \"VOTING-OPEN\");\n        /* Verify the Proof of Membership */\n        bool x  = verifyTx(a, b, c, input);\n        assert(x);\n        emit AnnounceValidProof(x);\n       /*     //Candidate Index = voteVal, Unique Identifier = input[0]*/\n            candidates[voteVal].votes.push(input[0]);\n            identifiers.push(input[0]);\n            voteCount++;\n            /* Emit an event on the block to notify a new vote */\n            emit AnnounceVote(candidates[voteVal].name, msg.sender);\n            if(activeVoters == voteCount){ currentState = \"END\"; emit AnnounceNewStage(currentState);}\n        \n    } \n    /* \n    * Election owner needs to authorize node addresses that \n    * are allowed to register to vote. This may be individual\n    * user addresses or pre-allocated voting systems.\n    */\n    function authorize(address nodeAddress) public {\n        require(msg.sender == owner);\n        voters[nodeAddress].authorized = true;\n        calculateVoteWeight(nodeAddress);\n        emit AnnounceAuth(nodeAddress);\n        \n    }\n    /* You may alter the vote weight according to your program specifications\n    * We take a basic example of equal voting weights for each user.\n    */\n    function calculateVoteWeight(address citizen) private {\n        voters[citizen].weight = 1;\n    }\n    /* ====================== HELPER FUNCTIONS ====================*/\n    /* \n    * Used by the DApp to retrieve information needed to\n    * compute a path to the Merkle Root locally. \n    */\n    function getMerkleInfo(string memory str) public view returns(uint256 targetIndex, uint256 firstLayerSize, uint256 [] memory entireMerkleArray, uint256 mkRoot) {\n    \tuint index = 1337;\n        uint256 voteKey = utility.stringToUint(str);\n    \tfor(uint i =0; i< merkleArray.length; i++){\n    \t\tif(voteKey == merkleArray[i]){\n    \t\t index = i;\n    \t\t/* From i till N, move up a layer, find appropiate index*/\n    \t\t}\n    \t}\n    \trequire(index != 1337);\n    \treturn (index, voteKeyArray.length, merkleArray, merkleArray[merkleArray.length-1]);\n    }\n    /* \n    * Used by the DApp to retrieve candidate information \n    */\n    function getCandidates() public view returns(string[] memory){\n        string[] memory result = new string[](candidates.length);\n        for(uint i=0; i<candidates.length; i++){\n            result[i]= (candidates[i].name);\n        }\n        return result;\n    }\n    /* \n    * Used by the DApp to retrieve information for self-tallying\n    */\n    function getTally() public view returns(Candidate[] memory candidateResult){\n        return candidates;\n    }\n}\n",
  "sourcePath": "/Users/racintosh/Github/bsc-project/contracts/Election.sol",
  "compiler": {
    "name": "solc",
    "version": "0.8.4+commit.c7e474f2.Emscripten.clang"
  },
  "schemaVersion": "3.4.2",
  "updatedAt": "2021-07-31T18:14:50.136Z",
  "devdoc": {
    "kind": "dev",
    "methods": {},
    "version": 1
  },
  "userdoc": {
    "kind": "user",
    "methods": {},
    "version": 1
  }
}