{
  "contractName": "Election",
  "abi": [
    {
      "inputs": [],
      "stateMutability": "nonpayable",
      "type": "constructor"
    },
    {
      "anonymous": false,
      "inputs": [
        {
          "indexed": false,
          "internalType": "string",
          "name": "candidate",
          "type": "string"
        },
        {
          "indexed": false,
          "internalType": "uint256",
          "name": "tallyCount",
          "type": "uint256"
        }
      ],
      "name": "AnnounceResult",
      "type": "event"
    },
    {
      "inputs": [],
      "name": "admin",
      "outputs": [
        {
          "internalType": "address",
          "name": "",
          "type": "address"
        }
      ],
      "stateMutability": "view",
      "type": "function",
      "constant": true
    },
    {
      "inputs": [],
      "name": "candidateAVotes",
      "outputs": [
        {
          "internalType": "uint256",
          "name": "",
          "type": "uint256"
        }
      ],
      "stateMutability": "view",
      "type": "function",
      "constant": true
    },
    {
      "inputs": [],
      "name": "candidateBVotes",
      "outputs": [
        {
          "internalType": "uint256",
          "name": "",
          "type": "uint256"
        }
      ],
      "stateMutability": "view",
      "type": "function",
      "constant": true
    },
    {
      "inputs": [
        {
          "internalType": "uint256",
          "name": "",
          "type": "uint256"
        }
      ],
      "name": "candidates",
      "outputs": [
        {
          "internalType": "string",
          "name": "name",
          "type": "string"
        },
        {
          "internalType": "uint256",
          "name": "voteCount",
          "type": "uint256"
        }
      ],
      "stateMutability": "view",
      "type": "function",
      "constant": true
    },
    {
      "inputs": [],
      "name": "name",
      "outputs": [
        {
          "internalType": "string",
          "name": "",
          "type": "string"
        }
      ],
      "stateMutability": "view",
      "type": "function",
      "constant": true
    },
    {
      "inputs": [],
      "name": "owner",
      "outputs": [
        {
          "internalType": "address",
          "name": "",
          "type": "address"
        }
      ],
      "stateMutability": "view",
      "type": "function",
      "constant": true
    },
    {
      "inputs": [],
      "name": "terminateElection",
      "outputs": [
        {
          "internalType": "uint256",
          "name": "",
          "type": "uint256"
        }
      ],
      "stateMutability": "view",
      "type": "function",
      "constant": true
    },
    {
      "inputs": [
        {
          "internalType": "address",
          "name": "",
          "type": "address"
        }
      ],
      "name": "voters",
      "outputs": [
        {
          "internalType": "uint256",
          "name": "value",
          "type": "uint256"
        },
        {
          "internalType": "uint256",
          "name": "rights",
          "type": "uint256"
        },
        {
          "internalType": "bool",
          "name": "voted",
          "type": "bool"
        }
      ],
      "stateMutability": "view",
      "type": "function",
      "constant": true
    },
    {
      "inputs": [
        {
          "internalType": "string",
          "name": "inputName",
          "type": "string"
        },
        {
          "internalType": "string",
          "name": "candidateA",
          "type": "string"
        },
        {
          "internalType": "string",
          "name": "candidateB",
          "type": "string"
        },
        {
          "internalType": "address[]",
          "name": "authorizedVoters",
          "type": "address[]"
        }
      ],
      "name": "conductElection",
      "outputs": [],
      "stateMutability": "nonpayable",
      "type": "function"
    },
    {
      "inputs": [
        {
          "internalType": "uint256",
          "name": "voteVal",
          "type": "uint256"
        }
      ],
      "name": "submitVote",
      "outputs": [],
      "stateMutability": "nonpayable",
      "type": "function"
    },
    {
      "inputs": [],
      "name": "tallyVotes",
      "outputs": [],
      "stateMutability": "nonpayable",
      "type": "function"
    }
  ],
  "bytecode": "0x608060405234801561001057600080fd5b5033600460006101000a81548173ffffffffffffffffffffffffffffffffffffffff021916908373ffffffffffffffffffffffffffffffffffffffff16021790555061115b806100616000396000f3fe608060405234801561001057600080fd5b50600436106100a95760003560e01c80638da5cb5b116100715780638da5cb5b1461013f578063a3ec138d1461015d578063ad8942521461018f578063b4f3b1ca146101ad578063b702a415146101cb578063f851a440146101e9576100a9565b806306fdde03146100ae5780632844328f146100cc5780633477ee2e146100e8578063378a2178146101195780635d6b879514610123575b600080fd5b6100b6610207565b6040516100c39190610d46565b60405180910390f35b6100e660048036038101906100e19190610c1c565b610295565b005b61010260048036038101906100fd9190610c1c565b610432565b604051610110929190610d68565b60405180910390f35b6101216104ee565b005b61013d60048036038101906101389190610b59565b610690565b005b61014761082b565b6040516101549190610d2b565b60405180910390f35b61017760048036038101906101729190610b30565b610851565b60405161018693929190610de3565b60405180910390f35b610197610888565b6040516101a49190610dc8565b60405180910390f35b6101b561088e565b6040516101c29190610dc8565b60405180910390f35b6101d3610894565b6040516101e09190610dc8565b60405180910390f35b6101f161089a565b6040516101fe9190610d2b565b60405180910390f35b6003805461021490610fad565b80601f016020809104026020016040519081016040528092919081815260200182805461024090610fad565b801561028d5780601f106102625761010080835404028352916020019161028d565b820191906000526020600020905b81548152906001019060200180831161027057829003601f168201915b505050505081565b6001600560003373ffffffffffffffffffffffffffffffffffffffff1673ffffffffffffffffffffffffffffffffffffffff16815260200190815260200160002060010154146102e457600080fd5b60001515600560003373ffffffffffffffffffffffffffffffffffffffff1673ffffffffffffffffffffffffffffffffffffffff16815260200190815260200160002060020160009054906101000a900460ff1615151461034457600080fd5b80600560003373ffffffffffffffffffffffffffffffffffffffff1673ffffffffffffffffffffffffffffffffffffffff16815260200190815260200160002060000181905550600560003373ffffffffffffffffffffffffffffffffffffffff1673ffffffffffffffffffffffffffffffffffffffff1681526020019081526020016000206001015460068281548110610408577f4e487b7100000000000000000000000000000000000000000000000000000000600052603260045260246000fd5b906000526020600020906002020160010160008282546104289190610ecd565b9250508190555050565b6006818154811061044257600080fd5b906000526020600020906002020160009150905080600001805461046590610fad565b80601f016020809104026020016040519081016040528092919081815260200182805461049190610fad565b80156104de5780601f106104b3576101008083540402835291602001916104de565b820191906000526020600020905b8154815290600101906020018083116104c157829003601f168201915b5050505050908060010154905082565b7f6d43044591c22cc3b0e95b89225a964dd6dafbcbb30d4db3f5662e6280fc0439600660008154811061054a577f4e487b7100000000000000000000000000000000000000000000000000000000600052603260045260246000fd5b90600052602060002090600202016000016006600081548110610596577f4e487b7100000000000000000000000000000000000000000000000000000000600052603260045260246000fd5b9060005260206000209060020201600101546040516105b6929190610d98565b60405180910390a17f6d43044591c22cc3b0e95b89225a964dd6dafbcbb30d4db3f5662e6280fc0439600660018154811061061a577f4e487b7100000000000000000000000000000000000000000000000000000000600052603260045260246000fd5b90600052602060002090600202016000016006600081548110610666577f4e487b7100000000000000000000000000000000000000000000000000000000600052603260045260246000fd5b906000526020600020906002020160010154604051610686929190610d98565b60405180910390a1565b33600460006101000a81548173ffffffffffffffffffffffffffffffffffffffff021916908373ffffffffffffffffffffffffffffffffffffffff16021790555083600390805190602001906106e7929190610965565b5060066040518060400160405280858152602001600081525090806001815401808255809150506001900390600052602060002090600202016000909190919091506000820151816000019080519060200190610745929190610965565b50602082015181600101555050600660405180604001604052808481526020016000815250908060018154018082558091505060019003906000526020600020906002020160009091909190915060008201518160000190805190602001906107af929190610965565b5060208201518160010155505060005b815181101561082457610811828281518110610804577f4e487b7100000000000000000000000000000000000000000000000000000000600052603260045260246000fd5b60200260200101516108c0565b808061081c90611010565b9150506107bf565b5050505050565b600460009054906101000a900473ffffffffffffffffffffffffffffffffffffffff1681565b60056020528060005260406000206000915090508060000154908060010154908060020160009054906101000a900460ff16905083565b60015481565b60075481565b60005481565b600260009054906101000a900473ffffffffffffffffffffffffffffffffffffffff1681565b600460009054906101000a900473ffffffffffffffffffffffffffffffffffffffff1673ffffffffffffffffffffffffffffffffffffffff163373ffffffffffffffffffffffffffffffffffffffff161461091a57600080fd5b6001600560008373ffffffffffffffffffffffffffffffffffffffff1673ffffffffffffffffffffffffffffffffffffffff1681526020019081526020016000206001018190555050565b82805461097190610fad565b90600052602060002090601f01602090048101928261099357600085556109da565b82601f106109ac57805160ff19168380011785556109da565b828001600101855582156109da579182015b828111156109d95782518255916020019190600101906109be565b5b5090506109e791906109eb565b5090565b5b80821115610a045760008160009055506001016109ec565b5090565b6000610a1b610a1684610e3f565b610e1a565b90508083825260208201905082856020860282011115610a3a57600080fd5b60005b85811015610a6a5781610a508882610ab2565b845260208401935060208301925050600181019050610a3d565b5050509392505050565b6000610a87610a8284610e6b565b610e1a565b905082815260208101848484011115610a9f57600080fd5b610aaa848285610f6b565b509392505050565b600081359050610ac1816110f7565b92915050565b600082601f830112610ad857600080fd5b8135610ae8848260208601610a08565b91505092915050565b600082601f830112610b0257600080fd5b8135610b12848260208601610a74565b91505092915050565b600081359050610b2a8161110e565b92915050565b600060208284031215610b4257600080fd5b6000610b5084828501610ab2565b91505092915050565b60008060008060808587031215610b6f57600080fd5b600085013567ffffffffffffffff811115610b8957600080fd5b610b9587828801610af1565b945050602085013567ffffffffffffffff811115610bb257600080fd5b610bbe87828801610af1565b935050604085013567ffffffffffffffff811115610bdb57600080fd5b610be787828801610af1565b925050606085013567ffffffffffffffff811115610c0457600080fd5b610c1087828801610ac7565b91505092959194509250565b600060208284031215610c2e57600080fd5b6000610c3c84828501610b1b565b91505092915050565b610c4e81610f23565b82525050565b610c5d81610f35565b82525050565b6000610c6e82610eb1565b610c788185610ebc565b9350610c88818560208601610f7a565b610c91816110e6565b840191505092915050565b60008154610ca981610fad565b610cb38186610ebc565b94506001821660008114610cce5760018114610ce057610d13565b60ff1983168652602086019350610d13565b610ce985610e9c565b60005b83811015610d0b57815481890152600182019150602081019050610cec565b808801955050505b50505092915050565b610d2581610f61565b82525050565b6000602082019050610d406000830184610c45565b92915050565b60006020820190508181036000830152610d608184610c63565b905092915050565b60006040820190508181036000830152610d828185610c63565b9050610d916020830184610d1c565b9392505050565b60006040820190508181036000830152610db28185610c9c565b9050610dc16020830184610d1c565b9392505050565b6000602082019050610ddd6000830184610d1c565b92915050565b6000606082019050610df86000830186610d1c565b610e056020830185610d1c565b610e126040830184610c54565b949350505050565b6000610e24610e35565b9050610e308282610fdf565b919050565b6000604051905090565b600067ffffffffffffffff821115610e5a57610e596110b7565b5b602082029050602081019050919050565b600067ffffffffffffffff821115610e8657610e856110b7565b5b610e8f826110e6565b9050602081019050919050565b60008190508160005260206000209050919050565b600081519050919050565b600082825260208201905092915050565b6000610ed882610f61565b9150610ee383610f61565b9250827fffffffffffffffffffffffffffffffffffffffffffffffffffffffffffffffff03821115610f1857610f17611059565b5b828201905092915050565b6000610f2e82610f41565b9050919050565b60008115159050919050565b600073ffffffffffffffffffffffffffffffffffffffff82169050919050565b6000819050919050565b82818337600083830152505050565b60005b83811015610f98578082015181840152602081019050610f7d565b83811115610fa7576000848401525b50505050565b60006002820490506001821680610fc557607f821691505b60208210811415610fd957610fd8611088565b5b50919050565b610fe8826110e6565b810181811067ffffffffffffffff82111715611007576110066110b7565b5b80604052505050565b600061101b82610f61565b91507fffffffffffffffffffffffffffffffffffffffffffffffffffffffffffffffff82141561104e5761104d611059565b5b600182019050919050565b7f4e487b7100000000000000000000000000000000000000000000000000000000600052601160045260246000fd5b7f4e487b7100000000000000000000000000000000000000000000000000000000600052602260045260246000fd5b7f4e487b7100000000000000000000000000000000000000000000000000000000600052604160045260246000fd5b6000601f19601f8301169050919050565b61110081610f23565b811461110b57600080fd5b50565b61111781610f61565b811461112257600080fd5b5056fea2646970667358221220709e7e30ccc4076a6a7cbe592b01a5f75f7718bdcbc4c51210e362edb110652b64736f6c63430008040033",
  "immutableReferences": {},
  "source": "pragma solidity ^0.8.4;\n\n\n/* PERSONEL NOTES:\nEach invokation will cost Gas (measured in computational steps), the transaction\nof incrementing a candidate vote and losing right to vote (again) is\n\n/* We can pre-generate a proof of membership circuit in Zokrates using a Merkle Tree with all public keys as an input. A user may prove that\nhe is a member of the tree via the Merkle Root rt. \n\n/* @TODO: Merkle Tree Generator, input values into zok file\nProving membership: \nInputs => Public merkleRoot, treeDepth, Private uint[] directionNavigator, currentNode, \n\nUser Inputs into Proof Generation => Private secretKey\n\nOwner Inputs => Self generated Secret Key and Public Key, and Verification Key\nWhen contract is deployed, the state change is appended onto the blockchain. */\ncontract Election {\n    /* Structs are just syntatic sugar in the EVM compiler\n    when referencing, treat getter return as an array i.e candidate[0].toString() returns 'Donald Trump' */\n    struct Candidate {\n        string name;\n        uint voteCount;\n    }\n    struct Voter {\n        uint value;\n        uint rights;\n        bool voted;\n    }\n    uint public candidateAVotes;\n    uint public candidateBVotes;\n    address public admin;\n    string public name;\n    address  public owner;\n    // Key: Address, Value: Voter \n    //i.e Map a Voter object to ALL addresses\n    /* EVM generates getter/setter for public variables,\n    Voter/Candidate structs returned as array. */\n    mapping(address => Voter) public voters;\n    \n    Candidate[] public candidates;\n    \n    uint public terminateElection;\n    \n    event AnnounceResult(string candidate, uint tallyCount);\n    /* Called only when contract is created, contract compiler is the owner */\n    constructor(){\n        owner = msg.sender; \n    }\n    modifier ownerPrivilage(){\n        require(msg.sender == owner);\n        _;\n    }\n    /* Vote is invoked by owner\n    All variables are passed as memory as this should remain local to the owners node during execution\n    The owner must input a list of addresses that maintain a right to vote. Later, this input should be replaced\n    with a verification key */\n    function conductElection(string memory inputName, string memory candidateA, string memory candidateB, address[] memory authorizedVoters) public {\n        owner = msg.sender;\n        name = inputName;\n        candidates.push(Candidate(candidateA,0));\n        candidates.push(Candidate(candidateB,0));\n        for(uint i = 0; i < authorizedVoters.length; i++){\n            authorize(authorizedVoters[i]);\n        }\n    }\n     /* Inputs: voteVal, */\n     function submitVote(uint voteVal) public {\n         //Index/address is contained in msg.sender\n    \t\n        require(voters[msg.sender].rights == 1);\n        require(voters[msg.sender].voted == false);\n        \n        //Assign Vote Value to the voter\n        voters[msg.sender].value = voteVal;\n        //If the voter is authorized, then the vote has a state change\n        /* @TODO: Implement Additive Pailler */\n        candidates[voteVal].voteCount += voters[msg.sender].rights;\n        \n    }\n   // function proveMembership)\n    /* The invoker of the Election can convert 'citizens' into 'voters' by giving the rights variable\n    / value that affects the summation in submitVote(..)*/\n    function authorize(address citizen) private {\n        require(msg.sender == owner);\n        voters[citizen].rights = 1;\n        \n    }\n    function tallyVotes() public {\n    \t/* @TODO: Add a loop for dynamic candidates*/\n        emit AnnounceResult(candidates[0].name, candidates[0].voteCount);\n        emit AnnounceResult(candidates[1].name, candidates[0].voteCount);\n    }\n\n}\n",
  "sourcePath": "/home/rayyan808/Documents/Bachelor Project/Code/contracts/Election.sol",
  "compiler": {
    "name": "solc",
    "version": "0.8.4+commit.c7e474f2.Emscripten.clang"
  },
  "schemaVersion": "3.4.0",
  "updatedAt": "2021-04-27T22:04:39.181Z",
  "networkType": "ethereum",
  "devdoc": {
    "kind": "dev",
    "methods": {},
    "version": 1
  },
  "userdoc": {
    "kind": "user",
    "methods": {},
    "version": 1
  }
}