{
  "contractName": "Election",
  "abi": [
    {
      "inputs": [],
      "stateMutability": "nonpayable",
      "type": "constructor"
    },
    {
      "anonymous": false,
      "inputs": [
        {
          "indexed": false,
          "internalType": "address",
          "name": "authorizedUser",
          "type": "address"
        }
      ],
      "name": "AnnounceAuth",
      "type": "event"
    },
    {
      "anonymous": false,
      "inputs": [
        {
          "indexed": false,
          "internalType": "string",
          "name": "stage",
          "type": "string"
        }
      ],
      "name": "AnnounceNewStage",
      "type": "event"
    },
    {
      "anonymous": false,
      "inputs": [
        {
          "indexed": false,
          "internalType": "string",
          "name": "candidate",
          "type": "string"
        },
        {
          "indexed": false,
          "internalType": "uint256[]",
          "name": "tallyCount",
          "type": "uint256[]"
        }
      ],
      "name": "AnnounceResult",
      "type": "event"
    },
    {
      "anonymous": false,
      "inputs": [
        {
          "indexed": false,
          "internalType": "bool",
          "name": "x",
          "type": "bool"
        }
      ],
      "name": "AnnounceValidProof",
      "type": "event"
    },
    {
      "anonymous": false,
      "inputs": [
        {
          "indexed": false,
          "internalType": "string",
          "name": "candidate",
          "type": "string"
        },
        {
          "indexed": false,
          "internalType": "address",
          "name": "proofOfMembership",
          "type": "address"
        }
      ],
      "name": "AnnounceVote",
      "type": "event"
    },
    {
      "anonymous": false,
      "inputs": [
        {
          "indexed": false,
          "internalType": "uint256",
          "name": "s",
          "type": "uint256"
        }
      ],
      "name": "Debug",
      "type": "event"
    },
    {
      "inputs": [],
      "name": "activeVoters",
      "outputs": [
        {
          "internalType": "uint256",
          "name": "",
          "type": "uint256"
        }
      ],
      "stateMutability": "view",
      "type": "function",
      "constant": true
    },
    {
      "inputs": [
        {
          "internalType": "uint256",
          "name": "",
          "type": "uint256"
        }
      ],
      "name": "candidates",
      "outputs": [
        {
          "internalType": "string",
          "name": "name",
          "type": "string"
        }
      ],
      "stateMutability": "view",
      "type": "function",
      "constant": true
    },
    {
      "inputs": [],
      "name": "currentState",
      "outputs": [
        {
          "internalType": "string",
          "name": "",
          "type": "string"
        }
      ],
      "stateMutability": "view",
      "type": "function",
      "constant": true
    },
    {
      "inputs": [
        {
          "internalType": "uint256",
          "name": "",
          "type": "uint256"
        }
      ],
      "name": "identifiers",
      "outputs": [
        {
          "internalType": "uint256",
          "name": "",
          "type": "uint256"
        }
      ],
      "stateMutability": "view",
      "type": "function",
      "constant": true
    },
    {
      "inputs": [],
      "name": "merkleRoot",
      "outputs": [
        {
          "internalType": "uint256",
          "name": "",
          "type": "uint256"
        }
      ],
      "stateMutability": "view",
      "type": "function",
      "constant": true
    },
    {
      "inputs": [],
      "name": "name",
      "outputs": [
        {
          "internalType": "string",
          "name": "",
          "type": "string"
        }
      ],
      "stateMutability": "view",
      "type": "function",
      "constant": true
    },
    {
      "inputs": [],
      "name": "owner",
      "outputs": [
        {
          "internalType": "address",
          "name": "",
          "type": "address"
        }
      ],
      "stateMutability": "view",
      "type": "function",
      "constant": true
    },
    {
      "inputs": [],
      "name": "terminateElection",
      "outputs": [
        {
          "internalType": "uint256",
          "name": "",
          "type": "uint256"
        }
      ],
      "stateMutability": "view",
      "type": "function",
      "constant": true
    },
    {
      "inputs": [
        {
          "internalType": "uint256[2]",
          "name": "a",
          "type": "uint256[2]"
        },
        {
          "internalType": "uint256[2][2]",
          "name": "b",
          "type": "uint256[2][2]"
        },
        {
          "internalType": "uint256[2]",
          "name": "c",
          "type": "uint256[2]"
        },
        {
          "internalType": "uint256[4]",
          "name": "input",
          "type": "uint256[4]"
        }
      ],
      "name": "verifyTx",
      "outputs": [
        {
          "internalType": "bool",
          "name": "r",
          "type": "bool"
        }
      ],
      "stateMutability": "view",
      "type": "function",
      "constant": true
    },
    {
      "inputs": [],
      "name": "voteCount",
      "outputs": [
        {
          "internalType": "uint256",
          "name": "",
          "type": "uint256"
        }
      ],
      "stateMutability": "view",
      "type": "function",
      "constant": true
    },
    {
      "inputs": [],
      "name": "createMerkleArray",
      "outputs": [],
      "stateMutability": "nonpayable",
      "type": "function"
    },
    {
      "inputs": [
        {
          "internalType": "string",
          "name": "str",
          "type": "string"
        }
      ],
      "name": "pushVoteKey",
      "outputs": [],
      "stateMutability": "nonpayable",
      "type": "function"
    },
    {
      "inputs": [
        {
          "internalType": "string",
          "name": "inputName",
          "type": "string"
        },
        {
          "internalType": "string",
          "name": "candidateA",
          "type": "string"
        },
        {
          "internalType": "string",
          "name": "candidateB",
          "type": "string"
        }
      ],
      "name": "conductElection",
      "outputs": [],
      "stateMutability": "nonpayable",
      "type": "function"
    },
    {
      "inputs": [
        {
          "internalType": "uint256[2]",
          "name": "a",
          "type": "uint256[2]"
        },
        {
          "internalType": "uint256[2][2]",
          "name": "b",
          "type": "uint256[2][2]"
        },
        {
          "internalType": "uint256[2]",
          "name": "c",
          "type": "uint256[2]"
        },
        {
          "internalType": "uint256[4]",
          "name": "input",
          "type": "uint256[4]"
        },
        {
          "internalType": "uint256",
          "name": "voteVal",
          "type": "uint256"
        }
      ],
      "name": "submitVote",
      "outputs": [],
      "stateMutability": "nonpayable",
      "type": "function"
    },
    {
      "inputs": [
        {
          "internalType": "string",
          "name": "str",
          "type": "string"
        }
      ],
      "name": "getMerkleInfo",
      "outputs": [
        {
          "internalType": "uint256",
          "name": "targetIndex",
          "type": "uint256"
        },
        {
          "internalType": "uint256",
          "name": "firstLayerSize",
          "type": "uint256"
        },
        {
          "internalType": "uint256[]",
          "name": "entireMerkleArray",
          "type": "uint256[]"
        },
        {
          "internalType": "uint256",
          "name": "mkRoot",
          "type": "uint256"
        }
      ],
      "stateMutability": "view",
      "type": "function",
      "constant": true
    },
    {
      "inputs": [
        {
          "internalType": "address",
          "name": "citizen",
          "type": "address"
        }
      ],
      "name": "authorize",
      "outputs": [],
      "stateMutability": "nonpayable",
      "type": "function"
    },
    {
      "inputs": [],
      "name": "tallyVotes",
      "outputs": [],
      "stateMutability": "nonpayable",
      "type": "function"
    },
    {
      "inputs": [],
      "name": "getCandidates",
      "outputs": [
        {
          "internalType": "string[]",
          "name": "",
          "type": "string[]"
        }
      ],
      "stateMutability": "view",
      "type": "function",
      "constant": true
    }
  ],
  "bytecode": "0x608060405234801561001057600080fd5b5033600160006101000a81548173ffffffffffffffffffffffffffffffffffffffff021916908373ffffffffffffffffffffffffffffffffffffffff16021790555061529e806100616000396000f3fe608060405234801561001057600080fd5b50600436106101165760003560e01c80632eb4a7ab116100a25780638da5cb5b116100715780638da5cb5b146102be578063b4f3b1ca146102dc578063b6a5d7de146102fa578063bb314cd814610316578063c63840711461033457610116565b80632eb4a7ab1461025c5780633477ee2e1461027a578063378a2178146102aa5780637e95b5e9146102b457610116565b80630c3f6acf116100e95780630c3f6acf146101a657806317de5836146101c457806326222ea3146101f45780632894190f1461021057806328f2d4da1461022c57610116565b806306a49fce1461011b57806306fdde031461013957806309709a7d146101575780630990248b1461018a575b600080fd5b610123610352565b6040516101309190614bbb565b60405180910390f35b610141610514565b60405161014e9190614bf8565b60405180910390f35b610171600480360381019061016c919061480d565b6105a2565b6040516101819493929190614c8e565b60405180910390f35b6101a4600480360381019061019f919061480d565b610700565b005b6101ae6107d4565b6040516101bb9190614bf8565b60405180910390f35b6101de60048036038101906101d9919061472e565b610862565b6040516101eb9190614bdd565b60405180910390f35b61020e6004803603810190610209919061484e565b610d16565b005b61022a60048036038101906102259190614793565b610efa565b005b610246600480360381019061024191906148e5565b610f49565b6040516102539190614c73565b60405180910390f35b610264610f6d565b6040516102719190614c73565b60405180910390f35b610294600480360381019061028f91906148e5565b610f73565b6040516102a19190614bf8565b60405180910390f35b6102b2611029565b005b6102bc6111c9565b005b6102c66115fd565b6040516102d39190614ba0565b60405180910390f35b6102e4611623565b6040516102f19190614c73565b60405180910390f35b610314600480360381019061030f9190614705565b611629565b005b61031e611721565b60405161032b9190614c73565b60405180910390f35b61033c611727565b6040516103499190614c73565b60405180910390f35b6060600060098054905067ffffffffffffffff81111561039b577f4e487b7100000000000000000000000000000000000000000000000000000000600052604160045260246000fd5b6040519080825280602002602001820160405280156103ce57816020015b60608152602001906001900390816103b95790505b50905060005b60098054905081101561050c576009818154811061041b577f4e487b7100000000000000000000000000000000000000000000000000000000600052603260045260246000fd5b9060005260206000209060020201600001805461043790615056565b80601f016020809104026020016040519081016040528092919081815260200182805461046390615056565b80156104b05780601f10610485576101008083540402835291602001916104b0565b820191906000526020600020905b81548152906001019060200180831161049357829003601f168201915b50505050508282815181106104ee577f4e487b7100000000000000000000000000000000000000000000000000000000600052603260045260246000fd5b60200260200101819052508080610504906150d3565b9150506103d4565b508091505090565b6000805461052190615056565b80601f016020809104026020016040519081016040528092919081815260200182805461054d90615056565b801561059a5780601f1061056f5761010080835404028352916020019161059a565b820191906000526020600020905b81548152906001019060200180831161057d57829003601f168201915b505050505081565b6000806060600080610539905060006105ba8761172d565b905060005b60088054905081101561062f5760088181548110610606577f4e487b7100000000000000000000000000000000000000000000000000000000600052603260045260246000fd5b906000526020600020015482141561061c578092505b8080610627906150d3565b9150506105bf565b5061053982141561063f57600080fd5b81600780549050600880600160088054905061065b9190614f64565b81548110610692577f4e487b7100000000000000000000000000000000000000000000000000000000600052603260045260246000fd5b9060005260206000200154818054806020026020016040519081016040528092919081815260200182805480156106e857602002820191906000526020600020905b8154815260200190600101908083116106d4575b50505050509150955095509550955050509193509193565b600061070b8261172d565b9050600781908060018154018082558091505060019003906000526020600020016000909190919091505560026000815480929190610749906150d3565b919050555060046002541415610799577f8a36f5a234186d446e36a7df36ace663a05a580d9bea2dd899c6dd76a075d5fa816040516107889190614c73565b60405180910390a16107986111c9565b5b7f8a36f5a234186d446e36a7df36ace663a05a580d9bea2dd899c6dd76a075d5fa816040516107c89190614c73565b60405180910390a15050565b600580546107e190615056565b80601f016020809104026020016040519081016040528092919081815260200182805461080d90615056565b801561085a5780601f1061082f5761010080835404028352916020019161085a565b820191906000526020600020905b81548152906001019060200180831161083d57829003601f168201915b505050505081565b600061086c6142a3565b6040518060400160405280876000600281106108b1577f4e487b7100000000000000000000000000000000000000000000000000000000600052603260045260246000fd5b60200201518152602001876001600281106108f5577f4e487b7100000000000000000000000000000000000000000000000000000000600052603260045260246000fd5b602002015181525081600001819052506040518060400160405280604051806040016040528088600060028110610955577f4e487b7100000000000000000000000000000000000000000000000000000000600052603260045260246000fd5b6020020151600060028110610993577f4e487b7100000000000000000000000000000000000000000000000000000000600052603260045260246000fd5b60200201518152602001886000600281106109d7577f4e487b7100000000000000000000000000000000000000000000000000000000600052603260045260246000fd5b6020020151600160028110610a15577f4e487b7100000000000000000000000000000000000000000000000000000000600052603260045260246000fd5b60200201518152508152602001604051806040016040528088600160028110610a67577f4e487b7100000000000000000000000000000000000000000000000000000000600052603260045260246000fd5b6020020151600060028110610aa5577f4e487b7100000000000000000000000000000000000000000000000000000000600052603260045260246000fd5b6020020151815260200188600160028110610ae9577f4e487b7100000000000000000000000000000000000000000000000000000000600052603260045260246000fd5b6020020151600160028110610b27577f4e487b7100000000000000000000000000000000000000000000000000000000600052603260045260246000fd5b60200201518152508152508160200181905250604051806040016040528085600060028110610b7f577f4e487b7100000000000000000000000000000000000000000000000000000000600052603260045260246000fd5b6020020151815260200185600160028110610bc3577f4e487b7100000000000000000000000000000000000000000000000000000000600052603260045260246000fd5b602002015181525081604001819052506000600467ffffffffffffffff811115610c16577f4e487b7100000000000000000000000000000000000000000000000000000000600052604160045260246000fd5b604051908082528060200260200182016040528015610c445781602001602082028036833780820191505090505b50905060005b6004811015610ce957848160048110610c8c577f4e487b7100000000000000000000000000000000000000000000000000000000600052603260045260246000fd5b6020020151828281518110610cca577f4e487b7100000000000000000000000000000000000000000000000000000000600052603260045260246000fd5b6020026020010181815250508080610ce1906150d3565b915050610c4a565b506000610cf682846117ed565b1415610d0757600192505050610d0e565b6000925050505b949350505050565b33600160006101000a81548173ffffffffffffffffffffffffffffffffffffffff021916908373ffffffffffffffffffffffffffffffffffffffff1602179055508260009080519060200190610d6d9291906142d6565b506060600960405180604001604052808581526020018381525090806001815401808255809150506001900390600052602060002090600202016000909190919091506000820151816000019080519060200190610dcc9291906142d6565b506020820151816001019080519060200190610de992919061435c565b505050600960405180604001604052808481526020018381525090806001815401808255809150506001900390600052602060002090600202016000909190919091506000820151816000019080519060200190610e489291906142d6565b506020820151816001019080519060200190610e6592919061435c565b50505060006003819055506040518060400160405280601281526020017f564f54454b45592d47454e45524154494f4e000000000000000000000000000081525060059080519060200190610ebb9291906142d6565b507fb712ca18858a18cb63ef75fe8c737e3ad52062d7389284fd4ecb4524da24e0906005604051610eec9190614c1a565b60405180910390a150505050565b6000610f0886868686610862565b90507f8671313620ae44244991604d4943e3aba1e86b7cf6530358ba0e5b02662094ac81604051610f399190614bdd565b60405180910390a1505050505050565b60048181548110610f5957600080fd5b906000526020600020016000915090505481565b600a5481565b60098181548110610f8357600080fd5b9060005260206000209060020201600091509050806000018054610fa690615056565b80601f0160208091040260200160405190810160405280929190818152602001828054610fd290615056565b801561101f5780601f10610ff45761010080835404028352916020019161101f565b820191906000526020600020905b81548152906001019060200180831161100257829003601f168201915b5050505050905081565b7ff75583bd1a80d19a7920011d52bf4464f3140dc3ac59046d37a729fc46b9a7596009600081548110611085577f4e487b7100000000000000000000000000000000000000000000000000000000600052603260045260246000fd5b906000526020600020906002020160000160096000815481106110d1577f4e487b7100000000000000000000000000000000000000000000000000000000600052603260045260246000fd5b90600052602060002090600202016001016040516110f0929190614c3c565b60405180910390a17ff75583bd1a80d19a7920011d52bf4464f3140dc3ac59046d37a729fc46b9a7596009600181548110611154577f4e487b7100000000000000000000000000000000000000000000000000000000600052603260045260246000fd5b906000526020600020906002020160000160096001815481106111a0577f4e487b7100000000000000000000000000000000000000000000000000000000600052603260045260246000fd5b90600052602060002090600202016001016040516111bf929190614c3c565b60405180910390a1565b6000600190506000805b6007805490508311611209576007805490508314156111f55760019150611209565b6002836112029190614f0a565b92506111d3565b5b6007805490508314158015611223575060001515821515145b156112665760076105399080600181540180825580915050600190039060005260206000200160009091909190915055828061125e9061502c565b93505061120a565b60005b600780549050811015611330577f8a36f5a234186d446e36a7df36ace663a05a580d9bea2dd899c6dd76a075d5fa826040516112a59190614c73565b60405180910390a1600781815481106112e7577f4e487b7100000000000000000000000000000000000000000000000000000000600052603260045260246000fd5b9060005260206000200154915060088290806001815401808255809150506001900390600052602060002001600090919091909150558080611328906150d3565b915050611269565b5060008060078054905090506000600267ffffffffffffffff81111561137f577f4e487b7100000000000000000000000000000000000000000000000000000000600052604160045260246000fd5b6040519080825280602002602001820160405280156113ad5781602001602082028036833780820191505090505b5090505b60008211156115715760005b6001836113ca9190614f64565b81101561154e57600881856113df9190614e83565b81548110611416577f4e487b7100000000000000000000000000000000000000000000000000000000600052603260045260246000fd5b90600052602060002001548260008151811061145b577f4e487b7100000000000000000000000000000000000000000000000000000000600052603260045260246000fd5b6020026020010181815250506008600182866114779190614e83565b6114819190614e83565b815481106114b8577f4e487b7100000000000000000000000000000000000000000000000000000000600052603260045260246000fd5b9060005260206000200154826001815181106114fd577f4e487b7100000000000000000000000000000000000000000000000000000000600052603260045260246000fd5b602002602001018181525050600861151483611a1c565b90806001815401808255809150506001900390600052602060002001600090919091909150556002816115479190614e83565b90506113bd565b50818361155b9190614e83565b925060028261156a9190614ed9565b91506113b1565b6040518060400160405280600b81526020017f564f54494e472d4f50454e000000000000000000000000000000000000000000815250600590805190602001906115bc9291906142d6565b507fb712ca18858a18cb63ef75fe8c737e3ad52062d7389284fd4ecb4524da24e09060056040516115ed9190614c1a565b60405180910390a1505050505050565b600160009054906101000a900473ffffffffffffffffffffffffffffffffffffffff1681565b600b5481565b600160009054906101000a900473ffffffffffffffffffffffffffffffffffffffff1673ffffffffffffffffffffffffffffffffffffffff163373ffffffffffffffffffffffffffffffffffffffff161461168357600080fd5b6001600660008373ffffffffffffffffffffffffffffffffffffffff1673ffffffffffffffffffffffffffffffffffffffff16815260200190815260200160002060000160006101000a81548160ff0219169083151502179055506116e781611b1f565b7f081ba50acbad95aaf2f3d6ae236a307baad3be11e7c84f2b4a043cfc114ebe31336040516117169190614ba0565b60405180910390a150565b60025481565b60035481565b6000808290506000809250600090505b81518110156117e6576000828281518110611781577f4e487b7100000000000000000000000000000000000000000000000000000000600052603260045260246000fd5b602001015160f81c60f81b60f81c60ff169050603081101580156117a6575060398111155b156117d2576030816117b89190614f64565b600a856117c59190614f0a565b6117cf9190614e83565b93505b5080806117de906150d3565b91505061173d565b5050919050565b6000807f30644e72e131a029b85045b68181585d2833e84879b9709143e1f593f00000019050600061181d611b6a565b9050806080015151600186516118339190614e83565b1461183d57600080fd5b60006040518060400160405280600081526020016000815250905060005b8651811015611968578387828151811061189e577f4e487b7100000000000000000000000000000000000000000000000000000000600052603260045260246000fd5b6020026020010151106118b057600080fd5b6119538261194e85608001516001856118c99190614e83565b81518110611900577f4e487b7100000000000000000000000000000000000000000000000000000000600052603260045260246000fd5b60200260200101518a8581518110611941577f4e487b7100000000000000000000000000000000000000000000000000000000600052603260045260246000fd5b60200260200101516121ba565b6122d3565b91508080611960906150d3565b91505061185b565b506119b88183608001516000815181106119ab577f4e487b7100000000000000000000000000000000000000000000000000000000600052603260045260246000fd5b60200260200101516122d3565b90506119fe856000015186602001516119d084612438565b85604001516119e28a60400151612438565b87606001516119f48960000151612438565b89602001516124dd565b611a0e5760019350505050611a16565b600093505050505b92915050565b6000806000905060007f30644e72e131a029b85045b68181585d2833e84879b9709143e1f593f0000001905060005b8451811015611b145781611a9f868381518110611a91577f4e487b7100000000000000000000000000000000000000000000000000000000600052603260045260246000fd5b602002602001015185612826565b868381518110611ad8577f4e487b7100000000000000000000000000000000000000000000000000000000600052603260045260246000fd5b602002602001015185611aeb9190614e83565b611af59190614e83565b611aff919061511c565b92508080611b0c906150d3565b915050611a4b565b508192505050919050565b6001600660008373ffffffffffffffffffffffffffffffffffffffff1673ffffffffffffffffffffffffffffffffffffffff1681526020019081526020016000206001018190555050565b611b726143a9565b60405180604001604052807f246aad5c0aa64a0353f23f3b8c3bba0cca6c08685ec0018a685264185d20513081526020017f02b9ff6ffa29d225a14b285882f58c88f4e2d1a2303887160ec9404ea7cdb71b8152508160000181905250604051806040016040528060405180604001604052807f0ef276f305c0e6f038edbb9e87ffec5a12840b8b5a2bf95c6d511402c3e8ca2781526020017f1787e7759ec1f7f1ab74f01318fc927acd9824172a23acd911f99bf0639d1d3b815250815260200160405180604001604052807f022ed9c1c531838f6d94299a6dc2db255398df406a2cc7ec0cb405c2a620d60f81526020017f1af77b20751f22d9054c5475ece9411dd717ce0d0ea9a304f02fb902c8312a198152508152508160200181905250604051806040016040528060405180604001604052807f24c64a9aafdb23b3d87fff3405253330f3a3d19242b1e47e0f9cb24c7685faa281526020017f114bd474e6523a92a5482161334511a3c66cf914c16cb5bb1675c0d7347bc586815250815260200160405180604001604052807f2b68d585f4110ee9f60524357c554ad1c73d12ca670a5e3bc92945bb42dc7b6581526020017f0c2681847fcf2cb49f5958c5e2a4b1472d49df1740df02dfcfcc19eea097a65a8152508152508160400181905250604051806040016040528060405180604001604052807f1ee034c7f8a10c15d4b4b873fd5813b9baee8b706c15f7e7b41fc25265bbf14c81526020017f0e2c06dd8e335e03010c9f561683323aae26e971ce318041f5fd79911eae2e31815250815260200160405180604001604052807f19efd6cb473402e2b71f002aba9c0c20f345496dc9c8ecc8bd22811d9815bcf481526020017f0974159d20990ab651a937d9df9fea946973f3ceb49065c6f07df1cb0ea439748152508152508160600181905250600567ffffffffffffffff811115611e5f577f4e487b7100000000000000000000000000000000000000000000000000000000600052604160045260246000fd5b604051908082528060200260200182016040528015611e9857816020015b611e856143f0565b815260200190600190039081611e7d5790505b50816080018190525060405180604001604052807f09163663c1a3cfac277b7ce717d8ed03c5d39d1947614bc44d61144e1817cfe581526020017f0e7bd5dec8001c779ce2626bb776435e6ae3bea3baee383bffb4101f6f64da6e8152508160800151600081518110611f34577f4e487b7100000000000000000000000000000000000000000000000000000000600052603260045260246000fd5b602002602001018190525060405180604001604052807f2c02fa69eda4ae81dad1701d588729264bac3644f92bda909f0ff5c3cde04ef181526020017f10a90291770a0ff65a6f296b049539b07d1e687f5f3030572e238d2bda16ddf18152508160800151600181518110611fd2577f4e487b7100000000000000000000000000000000000000000000000000000000600052603260045260246000fd5b602002602001018190525060405180604001604052807f27c96475b2e3ebbc23c0bf35c089b01f9a956d5273bb29359dae99e02ead72b381526020017f1960581a5ab61da3234504a7f7f7af9f05c4ee8339307ff4ae3dc95ecdd9586b8152508160800151600281518110612070577f4e487b7100000000000000000000000000000000000000000000000000000000600052603260045260246000fd5b602002602001018190525060405180604001604052807f0b2f96bf3c102c09edf386c30b3281938b0d76aa1c23cb6068c392099c6d24f481526020017f2aea9c2e5be215c8d76724888ad778af36ffcce97d150d7613f1eeee207e5ccc815250816080015160038151811061210e577f4e487b7100000000000000000000000000000000000000000000000000000000600052603260045260246000fd5b602002602001018190525060405180604001604052807f118cb4e00d5fa50ec800b269b69cf18cf5e71a241bad1080dea01b73f05f8fde81526020017f22e4965b804454b94ef221a4c1b1aa5e91a6de1beb4434f86699dc46f8f32b7c81525081608001516004815181106121ac577f4e487b7100000000000000000000000000000000000000000000000000000000600052603260045260246000fd5b602002602001018190525090565b6121c26143f0565b6121ca61440a565b836000015181600060038110612209577f4e487b7100000000000000000000000000000000000000000000000000000000600052603260045260246000fd5b602002018181525050836020015181600160038110612251577f4e487b7100000000000000000000000000000000000000000000000000000000600052603260045260246000fd5b6020020181815250508281600260038110612295577f4e487b7100000000000000000000000000000000000000000000000000000000600052603260045260246000fd5b602002018181525050600060608360808460076107d05a03fa905080600081146122be576122c0565bfe5b50806122cb57600080fd5b505092915050565b6122db6143f0565b6122e361442c565b836000015181600060048110612322577f4e487b7100000000000000000000000000000000000000000000000000000000600052603260045260246000fd5b60200201818152505083602001518160016004811061236a577f4e487b7100000000000000000000000000000000000000000000000000000000600052603260045260246000fd5b6020020181815250508260000151816002600481106123b2577f4e487b7100000000000000000000000000000000000000000000000000000000600052603260045260246000fd5b6020020181815250508260200151816003600481106123fa577f4e487b7100000000000000000000000000000000000000000000000000000000600052603260045260246000fd5b602002018181525050600060608360c08460066107d05a03fa9050806000811461242357612425565bfe5b508061243057600080fd5b505092915050565b6124406143f0565b60007f30644e72e131a029b85045b68181585d97816a916871ca8d3c208c16d87cfd4790506000836000015114801561247d575060008360200151145b156124a15760405180604001604052806000815260200160008152509150506124d8565b6040518060400160405280846000015181526020018285602001516124c6919061511c565b836124d19190614f64565b8152509150505b919050565b600080600467ffffffffffffffff811115612521577f4e487b7100000000000000000000000000000000000000000000000000000000600052604160045260246000fd5b60405190808252806020026020018201604052801561255a57816020015b6125476143f0565b81526020019060019003908161253f5790505b5090506000600467ffffffffffffffff8111156125a0577f4e487b7100000000000000000000000000000000000000000000000000000000600052604160045260246000fd5b6040519080825280602002602001820160405280156125d957816020015b6125c661444e565b8152602001906001900390816125be5790505b5090508a82600081518110612617577f4e487b7100000000000000000000000000000000000000000000000000000000600052603260045260246000fd5b6020026020010181905250888260018151811061265d577f4e487b7100000000000000000000000000000000000000000000000000000000600052603260045260246000fd5b602002602001018190525086826002815181106126a3577f4e487b7100000000000000000000000000000000000000000000000000000000600052603260045260246000fd5b602002602001018190525084826003815181106126e9577f4e487b7100000000000000000000000000000000000000000000000000000000600052603260045260246000fd5b6020026020010181905250898160008151811061272f577f4e487b7100000000000000000000000000000000000000000000000000000000600052603260045260246000fd5b60200260200101819052508781600181518110612775577f4e487b7100000000000000000000000000000000000000000000000000000000600052603260045260246000fd5b602002602001018190525085816002815181106127bb577f4e487b7100000000000000000000000000000000000000000000000000000000600052603260045260246000fd5b60200260200101819052508381600381518110612801577f4e487b7100000000000000000000000000000000000000000000000000000000600052603260045260246000fd5b60200260200101819052506128168282613c9c565b9250505098975050505050505050565b60007f30644e72e131a029b85045b68181585d2833e84879b9709143e1f593f0000001600080847f2e2ebbb178296b63d88ec198f0976ad98bc1d4eb0d921ddd2eb86cb7e70a98e58701019150828283099050828284858485098409099550847f21bfc154b5b071d22d06105663553801f858c1f231020b4c291a729d6281d3498701019150828283099050828284858485098409099550847f126cfa352b0e2701442b36e0c2fc88287cfd3bfecce842afc0e3e78d8edb4ad88701019150828283099050828284858485098409099550847f0309d7067ab65de1a99fe23f458d0bc3f18c59b6642ef48afc679ef17cb6928c8701019150828283099050828284858485098409099550847f194c4693409966960be88513cfe32987c125f71398a782e44973fb8af4798bd88701019150828283099050828284858485098409099550847f05a849684bc58cc0d6e9f319b4dae26db171733bf60f31d978e41d09a75a63198701019150828283099050828284858485098409099550847f18bd4dae5134538bd2f90d41bbb1e330b2a8286ba4a09aca3fbbdcf932534be58701019150828283099050828284858485098409099550847f0736c60cd39fd1649d4845b4f9a6ec9baca89fb2de0a3d7eeabe43504b5607fa8701019150828283099050828284858485098409099550847f25a6971a9d2c1de9f374378d8f61492b1bd3c46584c076a76c43c3cd1a7475128701019150828283099050828284858485098409099550847f0a3373d15fa6dce221f83226c02d41f8aea5cfc6da4c9f4981ada1bd4b50f56e8701019150828283099050828284858485098409099550847f2b70028e2bf4e008e22eddb78d4190d73c289dc6445b3f64e15f8bd0ec02c6728701019150828283099050828284858485098409099550847f0b24ef461a71eed93dd366342f9ca4eebb749c8a5a6057c801d538c7c0666ba48701019150828283099050828284858485098409099550847f05d1e0ac576d1ec814b621516339ae1a291c7df36b5fd6cf0b4e3c9cd25e30728701019150828283099050828284858485098409099550847f271cfbf88e9744b8596e7e2d6875c8005d0e62014010ac35e95a7ce2390bc50f8701019150828283099050828284858485098409099550847f196309f1d170d741ab1ce90c39772017fb7cdec78c37882b98a6b56956c13def8701019150828283099050828284858485098409099550847f127c1116c575c03c7f6d83417d8c1b3808f92ee16924a54094bf094721e9e4f58701019150828283099050828284858485098409099550847f1bff78047ee67d38a54fdc540f9a2ba07f63489acd36425f1ae210ac329826f58701019150828283099050828284858485098409099550847f06c7dc7bbae615fcf1896f2b8db7d92c05dc1ea1c8134e9db6fd588672c53e9a8701019150828283099050828284858485098409099550847f12df78cba175ef76dbfcc9c785926bb3949a87ec7533e2559a27a64b91cebba58701019150828283099050828284858485098409099550847f2bd4cdc962e3da62cb3c96f7c428a9b0d518bfa7ce26f8fce7a6af769afb65408701019150828283099050828284858485098409099550847f24edd3847febbe44c4cc390246e3379b47fd01a030d0cd0b4fcf7fbd1cabfe588701019150828283099050828284858485098409099550847f1ce065d2c2561bb573e4cf4259d3b0b0e9eacb447751c62b77d0bc5e4e3c7d158701019150828283099050828284858485098409099550847f18053e9f0d45f9eefbda135bfd39329e34837e633565c314fb9030b9db7381bb8701019150828283099050828284858485098409099550847f162ffa8742138bbe516168bf86ec78b1ad1e8b535ac455a7cfbb22c13f9c5a9e8701019150828283099050828284858485098409099550847f079eea42e16ac6442ca82623fc0e8d9ad3996a47a8013ea9cb73858ca42b71598701019150828283099050828284858485098409099550847f0a49af2bbe11b05bd02a69a47b1bad5b2170407ada21142f06e4e109de88a1b68701019150828283099050828284858485098409099550847f12c34eebbaa69cccc36929e8f4a6e40771e153ff77943da55c4fc860537b733a8701019150828283099050828284858485098409099550847e8de5ac6b4e359335b6fce58dc0e5e43fd2aefd86bac35abe579b8cace5dbc88701019150828283099050828284858485098409099550847f04a6e988b50d915734bf3296d83057ffe6a550f8987e4597bee7d333cd24a8658701019150828283099050828284858485098409099550847f24112633926cfc6028fa2ffd9f090b1e5428a0a87d7118356e48b5d4704492178701019150828283099050828284858485098409099550847f0d56329982f3df38a3f19fb814c3013f419ba0eb8403b27c0c0e75c6fe1cf4688701019150828283099050828284858485098409099550847f1f01ef80763c95f53c434164493d9673aeef290bf1aa1997d677b557b9692e8a8701019150828283099050828284858485098409099550847f105c5257f801527e60b0361c00075b5a79d2dc6821d8a1258d906ed453c7e7be8701019150828283099050828284858485098409099550847f03db505a0c32cb61ca099389c2180e1c83827fb41d9fed84d88766df44c630798701019150828283099050828284858485098409099550847f1262e738f38db6c79d24d9727294421cd95afa24f4700c1323ab83c3a06ace328701019150828283099050828284858485098409099550847f0ee68c3e38c194033994c0d4d7bde35bfafa35b22a95f915f82c5a3b0422bd9a8701019150828283099050828284858485098409099550847f2ee5427bd20c47f8d2f0aa9e6419f7926abcd5965084292ae54dd780077e69028701019150828283099050828284858485098409099550847f1e542d31d2a381792e0a9241c46229a22fd9382443e423a0e419d0feb58656af8701019150828283099050828284858485098409099550847f0ba39f01462ab6a7cf621952752fcde48677d7f32df47e940eacf4954c5ef6328701019150828283099050828284858485098409099550847f29c00b058c17800146bdc06b1e73ff5d0ff53df96f8463818c0572d11fcaf88b8701019150828283099050828284858485098409099550847f0b6200895b60a6c6794fcf1c2b1b15d03a713c905a8ba1f1315f7501fe1a50b88701019150828283099050828284858485098409099550847f2bc639b1b85d731f62d2c6f391d4498e392cb75edcbd5c4c0fa8b26d32d68a128701019150828283099050828284858485098409099550847f2a89f38e6440ce641127046b67d8e615f14503d72d76bf3c703a01d1463a84458701019150828283099050828284858485098409099550847f1750ede7eeeb4edd7838b67fac6d250a54055eeead10e69b3a6e1f076ca878688701019150828283099050828284858485098409099550847f0c2d65084bead2a743115be5329d5458d29802081f6f9dac4165c42651f9be2b8701019150828283099050828284858485098409099550847f28303e2d834e16e1fe33c9ab726a3e75dd0dad9bfea1a43267199e1f243993fb8701019150828283099050828284858485098409099550847f2b572811ca34ea5110d10772e4ced362ebefd7cd1e1884b769e9435914efc5e58701019150828283099050828284858485098409099550847f17521ca5799fe2ea82c67c0a8d0863b5eec0ef9b703e195dd402b7008b53f6b48701019150828283099050828284858485098409099550847f0407e54b96a5b63c609fa3797b223c73d260a365ad58b25891a5660272096bd58701019150828283099050828284858485098409099550847f1a3cd155b03c7d33cc8222c997424bc14069e2edbf4b8aa564c9e5832bdace918701019150828283099050828284858485098409099550847f296255b5e697e517c502ba49b18aaad89514a490a02e7a878b5d559841b93fbd8701019150828283099050828284858485098409099550847f174835801a1f1525b4c21853b965c5048af465e9f79de9d16748c67953da79a78701019150828283099050828284858485098409099550847f2d4afed7a708e5972e84d766292f2c841c5d8570961074d59ad3f51e9369a5978701019150828283099050828284858485098409099550847f1c0eb06744c9866e271cd29a7f17f72964faba3cd088b95e73dcce9d92c79ba68701019150828283099050828284858485098409099550847f26705e7e4f23a7d786ad1786b353a2f8b82269c7b58ab70d7b93f41685d34d458701019150828283099050828284858485098409099550847f04e674d88b90b1188353106ae25c0447acace9dc6d62cfe7fec2d7993dfd7a228701019150828283099050828284858485098409099550847f0df3335da13ff46f65095f975d157886241aeccff38fd9bba92644f8969d7e098701019150828283099050828284858485098409099550847f2dfff62b9282ec05b1fa44479a6e9debe9ac631813d2b10e44b9e0fe19e4d4ee8701019150828283099050828284858485098409099550847f08ece248fe1ce1cd705699b5cd07c990ec27721bab59b657bb138e487ee6694d8701019150828283099050828284858485098409099550847f2c1ab81db607ba76dbf71f48752c856bf183044981c3b6d1fd31b179a078f5718701019150828283099050828284858485098409099550847f01de6f8886868e351bf4caad293bd86ed29ef63810e15cb809542e01bfbbcb888701019150828283099050828284858485098409099550847f23dd8b576fa286331864d63c77fd82fa61da717533821b9382617ebd54abeb468701019150828283099050828284858485098409099550847f169f2c8e515b2cee8d183991c3712736001a7f92fb34c3e3f532dec373aacbfb8701019150828283099050828284858485098409099550847f0ecf89b898e2deca99ae5108d271f1fa92e5018c1ac899d554dc1dfa35ceb0a08701019150828283099050828284858485098409099550847f0dc0d6e76afba377dd693ed4c47a4f9fee7a88d1df5df62fd06f2f87b81de1c88701019150828283099050828284858485098409099550847f0d8d08571539c68a37dad2a6638291d323948e57a0189a7be2ec14d89308bb6d8701019150828283099050828284858485098409099550847f17d170e737533e922c934f79bad3c28f85ef14b21c7354000298cee876977a448701019150828283099050828284858485098409099550847f09ed630d4088d7acaa34064515c1cb368ed405c4ded26df38652d290b26f6aff8701019150828283099050828284858485098409099550847f2b5381943dd4c43bd059a4747b72fc116f099c46004dc811ddb440f7ee69701e8701019150828283099050828284858485098409099550847f01da34e987e965c368ec0252e97db8bfb78668db369cdf6c70f7e02b5bd52b3b8701019150828283099050828284858485098409099550847f1a18c896f124cd4821fbe08ac680b78362c15344619cef072874f43799b89f238701019150828283099050828284858485098409099550847f168dbaf0eae2cfe96f6b340bfd4922c1c41317bfff69613b81d9722e34059f208701019150828283099050828284858485098409099550847f1dfd587726ec442565eb47fc0234740634b6562d1b60192947140b8670aa40148701019150828283099050828284858485098409099550847f147a904bcd17a3f66ebd75b2c1279507001e602842a047929fd119d31edf39248701019150828283099050828284858485098409099550847e621164e8b17a476172ee2aabd9a1a67ecc05f926bec5bbaceb7524616e11668701019150828283099050828284858485098409099550847f280fcce91f920b6487ee3e6a838abbc1f7eb44e4853b22d067a56f5e908499b98701019150828283099050828284858485098409099550847f2d49d03ab6b741495e4d7cbe87ea6cf0f06aea86f528d13d57f6a05e4c868d0b8701019150828283099050828284858485098409099550847f2a59b6e410852d96661479179081af38f478b7603eb3e4f231f99633d826cde98701019150828283099050828284858485098409099550847f1a7783fa9ff7b36d38aeb75e65cfc88260b70d4600b51ab5745e5fe1dc35d9b18701019150828283099050828284858485098409099550847f286d1e7e039fa286d1bd8fe69e175ecad61693cc1f55044847191bae2ff344b28701019150828283099050828284858485098409099550847f0fa108dbe8e14e8c53093f9aaf1f989dabb3dc026ffecb049d3d6b4b2c9b80778701019150828283099050828284858485098409099550847f0e4b25635fa58150829c3e832c4361bfa7edfdf40b0514c00dd3a7338131f1938701019150828283099050828284858485098409099550847f23b0ea71b8bbd3cb62b741e525f5c8b35cbfed820aaf1234d03a4655cdf710398701019150828283099050828284858485098409099550847f2aced572dbfd2664569030fcf391019702f79cbfbe380714894fbfc785dad03f8701019150828283099050828284858485098409099550847f03c36b340d12daf2422febd15a4521f351459057c2affd6816c67fa38b3cc34d8701019150828283099050828284858485098409099550847f17d64c030f29369c09ffd529c7532b84228e69ef6dd9d9dab603ba86cb9254e78701019150828283099050828284858485098409099550847f095050333e4136e4c73b4101ab008bf625a73c51afd5e77f99c606ca7ace63d78701019150828283099050828284858485098409099550847f10ca0fd2a95bc198763d375f566182463e0c92ea122df6485f1c4e5a9769b32c8701019150828283099050828284858485098409099550847f29f63c935efe224e235d5b49b88578a97b25c739a342d4a0d908b98ef757db618701019150828283099050828284858485098409099550847f1e1289b8eff2d431b178bc957cc0c41a1d7237057b9256fd090eb3c6366b9ef58701019150828283099050828284858485098409099550847f1ed8ee02730ece601f15be81e7d27250c4a4d4c04e7a2f3f4e79b931fd9ffac9870101915082828309905082828485848509840909955082858708935050505092915050565b60008151835114613cac57600080fd5b6000835190506000600682613cc19190614f0a565b905060008167ffffffffffffffff811115613d05577f4e487b7100000000000000000000000000000000000000000000000000000000600052604160045260246000fd5b604051908082528060200260200182016040528015613d335781602001602082028036833780820191505090505b50905060005b8381101561421857868181518110613d7a577f4e487b7100000000000000000000000000000000000000000000000000000000600052603260045260246000fd5b602002602001015160000151826000600684613d969190614f0a565b613da09190614e83565b81518110613dd7577f4e487b7100000000000000000000000000000000000000000000000000000000600052603260045260246000fd5b602002602001018181525050868181518110613e1c577f4e487b7100000000000000000000000000000000000000000000000000000000600052603260045260246000fd5b602002602001015160200151826001600684613e389190614f0a565b613e429190614e83565b81518110613e79577f4e487b7100000000000000000000000000000000000000000000000000000000600052603260045260246000fd5b602002602001018181525050858181518110613ebe577f4e487b7100000000000000000000000000000000000000000000000000000000600052603260045260246000fd5b602002602001015160000151600160028110613f03577f4e487b7100000000000000000000000000000000000000000000000000000000600052603260045260246000fd5b6020020151826002600684613f189190614f0a565b613f229190614e83565b81518110613f59577f4e487b7100000000000000000000000000000000000000000000000000000000600052603260045260246000fd5b602002602001018181525050858181518110613f9e577f4e487b7100000000000000000000000000000000000000000000000000000000600052603260045260246000fd5b602002602001015160000151600060028110613fe3577f4e487b7100000000000000000000000000000000000000000000000000000000600052603260045260246000fd5b6020020151826003600684613ff89190614f0a565b6140029190614e83565b81518110614039577f4e487b7100000000000000000000000000000000000000000000000000000000600052603260045260246000fd5b60200260200101818152505085818151811061407e577f4e487b7100000000000000000000000000000000000000000000000000000000600052603260045260246000fd5b6020026020010151602001516001600281106140c3577f4e487b7100000000000000000000000000000000000000000000000000000000600052603260045260246000fd5b60200201518260046006846140d89190614f0a565b6140e29190614e83565b81518110614119577f4e487b7100000000000000000000000000000000000000000000000000000000600052603260045260246000fd5b60200260200101818152505085818151811061415e577f4e487b7100000000000000000000000000000000000000000000000000000000600052603260045260246000fd5b6020026020010151602001516000600281106141a3577f4e487b7100000000000000000000000000000000000000000000000000000000600052603260045260246000fd5b60200201518260056006846141b89190614f0a565b6141c29190614e83565b815181106141f9577f4e487b7100000000000000000000000000000000000000000000000000000000600052603260045260246000fd5b6020026020010181815250508080614210906150d3565b915050613d39565b50614221614474565b6000602082602086026020860160086107d05a03fa9050806000811461424657614248565bfe5b508061425357600080fd5b60008260006001811061428f577f4e487b7100000000000000000000000000000000000000000000000000000000600052603260045260246000fd5b602002015114159550505050505092915050565b60405180606001604052806142b66143f0565b81526020016142c361444e565b81526020016142d06143f0565b81525090565b8280546142e290615056565b90600052602060002090601f016020900481019282614304576000855561434b565b82601f1061431d57805160ff191683800117855561434b565b8280016001018555821561434b579182015b8281111561434a57825182559160200191906001019061432f565b5b5090506143589190614496565b5090565b828054828255906000526020600020908101928215614398579160200282015b8281111561439757825182559160200191906001019061437c565b5b5090506143a59190614496565b5090565b6040518060a001604052806143bc6143f0565b81526020016143c961444e565b81526020016143d661444e565b81526020016143e361444e565b8152602001606081525090565b604051806040016040528060008152602001600081525090565b6040518060600160405280600390602082028036833780820191505090505090565b6040518060800160405280600490602082028036833780820191505090505090565b60405180604001604052806144616144b3565b815260200161446e6144b3565b81525090565b6040518060200160405280600190602082028036833780820191505090505090565b5b808211156144af576000816000905550600101614497565b5090565b6040518060400160405280600290602082028036833780820191505090505090565b60006144e86144e384614cff565b614cda565b905080828560408602820111156144fe57600080fd5b60005b8581101561452e57816145148882614678565b845260208401935060408301925050600181019050614501565b5050509392505050565b600061454b61454684614d25565b614cda565b9050808285602086028201111561456157600080fd5b60005b85811015614591578161457788826146f0565b845260208401935060208301925050600181019050614564565b5050509392505050565b60006145ae6145a984614d4b565b614cda565b905080828560208602820111156145c457600080fd5b60005b858110156145f457816145da88826146f0565b8452602084019350602083019250506001810190506145c7565b5050509392505050565b600061461161460c84614d71565b614cda565b90508281526020810184848401111561462957600080fd5b614634848285614fea565b509392505050565b60008135905061464b8161523a565b92915050565b600082601f83011261466257600080fd5b600261466f8482856144d5565b91505092915050565b600082601f83011261468957600080fd5b6002614696848285614538565b91505092915050565b600082601f8301126146b057600080fd5b60046146bd84828561459b565b91505092915050565b600082601f8301126146d757600080fd5b81356146e78482602086016145fe565b91505092915050565b6000813590506146ff81615251565b92915050565b60006020828403121561471757600080fd5b60006147258482850161463c565b91505092915050565b600080600080610180858703121561474557600080fd5b600061475387828801614678565b945050604061476487828801614651565b93505060c061477587828801614678565b9250506101006147878782880161469f565b91505092959194509250565b60008060008060006101a086880312156147ac57600080fd5b60006147ba88828901614678565b95505060406147cb88828901614651565b94505060c06147dc88828901614678565b9350506101006147ee8882890161469f565b925050610180614800888289016146f0565b9150509295509295909350565b60006020828403121561481f57600080fd5b600082013567ffffffffffffffff81111561483957600080fd5b614845848285016146c6565b91505092915050565b60008060006060848603121561486357600080fd5b600084013567ffffffffffffffff81111561487d57600080fd5b614889868287016146c6565b935050602084013567ffffffffffffffff8111156148a657600080fd5b6148b2868287016146c6565b925050604084013567ffffffffffffffff8111156148cf57600080fd5b6148db868287016146c6565b9150509250925092565b6000602082840312156148f757600080fd5b6000614905848285016146f0565b91505092915050565b600061491a8383614a90565b905092915050565b600061492e8383614b82565b60208301905092915050565b61494381614fa2565b82525050565b600061495482614dec565b61495e8185614e3f565b93508360208202850161497085614da2565b8060005b858110156149ac578484038952815161498d858261490e565b945061499883614e18565b925060208a01995050600181019050614974565b50829750879550505050505092915050565b60006149c982614df7565b6149d38185614e50565b93506149de83614db2565b8060005b83811015614a0f5781516149f68882614922565b9750614a0183614e25565b9250506001810190506149e2565b5085935050505092915050565b6000614a2782614e02565b614a318185614e50565b9350614a3c83614dc2565b8060005b83811015614a7457614a5182615209565b614a5b8882614922565b9750614a6683614e32565b925050600181019050614a40565b5085935050505092915050565b614a8a81614fb4565b82525050565b6000614a9b82614e0d565b614aa58185614e61565b9350614ab5818560208601614ff9565b614abe8161521c565b840191505092915050565b6000614ad482614e0d565b614ade8185614e72565b9350614aee818560208601614ff9565b614af78161521c565b840191505092915050565b60008154614b0f81615056565b614b198186614e72565b94506001821660008114614b345760018114614b4657614b79565b60ff1983168652602086019350614b79565b614b4f85614dd7565b60005b83811015614b7157815481890152600182019150602081019050614b52565b808801955050505b50505092915050565b614b8b81614fe0565b82525050565b614b9a81614fe0565b82525050565b6000602082019050614bb5600083018461493a565b92915050565b60006020820190508181036000830152614bd58184614949565b905092915050565b6000602082019050614bf26000830184614a81565b92915050565b60006020820190508181036000830152614c128184614ac9565b905092915050565b60006020820190508181036000830152614c348184614b02565b905092915050565b60006040820190508181036000830152614c568185614b02565b90508181036020830152614c6a8184614a1c565b90509392505050565b6000602082019050614c886000830184614b91565b92915050565b6000608082019050614ca36000830187614b91565b614cb06020830186614b91565b8181036040830152614cc281856149be565b9050614cd16060830184614b91565b95945050505050565b6000614ce4614cf5565b9050614cf082826150a2565b919050565b6000604051905090565b600067ffffffffffffffff821115614d1a57614d196151da565b5b602082029050919050565b600067ffffffffffffffff821115614d4057614d3f6151da565b5b602082029050919050565b600067ffffffffffffffff821115614d6657614d656151da565b5b602082029050919050565b600067ffffffffffffffff821115614d8c57614d8b6151da565b5b614d958261521c565b9050602081019050919050565b6000819050602082019050919050565b6000819050602082019050919050565b60008190508160005260206000209050919050565b60008190508160005260206000209050919050565b600081519050919050565b600081519050919050565b600081549050919050565b600081519050919050565b6000602082019050919050565b6000602082019050919050565b6000600182019050919050565b600082825260208201905092915050565b600082825260208201905092915050565b600082825260208201905092915050565b600082825260208201905092915050565b6000614e8e82614fe0565b9150614e9983614fe0565b9250827fffffffffffffffffffffffffffffffffffffffffffffffffffffffffffffffff03821115614ece57614ecd61514d565b5b828201905092915050565b6000614ee482614fe0565b9150614eef83614fe0565b925082614eff57614efe61517c565b5b828204905092915050565b6000614f1582614fe0565b9150614f2083614fe0565b9250817fffffffffffffffffffffffffffffffffffffffffffffffffffffffffffffffff0483118215151615614f5957614f5861514d565b5b828202905092915050565b6000614f6f82614fe0565b9150614f7a83614fe0565b925082821015614f8d57614f8c61514d565b5b828203905092915050565b6000819050919050565b6000614fad82614fc0565b9050919050565b60008115159050919050565b600073ffffffffffffffffffffffffffffffffffffffff82169050919050565b6000819050919050565b82818337600083830152505050565b60005b83811015615017578082015181840152602081019050614ffc565b83811115615026576000848401525b50505050565b600061503782614fe0565b9150600082141561504b5761504a61514d565b5b600182039050919050565b6000600282049050600182168061506e57607f821691505b60208210811415615082576150816151ab565b5b50919050565b600061509b6150968361522d565b614f98565b9050919050565b6150ab8261521c565b810181811067ffffffffffffffff821117156150ca576150c96151da565b5b80604052505050565b60006150de82614fe0565b91507fffffffffffffffffffffffffffffffffffffffffffffffffffffffffffffffff8214156151115761511061514d565b5b600182019050919050565b600061512782614fe0565b915061513283614fe0565b9250826151425761514161517c565b5b828206905092915050565b7f4e487b7100000000000000000000000000000000000000000000000000000000600052601160045260246000fd5b7f4e487b7100000000000000000000000000000000000000000000000000000000600052601260045260246000fd5b7f4e487b7100000000000000000000000000000000000000000000000000000000600052602260045260246000fd5b7f4e487b7100000000000000000000000000000000000000000000000000000000600052604160045260246000fd5b60006152158254615088565b9050919050565b6000601f19601f8301169050919050565b60008160001c9050919050565b61524381614fa2565b811461524e57600080fd5b50565b61525a81614fe0565b811461526557600080fd5b5056fea2646970667358221220b8c3b344da8239dcbbae91e8cf0bd38c64a321b2a5e5aff46080f94fa923774f64736f6c63430008040033",
  "immutableReferences": {},
  "source": "pragma solidity ^0.8.0;\n\nimport \"./MiMC.sol\";\nimport \"./verifier.sol\";\nimport \"./utility.sol\";\n/* PERSONEL NOTES:\nEach invokation will cost Gas (measured in computational steps), the transaction\nof incrementing a candidate vote and losing right to vote (again) is\n STORAGE -> STATE VARIABLES\n MEMORY -> LOCAL VAR WITHIN function\n CALLDATA -> ONLY WITHIN PARAM \n/* We can pre-generate a proof of membership circuit in Zokrates using a Merkle Tree with all public keys as an input. A user may prove that\nhe is a member of the tree via the Merkle Root rt. \n\n/* @TODO: Merkle Tree Generator, input values into zok file\nProving membership: \nInputs => Public merkleRoot, treeDepth, Private uint[] directionNavigator, currentNode, \n\nUser Inputs into Proof Generation => Private secretKey\n\nOwner Inputs => Self generated Secret Key and Public Key, and Verification Key\nWhen contract is deployed, the state change is appended onto the blockchain. */\n/*struct MerkleTree {\n    string value;\n    MerkleTree left;\n    MerkleTree right;\n\n}*/\n\n\ncontract Election is Verifier {\n    struct Candidate {\n        string name;\n        uint[] votes; /* A list of encrypted vote values for this candidate */\n    }\n    /* Each address in Address Space is mapped to an empty Voter struct with default values */\n    struct Voter {\n        bool authorized; /* So an owner has control over which public addresses may invoke functions */\n        bool submittedVoteKey; /* So we can prevent multiple voteKeys from one address */\n        uint weight; /* The on-chain calculated weight of the voter*/\n    }\n    string public name;\n    address public owner;\n    uint public activeVoters;\n    uint public voteCount;\n    uint[] public identifiers;\n    //@TODO: Convert state variable to enum or int for comparison in require\n    string public currentState;\n    // Key: Address, Value: Voter \n    //i.e Map a Voter object to ALL addresses\n    mapping(address => Voter) voters;\n    uint256[] internal voteKeyArray;\n    uint256[] internal merkleArray;\n    Candidate[] public candidates;\n    uint256 public merkleRoot;\n    /* The election starters public key */\n    uint public terminateElection;\n    /* Everytime the stage transitions, an announcement is made to all suscribers.\n    STATES: VOTEKEY-GENERATION => VOTE => END */\n    event AnnounceNewStage(string stage);\n    /* Everytime a vote is executed, this event is logged onto the block. Currently the voters public address is shown next to the candidate they voted\n    for, in future updates this address will be replaced by a ZKP */\n    event AnnounceVote(string candidate, address proofOfMembership);\n    /* Emit an event every time a vote tally is called. (DEBUG) */\n    event AnnounceResult(string candidate, uint[] tallyCount);\n    /* Create an Event each time the owner authorizes a voter */\n    event AnnounceAuth(address authorizedUser);\n    event AnnounceValidProof(bool x);\n    event Debug(uint256 s);\n    /* Called only when contract is created, contract compiler is the owner */\n    constructor(){\n        owner = msg.sender;\n    }\n    /* When a potential voter wishes to generate a proof, they required their index in the Merkle Tree aswell as the Merkle Root*/\n /*   function getMerkleInfo(string memory voteKey) public returns() {\n\n    } */\n    /* Once the VOTEKEY-GENERATION period has expired, this function is called to produce a Merkle Tree.\n    There should be a Nth power of 2 length of valid vote keys, if such a case does not exist dummy values are pumped. \n    GAS COST EST: 300k */\n    function createMerkleArray() public {\n        /* Guarantee that a valid merkle tree can be constructed with the given nodes*/\n        //assert(voteKeyArray.length >= 2);\n        uint pow = 1; bool isPowerOf2 = false;\n        uint256 tempValDebug =0;\n        /* Find the power of 2 closest or equal to the length, if equal do nothing */\n        while(pow <= voteKeyArray.length){ if(pow == voteKeyArray.length) { isPowerOf2 = true; break; } else { pow = pow *2; } }\n        /* If index isn't a power of two, we pump it with static public vote keys */\n        while(pow != voteKeyArray.length && isPowerOf2 == false){ voteKeyArray.push(1337); pow--; }\n        /* For each voteKey struct present, transfer the hashed value into the Merkle Array */\n        for(uint i =0; i < voteKeyArray.length; i++){\n            //leaf = MiMC.MiMC_Hash([voteKeyArray[i],voteKeyArray[i+1]]);\n            emit Debug(tempValDebug);\n            tempValDebug = voteKeyArray[i];\n            merkleArray.push(tempValDebug);\n        }\n        uint nodeCount=0;\n        uint n = voteKeyArray.length;\n        /* While there are still nodes to traverse*/\n\n        uint256[] memory x = new uint[](2); //Should be statically defined\n          while (n > 0) {\n            /* Each iteration covers one layer of the tree. Starting with the original voteKey values */\n            for (uint offset = 0; offset < n - 1; offset+=2) { //Offset is the number of nodes operated on within the scope of the iteration\n                /* Pair-hash neighbouring nodes and move forward by two steps*/\n                /* Transfer values from the appropiate index (nodes already covered + offset)*/\n                x[0] = merkleArray[nodeCount + offset];\n                x[1] = merkleArray[nodeCount + offset + 1];\n                /* Combine both nodes using MiMC Hash and push to the array as a Parent*/\n                merkleArray.push(MiMC.MiMC_Hash(x));\n            }\n            /* Add the count of this new layer to our total node count*/\n            nodeCount += n;\n            /* Div2 will get us to the next layer count, due to the nice properties of Binary Trees and Powers of 2 we can just div*/\n            n = n / 2;\n            if(n <= 0){ //next while wont occur. The offset at this point is the number of nodes in the tree\n            }\n        }\n        /* merkleArray now contains all nodes, ordered by indexing of layer size. i.e 8 voteKeys => index [0..7], 4 parent nodes produced => index [8..11], 2 nodes produced => index [12..13], Merkle Root => index [14]*/\n        currentState = \"VOTING-OPEN\";\n        emit AnnounceNewStage(currentState); \n    }\n    /* Use Case (DApp)\n    When a user inputs a secret key (SK) and clicks the 'Join Vote' button,\n    SK is locally hashed using MiMC before being sent as a VOTE KEY\n    The user is only able to push 1 vote-key per public address (to prevent double-registration) */\n    function pushVoteKey(string memory str) public {\n        uint256 voteKey = utility.stringToUint(str);\n        /* check double-vote and if votekey generation stage is active*/\n       // require(currentState == \"VOTEKEY-GENERATION\");\n        /* Make sure the voter has been authorized and that they haven't already generated a key*/\n        //require(/*voters[msg.sender].authorized == true &&*/ voters[msg.sender].submittedVoteKey == false);\n        /* Mapping Implementation */\n        /* Array Implementation */\n        voteKeyArray.push(voteKey);\n        activeVoters++;\n        /* Check if our voter count exceeded or reached a power of 2*/\n        if(activeVoters == 4) { \n\n            emit Debug(voteKey);\n           createMerkleArray();\n            }\n            emit Debug(voteKey);\n    }   \n    function conductElection(string memory inputName, string memory candidateA, string  memory candidateB) public  {\n        //require(treeDepth >= 1 && treeDepth <= 33); //33 is the maximum depth of the tree allowed\n        //publicKey = pubKey; /* Serialization of Public Key class as a string, Client may de-serialize for encryption*/\n       // publicKey.push(n); publicKey.push(g);\n        owner = msg.sender;\n        name = inputName;\n        uint256[] memory empty;\n        candidates.push(Candidate(candidateA,empty));\n        candidates.push(Candidate(candidateB,empty));\n        voteCount=0;\n        currentState = \"VOTEKEY-GENERATION\";\n        emit AnnounceNewStage(currentState);\n    }\n     /* Input Array: private field  secretKey, field merkleRoot, private bool[2]  directionSelector, field[2] siblingNodes */\n     function submitVote( uint[2] memory a,\n            uint[2][2] memory b,\n            uint[2] memory c, uint[4] memory input, uint voteVal) public {\n    \t/* Verify Voter rights and if they have voted previously */\n        //require(voters[msg.sender].authorized == true, \"The owner did not authorize you to vote.\"); \n        /* \n        for(uint i=0; i < voteCount; i++){\n            if(input[0] == identifiers[i]){\n                revert();\n            }\n        }*/\n        //require(voters[msg.sender].voted == false, \"You have already voted\"); \n\n         /*Verify if Voting process is active*/\n        //require(currentState == \"VOTING-OPEN\");\n        /* Verify the Proof of Membership */\n        bool x  = verifyTx(a, b, c, input);\n        emit AnnounceValidProof(x);\n       /*     //Candidate Index = voteVal, Unique Identifier = input[0]\n            candidates[voteVal].votes.push(input[0]);\n            identifiers.push(input[0]);\n            voteCount++;\n            /* Emit an event on the block to notify a new vote \n            emit AnnounceVote(candidates[voteVal].name, msg.sender);\n            if(activeVoters == voteCount){ currentState = \"END\"; }*/\n        \n    } \n    function getMerkleInfo(string memory str) public view returns(uint256 targetIndex, uint256 firstLayerSize, uint256 [] memory entireMerkleArray, uint256 mkRoot) {\n    \tuint index = 1337;\n        uint256 voteKey = utility.stringToUint(str);\n    \tfor(uint i =0; i< merkleArray.length; i++){\n    \t\tif(voteKey == merkleArray[i]){\n    \t\t index = i;\n    \t\t/* From i till N, move up a layer, find appropiate index*/\n    \t\t}\n    \t}\n    \trequire(index != 1337);\n    \treturn (index, voteKeyArray.length, merkleArray, merkleArray[merkleArray.length-1]);\n    }\n    /* The invoker of the Election can convert 'citizens' into 'voters' by giving the rights variable\n    / value that affects the summation in submitVote(..)*/\n    function authorize(address citizen) public {\n        require(msg.sender == owner);\n        voters[citizen].authorized = true;\n        calculateVoteWeight(citizen);\n        emit AnnounceAuth(msg.sender);\n        \n    }\n    function tallyVotes() public {\n    \t/* @TODO: Add a loop for dynamic candidates*/\n        emit AnnounceResult(candidates[0].name, candidates[0].votes);\n        emit AnnounceResult(candidates[1].name, candidates[1].votes);\n    }\n    /* Here will be the custom weight function responsible for calculating a vote weight\n    based on User financial investment or something similar */\n    function calculateVoteWeight(address citizen) private {\n        /* (TEMPORARY) HARD-CODED VALUE OF 1 */\n        voters[citizen].weight = 1;\n    }\n    /* ====================== WEB3 HELPER GETTERS ====================*/\n    function getCandidates() public view returns(string[] memory){\n        string[] memory result = new string[](candidates.length);\n        for(uint i=0; i<candidates.length; i++){\n            result[i]= (candidates[i].name);\n        }\n        return result;\n    }\n}\n",
  "sourcePath": "/home/rayyan808/Documents/Github/Bsc Project Git/bsc-project/contracts/Election.sol",
  "compiler": {
    "name": "solc",
    "version": "0.8.4+commit.c7e474f2.Emscripten.clang"
  },
  "schemaVersion": "3.4.0",
  "updatedAt": "2021-07-16T14:15:00.641Z",
  "networkType": "ethereum",
  "devdoc": {
    "kind": "dev",
    "methods": {},
    "version": 1
  },
  "userdoc": {
    "kind": "user",
    "methods": {},
    "version": 1
  }
}