{
  "contractName": "MerkleProof",
  "abi": [
    {
      "inputs": [
        {
          "internalType": "bytes32[]",
          "name": "listOfHashes",
          "type": "bytes32[]"
        },
        {
          "internalType": "bytes32",
          "name": "root",
          "type": "bytes32"
        },
        {
          "internalType": "bytes32",
          "name": "leaf",
          "type": "bytes32"
        },
        {
          "internalType": "uint256",
          "name": "index",
          "type": "uint256"
        }
      ],
      "name": "verify",
      "outputs": [
        {
          "internalType": "bool",
          "name": "",
          "type": "bool"
        }
      ],
      "stateMutability": "pure",
      "type": "function"
    }
  ],
  "bytecode": "0x608060405234801561001057600080fd5b5061055b806100206000396000f3fe608060405234801561001057600080fd5b506004361061002b5760003560e01c806321fb335c14610030575b600080fd5b61004a6004803603810190610045919061021a565b610060565b60405161005791906102e7565b60405180910390f35b60008083905060005b865181101561014b5760008782815181106100ad577f4e487b7100000000000000000000000000000000000000000000000000000000600052603260045260246000fd5b6020026020010151905060006002866100c69190610428565b14156100fc5782816040516020016100df9291906102bb565b604051602081830303815290604052805190602001209250610128565b808360405160200161010f9291906102bb565b6040516020818303038152906040528051906020012092505b6002856101359190610353565b9450508080610143906103d5565b915050610069565b50848114915050949350505050565b600061016d61016884610327565b610302565b9050808382526020820190508285602086028201111561018c57600080fd5b60005b858110156101bc57816101a288826101f0565b84526020840193506020830192505060018101905061018f565b5050509392505050565b600082601f8301126101d757600080fd5b81356101e784826020860161015a565b91505092915050565b6000813590506101ff816104f7565b92915050565b6000813590506102148161050e565b92915050565b6000806000806080858703121561023057600080fd5b600085013567ffffffffffffffff81111561024a57600080fd5b610256878288016101c6565b9450506020610267878288016101f0565b9350506040610278878288016101f0565b925050606061028987828801610205565b91505092959194509250565b61029e81610384565b82525050565b6102b56102b082610390565b61041e565b82525050565b60006102c782856102a4565b6020820191506102d782846102a4565b6020820191508190509392505050565b60006020820190506102fc6000830184610295565b92915050565b600061030c61031d565b905061031882826103a4565b919050565b6000604051905090565b600067ffffffffffffffff821115610342576103416104b7565b5b602082029050602081019050919050565b600061035e8261039a565b91506103698361039a565b92508261037957610378610488565b5b828204905092915050565b60008115159050919050565b6000819050919050565b6000819050919050565b6103ad826104e6565b810181811067ffffffffffffffff821117156103cc576103cb6104b7565b5b80604052505050565b60006103e08261039a565b91507fffffffffffffffffffffffffffffffffffffffffffffffffffffffffffffffff82141561041357610412610459565b5b600182019050919050565b6000819050919050565b60006104338261039a565b915061043e8361039a565b92508261044e5761044d610488565b5b828206905092915050565b7f4e487b7100000000000000000000000000000000000000000000000000000000600052601160045260246000fd5b7f4e487b7100000000000000000000000000000000000000000000000000000000600052601260045260246000fd5b7f4e487b7100000000000000000000000000000000000000000000000000000000600052604160045260246000fd5b6000601f19601f8301169050919050565b61050081610390565b811461050b57600080fd5b50565b6105178161039a565b811461052257600080fd5b5056fea2646970667358221220ec0e7d57a25f60cd04fdde264219f0e57f2818e1006026d980f5e21a4d079daf64736f6c63430008040033",
  "immutableReferences": {},
  "source": "// SPDX-License-Identifier: MIT\npragma solidity ^0.8.4;\n\ncontract MerkleProof {\n    /* Given a list of hashes, the root of the merkle, the hash of the private key \n    and index of the private key within the merkle tree */\n    function verify(\n        bytes32[] memory listOfHashes, bytes32 root, bytes32 leaf, uint index\n    )\n        public pure returns (bool)\n    {\n        bytes32 hash = leaf;\n\n        for (uint i = 0; i < listOfHashes.length; i++) {\n            bytes32 proofElement = listOfHashes[i];\n            /*An even index means the current hash is the left node*/\n            if (index % 2 == 0) {\n                hash = keccak256(abi.encodePacked(hash, proofElement));\n            } else {\n            /* An odd index means the current hash is the left node*/\n                hash = keccak256(abi.encodePacked(proofElement, hash));\n            }\n            /* Each layer of the tree is a power of 2, so we drop a power */\n            index = index / 2;\n        }\n\n        return hash == root;\n    }\n}\n/* */\ncontract TestMerkleProof is MerkleProof {\n    bytes32[] public hashes;\n\n    constructor() {\n        string[4] memory transactions = [\n            \"alice -> bob\",\n            \"bob -> dave\",\n            \"carol -> alice\",\n            \"dave -> bob\"\n        ];\n\n        for (uint i = 0; i < transactions.length; i++) {\n            hashes.push(keccak256(abi.encodePacked(transactions[i])));\n        }\n\n        uint n = transactions.length;\n        uint offset = 0;\n\n        while (n > 0) {\n            /* For each Transaction,*/\n            for (uint i = 0; i < n - 1; i+=2) {\n                hashes.push(\n                    keccak256(abi.encodePacked(\n                        hashes[offset + i],\n                        hashes[offset + i + 1]\n                    ))\n                );\n            }\n            offset += n;\n            n = n / 2;\n        }\n    }\n\n    function getRoot() public view returns (bytes32) {\n        return hashes[hashes.length - 1];\n    }\n\n    /* verify\n    3rd leaf\n    0x1bbd78ae6188015c4a6772eb1526292b5985fc3272ead4c65002240fb9ae5d13\n\n    root\n    0x074b43252ffb4a469154df5fb7fe4ecce30953ba8b7095fe1e006185f017ad10\n\n    index\n    2\n\n    proof\n    0x948f90037b4ea787c14540d9feb1034d4a5bc251b9b5f8e57d81e4b470027af8\n    0x63ac1b92046d474f84be3aa0ee04ffe5600862228c81803cce07ac40484aee43\n    */\n}\n\n",
  "sourcePath": "/home/rayyan808/Documents/Bachelor Project/bsc-project/contracts/merkle.sol",
  "compiler": {
    "name": "solc",
    "version": "0.8.4+commit.c7e474f2.Emscripten.clang"
  },
  "schemaVersion": "3.4.0",
  "updatedAt": "2021-06-03T12:10:35.169Z",
  "devdoc": {
    "kind": "dev",
    "methods": {},
    "version": 1
  },
  "userdoc": {
    "kind": "user",
    "methods": {},
    "version": 1
  }
}