{
  "contractName": "MiMC2",
  "abi": [
    {
      "inputs": [
        {
          "internalType": "uint256",
          "name": "in_x",
          "type": "uint256"
        },
        {
          "internalType": "uint256",
          "name": "in_k",
          "type": "uint256"
        }
      ],
      "name": "Encipher",
      "outputs": [
        {
          "internalType": "uint256",
          "name": "out_x",
          "type": "uint256"
        }
      ],
      "stateMutability": "pure",
      "type": "function"
    },
    {
      "inputs": [
        {
          "internalType": "uint256[]",
          "name": "in_msgs",
          "type": "uint256[]"
        },
        {
          "internalType": "uint256",
          "name": "in_key",
          "type": "uint256"
        }
      ],
      "name": "Hash",
      "outputs": [
        {
          "internalType": "uint256",
          "name": "",
          "type": "uint256"
        }
      ],
      "stateMutability": "pure",
      "type": "function"
    },
    {
      "inputs": [
        {
          "internalType": "bytes32[]",
          "name": "in_msgs",
          "type": "bytes32[]"
        }
      ],
      "name": "mimcHash",
      "outputs": [
        {
          "internalType": "bytes32",
          "name": "",
          "type": "bytes32"
        }
      ],
      "stateMutability": "pure",
      "type": "function"
    },
    {
      "inputs": [
        {
          "internalType": "bytes32[2]",
          "name": "in_msgs",
          "type": "bytes32[2]"
        }
      ],
      "name": "mimcHash2",
      "outputs": [
        {
          "internalType": "bytes32",
          "name": "",
          "type": "bytes32"
        }
      ],
      "stateMutability": "pure",
      "type": "function"
    }
  ],
  "bytecode": "0x608060405234801561001057600080fd5b50610c66806100206000396000f3fe608060405234801561001057600080fd5b506004361061004c5760003560e01c80630fa16e3814610051578063599a29e41461008157806396d8d820146100b1578063aa0324a0146100e1575b600080fd5b61006b60048036038101906100669190610860565b610111565b604051610078919061095b565b60405180910390f35b61009b600480360381019061009691906107f6565b61015d565b6040516100a89190610940565b60405180910390f35b6100cb60048036038101906100c691906108b4565b6102f8565b6040516100d8919061095b565b60405180910390f35b6100fb60048036038101906100f6919061081f565b610344565b6040516101089190610940565b60405180910390f35b600080636d696d6360e01b90506101548484836040516020016101349190610925565b6040516020818303038152906040528051906020012060001c605b610478565b91505092915050565b600080600267ffffffffffffffff8111156101a1577f4e487b7100000000000000000000000000000000000000000000000000000000600052604160045260246000fd5b6040519080825280602002602001820160405280156101cf5781602001602082028036833780820191505090505b5090508260006002811061020c577f4e487b7100000000000000000000000000000000000000000000000000000000600052603260045260246000fd5b602002015160001c8160008151811061024e577f4e487b7100000000000000000000000000000000000000000000000000000000600052603260045260246000fd5b60200260200101818152505082600160028110610294577f4e487b7100000000000000000000000000000000000000000000000000000000600052603260045260246000fd5b602002015160001c816001815181106102d6577f4e487b7100000000000000000000000000000000000000000000000000000000600052603260045260246000fd5b6020026020010181815250506102ed816000610111565b60001b915050919050565b600080636d696d6360e01b905061033b84848360405160200161031b9190610925565b6040516020818303038152906040528051906020012060001c605b61058a565b91505092915050565b600080825167ffffffffffffffff811115610388577f4e487b7100000000000000000000000000000000000000000000000000000000600052604160045260246000fd5b6040519080825280602002602001820160405280156103b65781602001602082028036833780820191505090505b50905060005b8351811015610461578381815181106103fe577f4e487b7100000000000000000000000000000000000000000000000000000000600052603260045260246000fd5b602002602001015160001c828281518110610442577f4e487b7100000000000000000000000000000000000000000000000000000000600052603260045260246000fd5b602002602001018181525050808061045990610ae0565b9150506103bc565b5061046d816000610111565b60001b915050919050565b60008084905060007f30644e72e131a029b85045b68181585d2833e84879b9709143e1f593f0000001905060005b875181101561057c57816104fc8983815181106104ec577f4e487b7100000000000000000000000000000000000000000000000000000000600052603260045260246000fd5b602002602001015185898961058a565b838a8481518110610536577f4e487b7100000000000000000000000000000000000000000000000000000000600052603260045260246000fd5b60200260200101516105489190610b33565b856105539190610a19565b61055d9190610a19565b6105679190610b33565b9250808061057490610ae0565b9150506104a6565b829350505050949350505050565b6000600182101561059a57600080fd5b604051602081016040528381527f30644e72e131a029b85045b68181585d2833e84879b9709143e1f593f0000001600080855b60008111156106035760208520855283898587518d080892508383840991508383858685860985090999506001810390506105cd565b5082888a08945050505050949350505050565b60006106296106248461099b565b610976565b9050808285602086028201111561063f57600080fd5b60005b8581101561066f578161065588826107cc565b845260208401935060208301925050600181019050610642565b5050509392505050565b600061068c610687846109c1565b610976565b905080838252602082019050828560208602820111156106ab57600080fd5b60005b858110156106db57816106c188826107cc565b8452602084019350602083019250506001810190506106ae565b5050509392505050565b60006106f86106f3846109ed565b610976565b9050808382526020820190508285602086028201111561071757600080fd5b60005b85811015610747578161072d88826107e1565b84526020840193506020830192505060018101905061071a565b5050509392505050565b600082601f83011261076257600080fd5b600261076f848285610616565b91505092915050565b600082601f83011261078957600080fd5b8135610799848260208601610679565b91505092915050565b600082601f8301126107b357600080fd5b81356107c38482602086016106e5565b91505092915050565b6000813590506107db81610c02565b92915050565b6000813590506107f081610c19565b92915050565b60006040828403121561080857600080fd5b600061081684828501610751565b91505092915050565b60006020828403121561083157600080fd5b600082013567ffffffffffffffff81111561084b57600080fd5b61085784828501610778565b91505092915050565b6000806040838503121561087357600080fd5b600083013567ffffffffffffffff81111561088d57600080fd5b610899858286016107a2565b92505060206108aa858286016107e1565b9150509250929050565b600080604083850312156108c757600080fd5b60006108d5858286016107e1565b92505060206108e6858286016107e1565b9150509250929050565b6108f981610a6f565b82525050565b61091061090b82610a79565b610b29565b82525050565b61091f81610aa5565b82525050565b600061093182846108ff565b60048201915081905092915050565b600060208201905061095560008301846108f0565b92915050565b60006020820190506109706000830184610916565b92915050565b6000610980610991565b905061098c8282610aaf565b919050565b6000604051905090565b600067ffffffffffffffff8211156109b6576109b5610bc2565b5b602082029050919050565b600067ffffffffffffffff8211156109dc576109db610bc2565b5b602082029050602081019050919050565b600067ffffffffffffffff821115610a0857610a07610bc2565b5b602082029050602081019050919050565b6000610a2482610aa5565b9150610a2f83610aa5565b9250827fffffffffffffffffffffffffffffffffffffffffffffffffffffffffffffffff03821115610a6457610a63610b64565b5b828201905092915050565b6000819050919050565b60007fffffffff0000000000000000000000000000000000000000000000000000000082169050919050565b6000819050919050565b610ab882610bf1565b810181811067ffffffffffffffff82111715610ad757610ad6610bc2565b5b80604052505050565b6000610aeb82610aa5565b91507fffffffffffffffffffffffffffffffffffffffffffffffffffffffffffffffff821415610b1e57610b1d610b64565b5b600182019050919050565b6000819050919050565b6000610b3e82610aa5565b9150610b4983610aa5565b925082610b5957610b58610b93565b5b828206905092915050565b7f4e487b7100000000000000000000000000000000000000000000000000000000600052601160045260246000fd5b7f4e487b7100000000000000000000000000000000000000000000000000000000600052601260045260246000fd5b7f4e487b7100000000000000000000000000000000000000000000000000000000600052604160045260246000fd5b6000601f19601f8301169050919050565b610c0b81610a6f565b8114610c1657600080fd5b50565b610c2281610aa5565b8114610c2d57600080fd5b5056fea2646970667358221220bd2184713136d3f432f4439564ab1b0f005fff0252e6ba5041425fc7ae3db73064736f6c63430008040033",
  "immutableReferences": {},
  "source": "// Copyright (c) 2018 HarryR\n// License: LGPL-3.0+\n\npragma solidity ^0.8.0;\n\n/**\n* Implements MiMC-p/p over the altBN scalar field used by zkSNARKs\n*\n* See: https://eprint.iacr.org/2016/492.pdf\n*\n* Round constants are generated in sequence from a seed\n*/\ncontract MiMC2\n{\n    function GetScalarField ()\n        internal pure returns (uint256)\n    {\n        return 0x30644e72e131a029b85045b68181585d2833e84879b9709143e1f593f0000001; //base of field used\n    }\n\n    function Encipher( uint256 in_x, uint256 in_k )\n        public pure returns(uint256 out_x)\n    {\n        bytes4 seed = 0x6d696d63; //this is 'mimc' in hex\n        return MiMCpe7( in_x, in_k, uint256(keccak256(abi.encodePacked(seed))), 91 );\n    }\n\n    /**\n    * MiMC-p/p with exponent of 7\n    *\n    * Recommended at least 46 rounds, for a polynomial degree of 2^126\n    */\n    function MiMCpe7( uint256 in_x, uint256 in_k, uint256 in_seed, uint256 round_count )\n        internal pure returns(uint256 out_x)\n    {\n        assembly {\n            if lt(round_count, 1) { revert(0, 0) }\n\n            // Initialise round constants, k will be hashed\n            let c := mload(0x40)\n            mstore(0x40, add(c, 32))\n            mstore(c, in_seed)\n\n            let localQ := 0x30644e72e131a029b85045b68181585d2833e84879b9709143e1f593f0000001\n            let t\n            let a\n\n            // Further n-2 subsequent rounds include a round constant\n            for { let i := round_count } gt(i, 0) { i := sub(i, 1) } {\n                // c = H(c)\n                mstore(c, keccak256(c, 32))\n\n                // x = pow(x + c_i, 7, p) + k\n                t := addmod(addmod(in_x, mload(c), localQ), in_k, localQ)              // t = x + c_i + k\n                a := mulmod(t, t, localQ)                                              // t^2\n                in_x := mulmod(mulmod(a, mulmod(a, a, localQ), localQ), t, localQ)     // t^7\n            }\n\n            // Result adds key again as blinding factor\n            out_x := addmod(in_x, in_k, localQ)\n        }\n    }\n\n    function MiMCpe7_mp( uint256[] memory in_x, uint256 in_k, uint256 in_seed, uint256 round_count )\n        internal pure returns (uint256)\n    {\n        uint256 r = in_k;\n        uint256 localQ = 0x30644e72e131a029b85045b68181585d2833e84879b9709143e1f593f0000001;\n        uint256 i;\n        for( i = 0; i < in_x.length; i++ )\n        {\n            r = (r + (in_x[i] % localQ) + MiMCpe7(in_x[i], r, in_seed, round_count)) % localQ;\n        }\n        return r;\n    }\n\n    function Hash( uint256[] memory in_msgs, uint256 in_key )\n        public pure returns (uint256)\n    {\n        bytes4 seed = 0x6d696d63; //this is 'mimc' in hex\n        return MiMCpe7_mp( in_msgs, in_key, uint256(keccak256(abi.encodePacked(seed))), 91 );\n    }\n\n    function mimcHash( bytes32[] memory in_msgs )\n        public pure returns (bytes32)\n    {\n        uint256[] memory msgs = new uint256[](in_msgs.length);\n        for ( uint256 i=0; i < in_msgs.length; i++) {\n          msgs[i] = uint256(in_msgs[i]); //convert to uints so we can do arithmetic\n        }\n        return bytes32(Hash( msgs, 0 ));\n    }\n    function mimcHash2( bytes32[2] memory in_msgs )\n    public pure returns (bytes32)\n    {\n    uint256[] memory msgs = new uint256[](in_msgs.length);\n      msgs[0] = uint256(in_msgs[0]); //convert to uints so we can do arithmetic\n      msgs[1] = uint256(in_msgs[1]); //convert to uints so we can do arithmetic\n    return bytes32(Hash( msgs, 0 ));\n    }\n  }",
  "sourcePath": "/home/rayyan808/Documents/Github/Bsc Project Git/bsc-project/contracts/MiMC.sol",
  "compiler": {
    "name": "solc",
    "version": "0.8.4+commit.c7e474f2.Emscripten.clang"
  },
  "schemaVersion": "3.4.0",
  "updatedAt": "2021-05-24T17:19:01.290Z",
  "devdoc": {
    "kind": "dev",
    "methods": {},
    "version": 1
  },
  "userdoc": {
    "kind": "user",
    "methods": {},
    "notice": "Implements MiMC-p/p over the altBN scalar field used by zkSNARKs See: https://eprint.iacr.org/2016/492.pdf Round constants are generated in sequence from a seed",
    "version": 1
  }
}