{
  "contractName": "MiMC",
  "abi": [
    {
      "inputs": [
        {
          "internalType": "uint256",
          "name": "xL_in",
          "type": "uint256"
        },
        {
          "internalType": "uint256",
          "name": "xR_in",
          "type": "uint256"
        }
      ],
      "name": "MiMCFeistel",
      "outputs": [
        {
          "internalType": "uint256[4]",
          "name": "",
          "type": "uint256[4]"
        }
      ],
      "stateMutability": "pure",
      "type": "function",
      "constant": true
    },
    {
      "inputs": [
        {
          "internalType": "uint256",
          "name": "alpha",
          "type": "uint256"
        },
        {
          "internalType": "uint256",
          "name": "beta",
          "type": "uint256"
        }
      ],
      "name": "mimcSponge",
      "outputs": [
        {
          "internalType": "uint256",
          "name": "",
          "type": "uint256"
        }
      ],
      "stateMutability": "nonpayable",
      "type": "function"
    }
  ],
  "bytecode": "0x608060405234801561001057600080fd5b50612fce806100206000396000f3fe608060405234801561001057600080fd5b50600436106100365760003560e01c806347c766ff1461003b578063984fcdd31461006b575b600080fd5b61005560048036038101906100509190612cef565b61009b565b6040516100629190612dd3565b60405180910390f35b61008560048036038101906100809190612cef565b610509565b6040516100929190612db8565b60405180910390f35b60008060405180604001604052808581526020018481525090506000600290506000600190506100c9612c68565b6000805b84811015610470576000808214156100e857600090506100f8565b6001826100f59190612ecb565b90505b60008214156102d257600061014c88600060028110610140577f4e487b7100000000000000000000000000000000000000000000000000000000600052603260045260246000fd5b60200201516000610509565b905080600060048110610188577f4e487b7100000000000000000000000000000000000000000000000000000000600052603260045260246000fd5b60200201518584600281106101c6577f4e487b7100000000000000000000000000000000000000000000000000000000600052603260045260246000fd5b6020020151600060048110610204577f4e487b7100000000000000000000000000000000000000000000000000000000600052603260045260246000fd5b60200201818152505080600160048110610247577f4e487b7100000000000000000000000000000000000000000000000000000000600052603260045260246000fd5b6020020151858460028110610285577f4e487b7100000000000000000000000000000000000000000000000000000000600052603260045260246000fd5b60200201516001600481106102c3577f4e487b7100000000000000000000000000000000000000000000000000000000600052603260045260246000fd5b6020020181815250505061045c565b61041a87836002811061030e577f4e487b7100000000000000000000000000000000000000000000000000000000600052603260045260246000fd5b602002015185836002811061034c577f4e487b7100000000000000000000000000000000000000000000000000000000600052603260045260246000fd5b602002015160006004811061038a577f4e487b7100000000000000000000000000000000000000000000000000000000600052603260045260246000fd5b60200201516103999190612e1b565b8583600281106103d2577f4e487b7100000000000000000000000000000000000000000000000000000000600052603260045260246000fd5b6020020151600160048110610410577f4e487b7100000000000000000000000000000000000000000000000000000000600052603260045260246000fd5b6020020151610509565b848360028110610453577f4e487b7100000000000000000000000000000000000000000000000000000000600052603260045260246000fd5b60200201819052505b50808061046890612f09565b9150506100cd565b508160018561047f9190612ecb565b600281106104b6577f4e487b7100000000000000000000000000000000000000000000000000000000600052603260045260246000fd5b60200201516000600481106104f4577f4e487b7100000000000000000000000000000000000000000000000000000000600052603260045260246000fd5b60200201519050809550505050505092915050565b610511612c95565b600061051b610bed565b905060008060dc9050600060dc9050610532612cb7565b61053a612cb7565b610542612cb7565b61054a612cb7565b6000805b878111610b26576000808214156105685760009050610578565b6001826105759190612ecb565b90505b8a8260dc81106105b1577f4e487b7100000000000000000000000000000000000000000000000000000000600052603260045260246000fd5b6020020151925060008214156105d4578d886105cd9190612e1b565b995061062b565b82858260dc811061060e577f4e487b7100000000000000000000000000000000000000000000000000000000600052603260045260246000fd5b60200201518961061e9190612e1b565b6106289190612e1b565b99505b898a6106379190612e71565b878360dc8110610670577f4e487b7100000000000000000000000000000000000000000000000000000000600052603260045260246000fd5b602002018181525050868260dc81106106b2577f4e487b7100000000000000000000000000000000000000000000000000000000600052603260045260246000fd5b6020020151878360dc81106106f0577f4e487b7100000000000000000000000000000000000000000000000000000000600052603260045260246000fd5b60200201516106ff9190612e71565b868360dc8110610738577f4e487b7100000000000000000000000000000000000000000000000000000000600052603260045260246000fd5b60200201818152505060018961074e9190612ecb565b8210156108d25760008214156107f95789868360dc8110610798577f4e487b7100000000000000000000000000000000000000000000000000000000600052603260045260246000fd5b60200201516107a79190612e71565b8d6107b29190612e1b565b858360dc81106107eb577f4e487b7100000000000000000000000000000000000000000000000000000000600052603260045260246000fd5b6020020181815250506108cd565b89868360dc8110610833577f4e487b7100000000000000000000000000000000000000000000000000000000600052603260045260246000fd5b60200201516108429190612e71565b848260dc811061087b577f4e487b7100000000000000000000000000000000000000000000000000000000600052603260045260246000fd5b602002015161088a9190612e1b565b858360dc81106108c3577f4e487b7100000000000000000000000000000000000000000000000000000000600052603260045260246000fd5b6020020181815250505b610953565b848160dc811061090b577f4e487b7100000000000000000000000000000000000000000000000000000000600052603260045260246000fd5b6020020151858360dc8110610949577f4e487b7100000000000000000000000000000000000000000000000000000000600052603260045260246000fd5b6020020181815250505b6001896109609190612ecb565b821015610a3e5760008214156109b8578d848360dc81106109aa577f4e487b7100000000000000000000000000000000000000000000000000000000600052603260045260246000fd5b602002018181525050610a39565b848160dc81106109f1577f4e487b7100000000000000000000000000000000000000000000000000000000600052603260045260246000fd5b6020020151848360dc8110610a2f577f4e487b7100000000000000000000000000000000000000000000000000000000600052603260045260246000fd5b6020020181815250505b610b12565b89868360dc8110610a78577f4e487b7100000000000000000000000000000000000000000000000000000000600052603260045260246000fd5b6020020151610a879190612e71565b848260dc8110610ac0577f4e487b7100000000000000000000000000000000000000000000000000000000600052603260045260246000fd5b6020020151610acf9190612e1b565b848360dc8110610b08577f4e487b7100000000000000000000000000000000000000000000000000000000600052603260045260246000fd5b6020020181815250505b508080610b1e90612f09565b91505061054e565b5060405180608001604052808460018a610b409190612ecb565b60dc8110610b77577f4e487b7100000000000000000000000000000000000000000000000000000000600052603260045260246000fd5b602002015181526020018360018a610b8f9190612ecb565b60dc8110610bc6577f4e487b7100000000000000000000000000000000000000000000000000000000600052603260045260246000fd5b60200201518152602001600081526020016000815250995050505050505050505092915050565b610bf5612cb7565b600060405180611b800160405280600081526020017f0fbe43c36a80e36d7c7c584d4f8f3759fb51f0d66065d8a227b688d12488c5d481526020017f0b1be1e55d1138dcfc4eeee6618b1b7cde5c4a262e83139555673f5751efc1c981526020017f27c0849dba2643077c13eb42ffb97663cdcecd669bf10f756be30bab71b86cf881526020017f2bf76744736132e5c68f7dfdd5b792681d415098554fd8280f00d11b172b80d281526020017f02aef041c0700b1b4b2c4629195a5a3c737b1ea990e32486c9e2d748cec5856781526020017f282767ed3103cd92e2b5593b56115d06ae8d9ddc64255baea0764a3f651e9b2f81526020017f10f3a13e8bb8523daf4769cff22133d7ad0823f6e220567f516ba73eac4f4c3481526020017f0fef545f7ed94f69e3485fb572d1e82497fd1f63a84cd2d007fff998f7e40bdd81526020017f15ceee0e1c70f77bd1136f3709d40c4298e75763b8595db0c41daf954c4537ce81526020017f0a9baee798a320b0ca5b1cf888386d1dc12c13b38e10225aa4e9f03069a099f581526020017f2670d407ad0b5a999abd17b3f98dbe505989622060911b2bcee42e2d51b32c7681526020017f161ed19c62ea260285d1fbc1350909f6008b8c95ef331a4d154f5fae54eb8b1681526020017f1a4dc528312f210eb17dfb6851f05fa4cd7e0139852ebbf4ae00590b88c8855a81526020017f25147dcc3df52742c7329ca5563c4c4fd696489c63394bc1415ecbfb1226875f81526020017f01a811a20cda427c2b6ad3d58164136f874ffb51415beed111a52bf31006016a81526020017f0824de9e43d882ee2a068eea1318a0dc3da826e52825768765ae4774621b2a6381526020017f10b4f82b62f0fc9a53ffaf9f21359e56712d2045fa64cb8f5fe7beeb230c554f81526020017f2d150f8fda7df0d566e8018b6470372e3c161837ca59a53fa1d1d27e4452a0af81526020017f281e90a515e6409e9177b4f297f8049ce3d4c3659423c48b3fd64e83596ff10181526020017f11dd375328f0481fb8a78d762b28cec882569c0434ee7ce4c949a0c701bf3e7c81526020017f17de91f8113f9443a73c8f2f1274fc39021217080b4d476127ca3c7ee1f25c0581526020017f0bf2b7e871ca735f716032e68b757c912b2ffe442c58cb03cc30b52b9b24bced81526020017f0a3908129452ca7d00584afd40b6a4a71f0e856fff2d71c1efd6f607486195c081526020017f253e5bbfe718ac84611d8e52c9e70573ef235ec1c22724484b087e5c3452aa3581526020017f0a380e47fbd10c830a8499cece42bb5e4e95adc619aab8962db105e019265fa781526020017f24e53af71ef06bacb76d3294c11223911e9d177ff09b7009febc484add0beb7481526020017f1a43144a8bbba4cf8c6b2785e1a75d29544a1a98b0524c1984afd2b698f2138f81526020017f0562fabab7b28094d180eb5917ff5b5a01557afe100bcf971b724d9736d28e4a81526020017f042ca040b9419be4c81292c916998dfd67990a13cad5d3c48e9bbdfd6351b06581526020017e5449be1e493e0ba054f063a30538d3a5ebe4a0f857ef981f0152c5625dac4e81526020017f29bae21b579d080a75c1694da628d0ecfd83efc9c8468704f410300062f64ca981526020017f21950fd25b80edcab7d4c642601992e06654338d0308d8ad1565fbb8b90fce4081526020017f2b7c83a5c9472ef3c780b5ec5405db512e0ad3d500edcf7c46693be30e2f183f81526020017f0c354c168e5913be8d3cd037600a911d75b5e52529052ec3ca5e053bd401c34d81526020017f0929db368ef2af2d29bca38845325b0b7a820a4889e44b5829bbe1ed47fd4d5281526020017f16531d424b0cbaf9abbf2d2acde698462ea4555bf32ccf1bbd26697e905066f681526020017f03cd84e6190c3f2636cb944c82c30fb075769b4676b2a0f0cdcb6fb3429d76f181526020017f0def067b7df381dd5650e5ca0cdaec55f8533021da5ed14f954dd2b27023f48481526020017f0ee9c4621642a272f710908707557498d25a6fdd51866da5d9f0d205355a618981526020017f18017fcc05938635dc7c6de22f78d6a96daf60c0c33d8e775802be1cdb5a72ee81526020017f2cc0823ed1d33029597dc970c98c3b17421478a4e3241cb204fc5feab7a5ee7981526020017f1679a0c60f408d8915f0b822c2866d858432f062eea7ce020fcdd4b63303d2f181526020017f0642e8800a48cc04c0168232c6f542396597a67cf395ad622d947e98bb68697a81526020017e569a003785b51067c530fe3a28f55e9363c821d6c35d9dc3c4d322bc0e3df181526020017f2ca7148d40d1dffbc857d2d387c5b12d1ebc6409c37b23473a6a2e0d2bb24fdf81526020017f07085e102e77f24e456d886f461173b14e72f7081c41b7e891e69b597586441881526020017f2605b9b909ded1b04971eae979027c4e0de57f3b6a60d5ed58aba619c34749ce81526020017f10e54f3fa759dd117dbef6454b0c8c1a76ae867ac758904117f919fec46228cc81526020017f2ac5905f9450a21ef6905ed5951a91b3730e3a2e2d62b50bdeb810015d50376b81526020017f196dcb542dc5dc51dd05e93f3c0b6de0584eb7295fc645a8b8629512057b967881526020017f06e2724ea4355bea4b417e567bbfc20033307b15f0d2dd4abf6778bbea7270e181526020017f0e786007d0ce7e28a90e31d3263887d40c556dec88fcb8b56bc9e9c05ecc0c2981526020017f0b814ed99bd00eca389b0022663dbfddfbfa15e321c19abcf1eaf9556075fb6881526020017f04f79535e00c8e918d22cfdc96b4dc310474df0ef8bb5abc21cab45ab25c093081526020017f1a003f39f26d1946291d39f12622b187a5ddc940ee4a37659b646deda0722bf181526020017f0c41a6a8c884710137d7c78fe60cb115b7a195511d19c1a866bf9b7bfdf6501f81526020017f1389e0264605b298f1dffb4b71f7b5ece4156caa9e1a4ce51e2f52e887e8ac5681526020017f1c6bf6ac0314caead23e357bfcbbaa17d670672ae3a475f80934c716f10aca2581526020017f0bdbb96fa5c73c55450cc9348d147f4d3d554dd498d09c3b6d995fb8951a643181526020017f1d199f2e0212faff4d49341b2c16b888af6e152fe52c76cd364850e242b0697b81526020017f0206f877af22e702a1d11a12eadd06581ee96969440528d3ec695b008c8c2d1a81526020017f2287cef47bc395079ba67071bfc62b6d434bd8b587db1c10c2f8b7dd3296e39481526020017f13ceeeb301572b4991076750e11ea7e7fcbfee454d90dc1763989004a1894f9381526020017f243cd698bc31534698384234086d0b05373350b0bb0bcaa0880937187135fe6281526020017e5f3e9502bcc9cdaff22b01bfbd157c038d0bf9d2f994de082b9d2a78a258b381526020017f12692a7d808f44e31d628dbcfea377eb073fb918d7beb8136ea47f8cf094c88c81526020017f260e384b1268e3a347c91d6987fd280fa0a275541a7c5be34bf126af35c962e081526020017f16fb013611a71040326dd1fa7cc948f484617c015bfbe3679574fca48b6dadd881526020017f27519b325c443a8a61972952280f298f56879fa427b5ba7e97357dd6230bf04881526020017f248d7432273cc8d37acb20fc8bd1c42729d49de75812ba98cc4d5c1ebdbfe90681526020017f296632d868ae6d5178c87f83a805867400246284fa6f02ccc4cbf0d22c457f7481526020017f0fc4c0bea813a223fd510c07f7bbe337badd4bcf28649a0d378970c2a15b3aa581526020017e53f1ea6dd60e7a6db09a00be77549ff3d4ee3737be7fb42052ae1321f667c381526020017f2a0236ac364a48575730567432e8608546e1eb422e19361ad861ef06bbaa4a0081526020017f299e29684dbbad05668eff255292aeecd250c636476234334c197271e972520481526020017f1c3c5d45dd862fcbba507c30740cafb0f37e5b8c1dea76b3f46234b165ad40bd81526020017f190db6088d1f103103047bf2dc934e1311f68981e5a5eef29b11f43d8aa551b181526020017f153dae43cef763e7a2fc9846f09a2973b0ad9c35894c220699bcc2954501c6bd81526020017f135bf03db291930e1a0f35a0959bcf9c1d08b378604edb731c8dcde50090e87781526020017e63a5c4c9c12dcf4bae72c69f3a225664469503d61d9eae5d9553bfb006095b81526020017f1af9136a286264f6f230246b925772426d682ba0d75c462a0f18a2ae6dc9d82981526020017f180753a64f5d6c5ac2d2b6fdc31e2ff7f0f14e77a1c6e6ff0a9fcc33914f483a81526020017f047511ce5f700c7622cffccf387cc2d313f432aa82a642d1b2757ceec423bcf281526020017f303b2e0148b6e2e840210a07aad2a1363e6e0995acddd414ad828d7c2437465a81526020017f0ae2c1b55001c365f165f98973a139116caa3230e3f95c417169be16c51ad47581526020017f040273e4476ca817284ea880868d3b1ffdae6f8e6bb9cd375d79ef55499554a081526020017f17e650317d66cdc90afb8e5f46c39a7368ebc43964d2696fcc869bc4baa5317281526020017f028cf41e1568f34c298a1907c42d3345245414f11243f73c364c6ed1aeaf8c0d81526020017f0b1227b61b387d976fbd1def142ccb1f6525447f81dc39c4fa90ad497e32c9f081526020017f058d6ba2805c898fb504a70b4a30b2147f409f0b87ada948c1d44bc4048ff15581526020017e129c7cd00e42ed05a37dbceb80d47b65e1d750ef2148278a54723fdf42c4cc81526020017f172e37fd8e22a67b33e39e53e472be036768f44d0db94a2bc6f4f958cb19588581526020017f047b173545551de00d61f1da993dcb1d7053d95b9f39091b35d25143e311f5e981526020017f2091e82677269f493582929eda966641bd9f9e9b790c2e0382c081d999f9c32b81526020017f2096bacda358c7852feceecda079851c86c891e261057bdd20ae592a2bf63e7c81526020017f29894ebd83a0b97b8d77c42299de988878354a8fcebb20257290b0ffd89cdd8a81526020017f086903abb30acb73994b6192f8a252cbe45de344dd52a64b4f66c13f652db8a081526020017f24f14d18d66c1856e3f6a8abfd9a0484b0b2f0537f9128f65d5e81c5e1ba896281526020017f1874b5c285e4210f8864c029856dd6023f64334ab15ed2d3eb50466e86a44a0781526020017f063d0b01a883ac19b227113a85d5ebadd942e4a944d3a4fcffb2a3c0e1cb0f1681526020017f269e6bea132772bc395c64451eb818dba2ebc6aa296ad3ce36e7c8dddbf249ef81526020017f03797301a98cdfe52c2e248bde41b2ad09e5dc86ee7b36e650ccf4e25b79f46081526020017f163308ae1413439a1708c5fd556bf624cddb3097baefca7d34915ae04e26eb1e81526020017f08cd97bf5077b356e26d76194df9ddf9324654de795e692fe72e3e628ebd4cbf81526020017f09a6fddec902d117780b231a9e1f5852093bbe5cef4a0cf93dfbef782df536b481526020017f0549b629f1d3860b8ea2a224ed088f0672b79618912f0cae5576471099eaf54681526020017e793e6dfe7f4611ee027f69d4b400af1eb7fb0e3f6266f99fc1999e9c978c6281526020017f283857e88bbf48dc9b7028273ed6840491f4514ecbaf948b54d248f228716efa81526020017f223da47c2ec498722f26aab8927b70a8bd5f0c08f1d15e4a5bbae244128e69b581526020017f166c6bf34a1e6fe1e1eaaf69d17530d5d6b834c9af51afa281129bb4993d8ba281526020017f18dd55b4a83a53f2ee578eb3e6d26f594824d44670fc3f4de80642344d15c09a81526020017f0e88ca3c50f6e50e0b69e7ea68ec50092e8b92b499e29cd91d29b00b5c3604b381526020017f1901d8f4f2c8449128e00663978f2050f2eb1cd6acb60d9d09c57c5d46ee54fe81526020017f2e611916dd7984c5c692e9a2cbde6d04c425f7a319a6fd3698e508d1233a7db381526020017f01c0b2cbe4fa9877a3d08eb67c510e8630da0a8beda94a6d9283e6f70d268bc581526020017f0b1d85acd9031a9107350eed946a25734e974799c5ba7cff13b15a5a623a25f081526020017f204497d1d359552905a2fe655f3d6f94926ea92d12cdaa6556ec26362f239f6481526020017f1ee4be22419c99e69ebd1c27993f9b1d51b6824b7379ceac5e5ca2cbb2a2a5ec81526020017f243f46e353354256ab8fe0ca4e9230dfc330bc163e602dfeaf307c1d1a7264b981526020017f12b77492849bdefb1bbc5c55c3c82d9243f39a6009c361c7745280a45e9ecce781526020017f2f312eef69a33d9fa753c08840275692a03432b3e6da67f9c59b9f9f4971cd5681526020017f2eceeb23cdf17babea42cdc72796a98469730a063b793c893a8ca496e0efbbff81526020017f17ca868794a5a2b09ff219856b27d11890abf3d59958a90a13e569ff3abd8a5f81526020017f0ec3c87f00cf5519cd60e5e894dfc3382e28a73f6a62b41760b937c255df83a681526020017f0b0a5017a4a351d91f366611585b8d160379b669b243e657d8df7776f4a238b581526020017f2899c036db850a580a15f86e9ae418e9cb2ef4f15265d825f09f16870ec8c33681526020017f07c085730b2b73e8012a1b69807c18db4b962ce1fee9aee363ec111831f8a7bd81526020017e8cc717b97762132791cba6294baf287217cb1f8d3467898de67018cca91f4481526020017f164eda75fda2861f9d812f24e37ac938844fbe383c243b32b9f66ae2e76be71981526020017f2f15c2779a9570363b897cdeb055ddfe284f6571fbe189a414b33f5bf31afcbc81526020017f24fc7ca023cb6e65f3e6d9c4c0fa92776956fbd1f1abe119b1b4b9dfb0334b4b81526020017f09e0573e21c5e8107335eaed49658e7e063a5ff33e167aa34ee9e383a3ef598d81526020017f132f51760e46faa17b7bab733908e244952d68c19dc6b20f0d95d431b1c59bf081526020017f0242f85dca68c13f3189dd0096c9ab2b0cf01e4754a9280cfcc411b7fd55d77181526020017f042cae37aec897c9a57635298566baf59edc50fcc7c21db9d049071b0a344b8481526020017f095526cb4b2cc423e912e906df854e76a5bc30530927c87732d34a4a0088187081526020017f063f1db81f5540a85b592e5e4567fcb0a6f615803de26f24012a32a2b18a70a781526020017f2a626b47b2d26d2cda681fffe5fa089209cdcd79985d2965c809aa073528a02581526020017f17d5b87c3657df3c89d69eba72fc4c3480a0f4be451896520807d892481628fd81526020017f284e583469ea05fdf11f2ae897a70e557c8703ae3c18726e78a95023d5b98d2381526020017f255daa128f75da34d00d137a0eee7e06ead6bf071c830e3c5c78b92a2d57def581526020017e52e9a9b5f419b14f3125f903a33bdd519ab8ed06c3143b9ca13ef1d11e0c2d81526020017f0582d5b3b958cd5eb1a90e55b3ef8eb245d8ecdba20dba510110ac923f3a989c81526020017f04df8c0defdc02280cf831b967866c926165551a664cba547c677a37951c366081526020017f2382d616e8c47fdd4fbbb676a088dc9d20469c41cff2f587313498ec5d0b1b0281526020017f0d086948c84c5518221f92df23f89c4a360e89aa08bd10658158d2dd68060c9181526020017f0af02d0e1317d88c923e7a30aee3f519da6d9660607ea33def8b7d84465093fe81526020017f23b0c3ba6f80cf25f3073e49cad576a6c8f50fdd3368c6636ff329e0837bd97281526020017ee115c4a98efae6a3a5ecc873b0cef63ccd5b515710a3ab03ec52218f784dc981526020017f18ec1888a2f457d4a6e26f7dbc0dcfafb4a91b54c37c7e72e9ea61d577a202a781526020017f226a91a571ed1b2f9061e56f764fdfe8a4ade867a8a359ac46308e76104c62f681526020017f1f71e007903cbfe8c8898fe2e8532eb94b29ce61e49759565cb845d7ce62aa1581526020017f24e65c718938c2b937378e7435332174329730bde85a4185e37875824eb4985981526020017f081b774b0a70dc72788a142dca2be4a1c31de964fa1a5df0b5b28901684a8eb881526020017f2f0c13445d90cb0ebc547403eb00095d6b790cbd80204cf69d737f8a33d1ffa681526020017f23248698612cd8e83234fcf5db9b6b225f4b0ba78d72ef13ea1edff5f0fb029881526020017f1118c071b4fb39eb0db94f9017b1baf96d7e9a4e8f40edd46ac68397510cf0d081526020017ef7f822f933820f4731c9ff31b4dc51256770608cbc2fabb574b1b945c82ef881526020017f01cd399556445e3d7b201d6c5e56a5794e60be2cfd9a4643e7ead79bb4f60f7981526020017f1b58716ce9cada90d6a0d672ff670579d37fc4b39d27bb8d9c92c7e3b3a8312c81526020017f058402b966fb4ab2cd74280ef64d4956f68fbcfb11b6815af104fb76b817181181526020017f2398eafda87885d51410d7d592c0ca308518a760f0c7eb3e5025b7976986b2ad81526020017f0dd2dfe8f3aa9e4d3ceb2b16f4a19a95b71b92da9cd9c778622bae6482c9d72881526020017f1482ac3e7e4f321627850d95a13942aea6d2923402b913046856ff7e8aaf9aff81526020017f17332b4c7aac2a07ccfe954de7ad22ccf6fcb4c5fa15c130ed22a40ae9398f4781526020017f132ccb7a7c7903f9f0a001d96f8410c6b81382764b7d9f280b7b993b7fdd857f81526020017f1521dbdf2f88fd7c10c0b3200849caca5b4aae7dbb2b7bb8d08bc01609b7b08281526020017f2a0892d6b1ae3cabd6a34b075099d59a3bff87e01694c5895bad732373526d3281526020017f15a16435a2300b27a337561401f06682ba85019aa0af61b264a1177d38b5c13c81526020017f22616f306e76352293a22ab6ee15509d9b108d4136b32fa7f9ed259793f392a181526020017f2132d93f742f2ac654908e42903beaf9d0d32dc23b5efd0fc680a6e8dae1851d81526020017f0e6264ac0dc6688a1fd7be3423b7267356bbb28b6a50a1149a901a2942ae638e81526020017f17dead3bfa1968c744118023dead77cdbee22c5b7c2414f5a6bdf82fd94cf3ad81526020017f2bef0f8b22a1cfb90100f4a552a9d02b772130123de8144a00c4d57497e1d7f481526020017f2e249d189c5ab035f344531c0e4b9b1ba214be09a0f861a1fbf521384d152a0e81526020017f0b468ebcf7fc9de942e6d629d607e97ee1dca77426ee678a444f7a255d6b4dfd81526020017f13681ba8a95a21e65720051ff644e617f6e6d285e65b0dcc2ad0cba02338d9a681526020017f0bb7f176c4c62cab92855f63a0c9e7374f1e7e89227dc2703a672b43491ad64481526020017f02aa427b8648ae82ff39c8f47497e596c2a49bc16a845262a409a76836768a7881526020017f0c40f19ecd5513a5ea3acef661b2fa797737dff7847fee1b86522277eb3ebcc381526020017f1861ae1e114291d107945129389362b0923d2bd63b8db9a51bef3a9004fe629581526020017f2a6ba2a368b91dd670ab0224bc29c24c852397436035daef124f258f08cdebf181526020017f25b068c942724c424ed5851c9575c22752c9bd25f91ebfa589de3d88ee7627f981526020017f2c0767c7996f9a36404cca45f1823a62707d38f7db68199c4bb32b410e01e1a681526020017f067a20b1df30438e616c4a461dce9e6225b52d0cc49daf3b9e54de8f0f51854081526020017f215deaf3c2fe9f8a3785e8bc5f7872525d2fd0f0eee1d69316bd8797bb4b70c981526020017f2fb50b2d3af74321e7ddbcf3f573e116586e4cb458dd9be75d9242f27d0fcc7481526020017f02c871f0ddf5dfc9e98ce87f78923799449f3b2fe580816aa16ea2502f1bad5f81526020017f0871d0eb7536b5ad54e6a9588d9e9770544eb394e71fed7dae196604956280a381526020017f13218626665c420d3aa2b0fa49224a3dce8e08b8b56f8851bd9cb5e25cb3042d81526020017f0e9fc2cb907861c7dc61b6c1207b73b3a6d5ace02773f6b0b1bfcfb91873e30e81526020017f2a79e5febcf2f8b42ebdffbb42831bea32170ebe2a12121ad4c604b0d22d1c4681526020017f2943a0e1e2336d7694fc2df0981487584fa76bbc4feb2a7bf952f59cd5f56ac981526020017f196bc98252f63169ed79073ee091a0e8ed0b5af51017da143940c00bdb86370981526020017f17e885a4e49713520e743bca0d6ab7a40f1cfcf0f8fc51afc13aa6aaa8fad6be81526020017f26d61bd45f606ca6514b9b293d0ad15655ebe762faed8da11947aa319dc56d4381526020017f1efcda9d986cddcf431af4d59c6a7709d650885b7886cba70f0e7cd92b331cdc81526020017f123925acd4f1aa1e2a22c32cce354515ca98bde87953b3f3ac6240eb7f60418e81526020017f14704dd362d250edaa89359aa8cda1a725de051592e76a5ccddf83ce44c7e41c81526020017f1b0273b47db1989e107d5ac9e86d5109438713731fcb8b97696ecb44448dd0a481526020017f17a993a6af068d72bc36f0e814d29fef3f97d7a72aa963889b16a8457409861a81526020017f0e535cb0c3f1cdb026576975dc6d29e64093f1e1d5548d90a2787c69fe5a07b381526020017f216c3a201f899c065bce489a4603ec90f57e6d5a5642d6b56d63c0ab3c072b1981526020017f0f208cbc3b076c66eb9f87575ad4771877ae410473d21ee109799d04d97bc47c81526020017f1c2685c8bb95d9cbd97a5d24ef18089d6064024b701e1c8dedd057a6df96787781526020017f0f55ca8ae78360fa3d9b15388528a67eccf126335f9ca6b3eec47209f9fa595781526020017f263e1195090d00be1d8fb37de17ccf3b66d180645efa0d831865cfaa8797769e81526020017f24cacf436717ac539e5b7bf56f5ebb01e32bed600dbecd166b14a862aa85029b81526020017f105c861f78d37579808457eef387b09fa125918e0d2011e00a878d489b97a2a981526020017f050696b356b09defbc3b0a5d653f22c73a0c5e18b104bf47396c58fb9f89e62081526020017f2185b14275ecd4c36288d9d5c844f4dfcc3c61dda109bb64c5c4f1a4ae37b99881526020017f0c715b745408b0ba9c797b8199d412f71063e4409b82cda606100c899237226281526020017f23900264b13be89a7a24fb592301daae20bf031546b26237e35ce6edef6cc83c81526020017f1f7476211105b3039cef009c51155ae93526c53a74973ecfce40754b3df1052181526020017f284aad6697126c6afc69b61cec7f8e86447ac4afb1543014d23b3f3151a5a6e281526020017e9b9d0a9720fffc5b3650a1c0b4debbda89ddb79af5958638cb3d9f02a5a49381526020017f186e8b3288ff778ee79bc5445ab38f3cc2af91862231912ca9c22f22b2b0748981526020017f04af9e46dbc42b94137981fece56e9775d00fc101129f08fd6b781f439c20c0b8152602001600081525090508091505090565b60405180604001604052806002905b612c7f612c95565b815260200190600190039081612c775790505090565b6040518060800160405280600490602082028036833780820191505090505090565b60405180611b80016040528060dc90602082028036833780820191505090505090565b600081359050612ce981612f81565b92915050565b60008060408385031215612d0257600080fd5b6000612d1085828601612cda565b9250506020612d2185828601612cda565b9150509250929050565b6000612d378383612d9a565b60208301905092915050565b612d4c81612df8565b612d568184612e10565b9250612d6182612dee565b8060005b83811015612d92578151612d798782612d2b565b9650612d8483612e03565b925050600181019050612d65565b505050505050565b612da381612eff565b82525050565b612db281612eff565b82525050565b6000608082019050612dcd6000830184612d43565b92915050565b6000602082019050612de86000830184612da9565b92915050565b6000819050919050565b600060049050919050565b6000602082019050919050565b600081905092915050565b6000612e2682612eff565b9150612e3183612eff565b9250827fffffffffffffffffffffffffffffffffffffffffffffffffffffffffffffffff03821115612e6657612e65612f52565b5b828201905092915050565b6000612e7c82612eff565b9150612e8783612eff565b9250817fffffffffffffffffffffffffffffffffffffffffffffffffffffffffffffffff0483118215151615612ec057612ebf612f52565b5b828202905092915050565b6000612ed682612eff565b9150612ee183612eff565b925082821015612ef457612ef3612f52565b5b828203905092915050565b6000819050919050565b6000612f1482612eff565b91507fffffffffffffffffffffffffffffffffffffffffffffffffffffffffffffffff821415612f4757612f46612f52565b5b600182019050919050565b7f4e487b7100000000000000000000000000000000000000000000000000000000600052601160045260246000fd5b612f8a81612eff565b8114612f9557600080fd5b5056fea26469706673582212201208e2fe2da269c81508907f4881ec0ccb60682d9e1a92ecdb6ae61d4133865f64736f6c63430008040033",
  "immutableReferences": {},
  "source": "pragma solidity ^0.8.4;\nimport {Constants} from \"./constants.sol\";\ncontract MiMC {\n  uint constant FIELD_SIZE = 21888242871839275222246405745257275088548364400416034343698204186575808495617;\n\n  function MiMCFeistel(uint256 xL_in, uint256 xR_in) public pure returns (uint256[4] memory){\n    \t\n    uint[220] memory IV = Constants.getConstants();\n\n\tuint256 t = 0;\n\tuint nRounds = 220;\n  uint k = 220;\n\tuint256[220] memory exp; //length: nRounds\n\tuint256[220] memory t4;\n\tuint256[220] memory xL; \n\tuint256[220] memory xR; \n\tuint256 c = 0;\n  for(uint i = 0; i <= nRounds; i++){\n\t\tuint index;\n\t\tif(i == 0){\n\t\t\tindex = 0;\n\t\t} else {\n\t\t\tindex = i - 1; \n\t\t}\n\n\t\tc = IV[i];\n\t\tif(i == 0){\n\t\t\tt = k + xL_in;\n\t\t} else {\n\t\t\tt = k + xL[index] + c; \n\t\t}\n\t\texp[i] = t * t;\n\t\tt4[i] = exp[i] * exp[i];\n    if(i < nRounds - 1){\n      if(i == 0){\n          xL[i] = xR_in + t4[i]* t;\n      } else {\n          xL[i] = xR[index] + t4[i] * t;\n      }\n    } \n    else {\n      xL[i] = xL[index];\n    }\n    if(i < nRounds - 1){\n      if(i == 0){\n        xR[i] = xL_in;\n      } else {\n        xR[i] = xL[index];\n      }\n    } else {\n      xR[i] = xR[index] + t4[i]*t;\n    }\n  }\t\n  return [xL[nRounds - 1], xR[nRounds - 1], 0, 0];\n//\treturn (xL[nRounds - 1], xR[nRounds - 1]);\n  }\n  /* Returns a BigNumber (BN) type for Truffle and Web3. The test should convert it to integer form somehow\n  (Summation over array?) \n  INPUT: 1337, 0\n  OUTPUT: \n  function hashMiMC(uint256 _left, uint256 _right) public pure returns (uint256) {\n    uint256 R = _left;\n    uint256 C = 0;\n    (R, C) = mimcSponge(R, C);\n    R = addmod(R, uint256(_right), FIELD_SIZE);\n    (R, C) = mimcSponge(R, C);\n    return R;\n  }*/\n  function mimcSponge(uint256 alpha, uint256 beta) public returns(uint256) {\n\tuint256[2] memory ins = [alpha, beta];\n\t//nInputs = 2, nOutputs = 3,\n\tuint nInputs = 2;\n\tuint nOutputs = 1;\n\n\tuint256[4][2] memory S; // Dim: (nInputs + nOutputs - 1, 2)\n\t//field[3] outs = [0; 3]\n    uint256 outs = 0;\n    for(uint i =0; i < nInputs; i++){\n\t\tuint index;\n\t\tif(i == 0){\n\t\t\tindex = 0;\n\t\t} else {\n\t\t\tindex = i - 1; \n\t\t}\n    if(i ==0) { \n      uint256[4] memory x = MiMCFeistel(ins[0], 0); \n      S[i][0] = x[0];\n      S[i][1] = x[1];\n      } else { \n      S[i] = MiMCFeistel(S[index][0] + ins[i], S[index][1]);\n     }\n\t}\n\touts = S[nInputs - 1][0];\n\t//outs[0] = S[nInputs - 1][0]\n    /*\n\tfor field i in 0..(nOutputs - 1) do\n\t\tfield[2] feistelRes = MiMCFeistel(S[nInputs + i - 1][0], S[nInputs + i - 1][1], k)\n\t\tS[nInputs + i] = feistelRes\n\t\touts[i + 1] = S[nInputs + i][0]\n\tendfor */\n\n\treturn outs;\n}\n}",
  "sourcePath": "/home/rayyan808/Documents/Github/Bsc Project Git/bsc-project/contracts/MiMC.sol",
  "compiler": {
    "name": "solc",
    "version": "0.8.4+commit.c7e474f2.Emscripten.clang"
  },
  "schemaVersion": "3.4.0",
  "updatedAt": "2021-05-24T19:46:22.307Z",
  "networkType": "ethereum",
  "devdoc": {
    "kind": "dev",
    "methods": {},
    "version": 1
  },
  "userdoc": {
    "kind": "user",
    "methods": {},
    "version": 1
  }
}